{
  "_format": "hh-sol-artifact-1",
  "contractName": "MEIToken",
  "sourceName": "contracts/MEIToken.sol",
  "abi": [
    {
      "anonymous": false,
      "inputs": [
        {
          "indexed": true,
          "internalType": "address",
          "name": "owner",
          "type": "address"
        },
        {
          "indexed": true,
          "internalType": "address",
          "name": "spender",
          "type": "address"
        },
        {
          "indexed": false,
          "internalType": "uint256",
          "name": "value",
          "type": "uint256"
        }
      ],
      "name": "Approval",
      "type": "event"
    },
    {
      "anonymous": false,
      "inputs": [
        {
          "indexed": true,
          "internalType": "address",
          "name": "from",
          "type": "address"
        },
        {
          "indexed": true,
          "internalType": "address",
          "name": "to",
          "type": "address"
        },
        {
          "indexed": false,
          "internalType": "uint256",
          "name": "value",
          "type": "uint256"
        }
      ],
      "name": "Transfer",
      "type": "event"
    },
    {
      "inputs": [
        {
          "internalType": "address",
          "name": "owner",
          "type": "address"
        },
        {
          "internalType": "address",
          "name": "spender",
          "type": "address"
        }
      ],
      "name": "allowance",
      "outputs": [
        {
          "internalType": "uint256",
          "name": "",
          "type": "uint256"
        }
      ],
      "stateMutability": "view",
      "type": "function"
    },
    {
      "inputs": [
        {
          "internalType": "address",
          "name": "spender",
          "type": "address"
        },
        {
          "internalType": "uint256",
          "name": "amount",
          "type": "uint256"
        }
      ],
      "name": "approve",
      "outputs": [
        {
          "internalType": "bool",
          "name": "",
          "type": "bool"
        }
      ],
      "stateMutability": "nonpayable",
      "type": "function"
    },
    {
      "inputs": [
        {
          "internalType": "address",
          "name": "account",
          "type": "address"
        }
      ],
      "name": "balanceOf",
      "outputs": [
        {
          "internalType": "uint256",
          "name": "",
          "type": "uint256"
        }
      ],
      "stateMutability": "view",
      "type": "function"
    },
    {
      "inputs": [
        {
          "internalType": "uint256",
          "name": "amount",
          "type": "uint256"
        }
      ],
      "name": "burn",
      "outputs": [],
      "stateMutability": "nonpayable",
      "type": "function"
    },
    {
      "inputs": [
        {
          "internalType": "address",
          "name": "account",
          "type": "address"
        },
        {
          "internalType": "uint256",
          "name": "amount",
          "type": "uint256"
        }
      ],
      "name": "burnFrom",
      "outputs": [],
      "stateMutability": "nonpayable",
      "type": "function"
    },
    {
      "inputs": [],
      "name": "decimals",
      "outputs": [
        {
          "internalType": "uint8",
          "name": "",
          "type": "uint8"
        }
      ],
      "stateMutability": "view",
      "type": "function"
    },
    {
      "inputs": [
        {
          "internalType": "address",
          "name": "spender",
          "type": "address"
        },
        {
          "internalType": "uint256",
          "name": "subtractedValue",
          "type": "uint256"
        }
      ],
      "name": "decreaseAllowance",
      "outputs": [
        {
          "internalType": "bool",
          "name": "",
          "type": "bool"
        }
      ],
      "stateMutability": "nonpayable",
      "type": "function"
    },
    {
      "inputs": [
        {
          "internalType": "address",
          "name": "spender",
          "type": "address"
        },
        {
          "internalType": "uint256",
          "name": "addedValue",
          "type": "uint256"
        }
      ],
      "name": "increaseAllowance",
      "outputs": [
        {
          "internalType": "bool",
          "name": "",
          "type": "bool"
        }
      ],
      "stateMutability": "nonpayable",
      "type": "function"
    },
    {
      "inputs": [
        {
          "internalType": "string",
          "name": "name",
          "type": "string"
        },
        {
          "internalType": "string",
          "name": "symbol",
          "type": "string"
        },
        {
          "internalType": "uint256",
          "name": "initialSupply",
          "type": "uint256"
        }
      ],
      "name": "initialize",
      "outputs": [],
      "stateMutability": "nonpayable",
      "type": "function"
    },
    {
      "inputs": [],
      "name": "name",
      "outputs": [
        {
          "internalType": "string",
          "name": "",
          "type": "string"
        }
      ],
      "stateMutability": "view",
      "type": "function"
    },
    {
      "inputs": [],
      "name": "symbol",
      "outputs": [
        {
          "internalType": "string",
          "name": "",
          "type": "string"
        }
      ],
      "stateMutability": "view",
      "type": "function"
    },
    {
      "inputs": [],
      "name": "totalSupply",
      "outputs": [
        {
          "internalType": "uint256",
          "name": "",
          "type": "uint256"
        }
      ],
      "stateMutability": "view",
      "type": "function"
    },
    {
      "inputs": [
        {
          "internalType": "address",
          "name": "recipient",
          "type": "address"
        },
        {
          "internalType": "uint256",
          "name": "amount",
          "type": "uint256"
        }
      ],
      "name": "transfer",
      "outputs": [
        {
          "internalType": "bool",
          "name": "",
          "type": "bool"
        }
      ],
      "stateMutability": "nonpayable",
      "type": "function"
    },
    {
      "inputs": [
        {
          "internalType": "address",
          "name": "sender",
          "type": "address"
        },
        {
          "internalType": "address",
          "name": "recipient",
          "type": "address"
        },
        {
          "internalType": "uint256",
          "name": "amount",
          "type": "uint256"
        }
      ],
      "name": "transferFrom",
      "outputs": [
        {
          "internalType": "bool",
          "name": "",
          "type": "bool"
        }
      ],
      "stateMutability": "nonpayable",
      "type": "function"
    }
  ],
  "bytecode": "0x608060405234801561001057600080fd5b50611020806100206000396000f3fe608060405234801561001057600080fd5b50600436106100ea5760003560e01c806370a082311161008c578063a457c2d711610066578063a457c2d7146101d0578063a9059cbb146101e3578063b119490e146101f6578063dd62ed3e1461020957600080fd5b806370a082311461018c57806379cc6790146101b557806395d89b41146101c857600080fd5b806323b872dd116100c857806323b872dd14610142578063313ce56714610155578063395093511461016457806342966c681461017757600080fd5b806306fdde03146100ef578063095ea7b31461010d57806318160ddd14610130575b600080fd5b6100f7610242565b6040516101049190610eb3565b60405180910390f35b61012061011b366004610e08565b6102d4565b6040519015158152602001610104565b6035545b604051908152602001610104565b610120610150366004610dcd565b6102ea565b60405160128152602001610104565b610120610172366004610e08565b610399565b61018a610185366004610e9b565b6103d5565b005b61013461019a366004610d7a565b6001600160a01b031660009081526033602052604090205490565b61018a6101c3366004610e08565b6103e2565b6100f7610468565b6101206101de366004610e08565b610477565b6101206101f1366004610e08565b610510565b61018a610204366004610e31565b61051d565b610134610217366004610d9b565b6001600160a01b03918216600090815260346020908152604080832093909416825291909152205490565b60606036805461025190610f83565b80601f016020809104026020016040519081016040528092919081815260200182805461027d90610f83565b80156102ca5780601f1061029f576101008083540402835291602001916102ca565b820191906000526020600020905b8154815290600101906020018083116102ad57829003601f168201915b5050505050905090565b60006102e13384846105a0565b50600192915050565b60006102f78484846106c4565b6001600160a01b0384166000908152603460209081526040808320338452909152902054828110156103815760405162461bcd60e51b815260206004820152602860248201527f45524332303a207472616e7366657220616d6f756e74206578636565647320616044820152676c6c6f77616e636560c01b60648201526084015b60405180910390fd5b61038e85338584036105a0565b506001949350505050565b3360008181526034602090815260408083206001600160a01b038716845290915281205490916102e19185906103d0908690610f54565b6105a0565b6103df3382610892565b50565b60006103ee8333610217565b90508181101561044c5760405162461bcd60e51b8152602060048201526024808201527f45524332303a206275726e20616d6f756e74206578636565647320616c6c6f77604482015263616e636560e01b6064820152608401610378565b61045983338484036105a0565b6104638383610892565b505050565b60606037805461025190610f83565b3360009081526034602090815260408083206001600160a01b0386168452909152812054828110156104f95760405162461bcd60e51b815260206004820152602560248201527f45524332303a2064656372656173656420616c6c6f77616e63652062656c6f77604482015264207a65726f60d81b6064820152608401610378565b61050633858584036105a0565b5060019392505050565b60006102e13384846106c4565b600054610100900460ff1680610536575060005460ff16155b6105525760405162461bcd60e51b815260040161037890610f06565b600054610100900460ff16158015610574576000805461ffff19166101011790555b61057e84846109e0565b6105883383610a5f565b801561059a576000805461ff00191690555b50505050565b6001600160a01b0383166106025760405162461bcd60e51b8152602060048201526024808201527f45524332303a20617070726f76652066726f6d20746865207a65726f206164646044820152637265737360e01b6064820152608401610378565b6001600160a01b0382166106635760405162461bcd60e51b815260206004820152602260248201527f45524332303a20617070726f766520746f20746865207a65726f206164647265604482015261737360f01b6064820152608401610378565b6001600160a01b0383811660008181526034602090815260408083209487168084529482529182902085905590518481527f8c5be1e5ebec7d5bd14f71427d1e84f3dd0314c0f7b2291e5b200ac8c7c3b925910160405180910390a3505050565b6001600160a01b0383166107285760405162461bcd60e51b815260206004820152602560248201527f45524332303a207472616e736665722066726f6d20746865207a65726f206164604482015264647265737360d81b6064820152608401610378565b6001600160a01b03821661078a5760405162461bcd60e51b815260206004820152602360248201527f45524332303a207472616e7366657220746f20746865207a65726f206164647260448201526265737360e81b6064820152608401610378565b6001600160a01b038316600090815260336020526040902054818110156108025760405162461bcd60e51b815260206004820152602660248201527f45524332303a207472616e7366657220616d6f756e7420657863656564732062604482015265616c616e636560d01b6064820152608401610378565b6001600160a01b03808516600090815260336020526040808220858503905591851681529081208054849290610839908490610f54565b92505081905550826001600160a01b0316846001600160a01b03167fddf252ad1be2c89b69c2b068fc378daa952ba7f163c4a11628f55a4df523b3ef8460405161088591815260200190565b60405180910390a361059a565b6001600160a01b0382166108f25760405162461bcd60e51b815260206004820152602160248201527f45524332303a206275726e2066726f6d20746865207a65726f206164647265736044820152607360f81b6064820152608401610378565b6001600160a01b038216600090815260336020526040902054818110156109665760405162461bcd60e51b815260206004820152602260248201527f45524332303a206275726e20616d6f756e7420657863656564732062616c616e604482015261636560f01b6064820152608401610378565b6001600160a01b0383166000908152603360205260408120838303905560358054849290610995908490610f6c565b90915550506040518281526000906001600160a01b038516907fddf252ad1be2c89b69c2b068fc378daa952ba7f163c4a11628f55a4df523b3ef9060200160405180910390a3505050565b600054610100900460ff16806109f9575060005460ff16155b610a155760405162461bcd60e51b815260040161037890610f06565b600054610100900460ff16158015610a37576000805461ffff19166101011790555b610a3f610b3e565b610a498383610ba9565b8015610463576000805461ff0019169055505050565b6001600160a01b038216610ab55760405162461bcd60e51b815260206004820152601f60248201527f45524332303a206d696e7420746f20746865207a65726f2061646472657373006044820152606401610378565b8060356000828254610ac79190610f54565b90915550506001600160a01b03821660009081526033602052604081208054839290610af4908490610f54565b90915550506040518181526001600160a01b038316906000907fddf252ad1be2c89b69c2b068fc378daa952ba7f163c4a11628f55a4df523b3ef9060200160405180910390a35050565b600054610100900460ff1680610b57575060005460ff16155b610b735760405162461bcd60e51b815260040161037890610f06565b600054610100900460ff16158015610b95576000805461ffff19166101011790555b80156103df576000805461ff001916905550565b600054610100900460ff1680610bc2575060005460ff16155b610bde5760405162461bcd60e51b815260040161037890610f06565b600054610100900460ff16158015610c00576000805461ffff19166101011790555b8251610c13906036906020860190610c3e565b508151610c27906037906020850190610c3e565b508015610463576000805461ff0019169055505050565b828054610c4a90610f83565b90600052602060002090601f016020900481019282610c6c5760008555610cb2565b82601f10610c8557805160ff1916838001178555610cb2565b82800160010185558215610cb2579182015b82811115610cb2578251825591602001919060010190610c97565b50610cbe929150610cc2565b5090565b5b80821115610cbe5760008155600101610cc3565b80356001600160a01b0381168114610cee57600080fd5b919050565b600082601f830112610d03578081fd5b813567ffffffffffffffff80821115610d1e57610d1e610fd4565b604051601f8301601f19908116603f01168101908282118183101715610d4657610d46610fd4565b81604052838152866020858801011115610d5e578485fd5b8360208701602083013792830160200193909352509392505050565b600060208284031215610d8b578081fd5b610d9482610cd7565b9392505050565b60008060408385031215610dad578081fd5b610db683610cd7565b9150610dc460208401610cd7565b90509250929050565b600080600060608486031215610de1578081fd5b610dea84610cd7565b9250610df860208501610cd7565b9150604084013590509250925092565b60008060408385031215610e1a578182fd5b610e2383610cd7565b946020939093013593505050565b600080600060608486031215610e45578283fd5b833567ffffffffffffffff80821115610e5c578485fd5b610e6887838801610cf3565b94506020860135915080821115610e7d578384fd5b50610e8a86828701610cf3565b925050604084013590509250925092565b600060208284031215610eac578081fd5b5035919050565b6000602080835283518082850152825b81811015610edf57858101830151858201604001528201610ec3565b81811115610ef05783604083870101525b50601f01601f1916929092016040019392505050565b6020808252602e908201527f496e697469616c697a61626c653a20636f6e747261637420697320616c72656160408201526d191e481a5b9a5d1a585b1a5e995960921b606082015260800190565b60008219821115610f6757610f67610fbe565b500190565b600082821015610f7e57610f7e610fbe565b500390565b600181811c90821680610f9757607f821691505b60208210811415610fb857634e487b7160e01b600052602260045260246000fd5b50919050565b634e487b7160e01b600052601160045260246000fd5b634e487b7160e01b600052604160045260246000fdfea2646970667358221220cce35b96213e8f799a88cbb5f2f61968941c988639302ced695388d8a222f06a64736f6c63430008040033",
  "linkReferences": {},
  "deployedLinkReferences": {}
}