{
  "contracts/ERC1155Tradable.sol": {
    "ProxyRegistry": {
      "abi": [
        {
          "inputs": [
            {
              "internalType": "address",
              "name": "",
              "type": "address"
            }
          ],
          "name": "proxies",
          "outputs": [
            {
              "internalType": "contract OwnableDelegateProxy",
              "name": "",
              "type": "address"
            }
          ],
          "stateMutability": "view",
          "type": "function"
        }
      ],
      "evm": {
        "bytecode": {
          "linkReferences": {},
          "object": "608060405234801561001057600080fd5b5060d18061001f6000396000f3fe6080604052348015600f57600080fd5b506004361060285760003560e01c8063c455279114602d575b600080fd5b60536038366004606f565b6000602081905290815260409020546001600160a01b031681565b6040516001600160a01b03909116815260200160405180910390f35b600060208284031215607f578081fd5b81356001600160a01b03811681146094578182fd5b939250505056fea2646970667358221220b33f76729995ea4cc1bf746f5885e87e4b55c128611719a1aeb535d244344ad364736f6c63430008040033",
          "opcodes": "PUSH1 0x80 PUSH1 0x40 MSTORE CALLVALUE DUP1 ISZERO PUSH2 0x10 JUMPI PUSH1 0x0 DUP1 REVERT JUMPDEST POP PUSH1 0xD1 DUP1 PUSH2 0x1F PUSH1 0x0 CODECOPY PUSH1 0x0 RETURN INVALID PUSH1 0x80 PUSH1 0x40 MSTORE CALLVALUE DUP1 ISZERO PUSH1 0xF JUMPI PUSH1 0x0 DUP1 REVERT JUMPDEST POP PUSH1 0x4 CALLDATASIZE LT PUSH1 0x28 JUMPI PUSH1 0x0 CALLDATALOAD PUSH1 0xE0 SHR DUP1 PUSH4 0xC4552791 EQ PUSH1 0x2D JUMPI JUMPDEST PUSH1 0x0 DUP1 REVERT JUMPDEST PUSH1 0x53 PUSH1 0x38 CALLDATASIZE PUSH1 0x4 PUSH1 0x6F JUMP JUMPDEST PUSH1 0x0 PUSH1 0x20 DUP2 SWAP1 MSTORE SWAP1 DUP2 MSTORE PUSH1 0x40 SWAP1 KECCAK256 SLOAD PUSH1 0x1 PUSH1 0x1 PUSH1 0xA0 SHL SUB AND DUP2 JUMP JUMPDEST PUSH1 0x40 MLOAD PUSH1 0x1 PUSH1 0x1 PUSH1 0xA0 SHL SUB SWAP1 SWAP2 AND DUP2 MSTORE PUSH1 0x20 ADD PUSH1 0x40 MLOAD DUP1 SWAP2 SUB SWAP1 RETURN JUMPDEST PUSH1 0x0 PUSH1 0x20 DUP3 DUP5 SUB SLT ISZERO PUSH1 0x7F JUMPI DUP1 DUP2 REVERT JUMPDEST DUP2 CALLDATALOAD PUSH1 0x1 PUSH1 0x1 PUSH1 0xA0 SHL SUB DUP2 AND DUP2 EQ PUSH1 0x94 JUMPI DUP2 DUP3 REVERT JUMPDEST SWAP4 SWAP3 POP POP POP JUMP INVALID LOG2 PUSH5 0x6970667358 0x22 SLT KECCAK256 0xB3 EXTCODEHASH PUSH23 0x729995EA4CC1BF746F5885E87E4B55C128611719A1AEB5 CALLDATALOAD 0xD2 DIFFICULTY CALLVALUE 0x4A 0xD3 PUSH5 0x736F6C6343 STOP ADDMOD DIV STOP CALLER "
        },
        "methodIdentifiers": {
          "proxies(address)": "c4552791"
        }
      },
      "storageLayout": {
        "storage": [
          {
            "astId": 2303,
            "contract": "contracts/ERC1155Tradable.sol:ProxyRegistry",
            "label": "proxies",
            "offset": 0,
            "slot": "0",
            "type": "t_mapping(t_address,t_contract(OwnableDelegateProxy)2298)"
          }
        ],
        "types": {
          "t_address": {
            "encoding": "inplace",
            "label": "address",
            "numberOfBytes": "20"
          },
          "t_contract(OwnableDelegateProxy)2298": {
            "encoding": "inplace",
            "label": "contract OwnableDelegateProxy",
            "numberOfBytes": "20"
          },
          "t_mapping(t_address,t_contract(OwnableDelegateProxy)2298)": {
            "encoding": "mapping",
            "key": "t_address",
            "label": "mapping(address => contract OwnableDelegateProxy)",
            "numberOfBytes": "32",
            "value": "t_contract(OwnableDelegateProxy)2298"
          }
        }
      }
    }
  }
}