{
  "contracts/REITIPO.sol": {
    "REITIPO": {
      "abi": [
        {
          "anonymous": false,
          "inputs": [
            {
              "indexed": true,
              "internalType": "address",
              "name": "previousGovernor",
              "type": "address"
            },
            {
              "indexed": true,
              "internalType": "address",
              "name": "newGovernor",
              "type": "address"
            }
          ],
          "name": "GovernorshipTransferred",
          "type": "event"
        },
        {
          "anonymous": false,
          "inputs": [
            {
              "indexed": false,
              "internalType": "uint8",
              "name": "version",
              "type": "uint8"
            }
          ],
          "name": "Initialized",
          "type": "event"
        },
        {
          "stateMutability": "payable",
          "type": "fallback"
        },
        {
          "inputs": [
            {
              "internalType": "address[]",
              "name": "accounts",
              "type": "address[]"
            }
          ],
          "name": "addManyToWhitelisted",
          "outputs": [],
          "stateMutability": "nonpayable",
          "type": "function"
        },
        {
          "inputs": [
            {
              "internalType": "address",
              "name": "account",
              "type": "address"
            }
          ],
          "name": "addToWhitelisted",
          "outputs": [],
          "stateMutability": "nonpayable",
          "type": "function"
        },
        {
          "inputs": [
            {
              "internalType": "string",
              "name": "name",
              "type": "string"
            },
            {
              "internalType": "address",
              "name": "token",
              "type": "address"
            }
          ],
          "name": "allowPayableToken",
          "outputs": [],
          "stateMutability": "nonpayable",
          "type": "function"
        },
        {
          "inputs": [
            {
              "internalType": "uint256",
              "name": "id",
              "type": "uint256"
            }
          ],
          "name": "claimPendingBalances",
          "outputs": [],
          "stateMutability": "nonpayable",
          "type": "function"
        },
        {
          "inputs": [],
          "name": "freeWhiteList",
          "outputs": [],
          "stateMutability": "nonpayable",
          "type": "function"
        },
        {
          "inputs": [],
          "name": "getNFTContract",
          "outputs": [
            {
              "internalType": "address",
              "name": "",
              "type": "address"
            }
          ],
          "stateMutability": "view",
          "type": "function"
        },
        {
          "inputs": [
            {
              "internalType": "uint256",
              "name": "id",
              "type": "uint256"
            },
            {
              "internalType": "address",
              "name": "account",
              "type": "address"
            }
          ],
          "name": "getPendingBalances",
          "outputs": [
            {
              "internalType": "uint256",
              "name": "",
              "type": "uint256"
            }
          ],
          "stateMutability": "view",
          "type": "function"
        },
        {
          "inputs": [],
          "name": "governor",
          "outputs": [
            {
              "internalType": "address",
              "name": "",
              "type": "address"
            }
          ],
          "stateMutability": "view",
          "type": "function"
        },
        {
          "inputs": [
            {
              "internalType": "address",
              "name": "_nftAddress",
              "type": "address"
            }
          ],
          "name": "initialize",
          "outputs": [],
          "stateMutability": "nonpayable",
          "type": "function"
        },
        {
          "inputs": [
            {
              "internalType": "address",
              "name": "account",
              "type": "address"
            }
          ],
          "name": "isWhitelisted",
          "outputs": [
            {
              "internalType": "bool",
              "name": "",
              "type": "bool"
            }
          ],
          "stateMutability": "view",
          "type": "function"
        },
        {
          "inputs": [
            {
              "internalType": "address",
              "name": "",
              "type": "address"
            },
            {
              "internalType": "address",
              "name": "",
              "type": "address"
            },
            {
              "internalType": "uint256[]",
              "name": "",
              "type": "uint256[]"
            },
            {
              "internalType": "uint256[]",
              "name": "",
              "type": "uint256[]"
            },
            {
              "internalType": "bytes",
              "name": "",
              "type": "bytes"
            }
          ],
          "name": "onERC1155BatchReceived",
          "outputs": [
            {
              "internalType": "bytes4",
              "name": "",
              "type": "bytes4"
            }
          ],
          "stateMutability": "nonpayable",
          "type": "function"
        },
        {
          "inputs": [
            {
              "internalType": "address",
              "name": "",
              "type": "address"
            },
            {
              "internalType": "address",
              "name": "",
              "type": "address"
            },
            {
              "internalType": "uint256",
              "name": "",
              "type": "uint256"
            },
            {
              "internalType": "uint256",
              "name": "",
              "type": "uint256"
            },
            {
              "internalType": "bytes",
              "name": "",
              "type": "bytes"
            }
          ],
          "name": "onERC1155Received",
          "outputs": [
            {
              "internalType": "bytes4",
              "name": "",
              "type": "bytes4"
            }
          ],
          "stateMutability": "nonpayable",
          "type": "function"
        },
        {
          "inputs": [
            {
              "internalType": "address",
              "name": "",
              "type": "address"
            },
            {
              "internalType": "address",
              "name": "",
              "type": "address"
            },
            {
              "internalType": "uint256",
              "name": "",
              "type": "uint256"
            },
            {
              "internalType": "bytes",
              "name": "",
              "type": "bytes"
            }
          ],
          "name": "onERC721Received",
          "outputs": [
            {
              "internalType": "bytes4",
              "name": "",
              "type": "bytes4"
            }
          ],
          "stateMutability": "nonpayable",
          "type": "function"
        },
        {
          "inputs": [
            {
              "internalType": "string",
              "name": "token",
              "type": "string"
            },
            {
              "internalType": "uint256",
              "name": "id",
              "type": "uint256"
            },
            {
              "internalType": "uint256",
              "name": "quantity",
              "type": "uint256"
            }
          ],
          "name": "purchaseWithToken",
          "outputs": [],
          "stateMutability": "nonpayable",
          "type": "function"
        },
        {
          "inputs": [
            {
              "internalType": "address[]",
              "name": "accounts",
              "type": "address[]"
            }
          ],
          "name": "removeManyWhitelisted",
          "outputs": [],
          "stateMutability": "nonpayable",
          "type": "function"
        },
        {
          "inputs": [
            {
              "internalType": "address",
              "name": "account",
              "type": "address"
            }
          ],
          "name": "removeWhitelisted",
          "outputs": [],
          "stateMutability": "nonpayable",
          "type": "function"
        },
        {
          "inputs": [],
          "name": "renounceGovernorship",
          "outputs": [],
          "stateMutability": "nonpayable",
          "type": "function"
        },
        {
          "inputs": [],
          "name": "resumeWhiteList",
          "outputs": [],
          "stateMutability": "nonpayable",
          "type": "function"
        },
        {
          "inputs": [
            {
              "internalType": "bytes4",
              "name": "interfaceId",
              "type": "bytes4"
            }
          ],
          "name": "supportsInterface",
          "outputs": [
            {
              "internalType": "bool",
              "name": "",
              "type": "bool"
            }
          ],
          "stateMutability": "pure",
          "type": "function"
        },
        {
          "inputs": [
            {
              "internalType": "address",
              "name": "newGovernor",
              "type": "address"
            }
          ],
          "name": "transferGovernorship",
          "outputs": [],
          "stateMutability": "nonpayable",
          "type": "function"
        },
        {
          "inputs": [],
          "name": "withdrawFunds",
          "outputs": [],
          "stateMutability": "nonpayable",
          "type": "function"
        },
        {
          "inputs": [
            {
              "internalType": "uint256",
              "name": "id",
              "type": "uint256"
            }
          ],
          "name": "withdrawNFT",
          "outputs": [],
          "stateMutability": "nonpayable",
          "type": "function"
        },
        {
          "inputs": [
            {
              "internalType": "string",
              "name": "name",
              "type": "string"
            }
          ],
          "name": "withdrawPayableToken",
          "outputs": [],
          "stateMutability": "nonpayable",
          "type": "function"
        },
        {
          "stateMutability": "payable",
          "type": "receive"
        }
      ],
      "evm": {
        "bytecode": {
          "linkReferences": {},
          "object": "608060405234801561001057600080fd5b50611ffc806100206000396000f3fe6080604052600436106101385760003560e01c80634536cab6116100b0578063bc197c811161006c578063bc197c811461038f578063c4d66de8146103bb578063e46c1507146103db578063ead6ca0a146103fb578063f23a6e611461044c578063f96726671461047857005b80634536cab6146102e5578063671ad411146103055780636c6426ad14610325578063764d80291461033a57806381c0c2631461035a578063b6aa515b1461036f57005b806324600fc3116100ff57806324600fc314610232578063291d9549146102475780632b1f4ad6146102675780633239423914610285578063367c4437146102a55780633af32abf146102c557005b806301ffc9a714610141578063023245d71461018757806308c92f50146101a75780630c340a24146101bc578063150b7a02146101ee57005b3661013f57005b005b34801561014d57600080fd5b5061017261015c36600461182f565b6001600160e01b031916630271189760e51b1490565b60405190151581526020015b60405180910390f35b34801561019357600080fd5b5061013f6101a2366004611859565b610498565b3480156101b357600080fd5b5061013f6105fd565b3480156101c857600080fd5b506066546001600160a01b03165b6040516001600160a01b03909116815260200161017e565b3480156101fa57600080fd5b50610219610209366004611940565b630a85bd0160e11b949350505050565b6040516001600160e01b0319909116815260200161017e565b34801561023e57600080fd5b5061013f610696565b34801561025357600080fd5b5061013f6102623660046119a8565b610787565b34801561027357600080fd5b5060ca546001600160a01b03166101d6565b34801561029157600080fd5b5061013f6102a0366004611a0c565b6107d2565b3480156102b157600080fd5b5061013f6102c0366004611a60565b610843565b3480156102d157600080fd5b506101726102e03660046119a8565b610d8f565b3480156102f157600080fd5b5061013f610300366004611ab1565b610dc3565b34801561031157600080fd5b5061013f610320366004611b26565b610e64565b34801561033157600080fd5b5061013f611002565b34801561034657600080fd5b5061013f610355366004611ab1565b611094565b34801561036657600080fd5b5061013f611130565b34801561037b57600080fd5b5061013f61038a3660046119a8565b611166565b34801561039b57600080fd5b506102196103aa366004611be8565b63bc197c8160e01b95945050505050565b3480156103c757600080fd5b5061013f6103d63660046119a8565b611207565b3480156103e757600080fd5b5061013f6103f63660046119a8565b61130f565b34801561040757600080fd5b5061043e610416366004611c92565b600091825260cb602090815260408084206001600160a01b0393909316845291905290205490565b60405190815260200161017e565b34801561045857600080fd5b50610219610467366004611cbe565b63f23a6e6160e01b95945050505050565b34801561048457600080fd5b5061013f610493366004611859565b61135d565b600260985414156104c45760405162461bcd60e51b81526004016104bb90611d23565b60405180910390fd5b60026098556066546001600160a01b031633146104f35760405162461bcd60e51b81526004016104bb90611d5a565b60ca54604051627eeac760e11b8152306004820152602481018390526000916001600160a01b03169062fdd58e9060440160206040518083038186803b15801561053c57600080fd5b505afa158015610550573d6000803e3d6000fd5b505050506040513d601f19601f820116820180604052508101906105749190611da0565b60ca549091506060906001600160a01b031663f242432a3061059e6066546001600160a01b031690565b8686866040518663ffffffff1660e01b81526004016105c1959493929190611db9565b600060405180830381600087803b1580156105db57600080fd5b505af11580156105ef573d6000803e3d6000fd5b505060016098555050505050565b6034546001600160a01b031633146106275760405162461bcd60e51b81526004016104bb90611e38565b603454600160a01b900460ff16156106815760405162461bcd60e51b815260206004820152601c60248201527f57686974656c697374696e6720616c726561647920726573756d65640000000060448201526064016104bb565b6034805460ff60a01b1916600160a01b179055565b600260985414156106b95760405162461bcd60e51b81526004016104bb90611d23565b60026098556066546001600160a01b031633146106e85760405162461bcd60e51b81526004016104bb90611d5a565b600047116107465760405162461bcd60e51b815260206004820152602560248201527f524549542049504f3a20436f6e747261637427732062616c616e636520697320604482015264656d70747960d81b60648201526084016104bb565b6066546040516001600160a01b03909116904780156108fc02916000818181858888f1935050505015801561077f573d6000803e3d6000fd5b506001609855565b6034546001600160a01b031633146107b15760405162461bcd60e51b81526004016104bb90611e38565b6001600160a01b03166000908152603360205260409020805460ff19169055565b6066546001600160a01b031633146107fc5760405162461bcd60e51b81526004016104bb90611d5a565b8060cc848460405161080f929190611e7d565b90815260405190819003602001902080546001600160a01b03929092166001600160a01b0319909216919091179055505050565b3360009081526033602052604090205460ff168061086a5750603454600160a01b900460ff165b6108a85760405162461bcd60e51b815260206004820152600f60248201526e139bdd081dda1a5d195b1a5cdd1959608a1b60448201526064016104bb565b60ca5460405163d98d9eaf60e01b8152600481018490523060248201526001600160a01b039091169063d98d9eaf9060440160206040518083038186803b1580156108f257600080fd5b505afa158015610906573d6000803e3d6000fd5b505050506040513d601f19601f8201168201806040525081019061092a9190611e8d565b61098a5760405162461bcd60e51b815260206004820152602b60248201527f5245495449504f3a204d7573742073657420746869732061732052454954204960448201526a1413c818dbdb9d1c9858dd60aa1b60648201526084016104bb565b60ca54604051630b12308560e11b8152306004820152602481018490526000916001600160a01b031690631624610a9060440160206040518083038186803b1580156109d557600080fd5b505afa1580156109e9573d6000803e3d6000fd5b505050506040513d601f19601f82011682018060405250810190610a0d9190611da0565b905081811015610a695760405162461bcd60e51b815260206004820152602160248201527f5245495449504f3a206e6f7420656e6f75676820756e69747320746f2073656c6044820152601b60fa1b60648201526084016104bb565b60ca546040516368a1407760e01b8152600481018590526000916001600160a01b0316906368a140779060240160206040518083038186803b158015610aae57600080fd5b505afa158015610ac2573d6000803e3d6000fd5b505050506040513d601f19601f82011682018060405250810190610ae69190611da0565b905060008111610b315760405162461bcd60e51b815260206004820152601660248201527514915255125413ce881c1c9a58d9481b9bdd081cd95d60521b60448201526064016104bb565b6000610b3d8483611ec5565b905060cc8787604051610b51929190611e7d565b908152604051908190036020019020546001600160a01b03166323b872dd610b763390565b6040516001600160e01b031960e084901b1681526001600160a01b03909116600482015230602482015260448101849052606401602060405180830381600087803b158015610bc457600080fd5b505af1158015610bd8573d6000803e3d6000fd5b505050506040513d601f19601f82011682018060405250810190610bfc9190611e8d565b610c485760405162461bcd60e51b815260206004820181905260248201527f5245495449504f3a206e6f7420656e6f7567682066756e647320746f2062757960448201526064016104bb565b60ca546001600160a01b0316639944f518336040516001600160e01b031960e084901b1681526001600160a01b03909116600482015260240160206040518083038186803b158015610c9957600080fd5b505afa158015610cad573d6000803e3d6000fd5b505050506040513d601f19601f82011682018060405250810190610cd19190611e8d565b15610d475760ca54604051637921219560e11b81526060916001600160a01b03169063f242432a90610d0f90309033908b908b908890600401611db9565b600060405180830381600087803b158015610d2957600080fd5b505af1158015610d3d573d6000803e3d6000fd5b5050505050610d86565b600085815260cb60209081526040808320338452909152902054610d6b9085611674565b600086815260cb602090815260408083203384529091529020555b50505050505050565b60006001600160a01b038216610da457600080fd5b506001600160a01b031660009081526033602052604090205460ff1690565b6034546001600160a01b03163314610ded5760405162461bcd60e51b81526004016104bb90611e38565b60005b81811015610e5f57600160336000858585818110610e1057610e10611ee4565b9050602002016020810190610e2591906119a8565b6001600160a01b031681526020810191909152604001600020805460ff191691151591909117905580610e5781611efa565b915050610df0565b505050565b60026098541415610e875760405162461bcd60e51b81526004016104bb90611d23565b60026098556066546001600160a01b03163314610eb65760405162461bcd60e51b81526004016104bb90611d5a565b600060cc8383604051610eca929190611e7d565b908152604051908190036020018120546370a0823160e01b82523060048301526001600160a01b0316915060009082906370a082319060240160206040518083038186803b158015610f1b57600080fd5b505afa158015610f2f573d6000803e3d6000fd5b505050506040513d601f19601f82011682018060405250810190610f539190611da0565b9050816001600160a01b031663a9059cbb610f766066546001600160a01b031690565b6040516001600160e01b031960e084901b1681526001600160a01b03909116600482015260248101849052604401602060405180830381600087803b158015610fbe57600080fd5b505af1158015610fd2573d6000803e3d6000fd5b505050506040513d601f19601f82011682018060405250810190610ff69190611e8d565b50506001609855505050565b6034546001600160a01b0316331461102c5760405162461bcd60e51b81526004016104bb90611e38565b603454600160a01b900460ff166110855760405162461bcd60e51b815260206004820152601b60248201527f57686974656c697374696e6720616c726561647920706175736564000000000060448201526064016104bb565b6034805460ff60a01b19169055565b6034546001600160a01b031633146110be5760405162461bcd60e51b81526004016104bb90611e38565b60005b81811015610e5f576000603360008585858181106110e1576110e1611ee4565b90506020020160208101906110f691906119a8565b6001600160a01b031681526020810191909152604001600020805460ff19169115159190911790558061112881611efa565b9150506110c1565b6066546001600160a01b0316331461115a5760405162461bcd60e51b81526004016104bb90611d5a565b6111646000611687565b565b6066546001600160a01b031633146111905760405162461bcd60e51b81526004016104bb90611d5a565b6001600160a01b0381166111fb5760405162461bcd60e51b815260206004820152602c60248201527f476f7665726e61626c653a206e657720676f7665726e6f72206973207468652060448201526b7a65726f206164647265737360a01b60648201526084016104bb565b61120481611687565b50565b600061121360016116d9565b9050801561122b576000805461ff0019166101001790555b6001600160a01b03821661128d5760405162461bcd60e51b815260206004820152602360248201527f4e465420636f6e74726163742063616e6e6f74206265207a65726f206164647260448201526265737360e81b60648201526084016104bb565b611295611766565b61129d611795565b60ca80546001600160a01b0319166001600160a01b0384161790556034805460ff60a01b19169055801561130b576000805461ff0019169055604051600181527f7f26b83ff96e1f2b6a682f133852f6798a09c465da95921460cefb38474024989060200160405180910390a15b5050565b6034546001600160a01b031633146113395760405162461bcd60e51b81526004016104bb90611e38565b6001600160a01b03166000908152603360205260409020805460ff19166001179055565b3360009081526033602052604090205460ff16806113845750603454600160a01b900460ff165b6113c25760405162461bcd60e51b815260206004820152600f60248201526e139bdd081dda1a5d195b1a5cdd1959608a1b60448201526064016104bb565b60ca546001600160a01b0316639944f518336040516001600160e01b031960e084901b1681526001600160a01b03909116600482015260240160206040518083038186803b15801561141357600080fd5b505afa158015611427573d6000803e3d6000fd5b505050506040513d601f19601f8201168201806040525081019061144b9190611e8d565b6114865760405162461bcd60e51b815260206004820152600c60248201526b12d650c81c995c5d5a5c995960a21b60448201526064016104bb565b600081815260cb602090815260408083203384529091529020546114ec5760405162461bcd60e51b815260206004820152601860248201527f4e6f206d6f72652070656e64696e672062616c616e636573000000000000000060448201526064016104bb565b600081815260cb6020908152604080832033845282528083205460ca548251627eeac760e11b81523060048201526024810187905292519194936001600160a01b039091169262fdd58e9260448083019392829003018186803b15801561155257600080fd5b505afa158015611566573d6000803e3d6000fd5b505050506040513d601f19601f8201168201806040525081019061158a9190611da0565b9050818110156115e75760405162461bcd60e51b815260206004820152602260248201527f5245495449504f3a206e6f7420656e6f75676820756e69747320746f20636c61604482015261696d60f01b60648201526084016104bb565b60ca54604051637921219560e11b81526060916001600160a01b03169063f242432a906116209030903390899089908890600401611db9565b600060405180830381600087803b15801561163a57600080fd5b505af115801561164e573d6000803e3d6000fd5b5050506000948552505060cb602090815260408085203386529091528320929092555050565b60006116808284611f15565b9392505050565b606680546001600160a01b038381166001600160a01b0319831681179093556040519116919082907fc7c0c772add429241571afb3805861fb3cfa2af374534088b76cdb4325a87e9a90600090a35050565b60008054610100900460ff1615611720578160ff1660011480156116fc5750303b155b6117185760405162461bcd60e51b81526004016104bb90611f2d565b506000919050565b60005460ff8084169116106117475760405162461bcd60e51b81526004016104bb90611f2d565b506000805460ff191660ff92909216919091179055600190565b919050565b600054610100900460ff1661178d5760405162461bcd60e51b81526004016104bb90611f7b565b6111646117c4565b600054610100900460ff166117bc5760405162461bcd60e51b81526004016104bb90611f7b565b6111646117f4565b600054610100900460ff166117eb5760405162461bcd60e51b81526004016104bb90611f7b565b61116433611687565b600054610100900460ff1661181b5760405162461bcd60e51b81526004016104bb90611f7b565b603480546001600160a01b03191633179055565b60006020828403121561184157600080fd5b81356001600160e01b03198116811461168057600080fd5b60006020828403121561186b57600080fd5b5035919050565b80356001600160a01b038116811461176157600080fd5b634e487b7160e01b600052604160045260246000fd5b604051601f8201601f1916810167ffffffffffffffff811182821017156118c8576118c8611889565b604052919050565b600082601f8301126118e157600080fd5b813567ffffffffffffffff8111156118fb576118fb611889565b61190e601f8201601f191660200161189f565b81815284602083860101111561192357600080fd5b816020850160208301376000918101602001919091529392505050565b6000806000806080858703121561195657600080fd5b61195f85611872565b935061196d60208601611872565b925060408501359150606085013567ffffffffffffffff81111561199057600080fd5b61199c878288016118d0565b91505092959194509250565b6000602082840312156119ba57600080fd5b61168082611872565b60008083601f8401126119d557600080fd5b50813567ffffffffffffffff8111156119ed57600080fd5b602083019150836020828501011115611a0557600080fd5b9250929050565b600080600060408486031215611a2157600080fd5b833567ffffffffffffffff811115611a3857600080fd5b611a44868287016119c3565b9094509250611a57905060208501611872565b90509250925092565b60008060008060608587031215611a7657600080fd5b843567ffffffffffffffff811115611a8d57600080fd5b611a99878288016119c3565b90989097506020870135966040013595509350505050565b60008060208385031215611ac457600080fd5b823567ffffffffffffffff80821115611adc57600080fd5b818501915085601f830112611af057600080fd5b813581811115611aff57600080fd5b8660208260051b8501011115611b1457600080fd5b60209290920196919550909350505050565b60008060208385031215611b3957600080fd5b823567ffffffffffffffff811115611b5057600080fd5b611b5c858286016119c3565b90969095509350505050565b600082601f830112611b7957600080fd5b8135602067ffffffffffffffff821115611b9557611b95611889565b8160051b611ba482820161189f565b9283528481018201928281019087851115611bbe57600080fd5b83870192505b84831015611bdd57823582529183019190830190611bc4565b979650505050505050565b600080600080600060a08688031215611c0057600080fd5b611c0986611872565b9450611c1760208701611872565b9350604086013567ffffffffffffffff80821115611c3457600080fd5b611c4089838a01611b68565b94506060880135915080821115611c5657600080fd5b611c6289838a01611b68565b93506080880135915080821115611c7857600080fd5b50611c85888289016118d0565b9150509295509295909350565b60008060408385031215611ca557600080fd5b82359150611cb560208401611872565b90509250929050565b600080600080600060a08688031215611cd657600080fd5b611cdf86611872565b9450611ced60208701611872565b93506040860135925060608601359150608086013567ffffffffffffffff811115611d1757600080fd5b611c85888289016118d0565b6020808252601f908201527f5265656e7472616e637947756172643a207265656e7472616e742063616c6c00604082015260600190565b60208082526026908201527f476f7665726e61626c653a2063616c6c6572206973206e6f742074686520676f6040820152653b32b93737b960d11b606082015260800190565b600060208284031215611db257600080fd5b5051919050565b600060018060a01b03808816835260208188168185015286604085015285606085015260a06080850152845191508160a085015260005b82811015611e0c5785810182015185820160c001528101611df0565b82811115611e1e57600060c084870101525b5050601f01601f19169190910160c0019695505050505050565b60208082526025908201527f57686974656c697374696e673a2063616c6c6572206973206e6f74207468652060408201526430b236b4b760d91b606082015260800190565b8183823760009101908152919050565b600060208284031215611e9f57600080fd5b8151801515811461168057600080fd5b634e487b7160e01b600052601160045260246000fd5b6000816000190483118215151615611edf57611edf611eaf565b500290565b634e487b7160e01b600052603260045260246000fd5b6000600019821415611f0e57611f0e611eaf565b5060010190565b60008219821115611f2857611f28611eaf565b500190565b6020808252602e908201527f496e697469616c697a61626c653a20636f6e747261637420697320616c72656160408201526d191e481a5b9a5d1a585b1a5e995960921b606082015260800190565b6020808252602b908201527f496e697469616c697a61626c653a20636f6e7472616374206973206e6f74206960408201526a6e697469616c697a696e6760a81b60608201526080019056fea26469706673582212206200bd681e8f28d0ec6ad4145ec0edd9944ab8335e2a8bc0191ee549d3224ce264736f6c63430008090033",
          "opcodes": "PUSH1 0x80 PUSH1 0x40 MSTORE CALLVALUE DUP1 ISZERO PUSH2 0x10 JUMPI PUSH1 0x0 DUP1 REVERT JUMPDEST POP PUSH2 0x1FFC DUP1 PUSH2 0x20 PUSH1 0x0 CODECOPY PUSH1 0x0 RETURN INVALID PUSH1 0x80 PUSH1 0x40 MSTORE PUSH1 0x4 CALLDATASIZE LT PUSH2 0x138 JUMPI PUSH1 0x0 CALLDATALOAD PUSH1 0xE0 SHR DUP1 PUSH4 0x4536CAB6 GT PUSH2 0xB0 JUMPI DUP1 PUSH4 0xBC197C81 GT PUSH2 0x6C JUMPI DUP1 PUSH4 0xBC197C81 EQ PUSH2 0x38F JUMPI DUP1 PUSH4 0xC4D66DE8 EQ PUSH2 0x3BB JUMPI DUP1 PUSH4 0xE46C1507 EQ PUSH2 0x3DB JUMPI DUP1 PUSH4 0xEAD6CA0A EQ PUSH2 0x3FB JUMPI DUP1 PUSH4 0xF23A6E61 EQ PUSH2 0x44C JUMPI DUP1 PUSH4 0xF9672667 EQ PUSH2 0x478 JUMPI STOP JUMPDEST DUP1 PUSH4 0x4536CAB6 EQ PUSH2 0x2E5 JUMPI DUP1 PUSH4 0x671AD411 EQ PUSH2 0x305 JUMPI DUP1 PUSH4 0x6C6426AD EQ PUSH2 0x325 JUMPI DUP1 PUSH4 0x764D8029 EQ PUSH2 0x33A JUMPI DUP1 PUSH4 0x81C0C263 EQ PUSH2 0x35A JUMPI DUP1 PUSH4 0xB6AA515B EQ PUSH2 0x36F JUMPI STOP JUMPDEST DUP1 PUSH4 0x24600FC3 GT PUSH2 0xFF JUMPI DUP1 PUSH4 0x24600FC3 EQ PUSH2 0x232 JUMPI DUP1 PUSH4 0x291D9549 EQ PUSH2 0x247 JUMPI DUP1 PUSH4 0x2B1F4AD6 EQ PUSH2 0x267 JUMPI DUP1 PUSH4 0x32394239 EQ PUSH2 0x285 JUMPI DUP1 PUSH4 0x367C4437 EQ PUSH2 0x2A5 JUMPI DUP1 PUSH4 0x3AF32ABF EQ PUSH2 0x2C5 JUMPI STOP JUMPDEST DUP1 PUSH4 0x1FFC9A7 EQ PUSH2 0x141 JUMPI DUP1 PUSH4 0x23245D7 EQ PUSH2 0x187 JUMPI DUP1 PUSH4 0x8C92F50 EQ PUSH2 0x1A7 JUMPI DUP1 PUSH4 0xC340A24 EQ PUSH2 0x1BC JUMPI DUP1 PUSH4 0x150B7A02 EQ PUSH2 0x1EE JUMPI STOP JUMPDEST CALLDATASIZE PUSH2 0x13F JUMPI STOP JUMPDEST STOP JUMPDEST CALLVALUE DUP1 ISZERO PUSH2 0x14D JUMPI PUSH1 0x0 DUP1 REVERT JUMPDEST POP PUSH2 0x172 PUSH2 0x15C CALLDATASIZE PUSH1 0x4 PUSH2 0x182F JUMP JUMPDEST PUSH1 0x1 PUSH1 0x1 PUSH1 0xE0 SHL SUB NOT AND PUSH4 0x2711897 PUSH1 0xE5 SHL EQ SWAP1 JUMP JUMPDEST PUSH1 0x40 MLOAD SWAP1 ISZERO ISZERO DUP2 MSTORE PUSH1 0x20 ADD JUMPDEST PUSH1 0x40 MLOAD DUP1 SWAP2 SUB SWAP1 RETURN JUMPDEST CALLVALUE DUP1 ISZERO PUSH2 0x193 JUMPI PUSH1 0x0 DUP1 REVERT JUMPDEST POP PUSH2 0x13F PUSH2 0x1A2 CALLDATASIZE PUSH1 0x4 PUSH2 0x1859 JUMP JUMPDEST PUSH2 0x498 JUMP JUMPDEST CALLVALUE DUP1 ISZERO PUSH2 0x1B3 JUMPI PUSH1 0x0 DUP1 REVERT JUMPDEST POP PUSH2 0x13F PUSH2 0x5FD JUMP JUMPDEST CALLVALUE DUP1 ISZERO PUSH2 0x1C8 JUMPI PUSH1 0x0 DUP1 REVERT JUMPDEST POP PUSH1 0x66 SLOAD PUSH1 0x1 PUSH1 0x1 PUSH1 0xA0 SHL SUB AND JUMPDEST PUSH1 0x40 MLOAD PUSH1 0x1 PUSH1 0x1 PUSH1 0xA0 SHL SUB SWAP1 SWAP2 AND DUP2 MSTORE PUSH1 0x20 ADD PUSH2 0x17E JUMP JUMPDEST CALLVALUE DUP1 ISZERO PUSH2 0x1FA JUMPI PUSH1 0x0 DUP1 REVERT JUMPDEST POP PUSH2 0x219 PUSH2 0x209 CALLDATASIZE PUSH1 0x4 PUSH2 0x1940 JUMP JUMPDEST PUSH4 0xA85BD01 PUSH1 0xE1 SHL SWAP5 SWAP4 POP POP POP POP JUMP JUMPDEST PUSH1 0x40 MLOAD PUSH1 0x1 PUSH1 0x1 PUSH1 0xE0 SHL SUB NOT SWAP1 SWAP2 AND DUP2 MSTORE PUSH1 0x20 ADD PUSH2 0x17E JUMP JUMPDEST CALLVALUE DUP1 ISZERO PUSH2 0x23E JUMPI PUSH1 0x0 DUP1 REVERT JUMPDEST POP PUSH2 0x13F PUSH2 0x696 JUMP JUMPDEST CALLVALUE DUP1 ISZERO PUSH2 0x253 JUMPI PUSH1 0x0 DUP1 REVERT JUMPDEST POP PUSH2 0x13F PUSH2 0x262 CALLDATASIZE PUSH1 0x4 PUSH2 0x19A8 JUMP JUMPDEST PUSH2 0x787 JUMP JUMPDEST CALLVALUE DUP1 ISZERO PUSH2 0x273 JUMPI PUSH1 0x0 DUP1 REVERT JUMPDEST POP PUSH1 0xCA SLOAD PUSH1 0x1 PUSH1 0x1 PUSH1 0xA0 SHL SUB AND PUSH2 0x1D6 JUMP JUMPDEST CALLVALUE DUP1 ISZERO PUSH2 0x291 JUMPI PUSH1 0x0 DUP1 REVERT JUMPDEST POP PUSH2 0x13F PUSH2 0x2A0 CALLDATASIZE PUSH1 0x4 PUSH2 0x1A0C JUMP JUMPDEST PUSH2 0x7D2 JUMP JUMPDEST CALLVALUE DUP1 ISZERO PUSH2 0x2B1 JUMPI PUSH1 0x0 DUP1 REVERT JUMPDEST POP PUSH2 0x13F PUSH2 0x2C0 CALLDATASIZE PUSH1 0x4 PUSH2 0x1A60 JUMP JUMPDEST PUSH2 0x843 JUMP JUMPDEST CALLVALUE DUP1 ISZERO PUSH2 0x2D1 JUMPI PUSH1 0x0 DUP1 REVERT JUMPDEST POP PUSH2 0x172 PUSH2 0x2E0 CALLDATASIZE PUSH1 0x4 PUSH2 0x19A8 JUMP JUMPDEST PUSH2 0xD8F JUMP JUMPDEST CALLVALUE DUP1 ISZERO PUSH2 0x2F1 JUMPI PUSH1 0x0 DUP1 REVERT JUMPDEST POP PUSH2 0x13F PUSH2 0x300 CALLDATASIZE PUSH1 0x4 PUSH2 0x1AB1 JUMP JUMPDEST PUSH2 0xDC3 JUMP JUMPDEST CALLVALUE DUP1 ISZERO PUSH2 0x311 JUMPI PUSH1 0x0 DUP1 REVERT JUMPDEST POP PUSH2 0x13F PUSH2 0x320 CALLDATASIZE PUSH1 0x4 PUSH2 0x1B26 JUMP JUMPDEST PUSH2 0xE64 JUMP JUMPDEST CALLVALUE DUP1 ISZERO PUSH2 0x331 JUMPI PUSH1 0x0 DUP1 REVERT JUMPDEST POP PUSH2 0x13F PUSH2 0x1002 JUMP JUMPDEST CALLVALUE DUP1 ISZERO PUSH2 0x346 JUMPI PUSH1 0x0 DUP1 REVERT JUMPDEST POP PUSH2 0x13F PUSH2 0x355 CALLDATASIZE PUSH1 0x4 PUSH2 0x1AB1 JUMP JUMPDEST PUSH2 0x1094 JUMP JUMPDEST CALLVALUE DUP1 ISZERO PUSH2 0x366 JUMPI PUSH1 0x0 DUP1 REVERT JUMPDEST POP PUSH2 0x13F PUSH2 0x1130 JUMP JUMPDEST CALLVALUE DUP1 ISZERO PUSH2 0x37B JUMPI PUSH1 0x0 DUP1 REVERT JUMPDEST POP PUSH2 0x13F PUSH2 0x38A CALLDATASIZE PUSH1 0x4 PUSH2 0x19A8 JUMP JUMPDEST PUSH2 0x1166 JUMP JUMPDEST CALLVALUE DUP1 ISZERO PUSH2 0x39B JUMPI PUSH1 0x0 DUP1 REVERT JUMPDEST POP PUSH2 0x219 PUSH2 0x3AA CALLDATASIZE PUSH1 0x4 PUSH2 0x1BE8 JUMP JUMPDEST PUSH4 0xBC197C81 PUSH1 0xE0 SHL SWAP6 SWAP5 POP POP POP POP POP JUMP JUMPDEST CALLVALUE DUP1 ISZERO PUSH2 0x3C7 JUMPI PUSH1 0x0 DUP1 REVERT JUMPDEST POP PUSH2 0x13F PUSH2 0x3D6 CALLDATASIZE PUSH1 0x4 PUSH2 0x19A8 JUMP JUMPDEST PUSH2 0x1207 JUMP JUMPDEST CALLVALUE DUP1 ISZERO PUSH2 0x3E7 JUMPI PUSH1 0x0 DUP1 REVERT JUMPDEST POP PUSH2 0x13F PUSH2 0x3F6 CALLDATASIZE PUSH1 0x4 PUSH2 0x19A8 JUMP JUMPDEST PUSH2 0x130F JUMP JUMPDEST CALLVALUE DUP1 ISZERO PUSH2 0x407 JUMPI PUSH1 0x0 DUP1 REVERT JUMPDEST POP PUSH2 0x43E PUSH2 0x416 CALLDATASIZE PUSH1 0x4 PUSH2 0x1C92 JUMP JUMPDEST PUSH1 0x0 SWAP2 DUP3 MSTORE PUSH1 0xCB PUSH1 0x20 SWAP1 DUP2 MSTORE PUSH1 0x40 DUP1 DUP5 KECCAK256 PUSH1 0x1 PUSH1 0x1 PUSH1 0xA0 SHL SUB SWAP4 SWAP1 SWAP4 AND DUP5 MSTORE SWAP2 SWAP1 MSTORE SWAP1 KECCAK256 SLOAD SWAP1 JUMP JUMPDEST PUSH1 0x40 MLOAD SWAP1 DUP2 MSTORE PUSH1 0x20 ADD PUSH2 0x17E JUMP JUMPDEST CALLVALUE DUP1 ISZERO PUSH2 0x458 JUMPI PUSH1 0x0 DUP1 REVERT JUMPDEST POP PUSH2 0x219 PUSH2 0x467 CALLDATASIZE PUSH1 0x4 PUSH2 0x1CBE JUMP JUMPDEST PUSH4 0xF23A6E61 PUSH1 0xE0 SHL SWAP6 SWAP5 POP POP POP POP POP JUMP JUMPDEST CALLVALUE DUP1 ISZERO PUSH2 0x484 JUMPI PUSH1 0x0 DUP1 REVERT JUMPDEST POP PUSH2 0x13F PUSH2 0x493 CALLDATASIZE PUSH1 0x4 PUSH2 0x1859 JUMP JUMPDEST PUSH2 0x135D JUMP JUMPDEST PUSH1 0x2 PUSH1 0x98 SLOAD EQ ISZERO PUSH2 0x4C4 JUMPI PUSH1 0x40 MLOAD PUSH3 0x461BCD PUSH1 0xE5 SHL DUP2 MSTORE PUSH1 0x4 ADD PUSH2 0x4BB SWAP1 PUSH2 0x1D23 JUMP JUMPDEST PUSH1 0x40 MLOAD DUP1 SWAP2 SUB SWAP1 REVERT JUMPDEST PUSH1 0x2 PUSH1 0x98 SSTORE PUSH1 0x66 SLOAD PUSH1 0x1 PUSH1 0x1 PUSH1 0xA0 SHL SUB AND CALLER EQ PUSH2 0x4F3 JUMPI PUSH1 0x40 MLOAD PUSH3 0x461BCD PUSH1 0xE5 SHL DUP2 MSTORE PUSH1 0x4 ADD PUSH2 0x4BB SWAP1 PUSH2 0x1D5A JUMP JUMPDEST PUSH1 0xCA SLOAD PUSH1 0x40 MLOAD PUSH3 0x7EEAC7 PUSH1 0xE1 SHL DUP2 MSTORE ADDRESS PUSH1 0x4 DUP3 ADD MSTORE PUSH1 0x24 DUP2 ADD DUP4 SWAP1 MSTORE PUSH1 0x0 SWAP2 PUSH1 0x1 PUSH1 0x1 PUSH1 0xA0 SHL SUB AND SWAP1 PUSH3 0xFDD58E SWAP1 PUSH1 0x44 ADD PUSH1 0x20 PUSH1 0x40 MLOAD DUP1 DUP4 SUB DUP2 DUP7 DUP1 EXTCODESIZE ISZERO DUP1 ISZERO PUSH2 0x53C JUMPI PUSH1 0x0 DUP1 REVERT JUMPDEST POP GAS STATICCALL ISZERO DUP1 ISZERO PUSH2 0x550 JUMPI RETURNDATASIZE PUSH1 0x0 DUP1 RETURNDATACOPY RETURNDATASIZE PUSH1 0x0 REVERT JUMPDEST POP POP POP POP PUSH1 0x40 MLOAD RETURNDATASIZE PUSH1 0x1F NOT PUSH1 0x1F DUP3 ADD AND DUP3 ADD DUP1 PUSH1 0x40 MSTORE POP DUP2 ADD SWAP1 PUSH2 0x574 SWAP2 SWAP1 PUSH2 0x1DA0 JUMP JUMPDEST PUSH1 0xCA SLOAD SWAP1 SWAP2 POP PUSH1 0x60 SWAP1 PUSH1 0x1 PUSH1 0x1 PUSH1 0xA0 SHL SUB AND PUSH4 0xF242432A ADDRESS PUSH2 0x59E PUSH1 0x66 SLOAD PUSH1 0x1 PUSH1 0x1 PUSH1 0xA0 SHL SUB AND SWAP1 JUMP JUMPDEST DUP7 DUP7 DUP7 PUSH1 0x40 MLOAD DUP7 PUSH4 0xFFFFFFFF AND PUSH1 0xE0 SHL DUP2 MSTORE PUSH1 0x4 ADD PUSH2 0x5C1 SWAP6 SWAP5 SWAP4 SWAP3 SWAP2 SWAP1 PUSH2 0x1DB9 JUMP JUMPDEST PUSH1 0x0 PUSH1 0x40 MLOAD DUP1 DUP4 SUB DUP2 PUSH1 0x0 DUP8 DUP1 EXTCODESIZE ISZERO DUP1 ISZERO PUSH2 0x5DB JUMPI PUSH1 0x0 DUP1 REVERT JUMPDEST POP GAS CALL ISZERO DUP1 ISZERO PUSH2 0x5EF JUMPI RETURNDATASIZE PUSH1 0x0 DUP1 RETURNDATACOPY RETURNDATASIZE PUSH1 0x0 REVERT JUMPDEST POP POP PUSH1 0x1 PUSH1 0x98 SSTORE POP POP POP POP POP JUMP JUMPDEST PUSH1 0x34 SLOAD PUSH1 0x1 PUSH1 0x1 PUSH1 0xA0 SHL SUB AND CALLER EQ PUSH2 0x627 JUMPI PUSH1 0x40 MLOAD PUSH3 0x461BCD PUSH1 0xE5 SHL DUP2 MSTORE PUSH1 0x4 ADD PUSH2 0x4BB SWAP1 PUSH2 0x1E38 JUMP JUMPDEST PUSH1 0x34 SLOAD PUSH1 0x1 PUSH1 0xA0 SHL SWAP1 DIV PUSH1 0xFF AND ISZERO PUSH2 0x681 JUMPI PUSH1 0x40 MLOAD PUSH3 0x461BCD PUSH1 0xE5 SHL DUP2 MSTORE PUSH1 0x20 PUSH1 0x4 DUP3 ADD MSTORE PUSH1 0x1C PUSH1 0x24 DUP3 ADD MSTORE PUSH32 0x57686974656C697374696E6720616C726561647920726573756D656400000000 PUSH1 0x44 DUP3 ADD MSTORE PUSH1 0x64 ADD PUSH2 0x4BB JUMP JUMPDEST PUSH1 0x34 DUP1 SLOAD PUSH1 0xFF PUSH1 0xA0 SHL NOT AND PUSH1 0x1 PUSH1 0xA0 SHL OR SWAP1 SSTORE JUMP JUMPDEST PUSH1 0x2 PUSH1 0x98 SLOAD EQ ISZERO PUSH2 0x6B9 JUMPI PUSH1 0x40 MLOAD PUSH3 0x461BCD PUSH1 0xE5 SHL DUP2 MSTORE PUSH1 0x4 ADD PUSH2 0x4BB SWAP1 PUSH2 0x1D23 JUMP JUMPDEST PUSH1 0x2 PUSH1 0x98 SSTORE PUSH1 0x66 SLOAD PUSH1 0x1 PUSH1 0x1 PUSH1 0xA0 SHL SUB AND CALLER EQ PUSH2 0x6E8 JUMPI PUSH1 0x40 MLOAD PUSH3 0x461BCD PUSH1 0xE5 SHL DUP2 MSTORE PUSH1 0x4 ADD PUSH2 0x4BB SWAP1 PUSH2 0x1D5A JUMP JUMPDEST PUSH1 0x0 SELFBALANCE GT PUSH2 0x746 JUMPI PUSH1 0x40 MLOAD PUSH3 0x461BCD PUSH1 0xE5 SHL DUP2 MSTORE PUSH1 0x20 PUSH1 0x4 DUP3 ADD MSTORE PUSH1 0x25 PUSH1 0x24 DUP3 ADD MSTORE PUSH32 0x524549542049504F3A20436F6E747261637427732062616C616E636520697320 PUSH1 0x44 DUP3 ADD MSTORE PUSH5 0x656D707479 PUSH1 0xD8 SHL PUSH1 0x64 DUP3 ADD MSTORE PUSH1 0x84 ADD PUSH2 0x4BB JUMP JUMPDEST PUSH1 0x66 SLOAD PUSH1 0x40 MLOAD PUSH1 0x1 PUSH1 0x1 PUSH1 0xA0 SHL SUB SWAP1 SWAP2 AND SWAP1 SELFBALANCE DUP1 ISZERO PUSH2 0x8FC MUL SWAP2 PUSH1 0x0 DUP2 DUP2 DUP2 DUP6 DUP9 DUP9 CALL SWAP4 POP POP POP POP ISZERO DUP1 ISZERO PUSH2 0x77F JUMPI RETURNDATASIZE PUSH1 0x0 DUP1 RETURNDATACOPY RETURNDATASIZE PUSH1 0x0 REVERT JUMPDEST POP PUSH1 0x1 PUSH1 0x98 SSTORE JUMP JUMPDEST PUSH1 0x34 SLOAD PUSH1 0x1 PUSH1 0x1 PUSH1 0xA0 SHL SUB AND CALLER EQ PUSH2 0x7B1 JUMPI PUSH1 0x40 MLOAD PUSH3 0x461BCD PUSH1 0xE5 SHL DUP2 MSTORE PUSH1 0x4 ADD PUSH2 0x4BB SWAP1 PUSH2 0x1E38 JUMP JUMPDEST PUSH1 0x1 PUSH1 0x1 PUSH1 0xA0 SHL SUB AND PUSH1 0x0 SWAP1 DUP2 MSTORE PUSH1 0x33 PUSH1 0x20 MSTORE PUSH1 0x40 SWAP1 KECCAK256 DUP1 SLOAD PUSH1 0xFF NOT AND SWAP1 SSTORE JUMP JUMPDEST PUSH1 0x66 SLOAD PUSH1 0x1 PUSH1 0x1 PUSH1 0xA0 SHL SUB AND CALLER EQ PUSH2 0x7FC JUMPI PUSH1 0x40 MLOAD PUSH3 0x461BCD PUSH1 0xE5 SHL DUP2 MSTORE PUSH1 0x4 ADD PUSH2 0x4BB SWAP1 PUSH2 0x1D5A JUMP JUMPDEST DUP1 PUSH1 0xCC DUP5 DUP5 PUSH1 0x40 MLOAD PUSH2 0x80F SWAP3 SWAP2 SWAP1 PUSH2 0x1E7D JUMP JUMPDEST SWAP1 DUP2 MSTORE PUSH1 0x40 MLOAD SWAP1 DUP2 SWAP1 SUB PUSH1 0x20 ADD SWAP1 KECCAK256 DUP1 SLOAD PUSH1 0x1 PUSH1 0x1 PUSH1 0xA0 SHL SUB SWAP3 SWAP1 SWAP3 AND PUSH1 0x1 PUSH1 0x1 PUSH1 0xA0 SHL SUB NOT SWAP1 SWAP3 AND SWAP2 SWAP1 SWAP2 OR SWAP1 SSTORE POP POP POP JUMP JUMPDEST CALLER PUSH1 0x0 SWAP1 DUP2 MSTORE PUSH1 0x33 PUSH1 0x20 MSTORE PUSH1 0x40 SWAP1 KECCAK256 SLOAD PUSH1 0xFF AND DUP1 PUSH2 0x86A JUMPI POP PUSH1 0x34 SLOAD PUSH1 0x1 PUSH1 0xA0 SHL SWAP1 DIV PUSH1 0xFF AND JUMPDEST PUSH2 0x8A8 JUMPI PUSH1 0x40 MLOAD PUSH3 0x461BCD PUSH1 0xE5 SHL DUP2 MSTORE PUSH1 0x20 PUSH1 0x4 DUP3 ADD MSTORE PUSH1 0xF PUSH1 0x24 DUP3 ADD MSTORE PUSH15 0x139BDD081DDA1A5D195B1A5CDD1959 PUSH1 0x8A SHL PUSH1 0x44 DUP3 ADD MSTORE PUSH1 0x64 ADD PUSH2 0x4BB JUMP JUMPDEST PUSH1 0xCA SLOAD PUSH1 0x40 MLOAD PUSH4 0xD98D9EAF PUSH1 0xE0 SHL DUP2 MSTORE PUSH1 0x4 DUP2 ADD DUP5 SWAP1 MSTORE ADDRESS PUSH1 0x24 DUP3 ADD MSTORE PUSH1 0x1 PUSH1 0x1 PUSH1 0xA0 SHL SUB SWAP1 SWAP2 AND SWAP1 PUSH4 0xD98D9EAF SWAP1 PUSH1 0x44 ADD PUSH1 0x20 PUSH1 0x40 MLOAD DUP1 DUP4 SUB DUP2 DUP7 DUP1 EXTCODESIZE ISZERO DUP1 ISZERO PUSH2 0x8F2 JUMPI PUSH1 0x0 DUP1 REVERT JUMPDEST POP GAS STATICCALL ISZERO DUP1 ISZERO PUSH2 0x906 JUMPI RETURNDATASIZE PUSH1 0x0 DUP1 RETURNDATACOPY RETURNDATASIZE PUSH1 0x0 REVERT JUMPDEST POP POP POP POP PUSH1 0x40 MLOAD RETURNDATASIZE PUSH1 0x1F NOT PUSH1 0x1F DUP3 ADD AND DUP3 ADD DUP1 PUSH1 0x40 MSTORE POP DUP2 ADD SWAP1 PUSH2 0x92A SWAP2 SWAP1 PUSH2 0x1E8D JUMP JUMPDEST PUSH2 0x98A JUMPI PUSH1 0x40 MLOAD PUSH3 0x461BCD PUSH1 0xE5 SHL DUP2 MSTORE PUSH1 0x20 PUSH1 0x4 DUP3 ADD MSTORE PUSH1 0x2B PUSH1 0x24 DUP3 ADD MSTORE PUSH32 0x5245495449504F3A204D75737420736574207468697320617320524549542049 PUSH1 0x44 DUP3 ADD MSTORE PUSH11 0x1413C818DBDB9D1C9858DD PUSH1 0xAA SHL PUSH1 0x64 DUP3 ADD MSTORE PUSH1 0x84 ADD PUSH2 0x4BB JUMP JUMPDEST PUSH1 0xCA SLOAD PUSH1 0x40 MLOAD PUSH4 0xB123085 PUSH1 0xE1 SHL DUP2 MSTORE ADDRESS PUSH1 0x4 DUP3 ADD MSTORE PUSH1 0x24 DUP2 ADD DUP5 SWAP1 MSTORE PUSH1 0x0 SWAP2 PUSH1 0x1 PUSH1 0x1 PUSH1 0xA0 SHL SUB AND SWAP1 PUSH4 0x1624610A SWAP1 PUSH1 0x44 ADD PUSH1 0x20 PUSH1 0x40 MLOAD DUP1 DUP4 SUB DUP2 DUP7 DUP1 EXTCODESIZE ISZERO DUP1 ISZERO PUSH2 0x9D5 JUMPI PUSH1 0x0 DUP1 REVERT JUMPDEST POP GAS STATICCALL ISZERO DUP1 ISZERO PUSH2 0x9E9 JUMPI RETURNDATASIZE PUSH1 0x0 DUP1 RETURNDATACOPY RETURNDATASIZE PUSH1 0x0 REVERT JUMPDEST POP POP POP POP PUSH1 0x40 MLOAD RETURNDATASIZE PUSH1 0x1F NOT PUSH1 0x1F DUP3 ADD AND DUP3 ADD DUP1 PUSH1 0x40 MSTORE POP DUP2 ADD SWAP1 PUSH2 0xA0D SWAP2 SWAP1 PUSH2 0x1DA0 JUMP JUMPDEST SWAP1 POP DUP2 DUP2 LT ISZERO PUSH2 0xA69 JUMPI PUSH1 0x40 MLOAD PUSH3 0x461BCD PUSH1 0xE5 SHL DUP2 MSTORE PUSH1 0x20 PUSH1 0x4 DUP3 ADD MSTORE PUSH1 0x21 PUSH1 0x24 DUP3 ADD MSTORE PUSH32 0x5245495449504F3A206E6F7420656E6F75676820756E69747320746F2073656C PUSH1 0x44 DUP3 ADD MSTORE PUSH1 0x1B PUSH1 0xFA SHL PUSH1 0x64 DUP3 ADD MSTORE PUSH1 0x84 ADD PUSH2 0x4BB JUMP JUMPDEST PUSH1 0xCA SLOAD PUSH1 0x40 MLOAD PUSH4 0x68A14077 PUSH1 0xE0 SHL DUP2 MSTORE PUSH1 0x4 DUP2 ADD DUP6 SWAP1 MSTORE PUSH1 0x0 SWAP2 PUSH1 0x1 PUSH1 0x1 PUSH1 0xA0 SHL SUB AND SWAP1 PUSH4 0x68A14077 SWAP1 PUSH1 0x24 ADD PUSH1 0x20 PUSH1 0x40 MLOAD DUP1 DUP4 SUB DUP2 DUP7 DUP1 EXTCODESIZE ISZERO DUP1 ISZERO PUSH2 0xAAE JUMPI PUSH1 0x0 DUP1 REVERT JUMPDEST POP GAS STATICCALL ISZERO DUP1 ISZERO PUSH2 0xAC2 JUMPI RETURNDATASIZE PUSH1 0x0 DUP1 RETURNDATACOPY RETURNDATASIZE PUSH1 0x0 REVERT JUMPDEST POP POP POP POP PUSH1 0x40 MLOAD RETURNDATASIZE PUSH1 0x1F NOT PUSH1 0x1F DUP3 ADD AND DUP3 ADD DUP1 PUSH1 0x40 MSTORE POP DUP2 ADD SWAP1 PUSH2 0xAE6 SWAP2 SWAP1 PUSH2 0x1DA0 JUMP JUMPDEST SWAP1 POP PUSH1 0x0 DUP2 GT PUSH2 0xB31 JUMPI PUSH1 0x40 MLOAD PUSH3 0x461BCD PUSH1 0xE5 SHL DUP2 MSTORE PUSH1 0x20 PUSH1 0x4 DUP3 ADD MSTORE PUSH1 0x16 PUSH1 0x24 DUP3 ADD MSTORE PUSH22 0x14915255125413CE881C1C9A58D9481B9BDD081CD95D PUSH1 0x52 SHL PUSH1 0x44 DUP3 ADD MSTORE PUSH1 0x64 ADD PUSH2 0x4BB JUMP JUMPDEST PUSH1 0x0 PUSH2 0xB3D DUP5 DUP4 PUSH2 0x1EC5 JUMP JUMPDEST SWAP1 POP PUSH1 0xCC DUP8 DUP8 PUSH1 0x40 MLOAD PUSH2 0xB51 SWAP3 SWAP2 SWAP1 PUSH2 0x1E7D JUMP JUMPDEST SWAP1 DUP2 MSTORE PUSH1 0x40 MLOAD SWAP1 DUP2 SWAP1 SUB PUSH1 0x20 ADD SWAP1 KECCAK256 SLOAD PUSH1 0x1 PUSH1 0x1 PUSH1 0xA0 SHL SUB AND PUSH4 0x23B872DD PUSH2 0xB76 CALLER SWAP1 JUMP JUMPDEST PUSH1 0x40 MLOAD PUSH1 0x1 PUSH1 0x1 PUSH1 0xE0 SHL SUB NOT PUSH1 0xE0 DUP5 SWAP1 SHL AND DUP2 MSTORE PUSH1 0x1 PUSH1 0x1 PUSH1 0xA0 SHL SUB SWAP1 SWAP2 AND PUSH1 0x4 DUP3 ADD MSTORE ADDRESS PUSH1 0x24 DUP3 ADD MSTORE PUSH1 0x44 DUP2 ADD DUP5 SWAP1 MSTORE PUSH1 0x64 ADD PUSH1 0x20 PUSH1 0x40 MLOAD DUP1 DUP4 SUB DUP2 PUSH1 0x0 DUP8 DUP1 EXTCODESIZE ISZERO DUP1 ISZERO PUSH2 0xBC4 JUMPI PUSH1 0x0 DUP1 REVERT JUMPDEST POP GAS CALL ISZERO DUP1 ISZERO PUSH2 0xBD8 JUMPI RETURNDATASIZE PUSH1 0x0 DUP1 RETURNDATACOPY RETURNDATASIZE PUSH1 0x0 REVERT JUMPDEST POP POP POP POP PUSH1 0x40 MLOAD RETURNDATASIZE PUSH1 0x1F NOT PUSH1 0x1F DUP3 ADD AND DUP3 ADD DUP1 PUSH1 0x40 MSTORE POP DUP2 ADD SWAP1 PUSH2 0xBFC SWAP2 SWAP1 PUSH2 0x1E8D JUMP JUMPDEST PUSH2 0xC48 JUMPI PUSH1 0x40 MLOAD PUSH3 0x461BCD PUSH1 0xE5 SHL DUP2 MSTORE PUSH1 0x20 PUSH1 0x4 DUP3 ADD DUP2 SWAP1 MSTORE PUSH1 0x24 DUP3 ADD MSTORE PUSH32 0x5245495449504F3A206E6F7420656E6F7567682066756E647320746F20627579 PUSH1 0x44 DUP3 ADD MSTORE PUSH1 0x64 ADD PUSH2 0x4BB JUMP JUMPDEST PUSH1 0xCA SLOAD PUSH1 0x1 PUSH1 0x1 PUSH1 0xA0 SHL SUB AND PUSH4 0x9944F518 CALLER PUSH1 0x40 MLOAD PUSH1 0x1 PUSH1 0x1 PUSH1 0xE0 SHL SUB NOT PUSH1 0xE0 DUP5 SWAP1 SHL AND DUP2 MSTORE PUSH1 0x1 PUSH1 0x1 PUSH1 0xA0 SHL SUB SWAP1 SWAP2 AND PUSH1 0x4 DUP3 ADD MSTORE PUSH1 0x24 ADD PUSH1 0x20 PUSH1 0x40 MLOAD DUP1 DUP4 SUB DUP2 DUP7 DUP1 EXTCODESIZE ISZERO DUP1 ISZERO PUSH2 0xC99 JUMPI PUSH1 0x0 DUP1 REVERT JUMPDEST POP GAS STATICCALL ISZERO DUP1 ISZERO PUSH2 0xCAD JUMPI RETURNDATASIZE PUSH1 0x0 DUP1 RETURNDATACOPY RETURNDATASIZE PUSH1 0x0 REVERT JUMPDEST POP POP POP POP PUSH1 0x40 MLOAD RETURNDATASIZE PUSH1 0x1F NOT PUSH1 0x1F DUP3 ADD AND DUP3 ADD DUP1 PUSH1 0x40 MSTORE POP DUP2 ADD SWAP1 PUSH2 0xCD1 SWAP2 SWAP1 PUSH2 0x1E8D JUMP JUMPDEST ISZERO PUSH2 0xD47 JUMPI PUSH1 0xCA SLOAD PUSH1 0x40 MLOAD PUSH4 0x79212195 PUSH1 0xE1 SHL DUP2 MSTORE PUSH1 0x60 SWAP2 PUSH1 0x1 PUSH1 0x1 PUSH1 0xA0 SHL SUB AND SWAP1 PUSH4 0xF242432A SWAP1 PUSH2 0xD0F SWAP1 ADDRESS SWAP1 CALLER SWAP1 DUP12 SWAP1 DUP12 SWAP1 DUP9 SWAP1 PUSH1 0x4 ADD PUSH2 0x1DB9 JUMP JUMPDEST PUSH1 0x0 PUSH1 0x40 MLOAD DUP1 DUP4 SUB DUP2 PUSH1 0x0 DUP8 DUP1 EXTCODESIZE ISZERO DUP1 ISZERO PUSH2 0xD29 JUMPI PUSH1 0x0 DUP1 REVERT JUMPDEST POP GAS CALL ISZERO DUP1 ISZERO PUSH2 0xD3D JUMPI RETURNDATASIZE PUSH1 0x0 DUP1 RETURNDATACOPY RETURNDATASIZE PUSH1 0x0 REVERT JUMPDEST POP POP POP POP POP PUSH2 0xD86 JUMP JUMPDEST PUSH1 0x0 DUP6 DUP2 MSTORE PUSH1 0xCB PUSH1 0x20 SWAP1 DUP2 MSTORE PUSH1 0x40 DUP1 DUP4 KECCAK256 CALLER DUP5 MSTORE SWAP1 SWAP2 MSTORE SWAP1 KECCAK256 SLOAD PUSH2 0xD6B SWAP1 DUP6 PUSH2 0x1674 JUMP JUMPDEST PUSH1 0x0 DUP7 DUP2 MSTORE PUSH1 0xCB PUSH1 0x20 SWAP1 DUP2 MSTORE PUSH1 0x40 DUP1 DUP4 KECCAK256 CALLER DUP5 MSTORE SWAP1 SWAP2 MSTORE SWAP1 KECCAK256 SSTORE JUMPDEST POP POP POP POP POP POP POP JUMP JUMPDEST PUSH1 0x0 PUSH1 0x1 PUSH1 0x1 PUSH1 0xA0 SHL SUB DUP3 AND PUSH2 0xDA4 JUMPI PUSH1 0x0 DUP1 REVERT JUMPDEST POP PUSH1 0x1 PUSH1 0x1 PUSH1 0xA0 SHL SUB AND PUSH1 0x0 SWAP1 DUP2 MSTORE PUSH1 0x33 PUSH1 0x20 MSTORE PUSH1 0x40 SWAP1 KECCAK256 SLOAD PUSH1 0xFF AND SWAP1 JUMP JUMPDEST PUSH1 0x34 SLOAD PUSH1 0x1 PUSH1 0x1 PUSH1 0xA0 SHL SUB AND CALLER EQ PUSH2 0xDED JUMPI PUSH1 0x40 MLOAD PUSH3 0x461BCD PUSH1 0xE5 SHL DUP2 MSTORE PUSH1 0x4 ADD PUSH2 0x4BB SWAP1 PUSH2 0x1E38 JUMP JUMPDEST PUSH1 0x0 JUMPDEST DUP2 DUP2 LT ISZERO PUSH2 0xE5F JUMPI PUSH1 0x1 PUSH1 0x33 PUSH1 0x0 DUP6 DUP6 DUP6 DUP2 DUP2 LT PUSH2 0xE10 JUMPI PUSH2 0xE10 PUSH2 0x1EE4 JUMP JUMPDEST SWAP1 POP PUSH1 0x20 MUL ADD PUSH1 0x20 DUP2 ADD SWAP1 PUSH2 0xE25 SWAP2 SWAP1 PUSH2 0x19A8 JUMP JUMPDEST PUSH1 0x1 PUSH1 0x1 PUSH1 0xA0 SHL SUB AND DUP2 MSTORE PUSH1 0x20 DUP2 ADD SWAP2 SWAP1 SWAP2 MSTORE PUSH1 0x40 ADD PUSH1 0x0 KECCAK256 DUP1 SLOAD PUSH1 0xFF NOT AND SWAP2 ISZERO ISZERO SWAP2 SWAP1 SWAP2 OR SWAP1 SSTORE DUP1 PUSH2 0xE57 DUP2 PUSH2 0x1EFA JUMP JUMPDEST SWAP2 POP POP PUSH2 0xDF0 JUMP JUMPDEST POP POP POP JUMP JUMPDEST PUSH1 0x2 PUSH1 0x98 SLOAD EQ ISZERO PUSH2 0xE87 JUMPI PUSH1 0x40 MLOAD PUSH3 0x461BCD PUSH1 0xE5 SHL DUP2 MSTORE PUSH1 0x4 ADD PUSH2 0x4BB SWAP1 PUSH2 0x1D23 JUMP JUMPDEST PUSH1 0x2 PUSH1 0x98 SSTORE PUSH1 0x66 SLOAD PUSH1 0x1 PUSH1 0x1 PUSH1 0xA0 SHL SUB AND CALLER EQ PUSH2 0xEB6 JUMPI PUSH1 0x40 MLOAD PUSH3 0x461BCD PUSH1 0xE5 SHL DUP2 MSTORE PUSH1 0x4 ADD PUSH2 0x4BB SWAP1 PUSH2 0x1D5A JUMP JUMPDEST PUSH1 0x0 PUSH1 0xCC DUP4 DUP4 PUSH1 0x40 MLOAD PUSH2 0xECA SWAP3 SWAP2 SWAP1 PUSH2 0x1E7D JUMP JUMPDEST SWAP1 DUP2 MSTORE PUSH1 0x40 MLOAD SWAP1 DUP2 SWAP1 SUB PUSH1 0x20 ADD DUP2 KECCAK256 SLOAD PUSH4 0x70A08231 PUSH1 0xE0 SHL DUP3 MSTORE ADDRESS PUSH1 0x4 DUP4 ADD MSTORE PUSH1 0x1 PUSH1 0x1 PUSH1 0xA0 SHL SUB AND SWAP2 POP PUSH1 0x0 SWAP1 DUP3 SWAP1 PUSH4 0x70A08231 SWAP1 PUSH1 0x24 ADD PUSH1 0x20 PUSH1 0x40 MLOAD DUP1 DUP4 SUB DUP2 DUP7 DUP1 EXTCODESIZE ISZERO DUP1 ISZERO PUSH2 0xF1B JUMPI PUSH1 0x0 DUP1 REVERT JUMPDEST POP GAS STATICCALL ISZERO DUP1 ISZERO PUSH2 0xF2F JUMPI RETURNDATASIZE PUSH1 0x0 DUP1 RETURNDATACOPY RETURNDATASIZE PUSH1 0x0 REVERT JUMPDEST POP POP POP POP PUSH1 0x40 MLOAD RETURNDATASIZE PUSH1 0x1F NOT PUSH1 0x1F DUP3 ADD AND DUP3 ADD DUP1 PUSH1 0x40 MSTORE POP DUP2 ADD SWAP1 PUSH2 0xF53 SWAP2 SWAP1 PUSH2 0x1DA0 JUMP JUMPDEST SWAP1 POP DUP2 PUSH1 0x1 PUSH1 0x1 PUSH1 0xA0 SHL SUB AND PUSH4 0xA9059CBB PUSH2 0xF76 PUSH1 0x66 SLOAD PUSH1 0x1 PUSH1 0x1 PUSH1 0xA0 SHL SUB AND SWAP1 JUMP JUMPDEST PUSH1 0x40 MLOAD PUSH1 0x1 PUSH1 0x1 PUSH1 0xE0 SHL SUB NOT PUSH1 0xE0 DUP5 SWAP1 SHL AND DUP2 MSTORE PUSH1 0x1 PUSH1 0x1 PUSH1 0xA0 SHL SUB SWAP1 SWAP2 AND PUSH1 0x4 DUP3 ADD MSTORE PUSH1 0x24 DUP2 ADD DUP5 SWAP1 MSTORE PUSH1 0x44 ADD PUSH1 0x20 PUSH1 0x40 MLOAD DUP1 DUP4 SUB DUP2 PUSH1 0x0 DUP8 DUP1 EXTCODESIZE ISZERO DUP1 ISZERO PUSH2 0xFBE JUMPI PUSH1 0x0 DUP1 REVERT JUMPDEST POP GAS CALL ISZERO DUP1 ISZERO PUSH2 0xFD2 JUMPI RETURNDATASIZE PUSH1 0x0 DUP1 RETURNDATACOPY RETURNDATASIZE PUSH1 0x0 REVERT JUMPDEST POP POP POP POP PUSH1 0x40 MLOAD RETURNDATASIZE PUSH1 0x1F NOT PUSH1 0x1F DUP3 ADD AND DUP3 ADD DUP1 PUSH1 0x40 MSTORE POP DUP2 ADD SWAP1 PUSH2 0xFF6 SWAP2 SWAP1 PUSH2 0x1E8D JUMP JUMPDEST POP POP PUSH1 0x1 PUSH1 0x98 SSTORE POP POP POP JUMP JUMPDEST PUSH1 0x34 SLOAD PUSH1 0x1 PUSH1 0x1 PUSH1 0xA0 SHL SUB AND CALLER EQ PUSH2 0x102C JUMPI PUSH1 0x40 MLOAD PUSH3 0x461BCD PUSH1 0xE5 SHL DUP2 MSTORE PUSH1 0x4 ADD PUSH2 0x4BB SWAP1 PUSH2 0x1E38 JUMP JUMPDEST PUSH1 0x34 SLOAD PUSH1 0x1 PUSH1 0xA0 SHL SWAP1 DIV PUSH1 0xFF AND PUSH2 0x1085 JUMPI PUSH1 0x40 MLOAD PUSH3 0x461BCD PUSH1 0xE5 SHL DUP2 MSTORE PUSH1 0x20 PUSH1 0x4 DUP3 ADD MSTORE PUSH1 0x1B PUSH1 0x24 DUP3 ADD MSTORE PUSH32 0x57686974656C697374696E6720616C7265616479207061757365640000000000 PUSH1 0x44 DUP3 ADD MSTORE PUSH1 0x64 ADD PUSH2 0x4BB JUMP JUMPDEST PUSH1 0x34 DUP1 SLOAD PUSH1 0xFF PUSH1 0xA0 SHL NOT AND SWAP1 SSTORE JUMP JUMPDEST PUSH1 0x34 SLOAD PUSH1 0x1 PUSH1 0x1 PUSH1 0xA0 SHL SUB AND CALLER EQ PUSH2 0x10BE JUMPI PUSH1 0x40 MLOAD PUSH3 0x461BCD PUSH1 0xE5 SHL DUP2 MSTORE PUSH1 0x4 ADD PUSH2 0x4BB SWAP1 PUSH2 0x1E38 JUMP JUMPDEST PUSH1 0x0 JUMPDEST DUP2 DUP2 LT ISZERO PUSH2 0xE5F JUMPI PUSH1 0x0 PUSH1 0x33 PUSH1 0x0 DUP6 DUP6 DUP6 DUP2 DUP2 LT PUSH2 0x10E1 JUMPI PUSH2 0x10E1 PUSH2 0x1EE4 JUMP JUMPDEST SWAP1 POP PUSH1 0x20 MUL ADD PUSH1 0x20 DUP2 ADD SWAP1 PUSH2 0x10F6 SWAP2 SWAP1 PUSH2 0x19A8 JUMP JUMPDEST PUSH1 0x1 PUSH1 0x1 PUSH1 0xA0 SHL SUB AND DUP2 MSTORE PUSH1 0x20 DUP2 ADD SWAP2 SWAP1 SWAP2 MSTORE PUSH1 0x40 ADD PUSH1 0x0 KECCAK256 DUP1 SLOAD PUSH1 0xFF NOT AND SWAP2 ISZERO ISZERO SWAP2 SWAP1 SWAP2 OR SWAP1 SSTORE DUP1 PUSH2 0x1128 DUP2 PUSH2 0x1EFA JUMP JUMPDEST SWAP2 POP POP PUSH2 0x10C1 JUMP JUMPDEST PUSH1 0x66 SLOAD PUSH1 0x1 PUSH1 0x1 PUSH1 0xA0 SHL SUB AND CALLER EQ PUSH2 0x115A JUMPI PUSH1 0x40 MLOAD PUSH3 0x461BCD PUSH1 0xE5 SHL DUP2 MSTORE PUSH1 0x4 ADD PUSH2 0x4BB SWAP1 PUSH2 0x1D5A JUMP JUMPDEST PUSH2 0x1164 PUSH1 0x0 PUSH2 0x1687 JUMP JUMPDEST JUMP JUMPDEST PUSH1 0x66 SLOAD PUSH1 0x1 PUSH1 0x1 PUSH1 0xA0 SHL SUB AND CALLER EQ PUSH2 0x1190 JUMPI PUSH1 0x40 MLOAD PUSH3 0x461BCD PUSH1 0xE5 SHL DUP2 MSTORE PUSH1 0x4 ADD PUSH2 0x4BB SWAP1 PUSH2 0x1D5A JUMP JUMPDEST PUSH1 0x1 PUSH1 0x1 PUSH1 0xA0 SHL SUB DUP2 AND PUSH2 0x11FB JUMPI PUSH1 0x40 MLOAD PUSH3 0x461BCD PUSH1 0xE5 SHL DUP2 MSTORE PUSH1 0x20 PUSH1 0x4 DUP3 ADD MSTORE PUSH1 0x2C PUSH1 0x24 DUP3 ADD MSTORE PUSH32 0x476F7665726E61626C653A206E657720676F7665726E6F722069732074686520 PUSH1 0x44 DUP3 ADD MSTORE PUSH12 0x7A65726F2061646472657373 PUSH1 0xA0 SHL PUSH1 0x64 DUP3 ADD MSTORE PUSH1 0x84 ADD PUSH2 0x4BB JUMP JUMPDEST PUSH2 0x1204 DUP2 PUSH2 0x1687 JUMP JUMPDEST POP JUMP JUMPDEST PUSH1 0x0 PUSH2 0x1213 PUSH1 0x1 PUSH2 0x16D9 JUMP JUMPDEST SWAP1 POP DUP1 ISZERO PUSH2 0x122B JUMPI PUSH1 0x0 DUP1 SLOAD PUSH2 0xFF00 NOT AND PUSH2 0x100 OR SWAP1 SSTORE JUMPDEST PUSH1 0x1 PUSH1 0x1 PUSH1 0xA0 SHL SUB DUP3 AND PUSH2 0x128D JUMPI PUSH1 0x40 MLOAD PUSH3 0x461BCD PUSH1 0xE5 SHL DUP2 MSTORE PUSH1 0x20 PUSH1 0x4 DUP3 ADD MSTORE PUSH1 0x23 PUSH1 0x24 DUP3 ADD MSTORE PUSH32 0x4E465420636F6E74726163742063616E6E6F74206265207A65726F2061646472 PUSH1 0x44 DUP3 ADD MSTORE PUSH3 0x657373 PUSH1 0xE8 SHL PUSH1 0x64 DUP3 ADD MSTORE PUSH1 0x84 ADD PUSH2 0x4BB JUMP JUMPDEST PUSH2 0x1295 PUSH2 0x1766 JUMP JUMPDEST PUSH2 0x129D PUSH2 0x1795 JUMP JUMPDEST PUSH1 0xCA DUP1 SLOAD PUSH1 0x1 PUSH1 0x1 PUSH1 0xA0 SHL SUB NOT AND PUSH1 0x1 PUSH1 0x1 PUSH1 0xA0 SHL SUB DUP5 AND OR SWAP1 SSTORE PUSH1 0x34 DUP1 SLOAD PUSH1 0xFF PUSH1 0xA0 SHL NOT AND SWAP1 SSTORE DUP1 ISZERO PUSH2 0x130B JUMPI PUSH1 0x0 DUP1 SLOAD PUSH2 0xFF00 NOT AND SWAP1 SSTORE PUSH1 0x40 MLOAD PUSH1 0x1 DUP2 MSTORE PUSH32 0x7F26B83FF96E1F2B6A682F133852F6798A09C465DA95921460CEFB3847402498 SWAP1 PUSH1 0x20 ADD PUSH1 0x40 MLOAD DUP1 SWAP2 SUB SWAP1 LOG1 JUMPDEST POP POP JUMP JUMPDEST PUSH1 0x34 SLOAD PUSH1 0x1 PUSH1 0x1 PUSH1 0xA0 SHL SUB AND CALLER EQ PUSH2 0x1339 JUMPI PUSH1 0x40 MLOAD PUSH3 0x461BCD PUSH1 0xE5 SHL DUP2 MSTORE PUSH1 0x4 ADD PUSH2 0x4BB SWAP1 PUSH2 0x1E38 JUMP JUMPDEST PUSH1 0x1 PUSH1 0x1 PUSH1 0xA0 SHL SUB AND PUSH1 0x0 SWAP1 DUP2 MSTORE PUSH1 0x33 PUSH1 0x20 MSTORE PUSH1 0x40 SWAP1 KECCAK256 DUP1 SLOAD PUSH1 0xFF NOT AND PUSH1 0x1 OR SWAP1 SSTORE JUMP JUMPDEST CALLER PUSH1 0x0 SWAP1 DUP2 MSTORE PUSH1 0x33 PUSH1 0x20 MSTORE PUSH1 0x40 SWAP1 KECCAK256 SLOAD PUSH1 0xFF AND DUP1 PUSH2 0x1384 JUMPI POP PUSH1 0x34 SLOAD PUSH1 0x1 PUSH1 0xA0 SHL SWAP1 DIV PUSH1 0xFF AND JUMPDEST PUSH2 0x13C2 JUMPI PUSH1 0x40 MLOAD PUSH3 0x461BCD PUSH1 0xE5 SHL DUP2 MSTORE PUSH1 0x20 PUSH1 0x4 DUP3 ADD MSTORE PUSH1 0xF PUSH1 0x24 DUP3 ADD MSTORE PUSH15 0x139BDD081DDA1A5D195B1A5CDD1959 PUSH1 0x8A SHL PUSH1 0x44 DUP3 ADD MSTORE PUSH1 0x64 ADD PUSH2 0x4BB JUMP JUMPDEST PUSH1 0xCA SLOAD PUSH1 0x1 PUSH1 0x1 PUSH1 0xA0 SHL SUB AND PUSH4 0x9944F518 CALLER PUSH1 0x40 MLOAD PUSH1 0x1 PUSH1 0x1 PUSH1 0xE0 SHL SUB NOT PUSH1 0xE0 DUP5 SWAP1 SHL AND DUP2 MSTORE PUSH1 0x1 PUSH1 0x1 PUSH1 0xA0 SHL SUB SWAP1 SWAP2 AND PUSH1 0x4 DUP3 ADD MSTORE PUSH1 0x24 ADD PUSH1 0x20 PUSH1 0x40 MLOAD DUP1 DUP4 SUB DUP2 DUP7 DUP1 EXTCODESIZE ISZERO DUP1 ISZERO PUSH2 0x1413 JUMPI PUSH1 0x0 DUP1 REVERT JUMPDEST POP GAS STATICCALL ISZERO DUP1 ISZERO PUSH2 0x1427 JUMPI RETURNDATASIZE PUSH1 0x0 DUP1 RETURNDATACOPY RETURNDATASIZE PUSH1 0x0 REVERT JUMPDEST POP POP POP POP PUSH1 0x40 MLOAD RETURNDATASIZE PUSH1 0x1F NOT PUSH1 0x1F DUP3 ADD AND DUP3 ADD DUP1 PUSH1 0x40 MSTORE POP DUP2 ADD SWAP1 PUSH2 0x144B SWAP2 SWAP1 PUSH2 0x1E8D JUMP JUMPDEST PUSH2 0x1486 JUMPI PUSH1 0x40 MLOAD PUSH3 0x461BCD PUSH1 0xE5 SHL DUP2 MSTORE PUSH1 0x20 PUSH1 0x4 DUP3 ADD MSTORE PUSH1 0xC PUSH1 0x24 DUP3 ADD MSTORE PUSH12 0x12D650C81C995C5D5A5C9959 PUSH1 0xA2 SHL PUSH1 0x44 DUP3 ADD MSTORE PUSH1 0x64 ADD PUSH2 0x4BB JUMP JUMPDEST PUSH1 0x0 DUP2 DUP2 MSTORE PUSH1 0xCB PUSH1 0x20 SWAP1 DUP2 MSTORE PUSH1 0x40 DUP1 DUP4 KECCAK256 CALLER DUP5 MSTORE SWAP1 SWAP2 MSTORE SWAP1 KECCAK256 SLOAD PUSH2 0x14EC JUMPI PUSH1 0x40 MLOAD PUSH3 0x461BCD PUSH1 0xE5 SHL DUP2 MSTORE PUSH1 0x20 PUSH1 0x4 DUP3 ADD MSTORE PUSH1 0x18 PUSH1 0x24 DUP3 ADD MSTORE PUSH32 0x4E6F206D6F72652070656E64696E672062616C616E6365730000000000000000 PUSH1 0x44 DUP3 ADD MSTORE PUSH1 0x64 ADD PUSH2 0x4BB JUMP JUMPDEST PUSH1 0x0 DUP2 DUP2 MSTORE PUSH1 0xCB PUSH1 0x20 SWAP1 DUP2 MSTORE PUSH1 0x40 DUP1 DUP4 KECCAK256 CALLER DUP5 MSTORE DUP3 MSTORE DUP1 DUP4 KECCAK256 SLOAD PUSH1 0xCA SLOAD DUP3 MLOAD PUSH3 0x7EEAC7 PUSH1 0xE1 SHL DUP2 MSTORE ADDRESS PUSH1 0x4 DUP3 ADD MSTORE PUSH1 0x24 DUP2 ADD DUP8 SWAP1 MSTORE SWAP3 MLOAD SWAP2 SWAP5 SWAP4 PUSH1 0x1 PUSH1 0x1 PUSH1 0xA0 SHL SUB SWAP1 SWAP2 AND SWAP3 PUSH3 0xFDD58E SWAP3 PUSH1 0x44 DUP1 DUP4 ADD SWAP4 SWAP3 DUP3 SWAP1 SUB ADD DUP2 DUP7 DUP1 EXTCODESIZE ISZERO DUP1 ISZERO PUSH2 0x1552 JUMPI PUSH1 0x0 DUP1 REVERT JUMPDEST POP GAS STATICCALL ISZERO DUP1 ISZERO PUSH2 0x1566 JUMPI RETURNDATASIZE PUSH1 0x0 DUP1 RETURNDATACOPY RETURNDATASIZE PUSH1 0x0 REVERT JUMPDEST POP POP POP POP PUSH1 0x40 MLOAD RETURNDATASIZE PUSH1 0x1F NOT PUSH1 0x1F DUP3 ADD AND DUP3 ADD DUP1 PUSH1 0x40 MSTORE POP DUP2 ADD SWAP1 PUSH2 0x158A SWAP2 SWAP1 PUSH2 0x1DA0 JUMP JUMPDEST SWAP1 POP DUP2 DUP2 LT ISZERO PUSH2 0x15E7 JUMPI PUSH1 0x40 MLOAD PUSH3 0x461BCD PUSH1 0xE5 SHL DUP2 MSTORE PUSH1 0x20 PUSH1 0x4 DUP3 ADD MSTORE PUSH1 0x22 PUSH1 0x24 DUP3 ADD MSTORE PUSH32 0x5245495449504F3A206E6F7420656E6F75676820756E69747320746F20636C61 PUSH1 0x44 DUP3 ADD MSTORE PUSH2 0x696D PUSH1 0xF0 SHL PUSH1 0x64 DUP3 ADD MSTORE PUSH1 0x84 ADD PUSH2 0x4BB JUMP JUMPDEST PUSH1 0xCA SLOAD PUSH1 0x40 MLOAD PUSH4 0x79212195 PUSH1 0xE1 SHL DUP2 MSTORE PUSH1 0x60 SWAP2 PUSH1 0x1 PUSH1 0x1 PUSH1 0xA0 SHL SUB AND SWAP1 PUSH4 0xF242432A SWAP1 PUSH2 0x1620 SWAP1 ADDRESS SWAP1 CALLER SWAP1 DUP10 SWAP1 DUP10 SWAP1 DUP9 SWAP1 PUSH1 0x4 ADD PUSH2 0x1DB9 JUMP JUMPDEST PUSH1 0x0 PUSH1 0x40 MLOAD DUP1 DUP4 SUB DUP2 PUSH1 0x0 DUP8 DUP1 EXTCODESIZE ISZERO DUP1 ISZERO PUSH2 0x163A JUMPI PUSH1 0x0 DUP1 REVERT JUMPDEST POP GAS CALL ISZERO DUP1 ISZERO PUSH2 0x164E JUMPI RETURNDATASIZE PUSH1 0x0 DUP1 RETURNDATACOPY RETURNDATASIZE PUSH1 0x0 REVERT JUMPDEST POP POP POP PUSH1 0x0 SWAP5 DUP6 MSTORE POP POP PUSH1 0xCB PUSH1 0x20 SWAP1 DUP2 MSTORE PUSH1 0x40 DUP1 DUP6 KECCAK256 CALLER DUP7 MSTORE SWAP1 SWAP2 MSTORE DUP4 KECCAK256 SWAP3 SWAP1 SWAP3 SSTORE POP POP JUMP JUMPDEST PUSH1 0x0 PUSH2 0x1680 DUP3 DUP5 PUSH2 0x1F15 JUMP JUMPDEST SWAP4 SWAP3 POP POP POP JUMP JUMPDEST PUSH1 0x66 DUP1 SLOAD PUSH1 0x1 PUSH1 0x1 PUSH1 0xA0 SHL SUB DUP4 DUP2 AND PUSH1 0x1 PUSH1 0x1 PUSH1 0xA0 SHL SUB NOT DUP4 AND DUP2 OR SWAP1 SWAP4 SSTORE PUSH1 0x40 MLOAD SWAP2 AND SWAP2 SWAP1 DUP3 SWAP1 PUSH32 0xC7C0C772ADD429241571AFB3805861FB3CFA2AF374534088B76CDB4325A87E9A SWAP1 PUSH1 0x0 SWAP1 LOG3 POP POP JUMP JUMPDEST PUSH1 0x0 DUP1 SLOAD PUSH2 0x100 SWAP1 DIV PUSH1 0xFF AND ISZERO PUSH2 0x1720 JUMPI DUP2 PUSH1 0xFF AND PUSH1 0x1 EQ DUP1 ISZERO PUSH2 0x16FC JUMPI POP ADDRESS EXTCODESIZE ISZERO JUMPDEST PUSH2 0x1718 JUMPI PUSH1 0x40 MLOAD PUSH3 0x461BCD PUSH1 0xE5 SHL DUP2 MSTORE PUSH1 0x4 ADD PUSH2 0x4BB SWAP1 PUSH2 0x1F2D JUMP JUMPDEST POP PUSH1 0x0 SWAP2 SWAP1 POP JUMP JUMPDEST PUSH1 0x0 SLOAD PUSH1 0xFF DUP1 DUP5 AND SWAP2 AND LT PUSH2 0x1747 JUMPI PUSH1 0x40 MLOAD PUSH3 0x461BCD PUSH1 0xE5 SHL DUP2 MSTORE PUSH1 0x4 ADD PUSH2 0x4BB SWAP1 PUSH2 0x1F2D JUMP JUMPDEST POP PUSH1 0x0 DUP1 SLOAD PUSH1 0xFF NOT AND PUSH1 0xFF SWAP3 SWAP1 SWAP3 AND SWAP2 SWAP1 SWAP2 OR SWAP1 SSTORE PUSH1 0x1 SWAP1 JUMP JUMPDEST SWAP2 SWAP1 POP JUMP JUMPDEST PUSH1 0x0 SLOAD PUSH2 0x100 SWAP1 DIV PUSH1 0xFF AND PUSH2 0x178D JUMPI PUSH1 0x40 MLOAD PUSH3 0x461BCD PUSH1 0xE5 SHL DUP2 MSTORE PUSH1 0x4 ADD PUSH2 0x4BB SWAP1 PUSH2 0x1F7B JUMP JUMPDEST PUSH2 0x1164 PUSH2 0x17C4 JUMP JUMPDEST PUSH1 0x0 SLOAD PUSH2 0x100 SWAP1 DIV PUSH1 0xFF AND PUSH2 0x17BC JUMPI PUSH1 0x40 MLOAD PUSH3 0x461BCD PUSH1 0xE5 SHL DUP2 MSTORE PUSH1 0x4 ADD PUSH2 0x4BB SWAP1 PUSH2 0x1F7B JUMP JUMPDEST PUSH2 0x1164 PUSH2 0x17F4 JUMP JUMPDEST PUSH1 0x0 SLOAD PUSH2 0x100 SWAP1 DIV PUSH1 0xFF AND PUSH2 0x17EB JUMPI PUSH1 0x40 MLOAD PUSH3 0x461BCD PUSH1 0xE5 SHL DUP2 MSTORE PUSH1 0x4 ADD PUSH2 0x4BB SWAP1 PUSH2 0x1F7B JUMP JUMPDEST PUSH2 0x1164 CALLER PUSH2 0x1687 JUMP JUMPDEST PUSH1 0x0 SLOAD PUSH2 0x100 SWAP1 DIV PUSH1 0xFF AND PUSH2 0x181B JUMPI PUSH1 0x40 MLOAD PUSH3 0x461BCD PUSH1 0xE5 SHL DUP2 MSTORE PUSH1 0x4 ADD PUSH2 0x4BB SWAP1 PUSH2 0x1F7B JUMP JUMPDEST PUSH1 0x34 DUP1 SLOAD PUSH1 0x1 PUSH1 0x1 PUSH1 0xA0 SHL SUB NOT AND CALLER OR SWAP1 SSTORE JUMP JUMPDEST PUSH1 0x0 PUSH1 0x20 DUP3 DUP5 SUB SLT ISZERO PUSH2 0x1841 JUMPI PUSH1 0x0 DUP1 REVERT JUMPDEST DUP2 CALLDATALOAD PUSH1 0x1 PUSH1 0x1 PUSH1 0xE0 SHL SUB NOT DUP2 AND DUP2 EQ PUSH2 0x1680 JUMPI PUSH1 0x0 DUP1 REVERT JUMPDEST PUSH1 0x0 PUSH1 0x20 DUP3 DUP5 SUB SLT ISZERO PUSH2 0x186B JUMPI PUSH1 0x0 DUP1 REVERT JUMPDEST POP CALLDATALOAD SWAP2 SWAP1 POP JUMP JUMPDEST DUP1 CALLDATALOAD PUSH1 0x1 PUSH1 0x1 PUSH1 0xA0 SHL SUB DUP2 AND DUP2 EQ PUSH2 0x1761 JUMPI PUSH1 0x0 DUP1 REVERT JUMPDEST PUSH4 0x4E487B71 PUSH1 0xE0 SHL PUSH1 0x0 MSTORE PUSH1 0x41 PUSH1 0x4 MSTORE PUSH1 0x24 PUSH1 0x0 REVERT JUMPDEST PUSH1 0x40 MLOAD PUSH1 0x1F DUP3 ADD PUSH1 0x1F NOT AND DUP2 ADD PUSH8 0xFFFFFFFFFFFFFFFF DUP2 GT DUP3 DUP3 LT OR ISZERO PUSH2 0x18C8 JUMPI PUSH2 0x18C8 PUSH2 0x1889 JUMP JUMPDEST PUSH1 0x40 MSTORE SWAP2 SWAP1 POP JUMP JUMPDEST PUSH1 0x0 DUP3 PUSH1 0x1F DUP4 ADD SLT PUSH2 0x18E1 JUMPI PUSH1 0x0 DUP1 REVERT JUMPDEST DUP2 CALLDATALOAD PUSH8 0xFFFFFFFFFFFFFFFF DUP2 GT ISZERO PUSH2 0x18FB JUMPI PUSH2 0x18FB PUSH2 0x1889 JUMP JUMPDEST PUSH2 0x190E PUSH1 0x1F DUP3 ADD PUSH1 0x1F NOT AND PUSH1 0x20 ADD PUSH2 0x189F JUMP JUMPDEST DUP2 DUP2 MSTORE DUP5 PUSH1 0x20 DUP4 DUP7 ADD ADD GT ISZERO PUSH2 0x1923 JUMPI PUSH1 0x0 DUP1 REVERT JUMPDEST DUP2 PUSH1 0x20 DUP6 ADD PUSH1 0x20 DUP4 ADD CALLDATACOPY PUSH1 0x0 SWAP2 DUP2 ADD PUSH1 0x20 ADD SWAP2 SWAP1 SWAP2 MSTORE SWAP4 SWAP3 POP POP POP JUMP JUMPDEST PUSH1 0x0 DUP1 PUSH1 0x0 DUP1 PUSH1 0x80 DUP6 DUP8 SUB SLT ISZERO PUSH2 0x1956 JUMPI PUSH1 0x0 DUP1 REVERT JUMPDEST PUSH2 0x195F DUP6 PUSH2 0x1872 JUMP JUMPDEST SWAP4 POP PUSH2 0x196D PUSH1 0x20 DUP7 ADD PUSH2 0x1872 JUMP JUMPDEST SWAP3 POP PUSH1 0x40 DUP6 ADD CALLDATALOAD SWAP2 POP PUSH1 0x60 DUP6 ADD CALLDATALOAD PUSH8 0xFFFFFFFFFFFFFFFF DUP2 GT ISZERO PUSH2 0x1990 JUMPI PUSH1 0x0 DUP1 REVERT JUMPDEST PUSH2 0x199C DUP8 DUP3 DUP9 ADD PUSH2 0x18D0 JUMP JUMPDEST SWAP2 POP POP SWAP3 SWAP6 SWAP2 SWAP5 POP SWAP3 POP JUMP JUMPDEST PUSH1 0x0 PUSH1 0x20 DUP3 DUP5 SUB SLT ISZERO PUSH2 0x19BA JUMPI PUSH1 0x0 DUP1 REVERT JUMPDEST PUSH2 0x1680 DUP3 PUSH2 0x1872 JUMP JUMPDEST PUSH1 0x0 DUP1 DUP4 PUSH1 0x1F DUP5 ADD SLT PUSH2 0x19D5 JUMPI PUSH1 0x0 DUP1 REVERT JUMPDEST POP DUP2 CALLDATALOAD PUSH8 0xFFFFFFFFFFFFFFFF DUP2 GT ISZERO PUSH2 0x19ED JUMPI PUSH1 0x0 DUP1 REVERT JUMPDEST PUSH1 0x20 DUP4 ADD SWAP2 POP DUP4 PUSH1 0x20 DUP3 DUP6 ADD ADD GT ISZERO PUSH2 0x1A05 JUMPI PUSH1 0x0 DUP1 REVERT JUMPDEST SWAP3 POP SWAP3 SWAP1 POP JUMP JUMPDEST PUSH1 0x0 DUP1 PUSH1 0x0 PUSH1 0x40 DUP5 DUP7 SUB SLT ISZERO PUSH2 0x1A21 JUMPI PUSH1 0x0 DUP1 REVERT JUMPDEST DUP4 CALLDATALOAD PUSH8 0xFFFFFFFFFFFFFFFF DUP2 GT ISZERO PUSH2 0x1A38 JUMPI PUSH1 0x0 DUP1 REVERT JUMPDEST PUSH2 0x1A44 DUP7 DUP3 DUP8 ADD PUSH2 0x19C3 JUMP JUMPDEST SWAP1 SWAP5 POP SWAP3 POP PUSH2 0x1A57 SWAP1 POP PUSH1 0x20 DUP6 ADD PUSH2 0x1872 JUMP JUMPDEST SWAP1 POP SWAP3 POP SWAP3 POP SWAP3 JUMP JUMPDEST PUSH1 0x0 DUP1 PUSH1 0x0 DUP1 PUSH1 0x60 DUP6 DUP8 SUB SLT ISZERO PUSH2 0x1A76 JUMPI PUSH1 0x0 DUP1 REVERT JUMPDEST DUP5 CALLDATALOAD PUSH8 0xFFFFFFFFFFFFFFFF DUP2 GT ISZERO PUSH2 0x1A8D JUMPI PUSH1 0x0 DUP1 REVERT JUMPDEST PUSH2 0x1A99 DUP8 DUP3 DUP9 ADD PUSH2 0x19C3 JUMP JUMPDEST SWAP1 SWAP9 SWAP1 SWAP8 POP PUSH1 0x20 DUP8 ADD CALLDATALOAD SWAP7 PUSH1 0x40 ADD CALLDATALOAD SWAP6 POP SWAP4 POP POP POP POP JUMP JUMPDEST PUSH1 0x0 DUP1 PUSH1 0x20 DUP4 DUP6 SUB SLT ISZERO PUSH2 0x1AC4 JUMPI PUSH1 0x0 DUP1 REVERT JUMPDEST DUP3 CALLDATALOAD PUSH8 0xFFFFFFFFFFFFFFFF DUP1 DUP3 GT ISZERO PUSH2 0x1ADC JUMPI PUSH1 0x0 DUP1 REVERT JUMPDEST DUP2 DUP6 ADD SWAP2 POP DUP6 PUSH1 0x1F DUP4 ADD SLT PUSH2 0x1AF0 JUMPI PUSH1 0x0 DUP1 REVERT JUMPDEST DUP2 CALLDATALOAD DUP2 DUP2 GT ISZERO PUSH2 0x1AFF JUMPI PUSH1 0x0 DUP1 REVERT JUMPDEST DUP7 PUSH1 0x20 DUP3 PUSH1 0x5 SHL DUP6 ADD ADD GT ISZERO PUSH2 0x1B14 JUMPI PUSH1 0x0 DUP1 REVERT JUMPDEST PUSH1 0x20 SWAP3 SWAP1 SWAP3 ADD SWAP7 SWAP2 SWAP6 POP SWAP1 SWAP4 POP POP POP POP JUMP JUMPDEST PUSH1 0x0 DUP1 PUSH1 0x20 DUP4 DUP6 SUB SLT ISZERO PUSH2 0x1B39 JUMPI PUSH1 0x0 DUP1 REVERT JUMPDEST DUP3 CALLDATALOAD PUSH8 0xFFFFFFFFFFFFFFFF DUP2 GT ISZERO PUSH2 0x1B50 JUMPI PUSH1 0x0 DUP1 REVERT JUMPDEST PUSH2 0x1B5C DUP6 DUP3 DUP7 ADD PUSH2 0x19C3 JUMP JUMPDEST SWAP1 SWAP7 SWAP1 SWAP6 POP SWAP4 POP POP POP POP JUMP JUMPDEST PUSH1 0x0 DUP3 PUSH1 0x1F DUP4 ADD SLT PUSH2 0x1B79 JUMPI PUSH1 0x0 DUP1 REVERT JUMPDEST DUP2 CALLDATALOAD PUSH1 0x20 PUSH8 0xFFFFFFFFFFFFFFFF DUP3 GT ISZERO PUSH2 0x1B95 JUMPI PUSH2 0x1B95 PUSH2 0x1889 JUMP JUMPDEST DUP2 PUSH1 0x5 SHL PUSH2 0x1BA4 DUP3 DUP3 ADD PUSH2 0x189F JUMP JUMPDEST SWAP3 DUP4 MSTORE DUP5 DUP2 ADD DUP3 ADD SWAP3 DUP3 DUP2 ADD SWAP1 DUP8 DUP6 GT ISZERO PUSH2 0x1BBE JUMPI PUSH1 0x0 DUP1 REVERT JUMPDEST DUP4 DUP8 ADD SWAP3 POP JUMPDEST DUP5 DUP4 LT ISZERO PUSH2 0x1BDD JUMPI DUP3 CALLDATALOAD DUP3 MSTORE SWAP2 DUP4 ADD SWAP2 SWAP1 DUP4 ADD SWAP1 PUSH2 0x1BC4 JUMP JUMPDEST SWAP8 SWAP7 POP POP POP POP POP POP POP JUMP JUMPDEST PUSH1 0x0 DUP1 PUSH1 0x0 DUP1 PUSH1 0x0 PUSH1 0xA0 DUP7 DUP9 SUB SLT ISZERO PUSH2 0x1C00 JUMPI PUSH1 0x0 DUP1 REVERT JUMPDEST PUSH2 0x1C09 DUP7 PUSH2 0x1872 JUMP JUMPDEST SWAP5 POP PUSH2 0x1C17 PUSH1 0x20 DUP8 ADD PUSH2 0x1872 JUMP JUMPDEST SWAP4 POP PUSH1 0x40 DUP7 ADD CALLDATALOAD PUSH8 0xFFFFFFFFFFFFFFFF DUP1 DUP3 GT ISZERO PUSH2 0x1C34 JUMPI PUSH1 0x0 DUP1 REVERT JUMPDEST PUSH2 0x1C40 DUP10 DUP4 DUP11 ADD PUSH2 0x1B68 JUMP JUMPDEST SWAP5 POP PUSH1 0x60 DUP9 ADD CALLDATALOAD SWAP2 POP DUP1 DUP3 GT ISZERO PUSH2 0x1C56 JUMPI PUSH1 0x0 DUP1 REVERT JUMPDEST PUSH2 0x1C62 DUP10 DUP4 DUP11 ADD PUSH2 0x1B68 JUMP JUMPDEST SWAP4 POP PUSH1 0x80 DUP9 ADD CALLDATALOAD SWAP2 POP DUP1 DUP3 GT ISZERO PUSH2 0x1C78 JUMPI PUSH1 0x0 DUP1 REVERT JUMPDEST POP PUSH2 0x1C85 DUP9 DUP3 DUP10 ADD PUSH2 0x18D0 JUMP JUMPDEST SWAP2 POP POP SWAP3 SWAP6 POP SWAP3 SWAP6 SWAP1 SWAP4 POP JUMP JUMPDEST PUSH1 0x0 DUP1 PUSH1 0x40 DUP4 DUP6 SUB SLT ISZERO PUSH2 0x1CA5 JUMPI PUSH1 0x0 DUP1 REVERT JUMPDEST DUP3 CALLDATALOAD SWAP2 POP PUSH2 0x1CB5 PUSH1 0x20 DUP5 ADD PUSH2 0x1872 JUMP JUMPDEST SWAP1 POP SWAP3 POP SWAP3 SWAP1 POP JUMP JUMPDEST PUSH1 0x0 DUP1 PUSH1 0x0 DUP1 PUSH1 0x0 PUSH1 0xA0 DUP7 DUP9 SUB SLT ISZERO PUSH2 0x1CD6 JUMPI PUSH1 0x0 DUP1 REVERT JUMPDEST PUSH2 0x1CDF DUP7 PUSH2 0x1872 JUMP JUMPDEST SWAP5 POP PUSH2 0x1CED PUSH1 0x20 DUP8 ADD PUSH2 0x1872 JUMP JUMPDEST SWAP4 POP PUSH1 0x40 DUP7 ADD CALLDATALOAD SWAP3 POP PUSH1 0x60 DUP7 ADD CALLDATALOAD SWAP2 POP PUSH1 0x80 DUP7 ADD CALLDATALOAD PUSH8 0xFFFFFFFFFFFFFFFF DUP2 GT ISZERO PUSH2 0x1D17 JUMPI PUSH1 0x0 DUP1 REVERT JUMPDEST PUSH2 0x1C85 DUP9 DUP3 DUP10 ADD PUSH2 0x18D0 JUMP JUMPDEST PUSH1 0x20 DUP1 DUP3 MSTORE PUSH1 0x1F SWAP1 DUP3 ADD MSTORE PUSH32 0x5265656E7472616E637947756172643A207265656E7472616E742063616C6C00 PUSH1 0x40 DUP3 ADD MSTORE PUSH1 0x60 ADD SWAP1 JUMP JUMPDEST PUSH1 0x20 DUP1 DUP3 MSTORE PUSH1 0x26 SWAP1 DUP3 ADD MSTORE PUSH32 0x476F7665726E61626C653A2063616C6C6572206973206E6F742074686520676F PUSH1 0x40 DUP3 ADD MSTORE PUSH6 0x3B32B93737B9 PUSH1 0xD1 SHL PUSH1 0x60 DUP3 ADD MSTORE PUSH1 0x80 ADD SWAP1 JUMP JUMPDEST PUSH1 0x0 PUSH1 0x20 DUP3 DUP5 SUB SLT ISZERO PUSH2 0x1DB2 JUMPI PUSH1 0x0 DUP1 REVERT JUMPDEST POP MLOAD SWAP2 SWAP1 POP JUMP JUMPDEST PUSH1 0x0 PUSH1 0x1 DUP1 PUSH1 0xA0 SHL SUB DUP1 DUP9 AND DUP4 MSTORE PUSH1 0x20 DUP2 DUP9 AND DUP2 DUP6 ADD MSTORE DUP7 PUSH1 0x40 DUP6 ADD MSTORE DUP6 PUSH1 0x60 DUP6 ADD MSTORE PUSH1 0xA0 PUSH1 0x80 DUP6 ADD MSTORE DUP5 MLOAD SWAP2 POP DUP2 PUSH1 0xA0 DUP6 ADD MSTORE PUSH1 0x0 JUMPDEST DUP3 DUP2 LT ISZERO PUSH2 0x1E0C JUMPI DUP6 DUP2 ADD DUP3 ADD MLOAD DUP6 DUP3 ADD PUSH1 0xC0 ADD MSTORE DUP2 ADD PUSH2 0x1DF0 JUMP JUMPDEST DUP3 DUP2 GT ISZERO PUSH2 0x1E1E JUMPI PUSH1 0x0 PUSH1 0xC0 DUP5 DUP8 ADD ADD MSTORE JUMPDEST POP POP PUSH1 0x1F ADD PUSH1 0x1F NOT AND SWAP2 SWAP1 SWAP2 ADD PUSH1 0xC0 ADD SWAP7 SWAP6 POP POP POP POP POP POP JUMP JUMPDEST PUSH1 0x20 DUP1 DUP3 MSTORE PUSH1 0x25 SWAP1 DUP3 ADD MSTORE PUSH32 0x57686974656C697374696E673A2063616C6C6572206973206E6F742074686520 PUSH1 0x40 DUP3 ADD MSTORE PUSH5 0x30B236B4B7 PUSH1 0xD9 SHL PUSH1 0x60 DUP3 ADD MSTORE PUSH1 0x80 ADD SWAP1 JUMP JUMPDEST DUP2 DUP4 DUP3 CALLDATACOPY PUSH1 0x0 SWAP2 ADD SWAP1 DUP2 MSTORE SWAP2 SWAP1 POP JUMP JUMPDEST PUSH1 0x0 PUSH1 0x20 DUP3 DUP5 SUB SLT ISZERO PUSH2 0x1E9F JUMPI PUSH1 0x0 DUP1 REVERT JUMPDEST DUP2 MLOAD DUP1 ISZERO ISZERO DUP2 EQ PUSH2 0x1680 JUMPI PUSH1 0x0 DUP1 REVERT JUMPDEST PUSH4 0x4E487B71 PUSH1 0xE0 SHL PUSH1 0x0 MSTORE PUSH1 0x11 PUSH1 0x4 MSTORE PUSH1 0x24 PUSH1 0x0 REVERT JUMPDEST PUSH1 0x0 DUP2 PUSH1 0x0 NOT DIV DUP4 GT DUP3 ISZERO ISZERO AND ISZERO PUSH2 0x1EDF JUMPI PUSH2 0x1EDF PUSH2 0x1EAF JUMP JUMPDEST POP MUL SWAP1 JUMP JUMPDEST PUSH4 0x4E487B71 PUSH1 0xE0 SHL PUSH1 0x0 MSTORE PUSH1 0x32 PUSH1 0x4 MSTORE PUSH1 0x24 PUSH1 0x0 REVERT JUMPDEST PUSH1 0x0 PUSH1 0x0 NOT DUP3 EQ ISZERO PUSH2 0x1F0E JUMPI PUSH2 0x1F0E PUSH2 0x1EAF JUMP JUMPDEST POP PUSH1 0x1 ADD SWAP1 JUMP JUMPDEST PUSH1 0x0 DUP3 NOT DUP3 GT ISZERO PUSH2 0x1F28 JUMPI PUSH2 0x1F28 PUSH2 0x1EAF JUMP JUMPDEST POP ADD SWAP1 JUMP JUMPDEST PUSH1 0x20 DUP1 DUP3 MSTORE PUSH1 0x2E SWAP1 DUP3 ADD MSTORE PUSH32 0x496E697469616C697A61626C653A20636F6E747261637420697320616C726561 PUSH1 0x40 DUP3 ADD MSTORE PUSH14 0x191E481A5B9A5D1A585B1A5E9959 PUSH1 0x92 SHL PUSH1 0x60 DUP3 ADD MSTORE PUSH1 0x80 ADD SWAP1 JUMP JUMPDEST PUSH1 0x20 DUP1 DUP3 MSTORE PUSH1 0x2B SWAP1 DUP3 ADD MSTORE PUSH32 0x496E697469616C697A61626C653A20636F6E7472616374206973206E6F742069 PUSH1 0x40 DUP3 ADD MSTORE PUSH11 0x6E697469616C697A696E67 PUSH1 0xA8 SHL PUSH1 0x60 DUP3 ADD MSTORE PUSH1 0x80 ADD SWAP1 JUMP INVALID LOG2 PUSH5 0x6970667358 0x22 SLT KECCAK256 PUSH3 0xBD68 0x1E DUP16 0x28 0xD0 0xEC PUSH11 0xD4145EC0EDD9944AB8335E 0x2A DUP12 0xC0 NOT 0x1E 0xE5 0x49 0xD3 0x22 0x4C 0xE2 PUSH5 0x736F6C6343 STOP ADDMOD MULMOD STOP CALLER "
        },
        "methodIdentifiers": {
          "addManyToWhitelisted(address[])": "4536cab6",
          "addToWhitelisted(address)": "e46c1507",
          "allowPayableToken(string,address)": "32394239",
          "claimPendingBalances(uint256)": "f9672667",
          "freeWhiteList()": "08c92f50",
          "getNFTContract()": "2b1f4ad6",
          "getPendingBalances(uint256,address)": "ead6ca0a",
          "governor()": "0c340a24",
          "initialize(address)": "c4d66de8",
          "isWhitelisted(address)": "3af32abf",
          "onERC1155BatchReceived(address,address,uint256[],uint256[],bytes)": "bc197c81",
          "onERC1155Received(address,address,uint256,uint256,bytes)": "f23a6e61",
          "onERC721Received(address,address,uint256,bytes)": "150b7a02",
          "purchaseWithToken(string,uint256,uint256)": "367c4437",
          "removeManyWhitelisted(address[])": "764d8029",
          "removeWhitelisted(address)": "291d9549",
          "renounceGovernorship()": "81c0c263",
          "resumeWhiteList()": "6c6426ad",
          "supportsInterface(bytes4)": "01ffc9a7",
          "transferGovernorship(address)": "b6aa515b",
          "withdrawFunds()": "24600fc3",
          "withdrawNFT(uint256)": "023245d7",
          "withdrawPayableToken(string)": "671ad411"
        }
      },
      "storageLayout": {
        "storage": [
          {
            "astId": 370,
            "contract": "contracts/REITIPO.sol:REITIPO",
            "label": "_initialized",
            "offset": 0,
            "slot": "0",
            "type": "t_uint8"
          },
          {
            "astId": 373,
            "contract": "contracts/REITIPO.sol:REITIPO",
            "label": "_initializing",
            "offset": 1,
            "slot": "0",
            "type": "t_bool"
          },
          {
            "astId": 1111,
            "contract": "contracts/REITIPO.sol:REITIPO",
            "label": "__gap",
            "offset": 0,
            "slot": "1",
            "type": "t_array(t_uint256)50_storage"
          },
          {
            "astId": 1118,
            "contract": "contracts/REITIPO.sol:REITIPO",
            "label": "whitelisteds",
            "offset": 0,
            "slot": "51",
            "type": "t_mapping(t_address,t_bool)"
          },
          {
            "astId": 1120,
            "contract": "contracts/REITIPO.sol:REITIPO",
            "label": "_whiteListAdmin",
            "offset": 0,
            "slot": "52",
            "type": "t_address"
          },
          {
            "astId": 1122,
            "contract": "contracts/REITIPO.sol:REITIPO",
            "label": "_whitelistFree",
            "offset": 20,
            "slot": "52",
            "type": "t_bool"
          },
          {
            "astId": 1329,
            "contract": "contracts/REITIPO.sol:REITIPO",
            "label": "__gap",
            "offset": 0,
            "slot": "53",
            "type": "t_array(t_uint256)49_storage"
          },
          {
            "astId": 1337,
            "contract": "contracts/REITIPO.sol:REITIPO",
            "label": "_governor",
            "offset": 0,
            "slot": "102",
            "type": "t_address"
          },
          {
            "astId": 1449,
            "contract": "contracts/REITIPO.sol:REITIPO",
            "label": "__gap",
            "offset": 0,
            "slot": "103",
            "type": "t_array(t_uint256)49_storage"
          },
          {
            "astId": 516,
            "contract": "contracts/REITIPO.sol:REITIPO",
            "label": "_status",
            "offset": 0,
            "slot": "152",
            "type": "t_uint256"
          },
          {
            "astId": 560,
            "contract": "contracts/REITIPO.sol:REITIPO",
            "label": "__gap",
            "offset": 0,
            "slot": "153",
            "type": "t_array(t_uint256)49_storage"
          },
          {
            "astId": 1466,
            "contract": "contracts/REITIPO.sol:REITIPO",
            "label": "_nft",
            "offset": 0,
            "slot": "202",
            "type": "t_contract(IREITTradable)1073"
          },
          {
            "astId": 1472,
            "contract": "contracts/REITIPO.sol:REITIPO",
            "label": "_pendingBalances",
            "offset": 0,
            "slot": "203",
            "type": "t_mapping(t_uint256,t_mapping(t_address,t_uint256))"
          },
          {
            "astId": 1477,
            "contract": "contracts/REITIPO.sol:REITIPO",
            "label": "_payableToken",
            "offset": 0,
            "slot": "204",
            "type": "t_mapping(t_string_memory_ptr,t_contract(IERC20)77)"
          }
        ],
        "types": {
          "t_address": {
            "encoding": "inplace",
            "label": "address",
            "numberOfBytes": "20"
          },
          "t_array(t_uint256)49_storage": {
            "base": "t_uint256",
            "encoding": "inplace",
            "label": "uint256[49]",
            "numberOfBytes": "1568"
          },
          "t_array(t_uint256)50_storage": {
            "base": "t_uint256",
            "encoding": "inplace",
            "label": "uint256[50]",
            "numberOfBytes": "1600"
          },
          "t_bool": {
            "encoding": "inplace",
            "label": "bool",
            "numberOfBytes": "1"
          },
          "t_contract(IERC20)77": {
            "encoding": "inplace",
            "label": "contract IERC20",
            "numberOfBytes": "20"
          },
          "t_contract(IREITTradable)1073": {
            "encoding": "inplace",
            "label": "contract IREITTradable",
            "numberOfBytes": "20"
          },
          "t_mapping(t_address,t_bool)": {
            "encoding": "mapping",
            "key": "t_address",
            "label": "mapping(address => bool)",
            "numberOfBytes": "32",
            "value": "t_bool"
          },
          "t_mapping(t_address,t_uint256)": {
            "encoding": "mapping",
            "key": "t_address",
            "label": "mapping(address => uint256)",
            "numberOfBytes": "32",
            "value": "t_uint256"
          },
          "t_mapping(t_string_memory_ptr,t_contract(IERC20)77)": {
            "encoding": "mapping",
            "key": "t_string_memory_ptr",
            "label": "mapping(string => contract IERC20)",
            "numberOfBytes": "32",
            "value": "t_contract(IERC20)77"
          },
          "t_mapping(t_uint256,t_mapping(t_address,t_uint256))": {
            "encoding": "mapping",
            "key": "t_uint256",
            "label": "mapping(uint256 => mapping(address => uint256))",
            "numberOfBytes": "32",
            "value": "t_mapping(t_address,t_uint256)"
          },
          "t_string_memory_ptr": {
            "encoding": "bytes",
            "label": "string",
            "numberOfBytes": "32"
          },
          "t_uint256": {
            "encoding": "inplace",
            "label": "uint256",
            "numberOfBytes": "32"
          },
          "t_uint8": {
            "encoding": "inplace",
            "label": "uint8",
            "numberOfBytes": "1"
          }
        }
      }
    }
  }
}