{
  "contracts/MockPrivateSaleContract.sol": {
    "PrivateSaleContract": {
      "abi": [
        {
          "inputs": [
            {
              "internalType": "address",
              "name": "token_",
              "type": "address"
            },
            {
              "internalType": "uint256",
              "name": "_openingTime",
              "type": "uint256"
            },
            {
              "internalType": "uint256",
              "name": "_closingTime",
              "type": "uint256"
            }
          ],
          "stateMutability": "nonpayable",
          "type": "constructor"
        },
        {
          "anonymous": false,
          "inputs": [
            {
              "indexed": true,
              "internalType": "address",
              "name": "previousOwner",
              "type": "address"
            },
            {
              "indexed": true,
              "internalType": "address",
              "name": "newOwner",
              "type": "address"
            }
          ],
          "name": "OwnershipTransferred",
          "type": "event"
        },
        {
          "anonymous": false,
          "inputs": [
            {
              "indexed": false,
              "internalType": "address",
              "name": "beneficiary",
              "type": "address"
            },
            {
              "indexed": false,
              "internalType": "uint256",
              "name": "amount",
              "type": "uint256"
            },
            {
              "indexed": false,
              "internalType": "uint256",
              "name": "purchasedAmount",
              "type": "uint256"
            }
          ],
          "name": "PurchasedWithStable",
          "type": "event"
        },
        {
          "anonymous": false,
          "inputs": [
            {
              "indexed": false,
              "internalType": "address",
              "name": "beneficiary",
              "type": "address"
            },
            {
              "indexed": false,
              "internalType": "uint256",
              "name": "amount",
              "type": "uint256"
            }
          ],
          "name": "Released",
          "type": "event"
        },
        {
          "anonymous": false,
          "inputs": [
            {
              "indexed": false,
              "internalType": "address",
              "name": "beneficiary",
              "type": "address"
            },
            {
              "indexed": false,
              "internalType": "address",
              "name": "newBeneficiary",
              "type": "address"
            }
          ],
          "name": "VestingTransferred",
          "type": "event"
        },
        {
          "stateMutability": "payable",
          "type": "fallback"
        },
        {
          "inputs": [],
          "name": "DECIMALS",
          "outputs": [
            {
              "internalType": "uint256",
              "name": "",
              "type": "uint256"
            }
          ],
          "stateMutability": "view",
          "type": "function"
        },
        {
          "inputs": [],
          "name": "VESTING_CLIFF",
          "outputs": [
            {
              "internalType": "uint256",
              "name": "",
              "type": "uint256"
            }
          ],
          "stateMutability": "view",
          "type": "function"
        },
        {
          "inputs": [],
          "name": "VESTING_DURATION",
          "outputs": [
            {
              "internalType": "uint256",
              "name": "",
              "type": "uint256"
            }
          ],
          "stateMutability": "view",
          "type": "function"
        },
        {
          "inputs": [],
          "name": "VESTING_SLICES_TOTAL",
          "outputs": [
            {
              "internalType": "uint256",
              "name": "",
              "type": "uint256"
            }
          ],
          "stateMutability": "view",
          "type": "function"
        },
        {
          "inputs": [],
          "name": "VESTING_SLICE_PERIOD",
          "outputs": [
            {
              "internalType": "uint256",
              "name": "",
              "type": "uint256"
            }
          ],
          "stateMutability": "view",
          "type": "function"
        },
        {
          "inputs": [],
          "name": "VESTING_TOTAL_DURATION",
          "outputs": [
            {
              "internalType": "uint256",
              "name": "",
              "type": "uint256"
            }
          ],
          "stateMutability": "view",
          "type": "function"
        },
        {
          "inputs": [
            {
              "internalType": "address[]",
              "name": "accounts",
              "type": "address[]"
            }
          ],
          "name": "addToWhitelisted",
          "outputs": [],
          "stateMutability": "nonpayable",
          "type": "function"
        },
        {
          "inputs": [
            {
              "internalType": "uint256",
              "name": "_openingTime",
              "type": "uint256"
            },
            {
              "internalType": "uint256",
              "name": "_closingTime",
              "type": "uint256"
            }
          ],
          "name": "adjustSaleTime",
          "outputs": [],
          "stateMutability": "nonpayable",
          "type": "function"
        },
        {
          "inputs": [
            {
              "internalType": "string",
              "name": "name",
              "type": "string"
            },
            {
              "internalType": "address",
              "name": "token",
              "type": "address"
            }
          ],
          "name": "allowStableCoin",
          "outputs": [],
          "stateMutability": "nonpayable",
          "type": "function"
        },
        {
          "inputs": [
            {
              "internalType": "string",
              "name": "name",
              "type": "string"
            },
            {
              "internalType": "uint256",
              "name": "package",
              "type": "uint256"
            }
          ],
          "name": "buyPackageWithStable",
          "outputs": [],
          "stateMutability": "nonpayable",
          "type": "function"
        },
        {
          "inputs": [],
          "name": "closingTime",
          "outputs": [
            {
              "internalType": "uint256",
              "name": "",
              "type": "uint256"
            }
          ],
          "stateMutability": "view",
          "type": "function"
        },
        {
          "inputs": [],
          "name": "computeReleasableAmount",
          "outputs": [
            {
              "internalType": "uint256",
              "name": "",
              "type": "uint256"
            }
          ],
          "stateMutability": "view",
          "type": "function"
        },
        {
          "inputs": [
            {
              "internalType": "address",
              "name": "beneficiary",
              "type": "address"
            },
            {
              "internalType": "uint256",
              "name": "currentTime",
              "type": "uint256"
            }
          ],
          "name": "computeReleasableAmountAt",
          "outputs": [
            {
              "internalType": "uint256",
              "name": "",
              "type": "uint256"
            }
          ],
          "stateMutability": "view",
          "type": "function"
        },
        {
          "inputs": [
            {
              "internalType": "address",
              "name": "_beneficiary",
              "type": "address"
            },
            {
              "internalType": "uint256",
              "name": "_amount",
              "type": "uint256"
            }
          ],
          "name": "createVestingSchedule",
          "outputs": [],
          "stateMutability": "nonpayable",
          "type": "function"
        },
        {
          "inputs": [],
          "name": "getToken",
          "outputs": [
            {
              "internalType": "address",
              "name": "",
              "type": "address"
            }
          ],
          "stateMutability": "view",
          "type": "function"
        },
        {
          "inputs": [],
          "name": "getVestingSchedule",
          "outputs": [
            {
              "components": [
                {
                  "internalType": "bool",
                  "name": "initialized",
                  "type": "bool"
                },
                {
                  "internalType": "address",
                  "name": "beneficiary",
                  "type": "address"
                },
                {
                  "internalType": "uint256",
                  "name": "amountTotal",
                  "type": "uint256"
                },
                {
                  "internalType": "uint256",
                  "name": "released",
                  "type": "uint256"
                }
              ],
              "internalType": "struct PrivateSaleContract.VestingSchedule",
              "name": "",
              "type": "tuple"
            }
          ],
          "stateMutability": "view",
          "type": "function"
        },
        {
          "inputs": [],
          "name": "getVestingSchedulesTotalAmount",
          "outputs": [
            {
              "internalType": "uint256",
              "name": "",
              "type": "uint256"
            }
          ],
          "stateMutability": "view",
          "type": "function"
        },
        {
          "inputs": [],
          "name": "getWithdrawableAmount",
          "outputs": [
            {
              "internalType": "uint256",
              "name": "",
              "type": "uint256"
            }
          ],
          "stateMutability": "view",
          "type": "function"
        },
        {
          "inputs": [],
          "name": "hasClosed",
          "outputs": [
            {
              "internalType": "bool",
              "name": "",
              "type": "bool"
            }
          ],
          "stateMutability": "view",
          "type": "function"
        },
        {
          "inputs": [
            {
              "internalType": "address",
              "name": "account",
              "type": "address"
            }
          ],
          "name": "isWhitelisted",
          "outputs": [
            {
              "internalType": "bool",
              "name": "",
              "type": "bool"
            }
          ],
          "stateMutability": "view",
          "type": "function"
        },
        {
          "inputs": [],
          "name": "openingTime",
          "outputs": [
            {
              "internalType": "uint256",
              "name": "",
              "type": "uint256"
            }
          ],
          "stateMutability": "view",
          "type": "function"
        },
        {
          "inputs": [],
          "name": "owner",
          "outputs": [
            {
              "internalType": "address",
              "name": "",
              "type": "address"
            }
          ],
          "stateMutability": "view",
          "type": "function"
        },
        {
          "inputs": [
            {
              "internalType": "address",
              "name": "beneficiary",
              "type": "address"
            }
          ],
          "name": "release",
          "outputs": [],
          "stateMutability": "nonpayable",
          "type": "function"
        },
        {
          "inputs": [
            {
              "internalType": "address[]",
              "name": "accounts",
              "type": "address[]"
            }
          ],
          "name": "removeWhitelisted",
          "outputs": [],
          "stateMutability": "nonpayable",
          "type": "function"
        },
        {
          "inputs": [],
          "name": "renounceOwnership",
          "outputs": [],
          "stateMutability": "nonpayable",
          "type": "function"
        },
        {
          "inputs": [
            {
              "internalType": "uint256",
              "name": "rate_",
              "type": "uint256"
            }
          ],
          "name": "setTokenUsdRate",
          "outputs": [],
          "stateMutability": "nonpayable",
          "type": "function"
        },
        {
          "inputs": [],
          "name": "tokenUsdRate",
          "outputs": [
            {
              "internalType": "uint256",
              "name": "",
              "type": "uint256"
            }
          ],
          "stateMutability": "view",
          "type": "function"
        },
        {
          "inputs": [],
          "name": "totalTokenPurchased",
          "outputs": [
            {
              "internalType": "uint256",
              "name": "",
              "type": "uint256"
            }
          ],
          "stateMutability": "view",
          "type": "function"
        },
        {
          "inputs": [],
          "name": "totalTokenReleased",
          "outputs": [
            {
              "internalType": "uint256",
              "name": "",
              "type": "uint256"
            }
          ],
          "stateMutability": "view",
          "type": "function"
        },
        {
          "inputs": [
            {
              "internalType": "address",
              "name": "newOwner",
              "type": "address"
            }
          ],
          "name": "transferOwnership",
          "outputs": [],
          "stateMutability": "nonpayable",
          "type": "function"
        },
        {
          "inputs": [
            {
              "internalType": "address",
              "name": "beneficiary",
              "type": "address"
            },
            {
              "internalType": "address",
              "name": "newBeneficiary",
              "type": "address"
            }
          ],
          "name": "transferVestingBeneficiary",
          "outputs": [],
          "stateMutability": "nonpayable",
          "type": "function"
        },
        {
          "inputs": [
            {
              "internalType": "uint256",
              "name": "amount",
              "type": "uint256"
            }
          ],
          "name": "withdraw",
          "outputs": [],
          "stateMutability": "nonpayable",
          "type": "function"
        },
        {
          "inputs": [],
          "name": "withdrawRemainedToken",
          "outputs": [],
          "stateMutability": "nonpayable",
          "type": "function"
        },
        {
          "inputs": [],
          "name": "withdrawSaleFunds",
          "outputs": [],
          "stateMutability": "nonpayable",
          "type": "function"
        },
        {
          "inputs": [
            {
              "internalType": "string",
              "name": "name",
              "type": "string"
            }
          ],
          "name": "withdrawStableToken",
          "outputs": [],
          "stateMutability": "nonpayable",
          "type": "function"
        },
        {
          "stateMutability": "payable",
          "type": "receive"
        }
      ],
      "evm": {
        "bytecode": {
          "linkReferences": {},
          "object": "61016060405269010f0cf064dd5920000060e090815269021e19e0c9bab24000006101005269043c33c19375648000006101205269065a4da25d3016c00000610140526200005290600790600462000269565b503480156200006057600080fd5b50604051620029eb380380620029eb8339810160408190526200008391620002db565b8181620000903362000204565b6001805581620000e75760405162461bcd60e51b815260206004820152601a60248201527f4f70656e696e672074696d65206d7573742062652076616c696400000000000060448201526064015b60405180910390fd5b60008111620001395760405162461bcd60e51b815260206004820152601a60248201527f436c6f73696e672074696d65206d7573742062652076616c69640000000000006044820152606401620000de565b6002919091556003556001600160a01b0383166200015657600080fd5b60646200016d670de0b6b3a764000060056200035a565b62000179919062000339565b600655606083901b6001600160601b031916608052620001aa816301b9a68062000254602090811b62001d0017901c565b60a052620001f7620001c56301b9a68063039442806200037c565b620001e36301b9a680846200025460201b62001d001790919060201c565b6200025460201b62001d001790919060201c565b60c05250620003ac915050565b600080546001600160a01b038381166001600160a01b0319831681178455604051919092169283917f8be0079c531659141344cd1fd0a4f28419497f9722a3daafe3b4186f6b6457e09190a35050565b60006200026282846200031e565b9392505050565b828054828255906000526020600020908101928215620002b2579160200282015b82811115620002b257825182906001600160501b03169055916020019190600101906200028a565b50620002c0929150620002c4565b5090565b5b80821115620002c05760008155600101620002c5565b600080600060608486031215620002f0578283fd5b83516001600160a01b038116811462000307578384fd5b602085015160409095015190969495509392505050565b6000821982111562000334576200033462000396565b500190565b6000826200035557634e487b7160e01b81526012600452602481fd5b500490565b600081600019048311821515161562000377576200037762000396565b500290565b60008282101562000391576200039162000396565b500390565b634e487b7160e01b600052601160045260246000fd5b60805160601c60a05160c0516125cd6200041e6000396000818161194d0152611d490152600081816110aa015281816119190152818161199e01528181611d180152611d90015260008181610290015281816108e1015281816109d001528181610fb90152611ada01526125cd6000f3fe6080604052600436106101f05760003560e01c806363f3dbe51161010c5780639c845b9b1161009a578063b9a6ef401161006c578063b9a6ef40146105fc578063bbd50dab14610611578063d4f8b27b14610626578063f2fde38b1461063b578063fd1518811461065b57005b80639c845b9b1461058f578063a3194f73146105af578063a889011f146105cf578063b7a8807c146105e657005b80638da5cb5b116100de5780638da5cb5b1461050657806390be10cc1461052457806396866c13146105395780639b080dd7146105595780639c71a33a1461056f57005b806363f3dbe5146104a4578063715018a6146104bc57806387322816146104d157806389a7d3fb146104f157005b806331a6cc8d11610189578063419544a01161015b578063419544a01461042457806346f3e08e1461044457806348deb471146104645780634b6753bc146104795780634cfc4d301461048f57005b806331a6cc8d146103285780633a05f0d8146103485780633af32abf146103ec5780633b8d3fc51461040c57005b806321df0da7116101c257806321df0da71461028157806324b558f2146102c85780632e0f2625146102ec5780632e1a7d4d1461030857005b80630486a328146101f95780631515bc2b1461021957806316e1cc7a14610241578063191655871461026157005b366101f757005b005b34801561020557600080fd5b506101f7610214366004612360565b610671565b34801561022557600080fd5b5060035442115b60405190151581526020015b60405180910390f35b34801561024d57600080fd5b506101f761025c366004612390565b6106a9565b34801561026d57600080fd5b506101f761027c36600461217f565b6106c8565b34801561028d57600080fd5b507f00000000000000000000000000000000000000000000000000000000000000005b6040516001600160a01b039091168152602001610238565b3480156102d457600080fd5b506102de60065481565b604051908152602001610238565b3480156102f857600080fd5b506102de670de0b6b3a764000081565b34801561031457600080fd5b506101f7610323366004612360565b61095f565b34801561033457600080fd5b506101f76103433660046122c4565b6109fe565b34801561035457600080fd5b506040805160808082018352600080835260208084018290528385018290526060938401829052338252600a81529084902084518084018652815460ff811615158083526101009091046001600160a01b039081168386019081526001850154848a01908152600290950154938801938452885192835251169381019390935290519482019490945292519183019190915201610238565b3480156103f857600080fd5b5061022c61040736600461217f565b610a6f565b34801561041857600080fd5b506102de630394428081565b34801561043057600080fd5b506101f761043f3660046121cb565b610aa3565b34801561045057600080fd5b506101f761045f366004612284565b610d83565b34801561047057600080fd5b50600b546102de565b34801561048557600080fd5b506102de60035481565b34801561049b57600080fd5b506102de610e78565b3480156104b057600080fd5b506102de6301b9a68081565b3480156104c857600080fd5b506101f7610e8d565b3480156104dd57600080fd5b506101f76104ec3660046121f4565b610ec3565b3480156104fd57600080fd5b506102de610f72565b34801561051257600080fd5b506000546001600160a01b03166102b0565b34801561053057600080fd5b506102de610f92565b34801561054557600080fd5b506101f7610554366004612199565b61103e565b34801561056557600080fd5b506102de60055481565b34801561057b57600080fd5b506101f761058a3660046121f4565b611399565b34801561059b57600080fd5b506101f76105aa366004612316565b611443565b3480156105bb57600080fd5b506102de6105ca3660046121cb565b6117fb565b3480156105db57600080fd5b506102de62278d0081565b3480156105f257600080fd5b506102de60025481565b34801561060857600080fd5b506101f7611a20565b34801561061d57600080fd5b506101f7611b01565b34801561063257600080fd5b506102de611bd1565b34801561064757600080fd5b506101f761065636600461217f565b611c68565b34801561066757600080fd5b506102de60045481565b6000546001600160a01b031633146106a45760405162461bcd60e51b815260040161069b90612460565b60405180910390fd5b600655565b428110156106b657600080fd5b81156106c25760028290555b60035550565b600260015414156106eb5760405162461bcd60e51b815260040161069b90612495565b600260019081556001600160a01b0382166000908152600a6020526040902054829160ff9091161515146107315760405162461bcd60e51b815260040161069b90612410565b6001600160a01b0382166000818152600a602052604081209133149061075f6000546001600160a01b031690565b6001600160a01b0316336001600160a01b0316149050818061077e5750805b6108025760405162461bcd60e51b815260206004820152604960248201527f5072697661746553616c65436f6e74726163743a206f6e6c792062656e65666960448201527f636961727920616e64206f776e65722063616e2072656c656173652076657374606482015268656420746f6b656e7360b81b608482015260a40161069b565b60408051608081018252845460ff81161515825261010090046001600160a01b031660208201526001850154918101919091526002840154606082015260009061084b90611d13565b9050600081116108af5760405162461bcd60e51b815260206004820152602960248201527f5072697661746553616c65436f6e74726163743a206e6f20746f6b656e732076604482015268195cdd1959081e595d60ba1b606482015260840161069b565b60028401546108be9082611d00565b6002850155600b546108d09082611e0c565b600b55856109086001600160a01b037f0000000000000000000000000000000000000000000000000000000000000000168284611e18565b6005546109159083611d00565b60055560408051338152602081018490527fb21fb52d5749b80f3182f8c6992236b5e5576681880914484d7f4c9b062e619e91015b60405180910390a15050600180555050505050565b600260015414156109825760405162461bcd60e51b815260040161069b90612495565b60026001556000546001600160a01b031633146109b15760405162461bcd60e51b815260040161069b90612460565b6109f76109c66000546001600160a01b031690565b6001600160a01b037f0000000000000000000000000000000000000000000000000000000000000000169083611e18565b5060018055565b6000546001600160a01b03163314610a285760405162461bcd60e51b815260040161069b90612460565b8060088484604051610a3b9291906123cd565b90815260405190819003602001902080546001600160a01b03929092166001600160a01b0319909216919091179055505050565b60006001600160a01b038216610a8457600080fd5b506001600160a01b031660009081526009602052604090205460ff1690565b6000546001600160a01b03163314610acd5760405162461bcd60e51b815260040161069b90612460565b80306001600160a01b03166390be10cc6040518163ffffffff1660e01b815260040160206040518083038186803b158015610b0757600080fd5b505afa158015610b1b573d6000803e3d6000fd5b505050506040513d601f19601f82011682018060405250810190610b3f9190612378565b1015610bcd5760405162461bcd60e51b815260206004820152605160248201527f5072697661746553616c65436f6e74726163743a2063616e6e6f74206372656160448201527f74652076657374696e67207363686564756c652062656361757365206e6f742060648201527073756666696369656e7420746f6b656e7360781b608482015260a40161069b565b60008111610c2d5760405162461bcd60e51b815260206004820152602760248201527f5072697661746553616c65436f6e74726163743a20616d6f756e74206d7573746044820152660206265203e20360cc1b606482015260840161069b565b6001600160a01b0382166000908152600a602052604090205460ff16151560011415610c9a576001600160a01b0382166000908152600a6020526040902060010154610c799082611d00565b6001600160a01b0383166000908152600a6020526040902060010155610d15565b6040805160808101825260018082526001600160a01b038581166020808501828152858701888152600060608801818152948152600a909352969091209451855491516001600160a81b0319909216901515610100600160a81b03191617610100919093160291909117835592519082015590516002909101555b600b54610d229082611d00565b600b55600454610d329082611d00565b600455604080516001600160a01b0384168152600060208201529081018290527f06d7c513d5f4ab303351ed7f68da41871b2d39c7093bb2a94f5d5a3ba63a69289060600160405180910390a15050565b6000546001600160a01b03163314610dad5760405162461bcd60e51b815260040161069b90612460565b600060088383604051610dc19291906123cd565b908152604051908190036020018120546370a0823160e01b82523060048301526001600160a01b0316915060009082906370a082319060240160206040518083038186803b158015610e1257600080fd5b505afa158015610e26573d6000803e3d6000fd5b505050506040513d601f19601f82011682018060405250810190610e4a9190612378565b9050610e72610e616000546001600160a01b031690565b6001600160a01b0384169083611e18565b50505050565b610e8a6301b9a6806303944280612523565b81565b6000546001600160a01b03163314610eb75760405162461bcd60e51b815260040161069b90612460565b610ec16000611e6a565b565b6000546001600160a01b03163314610eed5760405162461bcd60e51b815260040161069b90612460565b60005b81811015610f6d57600060096000858585818110610f1e57634e487b7160e01b600052603260045260246000fd5b9050602002016020810190610f33919061217f565b6001600160a01b031681526020810191909152604001600020805460ff191691151591909117905580610f6581612566565b915050610ef0565b505050565b62278d00610f886301b9a6806303944280612523565b610e8a91906124e4565b600b546040516370a0823160e01b8152306004820152600091611039916001600160a01b037f000000000000000000000000000000000000000000000000000000000000000016906370a082319060240160206040518083038186803b158015610ffb57600080fd5b505afa15801561100f573d6000803e3d6000fd5b505050506040513d601f19601f820116820180604052508101906110339190612378565b90611e0c565b905090565b600260015414156110615760405162461bcd60e51b815260040161069b90612495565b600260019081556001600160a01b0383166000908152600a6020526040902054839160ff9091161515146110a75760405162461bcd60e51b815260040161069b90612410565b427f000000000000000000000000000000000000000000000000000000000000000081106111535760405162461bcd60e51b815260206004820152604d60248201527f5072697661746553616c65436f6e74726163743a2043616e6e6f74207472616e60448201527f736665722062656e6566696369617279207768656e2076657374696e6720616c60648201526c1c9958591e481cdd185c9d1959609a1b608482015260a40161069b565b6000546001600160a01b03163314806111c35760405162461bcd60e51b815260206004820152602c60248201527f5072697661746553616c65436f6e74726163743a206f6e6c79206f776e65722060448201526b31b0b7103a3930b739b332b960a11b606482015260840161069b565b6001600160a01b0385166000908152600a60205260408120600281015460018201549192916111f191611e0c565b90506000811161125b5760405162461bcd60e51b815260206004820152602f60248201527f5072697661746553616c65436f6e74726163743a206e6f206d6f726520746f6b60448201526e32b739903a37903a3930b739b332b960891b606482015260840161069b565b600182015461126a9082611e0c565b6001808401919091556001600160a01b0387166000908152600a602052604090205460ff16151514156112de576001600160a01b0386166000908152600a60205260409020600101546112bd9082611d00565b6001600160a01b0387166000908152600a6020526040902060010155611359565b6040805160808101825260018082526001600160a01b038981166020808501828152858701888152600060608801818152948152600a909352969091209451855491516001600160a81b0319909216901515610100600160a81b03191617610100919093160291909117835592519082015590516002909101555b604080516001600160a01b03808a168252881660208201527ffbe993c87b521dceb251de21f65269f508a499c8545576cc8c1265d423da2b1c910161094a565b6000546001600160a01b031633146113c35760405162461bcd60e51b815260040161069b90612460565b60005b81811015610f6d576001600960008585858181106113f457634e487b7160e01b600052603260045260246000fd5b9050602002016020810190611409919061217f565b6001600160a01b031681526020810191909152604001600020805460ff19169115159190911790558061143b81612566565b9150506113c6565b60006007828154811061146657634e487b7160e01b600052603260045260246000fd5b90600052602060002001549050600081116114d35760405162461bcd60e51b815260206004820152602760248201527f5072697661746553616c65436f6e74726163743a20696e76616c6964207061636044820152661ad859d9481a5960ca1b606482015260840161069b565b6000600885856040516114e79291906123cd565b908152604051908190036020019020546006546001600160a01b0390911691506000906115269061152085670de0b6b3a7640000611eba565b90611ec6565b905080306001600160a01b03166390be10cc6040518163ffffffff1660e01b815260040160206040518083038186803b15801561156257600080fd5b505afa158015611576573d6000803e3d6000fd5b505050506040513d601f19601f8201168201806040525081019061159a9190612378565b10156115fd5760405162461bcd60e51b815260206004820152602c60248201527f5072697661746553616c65436f6e74726163743a206e6f7420656e6f7567682060448201526b66756e647320746f2062757960a01b606482015260840161069b565b6040516323b872dd60e01b8152336004820152306024820152604481018490526001600160a01b038316906323b872dd90606401602060405180830381600087803b15801561164b57600080fd5b505af115801561165f573d6000803e3d6000fd5b505050506040513d601f19601f820116820180604052508101906116839190612264565b6116c85760405162461bcd60e51b815260206004820152601660248201527510dbdd5b19081b9bdd081d1c985b9cd9995c881554d160521b604482015260640161069b565b336000908152600a602052604090205460ff1615156001141561171a57336000908152600a60205260409020600101546117029082611d00565b336000908152600a6020526040902060010155611792565b604080516080810182526001808252336020808401828152848601878152600060608701818152948152600a909352959091209351845491516001600160a81b0319909216901515610100600160a81b031916176101006001600160a01b039092169190910217835592519082015590516002909101555b600b5461179f9082611d00565b600b556004546117af9082611d00565b60045560408051338152602081018590529081018290527f06d7c513d5f4ab303351ed7f68da41871b2d39c7093bb2a94f5d5a3ba63a69289060600160405180910390a1505050505050565b6001600160a01b0382166000908152600a6020526040812054839060ff16151560011461183a5760405162461bcd60e51b815260040161069b90612410565b336001600160a01b03851614600061185a6000546001600160a01b031690565b6001600160a01b0316336001600160a01b031614905081806118795750805b6118ff5760405162461bcd60e51b815260206004820152604b60248201527f5072697661746553616c65436f6e74726163743a206f6e6c792062656e65666960448201527f636961727920616e64206f776e65722063616e2071756572792072656c65617360648201526a18589b1948185b5bdd5b9d60aa1b608482015260a40161069b565b6001600160a01b0386166000908152600a602052604090207f000000000000000000000000000000000000000000000000000000000000000086101561194b5760009450505050611a19565b7f0000000000000000000000000000000000000000000000000000000000000000861061198f576002810154600182015461198591611e0c565b9450505050611a19565b60006119c262278d00611520897f0000000000000000000000000000000000000000000000000000000000000000611e0c565b905060006119f862278d006119df6301b9a6806303944280612523565b6119e991906124e4565b60018501546115209085611eba565b9050611a11836002015482611e0c90919063ffffffff16565b965050505050505b5092915050565b6000546001600160a01b03163314611a4a5760405162461bcd60e51b815260040161069b90612460565b610ec1611a5f6000546001600160a01b031690565b306001600160a01b03166390be10cc6040518163ffffffff1660e01b815260040160206040518083038186803b158015611a9857600080fd5b505afa158015611aac573d6000803e3d6000fd5b505050506040513d601f19601f82011682018060405250810190611ad09190612378565b6001600160a01b037f0000000000000000000000000000000000000000000000000000000000000000169190611e18565b6000546001600160a01b03163314611b2b5760405162461bcd60e51b815260040161069b90612460565b60004711611b945760405162461bcd60e51b815260206004820152603060248201527f5072697661746553616c65436f6e74726163743a20436f6e747261637427732060448201526f62616c616e636520697320656d70747960801b606482015260840161069b565b600080546040516001600160a01b03909116914780156108fc02929091818181858888f19350505050158015611bce573d6000803e3d6000fd5b50565b336000818152600a602052604081205490919060ff161515600114611c085760405162461bcd60e51b815260040161069b90612410565b336000908152600a60209081526040918290208251608081018452815460ff81161515825261010090046001600160a01b03169281019290925260018101549282019290925260028201546060820152611c6190611d13565b9250505090565b6000546001600160a01b03163314611c925760405162461bcd60e51b815260040161069b90612460565b6001600160a01b038116611cf75760405162461bcd60e51b815260206004820152602660248201527f4f776e61626c653a206e6577206f776e657220697320746865207a65726f206160448201526564647265737360d01b606482015260840161069b565b611bce81611e6a565b6000611d0c82846124cc565b9392505050565b6000427f0000000000000000000000000000000000000000000000000000000000000000811015611d475750600092915050565b7f00000000000000000000000000000000000000000000000000000000000000008110611d815760608301516040840151611d0c91611e0c565b6000611db462278d00611520847f0000000000000000000000000000000000000000000000000000000000000000611e0c565b90506000611dea62278d00611dd16301b9a6806303944280612523565b611ddb91906124e4565b60408701516115209085611eba565b9050611e03856060015182611e0c90919063ffffffff16565b95945050505050565b6000611d0c8284612523565b604080516001600160a01b038416602482015260448082018490528251808303909101815260649091019091526020810180516001600160e01b031663a9059cbb60e01b179052610f6d908490611ed2565b600080546001600160a01b038381166001600160a01b0319831681178455604051919092169283917f8be0079c531659141344cd1fd0a4f28419497f9722a3daafe3b4186f6b6457e09190a35050565b6000611d0c8284612504565b6000611d0c82846124e4565b6000611f27826040518060400160405280602081526020017f5361666545524332303a206c6f772d6c6576656c2063616c6c206661696c6564815250856001600160a01b0316611fa49092919063ffffffff16565b805190915015610f6d5780806020019051810190611f459190612264565b610f6d5760405162461bcd60e51b815260206004820152602a60248201527f5361666545524332303a204552433230206f7065726174696f6e20646964206e6044820152691bdd081cdd58d8d9595960b21b606482015260840161069b565b6060611fb38484600085611fbb565b949350505050565b60608247101561201c5760405162461bcd60e51b815260206004820152602660248201527f416464726573733a20696e73756666696369656e742062616c616e636520666f6044820152651c8818d85b1b60d21b606482015260840161069b565b843b61206a5760405162461bcd60e51b815260206004820152601d60248201527f416464726573733a2063616c6c20746f206e6f6e2d636f6e7472616374000000604482015260640161069b565b600080866001600160a01b0316858760405161208691906123b1565b60006040518083038185875af1925050503d80600081146120c3576040519150601f19603f3d011682016040523d82523d6000602084013e6120c8565b606091505b50915091506120d88282866120e3565b979650505050505050565b606083156120f2575081611d0c565b8251156121025782518084602001fd5b8160405162461bcd60e51b815260040161069b91906123dd565b80356001600160a01b038116811461213357600080fd5b919050565b60008083601f840112612149578182fd5b50813567ffffffffffffffff811115612160578182fd5b60208301915083602082850101111561217857600080fd5b9250929050565b600060208284031215612190578081fd5b611d0c8261211c565b600080604083850312156121ab578081fd5b6121b48361211c565b91506121c26020840161211c565b90509250929050565b600080604083850312156121dd578182fd5b6121e68361211c565b946020939093013593505050565b60008060208385031215612206578182fd5b823567ffffffffffffffff8082111561221d578384fd5b818501915085601f830112612230578384fd5b81358181111561223e578485fd5b8660208260051b8501011115612252578485fd5b60209290920196919550909350505050565b600060208284031215612275578081fd5b81518015158114611d0c578182fd5b60008060208385031215612296578182fd5b823567ffffffffffffffff8111156122ac578283fd5b6122b885828601612138565b90969095509350505050565b6000806000604084860312156122d8578081fd5b833567ffffffffffffffff8111156122ee578182fd5b6122fa86828701612138565b909450925061230d90506020850161211c565b90509250925092565b60008060006040848603121561232a578283fd5b833567ffffffffffffffff811115612340578384fd5b61234c86828701612138565b909790965060209590950135949350505050565b600060208284031215612371578081fd5b5035919050565b600060208284031215612389578081fd5b5051919050565b600080604083850312156123a2578182fd5b50508035926020909101359150565b600082516123c381846020870161253a565b9190910192915050565b8183823760009101908152919050565b60208152600082518060208401526123fc81604085016020870161253a565b601f01601f19169190910160400192915050565b60208082526030908201527f5072697661746553616c65436f6e74726163743a2056657374696e672073636860408201526f19591d5b19481b5d5cdd08195e1a5cdd60821b606082015260800190565b6020808252818101527f4f776e61626c653a2063616c6c6572206973206e6f7420746865206f776e6572604082015260600190565b6020808252601f908201527f5265656e7472616e637947756172643a207265656e7472616e742063616c6c00604082015260600190565b600082198211156124df576124df612581565b500190565b6000826124ff57634e487b7160e01b81526012600452602481fd5b500490565b600081600019048311821515161561251e5761251e612581565b500290565b60008282101561253557612535612581565b500390565b60005b8381101561255557818101518382015260200161253d565b83811115610e725750506000910152565b600060001982141561257a5761257a612581565b5060010190565b634e487b7160e01b600052601160045260246000fdfea26469706673582212203ccc264e2ba88ad48768d2d0a7e0d46ba359fd3f38640d0c482c47eda3c450be64736f6c63430008040033",
          "opcodes": "PUSH2 0x160 PUSH1 0x40 MSTORE PUSH10 0x10F0CF064DD59200000 PUSH1 0xE0 SWAP1 DUP2 MSTORE PUSH10 0x21E19E0C9BAB2400000 PUSH2 0x100 MSTORE PUSH10 0x43C33C1937564800000 PUSH2 0x120 MSTORE PUSH10 0x65A4DA25D3016C00000 PUSH2 0x140 MSTORE PUSH3 0x52 SWAP1 PUSH1 0x7 SWAP1 PUSH1 0x4 PUSH3 0x269 JUMP JUMPDEST POP CALLVALUE DUP1 ISZERO PUSH3 0x60 JUMPI PUSH1 0x0 DUP1 REVERT JUMPDEST POP PUSH1 0x40 MLOAD PUSH3 0x29EB CODESIZE SUB DUP1 PUSH3 0x29EB DUP4 CODECOPY DUP2 ADD PUSH1 0x40 DUP2 SWAP1 MSTORE PUSH3 0x83 SWAP2 PUSH3 0x2DB JUMP JUMPDEST DUP2 DUP2 PUSH3 0x90 CALLER PUSH3 0x204 JUMP JUMPDEST PUSH1 0x1 DUP1 SSTORE DUP2 PUSH3 0xE7 JUMPI PUSH1 0x40 MLOAD PUSH3 0x461BCD PUSH1 0xE5 SHL DUP2 MSTORE PUSH1 0x20 PUSH1 0x4 DUP3 ADD MSTORE PUSH1 0x1A PUSH1 0x24 DUP3 ADD MSTORE PUSH32 0x4F70656E696E672074696D65206D7573742062652076616C6964000000000000 PUSH1 0x44 DUP3 ADD MSTORE PUSH1 0x64 ADD JUMPDEST PUSH1 0x40 MLOAD DUP1 SWAP2 SUB SWAP1 REVERT JUMPDEST PUSH1 0x0 DUP2 GT PUSH3 0x139 JUMPI PUSH1 0x40 MLOAD PUSH3 0x461BCD PUSH1 0xE5 SHL DUP2 MSTORE PUSH1 0x20 PUSH1 0x4 DUP3 ADD MSTORE PUSH1 0x1A PUSH1 0x24 DUP3 ADD MSTORE PUSH32 0x436C6F73696E672074696D65206D7573742062652076616C6964000000000000 PUSH1 0x44 DUP3 ADD MSTORE PUSH1 0x64 ADD PUSH3 0xDE JUMP JUMPDEST PUSH1 0x2 SWAP2 SWAP1 SWAP2 SSTORE PUSH1 0x3 SSTORE PUSH1 0x1 PUSH1 0x1 PUSH1 0xA0 SHL SUB DUP4 AND PUSH3 0x156 JUMPI PUSH1 0x0 DUP1 REVERT JUMPDEST PUSH1 0x64 PUSH3 0x16D PUSH8 0xDE0B6B3A7640000 PUSH1 0x5 PUSH3 0x35A JUMP JUMPDEST PUSH3 0x179 SWAP2 SWAP1 PUSH3 0x339 JUMP JUMPDEST PUSH1 0x6 SSTORE PUSH1 0x60 DUP4 SWAP1 SHL PUSH1 0x1 PUSH1 0x1 PUSH1 0x60 SHL SUB NOT AND PUSH1 0x80 MSTORE PUSH3 0x1AA DUP2 PUSH4 0x1B9A680 PUSH3 0x254 PUSH1 0x20 SWAP1 DUP2 SHL PUSH3 0x1D00 OR SWAP1 SHR JUMP JUMPDEST PUSH1 0xA0 MSTORE PUSH3 0x1F7 PUSH3 0x1C5 PUSH4 0x1B9A680 PUSH4 0x3944280 PUSH3 0x37C JUMP JUMPDEST PUSH3 0x1E3 PUSH4 0x1B9A680 DUP5 PUSH3 0x254 PUSH1 0x20 SHL PUSH3 0x1D00 OR SWAP1 SWAP2 SWAP1 PUSH1 0x20 SHR JUMP JUMPDEST PUSH3 0x254 PUSH1 0x20 SHL PUSH3 0x1D00 OR SWAP1 SWAP2 SWAP1 PUSH1 0x20 SHR JUMP JUMPDEST PUSH1 0xC0 MSTORE POP PUSH3 0x3AC SWAP2 POP POP JUMP JUMPDEST PUSH1 0x0 DUP1 SLOAD PUSH1 0x1 PUSH1 0x1 PUSH1 0xA0 SHL SUB DUP4 DUP2 AND PUSH1 0x1 PUSH1 0x1 PUSH1 0xA0 SHL SUB NOT DUP4 AND DUP2 OR DUP5 SSTORE PUSH1 0x40 MLOAD SWAP2 SWAP1 SWAP3 AND SWAP3 DUP4 SWAP2 PUSH32 0x8BE0079C531659141344CD1FD0A4F28419497F9722A3DAAFE3B4186F6B6457E0 SWAP2 SWAP1 LOG3 POP POP JUMP JUMPDEST PUSH1 0x0 PUSH3 0x262 DUP3 DUP5 PUSH3 0x31E JUMP JUMPDEST SWAP4 SWAP3 POP POP POP JUMP JUMPDEST DUP3 DUP1 SLOAD DUP3 DUP3 SSTORE SWAP1 PUSH1 0x0 MSTORE PUSH1 0x20 PUSH1 0x0 KECCAK256 SWAP1 DUP2 ADD SWAP3 DUP3 ISZERO PUSH3 0x2B2 JUMPI SWAP2 PUSH1 0x20 MUL DUP3 ADD JUMPDEST DUP3 DUP2 GT ISZERO PUSH3 0x2B2 JUMPI DUP3 MLOAD DUP3 SWAP1 PUSH1 0x1 PUSH1 0x1 PUSH1 0x50 SHL SUB AND SWAP1 SSTORE SWAP2 PUSH1 0x20 ADD SWAP2 SWAP1 PUSH1 0x1 ADD SWAP1 PUSH3 0x28A JUMP JUMPDEST POP PUSH3 0x2C0 SWAP3 SWAP2 POP PUSH3 0x2C4 JUMP JUMPDEST POP SWAP1 JUMP JUMPDEST JUMPDEST DUP1 DUP3 GT ISZERO PUSH3 0x2C0 JUMPI PUSH1 0x0 DUP2 SSTORE PUSH1 0x1 ADD PUSH3 0x2C5 JUMP JUMPDEST PUSH1 0x0 DUP1 PUSH1 0x0 PUSH1 0x60 DUP5 DUP7 SUB SLT ISZERO PUSH3 0x2F0 JUMPI DUP3 DUP4 REVERT JUMPDEST DUP4 MLOAD PUSH1 0x1 PUSH1 0x1 PUSH1 0xA0 SHL SUB DUP2 AND DUP2 EQ PUSH3 0x307 JUMPI DUP4 DUP5 REVERT JUMPDEST PUSH1 0x20 DUP6 ADD MLOAD PUSH1 0x40 SWAP1 SWAP6 ADD MLOAD SWAP1 SWAP7 SWAP5 SWAP6 POP SWAP4 SWAP3 POP POP POP JUMP JUMPDEST PUSH1 0x0 DUP3 NOT DUP3 GT ISZERO PUSH3 0x334 JUMPI PUSH3 0x334 PUSH3 0x396 JUMP JUMPDEST POP ADD SWAP1 JUMP JUMPDEST PUSH1 0x0 DUP3 PUSH3 0x355 JUMPI PUSH4 0x4E487B71 PUSH1 0xE0 SHL DUP2 MSTORE PUSH1 0x12 PUSH1 0x4 MSTORE PUSH1 0x24 DUP2 REVERT JUMPDEST POP DIV SWAP1 JUMP JUMPDEST PUSH1 0x0 DUP2 PUSH1 0x0 NOT DIV DUP4 GT DUP3 ISZERO ISZERO AND ISZERO PUSH3 0x377 JUMPI PUSH3 0x377 PUSH3 0x396 JUMP JUMPDEST POP MUL SWAP1 JUMP JUMPDEST PUSH1 0x0 DUP3 DUP3 LT ISZERO PUSH3 0x391 JUMPI PUSH3 0x391 PUSH3 0x396 JUMP JUMPDEST POP SUB SWAP1 JUMP JUMPDEST PUSH4 0x4E487B71 PUSH1 0xE0 SHL PUSH1 0x0 MSTORE PUSH1 0x11 PUSH1 0x4 MSTORE PUSH1 0x24 PUSH1 0x0 REVERT JUMPDEST PUSH1 0x80 MLOAD PUSH1 0x60 SHR PUSH1 0xA0 MLOAD PUSH1 0xC0 MLOAD PUSH2 0x25CD PUSH3 0x41E PUSH1 0x0 CODECOPY PUSH1 0x0 DUP2 DUP2 PUSH2 0x194D ADD MSTORE PUSH2 0x1D49 ADD MSTORE PUSH1 0x0 DUP2 DUP2 PUSH2 0x10AA ADD MSTORE DUP2 DUP2 PUSH2 0x1919 ADD MSTORE DUP2 DUP2 PUSH2 0x199E ADD MSTORE DUP2 DUP2 PUSH2 0x1D18 ADD MSTORE PUSH2 0x1D90 ADD MSTORE PUSH1 0x0 DUP2 DUP2 PUSH2 0x290 ADD MSTORE DUP2 DUP2 PUSH2 0x8E1 ADD MSTORE DUP2 DUP2 PUSH2 0x9D0 ADD MSTORE DUP2 DUP2 PUSH2 0xFB9 ADD MSTORE PUSH2 0x1ADA ADD MSTORE PUSH2 0x25CD PUSH1 0x0 RETURN INVALID PUSH1 0x80 PUSH1 0x40 MSTORE PUSH1 0x4 CALLDATASIZE LT PUSH2 0x1F0 JUMPI PUSH1 0x0 CALLDATALOAD PUSH1 0xE0 SHR DUP1 PUSH4 0x63F3DBE5 GT PUSH2 0x10C JUMPI DUP1 PUSH4 0x9C845B9B GT PUSH2 0x9A JUMPI DUP1 PUSH4 0xB9A6EF40 GT PUSH2 0x6C JUMPI DUP1 PUSH4 0xB9A6EF40 EQ PUSH2 0x5FC JUMPI DUP1 PUSH4 0xBBD50DAB EQ PUSH2 0x611 JUMPI DUP1 PUSH4 0xD4F8B27B EQ PUSH2 0x626 JUMPI DUP1 PUSH4 0xF2FDE38B EQ PUSH2 0x63B JUMPI DUP1 PUSH4 0xFD151881 EQ PUSH2 0x65B JUMPI STOP JUMPDEST DUP1 PUSH4 0x9C845B9B EQ PUSH2 0x58F JUMPI DUP1 PUSH4 0xA3194F73 EQ PUSH2 0x5AF JUMPI DUP1 PUSH4 0xA889011F EQ PUSH2 0x5CF JUMPI DUP1 PUSH4 0xB7A8807C EQ PUSH2 0x5E6 JUMPI STOP JUMPDEST DUP1 PUSH4 0x8DA5CB5B GT PUSH2 0xDE JUMPI DUP1 PUSH4 0x8DA5CB5B EQ PUSH2 0x506 JUMPI DUP1 PUSH4 0x90BE10CC EQ PUSH2 0x524 JUMPI DUP1 PUSH4 0x96866C13 EQ PUSH2 0x539 JUMPI DUP1 PUSH4 0x9B080DD7 EQ PUSH2 0x559 JUMPI DUP1 PUSH4 0x9C71A33A EQ PUSH2 0x56F JUMPI STOP JUMPDEST DUP1 PUSH4 0x63F3DBE5 EQ PUSH2 0x4A4 JUMPI DUP1 PUSH4 0x715018A6 EQ PUSH2 0x4BC JUMPI DUP1 PUSH4 0x87322816 EQ PUSH2 0x4D1 JUMPI DUP1 PUSH4 0x89A7D3FB EQ PUSH2 0x4F1 JUMPI STOP JUMPDEST DUP1 PUSH4 0x31A6CC8D GT PUSH2 0x189 JUMPI DUP1 PUSH4 0x419544A0 GT PUSH2 0x15B JUMPI DUP1 PUSH4 0x419544A0 EQ PUSH2 0x424 JUMPI DUP1 PUSH4 0x46F3E08E EQ PUSH2 0x444 JUMPI DUP1 PUSH4 0x48DEB471 EQ PUSH2 0x464 JUMPI DUP1 PUSH4 0x4B6753BC EQ PUSH2 0x479 JUMPI DUP1 PUSH4 0x4CFC4D30 EQ PUSH2 0x48F JUMPI STOP JUMPDEST DUP1 PUSH4 0x31A6CC8D EQ PUSH2 0x328 JUMPI DUP1 PUSH4 0x3A05F0D8 EQ PUSH2 0x348 JUMPI DUP1 PUSH4 0x3AF32ABF EQ PUSH2 0x3EC JUMPI DUP1 PUSH4 0x3B8D3FC5 EQ PUSH2 0x40C JUMPI STOP JUMPDEST DUP1 PUSH4 0x21DF0DA7 GT PUSH2 0x1C2 JUMPI DUP1 PUSH4 0x21DF0DA7 EQ PUSH2 0x281 JUMPI DUP1 PUSH4 0x24B558F2 EQ PUSH2 0x2C8 JUMPI DUP1 PUSH4 0x2E0F2625 EQ PUSH2 0x2EC JUMPI DUP1 PUSH4 0x2E1A7D4D EQ PUSH2 0x308 JUMPI STOP JUMPDEST DUP1 PUSH4 0x486A328 EQ PUSH2 0x1F9 JUMPI DUP1 PUSH4 0x1515BC2B EQ PUSH2 0x219 JUMPI DUP1 PUSH4 0x16E1CC7A EQ PUSH2 0x241 JUMPI DUP1 PUSH4 0x19165587 EQ PUSH2 0x261 JUMPI STOP JUMPDEST CALLDATASIZE PUSH2 0x1F7 JUMPI STOP JUMPDEST STOP JUMPDEST CALLVALUE DUP1 ISZERO PUSH2 0x205 JUMPI PUSH1 0x0 DUP1 REVERT JUMPDEST POP PUSH2 0x1F7 PUSH2 0x214 CALLDATASIZE PUSH1 0x4 PUSH2 0x2360 JUMP JUMPDEST PUSH2 0x671 JUMP JUMPDEST CALLVALUE DUP1 ISZERO PUSH2 0x225 JUMPI PUSH1 0x0 DUP1 REVERT JUMPDEST POP PUSH1 0x3 SLOAD TIMESTAMP GT JUMPDEST PUSH1 0x40 MLOAD SWAP1 ISZERO ISZERO DUP2 MSTORE PUSH1 0x20 ADD JUMPDEST PUSH1 0x40 MLOAD DUP1 SWAP2 SUB SWAP1 RETURN JUMPDEST CALLVALUE DUP1 ISZERO PUSH2 0x24D JUMPI PUSH1 0x0 DUP1 REVERT JUMPDEST POP PUSH2 0x1F7 PUSH2 0x25C CALLDATASIZE PUSH1 0x4 PUSH2 0x2390 JUMP JUMPDEST PUSH2 0x6A9 JUMP JUMPDEST CALLVALUE DUP1 ISZERO PUSH2 0x26D JUMPI PUSH1 0x0 DUP1 REVERT JUMPDEST POP PUSH2 0x1F7 PUSH2 0x27C CALLDATASIZE PUSH1 0x4 PUSH2 0x217F JUMP JUMPDEST PUSH2 0x6C8 JUMP JUMPDEST CALLVALUE DUP1 ISZERO PUSH2 0x28D JUMPI PUSH1 0x0 DUP1 REVERT JUMPDEST POP PUSH32 0x0 JUMPDEST PUSH1 0x40 MLOAD PUSH1 0x1 PUSH1 0x1 PUSH1 0xA0 SHL SUB SWAP1 SWAP2 AND DUP2 MSTORE PUSH1 0x20 ADD PUSH2 0x238 JUMP JUMPDEST CALLVALUE DUP1 ISZERO PUSH2 0x2D4 JUMPI PUSH1 0x0 DUP1 REVERT JUMPDEST POP PUSH2 0x2DE PUSH1 0x6 SLOAD DUP2 JUMP JUMPDEST PUSH1 0x40 MLOAD SWAP1 DUP2 MSTORE PUSH1 0x20 ADD PUSH2 0x238 JUMP JUMPDEST CALLVALUE DUP1 ISZERO PUSH2 0x2F8 JUMPI PUSH1 0x0 DUP1 REVERT JUMPDEST POP PUSH2 0x2DE PUSH8 0xDE0B6B3A7640000 DUP2 JUMP JUMPDEST CALLVALUE DUP1 ISZERO PUSH2 0x314 JUMPI PUSH1 0x0 DUP1 REVERT JUMPDEST POP PUSH2 0x1F7 PUSH2 0x323 CALLDATASIZE PUSH1 0x4 PUSH2 0x2360 JUMP JUMPDEST PUSH2 0x95F JUMP JUMPDEST CALLVALUE DUP1 ISZERO PUSH2 0x334 JUMPI PUSH1 0x0 DUP1 REVERT JUMPDEST POP PUSH2 0x1F7 PUSH2 0x343 CALLDATASIZE PUSH1 0x4 PUSH2 0x22C4 JUMP JUMPDEST PUSH2 0x9FE JUMP JUMPDEST CALLVALUE DUP1 ISZERO PUSH2 0x354 JUMPI PUSH1 0x0 DUP1 REVERT JUMPDEST POP PUSH1 0x40 DUP1 MLOAD PUSH1 0x80 DUP1 DUP3 ADD DUP4 MSTORE PUSH1 0x0 DUP1 DUP4 MSTORE PUSH1 0x20 DUP1 DUP5 ADD DUP3 SWAP1 MSTORE DUP4 DUP6 ADD DUP3 SWAP1 MSTORE PUSH1 0x60 SWAP4 DUP5 ADD DUP3 SWAP1 MSTORE CALLER DUP3 MSTORE PUSH1 0xA DUP2 MSTORE SWAP1 DUP5 SWAP1 KECCAK256 DUP5 MLOAD DUP1 DUP5 ADD DUP7 MSTORE DUP2 SLOAD PUSH1 0xFF DUP2 AND ISZERO ISZERO DUP1 DUP4 MSTORE PUSH2 0x100 SWAP1 SWAP2 DIV PUSH1 0x1 PUSH1 0x1 PUSH1 0xA0 SHL SUB SWAP1 DUP2 AND DUP4 DUP7 ADD SWAP1 DUP2 MSTORE PUSH1 0x1 DUP6 ADD SLOAD DUP5 DUP11 ADD SWAP1 DUP2 MSTORE PUSH1 0x2 SWAP1 SWAP6 ADD SLOAD SWAP4 DUP9 ADD SWAP4 DUP5 MSTORE DUP9 MLOAD SWAP3 DUP4 MSTORE MLOAD AND SWAP4 DUP2 ADD SWAP4 SWAP1 SWAP4 MSTORE SWAP1 MLOAD SWAP5 DUP3 ADD SWAP5 SWAP1 SWAP5 MSTORE SWAP3 MLOAD SWAP2 DUP4 ADD SWAP2 SWAP1 SWAP2 MSTORE ADD PUSH2 0x238 JUMP JUMPDEST CALLVALUE DUP1 ISZERO PUSH2 0x3F8 JUMPI PUSH1 0x0 DUP1 REVERT JUMPDEST POP PUSH2 0x22C PUSH2 0x407 CALLDATASIZE PUSH1 0x4 PUSH2 0x217F JUMP JUMPDEST PUSH2 0xA6F JUMP JUMPDEST CALLVALUE DUP1 ISZERO PUSH2 0x418 JUMPI PUSH1 0x0 DUP1 REVERT JUMPDEST POP PUSH2 0x2DE PUSH4 0x3944280 DUP2 JUMP JUMPDEST CALLVALUE DUP1 ISZERO PUSH2 0x430 JUMPI PUSH1 0x0 DUP1 REVERT JUMPDEST POP PUSH2 0x1F7 PUSH2 0x43F CALLDATASIZE PUSH1 0x4 PUSH2 0x21CB JUMP JUMPDEST PUSH2 0xAA3 JUMP JUMPDEST CALLVALUE DUP1 ISZERO PUSH2 0x450 JUMPI PUSH1 0x0 DUP1 REVERT JUMPDEST POP PUSH2 0x1F7 PUSH2 0x45F CALLDATASIZE PUSH1 0x4 PUSH2 0x2284 JUMP JUMPDEST PUSH2 0xD83 JUMP JUMPDEST CALLVALUE DUP1 ISZERO PUSH2 0x470 JUMPI PUSH1 0x0 DUP1 REVERT JUMPDEST POP PUSH1 0xB SLOAD PUSH2 0x2DE JUMP JUMPDEST CALLVALUE DUP1 ISZERO PUSH2 0x485 JUMPI PUSH1 0x0 DUP1 REVERT JUMPDEST POP PUSH2 0x2DE PUSH1 0x3 SLOAD DUP2 JUMP JUMPDEST CALLVALUE DUP1 ISZERO PUSH2 0x49B JUMPI PUSH1 0x0 DUP1 REVERT JUMPDEST POP PUSH2 0x2DE PUSH2 0xE78 JUMP JUMPDEST CALLVALUE DUP1 ISZERO PUSH2 0x4B0 JUMPI PUSH1 0x0 DUP1 REVERT JUMPDEST POP PUSH2 0x2DE PUSH4 0x1B9A680 DUP2 JUMP JUMPDEST CALLVALUE DUP1 ISZERO PUSH2 0x4C8 JUMPI PUSH1 0x0 DUP1 REVERT JUMPDEST POP PUSH2 0x1F7 PUSH2 0xE8D JUMP JUMPDEST CALLVALUE DUP1 ISZERO PUSH2 0x4DD JUMPI PUSH1 0x0 DUP1 REVERT JUMPDEST POP PUSH2 0x1F7 PUSH2 0x4EC CALLDATASIZE PUSH1 0x4 PUSH2 0x21F4 JUMP JUMPDEST PUSH2 0xEC3 JUMP JUMPDEST CALLVALUE DUP1 ISZERO PUSH2 0x4FD JUMPI PUSH1 0x0 DUP1 REVERT JUMPDEST POP PUSH2 0x2DE PUSH2 0xF72 JUMP JUMPDEST CALLVALUE DUP1 ISZERO PUSH2 0x512 JUMPI PUSH1 0x0 DUP1 REVERT JUMPDEST POP PUSH1 0x0 SLOAD PUSH1 0x1 PUSH1 0x1 PUSH1 0xA0 SHL SUB AND PUSH2 0x2B0 JUMP JUMPDEST CALLVALUE DUP1 ISZERO PUSH2 0x530 JUMPI PUSH1 0x0 DUP1 REVERT JUMPDEST POP PUSH2 0x2DE PUSH2 0xF92 JUMP JUMPDEST CALLVALUE DUP1 ISZERO PUSH2 0x545 JUMPI PUSH1 0x0 DUP1 REVERT JUMPDEST POP PUSH2 0x1F7 PUSH2 0x554 CALLDATASIZE PUSH1 0x4 PUSH2 0x2199 JUMP JUMPDEST PUSH2 0x103E JUMP JUMPDEST CALLVALUE DUP1 ISZERO PUSH2 0x565 JUMPI PUSH1 0x0 DUP1 REVERT JUMPDEST POP PUSH2 0x2DE PUSH1 0x5 SLOAD DUP2 JUMP JUMPDEST CALLVALUE DUP1 ISZERO PUSH2 0x57B JUMPI PUSH1 0x0 DUP1 REVERT JUMPDEST POP PUSH2 0x1F7 PUSH2 0x58A CALLDATASIZE PUSH1 0x4 PUSH2 0x21F4 JUMP JUMPDEST PUSH2 0x1399 JUMP JUMPDEST CALLVALUE DUP1 ISZERO PUSH2 0x59B JUMPI PUSH1 0x0 DUP1 REVERT JUMPDEST POP PUSH2 0x1F7 PUSH2 0x5AA CALLDATASIZE PUSH1 0x4 PUSH2 0x2316 JUMP JUMPDEST PUSH2 0x1443 JUMP JUMPDEST CALLVALUE DUP1 ISZERO PUSH2 0x5BB JUMPI PUSH1 0x0 DUP1 REVERT JUMPDEST POP PUSH2 0x2DE PUSH2 0x5CA CALLDATASIZE PUSH1 0x4 PUSH2 0x21CB JUMP JUMPDEST PUSH2 0x17FB JUMP JUMPDEST CALLVALUE DUP1 ISZERO PUSH2 0x5DB JUMPI PUSH1 0x0 DUP1 REVERT JUMPDEST POP PUSH2 0x2DE PUSH3 0x278D00 DUP2 JUMP JUMPDEST CALLVALUE DUP1 ISZERO PUSH2 0x5F2 JUMPI PUSH1 0x0 DUP1 REVERT JUMPDEST POP PUSH2 0x2DE PUSH1 0x2 SLOAD DUP2 JUMP JUMPDEST CALLVALUE DUP1 ISZERO PUSH2 0x608 JUMPI PUSH1 0x0 DUP1 REVERT JUMPDEST POP PUSH2 0x1F7 PUSH2 0x1A20 JUMP JUMPDEST CALLVALUE DUP1 ISZERO PUSH2 0x61D JUMPI PUSH1 0x0 DUP1 REVERT JUMPDEST POP PUSH2 0x1F7 PUSH2 0x1B01 JUMP JUMPDEST CALLVALUE DUP1 ISZERO PUSH2 0x632 JUMPI PUSH1 0x0 DUP1 REVERT JUMPDEST POP PUSH2 0x2DE PUSH2 0x1BD1 JUMP JUMPDEST CALLVALUE DUP1 ISZERO PUSH2 0x647 JUMPI PUSH1 0x0 DUP1 REVERT JUMPDEST POP PUSH2 0x1F7 PUSH2 0x656 CALLDATASIZE PUSH1 0x4 PUSH2 0x217F JUMP JUMPDEST PUSH2 0x1C68 JUMP JUMPDEST CALLVALUE DUP1 ISZERO PUSH2 0x667 JUMPI PUSH1 0x0 DUP1 REVERT JUMPDEST POP PUSH2 0x2DE PUSH1 0x4 SLOAD DUP2 JUMP JUMPDEST PUSH1 0x0 SLOAD PUSH1 0x1 PUSH1 0x1 PUSH1 0xA0 SHL SUB AND CALLER EQ PUSH2 0x6A4 JUMPI PUSH1 0x40 MLOAD PUSH3 0x461BCD PUSH1 0xE5 SHL DUP2 MSTORE PUSH1 0x4 ADD PUSH2 0x69B SWAP1 PUSH2 0x2460 JUMP JUMPDEST PUSH1 0x40 MLOAD DUP1 SWAP2 SUB SWAP1 REVERT JUMPDEST PUSH1 0x6 SSTORE JUMP JUMPDEST TIMESTAMP DUP2 LT ISZERO PUSH2 0x6B6 JUMPI PUSH1 0x0 DUP1 REVERT JUMPDEST DUP2 ISZERO PUSH2 0x6C2 JUMPI PUSH1 0x2 DUP3 SWAP1 SSTORE JUMPDEST PUSH1 0x3 SSTORE POP JUMP JUMPDEST PUSH1 0x2 PUSH1 0x1 SLOAD EQ ISZERO PUSH2 0x6EB JUMPI PUSH1 0x40 MLOAD PUSH3 0x461BCD PUSH1 0xE5 SHL DUP2 MSTORE PUSH1 0x4 ADD PUSH2 0x69B SWAP1 PUSH2 0x2495 JUMP JUMPDEST PUSH1 0x2 PUSH1 0x1 SWAP1 DUP2 SSTORE PUSH1 0x1 PUSH1 0x1 PUSH1 0xA0 SHL SUB DUP3 AND PUSH1 0x0 SWAP1 DUP2 MSTORE PUSH1 0xA PUSH1 0x20 MSTORE PUSH1 0x40 SWAP1 KECCAK256 SLOAD DUP3 SWAP2 PUSH1 0xFF SWAP1 SWAP2 AND ISZERO ISZERO EQ PUSH2 0x731 JUMPI PUSH1 0x40 MLOAD PUSH3 0x461BCD PUSH1 0xE5 SHL DUP2 MSTORE PUSH1 0x4 ADD PUSH2 0x69B SWAP1 PUSH2 0x2410 JUMP JUMPDEST PUSH1 0x1 PUSH1 0x1 PUSH1 0xA0 SHL SUB DUP3 AND PUSH1 0x0 DUP2 DUP2 MSTORE PUSH1 0xA PUSH1 0x20 MSTORE PUSH1 0x40 DUP2 KECCAK256 SWAP2 CALLER EQ SWAP1 PUSH2 0x75F PUSH1 0x0 SLOAD PUSH1 0x1 PUSH1 0x1 PUSH1 0xA0 SHL SUB AND SWAP1 JUMP JUMPDEST PUSH1 0x1 PUSH1 0x1 PUSH1 0xA0 SHL SUB AND CALLER PUSH1 0x1 PUSH1 0x1 PUSH1 0xA0 SHL SUB AND EQ SWAP1 POP DUP2 DUP1 PUSH2 0x77E JUMPI POP DUP1 JUMPDEST PUSH2 0x802 JUMPI PUSH1 0x40 MLOAD PUSH3 0x461BCD PUSH1 0xE5 SHL DUP2 MSTORE PUSH1 0x20 PUSH1 0x4 DUP3 ADD MSTORE PUSH1 0x49 PUSH1 0x24 DUP3 ADD MSTORE PUSH32 0x5072697661746553616C65436F6E74726163743A206F6E6C792062656E656669 PUSH1 0x44 DUP3 ADD MSTORE PUSH32 0x636961727920616E64206F776E65722063616E2072656C656173652076657374 PUSH1 0x64 DUP3 ADD MSTORE PUSH9 0x656420746F6B656E73 PUSH1 0xB8 SHL PUSH1 0x84 DUP3 ADD MSTORE PUSH1 0xA4 ADD PUSH2 0x69B JUMP JUMPDEST PUSH1 0x40 DUP1 MLOAD PUSH1 0x80 DUP2 ADD DUP3 MSTORE DUP5 SLOAD PUSH1 0xFF DUP2 AND ISZERO ISZERO DUP3 MSTORE PUSH2 0x100 SWAP1 DIV PUSH1 0x1 PUSH1 0x1 PUSH1 0xA0 SHL SUB AND PUSH1 0x20 DUP3 ADD MSTORE PUSH1 0x1 DUP6 ADD SLOAD SWAP2 DUP2 ADD SWAP2 SWAP1 SWAP2 MSTORE PUSH1 0x2 DUP5 ADD SLOAD PUSH1 0x60 DUP3 ADD MSTORE PUSH1 0x0 SWAP1 PUSH2 0x84B SWAP1 PUSH2 0x1D13 JUMP JUMPDEST SWAP1 POP PUSH1 0x0 DUP2 GT PUSH2 0x8AF JUMPI PUSH1 0x40 MLOAD PUSH3 0x461BCD PUSH1 0xE5 SHL DUP2 MSTORE PUSH1 0x20 PUSH1 0x4 DUP3 ADD MSTORE PUSH1 0x29 PUSH1 0x24 DUP3 ADD MSTORE PUSH32 0x5072697661746553616C65436F6E74726163743A206E6F20746F6B656E732076 PUSH1 0x44 DUP3 ADD MSTORE PUSH9 0x195CDD1959081E595D PUSH1 0xBA SHL PUSH1 0x64 DUP3 ADD MSTORE PUSH1 0x84 ADD PUSH2 0x69B JUMP JUMPDEST PUSH1 0x2 DUP5 ADD SLOAD PUSH2 0x8BE SWAP1 DUP3 PUSH2 0x1D00 JUMP JUMPDEST PUSH1 0x2 DUP6 ADD SSTORE PUSH1 0xB SLOAD PUSH2 0x8D0 SWAP1 DUP3 PUSH2 0x1E0C JUMP JUMPDEST PUSH1 0xB SSTORE DUP6 PUSH2 0x908 PUSH1 0x1 PUSH1 0x1 PUSH1 0xA0 SHL SUB PUSH32 0x0 AND DUP3 DUP5 PUSH2 0x1E18 JUMP JUMPDEST PUSH1 0x5 SLOAD PUSH2 0x915 SWAP1 DUP4 PUSH2 0x1D00 JUMP JUMPDEST PUSH1 0x5 SSTORE PUSH1 0x40 DUP1 MLOAD CALLER DUP2 MSTORE PUSH1 0x20 DUP2 ADD DUP5 SWAP1 MSTORE PUSH32 0xB21FB52D5749B80F3182F8C6992236B5E5576681880914484D7F4C9B062E619E SWAP2 ADD JUMPDEST PUSH1 0x40 MLOAD DUP1 SWAP2 SUB SWAP1 LOG1 POP POP PUSH1 0x1 DUP1 SSTORE POP POP POP POP POP JUMP JUMPDEST PUSH1 0x2 PUSH1 0x1 SLOAD EQ ISZERO PUSH2 0x982 JUMPI PUSH1 0x40 MLOAD PUSH3 0x461BCD PUSH1 0xE5 SHL DUP2 MSTORE PUSH1 0x4 ADD PUSH2 0x69B SWAP1 PUSH2 0x2495 JUMP JUMPDEST PUSH1 0x2 PUSH1 0x1 SSTORE PUSH1 0x0 SLOAD PUSH1 0x1 PUSH1 0x1 PUSH1 0xA0 SHL SUB AND CALLER EQ PUSH2 0x9B1 JUMPI PUSH1 0x40 MLOAD PUSH3 0x461BCD PUSH1 0xE5 SHL DUP2 MSTORE PUSH1 0x4 ADD PUSH2 0x69B SWAP1 PUSH2 0x2460 JUMP JUMPDEST PUSH2 0x9F7 PUSH2 0x9C6 PUSH1 0x0 SLOAD PUSH1 0x1 PUSH1 0x1 PUSH1 0xA0 SHL SUB AND SWAP1 JUMP JUMPDEST PUSH1 0x1 PUSH1 0x1 PUSH1 0xA0 SHL SUB PUSH32 0x0 AND SWAP1 DUP4 PUSH2 0x1E18 JUMP JUMPDEST POP PUSH1 0x1 DUP1 SSTORE JUMP JUMPDEST PUSH1 0x0 SLOAD PUSH1 0x1 PUSH1 0x1 PUSH1 0xA0 SHL SUB AND CALLER EQ PUSH2 0xA28 JUMPI PUSH1 0x40 MLOAD PUSH3 0x461BCD PUSH1 0xE5 SHL DUP2 MSTORE PUSH1 0x4 ADD PUSH2 0x69B SWAP1 PUSH2 0x2460 JUMP JUMPDEST DUP1 PUSH1 0x8 DUP5 DUP5 PUSH1 0x40 MLOAD PUSH2 0xA3B SWAP3 SWAP2 SWAP1 PUSH2 0x23CD JUMP JUMPDEST SWAP1 DUP2 MSTORE PUSH1 0x40 MLOAD SWAP1 DUP2 SWAP1 SUB PUSH1 0x20 ADD SWAP1 KECCAK256 DUP1 SLOAD PUSH1 0x1 PUSH1 0x1 PUSH1 0xA0 SHL SUB SWAP3 SWAP1 SWAP3 AND PUSH1 0x1 PUSH1 0x1 PUSH1 0xA0 SHL SUB NOT SWAP1 SWAP3 AND SWAP2 SWAP1 SWAP2 OR SWAP1 SSTORE POP POP POP JUMP JUMPDEST PUSH1 0x0 PUSH1 0x1 PUSH1 0x1 PUSH1 0xA0 SHL SUB DUP3 AND PUSH2 0xA84 JUMPI PUSH1 0x0 DUP1 REVERT JUMPDEST POP PUSH1 0x1 PUSH1 0x1 PUSH1 0xA0 SHL SUB AND PUSH1 0x0 SWAP1 DUP2 MSTORE PUSH1 0x9 PUSH1 0x20 MSTORE PUSH1 0x40 SWAP1 KECCAK256 SLOAD PUSH1 0xFF AND SWAP1 JUMP JUMPDEST PUSH1 0x0 SLOAD PUSH1 0x1 PUSH1 0x1 PUSH1 0xA0 SHL SUB AND CALLER EQ PUSH2 0xACD JUMPI PUSH1 0x40 MLOAD PUSH3 0x461BCD PUSH1 0xE5 SHL DUP2 MSTORE PUSH1 0x4 ADD PUSH2 0x69B SWAP1 PUSH2 0x2460 JUMP JUMPDEST DUP1 ADDRESS PUSH1 0x1 PUSH1 0x1 PUSH1 0xA0 SHL SUB AND PUSH4 0x90BE10CC PUSH1 0x40 MLOAD DUP2 PUSH4 0xFFFFFFFF AND PUSH1 0xE0 SHL DUP2 MSTORE PUSH1 0x4 ADD PUSH1 0x20 PUSH1 0x40 MLOAD DUP1 DUP4 SUB DUP2 DUP7 DUP1 EXTCODESIZE ISZERO DUP1 ISZERO PUSH2 0xB07 JUMPI PUSH1 0x0 DUP1 REVERT JUMPDEST POP GAS STATICCALL ISZERO DUP1 ISZERO PUSH2 0xB1B JUMPI RETURNDATASIZE PUSH1 0x0 DUP1 RETURNDATACOPY RETURNDATASIZE PUSH1 0x0 REVERT JUMPDEST POP POP POP POP PUSH1 0x40 MLOAD RETURNDATASIZE PUSH1 0x1F NOT PUSH1 0x1F DUP3 ADD AND DUP3 ADD DUP1 PUSH1 0x40 MSTORE POP DUP2 ADD SWAP1 PUSH2 0xB3F SWAP2 SWAP1 PUSH2 0x2378 JUMP JUMPDEST LT ISZERO PUSH2 0xBCD JUMPI PUSH1 0x40 MLOAD PUSH3 0x461BCD PUSH1 0xE5 SHL DUP2 MSTORE PUSH1 0x20 PUSH1 0x4 DUP3 ADD MSTORE PUSH1 0x51 PUSH1 0x24 DUP3 ADD MSTORE PUSH32 0x5072697661746553616C65436F6E74726163743A2063616E6E6F742063726561 PUSH1 0x44 DUP3 ADD MSTORE PUSH32 0x74652076657374696E67207363686564756C652062656361757365206E6F7420 PUSH1 0x64 DUP3 ADD MSTORE PUSH17 0x73756666696369656E7420746F6B656E73 PUSH1 0x78 SHL PUSH1 0x84 DUP3 ADD MSTORE PUSH1 0xA4 ADD PUSH2 0x69B JUMP JUMPDEST PUSH1 0x0 DUP2 GT PUSH2 0xC2D JUMPI PUSH1 0x40 MLOAD PUSH3 0x461BCD PUSH1 0xE5 SHL DUP2 MSTORE PUSH1 0x20 PUSH1 0x4 DUP3 ADD MSTORE PUSH1 0x27 PUSH1 0x24 DUP3 ADD MSTORE PUSH32 0x5072697661746553616C65436F6E74726163743A20616D6F756E74206D757374 PUSH1 0x44 DUP3 ADD MSTORE PUSH7 0x206265203E203 PUSH1 0xCC SHL PUSH1 0x64 DUP3 ADD MSTORE PUSH1 0x84 ADD PUSH2 0x69B JUMP JUMPDEST PUSH1 0x1 PUSH1 0x1 PUSH1 0xA0 SHL SUB DUP3 AND PUSH1 0x0 SWAP1 DUP2 MSTORE PUSH1 0xA PUSH1 0x20 MSTORE PUSH1 0x40 SWAP1 KECCAK256 SLOAD PUSH1 0xFF AND ISZERO ISZERO PUSH1 0x1 EQ ISZERO PUSH2 0xC9A JUMPI PUSH1 0x1 PUSH1 0x1 PUSH1 0xA0 SHL SUB DUP3 AND PUSH1 0x0 SWAP1 DUP2 MSTORE PUSH1 0xA PUSH1 0x20 MSTORE PUSH1 0x40 SWAP1 KECCAK256 PUSH1 0x1 ADD SLOAD PUSH2 0xC79 SWAP1 DUP3 PUSH2 0x1D00 JUMP JUMPDEST PUSH1 0x1 PUSH1 0x1 PUSH1 0xA0 SHL SUB DUP4 AND PUSH1 0x0 SWAP1 DUP2 MSTORE PUSH1 0xA PUSH1 0x20 MSTORE PUSH1 0x40 SWAP1 KECCAK256 PUSH1 0x1 ADD SSTORE PUSH2 0xD15 JUMP JUMPDEST PUSH1 0x40 DUP1 MLOAD PUSH1 0x80 DUP2 ADD DUP3 MSTORE PUSH1 0x1 DUP1 DUP3 MSTORE PUSH1 0x1 PUSH1 0x1 PUSH1 0xA0 SHL SUB DUP6 DUP2 AND PUSH1 0x20 DUP1 DUP6 ADD DUP3 DUP2 MSTORE DUP6 DUP8 ADD DUP9 DUP2 MSTORE PUSH1 0x0 PUSH1 0x60 DUP9 ADD DUP2 DUP2 MSTORE SWAP5 DUP2 MSTORE PUSH1 0xA SWAP1 SWAP4 MSTORE SWAP7 SWAP1 SWAP2 KECCAK256 SWAP5 MLOAD DUP6 SLOAD SWAP2 MLOAD PUSH1 0x1 PUSH1 0x1 PUSH1 0xA8 SHL SUB NOT SWAP1 SWAP3 AND SWAP1 ISZERO ISZERO PUSH2 0x100 PUSH1 0x1 PUSH1 0xA8 SHL SUB NOT AND OR PUSH2 0x100 SWAP2 SWAP1 SWAP4 AND MUL SWAP2 SWAP1 SWAP2 OR DUP4 SSTORE SWAP3 MLOAD SWAP1 DUP3 ADD SSTORE SWAP1 MLOAD PUSH1 0x2 SWAP1 SWAP2 ADD SSTORE JUMPDEST PUSH1 0xB SLOAD PUSH2 0xD22 SWAP1 DUP3 PUSH2 0x1D00 JUMP JUMPDEST PUSH1 0xB SSTORE PUSH1 0x4 SLOAD PUSH2 0xD32 SWAP1 DUP3 PUSH2 0x1D00 JUMP JUMPDEST PUSH1 0x4 SSTORE PUSH1 0x40 DUP1 MLOAD PUSH1 0x1 PUSH1 0x1 PUSH1 0xA0 SHL SUB DUP5 AND DUP2 MSTORE PUSH1 0x0 PUSH1 0x20 DUP3 ADD MSTORE SWAP1 DUP2 ADD DUP3 SWAP1 MSTORE PUSH32 0x6D7C513D5F4AB303351ED7F68DA41871B2D39C7093BB2A94F5D5A3BA63A6928 SWAP1 PUSH1 0x60 ADD PUSH1 0x40 MLOAD DUP1 SWAP2 SUB SWAP1 LOG1 POP POP JUMP JUMPDEST PUSH1 0x0 SLOAD PUSH1 0x1 PUSH1 0x1 PUSH1 0xA0 SHL SUB AND CALLER EQ PUSH2 0xDAD JUMPI PUSH1 0x40 MLOAD PUSH3 0x461BCD PUSH1 0xE5 SHL DUP2 MSTORE PUSH1 0x4 ADD PUSH2 0x69B SWAP1 PUSH2 0x2460 JUMP JUMPDEST PUSH1 0x0 PUSH1 0x8 DUP4 DUP4 PUSH1 0x40 MLOAD PUSH2 0xDC1 SWAP3 SWAP2 SWAP1 PUSH2 0x23CD JUMP JUMPDEST SWAP1 DUP2 MSTORE PUSH1 0x40 MLOAD SWAP1 DUP2 SWAP1 SUB PUSH1 0x20 ADD DUP2 KECCAK256 SLOAD PUSH4 0x70A08231 PUSH1 0xE0 SHL DUP3 MSTORE ADDRESS PUSH1 0x4 DUP4 ADD MSTORE PUSH1 0x1 PUSH1 0x1 PUSH1 0xA0 SHL SUB AND SWAP2 POP PUSH1 0x0 SWAP1 DUP3 SWAP1 PUSH4 0x70A08231 SWAP1 PUSH1 0x24 ADD PUSH1 0x20 PUSH1 0x40 MLOAD DUP1 DUP4 SUB DUP2 DUP7 DUP1 EXTCODESIZE ISZERO DUP1 ISZERO PUSH2 0xE12 JUMPI PUSH1 0x0 DUP1 REVERT JUMPDEST POP GAS STATICCALL ISZERO DUP1 ISZERO PUSH2 0xE26 JUMPI RETURNDATASIZE PUSH1 0x0 DUP1 RETURNDATACOPY RETURNDATASIZE PUSH1 0x0 REVERT JUMPDEST POP POP POP POP PUSH1 0x40 MLOAD RETURNDATASIZE PUSH1 0x1F NOT PUSH1 0x1F DUP3 ADD AND DUP3 ADD DUP1 PUSH1 0x40 MSTORE POP DUP2 ADD SWAP1 PUSH2 0xE4A SWAP2 SWAP1 PUSH2 0x2378 JUMP JUMPDEST SWAP1 POP PUSH2 0xE72 PUSH2 0xE61 PUSH1 0x0 SLOAD PUSH1 0x1 PUSH1 0x1 PUSH1 0xA0 SHL SUB AND SWAP1 JUMP JUMPDEST PUSH1 0x1 PUSH1 0x1 PUSH1 0xA0 SHL SUB DUP5 AND SWAP1 DUP4 PUSH2 0x1E18 JUMP JUMPDEST POP POP POP POP JUMP JUMPDEST PUSH2 0xE8A PUSH4 0x1B9A680 PUSH4 0x3944280 PUSH2 0x2523 JUMP JUMPDEST DUP2 JUMP JUMPDEST PUSH1 0x0 SLOAD PUSH1 0x1 PUSH1 0x1 PUSH1 0xA0 SHL SUB AND CALLER EQ PUSH2 0xEB7 JUMPI PUSH1 0x40 MLOAD PUSH3 0x461BCD PUSH1 0xE5 SHL DUP2 MSTORE PUSH1 0x4 ADD PUSH2 0x69B SWAP1 PUSH2 0x2460 JUMP JUMPDEST PUSH2 0xEC1 PUSH1 0x0 PUSH2 0x1E6A JUMP JUMPDEST JUMP JUMPDEST PUSH1 0x0 SLOAD PUSH1 0x1 PUSH1 0x1 PUSH1 0xA0 SHL SUB AND CALLER EQ PUSH2 0xEED JUMPI PUSH1 0x40 MLOAD PUSH3 0x461BCD PUSH1 0xE5 SHL DUP2 MSTORE PUSH1 0x4 ADD PUSH2 0x69B SWAP1 PUSH2 0x2460 JUMP JUMPDEST PUSH1 0x0 JUMPDEST DUP2 DUP2 LT ISZERO PUSH2 0xF6D JUMPI PUSH1 0x0 PUSH1 0x9 PUSH1 0x0 DUP6 DUP6 DUP6 DUP2 DUP2 LT PUSH2 0xF1E JUMPI PUSH4 0x4E487B71 PUSH1 0xE0 SHL PUSH1 0x0 MSTORE PUSH1 0x32 PUSH1 0x4 MSTORE PUSH1 0x24 PUSH1 0x0 REVERT JUMPDEST SWAP1 POP PUSH1 0x20 MUL ADD PUSH1 0x20 DUP2 ADD SWAP1 PUSH2 0xF33 SWAP2 SWAP1 PUSH2 0x217F JUMP JUMPDEST PUSH1 0x1 PUSH1 0x1 PUSH1 0xA0 SHL SUB AND DUP2 MSTORE PUSH1 0x20 DUP2 ADD SWAP2 SWAP1 SWAP2 MSTORE PUSH1 0x40 ADD PUSH1 0x0 KECCAK256 DUP1 SLOAD PUSH1 0xFF NOT AND SWAP2 ISZERO ISZERO SWAP2 SWAP1 SWAP2 OR SWAP1 SSTORE DUP1 PUSH2 0xF65 DUP2 PUSH2 0x2566 JUMP JUMPDEST SWAP2 POP POP PUSH2 0xEF0 JUMP JUMPDEST POP POP POP JUMP JUMPDEST PUSH3 0x278D00 PUSH2 0xF88 PUSH4 0x1B9A680 PUSH4 0x3944280 PUSH2 0x2523 JUMP JUMPDEST PUSH2 0xE8A SWAP2 SWAP1 PUSH2 0x24E4 JUMP JUMPDEST PUSH1 0xB SLOAD PUSH1 0x40 MLOAD PUSH4 0x70A08231 PUSH1 0xE0 SHL DUP2 MSTORE ADDRESS PUSH1 0x4 DUP3 ADD MSTORE PUSH1 0x0 SWAP2 PUSH2 0x1039 SWAP2 PUSH1 0x1 PUSH1 0x1 PUSH1 0xA0 SHL SUB PUSH32 0x0 AND SWAP1 PUSH4 0x70A08231 SWAP1 PUSH1 0x24 ADD PUSH1 0x20 PUSH1 0x40 MLOAD DUP1 DUP4 SUB DUP2 DUP7 DUP1 EXTCODESIZE ISZERO DUP1 ISZERO PUSH2 0xFFB JUMPI PUSH1 0x0 DUP1 REVERT JUMPDEST POP GAS STATICCALL ISZERO DUP1 ISZERO PUSH2 0x100F JUMPI RETURNDATASIZE PUSH1 0x0 DUP1 RETURNDATACOPY RETURNDATASIZE PUSH1 0x0 REVERT JUMPDEST POP POP POP POP PUSH1 0x40 MLOAD RETURNDATASIZE PUSH1 0x1F NOT PUSH1 0x1F DUP3 ADD AND DUP3 ADD DUP1 PUSH1 0x40 MSTORE POP DUP2 ADD SWAP1 PUSH2 0x1033 SWAP2 SWAP1 PUSH2 0x2378 JUMP JUMPDEST SWAP1 PUSH2 0x1E0C JUMP JUMPDEST SWAP1 POP SWAP1 JUMP JUMPDEST PUSH1 0x2 PUSH1 0x1 SLOAD EQ ISZERO PUSH2 0x1061 JUMPI PUSH1 0x40 MLOAD PUSH3 0x461BCD PUSH1 0xE5 SHL DUP2 MSTORE PUSH1 0x4 ADD PUSH2 0x69B SWAP1 PUSH2 0x2495 JUMP JUMPDEST PUSH1 0x2 PUSH1 0x1 SWAP1 DUP2 SSTORE PUSH1 0x1 PUSH1 0x1 PUSH1 0xA0 SHL SUB DUP4 AND PUSH1 0x0 SWAP1 DUP2 MSTORE PUSH1 0xA PUSH1 0x20 MSTORE PUSH1 0x40 SWAP1 KECCAK256 SLOAD DUP4 SWAP2 PUSH1 0xFF SWAP1 SWAP2 AND ISZERO ISZERO EQ PUSH2 0x10A7 JUMPI PUSH1 0x40 MLOAD PUSH3 0x461BCD PUSH1 0xE5 SHL DUP2 MSTORE PUSH1 0x4 ADD PUSH2 0x69B SWAP1 PUSH2 0x2410 JUMP JUMPDEST TIMESTAMP PUSH32 0x0 DUP2 LT PUSH2 0x1153 JUMPI PUSH1 0x40 MLOAD PUSH3 0x461BCD PUSH1 0xE5 SHL DUP2 MSTORE PUSH1 0x20 PUSH1 0x4 DUP3 ADD MSTORE PUSH1 0x4D PUSH1 0x24 DUP3 ADD MSTORE PUSH32 0x5072697661746553616C65436F6E74726163743A2043616E6E6F74207472616E PUSH1 0x44 DUP3 ADD MSTORE PUSH32 0x736665722062656E6566696369617279207768656E2076657374696E6720616C PUSH1 0x64 DUP3 ADD MSTORE PUSH13 0x1C9958591E481CDD185C9D1959 PUSH1 0x9A SHL PUSH1 0x84 DUP3 ADD MSTORE PUSH1 0xA4 ADD PUSH2 0x69B JUMP JUMPDEST PUSH1 0x0 SLOAD PUSH1 0x1 PUSH1 0x1 PUSH1 0xA0 SHL SUB AND CALLER EQ DUP1 PUSH2 0x11C3 JUMPI PUSH1 0x40 MLOAD PUSH3 0x461BCD PUSH1 0xE5 SHL DUP2 MSTORE PUSH1 0x20 PUSH1 0x4 DUP3 ADD MSTORE PUSH1 0x2C PUSH1 0x24 DUP3 ADD MSTORE PUSH32 0x5072697661746553616C65436F6E74726163743A206F6E6C79206F776E657220 PUSH1 0x44 DUP3 ADD MSTORE PUSH12 0x31B0B7103A3930B739B332B9 PUSH1 0xA1 SHL PUSH1 0x64 DUP3 ADD MSTORE PUSH1 0x84 ADD PUSH2 0x69B JUMP JUMPDEST PUSH1 0x1 PUSH1 0x1 PUSH1 0xA0 SHL SUB DUP6 AND PUSH1 0x0 SWAP1 DUP2 MSTORE PUSH1 0xA PUSH1 0x20 MSTORE PUSH1 0x40 DUP2 KECCAK256 PUSH1 0x2 DUP2 ADD SLOAD PUSH1 0x1 DUP3 ADD SLOAD SWAP2 SWAP3 SWAP2 PUSH2 0x11F1 SWAP2 PUSH2 0x1E0C JUMP JUMPDEST SWAP1 POP PUSH1 0x0 DUP2 GT PUSH2 0x125B JUMPI PUSH1 0x40 MLOAD PUSH3 0x461BCD PUSH1 0xE5 SHL DUP2 MSTORE PUSH1 0x20 PUSH1 0x4 DUP3 ADD MSTORE PUSH1 0x2F PUSH1 0x24 DUP3 ADD MSTORE PUSH32 0x5072697661746553616C65436F6E74726163743A206E6F206D6F726520746F6B PUSH1 0x44 DUP3 ADD MSTORE PUSH15 0x32B739903A37903A3930B739B332B9 PUSH1 0x89 SHL PUSH1 0x64 DUP3 ADD MSTORE PUSH1 0x84 ADD PUSH2 0x69B JUMP JUMPDEST PUSH1 0x1 DUP3 ADD SLOAD PUSH2 0x126A SWAP1 DUP3 PUSH2 0x1E0C JUMP JUMPDEST PUSH1 0x1 DUP1 DUP5 ADD SWAP2 SWAP1 SWAP2 SSTORE PUSH1 0x1 PUSH1 0x1 PUSH1 0xA0 SHL SUB DUP8 AND PUSH1 0x0 SWAP1 DUP2 MSTORE PUSH1 0xA PUSH1 0x20 MSTORE PUSH1 0x40 SWAP1 KECCAK256 SLOAD PUSH1 0xFF AND ISZERO ISZERO EQ ISZERO PUSH2 0x12DE JUMPI PUSH1 0x1 PUSH1 0x1 PUSH1 0xA0 SHL SUB DUP7 AND PUSH1 0x0 SWAP1 DUP2 MSTORE PUSH1 0xA PUSH1 0x20 MSTORE PUSH1 0x40 SWAP1 KECCAK256 PUSH1 0x1 ADD SLOAD PUSH2 0x12BD SWAP1 DUP3 PUSH2 0x1D00 JUMP JUMPDEST PUSH1 0x1 PUSH1 0x1 PUSH1 0xA0 SHL SUB DUP8 AND PUSH1 0x0 SWAP1 DUP2 MSTORE PUSH1 0xA PUSH1 0x20 MSTORE PUSH1 0x40 SWAP1 KECCAK256 PUSH1 0x1 ADD SSTORE PUSH2 0x1359 JUMP JUMPDEST PUSH1 0x40 DUP1 MLOAD PUSH1 0x80 DUP2 ADD DUP3 MSTORE PUSH1 0x1 DUP1 DUP3 MSTORE PUSH1 0x1 PUSH1 0x1 PUSH1 0xA0 SHL SUB DUP10 DUP2 AND PUSH1 0x20 DUP1 DUP6 ADD DUP3 DUP2 MSTORE DUP6 DUP8 ADD DUP9 DUP2 MSTORE PUSH1 0x0 PUSH1 0x60 DUP9 ADD DUP2 DUP2 MSTORE SWAP5 DUP2 MSTORE PUSH1 0xA SWAP1 SWAP4 MSTORE SWAP7 SWAP1 SWAP2 KECCAK256 SWAP5 MLOAD DUP6 SLOAD SWAP2 MLOAD PUSH1 0x1 PUSH1 0x1 PUSH1 0xA8 SHL SUB NOT SWAP1 SWAP3 AND SWAP1 ISZERO ISZERO PUSH2 0x100 PUSH1 0x1 PUSH1 0xA8 SHL SUB NOT AND OR PUSH2 0x100 SWAP2 SWAP1 SWAP4 AND MUL SWAP2 SWAP1 SWAP2 OR DUP4 SSTORE SWAP3 MLOAD SWAP1 DUP3 ADD SSTORE SWAP1 MLOAD PUSH1 0x2 SWAP1 SWAP2 ADD SSTORE JUMPDEST PUSH1 0x40 DUP1 MLOAD PUSH1 0x1 PUSH1 0x1 PUSH1 0xA0 SHL SUB DUP1 DUP11 AND DUP3 MSTORE DUP9 AND PUSH1 0x20 DUP3 ADD MSTORE PUSH32 0xFBE993C87B521DCEB251DE21F65269F508A499C8545576CC8C1265D423DA2B1C SWAP2 ADD PUSH2 0x94A JUMP JUMPDEST PUSH1 0x0 SLOAD PUSH1 0x1 PUSH1 0x1 PUSH1 0xA0 SHL SUB AND CALLER EQ PUSH2 0x13C3 JUMPI PUSH1 0x40 MLOAD PUSH3 0x461BCD PUSH1 0xE5 SHL DUP2 MSTORE PUSH1 0x4 ADD PUSH2 0x69B SWAP1 PUSH2 0x2460 JUMP JUMPDEST PUSH1 0x0 JUMPDEST DUP2 DUP2 LT ISZERO PUSH2 0xF6D JUMPI PUSH1 0x1 PUSH1 0x9 PUSH1 0x0 DUP6 DUP6 DUP6 DUP2 DUP2 LT PUSH2 0x13F4 JUMPI PUSH4 0x4E487B71 PUSH1 0xE0 SHL PUSH1 0x0 MSTORE PUSH1 0x32 PUSH1 0x4 MSTORE PUSH1 0x24 PUSH1 0x0 REVERT JUMPDEST SWAP1 POP PUSH1 0x20 MUL ADD PUSH1 0x20 DUP2 ADD SWAP1 PUSH2 0x1409 SWAP2 SWAP1 PUSH2 0x217F JUMP JUMPDEST PUSH1 0x1 PUSH1 0x1 PUSH1 0xA0 SHL SUB AND DUP2 MSTORE PUSH1 0x20 DUP2 ADD SWAP2 SWAP1 SWAP2 MSTORE PUSH1 0x40 ADD PUSH1 0x0 KECCAK256 DUP1 SLOAD PUSH1 0xFF NOT AND SWAP2 ISZERO ISZERO SWAP2 SWAP1 SWAP2 OR SWAP1 SSTORE DUP1 PUSH2 0x143B DUP2 PUSH2 0x2566 JUMP JUMPDEST SWAP2 POP POP PUSH2 0x13C6 JUMP JUMPDEST PUSH1 0x0 PUSH1 0x7 DUP3 DUP2 SLOAD DUP2 LT PUSH2 0x1466 JUMPI PUSH4 0x4E487B71 PUSH1 0xE0 SHL PUSH1 0x0 MSTORE PUSH1 0x32 PUSH1 0x4 MSTORE PUSH1 0x24 PUSH1 0x0 REVERT JUMPDEST SWAP1 PUSH1 0x0 MSTORE PUSH1 0x20 PUSH1 0x0 KECCAK256 ADD SLOAD SWAP1 POP PUSH1 0x0 DUP2 GT PUSH2 0x14D3 JUMPI PUSH1 0x40 MLOAD PUSH3 0x461BCD PUSH1 0xE5 SHL DUP2 MSTORE PUSH1 0x20 PUSH1 0x4 DUP3 ADD MSTORE PUSH1 0x27 PUSH1 0x24 DUP3 ADD MSTORE PUSH32 0x5072697661746553616C65436F6E74726163743A20696E76616C696420706163 PUSH1 0x44 DUP3 ADD MSTORE PUSH7 0x1AD859D9481A59 PUSH1 0xCA SHL PUSH1 0x64 DUP3 ADD MSTORE PUSH1 0x84 ADD PUSH2 0x69B JUMP JUMPDEST PUSH1 0x0 PUSH1 0x8 DUP6 DUP6 PUSH1 0x40 MLOAD PUSH2 0x14E7 SWAP3 SWAP2 SWAP1 PUSH2 0x23CD JUMP JUMPDEST SWAP1 DUP2 MSTORE PUSH1 0x40 MLOAD SWAP1 DUP2 SWAP1 SUB PUSH1 0x20 ADD SWAP1 KECCAK256 SLOAD PUSH1 0x6 SLOAD PUSH1 0x1 PUSH1 0x1 PUSH1 0xA0 SHL SUB SWAP1 SWAP2 AND SWAP2 POP PUSH1 0x0 SWAP1 PUSH2 0x1526 SWAP1 PUSH2 0x1520 DUP6 PUSH8 0xDE0B6B3A7640000 PUSH2 0x1EBA JUMP JUMPDEST SWAP1 PUSH2 0x1EC6 JUMP JUMPDEST SWAP1 POP DUP1 ADDRESS PUSH1 0x1 PUSH1 0x1 PUSH1 0xA0 SHL SUB AND PUSH4 0x90BE10CC PUSH1 0x40 MLOAD DUP2 PUSH4 0xFFFFFFFF AND PUSH1 0xE0 SHL DUP2 MSTORE PUSH1 0x4 ADD PUSH1 0x20 PUSH1 0x40 MLOAD DUP1 DUP4 SUB DUP2 DUP7 DUP1 EXTCODESIZE ISZERO DUP1 ISZERO PUSH2 0x1562 JUMPI PUSH1 0x0 DUP1 REVERT JUMPDEST POP GAS STATICCALL ISZERO DUP1 ISZERO PUSH2 0x1576 JUMPI RETURNDATASIZE PUSH1 0x0 DUP1 RETURNDATACOPY RETURNDATASIZE PUSH1 0x0 REVERT JUMPDEST POP POP POP POP PUSH1 0x40 MLOAD RETURNDATASIZE PUSH1 0x1F NOT PUSH1 0x1F DUP3 ADD AND DUP3 ADD DUP1 PUSH1 0x40 MSTORE POP DUP2 ADD SWAP1 PUSH2 0x159A SWAP2 SWAP1 PUSH2 0x2378 JUMP JUMPDEST LT ISZERO PUSH2 0x15FD JUMPI PUSH1 0x40 MLOAD PUSH3 0x461BCD PUSH1 0xE5 SHL DUP2 MSTORE PUSH1 0x20 PUSH1 0x4 DUP3 ADD MSTORE PUSH1 0x2C PUSH1 0x24 DUP3 ADD MSTORE PUSH32 0x5072697661746553616C65436F6E74726163743A206E6F7420656E6F75676820 PUSH1 0x44 DUP3 ADD MSTORE PUSH12 0x66756E647320746F20627579 PUSH1 0xA0 SHL PUSH1 0x64 DUP3 ADD MSTORE PUSH1 0x84 ADD PUSH2 0x69B JUMP JUMPDEST PUSH1 0x40 MLOAD PUSH4 0x23B872DD PUSH1 0xE0 SHL DUP2 MSTORE CALLER PUSH1 0x4 DUP3 ADD MSTORE ADDRESS PUSH1 0x24 DUP3 ADD MSTORE PUSH1 0x44 DUP2 ADD DUP5 SWAP1 MSTORE PUSH1 0x1 PUSH1 0x1 PUSH1 0xA0 SHL SUB DUP4 AND SWAP1 PUSH4 0x23B872DD SWAP1 PUSH1 0x64 ADD PUSH1 0x20 PUSH1 0x40 MLOAD DUP1 DUP4 SUB DUP2 PUSH1 0x0 DUP8 DUP1 EXTCODESIZE ISZERO DUP1 ISZERO PUSH2 0x164B JUMPI PUSH1 0x0 DUP1 REVERT JUMPDEST POP GAS CALL ISZERO DUP1 ISZERO PUSH2 0x165F JUMPI RETURNDATASIZE PUSH1 0x0 DUP1 RETURNDATACOPY RETURNDATASIZE PUSH1 0x0 REVERT JUMPDEST POP POP POP POP PUSH1 0x40 MLOAD RETURNDATASIZE PUSH1 0x1F NOT PUSH1 0x1F DUP3 ADD AND DUP3 ADD DUP1 PUSH1 0x40 MSTORE POP DUP2 ADD SWAP1 PUSH2 0x1683 SWAP2 SWAP1 PUSH2 0x2264 JUMP JUMPDEST PUSH2 0x16C8 JUMPI PUSH1 0x40 MLOAD PUSH3 0x461BCD PUSH1 0xE5 SHL DUP2 MSTORE PUSH1 0x20 PUSH1 0x4 DUP3 ADD MSTORE PUSH1 0x16 PUSH1 0x24 DUP3 ADD MSTORE PUSH22 0x10DBDD5B19081B9BDD081D1C985B9CD9995C881554D1 PUSH1 0x52 SHL PUSH1 0x44 DUP3 ADD MSTORE PUSH1 0x64 ADD PUSH2 0x69B JUMP JUMPDEST CALLER PUSH1 0x0 SWAP1 DUP2 MSTORE PUSH1 0xA PUSH1 0x20 MSTORE PUSH1 0x40 SWAP1 KECCAK256 SLOAD PUSH1 0xFF AND ISZERO ISZERO PUSH1 0x1 EQ ISZERO PUSH2 0x171A JUMPI CALLER PUSH1 0x0 SWAP1 DUP2 MSTORE PUSH1 0xA PUSH1 0x20 MSTORE PUSH1 0x40 SWAP1 KECCAK256 PUSH1 0x1 ADD SLOAD PUSH2 0x1702 SWAP1 DUP3 PUSH2 0x1D00 JUMP JUMPDEST CALLER PUSH1 0x0 SWAP1 DUP2 MSTORE PUSH1 0xA PUSH1 0x20 MSTORE PUSH1 0x40 SWAP1 KECCAK256 PUSH1 0x1 ADD SSTORE PUSH2 0x1792 JUMP JUMPDEST PUSH1 0x40 DUP1 MLOAD PUSH1 0x80 DUP2 ADD DUP3 MSTORE PUSH1 0x1 DUP1 DUP3 MSTORE CALLER PUSH1 0x20 DUP1 DUP5 ADD DUP3 DUP2 MSTORE DUP5 DUP7 ADD DUP8 DUP2 MSTORE PUSH1 0x0 PUSH1 0x60 DUP8 ADD DUP2 DUP2 MSTORE SWAP5 DUP2 MSTORE PUSH1 0xA SWAP1 SWAP4 MSTORE SWAP6 SWAP1 SWAP2 KECCAK256 SWAP4 MLOAD DUP5 SLOAD SWAP2 MLOAD PUSH1 0x1 PUSH1 0x1 PUSH1 0xA8 SHL SUB NOT SWAP1 SWAP3 AND SWAP1 ISZERO ISZERO PUSH2 0x100 PUSH1 0x1 PUSH1 0xA8 SHL SUB NOT AND OR PUSH2 0x100 PUSH1 0x1 PUSH1 0x1 PUSH1 0xA0 SHL SUB SWAP1 SWAP3 AND SWAP2 SWAP1 SWAP2 MUL OR DUP4 SSTORE SWAP3 MLOAD SWAP1 DUP3 ADD SSTORE SWAP1 MLOAD PUSH1 0x2 SWAP1 SWAP2 ADD SSTORE JUMPDEST PUSH1 0xB SLOAD PUSH2 0x179F SWAP1 DUP3 PUSH2 0x1D00 JUMP JUMPDEST PUSH1 0xB SSTORE PUSH1 0x4 SLOAD PUSH2 0x17AF SWAP1 DUP3 PUSH2 0x1D00 JUMP JUMPDEST PUSH1 0x4 SSTORE PUSH1 0x40 DUP1 MLOAD CALLER DUP2 MSTORE PUSH1 0x20 DUP2 ADD DUP6 SWAP1 MSTORE SWAP1 DUP2 ADD DUP3 SWAP1 MSTORE PUSH32 0x6D7C513D5F4AB303351ED7F68DA41871B2D39C7093BB2A94F5D5A3BA63A6928 SWAP1 PUSH1 0x60 ADD PUSH1 0x40 MLOAD DUP1 SWAP2 SUB SWAP1 LOG1 POP POP POP POP POP POP JUMP JUMPDEST PUSH1 0x1 PUSH1 0x1 PUSH1 0xA0 SHL SUB DUP3 AND PUSH1 0x0 SWAP1 DUP2 MSTORE PUSH1 0xA PUSH1 0x20 MSTORE PUSH1 0x40 DUP2 KECCAK256 SLOAD DUP4 SWAP1 PUSH1 0xFF AND ISZERO ISZERO PUSH1 0x1 EQ PUSH2 0x183A JUMPI PUSH1 0x40 MLOAD PUSH3 0x461BCD PUSH1 0xE5 SHL DUP2 MSTORE PUSH1 0x4 ADD PUSH2 0x69B SWAP1 PUSH2 0x2410 JUMP JUMPDEST CALLER PUSH1 0x1 PUSH1 0x1 PUSH1 0xA0 SHL SUB DUP6 AND EQ PUSH1 0x0 PUSH2 0x185A PUSH1 0x0 SLOAD PUSH1 0x1 PUSH1 0x1 PUSH1 0xA0 SHL SUB AND SWAP1 JUMP JUMPDEST PUSH1 0x1 PUSH1 0x1 PUSH1 0xA0 SHL SUB AND CALLER PUSH1 0x1 PUSH1 0x1 PUSH1 0xA0 SHL SUB AND EQ SWAP1 POP DUP2 DUP1 PUSH2 0x1879 JUMPI POP DUP1 JUMPDEST PUSH2 0x18FF JUMPI PUSH1 0x40 MLOAD PUSH3 0x461BCD PUSH1 0xE5 SHL DUP2 MSTORE PUSH1 0x20 PUSH1 0x4 DUP3 ADD MSTORE PUSH1 0x4B PUSH1 0x24 DUP3 ADD MSTORE PUSH32 0x5072697661746553616C65436F6E74726163743A206F6E6C792062656E656669 PUSH1 0x44 DUP3 ADD MSTORE PUSH32 0x636961727920616E64206F776E65722063616E2071756572792072656C656173 PUSH1 0x64 DUP3 ADD MSTORE PUSH11 0x18589B1948185B5BDD5B9D PUSH1 0xAA SHL PUSH1 0x84 DUP3 ADD MSTORE PUSH1 0xA4 ADD PUSH2 0x69B JUMP JUMPDEST PUSH1 0x1 PUSH1 0x1 PUSH1 0xA0 SHL SUB DUP7 AND PUSH1 0x0 SWAP1 DUP2 MSTORE PUSH1 0xA PUSH1 0x20 MSTORE PUSH1 0x40 SWAP1 KECCAK256 PUSH32 0x0 DUP7 LT ISZERO PUSH2 0x194B JUMPI PUSH1 0x0 SWAP5 POP POP POP POP PUSH2 0x1A19 JUMP JUMPDEST PUSH32 0x0 DUP7 LT PUSH2 0x198F JUMPI PUSH1 0x2 DUP2 ADD SLOAD PUSH1 0x1 DUP3 ADD SLOAD PUSH2 0x1985 SWAP2 PUSH2 0x1E0C JUMP JUMPDEST SWAP5 POP POP POP POP PUSH2 0x1A19 JUMP JUMPDEST PUSH1 0x0 PUSH2 0x19C2 PUSH3 0x278D00 PUSH2 0x1520 DUP10 PUSH32 0x0 PUSH2 0x1E0C JUMP JUMPDEST SWAP1 POP PUSH1 0x0 PUSH2 0x19F8 PUSH3 0x278D00 PUSH2 0x19DF PUSH4 0x1B9A680 PUSH4 0x3944280 PUSH2 0x2523 JUMP JUMPDEST PUSH2 0x19E9 SWAP2 SWAP1 PUSH2 0x24E4 JUMP JUMPDEST PUSH1 0x1 DUP6 ADD SLOAD PUSH2 0x1520 SWAP1 DUP6 PUSH2 0x1EBA JUMP JUMPDEST SWAP1 POP PUSH2 0x1A11 DUP4 PUSH1 0x2 ADD SLOAD DUP3 PUSH2 0x1E0C SWAP1 SWAP2 SWAP1 PUSH4 0xFFFFFFFF AND JUMP JUMPDEST SWAP7 POP POP POP POP POP POP JUMPDEST POP SWAP3 SWAP2 POP POP JUMP JUMPDEST PUSH1 0x0 SLOAD PUSH1 0x1 PUSH1 0x1 PUSH1 0xA0 SHL SUB AND CALLER EQ PUSH2 0x1A4A JUMPI PUSH1 0x40 MLOAD PUSH3 0x461BCD PUSH1 0xE5 SHL DUP2 MSTORE PUSH1 0x4 ADD PUSH2 0x69B SWAP1 PUSH2 0x2460 JUMP JUMPDEST PUSH2 0xEC1 PUSH2 0x1A5F PUSH1 0x0 SLOAD PUSH1 0x1 PUSH1 0x1 PUSH1 0xA0 SHL SUB AND SWAP1 JUMP JUMPDEST ADDRESS PUSH1 0x1 PUSH1 0x1 PUSH1 0xA0 SHL SUB AND PUSH4 0x90BE10CC PUSH1 0x40 MLOAD DUP2 PUSH4 0xFFFFFFFF AND PUSH1 0xE0 SHL DUP2 MSTORE PUSH1 0x4 ADD PUSH1 0x20 PUSH1 0x40 MLOAD DUP1 DUP4 SUB DUP2 DUP7 DUP1 EXTCODESIZE ISZERO DUP1 ISZERO PUSH2 0x1A98 JUMPI PUSH1 0x0 DUP1 REVERT JUMPDEST POP GAS STATICCALL ISZERO DUP1 ISZERO PUSH2 0x1AAC JUMPI RETURNDATASIZE PUSH1 0x0 DUP1 RETURNDATACOPY RETURNDATASIZE PUSH1 0x0 REVERT JUMPDEST POP POP POP POP PUSH1 0x40 MLOAD RETURNDATASIZE PUSH1 0x1F NOT PUSH1 0x1F DUP3 ADD AND DUP3 ADD DUP1 PUSH1 0x40 MSTORE POP DUP2 ADD SWAP1 PUSH2 0x1AD0 SWAP2 SWAP1 PUSH2 0x2378 JUMP JUMPDEST PUSH1 0x1 PUSH1 0x1 PUSH1 0xA0 SHL SUB PUSH32 0x0 AND SWAP2 SWAP1 PUSH2 0x1E18 JUMP JUMPDEST PUSH1 0x0 SLOAD PUSH1 0x1 PUSH1 0x1 PUSH1 0xA0 SHL SUB AND CALLER EQ PUSH2 0x1B2B JUMPI PUSH1 0x40 MLOAD PUSH3 0x461BCD PUSH1 0xE5 SHL DUP2 MSTORE PUSH1 0x4 ADD PUSH2 0x69B SWAP1 PUSH2 0x2460 JUMP JUMPDEST PUSH1 0x0 SELFBALANCE GT PUSH2 0x1B94 JUMPI PUSH1 0x40 MLOAD PUSH3 0x461BCD PUSH1 0xE5 SHL DUP2 MSTORE PUSH1 0x20 PUSH1 0x4 DUP3 ADD MSTORE PUSH1 0x30 PUSH1 0x24 DUP3 ADD MSTORE PUSH32 0x5072697661746553616C65436F6E74726163743A20436F6E7472616374277320 PUSH1 0x44 DUP3 ADD MSTORE PUSH16 0x62616C616E636520697320656D707479 PUSH1 0x80 SHL PUSH1 0x64 DUP3 ADD MSTORE PUSH1 0x84 ADD PUSH2 0x69B JUMP JUMPDEST PUSH1 0x0 DUP1 SLOAD PUSH1 0x40 MLOAD PUSH1 0x1 PUSH1 0x1 PUSH1 0xA0 SHL SUB SWAP1 SWAP2 AND SWAP2 SELFBALANCE DUP1 ISZERO PUSH2 0x8FC MUL SWAP3 SWAP1 SWAP2 DUP2 DUP2 DUP2 DUP6 DUP9 DUP9 CALL SWAP4 POP POP POP POP ISZERO DUP1 ISZERO PUSH2 0x1BCE JUMPI RETURNDATASIZE PUSH1 0x0 DUP1 RETURNDATACOPY RETURNDATASIZE PUSH1 0x0 REVERT JUMPDEST POP JUMP JUMPDEST CALLER PUSH1 0x0 DUP2 DUP2 MSTORE PUSH1 0xA PUSH1 0x20 MSTORE PUSH1 0x40 DUP2 KECCAK256 SLOAD SWAP1 SWAP2 SWAP1 PUSH1 0xFF AND ISZERO ISZERO PUSH1 0x1 EQ PUSH2 0x1C08 JUMPI PUSH1 0x40 MLOAD PUSH3 0x461BCD PUSH1 0xE5 SHL DUP2 MSTORE PUSH1 0x4 ADD PUSH2 0x69B SWAP1 PUSH2 0x2410 JUMP JUMPDEST CALLER PUSH1 0x0 SWAP1 DUP2 MSTORE PUSH1 0xA PUSH1 0x20 SWAP1 DUP2 MSTORE PUSH1 0x40 SWAP2 DUP3 SWAP1 KECCAK256 DUP3 MLOAD PUSH1 0x80 DUP2 ADD DUP5 MSTORE DUP2 SLOAD PUSH1 0xFF DUP2 AND ISZERO ISZERO DUP3 MSTORE PUSH2 0x100 SWAP1 DIV PUSH1 0x1 PUSH1 0x1 PUSH1 0xA0 SHL SUB AND SWAP3 DUP2 ADD SWAP3 SWAP1 SWAP3 MSTORE PUSH1 0x1 DUP2 ADD SLOAD SWAP3 DUP3 ADD SWAP3 SWAP1 SWAP3 MSTORE PUSH1 0x2 DUP3 ADD SLOAD PUSH1 0x60 DUP3 ADD MSTORE PUSH2 0x1C61 SWAP1 PUSH2 0x1D13 JUMP JUMPDEST SWAP3 POP POP POP SWAP1 JUMP JUMPDEST PUSH1 0x0 SLOAD PUSH1 0x1 PUSH1 0x1 PUSH1 0xA0 SHL SUB AND CALLER EQ PUSH2 0x1C92 JUMPI PUSH1 0x40 MLOAD PUSH3 0x461BCD PUSH1 0xE5 SHL DUP2 MSTORE PUSH1 0x4 ADD PUSH2 0x69B SWAP1 PUSH2 0x2460 JUMP JUMPDEST PUSH1 0x1 PUSH1 0x1 PUSH1 0xA0 SHL SUB DUP2 AND PUSH2 0x1CF7 JUMPI PUSH1 0x40 MLOAD PUSH3 0x461BCD PUSH1 0xE5 SHL DUP2 MSTORE PUSH1 0x20 PUSH1 0x4 DUP3 ADD MSTORE PUSH1 0x26 PUSH1 0x24 DUP3 ADD MSTORE PUSH32 0x4F776E61626C653A206E6577206F776E657220697320746865207A65726F2061 PUSH1 0x44 DUP3 ADD MSTORE PUSH6 0x646472657373 PUSH1 0xD0 SHL PUSH1 0x64 DUP3 ADD MSTORE PUSH1 0x84 ADD PUSH2 0x69B JUMP JUMPDEST PUSH2 0x1BCE DUP2 PUSH2 0x1E6A JUMP JUMPDEST PUSH1 0x0 PUSH2 0x1D0C DUP3 DUP5 PUSH2 0x24CC JUMP JUMPDEST SWAP4 SWAP3 POP POP POP JUMP JUMPDEST PUSH1 0x0 TIMESTAMP PUSH32 0x0 DUP2 LT ISZERO PUSH2 0x1D47 JUMPI POP PUSH1 0x0 SWAP3 SWAP2 POP POP JUMP JUMPDEST PUSH32 0x0 DUP2 LT PUSH2 0x1D81 JUMPI PUSH1 0x60 DUP4 ADD MLOAD PUSH1 0x40 DUP5 ADD MLOAD PUSH2 0x1D0C SWAP2 PUSH2 0x1E0C JUMP JUMPDEST PUSH1 0x0 PUSH2 0x1DB4 PUSH3 0x278D00 PUSH2 0x1520 DUP5 PUSH32 0x0 PUSH2 0x1E0C JUMP JUMPDEST SWAP1 POP PUSH1 0x0 PUSH2 0x1DEA PUSH3 0x278D00 PUSH2 0x1DD1 PUSH4 0x1B9A680 PUSH4 0x3944280 PUSH2 0x2523 JUMP JUMPDEST PUSH2 0x1DDB SWAP2 SWAP1 PUSH2 0x24E4 JUMP JUMPDEST PUSH1 0x40 DUP8 ADD MLOAD PUSH2 0x1520 SWAP1 DUP6 PUSH2 0x1EBA JUMP JUMPDEST SWAP1 POP PUSH2 0x1E03 DUP6 PUSH1 0x60 ADD MLOAD DUP3 PUSH2 0x1E0C SWAP1 SWAP2 SWAP1 PUSH4 0xFFFFFFFF AND JUMP JUMPDEST SWAP6 SWAP5 POP POP POP POP POP JUMP JUMPDEST PUSH1 0x0 PUSH2 0x1D0C DUP3 DUP5 PUSH2 0x2523 JUMP JUMPDEST PUSH1 0x40 DUP1 MLOAD PUSH1 0x1 PUSH1 0x1 PUSH1 0xA0 SHL SUB DUP5 AND PUSH1 0x24 DUP3 ADD MSTORE PUSH1 0x44 DUP1 DUP3 ADD DUP5 SWAP1 MSTORE DUP3 MLOAD DUP1 DUP4 SUB SWAP1 SWAP2 ADD DUP2 MSTORE PUSH1 0x64 SWAP1 SWAP2 ADD SWAP1 SWAP2 MSTORE PUSH1 0x20 DUP2 ADD DUP1 MLOAD PUSH1 0x1 PUSH1 0x1 PUSH1 0xE0 SHL SUB AND PUSH4 0xA9059CBB PUSH1 0xE0 SHL OR SWAP1 MSTORE PUSH2 0xF6D SWAP1 DUP5 SWAP1 PUSH2 0x1ED2 JUMP JUMPDEST PUSH1 0x0 DUP1 SLOAD PUSH1 0x1 PUSH1 0x1 PUSH1 0xA0 SHL SUB DUP4 DUP2 AND PUSH1 0x1 PUSH1 0x1 PUSH1 0xA0 SHL SUB NOT DUP4 AND DUP2 OR DUP5 SSTORE PUSH1 0x40 MLOAD SWAP2 SWAP1 SWAP3 AND SWAP3 DUP4 SWAP2 PUSH32 0x8BE0079C531659141344CD1FD0A4F28419497F9722A3DAAFE3B4186F6B6457E0 SWAP2 SWAP1 LOG3 POP POP JUMP JUMPDEST PUSH1 0x0 PUSH2 0x1D0C DUP3 DUP5 PUSH2 0x2504 JUMP JUMPDEST PUSH1 0x0 PUSH2 0x1D0C DUP3 DUP5 PUSH2 0x24E4 JUMP JUMPDEST PUSH1 0x0 PUSH2 0x1F27 DUP3 PUSH1 0x40 MLOAD DUP1 PUSH1 0x40 ADD PUSH1 0x40 MSTORE DUP1 PUSH1 0x20 DUP2 MSTORE PUSH1 0x20 ADD PUSH32 0x5361666545524332303A206C6F772D6C6576656C2063616C6C206661696C6564 DUP2 MSTORE POP DUP6 PUSH1 0x1 PUSH1 0x1 PUSH1 0xA0 SHL SUB AND PUSH2 0x1FA4 SWAP1 SWAP3 SWAP2 SWAP1 PUSH4 0xFFFFFFFF AND JUMP JUMPDEST DUP1 MLOAD SWAP1 SWAP2 POP ISZERO PUSH2 0xF6D JUMPI DUP1 DUP1 PUSH1 0x20 ADD SWAP1 MLOAD DUP2 ADD SWAP1 PUSH2 0x1F45 SWAP2 SWAP1 PUSH2 0x2264 JUMP JUMPDEST PUSH2 0xF6D JUMPI PUSH1 0x40 MLOAD PUSH3 0x461BCD PUSH1 0xE5 SHL DUP2 MSTORE PUSH1 0x20 PUSH1 0x4 DUP3 ADD MSTORE PUSH1 0x2A PUSH1 0x24 DUP3 ADD MSTORE PUSH32 0x5361666545524332303A204552433230206F7065726174696F6E20646964206E PUSH1 0x44 DUP3 ADD MSTORE PUSH10 0x1BDD081CDD58D8D95959 PUSH1 0xB2 SHL PUSH1 0x64 DUP3 ADD MSTORE PUSH1 0x84 ADD PUSH2 0x69B JUMP JUMPDEST PUSH1 0x60 PUSH2 0x1FB3 DUP5 DUP5 PUSH1 0x0 DUP6 PUSH2 0x1FBB JUMP JUMPDEST SWAP5 SWAP4 POP POP POP POP JUMP JUMPDEST PUSH1 0x60 DUP3 SELFBALANCE LT ISZERO PUSH2 0x201C JUMPI PUSH1 0x40 MLOAD PUSH3 0x461BCD PUSH1 0xE5 SHL DUP2 MSTORE PUSH1 0x20 PUSH1 0x4 DUP3 ADD MSTORE PUSH1 0x26 PUSH1 0x24 DUP3 ADD MSTORE PUSH32 0x416464726573733A20696E73756666696369656E742062616C616E636520666F PUSH1 0x44 DUP3 ADD MSTORE PUSH6 0x1C8818D85B1B PUSH1 0xD2 SHL PUSH1 0x64 DUP3 ADD MSTORE PUSH1 0x84 ADD PUSH2 0x69B JUMP JUMPDEST DUP5 EXTCODESIZE PUSH2 0x206A JUMPI PUSH1 0x40 MLOAD PUSH3 0x461BCD PUSH1 0xE5 SHL DUP2 MSTORE PUSH1 0x20 PUSH1 0x4 DUP3 ADD MSTORE PUSH1 0x1D PUSH1 0x24 DUP3 ADD MSTORE PUSH32 0x416464726573733A2063616C6C20746F206E6F6E2D636F6E7472616374000000 PUSH1 0x44 DUP3 ADD MSTORE PUSH1 0x64 ADD PUSH2 0x69B JUMP JUMPDEST PUSH1 0x0 DUP1 DUP7 PUSH1 0x1 PUSH1 0x1 PUSH1 0xA0 SHL SUB AND DUP6 DUP8 PUSH1 0x40 MLOAD PUSH2 0x2086 SWAP2 SWAP1 PUSH2 0x23B1 JUMP JUMPDEST PUSH1 0x0 PUSH1 0x40 MLOAD DUP1 DUP4 SUB DUP2 DUP6 DUP8 GAS CALL SWAP3 POP POP POP RETURNDATASIZE DUP1 PUSH1 0x0 DUP2 EQ PUSH2 0x20C3 JUMPI PUSH1 0x40 MLOAD SWAP2 POP PUSH1 0x1F NOT PUSH1 0x3F RETURNDATASIZE ADD AND DUP3 ADD PUSH1 0x40 MSTORE RETURNDATASIZE DUP3 MSTORE RETURNDATASIZE PUSH1 0x0 PUSH1 0x20 DUP5 ADD RETURNDATACOPY PUSH2 0x20C8 JUMP JUMPDEST PUSH1 0x60 SWAP2 POP JUMPDEST POP SWAP2 POP SWAP2 POP PUSH2 0x20D8 DUP3 DUP3 DUP7 PUSH2 0x20E3 JUMP JUMPDEST SWAP8 SWAP7 POP POP POP POP POP POP POP JUMP JUMPDEST PUSH1 0x60 DUP4 ISZERO PUSH2 0x20F2 JUMPI POP DUP2 PUSH2 0x1D0C JUMP JUMPDEST DUP3 MLOAD ISZERO PUSH2 0x2102 JUMPI DUP3 MLOAD DUP1 DUP5 PUSH1 0x20 ADD REVERT JUMPDEST DUP2 PUSH1 0x40 MLOAD PUSH3 0x461BCD PUSH1 0xE5 SHL DUP2 MSTORE PUSH1 0x4 ADD PUSH2 0x69B SWAP2 SWAP1 PUSH2 0x23DD JUMP JUMPDEST DUP1 CALLDATALOAD PUSH1 0x1 PUSH1 0x1 PUSH1 0xA0 SHL SUB DUP2 AND DUP2 EQ PUSH2 0x2133 JUMPI PUSH1 0x0 DUP1 REVERT JUMPDEST SWAP2 SWAP1 POP JUMP JUMPDEST PUSH1 0x0 DUP1 DUP4 PUSH1 0x1F DUP5 ADD SLT PUSH2 0x2149 JUMPI DUP2 DUP3 REVERT JUMPDEST POP DUP2 CALLDATALOAD PUSH8 0xFFFFFFFFFFFFFFFF DUP2 GT ISZERO PUSH2 0x2160 JUMPI DUP2 DUP3 REVERT JUMPDEST PUSH1 0x20 DUP4 ADD SWAP2 POP DUP4 PUSH1 0x20 DUP3 DUP6 ADD ADD GT ISZERO PUSH2 0x2178 JUMPI PUSH1 0x0 DUP1 REVERT JUMPDEST SWAP3 POP SWAP3 SWAP1 POP JUMP JUMPDEST PUSH1 0x0 PUSH1 0x20 DUP3 DUP5 SUB SLT ISZERO PUSH2 0x2190 JUMPI DUP1 DUP2 REVERT JUMPDEST PUSH2 0x1D0C DUP3 PUSH2 0x211C JUMP JUMPDEST PUSH1 0x0 DUP1 PUSH1 0x40 DUP4 DUP6 SUB SLT ISZERO PUSH2 0x21AB JUMPI DUP1 DUP2 REVERT JUMPDEST PUSH2 0x21B4 DUP4 PUSH2 0x211C JUMP JUMPDEST SWAP2 POP PUSH2 0x21C2 PUSH1 0x20 DUP5 ADD PUSH2 0x211C JUMP JUMPDEST SWAP1 POP SWAP3 POP SWAP3 SWAP1 POP JUMP JUMPDEST PUSH1 0x0 DUP1 PUSH1 0x40 DUP4 DUP6 SUB SLT ISZERO PUSH2 0x21DD JUMPI DUP2 DUP3 REVERT JUMPDEST PUSH2 0x21E6 DUP4 PUSH2 0x211C JUMP JUMPDEST SWAP5 PUSH1 0x20 SWAP4 SWAP1 SWAP4 ADD CALLDATALOAD SWAP4 POP POP POP JUMP JUMPDEST PUSH1 0x0 DUP1 PUSH1 0x20 DUP4 DUP6 SUB SLT ISZERO PUSH2 0x2206 JUMPI DUP2 DUP3 REVERT JUMPDEST DUP3 CALLDATALOAD PUSH8 0xFFFFFFFFFFFFFFFF DUP1 DUP3 GT ISZERO PUSH2 0x221D JUMPI DUP4 DUP5 REVERT JUMPDEST DUP2 DUP6 ADD SWAP2 POP DUP6 PUSH1 0x1F DUP4 ADD SLT PUSH2 0x2230 JUMPI DUP4 DUP5 REVERT JUMPDEST DUP2 CALLDATALOAD DUP2 DUP2 GT ISZERO PUSH2 0x223E JUMPI DUP5 DUP6 REVERT JUMPDEST DUP7 PUSH1 0x20 DUP3 PUSH1 0x5 SHL DUP6 ADD ADD GT ISZERO PUSH2 0x2252 JUMPI DUP5 DUP6 REVERT JUMPDEST PUSH1 0x20 SWAP3 SWAP1 SWAP3 ADD SWAP7 SWAP2 SWAP6 POP SWAP1 SWAP4 POP POP POP POP JUMP JUMPDEST PUSH1 0x0 PUSH1 0x20 DUP3 DUP5 SUB SLT ISZERO PUSH2 0x2275 JUMPI DUP1 DUP2 REVERT JUMPDEST DUP2 MLOAD DUP1 ISZERO ISZERO DUP2 EQ PUSH2 0x1D0C JUMPI DUP2 DUP3 REVERT JUMPDEST PUSH1 0x0 DUP1 PUSH1 0x20 DUP4 DUP6 SUB SLT ISZERO PUSH2 0x2296 JUMPI DUP2 DUP3 REVERT JUMPDEST DUP3 CALLDATALOAD PUSH8 0xFFFFFFFFFFFFFFFF DUP2 GT ISZERO PUSH2 0x22AC JUMPI DUP3 DUP4 REVERT JUMPDEST PUSH2 0x22B8 DUP6 DUP3 DUP7 ADD PUSH2 0x2138 JUMP JUMPDEST SWAP1 SWAP7 SWAP1 SWAP6 POP SWAP4 POP POP POP POP JUMP JUMPDEST PUSH1 0x0 DUP1 PUSH1 0x0 PUSH1 0x40 DUP5 DUP7 SUB SLT ISZERO PUSH2 0x22D8 JUMPI DUP1 DUP2 REVERT JUMPDEST DUP4 CALLDATALOAD PUSH8 0xFFFFFFFFFFFFFFFF DUP2 GT ISZERO PUSH2 0x22EE JUMPI DUP2 DUP3 REVERT JUMPDEST PUSH2 0x22FA DUP7 DUP3 DUP8 ADD PUSH2 0x2138 JUMP JUMPDEST SWAP1 SWAP5 POP SWAP3 POP PUSH2 0x230D SWAP1 POP PUSH1 0x20 DUP6 ADD PUSH2 0x211C JUMP JUMPDEST SWAP1 POP SWAP3 POP SWAP3 POP SWAP3 JUMP JUMPDEST PUSH1 0x0 DUP1 PUSH1 0x0 PUSH1 0x40 DUP5 DUP7 SUB SLT ISZERO PUSH2 0x232A JUMPI DUP3 DUP4 REVERT JUMPDEST DUP4 CALLDATALOAD PUSH8 0xFFFFFFFFFFFFFFFF DUP2 GT ISZERO PUSH2 0x2340 JUMPI DUP4 DUP5 REVERT JUMPDEST PUSH2 0x234C DUP7 DUP3 DUP8 ADD PUSH2 0x2138 JUMP JUMPDEST SWAP1 SWAP8 SWAP1 SWAP7 POP PUSH1 0x20 SWAP6 SWAP1 SWAP6 ADD CALLDATALOAD SWAP5 SWAP4 POP POP POP POP JUMP JUMPDEST PUSH1 0x0 PUSH1 0x20 DUP3 DUP5 SUB SLT ISZERO PUSH2 0x2371 JUMPI DUP1 DUP2 REVERT JUMPDEST POP CALLDATALOAD SWAP2 SWAP1 POP JUMP JUMPDEST PUSH1 0x0 PUSH1 0x20 DUP3 DUP5 SUB SLT ISZERO PUSH2 0x2389 JUMPI DUP1 DUP2 REVERT JUMPDEST POP MLOAD SWAP2 SWAP1 POP JUMP JUMPDEST PUSH1 0x0 DUP1 PUSH1 0x40 DUP4 DUP6 SUB SLT ISZERO PUSH2 0x23A2 JUMPI DUP2 DUP3 REVERT JUMPDEST POP POP DUP1 CALLDATALOAD SWAP3 PUSH1 0x20 SWAP1 SWAP2 ADD CALLDATALOAD SWAP2 POP JUMP JUMPDEST PUSH1 0x0 DUP3 MLOAD PUSH2 0x23C3 DUP2 DUP5 PUSH1 0x20 DUP8 ADD PUSH2 0x253A JUMP JUMPDEST SWAP2 SWAP1 SWAP2 ADD SWAP3 SWAP2 POP POP JUMP JUMPDEST DUP2 DUP4 DUP3 CALLDATACOPY PUSH1 0x0 SWAP2 ADD SWAP1 DUP2 MSTORE SWAP2 SWAP1 POP JUMP JUMPDEST PUSH1 0x20 DUP2 MSTORE PUSH1 0x0 DUP3 MLOAD DUP1 PUSH1 0x20 DUP5 ADD MSTORE PUSH2 0x23FC DUP2 PUSH1 0x40 DUP6 ADD PUSH1 0x20 DUP8 ADD PUSH2 0x253A JUMP JUMPDEST PUSH1 0x1F ADD PUSH1 0x1F NOT AND SWAP2 SWAP1 SWAP2 ADD PUSH1 0x40 ADD SWAP3 SWAP2 POP POP JUMP JUMPDEST PUSH1 0x20 DUP1 DUP3 MSTORE PUSH1 0x30 SWAP1 DUP3 ADD MSTORE PUSH32 0x5072697661746553616C65436F6E74726163743A2056657374696E6720736368 PUSH1 0x40 DUP3 ADD MSTORE PUSH16 0x19591D5B19481B5D5CDD08195E1A5CDD PUSH1 0x82 SHL PUSH1 0x60 DUP3 ADD MSTORE PUSH1 0x80 ADD SWAP1 JUMP JUMPDEST PUSH1 0x20 DUP1 DUP3 MSTORE DUP2 DUP2 ADD MSTORE PUSH32 0x4F776E61626C653A2063616C6C6572206973206E6F7420746865206F776E6572 PUSH1 0x40 DUP3 ADD MSTORE PUSH1 0x60 ADD SWAP1 JUMP JUMPDEST PUSH1 0x20 DUP1 DUP3 MSTORE PUSH1 0x1F SWAP1 DUP3 ADD MSTORE PUSH32 0x5265656E7472616E637947756172643A207265656E7472616E742063616C6C00 PUSH1 0x40 DUP3 ADD MSTORE PUSH1 0x60 ADD SWAP1 JUMP JUMPDEST PUSH1 0x0 DUP3 NOT DUP3 GT ISZERO PUSH2 0x24DF JUMPI PUSH2 0x24DF PUSH2 0x2581 JUMP JUMPDEST POP ADD SWAP1 JUMP JUMPDEST PUSH1 0x0 DUP3 PUSH2 0x24FF JUMPI PUSH4 0x4E487B71 PUSH1 0xE0 SHL DUP2 MSTORE PUSH1 0x12 PUSH1 0x4 MSTORE PUSH1 0x24 DUP2 REVERT JUMPDEST POP DIV SWAP1 JUMP JUMPDEST PUSH1 0x0 DUP2 PUSH1 0x0 NOT DIV DUP4 GT DUP3 ISZERO ISZERO AND ISZERO PUSH2 0x251E JUMPI PUSH2 0x251E PUSH2 0x2581 JUMP JUMPDEST POP MUL SWAP1 JUMP JUMPDEST PUSH1 0x0 DUP3 DUP3 LT ISZERO PUSH2 0x2535 JUMPI PUSH2 0x2535 PUSH2 0x2581 JUMP JUMPDEST POP SUB SWAP1 JUMP JUMPDEST PUSH1 0x0 JUMPDEST DUP4 DUP2 LT ISZERO PUSH2 0x2555 JUMPI DUP2 DUP2 ADD MLOAD DUP4 DUP3 ADD MSTORE PUSH1 0x20 ADD PUSH2 0x253D JUMP JUMPDEST DUP4 DUP2 GT ISZERO PUSH2 0xE72 JUMPI POP POP PUSH1 0x0 SWAP2 ADD MSTORE JUMP JUMPDEST PUSH1 0x0 PUSH1 0x0 NOT DUP3 EQ ISZERO PUSH2 0x257A JUMPI PUSH2 0x257A PUSH2 0x2581 JUMP JUMPDEST POP PUSH1 0x1 ADD SWAP1 JUMP JUMPDEST PUSH4 0x4E487B71 PUSH1 0xE0 SHL PUSH1 0x0 MSTORE PUSH1 0x11 PUSH1 0x4 MSTORE PUSH1 0x24 PUSH1 0x0 REVERT INVALID LOG2 PUSH5 0x6970667358 0x22 SLT KECCAK256 EXTCODECOPY 0xCC 0x26 0x4E 0x2B 0xA8 DUP11 0xD4 DUP8 PUSH9 0xD2D0A7E0D46BA359FD EXTCODEHASH CODESIZE PUSH5 0xD0C482C47 0xED LOG3 0xC4 POP 0xBE PUSH5 0x736F6C6343 STOP ADDMOD DIV STOP CALLER "
        },
        "methodIdentifiers": {
          "DECIMALS()": "2e0f2625",
          "VESTING_CLIFF()": "63f3dbe5",
          "VESTING_DURATION()": "4cfc4d30",
          "VESTING_SLICES_TOTAL()": "89a7d3fb",
          "VESTING_SLICE_PERIOD()": "a889011f",
          "VESTING_TOTAL_DURATION()": "3b8d3fc5",
          "addToWhitelisted(address[])": "9c71a33a",
          "adjustSaleTime(uint256,uint256)": "16e1cc7a",
          "allowStableCoin(string,address)": "31a6cc8d",
          "buyPackageWithStable(string,uint256)": "9c845b9b",
          "closingTime()": "4b6753bc",
          "computeReleasableAmount()": "d4f8b27b",
          "computeReleasableAmountAt(address,uint256)": "a3194f73",
          "createVestingSchedule(address,uint256)": "419544a0",
          "getToken()": "21df0da7",
          "getVestingSchedule()": "3a05f0d8",
          "getVestingSchedulesTotalAmount()": "48deb471",
          "getWithdrawableAmount()": "90be10cc",
          "hasClosed()": "1515bc2b",
          "isWhitelisted(address)": "3af32abf",
          "openingTime()": "b7a8807c",
          "owner()": "8da5cb5b",
          "release(address)": "19165587",
          "removeWhitelisted(address[])": "87322816",
          "renounceOwnership()": "715018a6",
          "setTokenUsdRate(uint256)": "0486a328",
          "tokenUsdRate()": "24b558f2",
          "totalTokenPurchased()": "fd151881",
          "totalTokenReleased()": "9b080dd7",
          "transferOwnership(address)": "f2fde38b",
          "transferVestingBeneficiary(address,address)": "96866c13",
          "withdraw(uint256)": "2e1a7d4d",
          "withdrawRemainedToken()": "b9a6ef40",
          "withdrawSaleFunds()": "bbd50dab",
          "withdrawStableToken(string)": "46f3e08e"
        }
      }
    }
  }
}