{
  "contracts/MockPrivateSaleContract.sol": {
    "MockPrivateSaleContract": {
      "abi": [
        {
          "inputs": [
            {
              "internalType": "address",
              "name": "token_",
              "type": "address"
            },
            {
              "internalType": "uint256",
              "name": "_openingTime",
              "type": "uint256"
            },
            {
              "internalType": "uint256",
              "name": "_closingTime",
              "type": "uint256"
            }
          ],
          "stateMutability": "nonpayable",
          "type": "constructor"
        },
        {
          "anonymous": false,
          "inputs": [
            {
              "indexed": true,
              "internalType": "address",
              "name": "previousOwner",
              "type": "address"
            },
            {
              "indexed": true,
              "internalType": "address",
              "name": "newOwner",
              "type": "address"
            }
          ],
          "name": "OwnershipTransferred",
          "type": "event"
        },
        {
          "anonymous": false,
          "inputs": [
            {
              "indexed": false,
              "internalType": "address",
              "name": "beneficiary",
              "type": "address"
            },
            {
              "indexed": false,
              "internalType": "uint256",
              "name": "amount",
              "type": "uint256"
            },
            {
              "indexed": false,
              "internalType": "uint256",
              "name": "purchasedAmount",
              "type": "uint256"
            }
          ],
          "name": "PurchasedWithStable",
          "type": "event"
        },
        {
          "anonymous": false,
          "inputs": [
            {
              "indexed": false,
              "internalType": "address",
              "name": "beneficiary",
              "type": "address"
            },
            {
              "indexed": false,
              "internalType": "uint256",
              "name": "amount",
              "type": "uint256"
            }
          ],
          "name": "Released",
          "type": "event"
        },
        {
          "anonymous": false,
          "inputs": [
            {
              "indexed": false,
              "internalType": "address",
              "name": "beneficiary",
              "type": "address"
            },
            {
              "indexed": false,
              "internalType": "address",
              "name": "newBeneficiary",
              "type": "address"
            }
          ],
          "name": "VestingTransferred",
          "type": "event"
        },
        {
          "stateMutability": "payable",
          "type": "fallback"
        },
        {
          "inputs": [],
          "name": "DECIMALS",
          "outputs": [
            {
              "internalType": "uint256",
              "name": "",
              "type": "uint256"
            }
          ],
          "stateMutability": "view",
          "type": "function"
        },
        {
          "inputs": [],
          "name": "VESTING_CLIFF",
          "outputs": [
            {
              "internalType": "uint256",
              "name": "",
              "type": "uint256"
            }
          ],
          "stateMutability": "view",
          "type": "function"
        },
        {
          "inputs": [],
          "name": "VESTING_DURATION",
          "outputs": [
            {
              "internalType": "uint256",
              "name": "",
              "type": "uint256"
            }
          ],
          "stateMutability": "view",
          "type": "function"
        },
        {
          "inputs": [],
          "name": "VESTING_SLICES_TOTAL",
          "outputs": [
            {
              "internalType": "uint256",
              "name": "",
              "type": "uint256"
            }
          ],
          "stateMutability": "view",
          "type": "function"
        },
        {
          "inputs": [],
          "name": "VESTING_SLICE_PERIOD",
          "outputs": [
            {
              "internalType": "uint256",
              "name": "",
              "type": "uint256"
            }
          ],
          "stateMutability": "view",
          "type": "function"
        },
        {
          "inputs": [],
          "name": "VESTING_TOTAL_DURATION",
          "outputs": [
            {
              "internalType": "uint256",
              "name": "",
              "type": "uint256"
            }
          ],
          "stateMutability": "view",
          "type": "function"
        },
        {
          "inputs": [
            {
              "internalType": "uint256",
              "name": "_time",
              "type": "uint256"
            }
          ],
          "name": "addForwardTime",
          "outputs": [],
          "stateMutability": "nonpayable",
          "type": "function"
        },
        {
          "inputs": [
            {
              "internalType": "address[]",
              "name": "accounts",
              "type": "address[]"
            }
          ],
          "name": "addToWhitelisted",
          "outputs": [],
          "stateMutability": "nonpayable",
          "type": "function"
        },
        {
          "inputs": [
            {
              "internalType": "uint256",
              "name": "_openingTime",
              "type": "uint256"
            },
            {
              "internalType": "uint256",
              "name": "_closingTime",
              "type": "uint256"
            }
          ],
          "name": "adjustSaleTime",
          "outputs": [],
          "stateMutability": "nonpayable",
          "type": "function"
        },
        {
          "inputs": [
            {
              "internalType": "string",
              "name": "name",
              "type": "string"
            },
            {
              "internalType": "address",
              "name": "token",
              "type": "address"
            }
          ],
          "name": "allowStableCoin",
          "outputs": [],
          "stateMutability": "nonpayable",
          "type": "function"
        },
        {
          "inputs": [
            {
              "internalType": "string",
              "name": "name",
              "type": "string"
            },
            {
              "internalType": "uint256",
              "name": "package",
              "type": "uint256"
            }
          ],
          "name": "buyPackageWithStable",
          "outputs": [],
          "stateMutability": "nonpayable",
          "type": "function"
        },
        {
          "inputs": [],
          "name": "closingTime",
          "outputs": [
            {
              "internalType": "uint256",
              "name": "",
              "type": "uint256"
            }
          ],
          "stateMutability": "view",
          "type": "function"
        },
        {
          "inputs": [],
          "name": "computeReleasableAmount",
          "outputs": [
            {
              "internalType": "uint256",
              "name": "",
              "type": "uint256"
            }
          ],
          "stateMutability": "view",
          "type": "function"
        },
        {
          "inputs": [
            {
              "internalType": "address",
              "name": "beneficiary",
              "type": "address"
            },
            {
              "internalType": "uint256",
              "name": "currentTime",
              "type": "uint256"
            }
          ],
          "name": "computeReleasableAmountAt",
          "outputs": [
            {
              "internalType": "uint256",
              "name": "",
              "type": "uint256"
            }
          ],
          "stateMutability": "view",
          "type": "function"
        },
        {
          "inputs": [
            {
              "internalType": "address",
              "name": "_beneficiary",
              "type": "address"
            },
            {
              "internalType": "uint256",
              "name": "_amount",
              "type": "uint256"
            }
          ],
          "name": "createVestingSchedule",
          "outputs": [],
          "stateMutability": "nonpayable",
          "type": "function"
        },
        {
          "inputs": [],
          "name": "getCurrentTimePublic",
          "outputs": [
            {
              "internalType": "uint256",
              "name": "",
              "type": "uint256"
            }
          ],
          "stateMutability": "view",
          "type": "function"
        },
        {
          "inputs": [],
          "name": "getToken",
          "outputs": [
            {
              "internalType": "address",
              "name": "",
              "type": "address"
            }
          ],
          "stateMutability": "view",
          "type": "function"
        },
        {
          "inputs": [],
          "name": "getVestingSchedule",
          "outputs": [
            {
              "components": [
                {
                  "internalType": "bool",
                  "name": "initialized",
                  "type": "bool"
                },
                {
                  "internalType": "address",
                  "name": "beneficiary",
                  "type": "address"
                },
                {
                  "internalType": "uint256",
                  "name": "amountTotal",
                  "type": "uint256"
                },
                {
                  "internalType": "uint256",
                  "name": "released",
                  "type": "uint256"
                }
              ],
              "internalType": "struct PrivateSaleContract.VestingSchedule",
              "name": "",
              "type": "tuple"
            }
          ],
          "stateMutability": "view",
          "type": "function"
        },
        {
          "inputs": [],
          "name": "getVestingSchedulesTotalAmount",
          "outputs": [
            {
              "internalType": "uint256",
              "name": "",
              "type": "uint256"
            }
          ],
          "stateMutability": "view",
          "type": "function"
        },
        {
          "inputs": [],
          "name": "getWithdrawableAmount",
          "outputs": [
            {
              "internalType": "uint256",
              "name": "",
              "type": "uint256"
            }
          ],
          "stateMutability": "view",
          "type": "function"
        },
        {
          "inputs": [],
          "name": "hasClosed",
          "outputs": [
            {
              "internalType": "bool",
              "name": "",
              "type": "bool"
            }
          ],
          "stateMutability": "view",
          "type": "function"
        },
        {
          "inputs": [
            {
              "internalType": "address",
              "name": "account",
              "type": "address"
            }
          ],
          "name": "isWhitelisted",
          "outputs": [
            {
              "internalType": "bool",
              "name": "",
              "type": "bool"
            }
          ],
          "stateMutability": "view",
          "type": "function"
        },
        {
          "inputs": [],
          "name": "mockTime",
          "outputs": [
            {
              "internalType": "uint256",
              "name": "",
              "type": "uint256"
            }
          ],
          "stateMutability": "view",
          "type": "function"
        },
        {
          "inputs": [],
          "name": "openingTime",
          "outputs": [
            {
              "internalType": "uint256",
              "name": "",
              "type": "uint256"
            }
          ],
          "stateMutability": "view",
          "type": "function"
        },
        {
          "inputs": [],
          "name": "owner",
          "outputs": [
            {
              "internalType": "address",
              "name": "",
              "type": "address"
            }
          ],
          "stateMutability": "view",
          "type": "function"
        },
        {
          "inputs": [
            {
              "internalType": "address",
              "name": "beneficiary",
              "type": "address"
            }
          ],
          "name": "release",
          "outputs": [],
          "stateMutability": "nonpayable",
          "type": "function"
        },
        {
          "inputs": [
            {
              "internalType": "address[]",
              "name": "accounts",
              "type": "address[]"
            }
          ],
          "name": "removeWhitelisted",
          "outputs": [],
          "stateMutability": "nonpayable",
          "type": "function"
        },
        {
          "inputs": [],
          "name": "renounceOwnership",
          "outputs": [],
          "stateMutability": "nonpayable",
          "type": "function"
        },
        {
          "inputs": [
            {
              "internalType": "uint256",
              "name": "_time",
              "type": "uint256"
            }
          ],
          "name": "setForwardTime",
          "outputs": [],
          "stateMutability": "nonpayable",
          "type": "function"
        },
        {
          "inputs": [
            {
              "internalType": "uint256",
              "name": "rate_",
              "type": "uint256"
            }
          ],
          "name": "setTokenUsdRate",
          "outputs": [],
          "stateMutability": "nonpayable",
          "type": "function"
        },
        {
          "inputs": [],
          "name": "tokenUsdRate",
          "outputs": [
            {
              "internalType": "uint256",
              "name": "",
              "type": "uint256"
            }
          ],
          "stateMutability": "view",
          "type": "function"
        },
        {
          "inputs": [],
          "name": "totalTokenPurchased",
          "outputs": [
            {
              "internalType": "uint256",
              "name": "",
              "type": "uint256"
            }
          ],
          "stateMutability": "view",
          "type": "function"
        },
        {
          "inputs": [],
          "name": "totalTokenReleased",
          "outputs": [
            {
              "internalType": "uint256",
              "name": "",
              "type": "uint256"
            }
          ],
          "stateMutability": "view",
          "type": "function"
        },
        {
          "inputs": [
            {
              "internalType": "address",
              "name": "newOwner",
              "type": "address"
            }
          ],
          "name": "transferOwnership",
          "outputs": [],
          "stateMutability": "nonpayable",
          "type": "function"
        },
        {
          "inputs": [
            {
              "internalType": "address",
              "name": "beneficiary",
              "type": "address"
            },
            {
              "internalType": "address",
              "name": "newBeneficiary",
              "type": "address"
            }
          ],
          "name": "transferVestingBeneficiary",
          "outputs": [],
          "stateMutability": "nonpayable",
          "type": "function"
        },
        {
          "inputs": [
            {
              "internalType": "uint256",
              "name": "amount",
              "type": "uint256"
            }
          ],
          "name": "withdraw",
          "outputs": [],
          "stateMutability": "nonpayable",
          "type": "function"
        },
        {
          "inputs": [],
          "name": "withdrawRemainedToken",
          "outputs": [],
          "stateMutability": "nonpayable",
          "type": "function"
        },
        {
          "inputs": [],
          "name": "withdrawSaleFunds",
          "outputs": [],
          "stateMutability": "nonpayable",
          "type": "function"
        },
        {
          "inputs": [
            {
              "internalType": "string",
              "name": "name",
              "type": "string"
            }
          ],
          "name": "withdrawStableToken",
          "outputs": [],
          "stateMutability": "nonpayable",
          "type": "function"
        },
        {
          "stateMutability": "payable",
          "type": "receive"
        }
      ],
      "evm": {
        "bytecode": {
          "linkReferences": {},
          "object": "61016060405269010f0cf064dd5920000060e090815269021e19e0c9bab24000006101005269043c33c19375648000006101205269065a4da25d3016c00000610140526200005290600790600462000274565b506000600c553480156200006557600080fd5b5060405162002aec38038062002aec8339810160408190526200008891620002e6565b828282818162000098336200020f565b6001805581620000ef5760405162461bcd60e51b815260206004820152601a60248201527f4f70656e696e672074696d65206d7573742062652076616c696400000000000060448201526064015b60405180910390fd5b60008111620001415760405162461bcd60e51b815260206004820152601a60248201527f436c6f73696e672074696d65206d7573742062652076616c69640000000000006044820152606401620000e6565b6002919091556003556001600160a01b0383166200015e57600080fd5b606462000175670de0b6b3a7640000600562000365565b62000181919062000344565b600655606083901b6001600160601b031916608052620001b2816301b9a6806200025f602090811b62001ddc17901c565b60a052620001ff620001cd6301b9a680630394428062000387565b620001eb6301b9a680846200025f60201b62001ddc1790919060201c565b6200025f60201b62001ddc1790919060201c565b60c05250620003b7945050505050565b600080546001600160a01b038381166001600160a01b0319831681178455604051919092169283917f8be0079c531659141344cd1fd0a4f28419497f9722a3daafe3b4186f6b6457e09190a35050565b60006200026d828462000329565b9392505050565b828054828255906000526020600020908101928215620002bd579160200282015b82811115620002bd57825182906001600160501b031690559160200191906001019062000295565b50620002cb929150620002cf565b5090565b5b80821115620002cb5760008155600101620002d0565b600080600060608486031215620002fb578283fd5b83516001600160a01b038116811462000312578384fd5b602085015160409095015190969495509392505050565b600082198211156200033f576200033f620003a1565b500190565b6000826200036057634e487b7160e01b81526012600452602481fd5b500490565b6000816000190483118215151615620003825762000382620003a1565b500290565b6000828210156200039c576200039c620003a1565b500390565b634e487b7160e01b600052601160045260246000fd5b60805160601c60a05160c0516126c36200042960003960008181611a290152611e3f015260008181611186015281816119f501528181611a7a01528181611e0e0152611e86015260008181610321015281816109a101528181610aa10152818161108a0152611bb601526126c36000f3fe60806040526004361061021c5760003560e01c80634cfc4d30116101225780639c845b9b116100a5578063bbd50dab1161006c578063bbd50dab14610694578063d4f8b27b146106a9578063de44e1f7146106be578063f2fde38b146106d4578063fd151881146106f457005b80639c845b9b14610612578063a3194f7314610632578063a889011f14610652578063b7a8807c14610669578063b9a6ef401461067f57005b80638da5cb5b116100e95780638da5cb5b1461058957806390be10cc146105a757806396866c13146105bc5780639b080dd7146105dc5780639c71a33a146105f257005b80634cfc4d301461051257806363f3dbe514610527578063715018a61461053f578063873228161461055457806389a7d3fb1461057457005b80632e0f2625116101aa5780633b8d3fc5116101715780633b8d3fc51461048f578063419544a0146104a757806346f3e08e146104c757806348deb471146104e75780634b6753bc146104fc57005b80632e0f26251461036f5780632e1a7d4d1461038b57806331a6cc8d146103ab5780633a05f0d8146103cb5780633af32abf1461046f57005b8063181ea462116101ee578063181ea462146102af57806319165587146102cf5780631ded6cc9146102ef57806321df0da71461031257806324b558f21461035957005b80630486a3281461022557806313f67164146102455780631515bc2b1461026557806316e1cc7a1461028f57005b3661022357005b005b34801561023157600080fd5b50610223610240366004612456565b61070a565b34801561025157600080fd5b50610223610260366004612456565b610742565b34801561027157600080fd5b5061027a610756565b60405190151581526020015b60405180910390f35b34801561029b57600080fd5b506102236102aa366004612486565b610769565b3480156102bb57600080fd5b506102236102ca366004612456565b600c55565b3480156102db57600080fd5b506102236102ea366004612275565b610788565b3480156102fb57600080fd5b50610304610a1f565b604051908152602001610286565b34801561031e57600080fd5b507f00000000000000000000000000000000000000000000000000000000000000005b6040516001600160a01b039091168152602001610286565b34801561036557600080fd5b5061030460065481565b34801561037b57600080fd5b50610304670de0b6b3a764000081565b34801561039757600080fd5b506102236103a6366004612456565b610a30565b3480156103b757600080fd5b506102236103c63660046123ba565b610acf565b3480156103d757600080fd5b506040805160808082018352600080835260208084018290528385018290526060938401829052338252600a81529084902084518084018652815460ff811615158083526101009091046001600160a01b039081168386019081526001850154848a01908152600290950154938801938452885192835251169381019390935290519482019490945292519183019190915201610286565b34801561047b57600080fd5b5061027a61048a366004612275565b610b40565b34801561049b57600080fd5b50610304630394428081565b3480156104b357600080fd5b506102236104c23660046122c1565b610b74565b3480156104d357600080fd5b506102236104e236600461237a565b610e54565b3480156104f357600080fd5b50600b54610304565b34801561050857600080fd5b5061030460035481565b34801561051e57600080fd5b50610304610f49565b34801561053357600080fd5b506103046301b9a68081565b34801561054b57600080fd5b50610223610f5e565b34801561056057600080fd5b5061022361056f3660046122ea565b610f94565b34801561058057600080fd5b50610304611043565b34801561059557600080fd5b506000546001600160a01b0316610341565b3480156105b357600080fd5b50610304611063565b3480156105c857600080fd5b506102236105d736600461228f565b61110f565b3480156105e857600080fd5b5061030460055481565b3480156105fe57600080fd5b5061022361060d3660046122ea565b611475565b34801561061e57600080fd5b5061022361062d36600461240c565b61151f565b34801561063e57600080fd5b5061030461064d3660046122c1565b6118d7565b34801561065e57600080fd5b5061030462278d0081565b34801561067557600080fd5b5061030460025481565b34801561068b57600080fd5b50610223611afc565b3480156106a057600080fd5b50610223611bdd565b3480156106b557600080fd5b50610304611cad565b3480156106ca57600080fd5b50610304600c5481565b3480156106e057600080fd5b506102236106ef366004612275565b611d44565b34801561070057600080fd5b5061030460045481565b6000546001600160a01b0316331461073d5760405162461bcd60e51b815260040161073490612556565b60405180910390fd5b600655565b80600c5461075091906125c2565b600c5550565b6000600354610763611def565b11905090565b4281101561077657600080fd5b81156107825760028290555b60035550565b600260015414156107ab5760405162461bcd60e51b81526004016107349061258b565b600260019081556001600160a01b0382166000908152600a6020526040902054829160ff9091161515146107f15760405162461bcd60e51b815260040161073490612506565b6001600160a01b0382166000818152600a602052604081209133149061081f6000546001600160a01b031690565b6001600160a01b0316336001600160a01b0316149050818061083e5750805b6108c25760405162461bcd60e51b815260206004820152604960248201527f5072697661746553616c65436f6e74726163743a206f6e6c792062656e65666960448201527f636961727920616e64206f776e65722063616e2072656c656173652076657374606482015268656420746f6b656e7360b81b608482015260a401610734565b60408051608081018252845460ff81161515825261010090046001600160a01b031660208201526001850154918101919091526002840154606082015260009061090b90611dff565b90506000811161096f5760405162461bcd60e51b815260206004820152602960248201527f5072697661746553616c65436f6e74726163743a206e6f20746f6b656e732076604482015268195cdd1959081e595d60ba1b6064820152608401610734565b600284015461097e9082611ddc565b6002850155600b546109909082611f02565b600b55856109c86001600160a01b037f0000000000000000000000000000000000000000000000000000000000000000168284611f0e565b6005546109d59083611ddc565b60055560408051338152602081018490527fb21fb52d5749b80f3182f8c6992236b5e5576681880914484d7f4c9b062e619e91015b60405180910390a15050600180555050505050565b600080610a2a611def565b92915050565b60026001541415610a535760405162461bcd60e51b81526004016107349061258b565b60026001556000546001600160a01b03163314610a825760405162461bcd60e51b815260040161073490612556565b610ac8610a976000546001600160a01b031690565b6001600160a01b037f0000000000000000000000000000000000000000000000000000000000000000169083611f0e565b5060018055565b6000546001600160a01b03163314610af95760405162461bcd60e51b815260040161073490612556565b8060088484604051610b0c9291906124c3565b90815260405190819003602001902080546001600160a01b03929092166001600160a01b0319909216919091179055505050565b60006001600160a01b038216610b5557600080fd5b506001600160a01b031660009081526009602052604090205460ff1690565b6000546001600160a01b03163314610b9e5760405162461bcd60e51b815260040161073490612556565b80306001600160a01b03166390be10cc6040518163ffffffff1660e01b815260040160206040518083038186803b158015610bd857600080fd5b505afa158015610bec573d6000803e3d6000fd5b505050506040513d601f19601f82011682018060405250810190610c10919061246e565b1015610c9e5760405162461bcd60e51b815260206004820152605160248201527f5072697661746553616c65436f6e74726163743a2063616e6e6f74206372656160448201527f74652076657374696e67207363686564756c652062656361757365206e6f742060648201527073756666696369656e7420746f6b656e7360781b608482015260a401610734565b60008111610cfe5760405162461bcd60e51b815260206004820152602760248201527f5072697661746553616c65436f6e74726163743a20616d6f756e74206d7573746044820152660206265203e20360cc1b6064820152608401610734565b6001600160a01b0382166000908152600a602052604090205460ff16151560011415610d6b576001600160a01b0382166000908152600a6020526040902060010154610d4a9082611ddc565b6001600160a01b0383166000908152600a6020526040902060010155610de6565b6040805160808101825260018082526001600160a01b038581166020808501828152858701888152600060608801818152948152600a909352969091209451855491516001600160a81b0319909216901515610100600160a81b03191617610100919093160291909117835592519082015590516002909101555b600b54610df39082611ddc565b600b55600454610e039082611ddc565b600455604080516001600160a01b0384168152600060208201529081018290527f06d7c513d5f4ab303351ed7f68da41871b2d39c7093bb2a94f5d5a3ba63a69289060600160405180910390a15050565b6000546001600160a01b03163314610e7e5760405162461bcd60e51b815260040161073490612556565b600060088383604051610e929291906124c3565b908152604051908190036020018120546370a0823160e01b82523060048301526001600160a01b0316915060009082906370a082319060240160206040518083038186803b158015610ee357600080fd5b505afa158015610ef7573d6000803e3d6000fd5b505050506040513d601f19601f82011682018060405250810190610f1b919061246e565b9050610f43610f326000546001600160a01b031690565b6001600160a01b0384169083611f0e565b50505050565b610f5b6301b9a6806303944280612619565b81565b6000546001600160a01b03163314610f885760405162461bcd60e51b815260040161073490612556565b610f926000611f60565b565b6000546001600160a01b03163314610fbe5760405162461bcd60e51b815260040161073490612556565b60005b8181101561103e57600060096000858585818110610fef57634e487b7160e01b600052603260045260246000fd5b90506020020160208101906110049190612275565b6001600160a01b031681526020810191909152604001600020805460ff1916911515919091179055806110368161265c565b915050610fc1565b505050565b62278d006110596301b9a6806303944280612619565b610f5b91906125da565b600b546040516370a0823160e01b815230600482015260009161110a916001600160a01b037f000000000000000000000000000000000000000000000000000000000000000016906370a082319060240160206040518083038186803b1580156110cc57600080fd5b505afa1580156110e0573d6000803e3d6000fd5b505050506040513d601f19601f82011682018060405250810190611104919061246e565b90611f02565b905090565b600260015414156111325760405162461bcd60e51b81526004016107349061258b565b600260019081556001600160a01b0383166000908152600a6020526040902054839160ff9091161515146111785760405162461bcd60e51b815260040161073490612506565b6000611182611def565b90507f0000000000000000000000000000000000000000000000000000000000000000811061122f5760405162461bcd60e51b815260206004820152604d60248201527f5072697661746553616c65436f6e74726163743a2043616e6e6f74207472616e60448201527f736665722062656e6566696369617279207768656e2076657374696e6720616c60648201526c1c9958591e481cdd185c9d1959609a1b608482015260a401610734565b6000546001600160a01b031633148061129f5760405162461bcd60e51b815260206004820152602c60248201527f5072697661746553616c65436f6e74726163743a206f6e6c79206f776e65722060448201526b31b0b7103a3930b739b332b960a11b6064820152608401610734565b6001600160a01b0385166000908152600a60205260408120600281015460018201549192916112cd91611f02565b9050600081116113375760405162461bcd60e51b815260206004820152602f60248201527f5072697661746553616c65436f6e74726163743a206e6f206d6f726520746f6b60448201526e32b739903a37903a3930b739b332b960891b6064820152608401610734565b60018201546113469082611f02565b6001808401919091556001600160a01b0387166000908152600a602052604090205460ff16151514156113ba576001600160a01b0386166000908152600a60205260409020600101546113999082611ddc565b6001600160a01b0387166000908152600a6020526040902060010155611435565b6040805160808101825260018082526001600160a01b038981166020808501828152858701888152600060608801818152948152600a909352969091209451855491516001600160a81b0319909216901515610100600160a81b03191617610100919093160291909117835592519082015590516002909101555b604080516001600160a01b03808a168252881660208201527ffbe993c87b521dceb251de21f65269f508a499c8545576cc8c1265d423da2b1c9101610a0a565b6000546001600160a01b0316331461149f5760405162461bcd60e51b815260040161073490612556565b60005b8181101561103e576001600960008585858181106114d057634e487b7160e01b600052603260045260246000fd5b90506020020160208101906114e59190612275565b6001600160a01b031681526020810191909152604001600020805460ff1916911515919091179055806115178161265c565b9150506114a2565b60006007828154811061154257634e487b7160e01b600052603260045260246000fd5b90600052602060002001549050600081116115af5760405162461bcd60e51b815260206004820152602760248201527f5072697661746553616c65436f6e74726163743a20696e76616c6964207061636044820152661ad859d9481a5960ca1b6064820152608401610734565b6000600885856040516115c39291906124c3565b908152604051908190036020019020546006546001600160a01b039091169150600090611602906115fc85670de0b6b3a7640000611fb0565b90611fbc565b905080306001600160a01b03166390be10cc6040518163ffffffff1660e01b815260040160206040518083038186803b15801561163e57600080fd5b505afa158015611652573d6000803e3d6000fd5b505050506040513d601f19601f82011682018060405250810190611676919061246e565b10156116d95760405162461bcd60e51b815260206004820152602c60248201527f5072697661746553616c65436f6e74726163743a206e6f7420656e6f7567682060448201526b66756e647320746f2062757960a01b6064820152608401610734565b6040516323b872dd60e01b8152336004820152306024820152604481018490526001600160a01b038316906323b872dd90606401602060405180830381600087803b15801561172757600080fd5b505af115801561173b573d6000803e3d6000fd5b505050506040513d601f19601f8201168201806040525081019061175f919061235a565b6117a45760405162461bcd60e51b815260206004820152601660248201527510dbdd5b19081b9bdd081d1c985b9cd9995c881554d160521b6044820152606401610734565b336000908152600a602052604090205460ff161515600114156117f657336000908152600a60205260409020600101546117de9082611ddc565b336000908152600a602052604090206001015561186e565b604080516080810182526001808252336020808401828152848601878152600060608701818152948152600a909352959091209351845491516001600160a81b0319909216901515610100600160a81b031916176101006001600160a01b039092169190910217835592519082015590516002909101555b600b5461187b9082611ddc565b600b5560045461188b9082611ddc565b60045560408051338152602081018590529081018290527f06d7c513d5f4ab303351ed7f68da41871b2d39c7093bb2a94f5d5a3ba63a69289060600160405180910390a1505050505050565b6001600160a01b0382166000908152600a6020526040812054839060ff1615156001146119165760405162461bcd60e51b815260040161073490612506565b336001600160a01b0385161460006119366000546001600160a01b031690565b6001600160a01b0316336001600160a01b031614905081806119555750805b6119db5760405162461bcd60e51b815260206004820152604b60248201527f5072697661746553616c65436f6e74726163743a206f6e6c792062656e65666960448201527f636961727920616e64206f776e65722063616e2071756572792072656c65617360648201526a18589b1948185b5bdd5b9d60aa1b608482015260a401610734565b6001600160a01b0386166000908152600a602052604090207f0000000000000000000000000000000000000000000000000000000000000000861015611a275760009450505050611af5565b7f00000000000000000000000000000000000000000000000000000000000000008610611a6b5760028101546001820154611a6191611f02565b9450505050611af5565b6000611a9e62278d006115fc897f0000000000000000000000000000000000000000000000000000000000000000611f02565b90506000611ad462278d00611abb6301b9a6806303944280612619565b611ac591906125da565b60018501546115fc9085611fb0565b9050611aed836002015482611f0290919063ffffffff16565b965050505050505b5092915050565b6000546001600160a01b03163314611b265760405162461bcd60e51b815260040161073490612556565b610f92611b3b6000546001600160a01b031690565b306001600160a01b03166390be10cc6040518163ffffffff1660e01b815260040160206040518083038186803b158015611b7457600080fd5b505afa158015611b88573d6000803e3d6000fd5b505050506040513d601f19601f82011682018060405250810190611bac919061246e565b6001600160a01b037f0000000000000000000000000000000000000000000000000000000000000000169190611f0e565b6000546001600160a01b03163314611c075760405162461bcd60e51b815260040161073490612556565b60004711611c705760405162461bcd60e51b815260206004820152603060248201527f5072697661746553616c65436f6e74726163743a20436f6e747261637427732060448201526f62616c616e636520697320656d70747960801b6064820152608401610734565b600080546040516001600160a01b03909116914780156108fc02929091818181858888f19350505050158015611caa573d6000803e3d6000fd5b50565b336000818152600a602052604081205490919060ff161515600114611ce45760405162461bcd60e51b815260040161073490612506565b336000908152600a60209081526040918290208251608081018452815460ff81161515825261010090046001600160a01b03169281019290925260018101549282019290925260028201546060820152611d3d90611dff565b9250505090565b6000546001600160a01b03163314611d6e5760405162461bcd60e51b815260040161073490612556565b6001600160a01b038116611dd35760405162461bcd60e51b815260206004820152602660248201527f4f776e61626c653a206e6577206f776e657220697320746865207a65726f206160448201526564647265737360d01b6064820152608401610734565b611caa81611f60565b6000611de882846125c2565b9392505050565b6000600c544261110a91906125c2565b600080611e0a611def565b90507f0000000000000000000000000000000000000000000000000000000000000000811015611e3d5750600092915050565b7f00000000000000000000000000000000000000000000000000000000000000008110611e775760608301516040840151611de891611f02565b6000611eaa62278d006115fc847f0000000000000000000000000000000000000000000000000000000000000000611f02565b90506000611ee062278d00611ec76301b9a6806303944280612619565b611ed191906125da565b60408701516115fc9085611fb0565b9050611ef9856060015182611f0290919063ffffffff16565b95945050505050565b6000611de88284612619565b604080516001600160a01b038416602482015260448082018490528251808303909101815260649091019091526020810180516001600160e01b031663a9059cbb60e01b17905261103e908490611fc8565b600080546001600160a01b038381166001600160a01b0319831681178455604051919092169283917f8be0079c531659141344cd1fd0a4f28419497f9722a3daafe3b4186f6b6457e09190a35050565b6000611de882846125fa565b6000611de882846125da565b600061201d826040518060400160405280602081526020017f5361666545524332303a206c6f772d6c6576656c2063616c6c206661696c6564815250856001600160a01b031661209a9092919063ffffffff16565b80519091501561103e578080602001905181019061203b919061235a565b61103e5760405162461bcd60e51b815260206004820152602a60248201527f5361666545524332303a204552433230206f7065726174696f6e20646964206e6044820152691bdd081cdd58d8d9595960b21b6064820152608401610734565b60606120a984846000856120b1565b949350505050565b6060824710156121125760405162461bcd60e51b815260206004820152602660248201527f416464726573733a20696e73756666696369656e742062616c616e636520666f6044820152651c8818d85b1b60d21b6064820152608401610734565b843b6121605760405162461bcd60e51b815260206004820152601d60248201527f416464726573733a2063616c6c20746f206e6f6e2d636f6e74726163740000006044820152606401610734565b600080866001600160a01b0316858760405161217c91906124a7565b60006040518083038185875af1925050503d80600081146121b9576040519150601f19603f3d011682016040523d82523d6000602084013e6121be565b606091505b50915091506121ce8282866121d9565b979650505050505050565b606083156121e8575081611de8565b8251156121f85782518084602001fd5b8160405162461bcd60e51b815260040161073491906124d3565b80356001600160a01b038116811461222957600080fd5b919050565b60008083601f84011261223f578182fd5b50813567ffffffffffffffff811115612256578182fd5b60208301915083602082850101111561226e57600080fd5b9250929050565b600060208284031215612286578081fd5b611de882612212565b600080604083850312156122a1578081fd5b6122aa83612212565b91506122b860208401612212565b90509250929050565b600080604083850312156122d3578182fd5b6122dc83612212565b946020939093013593505050565b600080602083850312156122fc578182fd5b823567ffffffffffffffff80821115612313578384fd5b818501915085601f830112612326578384fd5b813581811115612334578485fd5b8660208260051b8501011115612348578485fd5b60209290920196919550909350505050565b60006020828403121561236b578081fd5b81518015158114611de8578182fd5b6000806020838503121561238c578182fd5b823567ffffffffffffffff8111156123a2578283fd5b6123ae8582860161222e565b90969095509350505050565b6000806000604084860312156123ce578081fd5b833567ffffffffffffffff8111156123e4578182fd5b6123f08682870161222e565b9094509250612403905060208501612212565b90509250925092565b600080600060408486031215612420578283fd5b833567ffffffffffffffff811115612436578384fd5b6124428682870161222e565b909790965060209590950135949350505050565b600060208284031215612467578081fd5b5035919050565b60006020828403121561247f578081fd5b5051919050565b60008060408385031215612498578182fd5b50508035926020909101359150565b600082516124b9818460208701612630565b9190910192915050565b8183823760009101908152919050565b60208152600082518060208401526124f2816040850160208701612630565b601f01601f19169190910160400192915050565b60208082526030908201527f5072697661746553616c65436f6e74726163743a2056657374696e672073636860408201526f19591d5b19481b5d5cdd08195e1a5cdd60821b606082015260800190565b6020808252818101527f4f776e61626c653a2063616c6c6572206973206e6f7420746865206f776e6572604082015260600190565b6020808252601f908201527f5265656e7472616e637947756172643a207265656e7472616e742063616c6c00604082015260600190565b600082198211156125d5576125d5612677565b500190565b6000826125f557634e487b7160e01b81526012600452602481fd5b500490565b600081600019048311821515161561261457612614612677565b500290565b60008282101561262b5761262b612677565b500390565b60005b8381101561264b578181015183820152602001612633565b83811115610f435750506000910152565b600060001982141561267057612670612677565b5060010190565b634e487b7160e01b600052601160045260246000fdfea2646970667358221220407d8bdef719b2641655b88e50e7c9195d52a2786d896fcd0b6528990f37fd6664736f6c63430008040033",
          "opcodes": "PUSH2 0x160 PUSH1 0x40 MSTORE PUSH10 0x10F0CF064DD59200000 PUSH1 0xE0 SWAP1 DUP2 MSTORE PUSH10 0x21E19E0C9BAB2400000 PUSH2 0x100 MSTORE PUSH10 0x43C33C1937564800000 PUSH2 0x120 MSTORE PUSH10 0x65A4DA25D3016C00000 PUSH2 0x140 MSTORE PUSH3 0x52 SWAP1 PUSH1 0x7 SWAP1 PUSH1 0x4 PUSH3 0x274 JUMP JUMPDEST POP PUSH1 0x0 PUSH1 0xC SSTORE CALLVALUE DUP1 ISZERO PUSH3 0x65 JUMPI PUSH1 0x0 DUP1 REVERT JUMPDEST POP PUSH1 0x40 MLOAD PUSH3 0x2AEC CODESIZE SUB DUP1 PUSH3 0x2AEC DUP4 CODECOPY DUP2 ADD PUSH1 0x40 DUP2 SWAP1 MSTORE PUSH3 0x88 SWAP2 PUSH3 0x2E6 JUMP JUMPDEST DUP3 DUP3 DUP3 DUP2 DUP2 PUSH3 0x98 CALLER PUSH3 0x20F JUMP JUMPDEST PUSH1 0x1 DUP1 SSTORE DUP2 PUSH3 0xEF JUMPI PUSH1 0x40 MLOAD PUSH3 0x461BCD PUSH1 0xE5 SHL DUP2 MSTORE PUSH1 0x20 PUSH1 0x4 DUP3 ADD MSTORE PUSH1 0x1A PUSH1 0x24 DUP3 ADD MSTORE PUSH32 0x4F70656E696E672074696D65206D7573742062652076616C6964000000000000 PUSH1 0x44 DUP3 ADD MSTORE PUSH1 0x64 ADD JUMPDEST PUSH1 0x40 MLOAD DUP1 SWAP2 SUB SWAP1 REVERT JUMPDEST PUSH1 0x0 DUP2 GT PUSH3 0x141 JUMPI PUSH1 0x40 MLOAD PUSH3 0x461BCD PUSH1 0xE5 SHL DUP2 MSTORE PUSH1 0x20 PUSH1 0x4 DUP3 ADD MSTORE PUSH1 0x1A PUSH1 0x24 DUP3 ADD MSTORE PUSH32 0x436C6F73696E672074696D65206D7573742062652076616C6964000000000000 PUSH1 0x44 DUP3 ADD MSTORE PUSH1 0x64 ADD PUSH3 0xE6 JUMP JUMPDEST PUSH1 0x2 SWAP2 SWAP1 SWAP2 SSTORE PUSH1 0x3 SSTORE PUSH1 0x1 PUSH1 0x1 PUSH1 0xA0 SHL SUB DUP4 AND PUSH3 0x15E JUMPI PUSH1 0x0 DUP1 REVERT JUMPDEST PUSH1 0x64 PUSH3 0x175 PUSH8 0xDE0B6B3A7640000 PUSH1 0x5 PUSH3 0x365 JUMP JUMPDEST PUSH3 0x181 SWAP2 SWAP1 PUSH3 0x344 JUMP JUMPDEST PUSH1 0x6 SSTORE PUSH1 0x60 DUP4 SWAP1 SHL PUSH1 0x1 PUSH1 0x1 PUSH1 0x60 SHL SUB NOT AND PUSH1 0x80 MSTORE PUSH3 0x1B2 DUP2 PUSH4 0x1B9A680 PUSH3 0x25F PUSH1 0x20 SWAP1 DUP2 SHL PUSH3 0x1DDC OR SWAP1 SHR JUMP JUMPDEST PUSH1 0xA0 MSTORE PUSH3 0x1FF PUSH3 0x1CD PUSH4 0x1B9A680 PUSH4 0x3944280 PUSH3 0x387 JUMP JUMPDEST PUSH3 0x1EB PUSH4 0x1B9A680 DUP5 PUSH3 0x25F PUSH1 0x20 SHL PUSH3 0x1DDC OR SWAP1 SWAP2 SWAP1 PUSH1 0x20 SHR JUMP JUMPDEST PUSH3 0x25F PUSH1 0x20 SHL PUSH3 0x1DDC OR SWAP1 SWAP2 SWAP1 PUSH1 0x20 SHR JUMP JUMPDEST PUSH1 0xC0 MSTORE POP PUSH3 0x3B7 SWAP5 POP POP POP POP POP JUMP JUMPDEST PUSH1 0x0 DUP1 SLOAD PUSH1 0x1 PUSH1 0x1 PUSH1 0xA0 SHL SUB DUP4 DUP2 AND PUSH1 0x1 PUSH1 0x1 PUSH1 0xA0 SHL SUB NOT DUP4 AND DUP2 OR DUP5 SSTORE PUSH1 0x40 MLOAD SWAP2 SWAP1 SWAP3 AND SWAP3 DUP4 SWAP2 PUSH32 0x8BE0079C531659141344CD1FD0A4F28419497F9722A3DAAFE3B4186F6B6457E0 SWAP2 SWAP1 LOG3 POP POP JUMP JUMPDEST PUSH1 0x0 PUSH3 0x26D DUP3 DUP5 PUSH3 0x329 JUMP JUMPDEST SWAP4 SWAP3 POP POP POP JUMP JUMPDEST DUP3 DUP1 SLOAD DUP3 DUP3 SSTORE SWAP1 PUSH1 0x0 MSTORE PUSH1 0x20 PUSH1 0x0 KECCAK256 SWAP1 DUP2 ADD SWAP3 DUP3 ISZERO PUSH3 0x2BD JUMPI SWAP2 PUSH1 0x20 MUL DUP3 ADD JUMPDEST DUP3 DUP2 GT ISZERO PUSH3 0x2BD JUMPI DUP3 MLOAD DUP3 SWAP1 PUSH1 0x1 PUSH1 0x1 PUSH1 0x50 SHL SUB AND SWAP1 SSTORE SWAP2 PUSH1 0x20 ADD SWAP2 SWAP1 PUSH1 0x1 ADD SWAP1 PUSH3 0x295 JUMP JUMPDEST POP PUSH3 0x2CB SWAP3 SWAP2 POP PUSH3 0x2CF JUMP JUMPDEST POP SWAP1 JUMP JUMPDEST JUMPDEST DUP1 DUP3 GT ISZERO PUSH3 0x2CB JUMPI PUSH1 0x0 DUP2 SSTORE PUSH1 0x1 ADD PUSH3 0x2D0 JUMP JUMPDEST PUSH1 0x0 DUP1 PUSH1 0x0 PUSH1 0x60 DUP5 DUP7 SUB SLT ISZERO PUSH3 0x2FB JUMPI DUP3 DUP4 REVERT JUMPDEST DUP4 MLOAD PUSH1 0x1 PUSH1 0x1 PUSH1 0xA0 SHL SUB DUP2 AND DUP2 EQ PUSH3 0x312 JUMPI DUP4 DUP5 REVERT JUMPDEST PUSH1 0x20 DUP6 ADD MLOAD PUSH1 0x40 SWAP1 SWAP6 ADD MLOAD SWAP1 SWAP7 SWAP5 SWAP6 POP SWAP4 SWAP3 POP POP POP JUMP JUMPDEST PUSH1 0x0 DUP3 NOT DUP3 GT ISZERO PUSH3 0x33F JUMPI PUSH3 0x33F PUSH3 0x3A1 JUMP JUMPDEST POP ADD SWAP1 JUMP JUMPDEST PUSH1 0x0 DUP3 PUSH3 0x360 JUMPI PUSH4 0x4E487B71 PUSH1 0xE0 SHL DUP2 MSTORE PUSH1 0x12 PUSH1 0x4 MSTORE PUSH1 0x24 DUP2 REVERT JUMPDEST POP DIV SWAP1 JUMP JUMPDEST PUSH1 0x0 DUP2 PUSH1 0x0 NOT DIV DUP4 GT DUP3 ISZERO ISZERO AND ISZERO PUSH3 0x382 JUMPI PUSH3 0x382 PUSH3 0x3A1 JUMP JUMPDEST POP MUL SWAP1 JUMP JUMPDEST PUSH1 0x0 DUP3 DUP3 LT ISZERO PUSH3 0x39C JUMPI PUSH3 0x39C PUSH3 0x3A1 JUMP JUMPDEST POP SUB SWAP1 JUMP JUMPDEST PUSH4 0x4E487B71 PUSH1 0xE0 SHL PUSH1 0x0 MSTORE PUSH1 0x11 PUSH1 0x4 MSTORE PUSH1 0x24 PUSH1 0x0 REVERT JUMPDEST PUSH1 0x80 MLOAD PUSH1 0x60 SHR PUSH1 0xA0 MLOAD PUSH1 0xC0 MLOAD PUSH2 0x26C3 PUSH3 0x429 PUSH1 0x0 CODECOPY PUSH1 0x0 DUP2 DUP2 PUSH2 0x1A29 ADD MSTORE PUSH2 0x1E3F ADD MSTORE PUSH1 0x0 DUP2 DUP2 PUSH2 0x1186 ADD MSTORE DUP2 DUP2 PUSH2 0x19F5 ADD MSTORE DUP2 DUP2 PUSH2 0x1A7A ADD MSTORE DUP2 DUP2 PUSH2 0x1E0E ADD MSTORE PUSH2 0x1E86 ADD MSTORE PUSH1 0x0 DUP2 DUP2 PUSH2 0x321 ADD MSTORE DUP2 DUP2 PUSH2 0x9A1 ADD MSTORE DUP2 DUP2 PUSH2 0xAA1 ADD MSTORE DUP2 DUP2 PUSH2 0x108A ADD MSTORE PUSH2 0x1BB6 ADD MSTORE PUSH2 0x26C3 PUSH1 0x0 RETURN INVALID PUSH1 0x80 PUSH1 0x40 MSTORE PUSH1 0x4 CALLDATASIZE LT PUSH2 0x21C JUMPI PUSH1 0x0 CALLDATALOAD PUSH1 0xE0 SHR DUP1 PUSH4 0x4CFC4D30 GT PUSH2 0x122 JUMPI DUP1 PUSH4 0x9C845B9B GT PUSH2 0xA5 JUMPI DUP1 PUSH4 0xBBD50DAB GT PUSH2 0x6C JUMPI DUP1 PUSH4 0xBBD50DAB EQ PUSH2 0x694 JUMPI DUP1 PUSH4 0xD4F8B27B EQ PUSH2 0x6A9 JUMPI DUP1 PUSH4 0xDE44E1F7 EQ PUSH2 0x6BE JUMPI DUP1 PUSH4 0xF2FDE38B EQ PUSH2 0x6D4 JUMPI DUP1 PUSH4 0xFD151881 EQ PUSH2 0x6F4 JUMPI STOP JUMPDEST DUP1 PUSH4 0x9C845B9B EQ PUSH2 0x612 JUMPI DUP1 PUSH4 0xA3194F73 EQ PUSH2 0x632 JUMPI DUP1 PUSH4 0xA889011F EQ PUSH2 0x652 JUMPI DUP1 PUSH4 0xB7A8807C EQ PUSH2 0x669 JUMPI DUP1 PUSH4 0xB9A6EF40 EQ PUSH2 0x67F JUMPI STOP JUMPDEST DUP1 PUSH4 0x8DA5CB5B GT PUSH2 0xE9 JUMPI DUP1 PUSH4 0x8DA5CB5B EQ PUSH2 0x589 JUMPI DUP1 PUSH4 0x90BE10CC EQ PUSH2 0x5A7 JUMPI DUP1 PUSH4 0x96866C13 EQ PUSH2 0x5BC JUMPI DUP1 PUSH4 0x9B080DD7 EQ PUSH2 0x5DC JUMPI DUP1 PUSH4 0x9C71A33A EQ PUSH2 0x5F2 JUMPI STOP JUMPDEST DUP1 PUSH4 0x4CFC4D30 EQ PUSH2 0x512 JUMPI DUP1 PUSH4 0x63F3DBE5 EQ PUSH2 0x527 JUMPI DUP1 PUSH4 0x715018A6 EQ PUSH2 0x53F JUMPI DUP1 PUSH4 0x87322816 EQ PUSH2 0x554 JUMPI DUP1 PUSH4 0x89A7D3FB EQ PUSH2 0x574 JUMPI STOP JUMPDEST DUP1 PUSH4 0x2E0F2625 GT PUSH2 0x1AA JUMPI DUP1 PUSH4 0x3B8D3FC5 GT PUSH2 0x171 JUMPI DUP1 PUSH4 0x3B8D3FC5 EQ PUSH2 0x48F JUMPI DUP1 PUSH4 0x419544A0 EQ PUSH2 0x4A7 JUMPI DUP1 PUSH4 0x46F3E08E EQ PUSH2 0x4C7 JUMPI DUP1 PUSH4 0x48DEB471 EQ PUSH2 0x4E7 JUMPI DUP1 PUSH4 0x4B6753BC EQ PUSH2 0x4FC JUMPI STOP JUMPDEST DUP1 PUSH4 0x2E0F2625 EQ PUSH2 0x36F JUMPI DUP1 PUSH4 0x2E1A7D4D EQ PUSH2 0x38B JUMPI DUP1 PUSH4 0x31A6CC8D EQ PUSH2 0x3AB JUMPI DUP1 PUSH4 0x3A05F0D8 EQ PUSH2 0x3CB JUMPI DUP1 PUSH4 0x3AF32ABF EQ PUSH2 0x46F JUMPI STOP JUMPDEST DUP1 PUSH4 0x181EA462 GT PUSH2 0x1EE JUMPI DUP1 PUSH4 0x181EA462 EQ PUSH2 0x2AF JUMPI DUP1 PUSH4 0x19165587 EQ PUSH2 0x2CF JUMPI DUP1 PUSH4 0x1DED6CC9 EQ PUSH2 0x2EF JUMPI DUP1 PUSH4 0x21DF0DA7 EQ PUSH2 0x312 JUMPI DUP1 PUSH4 0x24B558F2 EQ PUSH2 0x359 JUMPI STOP JUMPDEST DUP1 PUSH4 0x486A328 EQ PUSH2 0x225 JUMPI DUP1 PUSH4 0x13F67164 EQ PUSH2 0x245 JUMPI DUP1 PUSH4 0x1515BC2B EQ PUSH2 0x265 JUMPI DUP1 PUSH4 0x16E1CC7A EQ PUSH2 0x28F JUMPI STOP JUMPDEST CALLDATASIZE PUSH2 0x223 JUMPI STOP JUMPDEST STOP JUMPDEST CALLVALUE DUP1 ISZERO PUSH2 0x231 JUMPI PUSH1 0x0 DUP1 REVERT JUMPDEST POP PUSH2 0x223 PUSH2 0x240 CALLDATASIZE PUSH1 0x4 PUSH2 0x2456 JUMP JUMPDEST PUSH2 0x70A JUMP JUMPDEST CALLVALUE DUP1 ISZERO PUSH2 0x251 JUMPI PUSH1 0x0 DUP1 REVERT JUMPDEST POP PUSH2 0x223 PUSH2 0x260 CALLDATASIZE PUSH1 0x4 PUSH2 0x2456 JUMP JUMPDEST PUSH2 0x742 JUMP JUMPDEST CALLVALUE DUP1 ISZERO PUSH2 0x271 JUMPI PUSH1 0x0 DUP1 REVERT JUMPDEST POP PUSH2 0x27A PUSH2 0x756 JUMP JUMPDEST PUSH1 0x40 MLOAD SWAP1 ISZERO ISZERO DUP2 MSTORE PUSH1 0x20 ADD JUMPDEST PUSH1 0x40 MLOAD DUP1 SWAP2 SUB SWAP1 RETURN JUMPDEST CALLVALUE DUP1 ISZERO PUSH2 0x29B JUMPI PUSH1 0x0 DUP1 REVERT JUMPDEST POP PUSH2 0x223 PUSH2 0x2AA CALLDATASIZE PUSH1 0x4 PUSH2 0x2486 JUMP JUMPDEST PUSH2 0x769 JUMP JUMPDEST CALLVALUE DUP1 ISZERO PUSH2 0x2BB JUMPI PUSH1 0x0 DUP1 REVERT JUMPDEST POP PUSH2 0x223 PUSH2 0x2CA CALLDATASIZE PUSH1 0x4 PUSH2 0x2456 JUMP JUMPDEST PUSH1 0xC SSTORE JUMP JUMPDEST CALLVALUE DUP1 ISZERO PUSH2 0x2DB JUMPI PUSH1 0x0 DUP1 REVERT JUMPDEST POP PUSH2 0x223 PUSH2 0x2EA CALLDATASIZE PUSH1 0x4 PUSH2 0x2275 JUMP JUMPDEST PUSH2 0x788 JUMP JUMPDEST CALLVALUE DUP1 ISZERO PUSH2 0x2FB JUMPI PUSH1 0x0 DUP1 REVERT JUMPDEST POP PUSH2 0x304 PUSH2 0xA1F JUMP JUMPDEST PUSH1 0x40 MLOAD SWAP1 DUP2 MSTORE PUSH1 0x20 ADD PUSH2 0x286 JUMP JUMPDEST CALLVALUE DUP1 ISZERO PUSH2 0x31E JUMPI PUSH1 0x0 DUP1 REVERT JUMPDEST POP PUSH32 0x0 JUMPDEST PUSH1 0x40 MLOAD PUSH1 0x1 PUSH1 0x1 PUSH1 0xA0 SHL SUB SWAP1 SWAP2 AND DUP2 MSTORE PUSH1 0x20 ADD PUSH2 0x286 JUMP JUMPDEST CALLVALUE DUP1 ISZERO PUSH2 0x365 JUMPI PUSH1 0x0 DUP1 REVERT JUMPDEST POP PUSH2 0x304 PUSH1 0x6 SLOAD DUP2 JUMP JUMPDEST CALLVALUE DUP1 ISZERO PUSH2 0x37B JUMPI PUSH1 0x0 DUP1 REVERT JUMPDEST POP PUSH2 0x304 PUSH8 0xDE0B6B3A7640000 DUP2 JUMP JUMPDEST CALLVALUE DUP1 ISZERO PUSH2 0x397 JUMPI PUSH1 0x0 DUP1 REVERT JUMPDEST POP PUSH2 0x223 PUSH2 0x3A6 CALLDATASIZE PUSH1 0x4 PUSH2 0x2456 JUMP JUMPDEST PUSH2 0xA30 JUMP JUMPDEST CALLVALUE DUP1 ISZERO PUSH2 0x3B7 JUMPI PUSH1 0x0 DUP1 REVERT JUMPDEST POP PUSH2 0x223 PUSH2 0x3C6 CALLDATASIZE PUSH1 0x4 PUSH2 0x23BA JUMP JUMPDEST PUSH2 0xACF JUMP JUMPDEST CALLVALUE DUP1 ISZERO PUSH2 0x3D7 JUMPI PUSH1 0x0 DUP1 REVERT JUMPDEST POP PUSH1 0x40 DUP1 MLOAD PUSH1 0x80 DUP1 DUP3 ADD DUP4 MSTORE PUSH1 0x0 DUP1 DUP4 MSTORE PUSH1 0x20 DUP1 DUP5 ADD DUP3 SWAP1 MSTORE DUP4 DUP6 ADD DUP3 SWAP1 MSTORE PUSH1 0x60 SWAP4 DUP5 ADD DUP3 SWAP1 MSTORE CALLER DUP3 MSTORE PUSH1 0xA DUP2 MSTORE SWAP1 DUP5 SWAP1 KECCAK256 DUP5 MLOAD DUP1 DUP5 ADD DUP7 MSTORE DUP2 SLOAD PUSH1 0xFF DUP2 AND ISZERO ISZERO DUP1 DUP4 MSTORE PUSH2 0x100 SWAP1 SWAP2 DIV PUSH1 0x1 PUSH1 0x1 PUSH1 0xA0 SHL SUB SWAP1 DUP2 AND DUP4 DUP7 ADD SWAP1 DUP2 MSTORE PUSH1 0x1 DUP6 ADD SLOAD DUP5 DUP11 ADD SWAP1 DUP2 MSTORE PUSH1 0x2 SWAP1 SWAP6 ADD SLOAD SWAP4 DUP9 ADD SWAP4 DUP5 MSTORE DUP9 MLOAD SWAP3 DUP4 MSTORE MLOAD AND SWAP4 DUP2 ADD SWAP4 SWAP1 SWAP4 MSTORE SWAP1 MLOAD SWAP5 DUP3 ADD SWAP5 SWAP1 SWAP5 MSTORE SWAP3 MLOAD SWAP2 DUP4 ADD SWAP2 SWAP1 SWAP2 MSTORE ADD PUSH2 0x286 JUMP JUMPDEST CALLVALUE DUP1 ISZERO PUSH2 0x47B JUMPI PUSH1 0x0 DUP1 REVERT JUMPDEST POP PUSH2 0x27A PUSH2 0x48A CALLDATASIZE PUSH1 0x4 PUSH2 0x2275 JUMP JUMPDEST PUSH2 0xB40 JUMP JUMPDEST CALLVALUE DUP1 ISZERO PUSH2 0x49B JUMPI PUSH1 0x0 DUP1 REVERT JUMPDEST POP PUSH2 0x304 PUSH4 0x3944280 DUP2 JUMP JUMPDEST CALLVALUE DUP1 ISZERO PUSH2 0x4B3 JUMPI PUSH1 0x0 DUP1 REVERT JUMPDEST POP PUSH2 0x223 PUSH2 0x4C2 CALLDATASIZE PUSH1 0x4 PUSH2 0x22C1 JUMP JUMPDEST PUSH2 0xB74 JUMP JUMPDEST CALLVALUE DUP1 ISZERO PUSH2 0x4D3 JUMPI PUSH1 0x0 DUP1 REVERT JUMPDEST POP PUSH2 0x223 PUSH2 0x4E2 CALLDATASIZE PUSH1 0x4 PUSH2 0x237A JUMP JUMPDEST PUSH2 0xE54 JUMP JUMPDEST CALLVALUE DUP1 ISZERO PUSH2 0x4F3 JUMPI PUSH1 0x0 DUP1 REVERT JUMPDEST POP PUSH1 0xB SLOAD PUSH2 0x304 JUMP JUMPDEST CALLVALUE DUP1 ISZERO PUSH2 0x508 JUMPI PUSH1 0x0 DUP1 REVERT JUMPDEST POP PUSH2 0x304 PUSH1 0x3 SLOAD DUP2 JUMP JUMPDEST CALLVALUE DUP1 ISZERO PUSH2 0x51E JUMPI PUSH1 0x0 DUP1 REVERT JUMPDEST POP PUSH2 0x304 PUSH2 0xF49 JUMP JUMPDEST CALLVALUE DUP1 ISZERO PUSH2 0x533 JUMPI PUSH1 0x0 DUP1 REVERT JUMPDEST POP PUSH2 0x304 PUSH4 0x1B9A680 DUP2 JUMP JUMPDEST CALLVALUE DUP1 ISZERO PUSH2 0x54B JUMPI PUSH1 0x0 DUP1 REVERT JUMPDEST POP PUSH2 0x223 PUSH2 0xF5E JUMP JUMPDEST CALLVALUE DUP1 ISZERO PUSH2 0x560 JUMPI PUSH1 0x0 DUP1 REVERT JUMPDEST POP PUSH2 0x223 PUSH2 0x56F CALLDATASIZE PUSH1 0x4 PUSH2 0x22EA JUMP JUMPDEST PUSH2 0xF94 JUMP JUMPDEST CALLVALUE DUP1 ISZERO PUSH2 0x580 JUMPI PUSH1 0x0 DUP1 REVERT JUMPDEST POP PUSH2 0x304 PUSH2 0x1043 JUMP JUMPDEST CALLVALUE DUP1 ISZERO PUSH2 0x595 JUMPI PUSH1 0x0 DUP1 REVERT JUMPDEST POP PUSH1 0x0 SLOAD PUSH1 0x1 PUSH1 0x1 PUSH1 0xA0 SHL SUB AND PUSH2 0x341 JUMP JUMPDEST CALLVALUE DUP1 ISZERO PUSH2 0x5B3 JUMPI PUSH1 0x0 DUP1 REVERT JUMPDEST POP PUSH2 0x304 PUSH2 0x1063 JUMP JUMPDEST CALLVALUE DUP1 ISZERO PUSH2 0x5C8 JUMPI PUSH1 0x0 DUP1 REVERT JUMPDEST POP PUSH2 0x223 PUSH2 0x5D7 CALLDATASIZE PUSH1 0x4 PUSH2 0x228F JUMP JUMPDEST PUSH2 0x110F JUMP JUMPDEST CALLVALUE DUP1 ISZERO PUSH2 0x5E8 JUMPI PUSH1 0x0 DUP1 REVERT JUMPDEST POP PUSH2 0x304 PUSH1 0x5 SLOAD DUP2 JUMP JUMPDEST CALLVALUE DUP1 ISZERO PUSH2 0x5FE JUMPI PUSH1 0x0 DUP1 REVERT JUMPDEST POP PUSH2 0x223 PUSH2 0x60D CALLDATASIZE PUSH1 0x4 PUSH2 0x22EA JUMP JUMPDEST PUSH2 0x1475 JUMP JUMPDEST CALLVALUE DUP1 ISZERO PUSH2 0x61E JUMPI PUSH1 0x0 DUP1 REVERT JUMPDEST POP PUSH2 0x223 PUSH2 0x62D CALLDATASIZE PUSH1 0x4 PUSH2 0x240C JUMP JUMPDEST PUSH2 0x151F JUMP JUMPDEST CALLVALUE DUP1 ISZERO PUSH2 0x63E JUMPI PUSH1 0x0 DUP1 REVERT JUMPDEST POP PUSH2 0x304 PUSH2 0x64D CALLDATASIZE PUSH1 0x4 PUSH2 0x22C1 JUMP JUMPDEST PUSH2 0x18D7 JUMP JUMPDEST CALLVALUE DUP1 ISZERO PUSH2 0x65E JUMPI PUSH1 0x0 DUP1 REVERT JUMPDEST POP PUSH2 0x304 PUSH3 0x278D00 DUP2 JUMP JUMPDEST CALLVALUE DUP1 ISZERO PUSH2 0x675 JUMPI PUSH1 0x0 DUP1 REVERT JUMPDEST POP PUSH2 0x304 PUSH1 0x2 SLOAD DUP2 JUMP JUMPDEST CALLVALUE DUP1 ISZERO PUSH2 0x68B JUMPI PUSH1 0x0 DUP1 REVERT JUMPDEST POP PUSH2 0x223 PUSH2 0x1AFC JUMP JUMPDEST CALLVALUE DUP1 ISZERO PUSH2 0x6A0 JUMPI PUSH1 0x0 DUP1 REVERT JUMPDEST POP PUSH2 0x223 PUSH2 0x1BDD JUMP JUMPDEST CALLVALUE DUP1 ISZERO PUSH2 0x6B5 JUMPI PUSH1 0x0 DUP1 REVERT JUMPDEST POP PUSH2 0x304 PUSH2 0x1CAD JUMP JUMPDEST CALLVALUE DUP1 ISZERO PUSH2 0x6CA JUMPI PUSH1 0x0 DUP1 REVERT JUMPDEST POP PUSH2 0x304 PUSH1 0xC SLOAD DUP2 JUMP JUMPDEST CALLVALUE DUP1 ISZERO PUSH2 0x6E0 JUMPI PUSH1 0x0 DUP1 REVERT JUMPDEST POP PUSH2 0x223 PUSH2 0x6EF CALLDATASIZE PUSH1 0x4 PUSH2 0x2275 JUMP JUMPDEST PUSH2 0x1D44 JUMP JUMPDEST CALLVALUE DUP1 ISZERO PUSH2 0x700 JUMPI PUSH1 0x0 DUP1 REVERT JUMPDEST POP PUSH2 0x304 PUSH1 0x4 SLOAD DUP2 JUMP JUMPDEST PUSH1 0x0 SLOAD PUSH1 0x1 PUSH1 0x1 PUSH1 0xA0 SHL SUB AND CALLER EQ PUSH2 0x73D JUMPI PUSH1 0x40 MLOAD PUSH3 0x461BCD PUSH1 0xE5 SHL DUP2 MSTORE PUSH1 0x4 ADD PUSH2 0x734 SWAP1 PUSH2 0x2556 JUMP JUMPDEST PUSH1 0x40 MLOAD DUP1 SWAP2 SUB SWAP1 REVERT JUMPDEST PUSH1 0x6 SSTORE JUMP JUMPDEST DUP1 PUSH1 0xC SLOAD PUSH2 0x750 SWAP2 SWAP1 PUSH2 0x25C2 JUMP JUMPDEST PUSH1 0xC SSTORE POP JUMP JUMPDEST PUSH1 0x0 PUSH1 0x3 SLOAD PUSH2 0x763 PUSH2 0x1DEF JUMP JUMPDEST GT SWAP1 POP SWAP1 JUMP JUMPDEST TIMESTAMP DUP2 LT ISZERO PUSH2 0x776 JUMPI PUSH1 0x0 DUP1 REVERT JUMPDEST DUP2 ISZERO PUSH2 0x782 JUMPI PUSH1 0x2 DUP3 SWAP1 SSTORE JUMPDEST PUSH1 0x3 SSTORE POP JUMP JUMPDEST PUSH1 0x2 PUSH1 0x1 SLOAD EQ ISZERO PUSH2 0x7AB JUMPI PUSH1 0x40 MLOAD PUSH3 0x461BCD PUSH1 0xE5 SHL DUP2 MSTORE PUSH1 0x4 ADD PUSH2 0x734 SWAP1 PUSH2 0x258B JUMP JUMPDEST PUSH1 0x2 PUSH1 0x1 SWAP1 DUP2 SSTORE PUSH1 0x1 PUSH1 0x1 PUSH1 0xA0 SHL SUB DUP3 AND PUSH1 0x0 SWAP1 DUP2 MSTORE PUSH1 0xA PUSH1 0x20 MSTORE PUSH1 0x40 SWAP1 KECCAK256 SLOAD DUP3 SWAP2 PUSH1 0xFF SWAP1 SWAP2 AND ISZERO ISZERO EQ PUSH2 0x7F1 JUMPI PUSH1 0x40 MLOAD PUSH3 0x461BCD PUSH1 0xE5 SHL DUP2 MSTORE PUSH1 0x4 ADD PUSH2 0x734 SWAP1 PUSH2 0x2506 JUMP JUMPDEST PUSH1 0x1 PUSH1 0x1 PUSH1 0xA0 SHL SUB DUP3 AND PUSH1 0x0 DUP2 DUP2 MSTORE PUSH1 0xA PUSH1 0x20 MSTORE PUSH1 0x40 DUP2 KECCAK256 SWAP2 CALLER EQ SWAP1 PUSH2 0x81F PUSH1 0x0 SLOAD PUSH1 0x1 PUSH1 0x1 PUSH1 0xA0 SHL SUB AND SWAP1 JUMP JUMPDEST PUSH1 0x1 PUSH1 0x1 PUSH1 0xA0 SHL SUB AND CALLER PUSH1 0x1 PUSH1 0x1 PUSH1 0xA0 SHL SUB AND EQ SWAP1 POP DUP2 DUP1 PUSH2 0x83E JUMPI POP DUP1 JUMPDEST PUSH2 0x8C2 JUMPI PUSH1 0x40 MLOAD PUSH3 0x461BCD PUSH1 0xE5 SHL DUP2 MSTORE PUSH1 0x20 PUSH1 0x4 DUP3 ADD MSTORE PUSH1 0x49 PUSH1 0x24 DUP3 ADD MSTORE PUSH32 0x5072697661746553616C65436F6E74726163743A206F6E6C792062656E656669 PUSH1 0x44 DUP3 ADD MSTORE PUSH32 0x636961727920616E64206F776E65722063616E2072656C656173652076657374 PUSH1 0x64 DUP3 ADD MSTORE PUSH9 0x656420746F6B656E73 PUSH1 0xB8 SHL PUSH1 0x84 DUP3 ADD MSTORE PUSH1 0xA4 ADD PUSH2 0x734 JUMP JUMPDEST PUSH1 0x40 DUP1 MLOAD PUSH1 0x80 DUP2 ADD DUP3 MSTORE DUP5 SLOAD PUSH1 0xFF DUP2 AND ISZERO ISZERO DUP3 MSTORE PUSH2 0x100 SWAP1 DIV PUSH1 0x1 PUSH1 0x1 PUSH1 0xA0 SHL SUB AND PUSH1 0x20 DUP3 ADD MSTORE PUSH1 0x1 DUP6 ADD SLOAD SWAP2 DUP2 ADD SWAP2 SWAP1 SWAP2 MSTORE PUSH1 0x2 DUP5 ADD SLOAD PUSH1 0x60 DUP3 ADD MSTORE PUSH1 0x0 SWAP1 PUSH2 0x90B SWAP1 PUSH2 0x1DFF JUMP JUMPDEST SWAP1 POP PUSH1 0x0 DUP2 GT PUSH2 0x96F JUMPI PUSH1 0x40 MLOAD PUSH3 0x461BCD PUSH1 0xE5 SHL DUP2 MSTORE PUSH1 0x20 PUSH1 0x4 DUP3 ADD MSTORE PUSH1 0x29 PUSH1 0x24 DUP3 ADD MSTORE PUSH32 0x5072697661746553616C65436F6E74726163743A206E6F20746F6B656E732076 PUSH1 0x44 DUP3 ADD MSTORE PUSH9 0x195CDD1959081E595D PUSH1 0xBA SHL PUSH1 0x64 DUP3 ADD MSTORE PUSH1 0x84 ADD PUSH2 0x734 JUMP JUMPDEST PUSH1 0x2 DUP5 ADD SLOAD PUSH2 0x97E SWAP1 DUP3 PUSH2 0x1DDC JUMP JUMPDEST PUSH1 0x2 DUP6 ADD SSTORE PUSH1 0xB SLOAD PUSH2 0x990 SWAP1 DUP3 PUSH2 0x1F02 JUMP JUMPDEST PUSH1 0xB SSTORE DUP6 PUSH2 0x9C8 PUSH1 0x1 PUSH1 0x1 PUSH1 0xA0 SHL SUB PUSH32 0x0 AND DUP3 DUP5 PUSH2 0x1F0E JUMP JUMPDEST PUSH1 0x5 SLOAD PUSH2 0x9D5 SWAP1 DUP4 PUSH2 0x1DDC JUMP JUMPDEST PUSH1 0x5 SSTORE PUSH1 0x40 DUP1 MLOAD CALLER DUP2 MSTORE PUSH1 0x20 DUP2 ADD DUP5 SWAP1 MSTORE PUSH32 0xB21FB52D5749B80F3182F8C6992236B5E5576681880914484D7F4C9B062E619E SWAP2 ADD JUMPDEST PUSH1 0x40 MLOAD DUP1 SWAP2 SUB SWAP1 LOG1 POP POP PUSH1 0x1 DUP1 SSTORE POP POP POP POP POP JUMP JUMPDEST PUSH1 0x0 DUP1 PUSH2 0xA2A PUSH2 0x1DEF JUMP JUMPDEST SWAP3 SWAP2 POP POP JUMP JUMPDEST PUSH1 0x2 PUSH1 0x1 SLOAD EQ ISZERO PUSH2 0xA53 JUMPI PUSH1 0x40 MLOAD PUSH3 0x461BCD PUSH1 0xE5 SHL DUP2 MSTORE PUSH1 0x4 ADD PUSH2 0x734 SWAP1 PUSH2 0x258B JUMP JUMPDEST PUSH1 0x2 PUSH1 0x1 SSTORE PUSH1 0x0 SLOAD PUSH1 0x1 PUSH1 0x1 PUSH1 0xA0 SHL SUB AND CALLER EQ PUSH2 0xA82 JUMPI PUSH1 0x40 MLOAD PUSH3 0x461BCD PUSH1 0xE5 SHL DUP2 MSTORE PUSH1 0x4 ADD PUSH2 0x734 SWAP1 PUSH2 0x2556 JUMP JUMPDEST PUSH2 0xAC8 PUSH2 0xA97 PUSH1 0x0 SLOAD PUSH1 0x1 PUSH1 0x1 PUSH1 0xA0 SHL SUB AND SWAP1 JUMP JUMPDEST PUSH1 0x1 PUSH1 0x1 PUSH1 0xA0 SHL SUB PUSH32 0x0 AND SWAP1 DUP4 PUSH2 0x1F0E JUMP JUMPDEST POP PUSH1 0x1 DUP1 SSTORE JUMP JUMPDEST PUSH1 0x0 SLOAD PUSH1 0x1 PUSH1 0x1 PUSH1 0xA0 SHL SUB AND CALLER EQ PUSH2 0xAF9 JUMPI PUSH1 0x40 MLOAD PUSH3 0x461BCD PUSH1 0xE5 SHL DUP2 MSTORE PUSH1 0x4 ADD PUSH2 0x734 SWAP1 PUSH2 0x2556 JUMP JUMPDEST DUP1 PUSH1 0x8 DUP5 DUP5 PUSH1 0x40 MLOAD PUSH2 0xB0C SWAP3 SWAP2 SWAP1 PUSH2 0x24C3 JUMP JUMPDEST SWAP1 DUP2 MSTORE PUSH1 0x40 MLOAD SWAP1 DUP2 SWAP1 SUB PUSH1 0x20 ADD SWAP1 KECCAK256 DUP1 SLOAD PUSH1 0x1 PUSH1 0x1 PUSH1 0xA0 SHL SUB SWAP3 SWAP1 SWAP3 AND PUSH1 0x1 PUSH1 0x1 PUSH1 0xA0 SHL SUB NOT SWAP1 SWAP3 AND SWAP2 SWAP1 SWAP2 OR SWAP1 SSTORE POP POP POP JUMP JUMPDEST PUSH1 0x0 PUSH1 0x1 PUSH1 0x1 PUSH1 0xA0 SHL SUB DUP3 AND PUSH2 0xB55 JUMPI PUSH1 0x0 DUP1 REVERT JUMPDEST POP PUSH1 0x1 PUSH1 0x1 PUSH1 0xA0 SHL SUB AND PUSH1 0x0 SWAP1 DUP2 MSTORE PUSH1 0x9 PUSH1 0x20 MSTORE PUSH1 0x40 SWAP1 KECCAK256 SLOAD PUSH1 0xFF AND SWAP1 JUMP JUMPDEST PUSH1 0x0 SLOAD PUSH1 0x1 PUSH1 0x1 PUSH1 0xA0 SHL SUB AND CALLER EQ PUSH2 0xB9E JUMPI PUSH1 0x40 MLOAD PUSH3 0x461BCD PUSH1 0xE5 SHL DUP2 MSTORE PUSH1 0x4 ADD PUSH2 0x734 SWAP1 PUSH2 0x2556 JUMP JUMPDEST DUP1 ADDRESS PUSH1 0x1 PUSH1 0x1 PUSH1 0xA0 SHL SUB AND PUSH4 0x90BE10CC PUSH1 0x40 MLOAD DUP2 PUSH4 0xFFFFFFFF AND PUSH1 0xE0 SHL DUP2 MSTORE PUSH1 0x4 ADD PUSH1 0x20 PUSH1 0x40 MLOAD DUP1 DUP4 SUB DUP2 DUP7 DUP1 EXTCODESIZE ISZERO DUP1 ISZERO PUSH2 0xBD8 JUMPI PUSH1 0x0 DUP1 REVERT JUMPDEST POP GAS STATICCALL ISZERO DUP1 ISZERO PUSH2 0xBEC JUMPI RETURNDATASIZE PUSH1 0x0 DUP1 RETURNDATACOPY RETURNDATASIZE PUSH1 0x0 REVERT JUMPDEST POP POP POP POP PUSH1 0x40 MLOAD RETURNDATASIZE PUSH1 0x1F NOT PUSH1 0x1F DUP3 ADD AND DUP3 ADD DUP1 PUSH1 0x40 MSTORE POP DUP2 ADD SWAP1 PUSH2 0xC10 SWAP2 SWAP1 PUSH2 0x246E JUMP JUMPDEST LT ISZERO PUSH2 0xC9E JUMPI PUSH1 0x40 MLOAD PUSH3 0x461BCD PUSH1 0xE5 SHL DUP2 MSTORE PUSH1 0x20 PUSH1 0x4 DUP3 ADD MSTORE PUSH1 0x51 PUSH1 0x24 DUP3 ADD MSTORE PUSH32 0x5072697661746553616C65436F6E74726163743A2063616E6E6F742063726561 PUSH1 0x44 DUP3 ADD MSTORE PUSH32 0x74652076657374696E67207363686564756C652062656361757365206E6F7420 PUSH1 0x64 DUP3 ADD MSTORE PUSH17 0x73756666696369656E7420746F6B656E73 PUSH1 0x78 SHL PUSH1 0x84 DUP3 ADD MSTORE PUSH1 0xA4 ADD PUSH2 0x734 JUMP JUMPDEST PUSH1 0x0 DUP2 GT PUSH2 0xCFE JUMPI PUSH1 0x40 MLOAD PUSH3 0x461BCD PUSH1 0xE5 SHL DUP2 MSTORE PUSH1 0x20 PUSH1 0x4 DUP3 ADD MSTORE PUSH1 0x27 PUSH1 0x24 DUP3 ADD MSTORE PUSH32 0x5072697661746553616C65436F6E74726163743A20616D6F756E74206D757374 PUSH1 0x44 DUP3 ADD MSTORE PUSH7 0x206265203E203 PUSH1 0xCC SHL PUSH1 0x64 DUP3 ADD MSTORE PUSH1 0x84 ADD PUSH2 0x734 JUMP JUMPDEST PUSH1 0x1 PUSH1 0x1 PUSH1 0xA0 SHL SUB DUP3 AND PUSH1 0x0 SWAP1 DUP2 MSTORE PUSH1 0xA PUSH1 0x20 MSTORE PUSH1 0x40 SWAP1 KECCAK256 SLOAD PUSH1 0xFF AND ISZERO ISZERO PUSH1 0x1 EQ ISZERO PUSH2 0xD6B JUMPI PUSH1 0x1 PUSH1 0x1 PUSH1 0xA0 SHL SUB DUP3 AND PUSH1 0x0 SWAP1 DUP2 MSTORE PUSH1 0xA PUSH1 0x20 MSTORE PUSH1 0x40 SWAP1 KECCAK256 PUSH1 0x1 ADD SLOAD PUSH2 0xD4A SWAP1 DUP3 PUSH2 0x1DDC JUMP JUMPDEST PUSH1 0x1 PUSH1 0x1 PUSH1 0xA0 SHL SUB DUP4 AND PUSH1 0x0 SWAP1 DUP2 MSTORE PUSH1 0xA PUSH1 0x20 MSTORE PUSH1 0x40 SWAP1 KECCAK256 PUSH1 0x1 ADD SSTORE PUSH2 0xDE6 JUMP JUMPDEST PUSH1 0x40 DUP1 MLOAD PUSH1 0x80 DUP2 ADD DUP3 MSTORE PUSH1 0x1 DUP1 DUP3 MSTORE PUSH1 0x1 PUSH1 0x1 PUSH1 0xA0 SHL SUB DUP6 DUP2 AND PUSH1 0x20 DUP1 DUP6 ADD DUP3 DUP2 MSTORE DUP6 DUP8 ADD DUP9 DUP2 MSTORE PUSH1 0x0 PUSH1 0x60 DUP9 ADD DUP2 DUP2 MSTORE SWAP5 DUP2 MSTORE PUSH1 0xA SWAP1 SWAP4 MSTORE SWAP7 SWAP1 SWAP2 KECCAK256 SWAP5 MLOAD DUP6 SLOAD SWAP2 MLOAD PUSH1 0x1 PUSH1 0x1 PUSH1 0xA8 SHL SUB NOT SWAP1 SWAP3 AND SWAP1 ISZERO ISZERO PUSH2 0x100 PUSH1 0x1 PUSH1 0xA8 SHL SUB NOT AND OR PUSH2 0x100 SWAP2 SWAP1 SWAP4 AND MUL SWAP2 SWAP1 SWAP2 OR DUP4 SSTORE SWAP3 MLOAD SWAP1 DUP3 ADD SSTORE SWAP1 MLOAD PUSH1 0x2 SWAP1 SWAP2 ADD SSTORE JUMPDEST PUSH1 0xB SLOAD PUSH2 0xDF3 SWAP1 DUP3 PUSH2 0x1DDC JUMP JUMPDEST PUSH1 0xB SSTORE PUSH1 0x4 SLOAD PUSH2 0xE03 SWAP1 DUP3 PUSH2 0x1DDC JUMP JUMPDEST PUSH1 0x4 SSTORE PUSH1 0x40 DUP1 MLOAD PUSH1 0x1 PUSH1 0x1 PUSH1 0xA0 SHL SUB DUP5 AND DUP2 MSTORE PUSH1 0x0 PUSH1 0x20 DUP3 ADD MSTORE SWAP1 DUP2 ADD DUP3 SWAP1 MSTORE PUSH32 0x6D7C513D5F4AB303351ED7F68DA41871B2D39C7093BB2A94F5D5A3BA63A6928 SWAP1 PUSH1 0x60 ADD PUSH1 0x40 MLOAD DUP1 SWAP2 SUB SWAP1 LOG1 POP POP JUMP JUMPDEST PUSH1 0x0 SLOAD PUSH1 0x1 PUSH1 0x1 PUSH1 0xA0 SHL SUB AND CALLER EQ PUSH2 0xE7E JUMPI PUSH1 0x40 MLOAD PUSH3 0x461BCD PUSH1 0xE5 SHL DUP2 MSTORE PUSH1 0x4 ADD PUSH2 0x734 SWAP1 PUSH2 0x2556 JUMP JUMPDEST PUSH1 0x0 PUSH1 0x8 DUP4 DUP4 PUSH1 0x40 MLOAD PUSH2 0xE92 SWAP3 SWAP2 SWAP1 PUSH2 0x24C3 JUMP JUMPDEST SWAP1 DUP2 MSTORE PUSH1 0x40 MLOAD SWAP1 DUP2 SWAP1 SUB PUSH1 0x20 ADD DUP2 KECCAK256 SLOAD PUSH4 0x70A08231 PUSH1 0xE0 SHL DUP3 MSTORE ADDRESS PUSH1 0x4 DUP4 ADD MSTORE PUSH1 0x1 PUSH1 0x1 PUSH1 0xA0 SHL SUB AND SWAP2 POP PUSH1 0x0 SWAP1 DUP3 SWAP1 PUSH4 0x70A08231 SWAP1 PUSH1 0x24 ADD PUSH1 0x20 PUSH1 0x40 MLOAD DUP1 DUP4 SUB DUP2 DUP7 DUP1 EXTCODESIZE ISZERO DUP1 ISZERO PUSH2 0xEE3 JUMPI PUSH1 0x0 DUP1 REVERT JUMPDEST POP GAS STATICCALL ISZERO DUP1 ISZERO PUSH2 0xEF7 JUMPI RETURNDATASIZE PUSH1 0x0 DUP1 RETURNDATACOPY RETURNDATASIZE PUSH1 0x0 REVERT JUMPDEST POP POP POP POP PUSH1 0x40 MLOAD RETURNDATASIZE PUSH1 0x1F NOT PUSH1 0x1F DUP3 ADD AND DUP3 ADD DUP1 PUSH1 0x40 MSTORE POP DUP2 ADD SWAP1 PUSH2 0xF1B SWAP2 SWAP1 PUSH2 0x246E JUMP JUMPDEST SWAP1 POP PUSH2 0xF43 PUSH2 0xF32 PUSH1 0x0 SLOAD PUSH1 0x1 PUSH1 0x1 PUSH1 0xA0 SHL SUB AND SWAP1 JUMP JUMPDEST PUSH1 0x1 PUSH1 0x1 PUSH1 0xA0 SHL SUB DUP5 AND SWAP1 DUP4 PUSH2 0x1F0E JUMP JUMPDEST POP POP POP POP JUMP JUMPDEST PUSH2 0xF5B PUSH4 0x1B9A680 PUSH4 0x3944280 PUSH2 0x2619 JUMP JUMPDEST DUP2 JUMP JUMPDEST PUSH1 0x0 SLOAD PUSH1 0x1 PUSH1 0x1 PUSH1 0xA0 SHL SUB AND CALLER EQ PUSH2 0xF88 JUMPI PUSH1 0x40 MLOAD PUSH3 0x461BCD PUSH1 0xE5 SHL DUP2 MSTORE PUSH1 0x4 ADD PUSH2 0x734 SWAP1 PUSH2 0x2556 JUMP JUMPDEST PUSH2 0xF92 PUSH1 0x0 PUSH2 0x1F60 JUMP JUMPDEST JUMP JUMPDEST PUSH1 0x0 SLOAD PUSH1 0x1 PUSH1 0x1 PUSH1 0xA0 SHL SUB AND CALLER EQ PUSH2 0xFBE JUMPI PUSH1 0x40 MLOAD PUSH3 0x461BCD PUSH1 0xE5 SHL DUP2 MSTORE PUSH1 0x4 ADD PUSH2 0x734 SWAP1 PUSH2 0x2556 JUMP JUMPDEST PUSH1 0x0 JUMPDEST DUP2 DUP2 LT ISZERO PUSH2 0x103E JUMPI PUSH1 0x0 PUSH1 0x9 PUSH1 0x0 DUP6 DUP6 DUP6 DUP2 DUP2 LT PUSH2 0xFEF JUMPI PUSH4 0x4E487B71 PUSH1 0xE0 SHL PUSH1 0x0 MSTORE PUSH1 0x32 PUSH1 0x4 MSTORE PUSH1 0x24 PUSH1 0x0 REVERT JUMPDEST SWAP1 POP PUSH1 0x20 MUL ADD PUSH1 0x20 DUP2 ADD SWAP1 PUSH2 0x1004 SWAP2 SWAP1 PUSH2 0x2275 JUMP JUMPDEST PUSH1 0x1 PUSH1 0x1 PUSH1 0xA0 SHL SUB AND DUP2 MSTORE PUSH1 0x20 DUP2 ADD SWAP2 SWAP1 SWAP2 MSTORE PUSH1 0x40 ADD PUSH1 0x0 KECCAK256 DUP1 SLOAD PUSH1 0xFF NOT AND SWAP2 ISZERO ISZERO SWAP2 SWAP1 SWAP2 OR SWAP1 SSTORE DUP1 PUSH2 0x1036 DUP2 PUSH2 0x265C JUMP JUMPDEST SWAP2 POP POP PUSH2 0xFC1 JUMP JUMPDEST POP POP POP JUMP JUMPDEST PUSH3 0x278D00 PUSH2 0x1059 PUSH4 0x1B9A680 PUSH4 0x3944280 PUSH2 0x2619 JUMP JUMPDEST PUSH2 0xF5B SWAP2 SWAP1 PUSH2 0x25DA JUMP JUMPDEST PUSH1 0xB SLOAD PUSH1 0x40 MLOAD PUSH4 0x70A08231 PUSH1 0xE0 SHL DUP2 MSTORE ADDRESS PUSH1 0x4 DUP3 ADD MSTORE PUSH1 0x0 SWAP2 PUSH2 0x110A SWAP2 PUSH1 0x1 PUSH1 0x1 PUSH1 0xA0 SHL SUB PUSH32 0x0 AND SWAP1 PUSH4 0x70A08231 SWAP1 PUSH1 0x24 ADD PUSH1 0x20 PUSH1 0x40 MLOAD DUP1 DUP4 SUB DUP2 DUP7 DUP1 EXTCODESIZE ISZERO DUP1 ISZERO PUSH2 0x10CC JUMPI PUSH1 0x0 DUP1 REVERT JUMPDEST POP GAS STATICCALL ISZERO DUP1 ISZERO PUSH2 0x10E0 JUMPI RETURNDATASIZE PUSH1 0x0 DUP1 RETURNDATACOPY RETURNDATASIZE PUSH1 0x0 REVERT JUMPDEST POP POP POP POP PUSH1 0x40 MLOAD RETURNDATASIZE PUSH1 0x1F NOT PUSH1 0x1F DUP3 ADD AND DUP3 ADD DUP1 PUSH1 0x40 MSTORE POP DUP2 ADD SWAP1 PUSH2 0x1104 SWAP2 SWAP1 PUSH2 0x246E JUMP JUMPDEST SWAP1 PUSH2 0x1F02 JUMP JUMPDEST SWAP1 POP SWAP1 JUMP JUMPDEST PUSH1 0x2 PUSH1 0x1 SLOAD EQ ISZERO PUSH2 0x1132 JUMPI PUSH1 0x40 MLOAD PUSH3 0x461BCD PUSH1 0xE5 SHL DUP2 MSTORE PUSH1 0x4 ADD PUSH2 0x734 SWAP1 PUSH2 0x258B JUMP JUMPDEST PUSH1 0x2 PUSH1 0x1 SWAP1 DUP2 SSTORE PUSH1 0x1 PUSH1 0x1 PUSH1 0xA0 SHL SUB DUP4 AND PUSH1 0x0 SWAP1 DUP2 MSTORE PUSH1 0xA PUSH1 0x20 MSTORE PUSH1 0x40 SWAP1 KECCAK256 SLOAD DUP4 SWAP2 PUSH1 0xFF SWAP1 SWAP2 AND ISZERO ISZERO EQ PUSH2 0x1178 JUMPI PUSH1 0x40 MLOAD PUSH3 0x461BCD PUSH1 0xE5 SHL DUP2 MSTORE PUSH1 0x4 ADD PUSH2 0x734 SWAP1 PUSH2 0x2506 JUMP JUMPDEST PUSH1 0x0 PUSH2 0x1182 PUSH2 0x1DEF JUMP JUMPDEST SWAP1 POP PUSH32 0x0 DUP2 LT PUSH2 0x122F JUMPI PUSH1 0x40 MLOAD PUSH3 0x461BCD PUSH1 0xE5 SHL DUP2 MSTORE PUSH1 0x20 PUSH1 0x4 DUP3 ADD MSTORE PUSH1 0x4D PUSH1 0x24 DUP3 ADD MSTORE PUSH32 0x5072697661746553616C65436F6E74726163743A2043616E6E6F74207472616E PUSH1 0x44 DUP3 ADD MSTORE PUSH32 0x736665722062656E6566696369617279207768656E2076657374696E6720616C PUSH1 0x64 DUP3 ADD MSTORE PUSH13 0x1C9958591E481CDD185C9D1959 PUSH1 0x9A SHL PUSH1 0x84 DUP3 ADD MSTORE PUSH1 0xA4 ADD PUSH2 0x734 JUMP JUMPDEST PUSH1 0x0 SLOAD PUSH1 0x1 PUSH1 0x1 PUSH1 0xA0 SHL SUB AND CALLER EQ DUP1 PUSH2 0x129F JUMPI PUSH1 0x40 MLOAD PUSH3 0x461BCD PUSH1 0xE5 SHL DUP2 MSTORE PUSH1 0x20 PUSH1 0x4 DUP3 ADD MSTORE PUSH1 0x2C PUSH1 0x24 DUP3 ADD MSTORE PUSH32 0x5072697661746553616C65436F6E74726163743A206F6E6C79206F776E657220 PUSH1 0x44 DUP3 ADD MSTORE PUSH12 0x31B0B7103A3930B739B332B9 PUSH1 0xA1 SHL PUSH1 0x64 DUP3 ADD MSTORE PUSH1 0x84 ADD PUSH2 0x734 JUMP JUMPDEST PUSH1 0x1 PUSH1 0x1 PUSH1 0xA0 SHL SUB DUP6 AND PUSH1 0x0 SWAP1 DUP2 MSTORE PUSH1 0xA PUSH1 0x20 MSTORE PUSH1 0x40 DUP2 KECCAK256 PUSH1 0x2 DUP2 ADD SLOAD PUSH1 0x1 DUP3 ADD SLOAD SWAP2 SWAP3 SWAP2 PUSH2 0x12CD SWAP2 PUSH2 0x1F02 JUMP JUMPDEST SWAP1 POP PUSH1 0x0 DUP2 GT PUSH2 0x1337 JUMPI PUSH1 0x40 MLOAD PUSH3 0x461BCD PUSH1 0xE5 SHL DUP2 MSTORE PUSH1 0x20 PUSH1 0x4 DUP3 ADD MSTORE PUSH1 0x2F PUSH1 0x24 DUP3 ADD MSTORE PUSH32 0x5072697661746553616C65436F6E74726163743A206E6F206D6F726520746F6B PUSH1 0x44 DUP3 ADD MSTORE PUSH15 0x32B739903A37903A3930B739B332B9 PUSH1 0x89 SHL PUSH1 0x64 DUP3 ADD MSTORE PUSH1 0x84 ADD PUSH2 0x734 JUMP JUMPDEST PUSH1 0x1 DUP3 ADD SLOAD PUSH2 0x1346 SWAP1 DUP3 PUSH2 0x1F02 JUMP JUMPDEST PUSH1 0x1 DUP1 DUP5 ADD SWAP2 SWAP1 SWAP2 SSTORE PUSH1 0x1 PUSH1 0x1 PUSH1 0xA0 SHL SUB DUP8 AND PUSH1 0x0 SWAP1 DUP2 MSTORE PUSH1 0xA PUSH1 0x20 MSTORE PUSH1 0x40 SWAP1 KECCAK256 SLOAD PUSH1 0xFF AND ISZERO ISZERO EQ ISZERO PUSH2 0x13BA JUMPI PUSH1 0x1 PUSH1 0x1 PUSH1 0xA0 SHL SUB DUP7 AND PUSH1 0x0 SWAP1 DUP2 MSTORE PUSH1 0xA PUSH1 0x20 MSTORE PUSH1 0x40 SWAP1 KECCAK256 PUSH1 0x1 ADD SLOAD PUSH2 0x1399 SWAP1 DUP3 PUSH2 0x1DDC JUMP JUMPDEST PUSH1 0x1 PUSH1 0x1 PUSH1 0xA0 SHL SUB DUP8 AND PUSH1 0x0 SWAP1 DUP2 MSTORE PUSH1 0xA PUSH1 0x20 MSTORE PUSH1 0x40 SWAP1 KECCAK256 PUSH1 0x1 ADD SSTORE PUSH2 0x1435 JUMP JUMPDEST PUSH1 0x40 DUP1 MLOAD PUSH1 0x80 DUP2 ADD DUP3 MSTORE PUSH1 0x1 DUP1 DUP3 MSTORE PUSH1 0x1 PUSH1 0x1 PUSH1 0xA0 SHL SUB DUP10 DUP2 AND PUSH1 0x20 DUP1 DUP6 ADD DUP3 DUP2 MSTORE DUP6 DUP8 ADD DUP9 DUP2 MSTORE PUSH1 0x0 PUSH1 0x60 DUP9 ADD DUP2 DUP2 MSTORE SWAP5 DUP2 MSTORE PUSH1 0xA SWAP1 SWAP4 MSTORE SWAP7 SWAP1 SWAP2 KECCAK256 SWAP5 MLOAD DUP6 SLOAD SWAP2 MLOAD PUSH1 0x1 PUSH1 0x1 PUSH1 0xA8 SHL SUB NOT SWAP1 SWAP3 AND SWAP1 ISZERO ISZERO PUSH2 0x100 PUSH1 0x1 PUSH1 0xA8 SHL SUB NOT AND OR PUSH2 0x100 SWAP2 SWAP1 SWAP4 AND MUL SWAP2 SWAP1 SWAP2 OR DUP4 SSTORE SWAP3 MLOAD SWAP1 DUP3 ADD SSTORE SWAP1 MLOAD PUSH1 0x2 SWAP1 SWAP2 ADD SSTORE JUMPDEST PUSH1 0x40 DUP1 MLOAD PUSH1 0x1 PUSH1 0x1 PUSH1 0xA0 SHL SUB DUP1 DUP11 AND DUP3 MSTORE DUP9 AND PUSH1 0x20 DUP3 ADD MSTORE PUSH32 0xFBE993C87B521DCEB251DE21F65269F508A499C8545576CC8C1265D423DA2B1C SWAP2 ADD PUSH2 0xA0A JUMP JUMPDEST PUSH1 0x0 SLOAD PUSH1 0x1 PUSH1 0x1 PUSH1 0xA0 SHL SUB AND CALLER EQ PUSH2 0x149F JUMPI PUSH1 0x40 MLOAD PUSH3 0x461BCD PUSH1 0xE5 SHL DUP2 MSTORE PUSH1 0x4 ADD PUSH2 0x734 SWAP1 PUSH2 0x2556 JUMP JUMPDEST PUSH1 0x0 JUMPDEST DUP2 DUP2 LT ISZERO PUSH2 0x103E JUMPI PUSH1 0x1 PUSH1 0x9 PUSH1 0x0 DUP6 DUP6 DUP6 DUP2 DUP2 LT PUSH2 0x14D0 JUMPI PUSH4 0x4E487B71 PUSH1 0xE0 SHL PUSH1 0x0 MSTORE PUSH1 0x32 PUSH1 0x4 MSTORE PUSH1 0x24 PUSH1 0x0 REVERT JUMPDEST SWAP1 POP PUSH1 0x20 MUL ADD PUSH1 0x20 DUP2 ADD SWAP1 PUSH2 0x14E5 SWAP2 SWAP1 PUSH2 0x2275 JUMP JUMPDEST PUSH1 0x1 PUSH1 0x1 PUSH1 0xA0 SHL SUB AND DUP2 MSTORE PUSH1 0x20 DUP2 ADD SWAP2 SWAP1 SWAP2 MSTORE PUSH1 0x40 ADD PUSH1 0x0 KECCAK256 DUP1 SLOAD PUSH1 0xFF NOT AND SWAP2 ISZERO ISZERO SWAP2 SWAP1 SWAP2 OR SWAP1 SSTORE DUP1 PUSH2 0x1517 DUP2 PUSH2 0x265C JUMP JUMPDEST SWAP2 POP POP PUSH2 0x14A2 JUMP JUMPDEST PUSH1 0x0 PUSH1 0x7 DUP3 DUP2 SLOAD DUP2 LT PUSH2 0x1542 JUMPI PUSH4 0x4E487B71 PUSH1 0xE0 SHL PUSH1 0x0 MSTORE PUSH1 0x32 PUSH1 0x4 MSTORE PUSH1 0x24 PUSH1 0x0 REVERT JUMPDEST SWAP1 PUSH1 0x0 MSTORE PUSH1 0x20 PUSH1 0x0 KECCAK256 ADD SLOAD SWAP1 POP PUSH1 0x0 DUP2 GT PUSH2 0x15AF JUMPI PUSH1 0x40 MLOAD PUSH3 0x461BCD PUSH1 0xE5 SHL DUP2 MSTORE PUSH1 0x20 PUSH1 0x4 DUP3 ADD MSTORE PUSH1 0x27 PUSH1 0x24 DUP3 ADD MSTORE PUSH32 0x5072697661746553616C65436F6E74726163743A20696E76616C696420706163 PUSH1 0x44 DUP3 ADD MSTORE PUSH7 0x1AD859D9481A59 PUSH1 0xCA SHL PUSH1 0x64 DUP3 ADD MSTORE PUSH1 0x84 ADD PUSH2 0x734 JUMP JUMPDEST PUSH1 0x0 PUSH1 0x8 DUP6 DUP6 PUSH1 0x40 MLOAD PUSH2 0x15C3 SWAP3 SWAP2 SWAP1 PUSH2 0x24C3 JUMP JUMPDEST SWAP1 DUP2 MSTORE PUSH1 0x40 MLOAD SWAP1 DUP2 SWAP1 SUB PUSH1 0x20 ADD SWAP1 KECCAK256 SLOAD PUSH1 0x6 SLOAD PUSH1 0x1 PUSH1 0x1 PUSH1 0xA0 SHL SUB SWAP1 SWAP2 AND SWAP2 POP PUSH1 0x0 SWAP1 PUSH2 0x1602 SWAP1 PUSH2 0x15FC DUP6 PUSH8 0xDE0B6B3A7640000 PUSH2 0x1FB0 JUMP JUMPDEST SWAP1 PUSH2 0x1FBC JUMP JUMPDEST SWAP1 POP DUP1 ADDRESS PUSH1 0x1 PUSH1 0x1 PUSH1 0xA0 SHL SUB AND PUSH4 0x90BE10CC PUSH1 0x40 MLOAD DUP2 PUSH4 0xFFFFFFFF AND PUSH1 0xE0 SHL DUP2 MSTORE PUSH1 0x4 ADD PUSH1 0x20 PUSH1 0x40 MLOAD DUP1 DUP4 SUB DUP2 DUP7 DUP1 EXTCODESIZE ISZERO DUP1 ISZERO PUSH2 0x163E JUMPI PUSH1 0x0 DUP1 REVERT JUMPDEST POP GAS STATICCALL ISZERO DUP1 ISZERO PUSH2 0x1652 JUMPI RETURNDATASIZE PUSH1 0x0 DUP1 RETURNDATACOPY RETURNDATASIZE PUSH1 0x0 REVERT JUMPDEST POP POP POP POP PUSH1 0x40 MLOAD RETURNDATASIZE PUSH1 0x1F NOT PUSH1 0x1F DUP3 ADD AND DUP3 ADD DUP1 PUSH1 0x40 MSTORE POP DUP2 ADD SWAP1 PUSH2 0x1676 SWAP2 SWAP1 PUSH2 0x246E JUMP JUMPDEST LT ISZERO PUSH2 0x16D9 JUMPI PUSH1 0x40 MLOAD PUSH3 0x461BCD PUSH1 0xE5 SHL DUP2 MSTORE PUSH1 0x20 PUSH1 0x4 DUP3 ADD MSTORE PUSH1 0x2C PUSH1 0x24 DUP3 ADD MSTORE PUSH32 0x5072697661746553616C65436F6E74726163743A206E6F7420656E6F75676820 PUSH1 0x44 DUP3 ADD MSTORE PUSH12 0x66756E647320746F20627579 PUSH1 0xA0 SHL PUSH1 0x64 DUP3 ADD MSTORE PUSH1 0x84 ADD PUSH2 0x734 JUMP JUMPDEST PUSH1 0x40 MLOAD PUSH4 0x23B872DD PUSH1 0xE0 SHL DUP2 MSTORE CALLER PUSH1 0x4 DUP3 ADD MSTORE ADDRESS PUSH1 0x24 DUP3 ADD MSTORE PUSH1 0x44 DUP2 ADD DUP5 SWAP1 MSTORE PUSH1 0x1 PUSH1 0x1 PUSH1 0xA0 SHL SUB DUP4 AND SWAP1 PUSH4 0x23B872DD SWAP1 PUSH1 0x64 ADD PUSH1 0x20 PUSH1 0x40 MLOAD DUP1 DUP4 SUB DUP2 PUSH1 0x0 DUP8 DUP1 EXTCODESIZE ISZERO DUP1 ISZERO PUSH2 0x1727 JUMPI PUSH1 0x0 DUP1 REVERT JUMPDEST POP GAS CALL ISZERO DUP1 ISZERO PUSH2 0x173B JUMPI RETURNDATASIZE PUSH1 0x0 DUP1 RETURNDATACOPY RETURNDATASIZE PUSH1 0x0 REVERT JUMPDEST POP POP POP POP PUSH1 0x40 MLOAD RETURNDATASIZE PUSH1 0x1F NOT PUSH1 0x1F DUP3 ADD AND DUP3 ADD DUP1 PUSH1 0x40 MSTORE POP DUP2 ADD SWAP1 PUSH2 0x175F SWAP2 SWAP1 PUSH2 0x235A JUMP JUMPDEST PUSH2 0x17A4 JUMPI PUSH1 0x40 MLOAD PUSH3 0x461BCD PUSH1 0xE5 SHL DUP2 MSTORE PUSH1 0x20 PUSH1 0x4 DUP3 ADD MSTORE PUSH1 0x16 PUSH1 0x24 DUP3 ADD MSTORE PUSH22 0x10DBDD5B19081B9BDD081D1C985B9CD9995C881554D1 PUSH1 0x52 SHL PUSH1 0x44 DUP3 ADD MSTORE PUSH1 0x64 ADD PUSH2 0x734 JUMP JUMPDEST CALLER PUSH1 0x0 SWAP1 DUP2 MSTORE PUSH1 0xA PUSH1 0x20 MSTORE PUSH1 0x40 SWAP1 KECCAK256 SLOAD PUSH1 0xFF AND ISZERO ISZERO PUSH1 0x1 EQ ISZERO PUSH2 0x17F6 JUMPI CALLER PUSH1 0x0 SWAP1 DUP2 MSTORE PUSH1 0xA PUSH1 0x20 MSTORE PUSH1 0x40 SWAP1 KECCAK256 PUSH1 0x1 ADD SLOAD PUSH2 0x17DE SWAP1 DUP3 PUSH2 0x1DDC JUMP JUMPDEST CALLER PUSH1 0x0 SWAP1 DUP2 MSTORE PUSH1 0xA PUSH1 0x20 MSTORE PUSH1 0x40 SWAP1 KECCAK256 PUSH1 0x1 ADD SSTORE PUSH2 0x186E JUMP JUMPDEST PUSH1 0x40 DUP1 MLOAD PUSH1 0x80 DUP2 ADD DUP3 MSTORE PUSH1 0x1 DUP1 DUP3 MSTORE CALLER PUSH1 0x20 DUP1 DUP5 ADD DUP3 DUP2 MSTORE DUP5 DUP7 ADD DUP8 DUP2 MSTORE PUSH1 0x0 PUSH1 0x60 DUP8 ADD DUP2 DUP2 MSTORE SWAP5 DUP2 MSTORE PUSH1 0xA SWAP1 SWAP4 MSTORE SWAP6 SWAP1 SWAP2 KECCAK256 SWAP4 MLOAD DUP5 SLOAD SWAP2 MLOAD PUSH1 0x1 PUSH1 0x1 PUSH1 0xA8 SHL SUB NOT SWAP1 SWAP3 AND SWAP1 ISZERO ISZERO PUSH2 0x100 PUSH1 0x1 PUSH1 0xA8 SHL SUB NOT AND OR PUSH2 0x100 PUSH1 0x1 PUSH1 0x1 PUSH1 0xA0 SHL SUB SWAP1 SWAP3 AND SWAP2 SWAP1 SWAP2 MUL OR DUP4 SSTORE SWAP3 MLOAD SWAP1 DUP3 ADD SSTORE SWAP1 MLOAD PUSH1 0x2 SWAP1 SWAP2 ADD SSTORE JUMPDEST PUSH1 0xB SLOAD PUSH2 0x187B SWAP1 DUP3 PUSH2 0x1DDC JUMP JUMPDEST PUSH1 0xB SSTORE PUSH1 0x4 SLOAD PUSH2 0x188B SWAP1 DUP3 PUSH2 0x1DDC JUMP JUMPDEST PUSH1 0x4 SSTORE PUSH1 0x40 DUP1 MLOAD CALLER DUP2 MSTORE PUSH1 0x20 DUP2 ADD DUP6 SWAP1 MSTORE SWAP1 DUP2 ADD DUP3 SWAP1 MSTORE PUSH32 0x6D7C513D5F4AB303351ED7F68DA41871B2D39C7093BB2A94F5D5A3BA63A6928 SWAP1 PUSH1 0x60 ADD PUSH1 0x40 MLOAD DUP1 SWAP2 SUB SWAP1 LOG1 POP POP POP POP POP POP JUMP JUMPDEST PUSH1 0x1 PUSH1 0x1 PUSH1 0xA0 SHL SUB DUP3 AND PUSH1 0x0 SWAP1 DUP2 MSTORE PUSH1 0xA PUSH1 0x20 MSTORE PUSH1 0x40 DUP2 KECCAK256 SLOAD DUP4 SWAP1 PUSH1 0xFF AND ISZERO ISZERO PUSH1 0x1 EQ PUSH2 0x1916 JUMPI PUSH1 0x40 MLOAD PUSH3 0x461BCD PUSH1 0xE5 SHL DUP2 MSTORE PUSH1 0x4 ADD PUSH2 0x734 SWAP1 PUSH2 0x2506 JUMP JUMPDEST CALLER PUSH1 0x1 PUSH1 0x1 PUSH1 0xA0 SHL SUB DUP6 AND EQ PUSH1 0x0 PUSH2 0x1936 PUSH1 0x0 SLOAD PUSH1 0x1 PUSH1 0x1 PUSH1 0xA0 SHL SUB AND SWAP1 JUMP JUMPDEST PUSH1 0x1 PUSH1 0x1 PUSH1 0xA0 SHL SUB AND CALLER PUSH1 0x1 PUSH1 0x1 PUSH1 0xA0 SHL SUB AND EQ SWAP1 POP DUP2 DUP1 PUSH2 0x1955 JUMPI POP DUP1 JUMPDEST PUSH2 0x19DB JUMPI PUSH1 0x40 MLOAD PUSH3 0x461BCD PUSH1 0xE5 SHL DUP2 MSTORE PUSH1 0x20 PUSH1 0x4 DUP3 ADD MSTORE PUSH1 0x4B PUSH1 0x24 DUP3 ADD MSTORE PUSH32 0x5072697661746553616C65436F6E74726163743A206F6E6C792062656E656669 PUSH1 0x44 DUP3 ADD MSTORE PUSH32 0x636961727920616E64206F776E65722063616E2071756572792072656C656173 PUSH1 0x64 DUP3 ADD MSTORE PUSH11 0x18589B1948185B5BDD5B9D PUSH1 0xAA SHL PUSH1 0x84 DUP3 ADD MSTORE PUSH1 0xA4 ADD PUSH2 0x734 JUMP JUMPDEST PUSH1 0x1 PUSH1 0x1 PUSH1 0xA0 SHL SUB DUP7 AND PUSH1 0x0 SWAP1 DUP2 MSTORE PUSH1 0xA PUSH1 0x20 MSTORE PUSH1 0x40 SWAP1 KECCAK256 PUSH32 0x0 DUP7 LT ISZERO PUSH2 0x1A27 JUMPI PUSH1 0x0 SWAP5 POP POP POP POP PUSH2 0x1AF5 JUMP JUMPDEST PUSH32 0x0 DUP7 LT PUSH2 0x1A6B JUMPI PUSH1 0x2 DUP2 ADD SLOAD PUSH1 0x1 DUP3 ADD SLOAD PUSH2 0x1A61 SWAP2 PUSH2 0x1F02 JUMP JUMPDEST SWAP5 POP POP POP POP PUSH2 0x1AF5 JUMP JUMPDEST PUSH1 0x0 PUSH2 0x1A9E PUSH3 0x278D00 PUSH2 0x15FC DUP10 PUSH32 0x0 PUSH2 0x1F02 JUMP JUMPDEST SWAP1 POP PUSH1 0x0 PUSH2 0x1AD4 PUSH3 0x278D00 PUSH2 0x1ABB PUSH4 0x1B9A680 PUSH4 0x3944280 PUSH2 0x2619 JUMP JUMPDEST PUSH2 0x1AC5 SWAP2 SWAP1 PUSH2 0x25DA JUMP JUMPDEST PUSH1 0x1 DUP6 ADD SLOAD PUSH2 0x15FC SWAP1 DUP6 PUSH2 0x1FB0 JUMP JUMPDEST SWAP1 POP PUSH2 0x1AED DUP4 PUSH1 0x2 ADD SLOAD DUP3 PUSH2 0x1F02 SWAP1 SWAP2 SWAP1 PUSH4 0xFFFFFFFF AND JUMP JUMPDEST SWAP7 POP POP POP POP POP POP JUMPDEST POP SWAP3 SWAP2 POP POP JUMP JUMPDEST PUSH1 0x0 SLOAD PUSH1 0x1 PUSH1 0x1 PUSH1 0xA0 SHL SUB AND CALLER EQ PUSH2 0x1B26 JUMPI PUSH1 0x40 MLOAD PUSH3 0x461BCD PUSH1 0xE5 SHL DUP2 MSTORE PUSH1 0x4 ADD PUSH2 0x734 SWAP1 PUSH2 0x2556 JUMP JUMPDEST PUSH2 0xF92 PUSH2 0x1B3B PUSH1 0x0 SLOAD PUSH1 0x1 PUSH1 0x1 PUSH1 0xA0 SHL SUB AND SWAP1 JUMP JUMPDEST ADDRESS PUSH1 0x1 PUSH1 0x1 PUSH1 0xA0 SHL SUB AND PUSH4 0x90BE10CC PUSH1 0x40 MLOAD DUP2 PUSH4 0xFFFFFFFF AND PUSH1 0xE0 SHL DUP2 MSTORE PUSH1 0x4 ADD PUSH1 0x20 PUSH1 0x40 MLOAD DUP1 DUP4 SUB DUP2 DUP7 DUP1 EXTCODESIZE ISZERO DUP1 ISZERO PUSH2 0x1B74 JUMPI PUSH1 0x0 DUP1 REVERT JUMPDEST POP GAS STATICCALL ISZERO DUP1 ISZERO PUSH2 0x1B88 JUMPI RETURNDATASIZE PUSH1 0x0 DUP1 RETURNDATACOPY RETURNDATASIZE PUSH1 0x0 REVERT JUMPDEST POP POP POP POP PUSH1 0x40 MLOAD RETURNDATASIZE PUSH1 0x1F NOT PUSH1 0x1F DUP3 ADD AND DUP3 ADD DUP1 PUSH1 0x40 MSTORE POP DUP2 ADD SWAP1 PUSH2 0x1BAC SWAP2 SWAP1 PUSH2 0x246E JUMP JUMPDEST PUSH1 0x1 PUSH1 0x1 PUSH1 0xA0 SHL SUB PUSH32 0x0 AND SWAP2 SWAP1 PUSH2 0x1F0E JUMP JUMPDEST PUSH1 0x0 SLOAD PUSH1 0x1 PUSH1 0x1 PUSH1 0xA0 SHL SUB AND CALLER EQ PUSH2 0x1C07 JUMPI PUSH1 0x40 MLOAD PUSH3 0x461BCD PUSH1 0xE5 SHL DUP2 MSTORE PUSH1 0x4 ADD PUSH2 0x734 SWAP1 PUSH2 0x2556 JUMP JUMPDEST PUSH1 0x0 SELFBALANCE GT PUSH2 0x1C70 JUMPI PUSH1 0x40 MLOAD PUSH3 0x461BCD PUSH1 0xE5 SHL DUP2 MSTORE PUSH1 0x20 PUSH1 0x4 DUP3 ADD MSTORE PUSH1 0x30 PUSH1 0x24 DUP3 ADD MSTORE PUSH32 0x5072697661746553616C65436F6E74726163743A20436F6E7472616374277320 PUSH1 0x44 DUP3 ADD MSTORE PUSH16 0x62616C616E636520697320656D707479 PUSH1 0x80 SHL PUSH1 0x64 DUP3 ADD MSTORE PUSH1 0x84 ADD PUSH2 0x734 JUMP JUMPDEST PUSH1 0x0 DUP1 SLOAD PUSH1 0x40 MLOAD PUSH1 0x1 PUSH1 0x1 PUSH1 0xA0 SHL SUB SWAP1 SWAP2 AND SWAP2 SELFBALANCE DUP1 ISZERO PUSH2 0x8FC MUL SWAP3 SWAP1 SWAP2 DUP2 DUP2 DUP2 DUP6 DUP9 DUP9 CALL SWAP4 POP POP POP POP ISZERO DUP1 ISZERO PUSH2 0x1CAA JUMPI RETURNDATASIZE PUSH1 0x0 DUP1 RETURNDATACOPY RETURNDATASIZE PUSH1 0x0 REVERT JUMPDEST POP JUMP JUMPDEST CALLER PUSH1 0x0 DUP2 DUP2 MSTORE PUSH1 0xA PUSH1 0x20 MSTORE PUSH1 0x40 DUP2 KECCAK256 SLOAD SWAP1 SWAP2 SWAP1 PUSH1 0xFF AND ISZERO ISZERO PUSH1 0x1 EQ PUSH2 0x1CE4 JUMPI PUSH1 0x40 MLOAD PUSH3 0x461BCD PUSH1 0xE5 SHL DUP2 MSTORE PUSH1 0x4 ADD PUSH2 0x734 SWAP1 PUSH2 0x2506 JUMP JUMPDEST CALLER PUSH1 0x0 SWAP1 DUP2 MSTORE PUSH1 0xA PUSH1 0x20 SWAP1 DUP2 MSTORE PUSH1 0x40 SWAP2 DUP3 SWAP1 KECCAK256 DUP3 MLOAD PUSH1 0x80 DUP2 ADD DUP5 MSTORE DUP2 SLOAD PUSH1 0xFF DUP2 AND ISZERO ISZERO DUP3 MSTORE PUSH2 0x100 SWAP1 DIV PUSH1 0x1 PUSH1 0x1 PUSH1 0xA0 SHL SUB AND SWAP3 DUP2 ADD SWAP3 SWAP1 SWAP3 MSTORE PUSH1 0x1 DUP2 ADD SLOAD SWAP3 DUP3 ADD SWAP3 SWAP1 SWAP3 MSTORE PUSH1 0x2 DUP3 ADD SLOAD PUSH1 0x60 DUP3 ADD MSTORE PUSH2 0x1D3D SWAP1 PUSH2 0x1DFF JUMP JUMPDEST SWAP3 POP POP POP SWAP1 JUMP JUMPDEST PUSH1 0x0 SLOAD PUSH1 0x1 PUSH1 0x1 PUSH1 0xA0 SHL SUB AND CALLER EQ PUSH2 0x1D6E JUMPI PUSH1 0x40 MLOAD PUSH3 0x461BCD PUSH1 0xE5 SHL DUP2 MSTORE PUSH1 0x4 ADD PUSH2 0x734 SWAP1 PUSH2 0x2556 JUMP JUMPDEST PUSH1 0x1 PUSH1 0x1 PUSH1 0xA0 SHL SUB DUP2 AND PUSH2 0x1DD3 JUMPI PUSH1 0x40 MLOAD PUSH3 0x461BCD PUSH1 0xE5 SHL DUP2 MSTORE PUSH1 0x20 PUSH1 0x4 DUP3 ADD MSTORE PUSH1 0x26 PUSH1 0x24 DUP3 ADD MSTORE PUSH32 0x4F776E61626C653A206E6577206F776E657220697320746865207A65726F2061 PUSH1 0x44 DUP3 ADD MSTORE PUSH6 0x646472657373 PUSH1 0xD0 SHL PUSH1 0x64 DUP3 ADD MSTORE PUSH1 0x84 ADD PUSH2 0x734 JUMP JUMPDEST PUSH2 0x1CAA DUP2 PUSH2 0x1F60 JUMP JUMPDEST PUSH1 0x0 PUSH2 0x1DE8 DUP3 DUP5 PUSH2 0x25C2 JUMP JUMPDEST SWAP4 SWAP3 POP POP POP JUMP JUMPDEST PUSH1 0x0 PUSH1 0xC SLOAD TIMESTAMP PUSH2 0x110A SWAP2 SWAP1 PUSH2 0x25C2 JUMP JUMPDEST PUSH1 0x0 DUP1 PUSH2 0x1E0A PUSH2 0x1DEF JUMP JUMPDEST SWAP1 POP PUSH32 0x0 DUP2 LT ISZERO PUSH2 0x1E3D JUMPI POP PUSH1 0x0 SWAP3 SWAP2 POP POP JUMP JUMPDEST PUSH32 0x0 DUP2 LT PUSH2 0x1E77 JUMPI PUSH1 0x60 DUP4 ADD MLOAD PUSH1 0x40 DUP5 ADD MLOAD PUSH2 0x1DE8 SWAP2 PUSH2 0x1F02 JUMP JUMPDEST PUSH1 0x0 PUSH2 0x1EAA PUSH3 0x278D00 PUSH2 0x15FC DUP5 PUSH32 0x0 PUSH2 0x1F02 JUMP JUMPDEST SWAP1 POP PUSH1 0x0 PUSH2 0x1EE0 PUSH3 0x278D00 PUSH2 0x1EC7 PUSH4 0x1B9A680 PUSH4 0x3944280 PUSH2 0x2619 JUMP JUMPDEST PUSH2 0x1ED1 SWAP2 SWAP1 PUSH2 0x25DA JUMP JUMPDEST PUSH1 0x40 DUP8 ADD MLOAD PUSH2 0x15FC SWAP1 DUP6 PUSH2 0x1FB0 JUMP JUMPDEST SWAP1 POP PUSH2 0x1EF9 DUP6 PUSH1 0x60 ADD MLOAD DUP3 PUSH2 0x1F02 SWAP1 SWAP2 SWAP1 PUSH4 0xFFFFFFFF AND JUMP JUMPDEST SWAP6 SWAP5 POP POP POP POP POP JUMP JUMPDEST PUSH1 0x0 PUSH2 0x1DE8 DUP3 DUP5 PUSH2 0x2619 JUMP JUMPDEST PUSH1 0x40 DUP1 MLOAD PUSH1 0x1 PUSH1 0x1 PUSH1 0xA0 SHL SUB DUP5 AND PUSH1 0x24 DUP3 ADD MSTORE PUSH1 0x44 DUP1 DUP3 ADD DUP5 SWAP1 MSTORE DUP3 MLOAD DUP1 DUP4 SUB SWAP1 SWAP2 ADD DUP2 MSTORE PUSH1 0x64 SWAP1 SWAP2 ADD SWAP1 SWAP2 MSTORE PUSH1 0x20 DUP2 ADD DUP1 MLOAD PUSH1 0x1 PUSH1 0x1 PUSH1 0xE0 SHL SUB AND PUSH4 0xA9059CBB PUSH1 0xE0 SHL OR SWAP1 MSTORE PUSH2 0x103E SWAP1 DUP5 SWAP1 PUSH2 0x1FC8 JUMP JUMPDEST PUSH1 0x0 DUP1 SLOAD PUSH1 0x1 PUSH1 0x1 PUSH1 0xA0 SHL SUB DUP4 DUP2 AND PUSH1 0x1 PUSH1 0x1 PUSH1 0xA0 SHL SUB NOT DUP4 AND DUP2 OR DUP5 SSTORE PUSH1 0x40 MLOAD SWAP2 SWAP1 SWAP3 AND SWAP3 DUP4 SWAP2 PUSH32 0x8BE0079C531659141344CD1FD0A4F28419497F9722A3DAAFE3B4186F6B6457E0 SWAP2 SWAP1 LOG3 POP POP JUMP JUMPDEST PUSH1 0x0 PUSH2 0x1DE8 DUP3 DUP5 PUSH2 0x25FA JUMP JUMPDEST PUSH1 0x0 PUSH2 0x1DE8 DUP3 DUP5 PUSH2 0x25DA JUMP JUMPDEST PUSH1 0x0 PUSH2 0x201D DUP3 PUSH1 0x40 MLOAD DUP1 PUSH1 0x40 ADD PUSH1 0x40 MSTORE DUP1 PUSH1 0x20 DUP2 MSTORE PUSH1 0x20 ADD PUSH32 0x5361666545524332303A206C6F772D6C6576656C2063616C6C206661696C6564 DUP2 MSTORE POP DUP6 PUSH1 0x1 PUSH1 0x1 PUSH1 0xA0 SHL SUB AND PUSH2 0x209A SWAP1 SWAP3 SWAP2 SWAP1 PUSH4 0xFFFFFFFF AND JUMP JUMPDEST DUP1 MLOAD SWAP1 SWAP2 POP ISZERO PUSH2 0x103E JUMPI DUP1 DUP1 PUSH1 0x20 ADD SWAP1 MLOAD DUP2 ADD SWAP1 PUSH2 0x203B SWAP2 SWAP1 PUSH2 0x235A JUMP JUMPDEST PUSH2 0x103E JUMPI PUSH1 0x40 MLOAD PUSH3 0x461BCD PUSH1 0xE5 SHL DUP2 MSTORE PUSH1 0x20 PUSH1 0x4 DUP3 ADD MSTORE PUSH1 0x2A PUSH1 0x24 DUP3 ADD MSTORE PUSH32 0x5361666545524332303A204552433230206F7065726174696F6E20646964206E PUSH1 0x44 DUP3 ADD MSTORE PUSH10 0x1BDD081CDD58D8D95959 PUSH1 0xB2 SHL PUSH1 0x64 DUP3 ADD MSTORE PUSH1 0x84 ADD PUSH2 0x734 JUMP JUMPDEST PUSH1 0x60 PUSH2 0x20A9 DUP5 DUP5 PUSH1 0x0 DUP6 PUSH2 0x20B1 JUMP JUMPDEST SWAP5 SWAP4 POP POP POP POP JUMP JUMPDEST PUSH1 0x60 DUP3 SELFBALANCE LT ISZERO PUSH2 0x2112 JUMPI PUSH1 0x40 MLOAD PUSH3 0x461BCD PUSH1 0xE5 SHL DUP2 MSTORE PUSH1 0x20 PUSH1 0x4 DUP3 ADD MSTORE PUSH1 0x26 PUSH1 0x24 DUP3 ADD MSTORE PUSH32 0x416464726573733A20696E73756666696369656E742062616C616E636520666F PUSH1 0x44 DUP3 ADD MSTORE PUSH6 0x1C8818D85B1B PUSH1 0xD2 SHL PUSH1 0x64 DUP3 ADD MSTORE PUSH1 0x84 ADD PUSH2 0x734 JUMP JUMPDEST DUP5 EXTCODESIZE PUSH2 0x2160 JUMPI PUSH1 0x40 MLOAD PUSH3 0x461BCD PUSH1 0xE5 SHL DUP2 MSTORE PUSH1 0x20 PUSH1 0x4 DUP3 ADD MSTORE PUSH1 0x1D PUSH1 0x24 DUP3 ADD MSTORE PUSH32 0x416464726573733A2063616C6C20746F206E6F6E2D636F6E7472616374000000 PUSH1 0x44 DUP3 ADD MSTORE PUSH1 0x64 ADD PUSH2 0x734 JUMP JUMPDEST PUSH1 0x0 DUP1 DUP7 PUSH1 0x1 PUSH1 0x1 PUSH1 0xA0 SHL SUB AND DUP6 DUP8 PUSH1 0x40 MLOAD PUSH2 0x217C SWAP2 SWAP1 PUSH2 0x24A7 JUMP JUMPDEST PUSH1 0x0 PUSH1 0x40 MLOAD DUP1 DUP4 SUB DUP2 DUP6 DUP8 GAS CALL SWAP3 POP POP POP RETURNDATASIZE DUP1 PUSH1 0x0 DUP2 EQ PUSH2 0x21B9 JUMPI PUSH1 0x40 MLOAD SWAP2 POP PUSH1 0x1F NOT PUSH1 0x3F RETURNDATASIZE ADD AND DUP3 ADD PUSH1 0x40 MSTORE RETURNDATASIZE DUP3 MSTORE RETURNDATASIZE PUSH1 0x0 PUSH1 0x20 DUP5 ADD RETURNDATACOPY PUSH2 0x21BE JUMP JUMPDEST PUSH1 0x60 SWAP2 POP JUMPDEST POP SWAP2 POP SWAP2 POP PUSH2 0x21CE DUP3 DUP3 DUP7 PUSH2 0x21D9 JUMP JUMPDEST SWAP8 SWAP7 POP POP POP POP POP POP POP JUMP JUMPDEST PUSH1 0x60 DUP4 ISZERO PUSH2 0x21E8 JUMPI POP DUP2 PUSH2 0x1DE8 JUMP JUMPDEST DUP3 MLOAD ISZERO PUSH2 0x21F8 JUMPI DUP3 MLOAD DUP1 DUP5 PUSH1 0x20 ADD REVERT JUMPDEST DUP2 PUSH1 0x40 MLOAD PUSH3 0x461BCD PUSH1 0xE5 SHL DUP2 MSTORE PUSH1 0x4 ADD PUSH2 0x734 SWAP2 SWAP1 PUSH2 0x24D3 JUMP JUMPDEST DUP1 CALLDATALOAD PUSH1 0x1 PUSH1 0x1 PUSH1 0xA0 SHL SUB DUP2 AND DUP2 EQ PUSH2 0x2229 JUMPI PUSH1 0x0 DUP1 REVERT JUMPDEST SWAP2 SWAP1 POP JUMP JUMPDEST PUSH1 0x0 DUP1 DUP4 PUSH1 0x1F DUP5 ADD SLT PUSH2 0x223F JUMPI DUP2 DUP3 REVERT JUMPDEST POP DUP2 CALLDATALOAD PUSH8 0xFFFFFFFFFFFFFFFF DUP2 GT ISZERO PUSH2 0x2256 JUMPI DUP2 DUP3 REVERT JUMPDEST PUSH1 0x20 DUP4 ADD SWAP2 POP DUP4 PUSH1 0x20 DUP3 DUP6 ADD ADD GT ISZERO PUSH2 0x226E JUMPI PUSH1 0x0 DUP1 REVERT JUMPDEST SWAP3 POP SWAP3 SWAP1 POP JUMP JUMPDEST PUSH1 0x0 PUSH1 0x20 DUP3 DUP5 SUB SLT ISZERO PUSH2 0x2286 JUMPI DUP1 DUP2 REVERT JUMPDEST PUSH2 0x1DE8 DUP3 PUSH2 0x2212 JUMP JUMPDEST PUSH1 0x0 DUP1 PUSH1 0x40 DUP4 DUP6 SUB SLT ISZERO PUSH2 0x22A1 JUMPI DUP1 DUP2 REVERT JUMPDEST PUSH2 0x22AA DUP4 PUSH2 0x2212 JUMP JUMPDEST SWAP2 POP PUSH2 0x22B8 PUSH1 0x20 DUP5 ADD PUSH2 0x2212 JUMP JUMPDEST SWAP1 POP SWAP3 POP SWAP3 SWAP1 POP JUMP JUMPDEST PUSH1 0x0 DUP1 PUSH1 0x40 DUP4 DUP6 SUB SLT ISZERO PUSH2 0x22D3 JUMPI DUP2 DUP3 REVERT JUMPDEST PUSH2 0x22DC DUP4 PUSH2 0x2212 JUMP JUMPDEST SWAP5 PUSH1 0x20 SWAP4 SWAP1 SWAP4 ADD CALLDATALOAD SWAP4 POP POP POP JUMP JUMPDEST PUSH1 0x0 DUP1 PUSH1 0x20 DUP4 DUP6 SUB SLT ISZERO PUSH2 0x22FC JUMPI DUP2 DUP3 REVERT JUMPDEST DUP3 CALLDATALOAD PUSH8 0xFFFFFFFFFFFFFFFF DUP1 DUP3 GT ISZERO PUSH2 0x2313 JUMPI DUP4 DUP5 REVERT JUMPDEST DUP2 DUP6 ADD SWAP2 POP DUP6 PUSH1 0x1F DUP4 ADD SLT PUSH2 0x2326 JUMPI DUP4 DUP5 REVERT JUMPDEST DUP2 CALLDATALOAD DUP2 DUP2 GT ISZERO PUSH2 0x2334 JUMPI DUP5 DUP6 REVERT JUMPDEST DUP7 PUSH1 0x20 DUP3 PUSH1 0x5 SHL DUP6 ADD ADD GT ISZERO PUSH2 0x2348 JUMPI DUP5 DUP6 REVERT JUMPDEST PUSH1 0x20 SWAP3 SWAP1 SWAP3 ADD SWAP7 SWAP2 SWAP6 POP SWAP1 SWAP4 POP POP POP POP JUMP JUMPDEST PUSH1 0x0 PUSH1 0x20 DUP3 DUP5 SUB SLT ISZERO PUSH2 0x236B JUMPI DUP1 DUP2 REVERT JUMPDEST DUP2 MLOAD DUP1 ISZERO ISZERO DUP2 EQ PUSH2 0x1DE8 JUMPI DUP2 DUP3 REVERT JUMPDEST PUSH1 0x0 DUP1 PUSH1 0x20 DUP4 DUP6 SUB SLT ISZERO PUSH2 0x238C JUMPI DUP2 DUP3 REVERT JUMPDEST DUP3 CALLDATALOAD PUSH8 0xFFFFFFFFFFFFFFFF DUP2 GT ISZERO PUSH2 0x23A2 JUMPI DUP3 DUP4 REVERT JUMPDEST PUSH2 0x23AE DUP6 DUP3 DUP7 ADD PUSH2 0x222E JUMP JUMPDEST SWAP1 SWAP7 SWAP1 SWAP6 POP SWAP4 POP POP POP POP JUMP JUMPDEST PUSH1 0x0 DUP1 PUSH1 0x0 PUSH1 0x40 DUP5 DUP7 SUB SLT ISZERO PUSH2 0x23CE JUMPI DUP1 DUP2 REVERT JUMPDEST DUP4 CALLDATALOAD PUSH8 0xFFFFFFFFFFFFFFFF DUP2 GT ISZERO PUSH2 0x23E4 JUMPI DUP2 DUP3 REVERT JUMPDEST PUSH2 0x23F0 DUP7 DUP3 DUP8 ADD PUSH2 0x222E JUMP JUMPDEST SWAP1 SWAP5 POP SWAP3 POP PUSH2 0x2403 SWAP1 POP PUSH1 0x20 DUP6 ADD PUSH2 0x2212 JUMP JUMPDEST SWAP1 POP SWAP3 POP SWAP3 POP SWAP3 JUMP JUMPDEST PUSH1 0x0 DUP1 PUSH1 0x0 PUSH1 0x40 DUP5 DUP7 SUB SLT ISZERO PUSH2 0x2420 JUMPI DUP3 DUP4 REVERT JUMPDEST DUP4 CALLDATALOAD PUSH8 0xFFFFFFFFFFFFFFFF DUP2 GT ISZERO PUSH2 0x2436 JUMPI DUP4 DUP5 REVERT JUMPDEST PUSH2 0x2442 DUP7 DUP3 DUP8 ADD PUSH2 0x222E JUMP JUMPDEST SWAP1 SWAP8 SWAP1 SWAP7 POP PUSH1 0x20 SWAP6 SWAP1 SWAP6 ADD CALLDATALOAD SWAP5 SWAP4 POP POP POP POP JUMP JUMPDEST PUSH1 0x0 PUSH1 0x20 DUP3 DUP5 SUB SLT ISZERO PUSH2 0x2467 JUMPI DUP1 DUP2 REVERT JUMPDEST POP CALLDATALOAD SWAP2 SWAP1 POP JUMP JUMPDEST PUSH1 0x0 PUSH1 0x20 DUP3 DUP5 SUB SLT ISZERO PUSH2 0x247F JUMPI DUP1 DUP2 REVERT JUMPDEST POP MLOAD SWAP2 SWAP1 POP JUMP JUMPDEST PUSH1 0x0 DUP1 PUSH1 0x40 DUP4 DUP6 SUB SLT ISZERO PUSH2 0x2498 JUMPI DUP2 DUP3 REVERT JUMPDEST POP POP DUP1 CALLDATALOAD SWAP3 PUSH1 0x20 SWAP1 SWAP2 ADD CALLDATALOAD SWAP2 POP JUMP JUMPDEST PUSH1 0x0 DUP3 MLOAD PUSH2 0x24B9 DUP2 DUP5 PUSH1 0x20 DUP8 ADD PUSH2 0x2630 JUMP JUMPDEST SWAP2 SWAP1 SWAP2 ADD SWAP3 SWAP2 POP POP JUMP JUMPDEST DUP2 DUP4 DUP3 CALLDATACOPY PUSH1 0x0 SWAP2 ADD SWAP1 DUP2 MSTORE SWAP2 SWAP1 POP JUMP JUMPDEST PUSH1 0x20 DUP2 MSTORE PUSH1 0x0 DUP3 MLOAD DUP1 PUSH1 0x20 DUP5 ADD MSTORE PUSH2 0x24F2 DUP2 PUSH1 0x40 DUP6 ADD PUSH1 0x20 DUP8 ADD PUSH2 0x2630 JUMP JUMPDEST PUSH1 0x1F ADD PUSH1 0x1F NOT AND SWAP2 SWAP1 SWAP2 ADD PUSH1 0x40 ADD SWAP3 SWAP2 POP POP JUMP JUMPDEST PUSH1 0x20 DUP1 DUP3 MSTORE PUSH1 0x30 SWAP1 DUP3 ADD MSTORE PUSH32 0x5072697661746553616C65436F6E74726163743A2056657374696E6720736368 PUSH1 0x40 DUP3 ADD MSTORE PUSH16 0x19591D5B19481B5D5CDD08195E1A5CDD PUSH1 0x82 SHL PUSH1 0x60 DUP3 ADD MSTORE PUSH1 0x80 ADD SWAP1 JUMP JUMPDEST PUSH1 0x20 DUP1 DUP3 MSTORE DUP2 DUP2 ADD MSTORE PUSH32 0x4F776E61626C653A2063616C6C6572206973206E6F7420746865206F776E6572 PUSH1 0x40 DUP3 ADD MSTORE PUSH1 0x60 ADD SWAP1 JUMP JUMPDEST PUSH1 0x20 DUP1 DUP3 MSTORE PUSH1 0x1F SWAP1 DUP3 ADD MSTORE PUSH32 0x5265656E7472616E637947756172643A207265656E7472616E742063616C6C00 PUSH1 0x40 DUP3 ADD MSTORE PUSH1 0x60 ADD SWAP1 JUMP JUMPDEST PUSH1 0x0 DUP3 NOT DUP3 GT ISZERO PUSH2 0x25D5 JUMPI PUSH2 0x25D5 PUSH2 0x2677 JUMP JUMPDEST POP ADD SWAP1 JUMP JUMPDEST PUSH1 0x0 DUP3 PUSH2 0x25F5 JUMPI PUSH4 0x4E487B71 PUSH1 0xE0 SHL DUP2 MSTORE PUSH1 0x12 PUSH1 0x4 MSTORE PUSH1 0x24 DUP2 REVERT JUMPDEST POP DIV SWAP1 JUMP JUMPDEST PUSH1 0x0 DUP2 PUSH1 0x0 NOT DIV DUP4 GT DUP3 ISZERO ISZERO AND ISZERO PUSH2 0x2614 JUMPI PUSH2 0x2614 PUSH2 0x2677 JUMP JUMPDEST POP MUL SWAP1 JUMP JUMPDEST PUSH1 0x0 DUP3 DUP3 LT ISZERO PUSH2 0x262B JUMPI PUSH2 0x262B PUSH2 0x2677 JUMP JUMPDEST POP SUB SWAP1 JUMP JUMPDEST PUSH1 0x0 JUMPDEST DUP4 DUP2 LT ISZERO PUSH2 0x264B JUMPI DUP2 DUP2 ADD MLOAD DUP4 DUP3 ADD MSTORE PUSH1 0x20 ADD PUSH2 0x2633 JUMP JUMPDEST DUP4 DUP2 GT ISZERO PUSH2 0xF43 JUMPI POP POP PUSH1 0x0 SWAP2 ADD MSTORE JUMP JUMPDEST PUSH1 0x0 PUSH1 0x0 NOT DUP3 EQ ISZERO PUSH2 0x2670 JUMPI PUSH2 0x2670 PUSH2 0x2677 JUMP JUMPDEST POP PUSH1 0x1 ADD SWAP1 JUMP JUMPDEST PUSH4 0x4E487B71 PUSH1 0xE0 SHL PUSH1 0x0 MSTORE PUSH1 0x11 PUSH1 0x4 MSTORE PUSH1 0x24 PUSH1 0x0 REVERT INVALID LOG2 PUSH5 0x6970667358 0x22 SLT KECCAK256 BLOCKHASH PUSH30 0x8BDEF719B2641655B88E50E7C9195D52A2786D896FCD0B6528990F37FD66 PUSH5 0x736F6C6343 STOP ADDMOD DIV STOP CALLER "
        },
        "methodIdentifiers": {
          "DECIMALS()": "2e0f2625",
          "VESTING_CLIFF()": "63f3dbe5",
          "VESTING_DURATION()": "4cfc4d30",
          "VESTING_SLICES_TOTAL()": "89a7d3fb",
          "VESTING_SLICE_PERIOD()": "a889011f",
          "VESTING_TOTAL_DURATION()": "3b8d3fc5",
          "addForwardTime(uint256)": "13f67164",
          "addToWhitelisted(address[])": "9c71a33a",
          "adjustSaleTime(uint256,uint256)": "16e1cc7a",
          "allowStableCoin(string,address)": "31a6cc8d",
          "buyPackageWithStable(string,uint256)": "9c845b9b",
          "closingTime()": "4b6753bc",
          "computeReleasableAmount()": "d4f8b27b",
          "computeReleasableAmountAt(address,uint256)": "a3194f73",
          "createVestingSchedule(address,uint256)": "419544a0",
          "getCurrentTimePublic()": "1ded6cc9",
          "getToken()": "21df0da7",
          "getVestingSchedule()": "3a05f0d8",
          "getVestingSchedulesTotalAmount()": "48deb471",
          "getWithdrawableAmount()": "90be10cc",
          "hasClosed()": "1515bc2b",
          "isWhitelisted(address)": "3af32abf",
          "mockTime()": "de44e1f7",
          "openingTime()": "b7a8807c",
          "owner()": "8da5cb5b",
          "release(address)": "19165587",
          "removeWhitelisted(address[])": "87322816",
          "renounceOwnership()": "715018a6",
          "setForwardTime(uint256)": "181ea462",
          "setTokenUsdRate(uint256)": "0486a328",
          "tokenUsdRate()": "24b558f2",
          "totalTokenPurchased()": "fd151881",
          "totalTokenReleased()": "9b080dd7",
          "transferOwnership(address)": "f2fde38b",
          "transferVestingBeneficiary(address,address)": "96866c13",
          "withdraw(uint256)": "2e1a7d4d",
          "withdrawRemainedToken()": "b9a6ef40",
          "withdrawSaleFunds()": "bbd50dab",
          "withdrawStableToken(string)": "46f3e08e"
        }
      }
    }
  }
}