{
  "_format": "hh-sol-artifact-1",
  "contractName": "MockPrivateSaleContract",
  "sourceName": "contracts/MockPrivateSaleContract.sol",
  "abi": [
    {
      "inputs": [
        {
          "internalType": "address",
          "name": "token_",
          "type": "address"
        },
        {
          "internalType": "uint256",
          "name": "_openingTime",
          "type": "uint256"
        },
        {
          "internalType": "uint256",
          "name": "_closingTime",
          "type": "uint256"
        }
      ],
      "stateMutability": "nonpayable",
      "type": "constructor"
    },
    {
      "anonymous": false,
      "inputs": [
        {
          "indexed": true,
          "internalType": "address",
          "name": "previousOwner",
          "type": "address"
        },
        {
          "indexed": true,
          "internalType": "address",
          "name": "newOwner",
          "type": "address"
        }
      ],
      "name": "OwnershipTransferred",
      "type": "event"
    },
    {
      "anonymous": false,
      "inputs": [
        {
          "indexed": false,
          "internalType": "address",
          "name": "beneficiary",
          "type": "address"
        },
        {
          "indexed": false,
          "internalType": "uint256",
          "name": "amount",
          "type": "uint256"
        },
        {
          "indexed": false,
          "internalType": "uint256",
          "name": "purchasedAmount",
          "type": "uint256"
        }
      ],
      "name": "PurchasedWithStable",
      "type": "event"
    },
    {
      "anonymous": false,
      "inputs": [
        {
          "indexed": false,
          "internalType": "address",
          "name": "beneficiary",
          "type": "address"
        },
        {
          "indexed": false,
          "internalType": "uint256",
          "name": "amount",
          "type": "uint256"
        }
      ],
      "name": "Released",
      "type": "event"
    },
    {
      "anonymous": false,
      "inputs": [
        {
          "indexed": false,
          "internalType": "address",
          "name": "beneficiary",
          "type": "address"
        },
        {
          "indexed": false,
          "internalType": "address",
          "name": "newBeneficiary",
          "type": "address"
        }
      ],
      "name": "VestingTransferred",
      "type": "event"
    },
    {
      "stateMutability": "payable",
      "type": "fallback"
    },
    {
      "inputs": [],
      "name": "DECIMALS",
      "outputs": [
        {
          "internalType": "uint256",
          "name": "",
          "type": "uint256"
        }
      ],
      "stateMutability": "view",
      "type": "function"
    },
    {
      "inputs": [],
      "name": "VESTING_CLIFF",
      "outputs": [
        {
          "internalType": "uint256",
          "name": "",
          "type": "uint256"
        }
      ],
      "stateMutability": "view",
      "type": "function"
    },
    {
      "inputs": [],
      "name": "VESTING_DURATION",
      "outputs": [
        {
          "internalType": "uint256",
          "name": "",
          "type": "uint256"
        }
      ],
      "stateMutability": "view",
      "type": "function"
    },
    {
      "inputs": [],
      "name": "VESTING_SLICES_TOTAL",
      "outputs": [
        {
          "internalType": "uint256",
          "name": "",
          "type": "uint256"
        }
      ],
      "stateMutability": "view",
      "type": "function"
    },
    {
      "inputs": [],
      "name": "VESTING_SLICE_PERIOD",
      "outputs": [
        {
          "internalType": "uint256",
          "name": "",
          "type": "uint256"
        }
      ],
      "stateMutability": "view",
      "type": "function"
    },
    {
      "inputs": [],
      "name": "VESTING_TOTAL_DURATION",
      "outputs": [
        {
          "internalType": "uint256",
          "name": "",
          "type": "uint256"
        }
      ],
      "stateMutability": "view",
      "type": "function"
    },
    {
      "inputs": [
        {
          "internalType": "uint256",
          "name": "_time",
          "type": "uint256"
        }
      ],
      "name": "addForwardTime",
      "outputs": [],
      "stateMutability": "nonpayable",
      "type": "function"
    },
    {
      "inputs": [
        {
          "internalType": "address[]",
          "name": "accounts",
          "type": "address[]"
        }
      ],
      "name": "addToWhitelisted",
      "outputs": [],
      "stateMutability": "nonpayable",
      "type": "function"
    },
    {
      "inputs": [
        {
          "internalType": "uint256",
          "name": "_openingTime",
          "type": "uint256"
        },
        {
          "internalType": "uint256",
          "name": "_closingTime",
          "type": "uint256"
        }
      ],
      "name": "adjustSaleTime",
      "outputs": [],
      "stateMutability": "nonpayable",
      "type": "function"
    },
    {
      "inputs": [
        {
          "internalType": "string",
          "name": "name",
          "type": "string"
        },
        {
          "internalType": "address",
          "name": "token",
          "type": "address"
        }
      ],
      "name": "allowStableCoin",
      "outputs": [],
      "stateMutability": "nonpayable",
      "type": "function"
    },
    {
      "inputs": [
        {
          "internalType": "string",
          "name": "name",
          "type": "string"
        },
        {
          "internalType": "uint256",
          "name": "package",
          "type": "uint256"
        }
      ],
      "name": "buyPackageWithStable",
      "outputs": [],
      "stateMutability": "nonpayable",
      "type": "function"
    },
    {
      "inputs": [],
      "name": "closingTime",
      "outputs": [
        {
          "internalType": "uint256",
          "name": "",
          "type": "uint256"
        }
      ],
      "stateMutability": "view",
      "type": "function"
    },
    {
      "inputs": [],
      "name": "computeReleasableAmount",
      "outputs": [
        {
          "internalType": "uint256",
          "name": "",
          "type": "uint256"
        }
      ],
      "stateMutability": "view",
      "type": "function"
    },
    {
      "inputs": [
        {
          "internalType": "address",
          "name": "beneficiary",
          "type": "address"
        },
        {
          "internalType": "uint256",
          "name": "currentTime",
          "type": "uint256"
        }
      ],
      "name": "computeReleasableAmountAt",
      "outputs": [
        {
          "internalType": "uint256",
          "name": "",
          "type": "uint256"
        }
      ],
      "stateMutability": "view",
      "type": "function"
    },
    {
      "inputs": [
        {
          "internalType": "address",
          "name": "_beneficiary",
          "type": "address"
        },
        {
          "internalType": "uint256",
          "name": "_amount",
          "type": "uint256"
        }
      ],
      "name": "createVestingSchedule",
      "outputs": [],
      "stateMutability": "nonpayable",
      "type": "function"
    },
    {
      "inputs": [],
      "name": "getCurrentTimePublic",
      "outputs": [
        {
          "internalType": "uint256",
          "name": "",
          "type": "uint256"
        }
      ],
      "stateMutability": "view",
      "type": "function"
    },
    {
      "inputs": [],
      "name": "getToken",
      "outputs": [
        {
          "internalType": "address",
          "name": "",
          "type": "address"
        }
      ],
      "stateMutability": "view",
      "type": "function"
    },
    {
      "inputs": [],
      "name": "getVestingSchedule",
      "outputs": [
        {
          "components": [
            {
              "internalType": "bool",
              "name": "initialized",
              "type": "bool"
            },
            {
              "internalType": "address",
              "name": "beneficiary",
              "type": "address"
            },
            {
              "internalType": "uint256",
              "name": "amountTotal",
              "type": "uint256"
            },
            {
              "internalType": "uint256",
              "name": "released",
              "type": "uint256"
            }
          ],
          "internalType": "struct PrivateSaleContract.VestingSchedule",
          "name": "",
          "type": "tuple"
        }
      ],
      "stateMutability": "view",
      "type": "function"
    },
    {
      "inputs": [],
      "name": "getVestingSchedulesTotalAmount",
      "outputs": [
        {
          "internalType": "uint256",
          "name": "",
          "type": "uint256"
        }
      ],
      "stateMutability": "view",
      "type": "function"
    },
    {
      "inputs": [],
      "name": "getWithdrawableAmount",
      "outputs": [
        {
          "internalType": "uint256",
          "name": "",
          "type": "uint256"
        }
      ],
      "stateMutability": "view",
      "type": "function"
    },
    {
      "inputs": [],
      "name": "hasClosed",
      "outputs": [
        {
          "internalType": "bool",
          "name": "",
          "type": "bool"
        }
      ],
      "stateMutability": "view",
      "type": "function"
    },
    {
      "inputs": [
        {
          "internalType": "address",
          "name": "account",
          "type": "address"
        }
      ],
      "name": "isWhitelisted",
      "outputs": [
        {
          "internalType": "bool",
          "name": "",
          "type": "bool"
        }
      ],
      "stateMutability": "view",
      "type": "function"
    },
    {
      "inputs": [],
      "name": "mockTime",
      "outputs": [
        {
          "internalType": "uint256",
          "name": "",
          "type": "uint256"
        }
      ],
      "stateMutability": "view",
      "type": "function"
    },
    {
      "inputs": [],
      "name": "openingTime",
      "outputs": [
        {
          "internalType": "uint256",
          "name": "",
          "type": "uint256"
        }
      ],
      "stateMutability": "view",
      "type": "function"
    },
    {
      "inputs": [],
      "name": "owner",
      "outputs": [
        {
          "internalType": "address",
          "name": "",
          "type": "address"
        }
      ],
      "stateMutability": "view",
      "type": "function"
    },
    {
      "inputs": [
        {
          "internalType": "address",
          "name": "beneficiary",
          "type": "address"
        }
      ],
      "name": "release",
      "outputs": [],
      "stateMutability": "nonpayable",
      "type": "function"
    },
    {
      "inputs": [
        {
          "internalType": "address[]",
          "name": "accounts",
          "type": "address[]"
        }
      ],
      "name": "removeWhitelisted",
      "outputs": [],
      "stateMutability": "nonpayable",
      "type": "function"
    },
    {
      "inputs": [],
      "name": "renounceOwnership",
      "outputs": [],
      "stateMutability": "nonpayable",
      "type": "function"
    },
    {
      "inputs": [
        {
          "internalType": "uint256",
          "name": "_time",
          "type": "uint256"
        }
      ],
      "name": "setForwardTime",
      "outputs": [],
      "stateMutability": "nonpayable",
      "type": "function"
    },
    {
      "inputs": [
        {
          "internalType": "uint256",
          "name": "rate_",
          "type": "uint256"
        }
      ],
      "name": "setTokenUsdRate",
      "outputs": [],
      "stateMutability": "nonpayable",
      "type": "function"
    },
    {
      "inputs": [],
      "name": "tokenUsdRate",
      "outputs": [
        {
          "internalType": "uint256",
          "name": "",
          "type": "uint256"
        }
      ],
      "stateMutability": "view",
      "type": "function"
    },
    {
      "inputs": [],
      "name": "totalTokenPurchased",
      "outputs": [
        {
          "internalType": "uint256",
          "name": "",
          "type": "uint256"
        }
      ],
      "stateMutability": "view",
      "type": "function"
    },
    {
      "inputs": [],
      "name": "totalTokenReleased",
      "outputs": [
        {
          "internalType": "uint256",
          "name": "",
          "type": "uint256"
        }
      ],
      "stateMutability": "view",
      "type": "function"
    },
    {
      "inputs": [
        {
          "internalType": "address",
          "name": "newOwner",
          "type": "address"
        }
      ],
      "name": "transferOwnership",
      "outputs": [],
      "stateMutability": "nonpayable",
      "type": "function"
    },
    {
      "inputs": [
        {
          "internalType": "address",
          "name": "beneficiary",
          "type": "address"
        },
        {
          "internalType": "address",
          "name": "newBeneficiary",
          "type": "address"
        }
      ],
      "name": "transferVestingBeneficiary",
      "outputs": [],
      "stateMutability": "nonpayable",
      "type": "function"
    },
    {
      "inputs": [
        {
          "internalType": "uint256",
          "name": "amount",
          "type": "uint256"
        }
      ],
      "name": "withdraw",
      "outputs": [],
      "stateMutability": "nonpayable",
      "type": "function"
    },
    {
      "inputs": [],
      "name": "withdrawRemainedToken",
      "outputs": [],
      "stateMutability": "nonpayable",
      "type": "function"
    },
    {
      "inputs": [],
      "name": "withdrawSaleFunds",
      "outputs": [],
      "stateMutability": "nonpayable",
      "type": "function"
    },
    {
      "inputs": [
        {
          "internalType": "string",
          "name": "name",
          "type": "string"
        }
      ],
      "name": "withdrawStableToken",
      "outputs": [],
      "stateMutability": "nonpayable",
      "type": "function"
    },
    {
      "stateMutability": "payable",
      "type": "receive"
    }
  ],
  "bytecode": "0x61016060405269010f0cf064dd5920000060e090815269021e19e0c9bab24000006101005269043c33c19375648000006101205269065a4da25d3016c00000610140526200005290600790600462000274565b506000600c553480156200006557600080fd5b5060405162002aec38038062002aec8339810160408190526200008891620002e6565b828282818162000098336200020f565b6001805581620000ef5760405162461bcd60e51b815260206004820152601a60248201527f4f70656e696e672074696d65206d7573742062652076616c696400000000000060448201526064015b60405180910390fd5b60008111620001415760405162461bcd60e51b815260206004820152601a60248201527f436c6f73696e672074696d65206d7573742062652076616c69640000000000006044820152606401620000e6565b6002919091556003556001600160a01b0383166200015e57600080fd5b606462000175670de0b6b3a7640000600562000365565b62000181919062000344565b600655606083901b6001600160601b031916608052620001b2816301b9a6806200025f602090811b62001ddc17901c565b60a052620001ff620001cd6301b9a680630394428062000387565b620001eb6301b9a680846200025f60201b62001ddc1790919060201c565b6200025f60201b62001ddc1790919060201c565b60c05250620003b7945050505050565b600080546001600160a01b038381166001600160a01b0319831681178455604051919092169283917f8be0079c531659141344cd1fd0a4f28419497f9722a3daafe3b4186f6b6457e09190a35050565b60006200026d828462000329565b9392505050565b828054828255906000526020600020908101928215620002bd579160200282015b82811115620002bd57825182906001600160501b031690559160200191906001019062000295565b50620002cb929150620002cf565b5090565b5b80821115620002cb5760008155600101620002d0565b600080600060608486031215620002fb578283fd5b83516001600160a01b038116811462000312578384fd5b602085015160409095015190969495509392505050565b600082198211156200033f576200033f620003a1565b500190565b6000826200036057634e487b7160e01b81526012600452602481fd5b500490565b6000816000190483118215151615620003825762000382620003a1565b500290565b6000828210156200039c576200039c620003a1565b500390565b634e487b7160e01b600052601160045260246000fd5b60805160601c60a05160c0516126c36200042960003960008181611a290152611e3f015260008181611186015281816119f501528181611a7a01528181611e0e0152611e86015260008181610321015281816109a101528181610aa10152818161108a0152611bb601526126c36000f3fe60806040526004361061021c5760003560e01c80634cfc4d30116101225780639c845b9b116100a5578063bbd50dab1161006c578063bbd50dab14610694578063d4f8b27b146106a9578063de44e1f7146106be578063f2fde38b146106d4578063fd151881146106f457005b80639c845b9b14610612578063a3194f7314610632578063a889011f14610652578063b7a8807c14610669578063b9a6ef401461067f57005b80638da5cb5b116100e95780638da5cb5b1461058957806390be10cc146105a757806396866c13146105bc5780639b080dd7146105dc5780639c71a33a146105f257005b80634cfc4d301461051257806363f3dbe514610527578063715018a61461053f578063873228161461055457806389a7d3fb1461057457005b80632e0f2625116101aa5780633b8d3fc5116101715780633b8d3fc51461048f578063419544a0146104a757806346f3e08e146104c757806348deb471146104e75780634b6753bc146104fc57005b80632e0f26251461036f5780632e1a7d4d1461038b57806331a6cc8d146103ab5780633a05f0d8146103cb5780633af32abf1461046f57005b8063181ea462116101ee578063181ea462146102af57806319165587146102cf5780631ded6cc9146102ef57806321df0da71461031257806324b558f21461035957005b80630486a3281461022557806313f67164146102455780631515bc2b1461026557806316e1cc7a1461028f57005b3661022357005b005b34801561023157600080fd5b50610223610240366004612456565b61070a565b34801561025157600080fd5b50610223610260366004612456565b610742565b34801561027157600080fd5b5061027a610756565b60405190151581526020015b60405180910390f35b34801561029b57600080fd5b506102236102aa366004612486565b610769565b3480156102bb57600080fd5b506102236102ca366004612456565b600c55565b3480156102db57600080fd5b506102236102ea366004612275565b610788565b3480156102fb57600080fd5b50610304610a1f565b604051908152602001610286565b34801561031e57600080fd5b507f00000000000000000000000000000000000000000000000000000000000000005b6040516001600160a01b039091168152602001610286565b34801561036557600080fd5b5061030460065481565b34801561037b57600080fd5b50610304670de0b6b3a764000081565b34801561039757600080fd5b506102236103a6366004612456565b610a30565b3480156103b757600080fd5b506102236103c63660046123ba565b610acf565b3480156103d757600080fd5b506040805160808082018352600080835260208084018290528385018290526060938401829052338252600a81529084902084518084018652815460ff811615158083526101009091046001600160a01b039081168386019081526001850154848a01908152600290950154938801938452885192835251169381019390935290519482019490945292519183019190915201610286565b34801561047b57600080fd5b5061027a61048a366004612275565b610b40565b34801561049b57600080fd5b50610304630394428081565b3480156104b357600080fd5b506102236104c23660046122c1565b610b74565b3480156104d357600080fd5b506102236104e236600461237a565b610e54565b3480156104f357600080fd5b50600b54610304565b34801561050857600080fd5b5061030460035481565b34801561051e57600080fd5b50610304610f49565b34801561053357600080fd5b506103046301b9a68081565b34801561054b57600080fd5b50610223610f5e565b34801561056057600080fd5b5061022361056f3660046122ea565b610f94565b34801561058057600080fd5b50610304611043565b34801561059557600080fd5b506000546001600160a01b0316610341565b3480156105b357600080fd5b50610304611063565b3480156105c857600080fd5b506102236105d736600461228f565b61110f565b3480156105e857600080fd5b5061030460055481565b3480156105fe57600080fd5b5061022361060d3660046122ea565b611475565b34801561061e57600080fd5b5061022361062d36600461240c565b61151f565b34801561063e57600080fd5b5061030461064d3660046122c1565b6118d7565b34801561065e57600080fd5b5061030462278d0081565b34801561067557600080fd5b5061030460025481565b34801561068b57600080fd5b50610223611afc565b3480156106a057600080fd5b50610223611bdd565b3480156106b557600080fd5b50610304611cad565b3480156106ca57600080fd5b50610304600c5481565b3480156106e057600080fd5b506102236106ef366004612275565b611d44565b34801561070057600080fd5b5061030460045481565b6000546001600160a01b0316331461073d5760405162461bcd60e51b815260040161073490612556565b60405180910390fd5b600655565b80600c5461075091906125c2565b600c5550565b6000600354610763611def565b11905090565b4281101561077657600080fd5b81156107825760028290555b60035550565b600260015414156107ab5760405162461bcd60e51b81526004016107349061258b565b600260019081556001600160a01b0382166000908152600a6020526040902054829160ff9091161515146107f15760405162461bcd60e51b815260040161073490612506565b6001600160a01b0382166000818152600a602052604081209133149061081f6000546001600160a01b031690565b6001600160a01b0316336001600160a01b0316149050818061083e5750805b6108c25760405162461bcd60e51b815260206004820152604960248201527f5072697661746553616c65436f6e74726163743a206f6e6c792062656e65666960448201527f636961727920616e64206f776e65722063616e2072656c656173652076657374606482015268656420746f6b656e7360b81b608482015260a401610734565b60408051608081018252845460ff81161515825261010090046001600160a01b031660208201526001850154918101919091526002840154606082015260009061090b90611dff565b90506000811161096f5760405162461bcd60e51b815260206004820152602960248201527f5072697661746553616c65436f6e74726163743a206e6f20746f6b656e732076604482015268195cdd1959081e595d60ba1b6064820152608401610734565b600284015461097e9082611ddc565b6002850155600b546109909082611f02565b600b55856109c86001600160a01b037f0000000000000000000000000000000000000000000000000000000000000000168284611f0e565b6005546109d59083611ddc565b60055560408051338152602081018490527fb21fb52d5749b80f3182f8c6992236b5e5576681880914484d7f4c9b062e619e91015b60405180910390a15050600180555050505050565b600080610a2a611def565b92915050565b60026001541415610a535760405162461bcd60e51b81526004016107349061258b565b60026001556000546001600160a01b03163314610a825760405162461bcd60e51b815260040161073490612556565b610ac8610a976000546001600160a01b031690565b6001600160a01b037f0000000000000000000000000000000000000000000000000000000000000000169083611f0e565b5060018055565b6000546001600160a01b03163314610af95760405162461bcd60e51b815260040161073490612556565b8060088484604051610b0c9291906124c3565b90815260405190819003602001902080546001600160a01b03929092166001600160a01b0319909216919091179055505050565b60006001600160a01b038216610b5557600080fd5b506001600160a01b031660009081526009602052604090205460ff1690565b6000546001600160a01b03163314610b9e5760405162461bcd60e51b815260040161073490612556565b80306001600160a01b03166390be10cc6040518163ffffffff1660e01b815260040160206040518083038186803b158015610bd857600080fd5b505afa158015610bec573d6000803e3d6000fd5b505050506040513d601f19601f82011682018060405250810190610c10919061246e565b1015610c9e5760405162461bcd60e51b815260206004820152605160248201527f5072697661746553616c65436f6e74726163743a2063616e6e6f74206372656160448201527f74652076657374696e67207363686564756c652062656361757365206e6f742060648201527073756666696369656e7420746f6b656e7360781b608482015260a401610734565b60008111610cfe5760405162461bcd60e51b815260206004820152602760248201527f5072697661746553616c65436f6e74726163743a20616d6f756e74206d7573746044820152660206265203e20360cc1b6064820152608401610734565b6001600160a01b0382166000908152600a602052604090205460ff16151560011415610d6b576001600160a01b0382166000908152600a6020526040902060010154610d4a9082611ddc565b6001600160a01b0383166000908152600a6020526040902060010155610de6565b6040805160808101825260018082526001600160a01b038581166020808501828152858701888152600060608801818152948152600a909352969091209451855491516001600160a81b0319909216901515610100600160a81b03191617610100919093160291909117835592519082015590516002909101555b600b54610df39082611ddc565b600b55600454610e039082611ddc565b600455604080516001600160a01b0384168152600060208201529081018290527f06d7c513d5f4ab303351ed7f68da41871b2d39c7093bb2a94f5d5a3ba63a69289060600160405180910390a15050565b6000546001600160a01b03163314610e7e5760405162461bcd60e51b815260040161073490612556565b600060088383604051610e929291906124c3565b908152604051908190036020018120546370a0823160e01b82523060048301526001600160a01b0316915060009082906370a082319060240160206040518083038186803b158015610ee357600080fd5b505afa158015610ef7573d6000803e3d6000fd5b505050506040513d601f19601f82011682018060405250810190610f1b919061246e565b9050610f43610f326000546001600160a01b031690565b6001600160a01b0384169083611f0e565b50505050565b610f5b6301b9a6806303944280612619565b81565b6000546001600160a01b03163314610f885760405162461bcd60e51b815260040161073490612556565b610f926000611f60565b565b6000546001600160a01b03163314610fbe5760405162461bcd60e51b815260040161073490612556565b60005b8181101561103e57600060096000858585818110610fef57634e487b7160e01b600052603260045260246000fd5b90506020020160208101906110049190612275565b6001600160a01b031681526020810191909152604001600020805460ff1916911515919091179055806110368161265c565b915050610fc1565b505050565b62278d006110596301b9a6806303944280612619565b610f5b91906125da565b600b546040516370a0823160e01b815230600482015260009161110a916001600160a01b037f000000000000000000000000000000000000000000000000000000000000000016906370a082319060240160206040518083038186803b1580156110cc57600080fd5b505afa1580156110e0573d6000803e3d6000fd5b505050506040513d601f19601f82011682018060405250810190611104919061246e565b90611f02565b905090565b600260015414156111325760405162461bcd60e51b81526004016107349061258b565b600260019081556001600160a01b0383166000908152600a6020526040902054839160ff9091161515146111785760405162461bcd60e51b815260040161073490612506565b6000611182611def565b90507f0000000000000000000000000000000000000000000000000000000000000000811061122f5760405162461bcd60e51b815260206004820152604d60248201527f5072697661746553616c65436f6e74726163743a2043616e6e6f74207472616e60448201527f736665722062656e6566696369617279207768656e2076657374696e6720616c60648201526c1c9958591e481cdd185c9d1959609a1b608482015260a401610734565b6000546001600160a01b031633148061129f5760405162461bcd60e51b815260206004820152602c60248201527f5072697661746553616c65436f6e74726163743a206f6e6c79206f776e65722060448201526b31b0b7103a3930b739b332b960a11b6064820152608401610734565b6001600160a01b0385166000908152600a60205260408120600281015460018201549192916112cd91611f02565b9050600081116113375760405162461bcd60e51b815260206004820152602f60248201527f5072697661746553616c65436f6e74726163743a206e6f206d6f726520746f6b60448201526e32b739903a37903a3930b739b332b960891b6064820152608401610734565b60018201546113469082611f02565b6001808401919091556001600160a01b0387166000908152600a602052604090205460ff16151514156113ba576001600160a01b0386166000908152600a60205260409020600101546113999082611ddc565b6001600160a01b0387166000908152600a6020526040902060010155611435565b6040805160808101825260018082526001600160a01b038981166020808501828152858701888152600060608801818152948152600a909352969091209451855491516001600160a81b0319909216901515610100600160a81b03191617610100919093160291909117835592519082015590516002909101555b604080516001600160a01b03808a168252881660208201527ffbe993c87b521dceb251de21f65269f508a499c8545576cc8c1265d423da2b1c9101610a0a565b6000546001600160a01b0316331461149f5760405162461bcd60e51b815260040161073490612556565b60005b8181101561103e576001600960008585858181106114d057634e487b7160e01b600052603260045260246000fd5b90506020020160208101906114e59190612275565b6001600160a01b031681526020810191909152604001600020805460ff1916911515919091179055806115178161265c565b9150506114a2565b60006007828154811061154257634e487b7160e01b600052603260045260246000fd5b90600052602060002001549050600081116115af5760405162461bcd60e51b815260206004820152602760248201527f5072697661746553616c65436f6e74726163743a20696e76616c6964207061636044820152661ad859d9481a5960ca1b6064820152608401610734565b6000600885856040516115c39291906124c3565b908152604051908190036020019020546006546001600160a01b039091169150600090611602906115fc85670de0b6b3a7640000611fb0565b90611fbc565b905080306001600160a01b03166390be10cc6040518163ffffffff1660e01b815260040160206040518083038186803b15801561163e57600080fd5b505afa158015611652573d6000803e3d6000fd5b505050506040513d601f19601f82011682018060405250810190611676919061246e565b10156116d95760405162461bcd60e51b815260206004820152602c60248201527f5072697661746553616c65436f6e74726163743a206e6f7420656e6f7567682060448201526b66756e647320746f2062757960a01b6064820152608401610734565b6040516323b872dd60e01b8152336004820152306024820152604481018490526001600160a01b038316906323b872dd90606401602060405180830381600087803b15801561172757600080fd5b505af115801561173b573d6000803e3d6000fd5b505050506040513d601f19601f8201168201806040525081019061175f919061235a565b6117a45760405162461bcd60e51b815260206004820152601660248201527510dbdd5b19081b9bdd081d1c985b9cd9995c881554d160521b6044820152606401610734565b336000908152600a602052604090205460ff161515600114156117f657336000908152600a60205260409020600101546117de9082611ddc565b336000908152600a602052604090206001015561186e565b604080516080810182526001808252336020808401828152848601878152600060608701818152948152600a909352959091209351845491516001600160a81b0319909216901515610100600160a81b031916176101006001600160a01b039092169190910217835592519082015590516002909101555b600b5461187b9082611ddc565b600b5560045461188b9082611ddc565b60045560408051338152602081018590529081018290527f06d7c513d5f4ab303351ed7f68da41871b2d39c7093bb2a94f5d5a3ba63a69289060600160405180910390a1505050505050565b6001600160a01b0382166000908152600a6020526040812054839060ff1615156001146119165760405162461bcd60e51b815260040161073490612506565b336001600160a01b0385161460006119366000546001600160a01b031690565b6001600160a01b0316336001600160a01b031614905081806119555750805b6119db5760405162461bcd60e51b815260206004820152604b60248201527f5072697661746553616c65436f6e74726163743a206f6e6c792062656e65666960448201527f636961727920616e64206f776e65722063616e2071756572792072656c65617360648201526a18589b1948185b5bdd5b9d60aa1b608482015260a401610734565b6001600160a01b0386166000908152600a602052604090207f0000000000000000000000000000000000000000000000000000000000000000861015611a275760009450505050611af5565b7f00000000000000000000000000000000000000000000000000000000000000008610611a6b5760028101546001820154611a6191611f02565b9450505050611af5565b6000611a9e62278d006115fc897f0000000000000000000000000000000000000000000000000000000000000000611f02565b90506000611ad462278d00611abb6301b9a6806303944280612619565b611ac591906125da565b60018501546115fc9085611fb0565b9050611aed836002015482611f0290919063ffffffff16565b965050505050505b5092915050565b6000546001600160a01b03163314611b265760405162461bcd60e51b815260040161073490612556565b610f92611b3b6000546001600160a01b031690565b306001600160a01b03166390be10cc6040518163ffffffff1660e01b815260040160206040518083038186803b158015611b7457600080fd5b505afa158015611b88573d6000803e3d6000fd5b505050506040513d601f19601f82011682018060405250810190611bac919061246e565b6001600160a01b037f0000000000000000000000000000000000000000000000000000000000000000169190611f0e565b6000546001600160a01b03163314611c075760405162461bcd60e51b815260040161073490612556565b60004711611c705760405162461bcd60e51b815260206004820152603060248201527f5072697661746553616c65436f6e74726163743a20436f6e747261637427732060448201526f62616c616e636520697320656d70747960801b6064820152608401610734565b600080546040516001600160a01b03909116914780156108fc02929091818181858888f19350505050158015611caa573d6000803e3d6000fd5b50565b336000818152600a602052604081205490919060ff161515600114611ce45760405162461bcd60e51b815260040161073490612506565b336000908152600a60209081526040918290208251608081018452815460ff81161515825261010090046001600160a01b03169281019290925260018101549282019290925260028201546060820152611d3d90611dff565b9250505090565b6000546001600160a01b03163314611d6e5760405162461bcd60e51b815260040161073490612556565b6001600160a01b038116611dd35760405162461bcd60e51b815260206004820152602660248201527f4f776e61626c653a206e6577206f776e657220697320746865207a65726f206160448201526564647265737360d01b6064820152608401610734565b611caa81611f60565b6000611de882846125c2565b9392505050565b6000600c544261110a91906125c2565b600080611e0a611def565b90507f0000000000000000000000000000000000000000000000000000000000000000811015611e3d5750600092915050565b7f00000000000000000000000000000000000000000000000000000000000000008110611e775760608301516040840151611de891611f02565b6000611eaa62278d006115fc847f0000000000000000000000000000000000000000000000000000000000000000611f02565b90506000611ee062278d00611ec76301b9a6806303944280612619565b611ed191906125da565b60408701516115fc9085611fb0565b9050611ef9856060015182611f0290919063ffffffff16565b95945050505050565b6000611de88284612619565b604080516001600160a01b038416602482015260448082018490528251808303909101815260649091019091526020810180516001600160e01b031663a9059cbb60e01b17905261103e908490611fc8565b600080546001600160a01b038381166001600160a01b0319831681178455604051919092169283917f8be0079c531659141344cd1fd0a4f28419497f9722a3daafe3b4186f6b6457e09190a35050565b6000611de882846125fa565b6000611de882846125da565b600061201d826040518060400160405280602081526020017f5361666545524332303a206c6f772d6c6576656c2063616c6c206661696c6564815250856001600160a01b031661209a9092919063ffffffff16565b80519091501561103e578080602001905181019061203b919061235a565b61103e5760405162461bcd60e51b815260206004820152602a60248201527f5361666545524332303a204552433230206f7065726174696f6e20646964206e6044820152691bdd081cdd58d8d9595960b21b6064820152608401610734565b60606120a984846000856120b1565b949350505050565b6060824710156121125760405162461bcd60e51b815260206004820152602660248201527f416464726573733a20696e73756666696369656e742062616c616e636520666f6044820152651c8818d85b1b60d21b6064820152608401610734565b843b6121605760405162461bcd60e51b815260206004820152601d60248201527f416464726573733a2063616c6c20746f206e6f6e2d636f6e74726163740000006044820152606401610734565b600080866001600160a01b0316858760405161217c91906124a7565b60006040518083038185875af1925050503d80600081146121b9576040519150601f19603f3d011682016040523d82523d6000602084013e6121be565b606091505b50915091506121ce8282866121d9565b979650505050505050565b606083156121e8575081611de8565b8251156121f85782518084602001fd5b8160405162461bcd60e51b815260040161073491906124d3565b80356001600160a01b038116811461222957600080fd5b919050565b60008083601f84011261223f578182fd5b50813567ffffffffffffffff811115612256578182fd5b60208301915083602082850101111561226e57600080fd5b9250929050565b600060208284031215612286578081fd5b611de882612212565b600080604083850312156122a1578081fd5b6122aa83612212565b91506122b860208401612212565b90509250929050565b600080604083850312156122d3578182fd5b6122dc83612212565b946020939093013593505050565b600080602083850312156122fc578182fd5b823567ffffffffffffffff80821115612313578384fd5b818501915085601f830112612326578384fd5b813581811115612334578485fd5b8660208260051b8501011115612348578485fd5b60209290920196919550909350505050565b60006020828403121561236b578081fd5b81518015158114611de8578182fd5b6000806020838503121561238c578182fd5b823567ffffffffffffffff8111156123a2578283fd5b6123ae8582860161222e565b90969095509350505050565b6000806000604084860312156123ce578081fd5b833567ffffffffffffffff8111156123e4578182fd5b6123f08682870161222e565b9094509250612403905060208501612212565b90509250925092565b600080600060408486031215612420578283fd5b833567ffffffffffffffff811115612436578384fd5b6124428682870161222e565b909790965060209590950135949350505050565b600060208284031215612467578081fd5b5035919050565b60006020828403121561247f578081fd5b5051919050565b60008060408385031215612498578182fd5b50508035926020909101359150565b600082516124b9818460208701612630565b9190910192915050565b8183823760009101908152919050565b60208152600082518060208401526124f2816040850160208701612630565b601f01601f19169190910160400192915050565b60208082526030908201527f5072697661746553616c65436f6e74726163743a2056657374696e672073636860408201526f19591d5b19481b5d5cdd08195e1a5cdd60821b606082015260800190565b6020808252818101527f4f776e61626c653a2063616c6c6572206973206e6f7420746865206f776e6572604082015260600190565b6020808252601f908201527f5265656e7472616e637947756172643a207265656e7472616e742063616c6c00604082015260600190565b600082198211156125d5576125d5612677565b500190565b6000826125f557634e487b7160e01b81526012600452602481fd5b500490565b600081600019048311821515161561261457612614612677565b500290565b60008282101561262b5761262b612677565b500390565b60005b8381101561264b578181015183820152602001612633565b83811115610f435750506000910152565b600060001982141561267057612670612677565b5060010190565b634e487b7160e01b600052601160045260246000fdfea2646970667358221220407d8bdef719b2641655b88e50e7c9195d52a2786d896fcd0b6528990f37fd6664736f6c63430008040033",
  "linkReferences": {},
  "deployedLinkReferences": {}
}