{
  "_format": "hh-sol-artifact-1",
  "contractName": "ERC1155Tradable",
  "sourceName": "contracts/ERC1155Tradable.sol",
  "abi": [
    {
      "anonymous": false,
      "inputs": [
        {
          "indexed": true,
          "internalType": "address",
          "name": "account",
          "type": "address"
        },
        {
          "indexed": true,
          "internalType": "address",
          "name": "operator",
          "type": "address"
        },
        {
          "indexed": false,
          "internalType": "bool",
          "name": "approved",
          "type": "bool"
        }
      ],
      "name": "ApprovalForAll",
      "type": "event"
    },
    {
      "anonymous": false,
      "inputs": [
        {
          "indexed": true,
          "internalType": "address",
          "name": "previousOwner",
          "type": "address"
        },
        {
          "indexed": true,
          "internalType": "address",
          "name": "newOwner",
          "type": "address"
        }
      ],
      "name": "OwnershipTransferred",
      "type": "event"
    },
    {
      "anonymous": false,
      "inputs": [
        {
          "indexed": true,
          "internalType": "address",
          "name": "operator",
          "type": "address"
        },
        {
          "indexed": true,
          "internalType": "address",
          "name": "from",
          "type": "address"
        },
        {
          "indexed": true,
          "internalType": "address",
          "name": "to",
          "type": "address"
        },
        {
          "indexed": false,
          "internalType": "uint256[]",
          "name": "ids",
          "type": "uint256[]"
        },
        {
          "indexed": false,
          "internalType": "uint256[]",
          "name": "values",
          "type": "uint256[]"
        }
      ],
      "name": "TransferBatch",
      "type": "event"
    },
    {
      "anonymous": false,
      "inputs": [
        {
          "indexed": true,
          "internalType": "address",
          "name": "operator",
          "type": "address"
        },
        {
          "indexed": true,
          "internalType": "address",
          "name": "from",
          "type": "address"
        },
        {
          "indexed": true,
          "internalType": "address",
          "name": "to",
          "type": "address"
        },
        {
          "indexed": false,
          "internalType": "uint256",
          "name": "id",
          "type": "uint256"
        },
        {
          "indexed": false,
          "internalType": "uint256",
          "name": "value",
          "type": "uint256"
        }
      ],
      "name": "TransferSingle",
      "type": "event"
    },
    {
      "anonymous": false,
      "inputs": [
        {
          "indexed": false,
          "internalType": "string",
          "name": "value",
          "type": "string"
        },
        {
          "indexed": true,
          "internalType": "uint256",
          "name": "id",
          "type": "uint256"
        }
      ],
      "name": "URI",
      "type": "event"
    },
    {
      "inputs": [
        {
          "internalType": "address",
          "name": "account",
          "type": "address"
        },
        {
          "internalType": "uint256",
          "name": "id",
          "type": "uint256"
        }
      ],
      "name": "balanceOf",
      "outputs": [
        {
          "internalType": "uint256",
          "name": "",
          "type": "uint256"
        }
      ],
      "stateMutability": "view",
      "type": "function"
    },
    {
      "inputs": [
        {
          "internalType": "address[]",
          "name": "accounts",
          "type": "address[]"
        },
        {
          "internalType": "uint256[]",
          "name": "ids",
          "type": "uint256[]"
        }
      ],
      "name": "balanceOfBatch",
      "outputs": [
        {
          "internalType": "uint256[]",
          "name": "",
          "type": "uint256[]"
        }
      ],
      "stateMutability": "view",
      "type": "function"
    },
    {
      "inputs": [
        {
          "internalType": "address",
          "name": "_to",
          "type": "address"
        },
        {
          "internalType": "uint256[]",
          "name": "_ids",
          "type": "uint256[]"
        },
        {
          "internalType": "uint256[]",
          "name": "_quantities",
          "type": "uint256[]"
        },
        {
          "internalType": "bytes",
          "name": "_data",
          "type": "bytes"
        }
      ],
      "name": "batchMint",
      "outputs": [],
      "stateMutability": "nonpayable",
      "type": "function"
    },
    {
      "inputs": [],
      "name": "contractURI",
      "outputs": [
        {
          "internalType": "string",
          "name": "",
          "type": "string"
        }
      ],
      "stateMutability": "view",
      "type": "function"
    },
    {
      "inputs": [
        {
          "internalType": "address",
          "name": "_initialOwner",
          "type": "address"
        },
        {
          "internalType": "uint256",
          "name": "_initialSupply",
          "type": "uint256"
        },
        {
          "internalType": "string",
          "name": "_uri",
          "type": "string"
        },
        {
          "internalType": "bytes",
          "name": "_data",
          "type": "bytes"
        }
      ],
      "name": "create",
      "outputs": [
        {
          "internalType": "uint256",
          "name": "",
          "type": "uint256"
        }
      ],
      "stateMutability": "nonpayable",
      "type": "function"
    },
    {
      "inputs": [
        {
          "internalType": "uint256",
          "name": "",
          "type": "uint256"
        }
      ],
      "name": "creators",
      "outputs": [
        {
          "internalType": "address",
          "name": "",
          "type": "address"
        }
      ],
      "stateMutability": "view",
      "type": "function"
    },
    {
      "inputs": [
        {
          "internalType": "string",
          "name": "_name",
          "type": "string"
        },
        {
          "internalType": "string",
          "name": "_symbol",
          "type": "string"
        },
        {
          "internalType": "string",
          "name": "_uri",
          "type": "string"
        },
        {
          "internalType": "address",
          "name": "_proxyRegistryAddress",
          "type": "address"
        }
      ],
      "name": "initialize",
      "outputs": [],
      "stateMutability": "nonpayable",
      "type": "function"
    },
    {
      "inputs": [
        {
          "internalType": "address",
          "name": "account",
          "type": "address"
        },
        {
          "internalType": "address",
          "name": "operator",
          "type": "address"
        }
      ],
      "name": "isApprovedForAll",
      "outputs": [
        {
          "internalType": "bool",
          "name": "isOperator",
          "type": "bool"
        }
      ],
      "stateMutability": "view",
      "type": "function"
    },
    {
      "inputs": [
        {
          "internalType": "address",
          "name": "_to",
          "type": "address"
        },
        {
          "internalType": "uint256",
          "name": "_id",
          "type": "uint256"
        },
        {
          "internalType": "uint256",
          "name": "_quantity",
          "type": "uint256"
        },
        {
          "internalType": "bytes",
          "name": "_data",
          "type": "bytes"
        }
      ],
      "name": "mint",
      "outputs": [],
      "stateMutability": "nonpayable",
      "type": "function"
    },
    {
      "inputs": [],
      "name": "name",
      "outputs": [
        {
          "internalType": "string",
          "name": "",
          "type": "string"
        }
      ],
      "stateMutability": "view",
      "type": "function"
    },
    {
      "inputs": [],
      "name": "owner",
      "outputs": [
        {
          "internalType": "address",
          "name": "",
          "type": "address"
        }
      ],
      "stateMutability": "view",
      "type": "function"
    },
    {
      "inputs": [],
      "name": "renounceOwnership",
      "outputs": [],
      "stateMutability": "nonpayable",
      "type": "function"
    },
    {
      "inputs": [
        {
          "internalType": "address",
          "name": "from",
          "type": "address"
        },
        {
          "internalType": "address",
          "name": "to",
          "type": "address"
        },
        {
          "internalType": "uint256[]",
          "name": "ids",
          "type": "uint256[]"
        },
        {
          "internalType": "uint256[]",
          "name": "amounts",
          "type": "uint256[]"
        },
        {
          "internalType": "bytes",
          "name": "data",
          "type": "bytes"
        }
      ],
      "name": "safeBatchTransferFrom",
      "outputs": [],
      "stateMutability": "nonpayable",
      "type": "function"
    },
    {
      "inputs": [
        {
          "internalType": "address",
          "name": "from",
          "type": "address"
        },
        {
          "internalType": "address",
          "name": "to",
          "type": "address"
        },
        {
          "internalType": "uint256",
          "name": "id",
          "type": "uint256"
        },
        {
          "internalType": "uint256",
          "name": "amount",
          "type": "uint256"
        },
        {
          "internalType": "bytes",
          "name": "data",
          "type": "bytes"
        }
      ],
      "name": "safeTransferFrom",
      "outputs": [],
      "stateMutability": "nonpayable",
      "type": "function"
    },
    {
      "inputs": [
        {
          "internalType": "address",
          "name": "operator",
          "type": "address"
        },
        {
          "internalType": "bool",
          "name": "approved",
          "type": "bool"
        }
      ],
      "name": "setApprovalForAll",
      "outputs": [],
      "stateMutability": "nonpayable",
      "type": "function"
    },
    {
      "inputs": [
        {
          "internalType": "string",
          "name": "_newBaseMetadataURI",
          "type": "string"
        }
      ],
      "name": "setBaseMetadataURI",
      "outputs": [],
      "stateMutability": "nonpayable",
      "type": "function"
    },
    {
      "inputs": [
        {
          "internalType": "string",
          "name": "_uri",
          "type": "string"
        }
      ],
      "name": "setContractURI",
      "outputs": [],
      "stateMutability": "nonpayable",
      "type": "function"
    },
    {
      "inputs": [
        {
          "internalType": "address",
          "name": "_to",
          "type": "address"
        },
        {
          "internalType": "uint256[]",
          "name": "_ids",
          "type": "uint256[]"
        }
      ],
      "name": "setCreator",
      "outputs": [],
      "stateMutability": "nonpayable",
      "type": "function"
    },
    {
      "inputs": [
        {
          "internalType": "bytes4",
          "name": "interfaceId",
          "type": "bytes4"
        }
      ],
      "name": "supportsInterface",
      "outputs": [
        {
          "internalType": "bool",
          "name": "",
          "type": "bool"
        }
      ],
      "stateMutability": "view",
      "type": "function"
    },
    {
      "inputs": [],
      "name": "symbol",
      "outputs": [
        {
          "internalType": "string",
          "name": "",
          "type": "string"
        }
      ],
      "stateMutability": "view",
      "type": "function"
    },
    {
      "inputs": [
        {
          "internalType": "uint256",
          "name": "",
          "type": "uint256"
        }
      ],
      "name": "tokenSupply",
      "outputs": [
        {
          "internalType": "uint256",
          "name": "",
          "type": "uint256"
        }
      ],
      "stateMutability": "view",
      "type": "function"
    },
    {
      "inputs": [
        {
          "internalType": "uint256",
          "name": "",
          "type": "uint256"
        }
      ],
      "name": "tokenUri",
      "outputs": [
        {
          "internalType": "string",
          "name": "",
          "type": "string"
        }
      ],
      "stateMutability": "view",
      "type": "function"
    },
    {
      "inputs": [
        {
          "internalType": "uint256",
          "name": "_id",
          "type": "uint256"
        }
      ],
      "name": "totalSupply",
      "outputs": [
        {
          "internalType": "uint256",
          "name": "",
          "type": "uint256"
        }
      ],
      "stateMutability": "view",
      "type": "function"
    },
    {
      "inputs": [
        {
          "internalType": "address",
          "name": "newOwner",
          "type": "address"
        }
      ],
      "name": "transferOwnership",
      "outputs": [],
      "stateMutability": "nonpayable",
      "type": "function"
    },
    {
      "inputs": [
        {
          "internalType": "uint256",
          "name": "_id",
          "type": "uint256"
        }
      ],
      "name": "uri",
      "outputs": [
        {
          "internalType": "string",
          "name": "",
          "type": "string"
        }
      ],
      "stateMutability": "view",
      "type": "function"
    }
  ],
  "bytecode": "0x608060405234801561001057600080fd5b5061285f806100206000396000f3fe608060405234801561001057600080fd5b50600436106101725760003560e01c80638da5cb5b116100de578063cd53d08e11610097578063e8a3d48511610071578063e8a3d48514610366578063e985e9c51461036e578063f242432a14610381578063f2fde38b1461039457600080fd5b8063cd53d08e14610317578063d2a6b51a14610340578063e38e3b241461035357600080fd5b80638da5cb5b14610291578063938e3d7b146102b657806395d89b41146102c9578063a22cb465146102d1578063b48ab8b6146102e4578063bd85b039146102f757600080fd5b80632eb2c2d6116101305780632eb2c2d61461021b5780634e1273f4146102305780635c6d8da114610250578063715018a614610263578063731133e91461026b5780637e518ec81461027e57600080fd5b8062fdd58e1461017757806301ffc9a71461019d57806306fdde03146101c05780630e89341c146101d55780631675f455146101e85780632693ebf2146101fb575b600080fd5b61018a610185366004611f98565b6103a7565b6040519081526020015b60405180910390f35b6101b06101ab366004612161565b610443565b6040519015158152602001610194565b6101c8610493565b604051610194919061242d565b6101c86101e336600461227d565b610521565b6101c86101f636600461227d565b6105c3565b61018a61020936600461227d565b609a6020526000908152604090205481565b61022e610229366004611d75565b6105dc565b005b61024361023e36600461209f565b610673565b60405161019491906123bd565b61022e61025e3660046121e7565b6107d4565b61022e6108c0565b61022e61027936600461204b565b6108f6565b61022e61028c3660046121b5565b61096c565b609d546001600160a01b03165b6040516001600160a01b039091168152602001610194565b61022e6102c43660046121b5565b6109a2565b6101c86109e3565b61022e6102df366004611f67565b6109f0565b61022e6102f2366004611ed1565b6109fb565b61018a61030536600461227d565b6000908152609a602052604090205490565b61029e61032536600461227d565b6099602052600090815260409020546001600160a01b031681565b61022e61034e366004611e84565b610bac565b61018a610361366004611fc3565b610c71565b6101c8610d8a565b6101b061037c366004611d3d565b610e1c565b61022e61038f366004611e1e565b610eec565b61022e6103a2366004611d21565b610f73565b60006001600160a01b0383166104185760405162461bcd60e51b815260206004820152602b60248201527f455243313135353a2062616c616e636520717565727920666f7220746865207a60448201526a65726f206164647265737360a81b60648201526084015b60405180910390fd5b5060008181526065602090815260408083206001600160a01b03861684529091529020545b92915050565b60006001600160e01b03198216636cdb3d1360e11b148061047457506001600160e01b031982166303a24d0760e21b145b8061043d57506301ffc9a760e01b6001600160e01b031983161461043d565b609e80546104a0906126af565b80601f01602080910402602001604051908101604052809291908181526020018280546104cc906126af565b80156105195780601f106104ee57610100808354040283529160200191610519565b820191906000526020600020905b8154815290600101906020018083116104fc57829003601f168201915b505050505081565b6000818152609b6020526040902080546060919061053e906126af565b80601f016020809104026020016040519081016040528092919081815260200182805461056a906126af565b80156105b75780601f1061058c576101008083540402835291602001916105b7565b820191906000526020600020905b81548152906001019060200180831161059a57829003601f168201915b50505050509050919050565b609b60205260009081526040902080546104a0906126af565b6001600160a01b0385163314806105f857506105f88533610e1c565b61065f5760405162461bcd60e51b815260206004820152603260248201527f455243313135353a207472616e736665722063616c6c6572206973206e6f74206044820152711bdddb995c881b9bdc88185c1c1c9bdd995960721b606482015260840161040f565b61066c858585858561100b565b5050505050565b606081518351146106d85760405162461bcd60e51b815260206004820152602960248201527f455243313135353a206163636f756e747320616e6420696473206c656e677468604482015268040dad2e6dac2e8c6d60bb1b606482015260840161040f565b600083516001600160401b0381111561070157634e487b7160e01b600052604160045260246000fd5b60405190808252806020026020018201604052801561072a578160200160208202803683370190505b50905060005b84518110156107cc5761079185828151811061075c57634e487b7160e01b600052603260045260246000fd5b602002602001015185838151811061078457634e487b7160e01b600052603260045260246000fd5b60200260200101516103a7565b8282815181106107b157634e487b7160e01b600052603260045260246000fd5b60209081029190910101526107c581612716565b9050610730565b509392505050565b600054610100900460ff16806107ed575060005460ff16155b6108095760405162461bcd60e51b815260040161040f906124cd565b600054610100900460ff1615801561082b576000805461ffff19166101011790555b610843604051806020016040528060008152506111c6565b845161085690609e906020880190611aec565b50835161086a90609f906020870190611aec565b50609780546001600160a01b0319166001600160a01b0384161790556000609855825161089e90609c906020860190611aec565b506108a83361124b565b801561066c576000805461ff00191690555050505050565b609d546001600160a01b031633146108ea5760405162461bcd60e51b815260040161040f90612565565b6108f4600061124b565b565b60008381526099602052604090205483906001600160a01b0316331461092e5760405162461bcd60e51b815260040161040f90612623565b61093a8585858561129d565b6000848152609a6020526040902054610953908461136f565b6000948552609a60205260409094209390935550505050565b609d546001600160a01b031633146109965760405162461bcd60e51b815260040161040f90612565565b61099f81611382565b50565b609d546001600160a01b031633146109cc5760405162461bcd60e51b815260040161040f90612565565b80516109df90609c906020840190611aec565b5050565b609f80546104a0906126af565b6109df338383611395565b8151835114610a655760405162461bcd60e51b815260206004820152603060248201527f455243313135354d696e744275726e2362617463684d696e743a20494e56414c60448201526f09288be82a4a482b2a6be988a9c8ea8960831b606482015260840161040f565b60005b8351811015610b99576000848281518110610a9357634e487b7160e01b600052603260045260246000fd5b602090810291909101810151600081815260999092526040909120549091506001600160a01b03163314610b215760405162461bcd60e51b815260206004820152602f60248201527f455243313135355472616461626c652362617463684d696e743a204f4e4c595f60448201526e10d491505513d497d0531313d5d151608a1b606482015260840161040f565b6000848381518110610b4357634e487b7160e01b600052603260045260246000fd5b60200260200101519050610b7381609a60008581526020019081526020016000205461136f90919063ffffffff16565b6000928352609a6020526040909220919091555080610b9181612716565b915050610a68565b50610ba684848484611476565b50505050565b6001600160a01b038216610c175760405162461bcd60e51b815260206004820152602c60248201527f455243313135355472616461626c652373657443726561746f723a20494e564160448201526b2624a22fa0a2222922a9a99760a11b606482015260840161040f565b60005b8151811015610c6c576000828281518110610c4557634e487b7160e01b600052603260045260246000fd5b60200260200101519050610c5984826115de565b5080610c6481612716565b915050610c1a565b505050565b609d546000906001600160a01b03163314610c9e5760405162461bcd60e51b815260040161040f90612565565b6000610ca8611645565b9050610cb261165b565b600081815260996020526040902080546001600160a01b031916331790558415610d2b57807f6bb7ff708619ba0610cba295a58592e0451dee2622938c8755667688daf3529b8787604051610d089291906123fe565b60405180910390a26000818152609b60205260409020610d29908787611b70565b505b610d6d88828987878080601f01602080910402602001604051908101604052809392919081815260200183838082843760009201919091525061129d92505050565b6000818152609a6020526040902087905590509695505050505050565b6060609c8054610d99906126af565b80601f0160208091040260200160405190810160405280929190818152602001828054610dc5906126af565b8015610e125780601f10610de757610100808354040283529160200191610e12565b820191906000526020600020905b815481529060010190602001808311610df557829003601f168201915b5050505050905090565b60975460405163c455279160e01b81526001600160a01b03848116600483015260009281169190841690829063c45527919060240160206040518083038186803b158015610e6957600080fd5b505afa158015610e7d573d6000803e3d6000fd5b505050506040513d601f19601f82011682018060405250810190610ea19190612199565b6001600160a01b03161415610eba57600191505061043d565b6001600160a01b0380851660009081526066602090815260408083209387168352929052205460ff165b949350505050565b6001600160a01b038516331480610f085750610f088533610e1c565b610f665760405162461bcd60e51b815260206004820152602960248201527f455243313135353a2063616c6c6572206973206e6f74206f776e6572206e6f7260448201526808185c1c1c9bdd995960ba1b606482015260840161040f565b61066c8585858585611672565b609d546001600160a01b03163314610f9d5760405162461bcd60e51b815260040161040f90612565565b6001600160a01b0381166110025760405162461bcd60e51b815260206004820152602660248201527f4f776e61626c653a206e6577206f776e657220697320746865207a65726f206160448201526564647265737360d01b606482015260840161040f565b61099f8161124b565b815183511461102c5760405162461bcd60e51b815260040161040f9061259a565b6001600160a01b0384166110525760405162461bcd60e51b815260040161040f90612488565b3360005b845181101561115857600085828151811061108157634e487b7160e01b600052603260045260246000fd5b6020026020010151905060008583815181106110ad57634e487b7160e01b600052603260045260246000fd5b60209081029190910181015160008481526065835260408082206001600160a01b038e1683529093529190912054909150818110156110fe5760405162461bcd60e51b815260040161040f9061251b565b60008381526065602090815260408083206001600160a01b038e8116855292528083208585039055908b1682528120805484929061113d908490612697565b925050819055505050508061115190612716565b9050611056565b50846001600160a01b0316866001600160a01b0316826001600160a01b03167f4a39dc06d4c0dbc64b70af90fd698a233a518aa5d07e595d983b8c0526c8f7fb87876040516111a89291906123d0565b60405180910390a46111be818787878787611793565b505050505050565b600054610100900460ff16806111df575060005460ff16155b6111fb5760405162461bcd60e51b815260040161040f906124cd565b600054610100900460ff1615801561121d576000805461ffff19166101011790555b6112256118fe565b61122d6118fe565b61123682611969565b80156109df576000805461ff00191690555050565b609d80546001600160a01b038381166001600160a01b0319831681179093556040519116919082907f8be0079c531659141344cd1fd0a4f28419497f9722a3daafe3b4186f6b6457e090600090a35050565b6001600160a01b0384166112c35760405162461bcd60e51b815260040161040f906125e2565b336112dd816000876112d4886119c9565b61066c886119c9565b60008481526065602090815260408083206001600160a01b03891684529091528120805485929061130f908490612697565b909155505060408051858152602081018590526001600160a01b0380881692600092918516917fc3d58168c5ae7397731d063d5bbf3d657854427343f4c083240f7aacaa2d0f62910160405180910390a461066c81600087878787611a22565b600061137b8284612697565b9392505050565b80516109df906067906020840190611aec565b816001600160a01b0316836001600160a01b031614156114095760405162461bcd60e51b815260206004820152602960248201527f455243313135353a2073657474696e6720617070726f76616c20737461747573604482015268103337b91039b2b63360b91b606482015260840161040f565b6001600160a01b03838116600081815260666020908152604080832094871680845294825291829020805460ff191686151590811790915591519182527f17307eab39ab6107e8899845ad3d59bd9653f200f220920489ca2b5937696c31910160405180910390a3505050565b6001600160a01b03841661149c5760405162461bcd60e51b815260040161040f906125e2565b81518351146114bd5760405162461bcd60e51b815260040161040f9061259a565b3360005b8451811015611576578381815181106114ea57634e487b7160e01b600052603260045260246000fd5b60200260200101516065600087848151811061151657634e487b7160e01b600052603260045260246000fd5b602002602001015181526020019081526020016000206000886001600160a01b03166001600160a01b03168152602001908152602001600020600082825461155e9190612697565b9091555081905061156e81612716565b9150506114c1565b50846001600160a01b031660006001600160a01b0316826001600160a01b03167f4a39dc06d4c0dbc64b70af90fd698a233a518aa5d07e595d983b8c0526c8f7fb87876040516115c79291906123d0565b60405180910390a461066c81600087878787611793565b60008181526099602052604090205481906001600160a01b031633146116165760405162461bcd60e51b815260040161040f90612623565b50600090815260996020526040902080546001600160a01b0319166001600160a01b0392909216919091179055565b60985460009061165690600161136f565b905090565b6098805490600061166b83612716565b9190505550565b6001600160a01b0384166116985760405162461bcd60e51b815260040161040f90612488565b336116a88187876112d4886119c9565b60008481526065602090815260408083206001600160a01b038a168452909152902054838110156116eb5760405162461bcd60e51b815260040161040f9061251b565b60008581526065602090815260408083206001600160a01b038b811685529252808320878503905590881682528120805486929061172a908490612697565b909155505060408051868152602081018690526001600160a01b03808916928a821692918616917fc3d58168c5ae7397731d063d5bbf3d657854427343f4c083240f7aacaa2d0f62910160405180910390a461178a828888888888611a22565b50505050505050565b6001600160a01b0384163b156111be5760405163bc197c8160e01b81526001600160a01b0385169063bc197c81906117d7908990899088908890889060040161231a565b602060405180830381600087803b1580156117f157600080fd5b505af1925050508015611821575060408051601f3d908101601f1916820190925261181e9181019061217d565b60015b6118ce5761182d61275d565b806308c379a014156118675750611842612775565b8061184d5750611869565b8060405162461bcd60e51b815260040161040f919061242d565b505b60405162461bcd60e51b815260206004820152603460248201527f455243313135353a207472616e7366657220746f206e6f6e20455243313135356044820152732932b1b2b4bb32b91034b6b83632b6b2b73a32b960611b606482015260840161040f565b6001600160e01b0319811663bc197c8160e01b1461178a5760405162461bcd60e51b815260040161040f90612440565b600054610100900460ff1680611917575060005460ff16155b6119335760405162461bcd60e51b815260040161040f906124cd565b600054610100900460ff16158015611955576000805461ffff19166101011790555b801561099f576000805461ff001916905550565b600054610100900460ff1680611982575060005460ff16155b61199e5760405162461bcd60e51b815260040161040f906124cd565b600054610100900460ff161580156119c0576000805461ffff19166101011790555b61123682611382565b60408051600180825281830190925260609160009190602080830190803683370190505090508281600081518110611a1157634e487b7160e01b600052603260045260246000fd5b602090810291909101015292915050565b6001600160a01b0384163b156111be5760405163f23a6e6160e01b81526001600160a01b0385169063f23a6e6190611a669089908990889088908890600401612378565b602060405180830381600087803b158015611a8057600080fd5b505af1925050508015611ab0575060408051601f3d908101601f19168201909252611aad9181019061217d565b60015b611abc5761182d61275d565b6001600160e01b0319811663f23a6e6160e01b1461178a5760405162461bcd60e51b815260040161040f90612440565b828054611af8906126af565b90600052602060002090601f016020900481019282611b1a5760008555611b60565b82601f10611b3357805160ff1916838001178555611b60565b82800160010185558215611b60579182015b82811115611b60578251825591602001919060010190611b45565b50611b6c929150611be4565b5090565b828054611b7c906126af565b90600052602060002090601f016020900481019282611b9e5760008555611b60565b82601f10611bb75782800160ff19823516178555611b60565b82800160010185558215611b60579182015b82811115611b60578235825591602001919060010190611bc9565b5b80821115611b6c5760008155600101611be5565b600082601f830112611c09578081fd5b81356020611c1682612674565b604051611c2382826126ea565b8381528281019150858301600585901b87018401881015611c42578586fd5b855b85811015611c6057813584529284019290840190600101611c44565b5090979650505050505050565b60008083601f840112611c7e578182fd5b5081356001600160401b03811115611c94578182fd5b602083019150836020828501011115611cac57600080fd5b9250929050565b600082601f830112611cc3578081fd5b81356001600160401b03811115611cdc57611cdc612747565b604051611cf3601f8301601f1916602001826126ea565b818152846020838601011115611d07578283fd5b816020850160208301379081016020019190915292915050565b600060208284031215611d32578081fd5b813561137b816127fe565b60008060408385031215611d4f578081fd5b8235611d5a816127fe565b91506020830135611d6a816127fe565b809150509250929050565b600080600080600060a08688031215611d8c578081fd5b8535611d97816127fe565b94506020860135611da7816127fe565b935060408601356001600160401b0380821115611dc2578283fd5b611dce89838a01611bf9565b94506060880135915080821115611de3578283fd5b611def89838a01611bf9565b93506080880135915080821115611e04578283fd5b50611e1188828901611cb3565b9150509295509295909350565b600080600080600060a08688031215611e35578081fd5b8535611e40816127fe565b94506020860135611e50816127fe565b9350604086013592506060860135915060808601356001600160401b03811115611e78578182fd5b611e1188828901611cb3565b60008060408385031215611e96578182fd5b8235611ea1816127fe565b915060208301356001600160401b03811115611ebb578182fd5b611ec785828601611bf9565b9150509250929050565b60008060008060808587031215611ee6578384fd5b8435611ef1816127fe565b935060208501356001600160401b0380821115611f0c578485fd5b611f1888838901611bf9565b94506040870135915080821115611f2d578384fd5b611f3988838901611bf9565b93506060870135915080821115611f4e578283fd5b50611f5b87828801611cb3565b91505092959194509250565b60008060408385031215611f79578182fd5b8235611f84816127fe565b915060208301358015158114611d6a578182fd5b60008060408385031215611faa578182fd5b8235611fb5816127fe565b946020939093013593505050565b60008060008060008060808789031215611fdb578384fd5b8635611fe6816127fe565b95506020870135945060408701356001600160401b0380821115612008578586fd5b6120148a838b01611c6d565b9096509450606089013591508082111561202c578283fd5b5061203989828a01611c6d565b979a9699509497509295939492505050565b60008060008060808587031215612060578182fd5b843561206b816127fe565b9350602085013592506040850135915060608501356001600160401b03811115612093578182fd5b611f5b87828801611cb3565b600080604083850312156120b1578182fd5b82356001600160401b03808211156120c7578384fd5b818501915085601f8301126120da578384fd5b813560206120e782612674565b6040516120f482826126ea565b8381528281019150858301600585901b870184018b1015612113578889fd5b8896505b8487101561213e57803561212a816127fe565b835260019690960195918301918301612117565b5096505086013592505080821115612154578283fd5b50611ec785828601611bf9565b600060208284031215612172578081fd5b813561137b81612813565b60006020828403121561218e578081fd5b815161137b81612813565b6000602082840312156121aa578081fd5b815161137b816127fe565b6000602082840312156121c6578081fd5b81356001600160401b038111156121db578182fd5b610ee484828501611cb3565b600080600080608085870312156121fc578182fd5b84356001600160401b0380821115612212578384fd5b61221e88838901611cb3565b95506020870135915080821115612233578384fd5b61223f88838901611cb3565b94506040870135915080821115612254578384fd5b5061226187828801611cb3565b9250506060850135612272816127fe565b939692955090935050565b60006020828403121561228e578081fd5b5035919050565b6000815180845260208085019450808401835b838110156122c4578151875295820195908201906001016122a8565b509495945050505050565b60008151808452815b818110156122f4576020818501810151868301820152016122d8565b818111156123055782602083870101525b50601f01601f19169290920160200192915050565b6001600160a01b0386811682528516602082015260a06040820181905260009061234690830186612295565b82810360608401526123588186612295565b9050828103608084015261236c81856122cf565b98975050505050505050565b6001600160a01b03868116825285166020820152604081018490526060810183905260a0608082018190526000906123b2908301846122cf565b979650505050505050565b60208152600061137b6020830184612295565b6040815260006123e36040830185612295565b82810360208401526123f58185612295565b95945050505050565b60208152816020820152818360408301376000818301604090810191909152601f909201601f19160101919050565b60208152600061137b60208301846122cf565b60208082526028908201527f455243313135353a204552433131353552656365697665722072656a656374656040820152676420746f6b656e7360c01b606082015260800190565b60208082526025908201527f455243313135353a207472616e7366657220746f20746865207a65726f206164604082015264647265737360d81b606082015260800190565b6020808252602e908201527f496e697469616c697a61626c653a20636f6e747261637420697320616c72656160408201526d191e481a5b9a5d1a585b1a5e995960921b606082015260800190565b6020808252602a908201527f455243313135353a20696e73756666696369656e742062616c616e636520666f60408201526939103a3930b739b332b960b11b606082015260800190565b6020808252818101527f4f776e61626c653a2063616c6c6572206973206e6f7420746865206f776e6572604082015260600190565b60208082526028908201527f455243313135353a2069647320616e6420616d6f756e7473206c656e677468206040820152670dad2e6dac2e8c6d60c31b606082015260800190565b60208082526021908201527f455243313135353a206d696e7420746f20746865207a65726f206164647265736040820152607360f81b606082015260800190565b60208082526031908201527f455243313135355472616461626c652363726561746f724f6e6c793a204f4e4c6040820152701657d0d491505513d497d0531313d5d151607a1b606082015260800190565b60006001600160401b0382111561268d5761268d612747565b5060051b60200190565b600082198211156126aa576126aa612731565b500190565b600181811c908216806126c357607f821691505b602082108114156126e457634e487b7160e01b600052602260045260246000fd5b50919050565b601f8201601f191681016001600160401b038111828210171561270f5761270f612747565b6040525050565b600060001982141561272a5761272a612731565b5060010190565b634e487b7160e01b600052601160045260246000fd5b634e487b7160e01b600052604160045260246000fd5b600060033d111561277257600481823e5160e01c5b90565b600060443d10156127835790565b6040516003193d81016004833e81513d6001600160401b0381602484011181841117156127b257505050505090565b82850191508151818111156127ca5750505050505090565b843d87010160208285010111156127e45750505050505090565b6127f3602082860101876126ea565b509095945050505050565b6001600160a01b038116811461099f57600080fd5b6001600160e01b03198116811461099f57600080fdfea264697066735822122080fe3480f60350fac5313bea2ca9ac894955fb87bef7696dafa8dace0ad14e4a64736f6c63430008040033",
  "linkReferences": {},
  "deployedLinkReferences": {}
}