{
  "_format": "hh-sol-artifact-1",
  "contractName": "ERC1155Tradable",
  "sourceName": "contracts/REITNFT.sol",
  "abi": [
    {
      "anonymous": false,
      "inputs": [
        {
          "indexed": true,
          "internalType": "address",
          "name": "account",
          "type": "address"
        },
        {
          "indexed": true,
          "internalType": "address",
          "name": "operator",
          "type": "address"
        },
        {
          "indexed": false,
          "internalType": "bool",
          "name": "approved",
          "type": "bool"
        }
      ],
      "name": "ApprovalForAll",
      "type": "event"
    },
    {
      "anonymous": false,
      "inputs": [
        {
          "indexed": true,
          "internalType": "address",
          "name": "previousGovernor",
          "type": "address"
        },
        {
          "indexed": true,
          "internalType": "address",
          "name": "newGovernor",
          "type": "address"
        }
      ],
      "name": "GovernorshipTransferred",
      "type": "event"
    },
    {
      "anonymous": false,
      "inputs": [
        {
          "indexed": false,
          "internalType": "uint8",
          "name": "version",
          "type": "uint8"
        }
      ],
      "name": "Initialized",
      "type": "event"
    },
    {
      "anonymous": false,
      "inputs": [
        {
          "indexed": true,
          "internalType": "address",
          "name": "operator",
          "type": "address"
        },
        {
          "indexed": true,
          "internalType": "address",
          "name": "from",
          "type": "address"
        },
        {
          "indexed": true,
          "internalType": "address",
          "name": "to",
          "type": "address"
        },
        {
          "indexed": false,
          "internalType": "uint256[]",
          "name": "ids",
          "type": "uint256[]"
        },
        {
          "indexed": false,
          "internalType": "uint256[]",
          "name": "values",
          "type": "uint256[]"
        }
      ],
      "name": "TransferBatch",
      "type": "event"
    },
    {
      "anonymous": false,
      "inputs": [
        {
          "indexed": true,
          "internalType": "address",
          "name": "operator",
          "type": "address"
        },
        {
          "indexed": true,
          "internalType": "address",
          "name": "from",
          "type": "address"
        },
        {
          "indexed": true,
          "internalType": "address",
          "name": "to",
          "type": "address"
        },
        {
          "indexed": false,
          "internalType": "uint256",
          "name": "id",
          "type": "uint256"
        },
        {
          "indexed": false,
          "internalType": "uint256",
          "name": "value",
          "type": "uint256"
        }
      ],
      "name": "TransferSingle",
      "type": "event"
    },
    {
      "anonymous": false,
      "inputs": [
        {
          "indexed": false,
          "internalType": "string",
          "name": "value",
          "type": "string"
        },
        {
          "indexed": true,
          "internalType": "uint256",
          "name": "id",
          "type": "uint256"
        }
      ],
      "name": "URI",
      "type": "event"
    },
    {
      "inputs": [
        {
          "internalType": "address",
          "name": "account",
          "type": "address"
        },
        {
          "internalType": "uint256",
          "name": "id",
          "type": "uint256"
        }
      ],
      "name": "balanceOf",
      "outputs": [
        {
          "internalType": "uint256",
          "name": "",
          "type": "uint256"
        }
      ],
      "stateMutability": "view",
      "type": "function"
    },
    {
      "inputs": [
        {
          "internalType": "address[]",
          "name": "accounts",
          "type": "address[]"
        },
        {
          "internalType": "uint256[]",
          "name": "ids",
          "type": "uint256[]"
        }
      ],
      "name": "balanceOfBatch",
      "outputs": [
        {
          "internalType": "uint256[]",
          "name": "",
          "type": "uint256[]"
        }
      ],
      "stateMutability": "view",
      "type": "function"
    },
    {
      "inputs": [
        {
          "internalType": "address",
          "name": "_to",
          "type": "address"
        },
        {
          "internalType": "uint256[]",
          "name": "_ids",
          "type": "uint256[]"
        },
        {
          "internalType": "uint256[]",
          "name": "_quantities",
          "type": "uint256[]"
        },
        {
          "internalType": "bytes",
          "name": "_data",
          "type": "bytes"
        }
      ],
      "name": "batchMint",
      "outputs": [],
      "stateMutability": "nonpayable",
      "type": "function"
    },
    {
      "inputs": [],
      "name": "contractURI",
      "outputs": [
        {
          "internalType": "string",
          "name": "",
          "type": "string"
        }
      ],
      "stateMutability": "view",
      "type": "function"
    },
    {
      "inputs": [
        {
          "internalType": "uint256",
          "name": "",
          "type": "uint256"
        }
      ],
      "name": "creators",
      "outputs": [
        {
          "internalType": "address",
          "name": "",
          "type": "address"
        }
      ],
      "stateMutability": "view",
      "type": "function"
    },
    {
      "inputs": [],
      "name": "governor",
      "outputs": [
        {
          "internalType": "address",
          "name": "",
          "type": "address"
        }
      ],
      "stateMutability": "view",
      "type": "function"
    },
    {
      "inputs": [
        {
          "internalType": "string",
          "name": "_name",
          "type": "string"
        },
        {
          "internalType": "string",
          "name": "_symbol",
          "type": "string"
        },
        {
          "internalType": "string",
          "name": "_uri",
          "type": "string"
        }
      ],
      "name": "initialize",
      "outputs": [],
      "stateMutability": "nonpayable",
      "type": "function"
    },
    {
      "inputs": [
        {
          "internalType": "address",
          "name": "account",
          "type": "address"
        },
        {
          "internalType": "address",
          "name": "operator",
          "type": "address"
        }
      ],
      "name": "isApprovedForAll",
      "outputs": [
        {
          "internalType": "bool",
          "name": "",
          "type": "bool"
        }
      ],
      "stateMutability": "view",
      "type": "function"
    },
    {
      "inputs": [
        {
          "internalType": "address",
          "name": "_to",
          "type": "address"
        },
        {
          "internalType": "uint256",
          "name": "_id",
          "type": "uint256"
        },
        {
          "internalType": "uint256",
          "name": "_quantity",
          "type": "uint256"
        },
        {
          "internalType": "bytes",
          "name": "_data",
          "type": "bytes"
        }
      ],
      "name": "mint",
      "outputs": [],
      "stateMutability": "nonpayable",
      "type": "function"
    },
    {
      "inputs": [],
      "name": "name",
      "outputs": [
        {
          "internalType": "string",
          "name": "",
          "type": "string"
        }
      ],
      "stateMutability": "view",
      "type": "function"
    },
    {
      "inputs": [],
      "name": "renounceGovernorship",
      "outputs": [],
      "stateMutability": "nonpayable",
      "type": "function"
    },
    {
      "inputs": [
        {
          "internalType": "address",
          "name": "from",
          "type": "address"
        },
        {
          "internalType": "address",
          "name": "to",
          "type": "address"
        },
        {
          "internalType": "uint256[]",
          "name": "ids",
          "type": "uint256[]"
        },
        {
          "internalType": "uint256[]",
          "name": "amounts",
          "type": "uint256[]"
        },
        {
          "internalType": "bytes",
          "name": "data",
          "type": "bytes"
        }
      ],
      "name": "safeBatchTransferFrom",
      "outputs": [],
      "stateMutability": "nonpayable",
      "type": "function"
    },
    {
      "inputs": [
        {
          "internalType": "address",
          "name": "from",
          "type": "address"
        },
        {
          "internalType": "address",
          "name": "to",
          "type": "address"
        },
        {
          "internalType": "uint256",
          "name": "id",
          "type": "uint256"
        },
        {
          "internalType": "uint256",
          "name": "amount",
          "type": "uint256"
        },
        {
          "internalType": "bytes",
          "name": "data",
          "type": "bytes"
        }
      ],
      "name": "safeTransferFrom",
      "outputs": [],
      "stateMutability": "nonpayable",
      "type": "function"
    },
    {
      "inputs": [
        {
          "internalType": "address",
          "name": "operator",
          "type": "address"
        },
        {
          "internalType": "bool",
          "name": "approved",
          "type": "bool"
        }
      ],
      "name": "setApprovalForAll",
      "outputs": [],
      "stateMutability": "nonpayable",
      "type": "function"
    },
    {
      "inputs": [
        {
          "internalType": "string",
          "name": "_newBaseMetadataURI",
          "type": "string"
        }
      ],
      "name": "setBaseMetadataURI",
      "outputs": [],
      "stateMutability": "nonpayable",
      "type": "function"
    },
    {
      "inputs": [
        {
          "internalType": "string",
          "name": "_uri",
          "type": "string"
        }
      ],
      "name": "setContractURI",
      "outputs": [],
      "stateMutability": "nonpayable",
      "type": "function"
    },
    {
      "inputs": [
        {
          "internalType": "address",
          "name": "_to",
          "type": "address"
        },
        {
          "internalType": "uint256[]",
          "name": "_ids",
          "type": "uint256[]"
        }
      ],
      "name": "setCreator",
      "outputs": [],
      "stateMutability": "nonpayable",
      "type": "function"
    },
    {
      "inputs": [
        {
          "internalType": "bytes4",
          "name": "interfaceId",
          "type": "bytes4"
        }
      ],
      "name": "supportsInterface",
      "outputs": [
        {
          "internalType": "bool",
          "name": "",
          "type": "bool"
        }
      ],
      "stateMutability": "view",
      "type": "function"
    },
    {
      "inputs": [],
      "name": "symbol",
      "outputs": [
        {
          "internalType": "string",
          "name": "",
          "type": "string"
        }
      ],
      "stateMutability": "view",
      "type": "function"
    },
    {
      "inputs": [
        {
          "internalType": "uint256",
          "name": "",
          "type": "uint256"
        }
      ],
      "name": "tokenSupply",
      "outputs": [
        {
          "internalType": "uint256",
          "name": "",
          "type": "uint256"
        }
      ],
      "stateMutability": "view",
      "type": "function"
    },
    {
      "inputs": [
        {
          "internalType": "uint256",
          "name": "",
          "type": "uint256"
        }
      ],
      "name": "tokenUri",
      "outputs": [
        {
          "internalType": "string",
          "name": "",
          "type": "string"
        }
      ],
      "stateMutability": "view",
      "type": "function"
    },
    {
      "inputs": [
        {
          "internalType": "uint256",
          "name": "_id",
          "type": "uint256"
        }
      ],
      "name": "totalSupply",
      "outputs": [
        {
          "internalType": "uint256",
          "name": "",
          "type": "uint256"
        }
      ],
      "stateMutability": "view",
      "type": "function"
    },
    {
      "inputs": [
        {
          "internalType": "address",
          "name": "newGovernor",
          "type": "address"
        }
      ],
      "name": "transferGovernorship",
      "outputs": [],
      "stateMutability": "nonpayable",
      "type": "function"
    },
    {
      "inputs": [
        {
          "internalType": "uint256",
          "name": "_id",
          "type": "uint256"
        }
      ],
      "name": "uri",
      "outputs": [
        {
          "internalType": "string",
          "name": "",
          "type": "string"
        }
      ],
      "stateMutability": "view",
      "type": "function"
    }
  ],
  "bytecode": "0x608060405234801561001057600080fd5b5061241b806100206000396000f3fe608060405234801561001057600080fd5b50600436106101575760003560e01c8063938e3d7b116100c3578063bd85b0391161007c578063bd85b039146102ef578063cd53d08e1461030f578063d2a6b51a14610338578063e8a3d4851461034b578063e985e9c514610353578063f242432a1461038f57600080fd5b8063938e3d7b1461028857806395d89b411461029b578063a22cb465146102a3578063a6487c53146102b6578063b48ab8b6146102c9578063b6aa515b146102dc57600080fd5b80632693ebf2116101155780632693ebf2146102055780632eb2c2d6146102255780634e1273f41461023a578063731133e91461025a5780637e518ec81461026d57806381c0c2631461028057600080fd5b8062fdd58e1461015c57806301ffc9a71461018257806306fdde03146101a55780630c340a24146101ba5780630e89341c146101df5780631675f455146101f2575b600080fd5b61016f61016a36600461188b565b6103a2565b6040519081526020015b60405180910390f35b6101956101903660046118cb565b61043b565b6040519015158152602001610179565b6101ad61048d565b6040516101799190611935565b6097546001600160a01b03165b6040516001600160a01b039091168152602001610179565b6101ad6101ed366004611948565b61051c565b6101ad610200366004611948565b6105be565b61016f610213366004611948565b60fd6020526000908152604090205481565b610238610233366004611aaa565b6105d7565b005b61024d610248366004611b53565b61066e565b6040516101799190611c58565b610238610268366004611c6b565b610797565b61023861027b366004611ccb565b61080d565b610238610843565b610238610296366004611ccb565b610879565b6101ad6108ba565b6102386102b1366004611d07565b6108c8565b6102386102c4366004611d43565b6108d3565b6102386102d7366004611dca565b61099f565b6102386102ea366004611e56565b610ac5565b61016f6102fd366004611948565b600090815260fd602052604090205490565b6101c761031d366004611948565b60fc602052600090815260409020546001600160a01b031681565b610238610346366004611e71565b610b63565b6101ad610c54565b610195610361366004611eb4565b6001600160a01b03918216600090815260666020908152604080832093909416825291909152205460ff1690565b61023861039d366004611ee7565b610ce6565b60006001600160a01b0383166104135760405162461bcd60e51b815260206004820152602b60248201527f455243313135353a2062616c616e636520717565727920666f7220746865207a60448201526a65726f206164647265737360a81b60648201526084015b60405180910390fd5b5060009081526065602090815260408083206001600160a01b03949094168352929052205490565b60006001600160e01b03198216636cdb3d1360e11b148061046c57506001600160e01b031982166303a24d0760e21b145b8061048757506301ffc9a760e01b6001600160e01b03198316145b92915050565b610100805461049b90611f4b565b80601f01602080910402602001604051908101604052809291908181526020018280546104c790611f4b565b80156105145780601f106104e957610100808354040283529160200191610514565b820191906000526020600020905b8154815290600101906020018083116104f757829003601f168201915b505050505081565b600081815260fe6020526040902080546060919061053990611f4b565b80601f016020809104026020016040519081016040528092919081815260200182805461056590611f4b565b80156105b25780601f10610587576101008083540402835291602001916105b2565b820191906000526020600020905b81548152906001019060200180831161059557829003601f168201915b50505050509050919050565b60fe602052600090815260409020805461049b90611f4b565b6001600160a01b0385163314806105f357506105f38533610361565b61065a5760405162461bcd60e51b815260206004820152603260248201527f455243313135353a207472616e736665722063616c6c6572206973206e6f74206044820152711bdddb995c881b9bdc88185c1c1c9bdd995960721b606482015260840161040a565b6106678585858585610d6d565b5050505050565b606081518351146106d35760405162461bcd60e51b815260206004820152602960248201527f455243313135353a206163636f756e747320616e6420696473206c656e677468604482015268040dad2e6dac2e8c6d60bb1b606482015260840161040a565b600083516001600160401b038111156106ee576106ee611961565b604051908082528060200260200182016040528015610717578160200160208202803683370190505b50905060005b845181101561078f5761076285828151811061073b5761073b611f86565b602002602001015185838151811061075557610755611f86565b60200260200101516103a2565b82828151811061077457610774611f86565b602090810291909101015261078881611fb2565b905061071d565b509392505050565b600083815260fc602052604090205483906001600160a01b031633146107cf5760405162461bcd60e51b815260040161040a90611fcd565b6107db85858585610f0c565b600084815260fd60205260409020546107f49084610fe8565b600094855260fd60205260409094209390935550505050565b6097546001600160a01b031633146108375760405162461bcd60e51b815260040161040a90611ffb565b61084081610ffb565b50565b6097546001600160a01b0316331461086d5760405162461bcd60e51b815260040161040a90611ffb565b610877600061100e565b565b6097546001600160a01b031633146108a35760405162461bcd60e51b815260040161040a90611ffb565b80516108b69060ff9060208401906117db565b5050565b610101805461049b90611f4b565b6108b6338383611060565b60006108df6001611141565b905080156108f7576000805461ff0019166101001790555b610900826111ce565b6109086111fe565b61091061122d565b8351610924906101009060208701906117db565b508251610939906101019060208601906117db565b50600060fb5581516109529060ff9060208501906117db565b508015610999576000805461ff0019169055604051600181527f7f26b83ff96e1f2b6a682f133852f6798a09c465da95921460cefb38474024989060200160405180910390a15b50505050565b81518351146109e85760405162461bcd60e51b81526020600482015260156024820152740929cac82989288be82a4a482b2a6be988a9c8ea89605b1b604482015260640161040a565b60005b8351811015610ab8576000848281518110610a0857610a08611f86565b602090810291909101810151600081815260fc9092526040909120549091506001600160a01b03163314610a4e5760405162461bcd60e51b815260040161040a90611fcd565b6000848381518110610a6257610a62611f86565b60200260200101519050610a928160fd600085815260200190815260200160002054610fe890919063ffffffff16565b600092835260fd6020526040909220919091555080610ab081611fb2565b9150506109eb565b506109998484848461125c565b6097546001600160a01b03163314610aef5760405162461bcd60e51b815260040161040a90611ffb565b6001600160a01b038116610b5a5760405162461bcd60e51b815260206004820152602c60248201527f476f7665726e61626c653a206e657720676f7665726e6f72206973207468652060448201526b7a65726f206164647265737360a01b606482015260840161040a565b6108408161100e565b6001600160a01b038216610bab5760405162461bcd60e51b815260206004820152600f60248201526e494e56414c49445f4144445245535360881b604482015260640161040a565b60005b8151811015610c4f576000828281518110610bcb57610bcb611f86565b60200260200101519050610bdc3390565b600082815260fc60205260409020546001600160a01b03908116911614610c155760405162461bcd60e51b815260040161040a90611fcd565b600081815260fc6020526040902080546001600160a01b0319166001600160a01b0386161790555080610c4781611fb2565b915050610bae565b505050565b606060ff8054610c6390611f4b565b80601f0160208091040260200160405190810160405280929190818152602001828054610c8f90611f4b565b8015610cdc5780601f10610cb157610100808354040283529160200191610cdc565b820191906000526020600020905b815481529060010190602001808311610cbf57829003601f168201915b5050505050905090565b6001600160a01b038516331480610d025750610d028533610361565b610d605760405162461bcd60e51b815260206004820152602960248201527f455243313135353a2063616c6c6572206973206e6f74206f776e6572206e6f7260448201526808185c1c1c9bdd995960ba1b606482015260840161040a565b61066785858585856113a8565b8151835114610d8e5760405162461bcd60e51b815260040161040a90612041565b6001600160a01b038416610db45760405162461bcd60e51b815260040161040a90612089565b3360005b8451811015610e9e576000858281518110610dd557610dd5611f86565b602002602001015190506000858381518110610df357610df3611f86565b60209081029190910181015160008481526065835260408082206001600160a01b038e168352909352919091205490915081811015610e445760405162461bcd60e51b815260040161040a906120ce565b60008381526065602090815260408083206001600160a01b038e8116855292528083208585039055908b16825281208054849290610e83908490612118565b9250508190555050505080610e9790611fb2565b9050610db8565b50846001600160a01b0316866001600160a01b0316826001600160a01b03167f4a39dc06d4c0dbc64b70af90fd698a233a518aa5d07e595d983b8c0526c8f7fb8787604051610eee929190612130565b60405180910390a4610f048187878787876114d6565b505050505050565b6001600160a01b038416610f325760405162461bcd60e51b815260040161040a9061215e565b336000610f3e85611641565b90506000610f4b85611641565b905060008681526065602090815260408083206001600160a01b038b16845290915281208054879290610f7f908490612118565b909155505060408051878152602081018790526001600160a01b03808a1692600092918716917fc3d58168c5ae7397731d063d5bbf3d657854427343f4c083240f7aacaa2d0f62910160405180910390a4610fdf8360008989898961168c565b50505050505050565b6000610ff48284612118565b9392505050565b80516108b69060679060208401906117db565b609780546001600160a01b038381166001600160a01b0319831681179093556040519116919082907fc7c0c772add429241571afb3805861fb3cfa2af374534088b76cdb4325a87e9a90600090a35050565b816001600160a01b0316836001600160a01b031614156110d45760405162461bcd60e51b815260206004820152602960248201527f455243313135353a2073657474696e6720617070726f76616c20737461747573604482015268103337b91039b2b63360b91b606482015260840161040a565b6001600160a01b03838116600081815260666020908152604080832094871680845294825291829020805460ff191686151590811790915591519182527f17307eab39ab6107e8899845ad3d59bd9653f200f220920489ca2b5937696c31910160405180910390a3505050565b60008054610100900460ff1615611188578160ff1660011480156111645750303b155b6111805760405162461bcd60e51b815260040161040a9061219f565b506000919050565b60005460ff8084169116106111af5760405162461bcd60e51b815260040161040a9061219f565b506000805460ff191660ff92909216919091179055600190565b919050565b600054610100900460ff166111f55760405162461bcd60e51b815260040161040a906121ed565b61084081611756565b600054610100900460ff166112255760405162461bcd60e51b815260040161040a906121ed565b61087761177d565b600054610100900460ff166112545760405162461bcd60e51b815260040161040a906121ed565b6108776117ad565b6001600160a01b0384166112825760405162461bcd60e51b815260040161040a9061215e565b81518351146112a35760405162461bcd60e51b815260040161040a90612041565b3360005b8451811015611340578381815181106112c2576112c2611f86565b6020026020010151606560008784815181106112e0576112e0611f86565b602002602001015181526020019081526020016000206000886001600160a01b03166001600160a01b0316815260200190815260200160002060008282546113289190612118565b9091555081905061133881611fb2565b9150506112a7565b50846001600160a01b031660006001600160a01b0316826001600160a01b03167f4a39dc06d4c0dbc64b70af90fd698a233a518aa5d07e595d983b8c0526c8f7fb8787604051611391929190612130565b60405180910390a4610667816000878787876114d6565b6001600160a01b0384166113ce5760405162461bcd60e51b815260040161040a90612089565b3360006113da85611641565b905060006113e785611641565b905060008681526065602090815260408083206001600160a01b038c1684529091529020548581101561142c5760405162461bcd60e51b815260040161040a906120ce565b60008781526065602090815260408083206001600160a01b038d8116855292528083208985039055908a1682528120805488929061146b908490612118565b909155505060408051888152602081018890526001600160a01b03808b16928c821692918816917fc3d58168c5ae7397731d063d5bbf3d657854427343f4c083240f7aacaa2d0f62910160405180910390a46114cb848a8a8a8a8a61168c565b505050505050505050565b6001600160a01b0384163b15610f045760405163bc197c8160e01b81526001600160a01b0385169063bc197c819061151a9089908990889088908890600401612238565b602060405180830381600087803b15801561153457600080fd5b505af1925050508015611564575060408051601f3d908101601f1916820190925261156191810190612296565b60015b611611576115706122b3565b806308c379a014156115aa57506115856122cf565b8061159057506115ac565b8060405162461bcd60e51b815260040161040a9190611935565b505b60405162461bcd60e51b815260206004820152603460248201527f455243313135353a207472616e7366657220746f206e6f6e20455243313135356044820152732932b1b2b4bb32b91034b6b83632b6b2b73a32b960611b606482015260840161040a565b6001600160e01b0319811663bc197c8160e01b14610fdf5760405162461bcd60e51b815260040161040a90612358565b6040805160018082528183019092526060916000919060208083019080368337019050509050828160008151811061167b5761167b611f86565b602090810291909101015292915050565b6001600160a01b0384163b15610f045760405163f23a6e6160e01b81526001600160a01b0385169063f23a6e61906116d090899089908890889088906004016123a0565b602060405180830381600087803b1580156116ea57600080fd5b505af192505050801561171a575060408051601f3d908101601f1916820190925261171791810190612296565b60015b611726576115706122b3565b6001600160e01b0319811663f23a6e6160e01b14610fdf5760405162461bcd60e51b815260040161040a90612358565b600054610100900460ff166108375760405162461bcd60e51b815260040161040a906121ed565b600054610100900460ff166117a45760405162461bcd60e51b815260040161040a906121ed565b6108773361100e565b600054610100900460ff166117d45760405162461bcd60e51b815260040161040a906121ed565b600160c955565b8280546117e790611f4b565b90600052602060002090601f016020900481019282611809576000855561184f565b82601f1061182257805160ff191683800117855561184f565b8280016001018555821561184f579182015b8281111561184f578251825591602001919060010190611834565b5061185b92915061185f565b5090565b5b8082111561185b5760008155600101611860565b80356001600160a01b03811681146111c957600080fd5b6000806040838503121561189e57600080fd5b6118a783611874565b946020939093013593505050565b6001600160e01b03198116811461084057600080fd5b6000602082840312156118dd57600080fd5b8135610ff4816118b5565b6000815180845260005b8181101561190e576020818501810151868301820152016118f2565b81811115611920576000602083870101525b50601f01601f19169290920160200192915050565b602081526000610ff460208301846118e8565b60006020828403121561195a57600080fd5b5035919050565b634e487b7160e01b600052604160045260246000fd5b601f8201601f191681016001600160401b038111828210171561199c5761199c611961565b6040525050565b60006001600160401b038211156119bc576119bc611961565b5060051b60200190565b600082601f8301126119d757600080fd5b813560206119e4826119a3565b6040516119f18282611977565b83815260059390931b8501820192828101915086841115611a1157600080fd5b8286015b84811015611a2c5780358352918301918301611a15565b509695505050505050565b600082601f830112611a4857600080fd5b81356001600160401b03811115611a6157611a61611961565b604051611a78601f8301601f191660200182611977565b818152846020838601011115611a8d57600080fd5b816020850160208301376000918101602001919091529392505050565b600080600080600060a08688031215611ac257600080fd5b611acb86611874565b9450611ad960208701611874565b935060408601356001600160401b0380821115611af557600080fd5b611b0189838a016119c6565b94506060880135915080821115611b1757600080fd5b611b2389838a016119c6565b93506080880135915080821115611b3957600080fd5b50611b4688828901611a37565b9150509295509295909350565b60008060408385031215611b6657600080fd5b82356001600160401b0380821115611b7d57600080fd5b818501915085601f830112611b9157600080fd5b81356020611b9e826119a3565b604051611bab8282611977565b83815260059390931b8501820192828101915089841115611bcb57600080fd5b948201945b83861015611bf057611be186611874565b82529482019490820190611bd0565b96505086013592505080821115611c0657600080fd5b50611c13858286016119c6565b9150509250929050565b600081518084526020808501945080840160005b83811015611c4d57815187529582019590820190600101611c31565b509495945050505050565b602081526000610ff46020830184611c1d565b60008060008060808587031215611c8157600080fd5b611c8a85611874565b9350602085013592506040850135915060608501356001600160401b03811115611cb357600080fd5b611cbf87828801611a37565b91505092959194509250565b600060208284031215611cdd57600080fd5b81356001600160401b03811115611cf357600080fd5b611cff84828501611a37565b949350505050565b60008060408385031215611d1a57600080fd5b611d2383611874565b915060208301358015158114611d3857600080fd5b809150509250929050565b600080600060608486031215611d5857600080fd5b83356001600160401b0380821115611d6f57600080fd5b611d7b87838801611a37565b94506020860135915080821115611d9157600080fd5b611d9d87838801611a37565b93506040860135915080821115611db357600080fd5b50611dc086828701611a37565b9150509250925092565b60008060008060808587031215611de057600080fd5b611de985611874565b935060208501356001600160401b0380821115611e0557600080fd5b611e11888389016119c6565b94506040870135915080821115611e2757600080fd5b611e33888389016119c6565b93506060870135915080821115611e4957600080fd5b50611cbf87828801611a37565b600060208284031215611e6857600080fd5b610ff482611874565b60008060408385031215611e8457600080fd5b611e8d83611874565b915060208301356001600160401b03811115611ea857600080fd5b611c13858286016119c6565b60008060408385031215611ec757600080fd5b611ed083611874565b9150611ede60208401611874565b90509250929050565b600080600080600060a08688031215611eff57600080fd5b611f0886611874565b9450611f1660208701611874565b9350604086013592506060860135915060808601356001600160401b03811115611f3f57600080fd5b611b4688828901611a37565b600181811c90821680611f5f57607f821691505b60208210811415611f8057634e487b7160e01b600052602260045260246000fd5b50919050565b634e487b7160e01b600052603260045260246000fd5b634e487b7160e01b600052601160045260246000fd5b6000600019821415611fc657611fc6611f9c565b5060010190565b60208082526014908201527313d3931657d0d491505513d497d0531313d5d15160621b604082015260600190565b60208082526026908201527f476f7665726e61626c653a2063616c6c6572206973206e6f742074686520676f6040820152653b32b93737b960d11b606082015260800190565b60208082526028908201527f455243313135353a2069647320616e6420616d6f756e7473206c656e677468206040820152670dad2e6dac2e8c6d60c31b606082015260800190565b60208082526025908201527f455243313135353a207472616e7366657220746f20746865207a65726f206164604082015264647265737360d81b606082015260800190565b6020808252602a908201527f455243313135353a20696e73756666696369656e742062616c616e636520666f60408201526939103a3930b739b332b960b11b606082015260800190565b6000821982111561212b5761212b611f9c565b500190565b6040815260006121436040830185611c1d565b82810360208401526121558185611c1d565b95945050505050565b60208082526021908201527f455243313135353a206d696e7420746f20746865207a65726f206164647265736040820152607360f81b606082015260800190565b6020808252602e908201527f496e697469616c697a61626c653a20636f6e747261637420697320616c72656160408201526d191e481a5b9a5d1a585b1a5e995960921b606082015260800190565b6020808252602b908201527f496e697469616c697a61626c653a20636f6e7472616374206973206e6f74206960408201526a6e697469616c697a696e6760a81b606082015260800190565b6001600160a01b0386811682528516602082015260a06040820181905260009061226490830186611c1d565b82810360608401526122768186611c1d565b9050828103608084015261228a81856118e8565b98975050505050505050565b6000602082840312156122a857600080fd5b8151610ff4816118b5565b600060033d11156122cc5760046000803e5060005160e01c5b90565b600060443d10156122dd5790565b6040516003193d81016004833e81513d6001600160401b03816024840111818411171561230c57505050505090565b82850191508151818111156123245750505050505090565b843d870101602082850101111561233e5750505050505090565b61234d60208286010187611977565b509095945050505050565b60208082526028908201527f455243313135353a204552433131353552656365697665722072656a656374656040820152676420746f6b656e7360c01b606082015260800190565b6001600160a01b03868116825285166020820152604081018490526060810183905260a0608082018190526000906123da908301846118e8565b97965050505050505056fea26469706673582212208e5604eaf42c25b7c90c086f0f60cc8f80d6d1ee70308a334b1d92b497b8412a64736f6c63430008090033",
  "linkReferences": {},
  "deployedLinkReferences": {}
}