{
  "_format": "hh-sol-artifact-1",
  "contractName": "ERC1155Tradable",
  "sourceName": "contracts/REITNFT.sol",
  "abi": [
    {
      "anonymous": false,
      "inputs": [
        {
          "indexed": true,
          "internalType": "address",
          "name": "account",
          "type": "address"
        },
        {
          "indexed": true,
          "internalType": "address",
          "name": "operator",
          "type": "address"
        },
        {
          "indexed": false,
          "internalType": "bool",
          "name": "approved",
          "type": "bool"
        }
      ],
      "name": "ApprovalForAll",
      "type": "event"
    },
    {
      "anonymous": false,
      "inputs": [
        {
          "indexed": false,
          "internalType": "uint8",
          "name": "version",
          "type": "uint8"
        }
      ],
      "name": "Initialized",
      "type": "event"
    },
    {
      "anonymous": false,
      "inputs": [
        {
          "indexed": true,
          "internalType": "address",
          "name": "previousOwner",
          "type": "address"
        },
        {
          "indexed": true,
          "internalType": "address",
          "name": "newOwner",
          "type": "address"
        }
      ],
      "name": "OwnershipTransferred",
      "type": "event"
    },
    {
      "anonymous": false,
      "inputs": [
        {
          "indexed": true,
          "internalType": "address",
          "name": "operator",
          "type": "address"
        },
        {
          "indexed": true,
          "internalType": "address",
          "name": "from",
          "type": "address"
        },
        {
          "indexed": true,
          "internalType": "address",
          "name": "to",
          "type": "address"
        },
        {
          "indexed": false,
          "internalType": "uint256[]",
          "name": "ids",
          "type": "uint256[]"
        },
        {
          "indexed": false,
          "internalType": "uint256[]",
          "name": "values",
          "type": "uint256[]"
        }
      ],
      "name": "TransferBatch",
      "type": "event"
    },
    {
      "anonymous": false,
      "inputs": [
        {
          "indexed": true,
          "internalType": "address",
          "name": "operator",
          "type": "address"
        },
        {
          "indexed": true,
          "internalType": "address",
          "name": "from",
          "type": "address"
        },
        {
          "indexed": true,
          "internalType": "address",
          "name": "to",
          "type": "address"
        },
        {
          "indexed": false,
          "internalType": "uint256",
          "name": "id",
          "type": "uint256"
        },
        {
          "indexed": false,
          "internalType": "uint256",
          "name": "value",
          "type": "uint256"
        }
      ],
      "name": "TransferSingle",
      "type": "event"
    },
    {
      "anonymous": false,
      "inputs": [
        {
          "indexed": false,
          "internalType": "string",
          "name": "value",
          "type": "string"
        },
        {
          "indexed": true,
          "internalType": "uint256",
          "name": "id",
          "type": "uint256"
        }
      ],
      "name": "URI",
      "type": "event"
    },
    {
      "inputs": [
        {
          "internalType": "address",
          "name": "account",
          "type": "address"
        },
        {
          "internalType": "uint256",
          "name": "id",
          "type": "uint256"
        }
      ],
      "name": "balanceOf",
      "outputs": [
        {
          "internalType": "uint256",
          "name": "",
          "type": "uint256"
        }
      ],
      "stateMutability": "view",
      "type": "function"
    },
    {
      "inputs": [
        {
          "internalType": "address[]",
          "name": "accounts",
          "type": "address[]"
        },
        {
          "internalType": "uint256[]",
          "name": "ids",
          "type": "uint256[]"
        }
      ],
      "name": "balanceOfBatch",
      "outputs": [
        {
          "internalType": "uint256[]",
          "name": "",
          "type": "uint256[]"
        }
      ],
      "stateMutability": "view",
      "type": "function"
    },
    {
      "inputs": [
        {
          "internalType": "address",
          "name": "_to",
          "type": "address"
        },
        {
          "internalType": "uint256[]",
          "name": "_ids",
          "type": "uint256[]"
        },
        {
          "internalType": "uint256[]",
          "name": "_quantities",
          "type": "uint256[]"
        },
        {
          "internalType": "bytes",
          "name": "_data",
          "type": "bytes"
        }
      ],
      "name": "batchMint",
      "outputs": [],
      "stateMutability": "nonpayable",
      "type": "function"
    },
    {
      "inputs": [],
      "name": "contractURI",
      "outputs": [
        {
          "internalType": "string",
          "name": "",
          "type": "string"
        }
      ],
      "stateMutability": "view",
      "type": "function"
    },
    {
      "inputs": [
        {
          "internalType": "uint256",
          "name": "",
          "type": "uint256"
        }
      ],
      "name": "creators",
      "outputs": [
        {
          "internalType": "address",
          "name": "",
          "type": "address"
        }
      ],
      "stateMutability": "view",
      "type": "function"
    },
    {
      "inputs": [
        {
          "internalType": "string",
          "name": "_name",
          "type": "string"
        },
        {
          "internalType": "string",
          "name": "_symbol",
          "type": "string"
        },
        {
          "internalType": "string",
          "name": "_uri",
          "type": "string"
        }
      ],
      "name": "initialize",
      "outputs": [],
      "stateMutability": "nonpayable",
      "type": "function"
    },
    {
      "inputs": [
        {
          "internalType": "address",
          "name": "account",
          "type": "address"
        },
        {
          "internalType": "address",
          "name": "operator",
          "type": "address"
        }
      ],
      "name": "isApprovedForAll",
      "outputs": [
        {
          "internalType": "bool",
          "name": "",
          "type": "bool"
        }
      ],
      "stateMutability": "view",
      "type": "function"
    },
    {
      "inputs": [
        {
          "internalType": "address",
          "name": "_to",
          "type": "address"
        },
        {
          "internalType": "uint256",
          "name": "_id",
          "type": "uint256"
        },
        {
          "internalType": "uint256",
          "name": "_quantity",
          "type": "uint256"
        },
        {
          "internalType": "bytes",
          "name": "_data",
          "type": "bytes"
        }
      ],
      "name": "mint",
      "outputs": [],
      "stateMutability": "nonpayable",
      "type": "function"
    },
    {
      "inputs": [],
      "name": "name",
      "outputs": [
        {
          "internalType": "string",
          "name": "",
          "type": "string"
        }
      ],
      "stateMutability": "view",
      "type": "function"
    },
    {
      "inputs": [],
      "name": "owner",
      "outputs": [
        {
          "internalType": "address",
          "name": "",
          "type": "address"
        }
      ],
      "stateMutability": "view",
      "type": "function"
    },
    {
      "inputs": [],
      "name": "renounceOwnership",
      "outputs": [],
      "stateMutability": "nonpayable",
      "type": "function"
    },
    {
      "inputs": [
        {
          "internalType": "address",
          "name": "from",
          "type": "address"
        },
        {
          "internalType": "address",
          "name": "to",
          "type": "address"
        },
        {
          "internalType": "uint256[]",
          "name": "ids",
          "type": "uint256[]"
        },
        {
          "internalType": "uint256[]",
          "name": "amounts",
          "type": "uint256[]"
        },
        {
          "internalType": "bytes",
          "name": "data",
          "type": "bytes"
        }
      ],
      "name": "safeBatchTransferFrom",
      "outputs": [],
      "stateMutability": "nonpayable",
      "type": "function"
    },
    {
      "inputs": [
        {
          "internalType": "address",
          "name": "from",
          "type": "address"
        },
        {
          "internalType": "address",
          "name": "to",
          "type": "address"
        },
        {
          "internalType": "uint256",
          "name": "id",
          "type": "uint256"
        },
        {
          "internalType": "uint256",
          "name": "amount",
          "type": "uint256"
        },
        {
          "internalType": "bytes",
          "name": "data",
          "type": "bytes"
        }
      ],
      "name": "safeTransferFrom",
      "outputs": [],
      "stateMutability": "nonpayable",
      "type": "function"
    },
    {
      "inputs": [
        {
          "internalType": "address",
          "name": "operator",
          "type": "address"
        },
        {
          "internalType": "bool",
          "name": "approved",
          "type": "bool"
        }
      ],
      "name": "setApprovalForAll",
      "outputs": [],
      "stateMutability": "nonpayable",
      "type": "function"
    },
    {
      "inputs": [
        {
          "internalType": "string",
          "name": "_newBaseMetadataURI",
          "type": "string"
        }
      ],
      "name": "setBaseMetadataURI",
      "outputs": [],
      "stateMutability": "nonpayable",
      "type": "function"
    },
    {
      "inputs": [
        {
          "internalType": "string",
          "name": "_uri",
          "type": "string"
        }
      ],
      "name": "setContractURI",
      "outputs": [],
      "stateMutability": "nonpayable",
      "type": "function"
    },
    {
      "inputs": [
        {
          "internalType": "address",
          "name": "_to",
          "type": "address"
        },
        {
          "internalType": "uint256[]",
          "name": "_ids",
          "type": "uint256[]"
        }
      ],
      "name": "setCreator",
      "outputs": [],
      "stateMutability": "nonpayable",
      "type": "function"
    },
    {
      "inputs": [
        {
          "internalType": "bytes4",
          "name": "interfaceId",
          "type": "bytes4"
        }
      ],
      "name": "supportsInterface",
      "outputs": [
        {
          "internalType": "bool",
          "name": "",
          "type": "bool"
        }
      ],
      "stateMutability": "view",
      "type": "function"
    },
    {
      "inputs": [],
      "name": "symbol",
      "outputs": [
        {
          "internalType": "string",
          "name": "",
          "type": "string"
        }
      ],
      "stateMutability": "view",
      "type": "function"
    },
    {
      "inputs": [
        {
          "internalType": "uint256",
          "name": "",
          "type": "uint256"
        }
      ],
      "name": "tokenSupply",
      "outputs": [
        {
          "internalType": "uint256",
          "name": "",
          "type": "uint256"
        }
      ],
      "stateMutability": "view",
      "type": "function"
    },
    {
      "inputs": [
        {
          "internalType": "uint256",
          "name": "",
          "type": "uint256"
        }
      ],
      "name": "tokenUri",
      "outputs": [
        {
          "internalType": "string",
          "name": "",
          "type": "string"
        }
      ],
      "stateMutability": "view",
      "type": "function"
    },
    {
      "inputs": [
        {
          "internalType": "uint256",
          "name": "_id",
          "type": "uint256"
        }
      ],
      "name": "totalSupply",
      "outputs": [
        {
          "internalType": "uint256",
          "name": "",
          "type": "uint256"
        }
      ],
      "stateMutability": "view",
      "type": "function"
    },
    {
      "inputs": [
        {
          "internalType": "address",
          "name": "newOwner",
          "type": "address"
        }
      ],
      "name": "transferOwnership",
      "outputs": [],
      "stateMutability": "nonpayable",
      "type": "function"
    },
    {
      "inputs": [
        {
          "internalType": "uint256",
          "name": "_id",
          "type": "uint256"
        }
      ],
      "name": "uri",
      "outputs": [
        {
          "internalType": "string",
          "name": "",
          "type": "string"
        }
      ],
      "stateMutability": "view",
      "type": "function"
    }
  ],
  "bytecode": "0x608060405234801561001057600080fd5b5061245a806100206000396000f3fe608060405234801561001057600080fd5b50600436106101575760003560e01c8063938e3d7b116100c3578063cd53d08e1161007c578063cd53d08e146102fc578063d2a6b51a14610325578063e8a3d48514610338578063e985e9c514610340578063f242432a1461037c578063f2fde38b1461038f57600080fd5b8063938e3d7b1461028857806395d89b411461029b578063a22cb465146102a3578063a6487c53146102b6578063b48ab8b6146102c9578063bd85b039146102dc57600080fd5b80632eb2c2d6116101155780632eb2c2d6146102005780634e1273f414610215578063715018a614610235578063731133e91461023d5780637e518ec8146102505780638da5cb5b1461026357600080fd5b8062fdd58e1461015c57806301ffc9a71461018257806306fdde03146101a55780630e89341c146101ba5780631675f455146101cd5780632693ebf2146101e0575b600080fd5b61016f61016a3660046118b8565b6103a2565b6040519081526020015b60405180910390f35b6101956101903660046118f8565b61043b565b6040519015158152602001610179565b6101ad61048d565b6040516101799190611962565b6101ad6101c8366004611975565b61051b565b6101ad6101db366004611975565b6105bd565b61016f6101ee366004611975565b60cb6020526000908152604090205481565b61021361020e366004611ad7565b6105d6565b005b610228610223366004611b80565b61066d565b6040516101799190611c85565b610213610796565b61021361024b366004611c98565b6107cc565b61021361025e366004611cf8565b610842565b60ce546001600160a01b03165b6040516001600160a01b039091168152602001610179565b610213610296366004611cf8565b610878565b6101ad6108b9565b6102136102b1366004611d34565b6108c6565b6102136102c4366004611d70565b6108d1565b6102136102d7366004611df7565b61099c565b61016f6102ea366004611975565b600090815260cb602052604090205490565b61027061030a366004611975565b60ca602052600090815260409020546001600160a01b031681565b610213610333366004611e83565b610b2b565b6101ad610be2565b61019561034e366004611ec6565b6001600160a01b03918216600090815260986020908152604080832093909416825291909152205460ff1690565b61021361038a366004611ef9565b610c74565b61021361039d366004611f5d565b610cfb565b60006001600160a01b0383166104135760405162461bcd60e51b815260206004820152602b60248201527f455243313135353a2062616c616e636520717565727920666f7220746865207a60448201526a65726f206164647265737360a81b60648201526084015b60405180910390fd5b5060009081526097602090815260408083206001600160a01b03949094168352929052205490565b60006001600160e01b03198216636cdb3d1360e11b148061046c57506001600160e01b031982166303a24d0760e21b145b8061048757506301ffc9a760e01b6001600160e01b03198316145b92915050565b60cf805461049a90611f78565b80601f01602080910402602001604051908101604052809291908181526020018280546104c690611f78565b80156105135780601f106104e857610100808354040283529160200191610513565b820191906000526020600020905b8154815290600101906020018083116104f657829003601f168201915b505050505081565b600081815260cc6020526040902080546060919061053890611f78565b80601f016020809104026020016040519081016040528092919081815260200182805461056490611f78565b80156105b15780601f10610586576101008083540402835291602001916105b1565b820191906000526020600020905b81548152906001019060200180831161059457829003601f168201915b50505050509050919050565b60cc602052600090815260409020805461049a90611f78565b6001600160a01b0385163314806105f257506105f2853361034e565b6106595760405162461bcd60e51b815260206004820152603260248201527f455243313135353a207472616e736665722063616c6c6572206973206e6f74206044820152711bdddb995c881b9bdc88185c1c1c9bdd995960721b606482015260840161040a565b6106668585858585610d93565b5050505050565b606081518351146106d25760405162461bcd60e51b815260206004820152602960248201527f455243313135353a206163636f756e747320616e6420696473206c656e677468604482015268040dad2e6dac2e8c6d60bb1b606482015260840161040a565b600083516001600160401b038111156106ed576106ed61198e565b604051908082528060200260200182016040528015610716578160200160208202803683370190505b50905060005b845181101561078e5761076185828151811061073a5761073a611fb3565b602002602001015185838151811061075457610754611fb3565b60200260200101516103a2565b82828151811061077357610773611fb3565b602090810291909101015261078781611fdf565b905061071c565b509392505050565b60ce546001600160a01b031633146107c05760405162461bcd60e51b815260040161040a90611ffa565b6107ca6000610f32565b565b600083815260ca602052604090205483906001600160a01b031633146108045760405162461bcd60e51b815260040161040a9061202f565b61081085858585610f84565b600084815260cb60205260409020546108299084611060565b600094855260cb60205260409094209390935550505050565b60ce546001600160a01b0316331461086c5760405162461bcd60e51b815260040161040a90611ffa565b61087581611073565b50565b60ce546001600160a01b031633146108a25760405162461bcd60e51b815260040161040a90611ffa565b80516108b59060cd906020840190611808565b5050565b60d0805461049a90611f78565b6108b5338383611086565b60006108dd6001611167565b905080156108f5576000805461ff0019166101001790555b6108fe826111f4565b610906611224565b61090f33610f32565b83516109229060cf906020870190611808565b5082516109369060d0906020860190611808565b50600060c955815161094f9060cd906020850190611808565b508015610996576000805461ff0019169055604051600181527f7f26b83ff96e1f2b6a682f133852f6798a09c465da95921460cefb38474024989060200160405180910390a15b50505050565b8151835114610a065760405162461bcd60e51b815260206004820152603060248201527f455243313135354d696e744275726e2362617463684d696e743a20494e56414c60448201526f09288be82a4a482b2a6be988a9c8ea8960831b606482015260840161040a565b60005b8351811015610b1e576000848281518110610a2657610a26611fb3565b602090810291909101810151600081815260ca9092526040909120549091506001600160a01b03163314610ab45760405162461bcd60e51b815260206004820152602f60248201527f455243313135355472616461626c652362617463684d696e743a204f4e4c595f60448201526e10d491505513d497d0531313d5d151608a1b606482015260840161040a565b6000848381518110610ac857610ac8611fb3565b60200260200101519050610af88160cb60008581526020019081526020016000205461106090919063ffffffff16565b600092835260cb6020526040909220919091555080610b1681611fdf565b915050610a09565b5061099684848484611253565b6001600160a01b038216610b965760405162461bcd60e51b815260206004820152602c60248201527f455243313135355472616461626c652373657443726561746f723a20494e564160448201526b2624a22fa0a2222922a9a99760a11b606482015260840161040a565b60005b8151811015610bdd576000828281518110610bb657610bb6611fb3565b60200260200101519050610bca848261139f565b5080610bd581611fdf565b915050610b99565b505050565b606060cd8054610bf190611f78565b80601f0160208091040260200160405190810160405280929190818152602001828054610c1d90611f78565b8015610c6a5780601f10610c3f57610100808354040283529160200191610c6a565b820191906000526020600020905b815481529060010190602001808311610c4d57829003601f168201915b5050505050905090565b6001600160a01b038516331480610c905750610c90853361034e565b610cee5760405162461bcd60e51b815260206004820152602960248201527f455243313135353a2063616c6c6572206973206e6f74206f776e6572206e6f7260448201526808185c1c1c9bdd995960ba1b606482015260840161040a565b6106668585858585611406565b60ce546001600160a01b03163314610d255760405162461bcd60e51b815260040161040a90611ffa565b6001600160a01b038116610d8a5760405162461bcd60e51b815260206004820152602660248201527f4f776e61626c653a206e6577206f776e657220697320746865207a65726f206160448201526564647265737360d01b606482015260840161040a565b61087581610f32565b8151835114610db45760405162461bcd60e51b815260040161040a90612080565b6001600160a01b038416610dda5760405162461bcd60e51b815260040161040a906120c8565b3360005b8451811015610ec4576000858281518110610dfb57610dfb611fb3565b602002602001015190506000858381518110610e1957610e19611fb3565b60209081029190910181015160008481526097835260408082206001600160a01b038e168352909352919091205490915081811015610e6a5760405162461bcd60e51b815260040161040a9061210d565b60008381526097602090815260408083206001600160a01b038e8116855292528083208585039055908b16825281208054849290610ea9908490612157565b9250508190555050505080610ebd90611fdf565b9050610dde565b50846001600160a01b0316866001600160a01b0316826001600160a01b03167f4a39dc06d4c0dbc64b70af90fd698a233a518aa5d07e595d983b8c0526c8f7fb8787604051610f1492919061216f565b60405180910390a4610f2a818787878787611534565b505050505050565b60ce80546001600160a01b038381166001600160a01b0319831681179093556040519116919082907f8be0079c531659141344cd1fd0a4f28419497f9722a3daafe3b4186f6b6457e090600090a35050565b6001600160a01b038416610faa5760405162461bcd60e51b815260040161040a9061219d565b336000610fb68561169f565b90506000610fc38561169f565b905060008681526097602090815260408083206001600160a01b038b16845290915281208054879290610ff7908490612157565b909155505060408051878152602081018790526001600160a01b03808a1692600092918716917fc3d58168c5ae7397731d063d5bbf3d657854427343f4c083240f7aacaa2d0f62910160405180910390a4611057836000898989896116ea565b50505050505050565b600061106c8284612157565b9392505050565b80516108b5906099906020840190611808565b816001600160a01b0316836001600160a01b031614156110fa5760405162461bcd60e51b815260206004820152602960248201527f455243313135353a2073657474696e6720617070726f76616c20737461747573604482015268103337b91039b2b63360b91b606482015260840161040a565b6001600160a01b03838116600081815260986020908152604080832094871680845294825291829020805460ff191686151590811790915591519182527f17307eab39ab6107e8899845ad3d59bd9653f200f220920489ca2b5937696c31910160405180910390a3505050565b60008054610100900460ff16156111ae578160ff16600114801561118a5750303b155b6111a65760405162461bcd60e51b815260040161040a906121de565b506000919050565b60005460ff8084169116106111d55760405162461bcd60e51b815260040161040a906121de565b506000805460ff191660ff92909216919091179055600190565b919050565b600054610100900460ff1661121b5760405162461bcd60e51b815260040161040a9061222c565b610875816117b4565b600054610100900460ff1661124b5760405162461bcd60e51b815260040161040a9061222c565b6107ca6117db565b6001600160a01b0384166112795760405162461bcd60e51b815260040161040a9061219d565b815183511461129a5760405162461bcd60e51b815260040161040a90612080565b3360005b8451811015611337578381815181106112b9576112b9611fb3565b6020026020010151609760008784815181106112d7576112d7611fb3565b602002602001015181526020019081526020016000206000886001600160a01b03166001600160a01b03168152602001908152602001600020600082825461131f9190612157565b9091555081905061132f81611fdf565b91505061129e565b50846001600160a01b031660006001600160a01b0316826001600160a01b03167f4a39dc06d4c0dbc64b70af90fd698a233a518aa5d07e595d983b8c0526c8f7fb878760405161138892919061216f565b60405180910390a461066681600087878787611534565b600081815260ca602052604090205481906001600160a01b031633146113d75760405162461bcd60e51b815260040161040a9061202f565b50600090815260ca6020526040902080546001600160a01b0319166001600160a01b0392909216919091179055565b6001600160a01b03841661142c5760405162461bcd60e51b815260040161040a906120c8565b3360006114388561169f565b905060006114458561169f565b905060008681526097602090815260408083206001600160a01b038c1684529091529020548581101561148a5760405162461bcd60e51b815260040161040a9061210d565b60008781526097602090815260408083206001600160a01b038d8116855292528083208985039055908a168252812080548892906114c9908490612157565b909155505060408051888152602081018890526001600160a01b03808b16928c821692918816917fc3d58168c5ae7397731d063d5bbf3d657854427343f4c083240f7aacaa2d0f62910160405180910390a4611529848a8a8a8a8a6116ea565b505050505050505050565b6001600160a01b0384163b15610f2a5760405163bc197c8160e01b81526001600160a01b0385169063bc197c81906115789089908990889088908890600401612277565b602060405180830381600087803b15801561159257600080fd5b505af19250505080156115c2575060408051601f3d908101601f191682019092526115bf918101906122d5565b60015b61166f576115ce6122f2565b806308c379a0141561160857506115e361230e565b806115ee575061160a565b8060405162461bcd60e51b815260040161040a9190611962565b505b60405162461bcd60e51b815260206004820152603460248201527f455243313135353a207472616e7366657220746f206e6f6e20455243313135356044820152732932b1b2b4bb32b91034b6b83632b6b2b73a32b960611b606482015260840161040a565b6001600160e01b0319811663bc197c8160e01b146110575760405162461bcd60e51b815260040161040a90612397565b604080516001808252818301909252606091600091906020808301908036833701905050905082816000815181106116d9576116d9611fb3565b602090810291909101015292915050565b6001600160a01b0384163b15610f2a5760405163f23a6e6160e01b81526001600160a01b0385169063f23a6e619061172e90899089908890889088906004016123df565b602060405180830381600087803b15801561174857600080fd5b505af1925050508015611778575060408051601f3d908101601f19168201909252611775918101906122d5565b60015b611784576115ce6122f2565b6001600160e01b0319811663f23a6e6160e01b146110575760405162461bcd60e51b815260040161040a90612397565b600054610100900460ff1661086c5760405162461bcd60e51b815260040161040a9061222c565b600054610100900460ff166118025760405162461bcd60e51b815260040161040a9061222c565b60018055565b82805461181490611f78565b90600052602060002090601f016020900481019282611836576000855561187c565b82601f1061184f57805160ff191683800117855561187c565b8280016001018555821561187c579182015b8281111561187c578251825591602001919060010190611861565b5061188892915061188c565b5090565b5b80821115611888576000815560010161188d565b80356001600160a01b03811681146111ef57600080fd5b600080604083850312156118cb57600080fd5b6118d4836118a1565b946020939093013593505050565b6001600160e01b03198116811461087557600080fd5b60006020828403121561190a57600080fd5b813561106c816118e2565b6000815180845260005b8181101561193b5760208185018101518683018201520161191f565b8181111561194d576000602083870101525b50601f01601f19169290920160200192915050565b60208152600061106c6020830184611915565b60006020828403121561198757600080fd5b5035919050565b634e487b7160e01b600052604160045260246000fd5b601f8201601f191681016001600160401b03811182821017156119c9576119c961198e565b6040525050565b60006001600160401b038211156119e9576119e961198e565b5060051b60200190565b600082601f830112611a0457600080fd5b81356020611a11826119d0565b604051611a1e82826119a4565b83815260059390931b8501820192828101915086841115611a3e57600080fd5b8286015b84811015611a595780358352918301918301611a42565b509695505050505050565b600082601f830112611a7557600080fd5b81356001600160401b03811115611a8e57611a8e61198e565b604051611aa5601f8301601f1916602001826119a4565b818152846020838601011115611aba57600080fd5b816020850160208301376000918101602001919091529392505050565b600080600080600060a08688031215611aef57600080fd5b611af8866118a1565b9450611b06602087016118a1565b935060408601356001600160401b0380821115611b2257600080fd5b611b2e89838a016119f3565b94506060880135915080821115611b4457600080fd5b611b5089838a016119f3565b93506080880135915080821115611b6657600080fd5b50611b7388828901611a64565b9150509295509295909350565b60008060408385031215611b9357600080fd5b82356001600160401b0380821115611baa57600080fd5b818501915085601f830112611bbe57600080fd5b81356020611bcb826119d0565b604051611bd882826119a4565b83815260059390931b8501820192828101915089841115611bf857600080fd5b948201945b83861015611c1d57611c0e866118a1565b82529482019490820190611bfd565b96505086013592505080821115611c3357600080fd5b50611c40858286016119f3565b9150509250929050565b600081518084526020808501945080840160005b83811015611c7a57815187529582019590820190600101611c5e565b509495945050505050565b60208152600061106c6020830184611c4a565b60008060008060808587031215611cae57600080fd5b611cb7856118a1565b9350602085013592506040850135915060608501356001600160401b03811115611ce057600080fd5b611cec87828801611a64565b91505092959194509250565b600060208284031215611d0a57600080fd5b81356001600160401b03811115611d2057600080fd5b611d2c84828501611a64565b949350505050565b60008060408385031215611d4757600080fd5b611d50836118a1565b915060208301358015158114611d6557600080fd5b809150509250929050565b600080600060608486031215611d8557600080fd5b83356001600160401b0380821115611d9c57600080fd5b611da887838801611a64565b94506020860135915080821115611dbe57600080fd5b611dca87838801611a64565b93506040860135915080821115611de057600080fd5b50611ded86828701611a64565b9150509250925092565b60008060008060808587031215611e0d57600080fd5b611e16856118a1565b935060208501356001600160401b0380821115611e3257600080fd5b611e3e888389016119f3565b94506040870135915080821115611e5457600080fd5b611e60888389016119f3565b93506060870135915080821115611e7657600080fd5b50611cec87828801611a64565b60008060408385031215611e9657600080fd5b611e9f836118a1565b915060208301356001600160401b03811115611eba57600080fd5b611c40858286016119f3565b60008060408385031215611ed957600080fd5b611ee2836118a1565b9150611ef0602084016118a1565b90509250929050565b600080600080600060a08688031215611f1157600080fd5b611f1a866118a1565b9450611f28602087016118a1565b9350604086013592506060860135915060808601356001600160401b03811115611f5157600080fd5b611b7388828901611a64565b600060208284031215611f6f57600080fd5b61106c826118a1565b600181811c90821680611f8c57607f821691505b60208210811415611fad57634e487b7160e01b600052602260045260246000fd5b50919050565b634e487b7160e01b600052603260045260246000fd5b634e487b7160e01b600052601160045260246000fd5b6000600019821415611ff357611ff3611fc9565b5060010190565b6020808252818101527f4f776e61626c653a2063616c6c6572206973206e6f7420746865206f776e6572604082015260600190565b60208082526031908201527f455243313135355472616461626c652363726561746f724f6e6c793a204f4e4c6040820152701657d0d491505513d497d0531313d5d151607a1b606082015260800190565b60208082526028908201527f455243313135353a2069647320616e6420616d6f756e7473206c656e677468206040820152670dad2e6dac2e8c6d60c31b606082015260800190565b60208082526025908201527f455243313135353a207472616e7366657220746f20746865207a65726f206164604082015264647265737360d81b606082015260800190565b6020808252602a908201527f455243313135353a20696e73756666696369656e742062616c616e636520666f60408201526939103a3930b739b332b960b11b606082015260800190565b6000821982111561216a5761216a611fc9565b500190565b6040815260006121826040830185611c4a565b82810360208401526121948185611c4a565b95945050505050565b60208082526021908201527f455243313135353a206d696e7420746f20746865207a65726f206164647265736040820152607360f81b606082015260800190565b6020808252602e908201527f496e697469616c697a61626c653a20636f6e747261637420697320616c72656160408201526d191e481a5b9a5d1a585b1a5e995960921b606082015260800190565b6020808252602b908201527f496e697469616c697a61626c653a20636f6e7472616374206973206e6f74206960408201526a6e697469616c697a696e6760a81b606082015260800190565b6001600160a01b0386811682528516602082015260a0604082018190526000906122a390830186611c4a565b82810360608401526122b58186611c4a565b905082810360808401526122c98185611915565b98975050505050505050565b6000602082840312156122e757600080fd5b815161106c816118e2565b600060033d111561230b5760046000803e5060005160e01c5b90565b600060443d101561231c5790565b6040516003193d81016004833e81513d6001600160401b03816024840111818411171561234b57505050505090565b82850191508151818111156123635750505050505090565b843d870101602082850101111561237d5750505050505090565b61238c602082860101876119a4565b509095945050505050565b60208082526028908201527f455243313135353a204552433131353552656365697665722072656a656374656040820152676420746f6b656e7360c01b606082015260800190565b6001600160a01b03868116825285166020820152604081018490526060810183905260a06080820181905260009061241990830184611915565b97965050505050505056fea26469706673582212204f945ddca400070814b56774bc419a80422d43566edce848c02b77fa09e884e464736f6c63430008090033",
  "linkReferences": {},
  "deployedLinkReferences": {}
}