{
  "_format": "hh-sol-artifact-1",
  "contractName": "ERC1155Tradable",
  "sourceName": "contracts/REITNFT.sol",
  "abi": [
    {
      "anonymous": false,
      "inputs": [
        {
          "indexed": true,
          "internalType": "address",
          "name": "account",
          "type": "address"
        },
        {
          "indexed": true,
          "internalType": "address",
          "name": "operator",
          "type": "address"
        },
        {
          "indexed": false,
          "internalType": "bool",
          "name": "approved",
          "type": "bool"
        }
      ],
      "name": "ApprovalForAll",
      "type": "event"
    },
    {
      "anonymous": false,
      "inputs": [
        {
          "indexed": true,
          "internalType": "address",
          "name": "previousGovernor",
          "type": "address"
        },
        {
          "indexed": true,
          "internalType": "address",
          "name": "newGovernor",
          "type": "address"
        }
      ],
      "name": "GovernorshipTransferred",
      "type": "event"
    },
    {
      "anonymous": false,
      "inputs": [
        {
          "indexed": false,
          "internalType": "uint8",
          "name": "version",
          "type": "uint8"
        }
      ],
      "name": "Initialized",
      "type": "event"
    },
    {
      "anonymous": false,
      "inputs": [
        {
          "indexed": true,
          "internalType": "address",
          "name": "operator",
          "type": "address"
        },
        {
          "indexed": true,
          "internalType": "address",
          "name": "from",
          "type": "address"
        },
        {
          "indexed": true,
          "internalType": "address",
          "name": "to",
          "type": "address"
        },
        {
          "indexed": false,
          "internalType": "uint256[]",
          "name": "ids",
          "type": "uint256[]"
        },
        {
          "indexed": false,
          "internalType": "uint256[]",
          "name": "values",
          "type": "uint256[]"
        }
      ],
      "name": "TransferBatch",
      "type": "event"
    },
    {
      "anonymous": false,
      "inputs": [
        {
          "indexed": true,
          "internalType": "address",
          "name": "operator",
          "type": "address"
        },
        {
          "indexed": true,
          "internalType": "address",
          "name": "from",
          "type": "address"
        },
        {
          "indexed": true,
          "internalType": "address",
          "name": "to",
          "type": "address"
        },
        {
          "indexed": false,
          "internalType": "uint256",
          "name": "id",
          "type": "uint256"
        },
        {
          "indexed": false,
          "internalType": "uint256",
          "name": "value",
          "type": "uint256"
        }
      ],
      "name": "TransferSingle",
      "type": "event"
    },
    {
      "anonymous": false,
      "inputs": [
        {
          "indexed": false,
          "internalType": "string",
          "name": "value",
          "type": "string"
        },
        {
          "indexed": true,
          "internalType": "uint256",
          "name": "id",
          "type": "uint256"
        }
      ],
      "name": "URI",
      "type": "event"
    },
    {
      "inputs": [
        {
          "internalType": "address",
          "name": "account",
          "type": "address"
        },
        {
          "internalType": "uint256",
          "name": "id",
          "type": "uint256"
        }
      ],
      "name": "balanceOf",
      "outputs": [
        {
          "internalType": "uint256",
          "name": "",
          "type": "uint256"
        }
      ],
      "stateMutability": "view",
      "type": "function"
    },
    {
      "inputs": [
        {
          "internalType": "address[]",
          "name": "accounts",
          "type": "address[]"
        },
        {
          "internalType": "uint256[]",
          "name": "ids",
          "type": "uint256[]"
        }
      ],
      "name": "balanceOfBatch",
      "outputs": [
        {
          "internalType": "uint256[]",
          "name": "",
          "type": "uint256[]"
        }
      ],
      "stateMutability": "view",
      "type": "function"
    },
    {
      "inputs": [
        {
          "internalType": "address",
          "name": "_to",
          "type": "address"
        },
        {
          "internalType": "uint256[]",
          "name": "_ids",
          "type": "uint256[]"
        },
        {
          "internalType": "uint256[]",
          "name": "_quantities",
          "type": "uint256[]"
        },
        {
          "internalType": "bytes",
          "name": "_data",
          "type": "bytes"
        }
      ],
      "name": "batchMint",
      "outputs": [],
      "stateMutability": "nonpayable",
      "type": "function"
    },
    {
      "inputs": [],
      "name": "contractURI",
      "outputs": [
        {
          "internalType": "string",
          "name": "",
          "type": "string"
        }
      ],
      "stateMutability": "view",
      "type": "function"
    },
    {
      "inputs": [
        {
          "internalType": "uint256",
          "name": "",
          "type": "uint256"
        }
      ],
      "name": "creators",
      "outputs": [
        {
          "internalType": "address",
          "name": "",
          "type": "address"
        }
      ],
      "stateMutability": "view",
      "type": "function"
    },
    {
      "inputs": [],
      "name": "governor",
      "outputs": [
        {
          "internalType": "address",
          "name": "",
          "type": "address"
        }
      ],
      "stateMutability": "view",
      "type": "function"
    },
    {
      "inputs": [
        {
          "internalType": "string",
          "name": "_name",
          "type": "string"
        },
        {
          "internalType": "string",
          "name": "_symbol",
          "type": "string"
        },
        {
          "internalType": "string",
          "name": "_uri",
          "type": "string"
        }
      ],
      "name": "initialize",
      "outputs": [],
      "stateMutability": "nonpayable",
      "type": "function"
    },
    {
      "inputs": [
        {
          "internalType": "address",
          "name": "account",
          "type": "address"
        },
        {
          "internalType": "address",
          "name": "operator",
          "type": "address"
        }
      ],
      "name": "isApprovedForAll",
      "outputs": [
        {
          "internalType": "bool",
          "name": "",
          "type": "bool"
        }
      ],
      "stateMutability": "view",
      "type": "function"
    },
    {
      "inputs": [
        {
          "internalType": "address",
          "name": "_to",
          "type": "address"
        },
        {
          "internalType": "uint256",
          "name": "_id",
          "type": "uint256"
        },
        {
          "internalType": "uint256",
          "name": "_quantity",
          "type": "uint256"
        },
        {
          "internalType": "bytes",
          "name": "_data",
          "type": "bytes"
        }
      ],
      "name": "mint",
      "outputs": [],
      "stateMutability": "nonpayable",
      "type": "function"
    },
    {
      "inputs": [],
      "name": "name",
      "outputs": [
        {
          "internalType": "string",
          "name": "",
          "type": "string"
        }
      ],
      "stateMutability": "view",
      "type": "function"
    },
    {
      "inputs": [],
      "name": "renounceGovernorship",
      "outputs": [],
      "stateMutability": "nonpayable",
      "type": "function"
    },
    {
      "inputs": [
        {
          "internalType": "address",
          "name": "from",
          "type": "address"
        },
        {
          "internalType": "address",
          "name": "to",
          "type": "address"
        },
        {
          "internalType": "uint256[]",
          "name": "ids",
          "type": "uint256[]"
        },
        {
          "internalType": "uint256[]",
          "name": "amounts",
          "type": "uint256[]"
        },
        {
          "internalType": "bytes",
          "name": "data",
          "type": "bytes"
        }
      ],
      "name": "safeBatchTransferFrom",
      "outputs": [],
      "stateMutability": "nonpayable",
      "type": "function"
    },
    {
      "inputs": [
        {
          "internalType": "address",
          "name": "from",
          "type": "address"
        },
        {
          "internalType": "address",
          "name": "to",
          "type": "address"
        },
        {
          "internalType": "uint256",
          "name": "id",
          "type": "uint256"
        },
        {
          "internalType": "uint256",
          "name": "amount",
          "type": "uint256"
        },
        {
          "internalType": "bytes",
          "name": "data",
          "type": "bytes"
        }
      ],
      "name": "safeTransferFrom",
      "outputs": [],
      "stateMutability": "nonpayable",
      "type": "function"
    },
    {
      "inputs": [
        {
          "internalType": "address",
          "name": "operator",
          "type": "address"
        },
        {
          "internalType": "bool",
          "name": "approved",
          "type": "bool"
        }
      ],
      "name": "setApprovalForAll",
      "outputs": [],
      "stateMutability": "nonpayable",
      "type": "function"
    },
    {
      "inputs": [
        {
          "internalType": "string",
          "name": "_newBaseMetadataURI",
          "type": "string"
        }
      ],
      "name": "setBaseMetadataURI",
      "outputs": [],
      "stateMutability": "nonpayable",
      "type": "function"
    },
    {
      "inputs": [
        {
          "internalType": "string",
          "name": "_uri",
          "type": "string"
        }
      ],
      "name": "setContractURI",
      "outputs": [],
      "stateMutability": "nonpayable",
      "type": "function"
    },
    {
      "inputs": [
        {
          "internalType": "address",
          "name": "_to",
          "type": "address"
        },
        {
          "internalType": "uint256[]",
          "name": "_ids",
          "type": "uint256[]"
        }
      ],
      "name": "setCreator",
      "outputs": [],
      "stateMutability": "nonpayable",
      "type": "function"
    },
    {
      "inputs": [
        {
          "internalType": "bytes4",
          "name": "interfaceId",
          "type": "bytes4"
        }
      ],
      "name": "supportsInterface",
      "outputs": [
        {
          "internalType": "bool",
          "name": "",
          "type": "bool"
        }
      ],
      "stateMutability": "view",
      "type": "function"
    },
    {
      "inputs": [],
      "name": "symbol",
      "outputs": [
        {
          "internalType": "string",
          "name": "",
          "type": "string"
        }
      ],
      "stateMutability": "view",
      "type": "function"
    },
    {
      "inputs": [
        {
          "internalType": "uint256",
          "name": "",
          "type": "uint256"
        }
      ],
      "name": "tokenSupply",
      "outputs": [
        {
          "internalType": "uint256",
          "name": "",
          "type": "uint256"
        }
      ],
      "stateMutability": "view",
      "type": "function"
    },
    {
      "inputs": [
        {
          "internalType": "uint256",
          "name": "",
          "type": "uint256"
        }
      ],
      "name": "tokenUri",
      "outputs": [
        {
          "internalType": "string",
          "name": "",
          "type": "string"
        }
      ],
      "stateMutability": "view",
      "type": "function"
    },
    {
      "inputs": [
        {
          "internalType": "uint256",
          "name": "_id",
          "type": "uint256"
        }
      ],
      "name": "totalSupply",
      "outputs": [
        {
          "internalType": "uint256",
          "name": "",
          "type": "uint256"
        }
      ],
      "stateMutability": "view",
      "type": "function"
    },
    {
      "inputs": [
        {
          "internalType": "address",
          "name": "newGovernor",
          "type": "address"
        }
      ],
      "name": "transferGovernorship",
      "outputs": [],
      "stateMutability": "nonpayable",
      "type": "function"
    },
    {
      "inputs": [
        {
          "internalType": "uint256",
          "name": "_id",
          "type": "uint256"
        }
      ],
      "name": "uri",
      "outputs": [
        {
          "internalType": "string",
          "name": "",
          "type": "string"
        }
      ],
      "stateMutability": "view",
      "type": "function"
    }
  ],
  "bytecode": "0x608060405234801561001057600080fd5b5061250b806100206000396000f3fe608060405234801561001057600080fd5b50600436106101575760003560e01c8063938e3d7b116100c3578063bd85b0391161007c578063bd85b039146102ef578063cd53d08e1461030f578063d2a6b51a14610338578063e8a3d4851461034b578063e985e9c514610353578063f242432a1461038f57600080fd5b8063938e3d7b1461028857806395d89b411461029b578063a22cb465146102a3578063a6487c53146102b6578063b48ab8b6146102c9578063b6aa515b146102dc57600080fd5b80632693ebf2116101155780632693ebf2146102055780632eb2c2d6146102255780634e1273f41461023a578063731133e91461025a5780637e518ec81461026d57806381c0c2631461028057600080fd5b8062fdd58e1461015c57806301ffc9a71461018257806306fdde03146101a55780630c340a24146101ba5780630e89341c146101df5780631675f455146101f2575b600080fd5b61016f61016a3660046119a9565b6103a2565b6040519081526020015b60405180910390f35b6101956101903660046119e9565b61043b565b6040519015158152602001610179565b6101ad61048d565b6040516101799190611a53565b6097546001600160a01b03165b6040516001600160a01b039091168152602001610179565b6101ad6101ed366004611a66565b61051c565b6101ad610200366004611a66565b6105be565b61016f610213366004611a66565b60fd6020526000908152604090205481565b610238610233366004611bc8565b6105d7565b005b61024d610248366004611c71565b61066e565b6040516101799190611d76565b610238610268366004611d89565b610797565b61023861027b366004611de9565b610857565b61023861088d565b610238610296366004611de9565b6108c3565b6101ad610904565b6102386102b1366004611e25565b610912565b6102386102c4366004611e61565b61091d565b6102386102d7366004611ee8565b6109e9565b6102386102ea366004611f74565b610b78565b61016f6102fd366004611a66565b600090815260fd602052604090205490565b6101c761031d366004611a66565b60fc602052600090815260409020546001600160a01b031681565b610238610346366004611f8f565b610c16565b6101ad610d72565b610195610361366004611fd2565b6001600160a01b03918216600090815260666020908152604080832093909416825291909152205460ff1690565b61023861039d366004612005565b610e04565b60006001600160a01b0383166104135760405162461bcd60e51b815260206004820152602b60248201527f455243313135353a2062616c616e636520717565727920666f7220746865207a60448201526a65726f206164647265737360a81b60648201526084015b60405180910390fd5b5060009081526065602090815260408083206001600160a01b03949094168352929052205490565b60006001600160e01b03198216636cdb3d1360e11b148061046c57506001600160e01b031982166303a24d0760e21b145b8061048757506301ffc9a760e01b6001600160e01b03198316145b92915050565b610100805461049b90612069565b80601f01602080910402602001604051908101604052809291908181526020018280546104c790612069565b80156105145780601f106104e957610100808354040283529160200191610514565b820191906000526020600020905b8154815290600101906020018083116104f757829003601f168201915b505050505081565b600081815260fe6020526040902080546060919061053990612069565b80601f016020809104026020016040519081016040528092919081815260200182805461056590612069565b80156105b25780601f10610587576101008083540402835291602001916105b2565b820191906000526020600020905b81548152906001019060200180831161059557829003601f168201915b50505050509050919050565b60fe602052600090815260409020805461049b90612069565b6001600160a01b0385163314806105f357506105f38533610361565b61065a5760405162461bcd60e51b815260206004820152603260248201527f455243313135353a207472616e736665722063616c6c6572206973206e6f74206044820152711bdddb995c881b9bdc88185c1c1c9bdd995960721b606482015260840161040a565b6106678585858585610e8b565b5050505050565b606081518351146106d35760405162461bcd60e51b815260206004820152602960248201527f455243313135353a206163636f756e747320616e6420696473206c656e677468604482015268040dad2e6dac2e8c6d60bb1b606482015260840161040a565b600083516001600160401b038111156106ee576106ee611a7f565b604051908082528060200260200182016040528015610717578160200160208202803683370190505b50905060005b845181101561078f5761076285828151811061073b5761073b6120a4565b6020026020010151858381518110610755576107556120a4565b60200260200101516103a2565b828281518110610774576107746120a4565b6020908102919091010152610788816120d0565b905061071d565b509392505050565b600083815260fc602052604090205483906001600160a01b031633146108195760405162461bcd60e51b815260206004820152603160248201527f455243313135355472616461626c652363726561746f724f6e6c793a204f4e4c6044820152701657d0d491505513d497d0531313d5d151607a1b606482015260840161040a565b6108258585858561102a565b600084815260fd602052604090205461083e9084611106565b600094855260fd60205260409094209390935550505050565b6097546001600160a01b031633146108815760405162461bcd60e51b815260040161040a906120eb565b61088a81611119565b50565b6097546001600160a01b031633146108b75760405162461bcd60e51b815260040161040a906120eb565b6108c1600061112c565b565b6097546001600160a01b031633146108ed5760405162461bcd60e51b815260040161040a906120eb565b80516109009060ff9060208401906118f9565b5050565b610101805461049b90612069565b61090033838361117e565b6000610929600161125f565b90508015610941576000805461ff0019166101001790555b61094a826112ec565b61095261131c565b61095a61134b565b835161096e906101009060208701906118f9565b508251610983906101019060208601906118f9565b50600060fb55815161099c9060ff9060208501906118f9565b5080156109e3576000805461ff0019169055604051600181527f7f26b83ff96e1f2b6a682f133852f6798a09c465da95921460cefb38474024989060200160405180910390a15b50505050565b8151835114610a535760405162461bcd60e51b815260206004820152603060248201527f455243313135354d696e744275726e2362617463684d696e743a20494e56414c60448201526f09288be82a4a482b2a6be988a9c8ea8960831b606482015260840161040a565b60005b8351811015610b6b576000848281518110610a7357610a736120a4565b602090810291909101810151600081815260fc9092526040909120549091506001600160a01b03163314610b015760405162461bcd60e51b815260206004820152602f60248201527f455243313135355472616461626c652362617463684d696e743a204f4e4c595f60448201526e10d491505513d497d0531313d5d151608a1b606482015260840161040a565b6000848381518110610b1557610b156120a4565b60200260200101519050610b458160fd60008581526020019081526020016000205461110690919063ffffffff16565b600092835260fd6020526040909220919091555080610b63816120d0565b915050610a56565b506109e38484848461137a565b6097546001600160a01b03163314610ba25760405162461bcd60e51b815260040161040a906120eb565b6001600160a01b038116610c0d5760405162461bcd60e51b815260206004820152602c60248201527f476f7665726e61626c653a206e657720676f7665726e6f72206973207468652060448201526b7a65726f206164647265737360a01b606482015260840161040a565b61088a8161112c565b6001600160a01b038216610c805760405162461bcd60e51b815260206004820152602b60248201527f455243313135355472616461626c652373657443726561746f723a20494e564160448201526a4c49445f4144445245535360a81b606482015260840161040a565b60005b8151811015610d6d576000828281518110610ca057610ca06120a4565b60200260200101519050610cb13390565b600082815260fc60205260409020546001600160a01b03908116911614610d335760405162461bcd60e51b815260206004820152603060248201527f455243313135355472616461626c652373657443726561746f723a204f4e4c5960448201526f17d0d491505513d497d0531313d5d15160821b606482015260840161040a565b600081815260fc6020526040902080546001600160a01b0319166001600160a01b0386161790555080610d65816120d0565b915050610c83565b505050565b606060ff8054610d8190612069565b80601f0160208091040260200160405190810160405280929190818152602001828054610dad90612069565b8015610dfa5780601f10610dcf57610100808354040283529160200191610dfa565b820191906000526020600020905b815481529060010190602001808311610ddd57829003601f168201915b5050505050905090565b6001600160a01b038516331480610e205750610e208533610361565b610e7e5760405162461bcd60e51b815260206004820152602960248201527f455243313135353a2063616c6c6572206973206e6f74206f776e6572206e6f7260448201526808185c1c1c9bdd995960ba1b606482015260840161040a565b61066785858585856114c6565b8151835114610eac5760405162461bcd60e51b815260040161040a90612131565b6001600160a01b038416610ed25760405162461bcd60e51b815260040161040a90612179565b3360005b8451811015610fbc576000858281518110610ef357610ef36120a4565b602002602001015190506000858381518110610f1157610f116120a4565b60209081029190910181015160008481526065835260408082206001600160a01b038e168352909352919091205490915081811015610f625760405162461bcd60e51b815260040161040a906121be565b60008381526065602090815260408083206001600160a01b038e8116855292528083208585039055908b16825281208054849290610fa1908490612208565b9250508190555050505080610fb5906120d0565b9050610ed6565b50846001600160a01b0316866001600160a01b0316826001600160a01b03167f4a39dc06d4c0dbc64b70af90fd698a233a518aa5d07e595d983b8c0526c8f7fb878760405161100c929190612220565b60405180910390a46110228187878787876115f4565b505050505050565b6001600160a01b0384166110505760405162461bcd60e51b815260040161040a9061224e565b33600061105c8561175f565b905060006110698561175f565b905060008681526065602090815260408083206001600160a01b038b1684529091528120805487929061109d908490612208565b909155505060408051878152602081018790526001600160a01b03808a1692600092918716917fc3d58168c5ae7397731d063d5bbf3d657854427343f4c083240f7aacaa2d0f62910160405180910390a46110fd836000898989896117aa565b50505050505050565b60006111128284612208565b9392505050565b80516109009060679060208401906118f9565b609780546001600160a01b038381166001600160a01b0319831681179093556040519116919082907fc7c0c772add429241571afb3805861fb3cfa2af374534088b76cdb4325a87e9a90600090a35050565b816001600160a01b0316836001600160a01b031614156111f25760405162461bcd60e51b815260206004820152602960248201527f455243313135353a2073657474696e6720617070726f76616c20737461747573604482015268103337b91039b2b63360b91b606482015260840161040a565b6001600160a01b03838116600081815260666020908152604080832094871680845294825291829020805460ff191686151590811790915591519182527f17307eab39ab6107e8899845ad3d59bd9653f200f220920489ca2b5937696c31910160405180910390a3505050565b60008054610100900460ff16156112a6578160ff1660011480156112825750303b155b61129e5760405162461bcd60e51b815260040161040a9061228f565b506000919050565b60005460ff8084169116106112cd5760405162461bcd60e51b815260040161040a9061228f565b506000805460ff191660ff92909216919091179055600190565b919050565b600054610100900460ff166113135760405162461bcd60e51b815260040161040a906122dd565b61088a81611874565b600054610100900460ff166113435760405162461bcd60e51b815260040161040a906122dd565b6108c161189b565b600054610100900460ff166113725760405162461bcd60e51b815260040161040a906122dd565b6108c16118cb565b6001600160a01b0384166113a05760405162461bcd60e51b815260040161040a9061224e565b81518351146113c15760405162461bcd60e51b815260040161040a90612131565b3360005b845181101561145e578381815181106113e0576113e06120a4565b6020026020010151606560008784815181106113fe576113fe6120a4565b602002602001015181526020019081526020016000206000886001600160a01b03166001600160a01b0316815260200190815260200160002060008282546114469190612208565b90915550819050611456816120d0565b9150506113c5565b50846001600160a01b031660006001600160a01b0316826001600160a01b03167f4a39dc06d4c0dbc64b70af90fd698a233a518aa5d07e595d983b8c0526c8f7fb87876040516114af929190612220565b60405180910390a4610667816000878787876115f4565b6001600160a01b0384166114ec5760405162461bcd60e51b815260040161040a90612179565b3360006114f88561175f565b905060006115058561175f565b905060008681526065602090815260408083206001600160a01b038c1684529091529020548581101561154a5760405162461bcd60e51b815260040161040a906121be565b60008781526065602090815260408083206001600160a01b038d8116855292528083208985039055908a16825281208054889290611589908490612208565b909155505060408051888152602081018890526001600160a01b03808b16928c821692918816917fc3d58168c5ae7397731d063d5bbf3d657854427343f4c083240f7aacaa2d0f62910160405180910390a46115e9848a8a8a8a8a6117aa565b505050505050505050565b6001600160a01b0384163b156110225760405163bc197c8160e01b81526001600160a01b0385169063bc197c81906116389089908990889088908890600401612328565b602060405180830381600087803b15801561165257600080fd5b505af1925050508015611682575060408051601f3d908101601f1916820190925261167f91810190612386565b60015b61172f5761168e6123a3565b806308c379a014156116c857506116a36123bf565b806116ae57506116ca565b8060405162461bcd60e51b815260040161040a9190611a53565b505b60405162461bcd60e51b815260206004820152603460248201527f455243313135353a207472616e7366657220746f206e6f6e20455243313135356044820152732932b1b2b4bb32b91034b6b83632b6b2b73a32b960611b606482015260840161040a565b6001600160e01b0319811663bc197c8160e01b146110fd5760405162461bcd60e51b815260040161040a90612448565b60408051600180825281830190925260609160009190602080830190803683370190505090508281600081518110611799576117996120a4565b602090810291909101015292915050565b6001600160a01b0384163b156110225760405163f23a6e6160e01b81526001600160a01b0385169063f23a6e61906117ee9089908990889088908890600401612490565b602060405180830381600087803b15801561180857600080fd5b505af1925050508015611838575060408051601f3d908101601f1916820190925261183591810190612386565b60015b6118445761168e6123a3565b6001600160e01b0319811663f23a6e6160e01b146110fd5760405162461bcd60e51b815260040161040a90612448565b600054610100900460ff166108815760405162461bcd60e51b815260040161040a906122dd565b600054610100900460ff166118c25760405162461bcd60e51b815260040161040a906122dd565b6108c13361112c565b600054610100900460ff166118f25760405162461bcd60e51b815260040161040a906122dd565b600160c955565b82805461190590612069565b90600052602060002090601f016020900481019282611927576000855561196d565b82601f1061194057805160ff191683800117855561196d565b8280016001018555821561196d579182015b8281111561196d578251825591602001919060010190611952565b5061197992915061197d565b5090565b5b80821115611979576000815560010161197e565b80356001600160a01b03811681146112e757600080fd5b600080604083850312156119bc57600080fd5b6119c583611992565b946020939093013593505050565b6001600160e01b03198116811461088a57600080fd5b6000602082840312156119fb57600080fd5b8135611112816119d3565b6000815180845260005b81811015611a2c57602081850181015186830182015201611a10565b81811115611a3e576000602083870101525b50601f01601f19169290920160200192915050565b6020815260006111126020830184611a06565b600060208284031215611a7857600080fd5b5035919050565b634e487b7160e01b600052604160045260246000fd5b601f8201601f191681016001600160401b0381118282101715611aba57611aba611a7f565b6040525050565b60006001600160401b03821115611ada57611ada611a7f565b5060051b60200190565b600082601f830112611af557600080fd5b81356020611b0282611ac1565b604051611b0f8282611a95565b83815260059390931b8501820192828101915086841115611b2f57600080fd5b8286015b84811015611b4a5780358352918301918301611b33565b509695505050505050565b600082601f830112611b6657600080fd5b81356001600160401b03811115611b7f57611b7f611a7f565b604051611b96601f8301601f191660200182611a95565b818152846020838601011115611bab57600080fd5b816020850160208301376000918101602001919091529392505050565b600080600080600060a08688031215611be057600080fd5b611be986611992565b9450611bf760208701611992565b935060408601356001600160401b0380821115611c1357600080fd5b611c1f89838a01611ae4565b94506060880135915080821115611c3557600080fd5b611c4189838a01611ae4565b93506080880135915080821115611c5757600080fd5b50611c6488828901611b55565b9150509295509295909350565b60008060408385031215611c8457600080fd5b82356001600160401b0380821115611c9b57600080fd5b818501915085601f830112611caf57600080fd5b81356020611cbc82611ac1565b604051611cc98282611a95565b83815260059390931b8501820192828101915089841115611ce957600080fd5b948201945b83861015611d0e57611cff86611992565b82529482019490820190611cee565b96505086013592505080821115611d2457600080fd5b50611d3185828601611ae4565b9150509250929050565b600081518084526020808501945080840160005b83811015611d6b57815187529582019590820190600101611d4f565b509495945050505050565b6020815260006111126020830184611d3b565b60008060008060808587031215611d9f57600080fd5b611da885611992565b9350602085013592506040850135915060608501356001600160401b03811115611dd157600080fd5b611ddd87828801611b55565b91505092959194509250565b600060208284031215611dfb57600080fd5b81356001600160401b03811115611e1157600080fd5b611e1d84828501611b55565b949350505050565b60008060408385031215611e3857600080fd5b611e4183611992565b915060208301358015158114611e5657600080fd5b809150509250929050565b600080600060608486031215611e7657600080fd5b83356001600160401b0380821115611e8d57600080fd5b611e9987838801611b55565b94506020860135915080821115611eaf57600080fd5b611ebb87838801611b55565b93506040860135915080821115611ed157600080fd5b50611ede86828701611b55565b9150509250925092565b60008060008060808587031215611efe57600080fd5b611f0785611992565b935060208501356001600160401b0380821115611f2357600080fd5b611f2f88838901611ae4565b94506040870135915080821115611f4557600080fd5b611f5188838901611ae4565b93506060870135915080821115611f6757600080fd5b50611ddd87828801611b55565b600060208284031215611f8657600080fd5b61111282611992565b60008060408385031215611fa257600080fd5b611fab83611992565b915060208301356001600160401b03811115611fc657600080fd5b611d3185828601611ae4565b60008060408385031215611fe557600080fd5b611fee83611992565b9150611ffc60208401611992565b90509250929050565b600080600080600060a0868803121561201d57600080fd5b61202686611992565b945061203460208701611992565b9350604086013592506060860135915060808601356001600160401b0381111561205d57600080fd5b611c6488828901611b55565b600181811c9082168061207d57607f821691505b6020821081141561209e57634e487b7160e01b600052602260045260246000fd5b50919050565b634e487b7160e01b600052603260045260246000fd5b634e487b7160e01b600052601160045260246000fd5b60006000198214156120e4576120e46120ba565b5060010190565b60208082526026908201527f476f7665726e61626c653a2063616c6c6572206973206e6f742074686520676f6040820152653b32b93737b960d11b606082015260800190565b60208082526028908201527f455243313135353a2069647320616e6420616d6f756e7473206c656e677468206040820152670dad2e6dac2e8c6d60c31b606082015260800190565b60208082526025908201527f455243313135353a207472616e7366657220746f20746865207a65726f206164604082015264647265737360d81b606082015260800190565b6020808252602a908201527f455243313135353a20696e73756666696369656e742062616c616e636520666f60408201526939103a3930b739b332b960b11b606082015260800190565b6000821982111561221b5761221b6120ba565b500190565b6040815260006122336040830185611d3b565b82810360208401526122458185611d3b565b95945050505050565b60208082526021908201527f455243313135353a206d696e7420746f20746865207a65726f206164647265736040820152607360f81b606082015260800190565b6020808252602e908201527f496e697469616c697a61626c653a20636f6e747261637420697320616c72656160408201526d191e481a5b9a5d1a585b1a5e995960921b606082015260800190565b6020808252602b908201527f496e697469616c697a61626c653a20636f6e7472616374206973206e6f74206960408201526a6e697469616c697a696e6760a81b606082015260800190565b6001600160a01b0386811682528516602082015260a06040820181905260009061235490830186611d3b565b82810360608401526123668186611d3b565b9050828103608084015261237a8185611a06565b98975050505050505050565b60006020828403121561239857600080fd5b8151611112816119d3565b600060033d11156123bc5760046000803e5060005160e01c5b90565b600060443d10156123cd5790565b6040516003193d81016004833e81513d6001600160401b0381602484011181841117156123fc57505050505090565b82850191508151818111156124145750505050505090565b843d870101602082850101111561242e5750505050505090565b61243d60208286010187611a95565b509095945050505050565b60208082526028908201527f455243313135353a204552433131353552656365697665722072656a656374656040820152676420746f6b656e7360c01b606082015260800190565b6001600160a01b03868116825285166020820152604081018490526060810183905260a0608082018190526000906124ca90830184611a06565b97965050505050505056fea264697066735822122067d537bd4956fbfbccca5bd4a79b08a5fa345e546400bc5a48e8a65ea059bf1b64736f6c63430008090033",
  "linkReferences": {},
  "deployedLinkReferences": {}
}