{
  "_format": "hh-sol-artifact-1",
  "contractName": "ERC1155Tradable",
  "sourceName": "contracts/REITNFT.sol",
  "abi": [
    {
      "anonymous": false,
      "inputs": [
        {
          "indexed": true,
          "internalType": "address",
          "name": "account",
          "type": "address"
        },
        {
          "indexed": true,
          "internalType": "address",
          "name": "operator",
          "type": "address"
        },
        {
          "indexed": false,
          "internalType": "bool",
          "name": "approved",
          "type": "bool"
        }
      ],
      "name": "ApprovalForAll",
      "type": "event"
    },
    {
      "anonymous": false,
      "inputs": [
        {
          "indexed": false,
          "internalType": "uint8",
          "name": "version",
          "type": "uint8"
        }
      ],
      "name": "Initialized",
      "type": "event"
    },
    {
      "anonymous": false,
      "inputs": [
        {
          "indexed": true,
          "internalType": "address",
          "name": "previousOwner",
          "type": "address"
        },
        {
          "indexed": true,
          "internalType": "address",
          "name": "newOwner",
          "type": "address"
        }
      ],
      "name": "OwnershipTransferred",
      "type": "event"
    },
    {
      "anonymous": false,
      "inputs": [
        {
          "indexed": true,
          "internalType": "address",
          "name": "operator",
          "type": "address"
        },
        {
          "indexed": true,
          "internalType": "address",
          "name": "from",
          "type": "address"
        },
        {
          "indexed": true,
          "internalType": "address",
          "name": "to",
          "type": "address"
        },
        {
          "indexed": false,
          "internalType": "uint256[]",
          "name": "ids",
          "type": "uint256[]"
        },
        {
          "indexed": false,
          "internalType": "uint256[]",
          "name": "values",
          "type": "uint256[]"
        }
      ],
      "name": "TransferBatch",
      "type": "event"
    },
    {
      "anonymous": false,
      "inputs": [
        {
          "indexed": true,
          "internalType": "address",
          "name": "operator",
          "type": "address"
        },
        {
          "indexed": true,
          "internalType": "address",
          "name": "from",
          "type": "address"
        },
        {
          "indexed": true,
          "internalType": "address",
          "name": "to",
          "type": "address"
        },
        {
          "indexed": false,
          "internalType": "uint256",
          "name": "id",
          "type": "uint256"
        },
        {
          "indexed": false,
          "internalType": "uint256",
          "name": "value",
          "type": "uint256"
        }
      ],
      "name": "TransferSingle",
      "type": "event"
    },
    {
      "anonymous": false,
      "inputs": [
        {
          "indexed": false,
          "internalType": "string",
          "name": "value",
          "type": "string"
        },
        {
          "indexed": true,
          "internalType": "uint256",
          "name": "id",
          "type": "uint256"
        }
      ],
      "name": "URI",
      "type": "event"
    },
    {
      "inputs": [
        {
          "internalType": "address",
          "name": "account",
          "type": "address"
        },
        {
          "internalType": "uint256",
          "name": "id",
          "type": "uint256"
        }
      ],
      "name": "balanceOf",
      "outputs": [
        {
          "internalType": "uint256",
          "name": "",
          "type": "uint256"
        }
      ],
      "stateMutability": "view",
      "type": "function"
    },
    {
      "inputs": [
        {
          "internalType": "address[]",
          "name": "accounts",
          "type": "address[]"
        },
        {
          "internalType": "uint256[]",
          "name": "ids",
          "type": "uint256[]"
        }
      ],
      "name": "balanceOfBatch",
      "outputs": [
        {
          "internalType": "uint256[]",
          "name": "",
          "type": "uint256[]"
        }
      ],
      "stateMutability": "view",
      "type": "function"
    },
    {
      "inputs": [
        {
          "internalType": "address",
          "name": "_to",
          "type": "address"
        },
        {
          "internalType": "uint256[]",
          "name": "_ids",
          "type": "uint256[]"
        },
        {
          "internalType": "uint256[]",
          "name": "_quantities",
          "type": "uint256[]"
        },
        {
          "internalType": "bytes",
          "name": "_data",
          "type": "bytes"
        }
      ],
      "name": "batchMint",
      "outputs": [],
      "stateMutability": "nonpayable",
      "type": "function"
    },
    {
      "inputs": [],
      "name": "contractURI",
      "outputs": [
        {
          "internalType": "string",
          "name": "",
          "type": "string"
        }
      ],
      "stateMutability": "view",
      "type": "function"
    },
    {
      "inputs": [
        {
          "internalType": "uint256",
          "name": "",
          "type": "uint256"
        }
      ],
      "name": "creators",
      "outputs": [
        {
          "internalType": "address",
          "name": "",
          "type": "address"
        }
      ],
      "stateMutability": "view",
      "type": "function"
    },
    {
      "inputs": [
        {
          "internalType": "string",
          "name": "_name",
          "type": "string"
        },
        {
          "internalType": "string",
          "name": "_symbol",
          "type": "string"
        },
        {
          "internalType": "string",
          "name": "_uri",
          "type": "string"
        },
        {
          "internalType": "address",
          "name": "_proxyRegistryAddress",
          "type": "address"
        }
      ],
      "name": "initialize",
      "outputs": [],
      "stateMutability": "nonpayable",
      "type": "function"
    },
    {
      "inputs": [
        {
          "internalType": "address",
          "name": "account",
          "type": "address"
        },
        {
          "internalType": "address",
          "name": "operator",
          "type": "address"
        }
      ],
      "name": "isApprovedForAll",
      "outputs": [
        {
          "internalType": "bool",
          "name": "isOperator",
          "type": "bool"
        }
      ],
      "stateMutability": "view",
      "type": "function"
    },
    {
      "inputs": [
        {
          "internalType": "address",
          "name": "_to",
          "type": "address"
        },
        {
          "internalType": "uint256",
          "name": "_id",
          "type": "uint256"
        },
        {
          "internalType": "uint256",
          "name": "_quantity",
          "type": "uint256"
        },
        {
          "internalType": "bytes",
          "name": "_data",
          "type": "bytes"
        }
      ],
      "name": "mint",
      "outputs": [],
      "stateMutability": "nonpayable",
      "type": "function"
    },
    {
      "inputs": [],
      "name": "name",
      "outputs": [
        {
          "internalType": "string",
          "name": "",
          "type": "string"
        }
      ],
      "stateMutability": "view",
      "type": "function"
    },
    {
      "inputs": [],
      "name": "owner",
      "outputs": [
        {
          "internalType": "address",
          "name": "",
          "type": "address"
        }
      ],
      "stateMutability": "view",
      "type": "function"
    },
    {
      "inputs": [],
      "name": "renounceOwnership",
      "outputs": [],
      "stateMutability": "nonpayable",
      "type": "function"
    },
    {
      "inputs": [
        {
          "internalType": "address",
          "name": "from",
          "type": "address"
        },
        {
          "internalType": "address",
          "name": "to",
          "type": "address"
        },
        {
          "internalType": "uint256[]",
          "name": "ids",
          "type": "uint256[]"
        },
        {
          "internalType": "uint256[]",
          "name": "amounts",
          "type": "uint256[]"
        },
        {
          "internalType": "bytes",
          "name": "data",
          "type": "bytes"
        }
      ],
      "name": "safeBatchTransferFrom",
      "outputs": [],
      "stateMutability": "nonpayable",
      "type": "function"
    },
    {
      "inputs": [
        {
          "internalType": "address",
          "name": "from",
          "type": "address"
        },
        {
          "internalType": "address",
          "name": "to",
          "type": "address"
        },
        {
          "internalType": "uint256",
          "name": "id",
          "type": "uint256"
        },
        {
          "internalType": "uint256",
          "name": "amount",
          "type": "uint256"
        },
        {
          "internalType": "bytes",
          "name": "data",
          "type": "bytes"
        }
      ],
      "name": "safeTransferFrom",
      "outputs": [],
      "stateMutability": "nonpayable",
      "type": "function"
    },
    {
      "inputs": [
        {
          "internalType": "address",
          "name": "operator",
          "type": "address"
        },
        {
          "internalType": "bool",
          "name": "approved",
          "type": "bool"
        }
      ],
      "name": "setApprovalForAll",
      "outputs": [],
      "stateMutability": "nonpayable",
      "type": "function"
    },
    {
      "inputs": [
        {
          "internalType": "string",
          "name": "_newBaseMetadataURI",
          "type": "string"
        }
      ],
      "name": "setBaseMetadataURI",
      "outputs": [],
      "stateMutability": "nonpayable",
      "type": "function"
    },
    {
      "inputs": [
        {
          "internalType": "string",
          "name": "_uri",
          "type": "string"
        }
      ],
      "name": "setContractURI",
      "outputs": [],
      "stateMutability": "nonpayable",
      "type": "function"
    },
    {
      "inputs": [
        {
          "internalType": "address",
          "name": "_to",
          "type": "address"
        },
        {
          "internalType": "uint256[]",
          "name": "_ids",
          "type": "uint256[]"
        }
      ],
      "name": "setCreator",
      "outputs": [],
      "stateMutability": "nonpayable",
      "type": "function"
    },
    {
      "inputs": [
        {
          "internalType": "bytes4",
          "name": "interfaceId",
          "type": "bytes4"
        }
      ],
      "name": "supportsInterface",
      "outputs": [
        {
          "internalType": "bool",
          "name": "",
          "type": "bool"
        }
      ],
      "stateMutability": "view",
      "type": "function"
    },
    {
      "inputs": [],
      "name": "symbol",
      "outputs": [
        {
          "internalType": "string",
          "name": "",
          "type": "string"
        }
      ],
      "stateMutability": "view",
      "type": "function"
    },
    {
      "inputs": [
        {
          "internalType": "uint256",
          "name": "",
          "type": "uint256"
        }
      ],
      "name": "tokenSupply",
      "outputs": [
        {
          "internalType": "uint256",
          "name": "",
          "type": "uint256"
        }
      ],
      "stateMutability": "view",
      "type": "function"
    },
    {
      "inputs": [
        {
          "internalType": "uint256",
          "name": "",
          "type": "uint256"
        }
      ],
      "name": "tokenUri",
      "outputs": [
        {
          "internalType": "string",
          "name": "",
          "type": "string"
        }
      ],
      "stateMutability": "view",
      "type": "function"
    },
    {
      "inputs": [
        {
          "internalType": "uint256",
          "name": "_id",
          "type": "uint256"
        }
      ],
      "name": "totalSupply",
      "outputs": [
        {
          "internalType": "uint256",
          "name": "",
          "type": "uint256"
        }
      ],
      "stateMutability": "view",
      "type": "function"
    },
    {
      "inputs": [
        {
          "internalType": "address",
          "name": "newOwner",
          "type": "address"
        }
      ],
      "name": "transferOwnership",
      "outputs": [],
      "stateMutability": "nonpayable",
      "type": "function"
    },
    {
      "inputs": [
        {
          "internalType": "uint256",
          "name": "_id",
          "type": "uint256"
        }
      ],
      "name": "uri",
      "outputs": [
        {
          "internalType": "string",
          "name": "",
          "type": "string"
        }
      ],
      "stateMutability": "view",
      "type": "function"
    }
  ],
  "bytecode": "0x608060405234801561001057600080fd5b506124f1806100206000396000f3fe608060405234801561001057600080fd5b50600436106101575760003560e01c80638da5cb5b116100c3578063cd53d08e1161007c578063cd53d08e146102fc578063d2a6b51a14610325578063e8a3d48514610338578063e985e9c514610340578063f242432a14610353578063f2fde38b1461036657600080fd5b80638da5cb5b14610276578063938e3d7b1461029b57806395d89b41146102ae578063a22cb465146102b6578063b48ab8b6146102c9578063bd85b039146102dc57600080fd5b80632eb2c2d6116101155780632eb2c2d6146102005780634e1273f4146102155780635c6d8da114610235578063715018a614610248578063731133e9146102505780637e518ec81461026357600080fd5b8062fdd58e1461015c57806301ffc9a71461018257806306fdde03146101a55780630e89341c146101ba5780631675f455146101cd5780632693ebf2146101e0575b600080fd5b61016f61016a366004611916565b610379565b6040519081526020015b60405180910390f35b610195610190366004611958565b610415565b6040519015158152602001610179565b6101ad610465565b60405161017991906119c2565b6101ad6101c83660046119d5565b6104f3565b6101ad6101db3660046119d5565b610595565b61016f6101ee3660046119d5565b609a6020526000908152604090205481565b61021361020e366004611b37565b6105ae565b005b610228610223366004611be4565b610645565b6040516101799190611ceb565b610213610243366004611cfe565b61076e565b61021361084c565b61021361025e366004611d98565b610882565b610213610271366004611dfa565b6108f8565b609d546001600160a01b03165b6040516001600160a01b039091168152602001610179565b6102136102a9366004611dfa565b61092e565b6101ad61096f565b6102136102c4366004611e2e565b61097c565b6102136102d7366004611e6c565b610987565b61016f6102ea3660046119d5565b6000908152609a602052604090205490565b61028361030a3660046119d5565b6099602052600090815260409020546001600160a01b031681565b610213610333366004611efa565b610b1c565b6101ad610bd3565b61019561034e366004611f3f565b610c65565b610213610361366004611f6d565b610d35565b610213610374366004611fd5565b610dbc565b60006001600160a01b0383166103ea5760405162461bcd60e51b815260206004820152602b60248201527f455243313135353a2062616c616e636520717565727920666f7220746865207a60448201526a65726f206164647265737360a81b60648201526084015b60405180910390fd5b5060008181526065602090815260408083206001600160a01b03861684529091529020545b92915050565b60006001600160e01b03198216636cdb3d1360e11b148061044657506001600160e01b031982166303a24d0760e21b145b8061040f57506301ffc9a760e01b6001600160e01b031983161461040f565b609e805461047290611ff2565b80601f016020809104026020016040519081016040528092919081815260200182805461049e90611ff2565b80156104eb5780601f106104c0576101008083540402835291602001916104eb565b820191906000526020600020905b8154815290600101906020018083116104ce57829003601f168201915b505050505081565b6000818152609b6020526040902080546060919061051090611ff2565b80601f016020809104026020016040519081016040528092919081815260200182805461053c90611ff2565b80156105895780601f1061055e57610100808354040283529160200191610589565b820191906000526020600020905b81548152906001019060200180831161056c57829003601f168201915b50505050509050919050565b609b602052600090815260409020805461047290611ff2565b6001600160a01b0385163314806105ca57506105ca8533610c65565b6106315760405162461bcd60e51b815260206004820152603260248201527f455243313135353a207472616e736665722063616c6c6572206973206e6f74206044820152711bdddb995c881b9bdc88185c1c1c9bdd995960721b60648201526084016103e1565b61063e8585858585610e54565b5050505050565b606081518351146106aa5760405162461bcd60e51b815260206004820152602960248201527f455243313135353a206163636f756e747320616e6420696473206c656e677468604482015268040dad2e6dac2e8c6d60bb1b60648201526084016103e1565b600083516001600160401b038111156106c5576106c56119ee565b6040519080825280602002602001820160405280156106ee578160200160208202803683370190505b50905060005b8451811015610766576107398582815181106107125761071261202d565b602002602001015185838151811061072c5761072c61202d565b6020026020010151610379565b82828151811061074b5761074b61202d565b602090810291909101015261075f81612059565b90506106f4565b509392505050565b600061077a6001610ff3565b90508015610792576000805461ff0019166101001790555b61079b8361107b565b84516107ae90609e906020880190611868565b5083516107c290609f906020870190611868565b50609780546001600160a01b0319166001600160a01b038416179055600060985582516107f690609c906020860190611868565b50610800336110ab565b801561063e576000805461ff0019169055604051600181527f7f26b83ff96e1f2b6a682f133852f6798a09c465da95921460cefb38474024989060200160405180910390a15050505050565b609d546001600160a01b031633146108765760405162461bcd60e51b81526004016103e190612074565b61088060006110ab565b565b60008381526099602052604090205483906001600160a01b031633146108ba5760405162461bcd60e51b81526004016103e1906120a9565b6108c6858585856110fd565b6000848152609a60205260409020546108df90846111d9565b6000948552609a60205260409094209390935550505050565b609d546001600160a01b031633146109225760405162461bcd60e51b81526004016103e190612074565b61092b816111ec565b50565b609d546001600160a01b031633146109585760405162461bcd60e51b81526004016103e190612074565b805161096b90609c906020840190611868565b5050565b609f805461047290611ff2565b61096b3383836111ff565b81518351146109f15760405162461bcd60e51b815260206004820152603060248201527f455243313135354d696e744275726e2362617463684d696e743a20494e56414c60448201526f09288be82a4a482b2a6be988a9c8ea8960831b60648201526084016103e1565b60005b8351811015610b09576000848281518110610a1157610a1161202d565b602090810291909101810151600081815260999092526040909120549091506001600160a01b03163314610a9f5760405162461bcd60e51b815260206004820152602f60248201527f455243313135355472616461626c652362617463684d696e743a204f4e4c595f60448201526e10d491505513d497d0531313d5d151608a1b60648201526084016103e1565b6000848381518110610ab357610ab361202d565b60200260200101519050610ae381609a6000858152602001908152602001600020546111d990919063ffffffff16565b6000928352609a6020526040909220919091555080610b0181612059565b9150506109f4565b50610b16848484846112e0565b50505050565b6001600160a01b038216610b875760405162461bcd60e51b815260206004820152602c60248201527f455243313135355472616461626c652373657443726561746f723a20494e564160448201526b2624a22fa0a2222922a9a99760a11b60648201526084016103e1565b60005b8151811015610bce576000828281518110610ba757610ba761202d565b60200260200101519050610bbb848261142c565b5080610bc681612059565b915050610b8a565b505050565b6060609c8054610be290611ff2565b80601f0160208091040260200160405190810160405280929190818152602001828054610c0e90611ff2565b8015610c5b5780601f10610c3057610100808354040283529160200191610c5b565b820191906000526020600020905b815481529060010190602001808311610c3e57829003601f168201915b5050505050905090565b60975460405163c455279160e01b81526001600160a01b03848116600483015260009281169190841690829063c45527919060240160206040518083038186803b158015610cb257600080fd5b505afa158015610cc6573d6000803e3d6000fd5b505050506040513d601f19601f82011682018060405250810190610cea91906120fa565b6001600160a01b03161415610d0357600191505061040f565b6001600160a01b0380851660009081526066602090815260408083209387168352929052205460ff165b949350505050565b6001600160a01b038516331480610d515750610d518533610c65565b610daf5760405162461bcd60e51b815260206004820152602960248201527f455243313135353a2063616c6c6572206973206e6f74206f776e6572206e6f7260448201526808185c1c1c9bdd995960ba1b60648201526084016103e1565b61063e8585858585611493565b609d546001600160a01b03163314610de65760405162461bcd60e51b81526004016103e190612074565b6001600160a01b038116610e4b5760405162461bcd60e51b815260206004820152602660248201527f4f776e61626c653a206e6577206f776e657220697320746865207a65726f206160448201526564647265737360d01b60648201526084016103e1565b61092b816110ab565b8151835114610e755760405162461bcd60e51b81526004016103e190612117565b6001600160a01b038416610e9b5760405162461bcd60e51b81526004016103e19061215f565b3360005b8451811015610f85576000858281518110610ebc57610ebc61202d565b602002602001015190506000858381518110610eda57610eda61202d565b60209081029190910181015160008481526065835260408082206001600160a01b038e168352909352919091205490915081811015610f2b5760405162461bcd60e51b81526004016103e1906121a4565b60008381526065602090815260408083206001600160a01b038e8116855292528083208585039055908b16825281208054849290610f6a9084906121ee565b9250508190555050505080610f7e90612059565b9050610e9f565b50846001600160a01b0316866001600160a01b0316826001600160a01b03167f4a39dc06d4c0dbc64b70af90fd698a233a518aa5d07e595d983b8c0526c8f7fb8787604051610fd5929190612206565b60405180910390a4610feb8187878787876115c1565b505050505050565b60008054610100900460ff161561103a578160ff1660011480156110165750303b155b6110325760405162461bcd60e51b81526004016103e190612234565b506000919050565b60005460ff8084169116106110615760405162461bcd60e51b81526004016103e190612234565b506000805460ff191660ff92909216919091179055600190565b600054610100900460ff166110a25760405162461bcd60e51b81526004016103e190612282565b61092b8161172c565b609d80546001600160a01b038381166001600160a01b0319831681179093556040519116919082907f8be0079c531659141344cd1fd0a4f28419497f9722a3daafe3b4186f6b6457e090600090a35050565b6001600160a01b0384166111235760405162461bcd60e51b81526004016103e1906122cd565b33600061112f85611753565b9050600061113c85611753565b905060008681526065602090815260408083206001600160a01b038b168452909152812080548792906111709084906121ee565b909155505060408051878152602081018790526001600160a01b03808a1692600092918716917fc3d58168c5ae7397731d063d5bbf3d657854427343f4c083240f7aacaa2d0f62910160405180910390a46111d08360008989898961179e565b50505050505050565b60006111e582846121ee565b9392505050565b805161096b906067906020840190611868565b816001600160a01b0316836001600160a01b031614156112735760405162461bcd60e51b815260206004820152602960248201527f455243313135353a2073657474696e6720617070726f76616c20737461747573604482015268103337b91039b2b63360b91b60648201526084016103e1565b6001600160a01b03838116600081815260666020908152604080832094871680845294825291829020805460ff191686151590811790915591519182527f17307eab39ab6107e8899845ad3d59bd9653f200f220920489ca2b5937696c31910160405180910390a3505050565b6001600160a01b0384166113065760405162461bcd60e51b81526004016103e1906122cd565b81518351146113275760405162461bcd60e51b81526004016103e190612117565b3360005b84518110156113c4578381815181106113465761134661202d565b6020026020010151606560008784815181106113645761136461202d565b602002602001015181526020019081526020016000206000886001600160a01b03166001600160a01b0316815260200190815260200160002060008282546113ac91906121ee565b909155508190506113bc81612059565b91505061132b565b50846001600160a01b031660006001600160a01b0316826001600160a01b03167f4a39dc06d4c0dbc64b70af90fd698a233a518aa5d07e595d983b8c0526c8f7fb8787604051611415929190612206565b60405180910390a461063e816000878787876115c1565b60008181526099602052604090205481906001600160a01b031633146114645760405162461bcd60e51b81526004016103e1906120a9565b50600090815260996020526040902080546001600160a01b0319166001600160a01b0392909216919091179055565b6001600160a01b0384166114b95760405162461bcd60e51b81526004016103e19061215f565b3360006114c585611753565b905060006114d285611753565b905060008681526065602090815260408083206001600160a01b038c168452909152902054858110156115175760405162461bcd60e51b81526004016103e1906121a4565b60008781526065602090815260408083206001600160a01b038d8116855292528083208985039055908a168252812080548892906115569084906121ee565b909155505060408051888152602081018890526001600160a01b03808b16928c821692918816917fc3d58168c5ae7397731d063d5bbf3d657854427343f4c083240f7aacaa2d0f62910160405180910390a46115b6848a8a8a8a8a61179e565b505050505050505050565b6001600160a01b0384163b15610feb5760405163bc197c8160e01b81526001600160a01b0385169063bc197c8190611605908990899088908890889060040161230e565b602060405180830381600087803b15801561161f57600080fd5b505af192505050801561164f575060408051601f3d908101601f1916820190925261164c9181019061236c565b60015b6116fc5761165b612389565b806308c379a0141561169557506116706123a5565b8061167b5750611697565b8060405162461bcd60e51b81526004016103e191906119c2565b505b60405162461bcd60e51b815260206004820152603460248201527f455243313135353a207472616e7366657220746f206e6f6e20455243313135356044820152732932b1b2b4bb32b91034b6b83632b6b2b73a32b960611b60648201526084016103e1565b6001600160e01b0319811663bc197c8160e01b146111d05760405162461bcd60e51b81526004016103e19061242e565b600054610100900460ff166109225760405162461bcd60e51b81526004016103e190612282565b6040805160018082528183019092526060916000919060208083019080368337019050509050828160008151811061178d5761178d61202d565b602090810291909101015292915050565b6001600160a01b0384163b15610feb5760405163f23a6e6160e01b81526001600160a01b0385169063f23a6e61906117e29089908990889088908890600401612476565b602060405180830381600087803b1580156117fc57600080fd5b505af192505050801561182c575060408051601f3d908101601f191682019092526118299181019061236c565b60015b6118385761165b612389565b6001600160e01b0319811663f23a6e6160e01b146111d05760405162461bcd60e51b81526004016103e19061242e565b82805461187490611ff2565b90600052602060002090601f01602090048101928261189657600085556118dc565b82601f106118af57805160ff19168380011785556118dc565b828001600101855582156118dc579182015b828111156118dc5782518255916020019190600101906118c1565b506118e89291506118ec565b5090565b5b808211156118e857600081556001016118ed565b6001600160a01b038116811461092b57600080fd5b6000806040838503121561192957600080fd5b823561193481611901565b946020939093013593505050565b6001600160e01b03198116811461092b57600080fd5b60006020828403121561196a57600080fd5b81356111e581611942565b6000815180845260005b8181101561199b5760208185018101518683018201520161197f565b818111156119ad576000602083870101525b50601f01601f19169290920160200192915050565b6020815260006111e56020830184611975565b6000602082840312156119e757600080fd5b5035919050565b634e487b7160e01b600052604160045260246000fd5b601f8201601f191681016001600160401b0381118282101715611a2957611a296119ee565b6040525050565b60006001600160401b03821115611a4957611a496119ee565b5060051b60200190565b600082601f830112611a6457600080fd5b81356020611a7182611a30565b604051611a7e8282611a04565b83815260059390931b8501820192828101915086841115611a9e57600080fd5b8286015b84811015611ab95780358352918301918301611aa2565b509695505050505050565b600082601f830112611ad557600080fd5b81356001600160401b03811115611aee57611aee6119ee565b604051611b05601f8301601f191660200182611a04565b818152846020838601011115611b1a57600080fd5b816020850160208301376000918101602001919091529392505050565b600080600080600060a08688031215611b4f57600080fd5b8535611b5a81611901565b94506020860135611b6a81611901565b935060408601356001600160401b0380821115611b8657600080fd5b611b9289838a01611a53565b94506060880135915080821115611ba857600080fd5b611bb489838a01611a53565b93506080880135915080821115611bca57600080fd5b50611bd788828901611ac4565b9150509295509295909350565b60008060408385031215611bf757600080fd5b82356001600160401b0380821115611c0e57600080fd5b818501915085601f830112611c2257600080fd5b81356020611c2f82611a30565b604051611c3c8282611a04565b83815260059390931b8501820192828101915089841115611c5c57600080fd5b948201945b83861015611c83578535611c7481611901565b82529482019490820190611c61565b96505086013592505080821115611c9957600080fd5b50611ca685828601611a53565b9150509250929050565b600081518084526020808501945080840160005b83811015611ce057815187529582019590820190600101611cc4565b509495945050505050565b6020815260006111e56020830184611cb0565b60008060008060808587031215611d1457600080fd5b84356001600160401b0380821115611d2b57600080fd5b611d3788838901611ac4565b95506020870135915080821115611d4d57600080fd5b611d5988838901611ac4565b94506040870135915080821115611d6f57600080fd5b50611d7c87828801611ac4565b9250506060850135611d8d81611901565b939692955090935050565b60008060008060808587031215611dae57600080fd5b8435611db981611901565b9350602085013592506040850135915060608501356001600160401b03811115611de257600080fd5b611dee87828801611ac4565b91505092959194509250565b600060208284031215611e0c57600080fd5b81356001600160401b03811115611e2257600080fd5b610d2d84828501611ac4565b60008060408385031215611e4157600080fd5b8235611e4c81611901565b915060208301358015158114611e6157600080fd5b809150509250929050565b60008060008060808587031215611e8257600080fd5b8435611e8d81611901565b935060208501356001600160401b0380821115611ea957600080fd5b611eb588838901611a53565b94506040870135915080821115611ecb57600080fd5b611ed788838901611a53565b93506060870135915080821115611eed57600080fd5b50611dee87828801611ac4565b60008060408385031215611f0d57600080fd5b8235611f1881611901565b915060208301356001600160401b03811115611f3357600080fd5b611ca685828601611a53565b60008060408385031215611f5257600080fd5b8235611f5d81611901565b91506020830135611e6181611901565b600080600080600060a08688031215611f8557600080fd5b8535611f9081611901565b94506020860135611fa081611901565b9350604086013592506060860135915060808601356001600160401b03811115611fc957600080fd5b611bd788828901611ac4565b600060208284031215611fe757600080fd5b81356111e581611901565b600181811c9082168061200657607f821691505b6020821081141561202757634e487b7160e01b600052602260045260246000fd5b50919050565b634e487b7160e01b600052603260045260246000fd5b634e487b7160e01b600052601160045260246000fd5b600060001982141561206d5761206d612043565b5060010190565b6020808252818101527f4f776e61626c653a2063616c6c6572206973206e6f7420746865206f776e6572604082015260600190565b60208082526031908201527f455243313135355472616461626c652363726561746f724f6e6c793a204f4e4c6040820152701657d0d491505513d497d0531313d5d151607a1b606082015260800190565b60006020828403121561210c57600080fd5b81516111e581611901565b60208082526028908201527f455243313135353a2069647320616e6420616d6f756e7473206c656e677468206040820152670dad2e6dac2e8c6d60c31b606082015260800190565b60208082526025908201527f455243313135353a207472616e7366657220746f20746865207a65726f206164604082015264647265737360d81b606082015260800190565b6020808252602a908201527f455243313135353a20696e73756666696369656e742062616c616e636520666f60408201526939103a3930b739b332b960b11b606082015260800190565b6000821982111561220157612201612043565b500190565b6040815260006122196040830185611cb0565b828103602084015261222b8185611cb0565b95945050505050565b6020808252602e908201527f496e697469616c697a61626c653a20636f6e747261637420697320616c72656160408201526d191e481a5b9a5d1a585b1a5e995960921b606082015260800190565b6020808252602b908201527f496e697469616c697a61626c653a20636f6e7472616374206973206e6f74206960408201526a6e697469616c697a696e6760a81b606082015260800190565b60208082526021908201527f455243313135353a206d696e7420746f20746865207a65726f206164647265736040820152607360f81b606082015260800190565b6001600160a01b0386811682528516602082015260a06040820181905260009061233a90830186611cb0565b828103606084015261234c8186611cb0565b905082810360808401526123608185611975565b98975050505050505050565b60006020828403121561237e57600080fd5b81516111e581611942565b600060033d11156123a25760046000803e5060005160e01c5b90565b600060443d10156123b35790565b6040516003193d81016004833e81513d6001600160401b0381602484011181841117156123e257505050505090565b82850191508151818111156123fa5750505050505090565b843d87010160208285010111156124145750505050505090565b61242360208286010187611a04565b509095945050505050565b60208082526028908201527f455243313135353a204552433131353552656365697665722072656a656374656040820152676420746f6b656e7360c01b606082015260800190565b6001600160a01b03868116825285166020820152604081018490526060810183905260a0608082018190526000906124b090830184611975565b97965050505050505056fea26469706673582212205055d977e13ee248a329c3631677f87c3b3e643f9a5e84ace01ded8eba79134464736f6c63430008090033",
  "linkReferences": {},
  "deployedLinkReferences": {}
}