{
  "_format": "hh-sol-artifact-1",
  "contractName": "KYCAccessUpgradeable",
  "sourceName": "contracts/REITNFT.sol",
  "abi": [
    {
      "anonymous": false,
      "inputs": [
        {
          "indexed": false,
          "internalType": "uint8",
          "name": "version",
          "type": "uint8"
        }
      ],
      "name": "Initialized",
      "type": "event"
    },
    {
      "inputs": [
        {
          "internalType": "address[]",
          "name": "accounts",
          "type": "address[]"
        }
      ],
      "name": "addManyToKYC",
      "outputs": [],
      "stateMutability": "nonpayable",
      "type": "function"
    },
    {
      "inputs": [
        {
          "internalType": "address",
          "name": "account",
          "type": "address"
        }
      ],
      "name": "addToKYC",
      "outputs": [],
      "stateMutability": "nonpayable",
      "type": "function"
    },
    {
      "inputs": [
        {
          "internalType": "address",
          "name": "account",
          "type": "address"
        }
      ],
      "name": "removeKYC",
      "outputs": [],
      "stateMutability": "nonpayable",
      "type": "function"
    },
    {
      "inputs": [
        {
          "internalType": "address[]",
          "name": "accounts",
          "type": "address[]"
        }
      ],
      "name": "removeManyKYC",
      "outputs": [],
      "stateMutability": "nonpayable",
      "type": "function"
    }
  ],
  "bytecode": "0x608060405234801561001057600080fd5b506103da806100206000396000f3fe608060405234801561001057600080fd5b506004361061004c5760003560e01c806322b6ccfe14610051578063243f6b581461006657806378c4acb814610079578063d64e83d71461008c575b600080fd5b61006461005f36600461027e565b61009f565b005b61006461007436600461027e565b6100f6565b6100646100873660046102ae565b610141565b61006461009a3660046102ae565b6101e2565b6034546001600160a01b031633146100d25760405162461bcd60e51b81526004016100c990610323565b60405180910390fd5b6001600160a01b03166000908152603360205260409020805460ff19166001179055565b6034546001600160a01b031633146101205760405162461bcd60e51b81526004016100c990610323565b6001600160a01b03166000908152603360205260409020805460ff19169055565b6034546001600160a01b0316331461016b5760405162461bcd60e51b81526004016100c990610323565b60005b818110156101dd5760016033600085858581811061018e5761018e610365565b90506020020160208101906101a3919061027e565b6001600160a01b031681526020810191909152604001600020805460ff1916911515919091179055806101d58161037b565b91505061016e565b505050565b6034546001600160a01b0316331461020c5760405162461bcd60e51b81526004016100c990610323565b60005b818110156101dd5760006033600085858581811061022f5761022f610365565b9050602002016020810190610244919061027e565b6001600160a01b031681526020810191909152604001600020805460ff1916911515919091179055806102768161037b565b91505061020f565b60006020828403121561029057600080fd5b81356001600160a01b03811681146102a757600080fd5b9392505050565b600080602083850312156102c157600080fd5b823567ffffffffffffffff808211156102d957600080fd5b818501915085601f8301126102ed57600080fd5b8135818111156102fc57600080fd5b8660208260051b850101111561031157600080fd5b60209290920196919550909350505050565b60208082526022908201527f4b59434163636573733a2063616c6c6572206973206e6f74207468652061646d60408201526134b760f11b606082015260800190565b634e487b7160e01b600052603260045260246000fd5b600060001982141561039d57634e487b7160e01b600052601160045260246000fd5b506001019056fea26469706673582212206ea65139c0b1e06bb09add7f9cd1412fa98ae9d2777caf20d65efc1b6e88b26964736f6c63430008090033",
  "linkReferences": {},
  "deployedLinkReferences": {}
}