{
  "_format": "hh-sol-artifact-1",
  "contractName": "KYCAccess",
  "sourceName": "contracts/REITNFT.sol",
  "abi": [
    {
      "anonymous": false,
      "inputs": [
        {
          "indexed": false,
          "internalType": "uint8",
          "name": "version",
          "type": "uint8"
        }
      ],
      "name": "Initialized",
      "type": "event"
    },
    {
      "inputs": [
        {
          "internalType": "address[]",
          "name": "accounts",
          "type": "address[]"
        }
      ],
      "name": "addManyToKYC",
      "outputs": [],
      "stateMutability": "nonpayable",
      "type": "function"
    },
    {
      "inputs": [
        {
          "internalType": "address",
          "name": "account",
          "type": "address"
        }
      ],
      "name": "addToKYC",
      "outputs": [],
      "stateMutability": "nonpayable",
      "type": "function"
    },
    {
      "inputs": [
        {
          "internalType": "address",
          "name": "account",
          "type": "address"
        }
      ],
      "name": "isKYC",
      "outputs": [
        {
          "internalType": "bool",
          "name": "",
          "type": "bool"
        }
      ],
      "stateMutability": "view",
      "type": "function"
    },
    {
      "inputs": [
        {
          "internalType": "address",
          "name": "account",
          "type": "address"
        }
      ],
      "name": "removeKYC",
      "outputs": [],
      "stateMutability": "nonpayable",
      "type": "function"
    },
    {
      "inputs": [
        {
          "internalType": "address[]",
          "name": "accounts",
          "type": "address[]"
        }
      ],
      "name": "removeManyKYC",
      "outputs": [],
      "stateMutability": "nonpayable",
      "type": "function"
    }
  ],
  "bytecode": "0x608060405234801561001057600080fd5b50610440806100206000396000f3fe608060405234801561001057600080fd5b50600436106100575760003560e01c806322b6ccfe1461005c578063243f6b581461007157806378c4acb8146100845780639944f51814610097578063d64e83d7146100be575b600080fd5b61006f61006a3660046102e4565b6100d1565b005b61006f61007f3660046102e4565b610128565b61006f610092366004610314565b610173565b6100aa6100a53660046102e4565b610214565b604051901515815260200160405180910390f35b61006f6100cc366004610314565b610248565b6034546001600160a01b031633146101045760405162461bcd60e51b81526004016100fb90610389565b60405180910390fd5b6001600160a01b03166000908152603360205260409020805460ff19166001179055565b6034546001600160a01b031633146101525760405162461bcd60e51b81526004016100fb90610389565b6001600160a01b03166000908152603360205260409020805460ff19169055565b6034546001600160a01b0316331461019d5760405162461bcd60e51b81526004016100fb90610389565b60005b8181101561020f576001603360008585858181106101c0576101c06103cb565b90506020020160208101906101d591906102e4565b6001600160a01b031681526020810191909152604001600020805460ff191691151591909117905580610207816103e1565b9150506101a0565b505050565b60006001600160a01b03821661022957600080fd5b506001600160a01b031660009081526033602052604090205460ff1690565b6034546001600160a01b031633146102725760405162461bcd60e51b81526004016100fb90610389565b60005b8181101561020f57600060336000858585818110610295576102956103cb565b90506020020160208101906102aa91906102e4565b6001600160a01b031681526020810191909152604001600020805460ff1916911515919091179055806102dc816103e1565b915050610275565b6000602082840312156102f657600080fd5b81356001600160a01b038116811461030d57600080fd5b9392505050565b6000806020838503121561032757600080fd5b823567ffffffffffffffff8082111561033f57600080fd5b818501915085601f83011261035357600080fd5b81358181111561036257600080fd5b8660208260051b850101111561037757600080fd5b60209290920196919550909350505050565b60208082526022908201527f4b59434163636573733a2063616c6c6572206973206e6f74207468652061646d60408201526134b760f11b606082015260800190565b634e487b7160e01b600052603260045260246000fd5b600060001982141561040357634e487b7160e01b600052601160045260246000fd5b506001019056fea2646970667358221220d7e586e09b36f77aea89e47006e68ceda092ae794a5b377dc1935a16db25d9e964736f6c63430008090033",
  "linkReferences": {},
  "deployedLinkReferences": {}
}