{
  "_format": "hh-sol-artifact-1",
  "contractName": "LoyaltyProgram",
  "sourceName": "contracts/REITNFT.sol",
  "abi": [
    {
      "anonymous": false,
      "inputs": [
        {
          "indexed": false,
          "internalType": "uint8",
          "name": "version",
          "type": "uint8"
        }
      ],
      "name": "Initialized",
      "type": "event"
    },
    {
      "inputs": [],
      "name": "getStakeableTokenContract",
      "outputs": [
        {
          "internalType": "address",
          "name": "",
          "type": "address"
        }
      ],
      "stateMutability": "view",
      "type": "function"
    },
    {
      "inputs": [
        {
          "internalType": "uint256",
          "name": "",
          "type": "uint256"
        }
      ],
      "name": "loyaltyConditions",
      "outputs": [
        {
          "internalType": "uint256",
          "name": "",
          "type": "uint256"
        }
      ],
      "stateMutability": "view",
      "type": "function"
    },
    {
      "inputs": [
        {
          "internalType": "uint256[]",
          "name": "conditions",
          "type": "uint256[]"
        }
      ],
      "name": "setLoyaltyConditions",
      "outputs": [],
      "stateMutability": "nonpayable",
      "type": "function"
    },
    {
      "inputs": [
        {
          "internalType": "address",
          "name": "_token",
          "type": "address"
        },
        {
          "internalType": "uint256",
          "name": "period",
          "type": "uint256"
        }
      ],
      "name": "setupLoyaltyProgram",
      "outputs": [],
      "stateMutability": "nonpayable",
      "type": "function"
    },
    {
      "inputs": [
        {
          "internalType": "uint256",
          "name": "amount",
          "type": "uint256"
        }
      ],
      "name": "stake",
      "outputs": [],
      "stateMutability": "nonpayable",
      "type": "function"
    },
    {
      "inputs": [],
      "name": "unstake",
      "outputs": [],
      "stateMutability": "nonpayable",
      "type": "function"
    }
  ],
  "bytecode": "0x608060405234801561001057600080fd5b5061085a806100206000396000f3fe608060405234801561001057600080fd5b50600436106100625760003560e01c8063060b162714610067578063127b94371461007c5780632def66201461009c578063a694fc3a146100a4578063ccaa4a50146100b7578063eff06d6d146100d8575b600080fd5b61007a61007536600461069b565b6100eb565b005b6066546040516001600160a01b0390911681526020015b60405180910390f35b61007a61012f565b61007a6100b2366004610710565b6102f9565b6100ca6100c5366004610710565b610532565b604051908152602001610093565b61007a6100e6366004610729565b610553565b6069546001600160a01b0316331461011e5760405162461bcd60e51b815260040161011590610761565b60405180910390fd5b61012a6065838361063b565b505050565b600260335414156101825760405162461bcd60e51b815260206004820152601f60248201527f5265656e7472616e637947756172643a207265656e7472616e742063616c6c006044820152606401610115565b6002603355336000818152606860205260408120600101546101a59042906105a3565b905060675481116101f05760405162461bcd60e51b815260206004820152601560248201527443616e6e6f74207769746864726177206561726c7960581b6044820152606401610115565b6066546001600160a01b03838116600081815260686020526040908190205490516323b872dd60e01b8152306004820152602481019290925260448201529116906323b872dd90606401602060405180830381600087803b15801561025457600080fd5b505af1158015610268573d6000803e3d6000fd5b505050506040513d601f19601f8201168201806040525081019061028c91906107a8565b6102d35760405162461bcd60e51b815260206004820152601860248201527721b7bab632103737ba103a3930b739b332b9103a37b5b2b760411b6044820152606401610115565b506001600160a01b03166000908152606860205260408120818155600201556001603355565b6002603354141561034c5760405162461bcd60e51b815260206004820152601f60248201527f5265656e7472616e637947756172643a207265656e7472616e742063616c6c006044820152606401610115565b6002603355806103955760405162461bcd60e51b815260206004820152601460248201527343616e6e6f74207374616b65206e6f7468696e6760601b6044820152606401610115565b6000336066546040516323b872dd60e01b81526001600160a01b038084166004830152306024830152604482018690529293509116906323b872dd90606401602060405180830381600087803b1580156103ee57600080fd5b505af1158015610402573d6000803e3d6000fd5b505050506040513d601f19601f8201168201806040525081019061042691906107a8565b61046d5760405162461bcd60e51b815260206004820152601860248201527721b7bab632103737ba103a3930b739b332b9103a37b5b2b760411b6044820152606401610115565b6001600160a01b03811660009081526068602052604090206003015460ff166104fa576040805160808101825283815242602080830191825260008385018181526001606086018181526001600160a01b03891684526068909452959091209351845591519383019390935551600282015590516003909101805460ff1916911515919091179055610520565b6001600160a01b0381166000908152606860205260409020805483018155426001909101555b610529816105b6565b50506001603355565b6065818154811061054257600080fd5b600091825260209091200154905081565b6069546001600160a01b0316331461057d5760405162461bcd60e51b815260040161011590610761565b606680546001600160a01b0319166001600160a01b039390931692909217909155606755565b60006105af82846107e0565b9392505050565b6001600160a01b0381166000908152606860205260408120546065549091906105e1906001906107e0565b90505b606581815481106105f7576105f76107f7565b9060005260206000200154821061062b576001600160a01b0383166000908152606860205260409020600201819055505050565b6106348161080d565b90506105e4565b828054828255906000526020600020908101928215610676579160200282015b8281111561067657823582559160200191906001019061065b565b50610682929150610686565b5090565b5b808211156106825760008155600101610687565b600080602083850312156106ae57600080fd5b823567ffffffffffffffff808211156106c657600080fd5b818501915085601f8301126106da57600080fd5b8135818111156106e957600080fd5b8660208260051b85010111156106fe57600080fd5b60209290920196919550909350505050565b60006020828403121561072257600080fd5b5035919050565b6000806040838503121561073c57600080fd5b82356001600160a01b038116811461075357600080fd5b946020939093013593505050565b60208082526027908201527f4c6f79616c747950726f6772616d3a2063616c6c6572206973206e6f74207468604082015266329030b236b4b760c91b606082015260800190565b6000602082840312156107ba57600080fd5b815180151581146105af57600080fd5b634e487b7160e01b600052601160045260246000fd5b6000828210156107f2576107f26107ca565b500390565b634e487b7160e01b600052603260045260246000fd5b60008161081c5761081c6107ca565b50600019019056fea2646970667358221220814e0ae068ce7a752e0b174b0c218ec26efa95b212597ec0d9caca9374000f1f64736f6c63430008090033",
  "linkReferences": {},
  "deployedLinkReferences": {}
}