{
  "_format": "hh-sol-artifact-1",
  "contractName": "REITNFT",
  "sourceName": "contracts/REITNFT.sol",
  "abi": [
    {
      "anonymous": false,
      "inputs": [
        {
          "indexed": true,
          "internalType": "address",
          "name": "account",
          "type": "address"
        },
        {
          "indexed": true,
          "internalType": "address",
          "name": "operator",
          "type": "address"
        },
        {
          "indexed": false,
          "internalType": "bool",
          "name": "approved",
          "type": "bool"
        }
      ],
      "name": "ApprovalForAll",
      "type": "event"
    },
    {
      "anonymous": false,
      "inputs": [
        {
          "indexed": false,
          "internalType": "uint256",
          "name": "id",
          "type": "uint256"
        }
      ],
      "name": "Create",
      "type": "event"
    },
    {
      "anonymous": false,
      "inputs": [
        {
          "indexed": false,
          "internalType": "uint8",
          "name": "version",
          "type": "uint8"
        }
      ],
      "name": "Initialized",
      "type": "event"
    },
    {
      "anonymous": false,
      "inputs": [
        {
          "indexed": true,
          "internalType": "address",
          "name": "previousOwner",
          "type": "address"
        },
        {
          "indexed": true,
          "internalType": "address",
          "name": "newOwner",
          "type": "address"
        }
      ],
      "name": "OwnershipTransferred",
      "type": "event"
    },
    {
      "anonymous": false,
      "inputs": [
        {
          "indexed": true,
          "internalType": "address",
          "name": "operator",
          "type": "address"
        },
        {
          "indexed": true,
          "internalType": "address",
          "name": "from",
          "type": "address"
        },
        {
          "indexed": true,
          "internalType": "address",
          "name": "to",
          "type": "address"
        },
        {
          "indexed": false,
          "internalType": "uint256[]",
          "name": "ids",
          "type": "uint256[]"
        },
        {
          "indexed": false,
          "internalType": "uint256[]",
          "name": "values",
          "type": "uint256[]"
        }
      ],
      "name": "TransferBatch",
      "type": "event"
    },
    {
      "anonymous": false,
      "inputs": [
        {
          "indexed": true,
          "internalType": "address",
          "name": "operator",
          "type": "address"
        },
        {
          "indexed": true,
          "internalType": "address",
          "name": "from",
          "type": "address"
        },
        {
          "indexed": true,
          "internalType": "address",
          "name": "to",
          "type": "address"
        },
        {
          "indexed": false,
          "internalType": "uint256",
          "name": "id",
          "type": "uint256"
        },
        {
          "indexed": false,
          "internalType": "uint256",
          "name": "value",
          "type": "uint256"
        }
      ],
      "name": "TransferSingle",
      "type": "event"
    },
    {
      "anonymous": false,
      "inputs": [
        {
          "indexed": false,
          "internalType": "string",
          "name": "value",
          "type": "string"
        },
        {
          "indexed": true,
          "internalType": "uint256",
          "name": "id",
          "type": "uint256"
        }
      ],
      "name": "URI",
      "type": "event"
    },
    {
      "inputs": [
        {
          "internalType": "address[]",
          "name": "accounts",
          "type": "address[]"
        }
      ],
      "name": "addManyToKYC",
      "outputs": [],
      "stateMutability": "nonpayable",
      "type": "function"
    },
    {
      "inputs": [
        {
          "internalType": "address",
          "name": "account",
          "type": "address"
        }
      ],
      "name": "addToKYC",
      "outputs": [],
      "stateMutability": "nonpayable",
      "type": "function"
    },
    {
      "inputs": [
        {
          "internalType": "uint256",
          "name": "_id",
          "type": "uint256"
        }
      ],
      "name": "affirmOwnership",
      "outputs": [],
      "stateMutability": "nonpayable",
      "type": "function"
    },
    {
      "inputs": [
        {
          "internalType": "address",
          "name": "account",
          "type": "address"
        },
        {
          "internalType": "uint256",
          "name": "id",
          "type": "uint256"
        }
      ],
      "name": "balanceOf",
      "outputs": [
        {
          "internalType": "uint256",
          "name": "",
          "type": "uint256"
        }
      ],
      "stateMutability": "view",
      "type": "function"
    },
    {
      "inputs": [
        {
          "internalType": "address[]",
          "name": "accounts",
          "type": "address[]"
        },
        {
          "internalType": "uint256[]",
          "name": "ids",
          "type": "uint256[]"
        }
      ],
      "name": "balanceOfBatch",
      "outputs": [
        {
          "internalType": "uint256[]",
          "name": "",
          "type": "uint256[]"
        }
      ],
      "stateMutability": "view",
      "type": "function"
    },
    {
      "inputs": [
        {
          "internalType": "address",
          "name": "_to",
          "type": "address"
        },
        {
          "internalType": "uint256[]",
          "name": "_ids",
          "type": "uint256[]"
        },
        {
          "internalType": "uint256[]",
          "name": "_quantities",
          "type": "uint256[]"
        },
        {
          "internalType": "bytes",
          "name": "_data",
          "type": "bytes"
        }
      ],
      "name": "batchMint",
      "outputs": [],
      "stateMutability": "nonpayable",
      "type": "function"
    },
    {
      "inputs": [
        {
          "internalType": "uint256",
          "name": "_id",
          "type": "uint256"
        }
      ],
      "name": "claimYield",
      "outputs": [],
      "stateMutability": "nonpayable",
      "type": "function"
    },
    {
      "inputs": [],
      "name": "contractURI",
      "outputs": [
        {
          "internalType": "string",
          "name": "",
          "type": "string"
        }
      ],
      "stateMutability": "view",
      "type": "function"
    },
    {
      "inputs": [
        {
          "internalType": "address",
          "name": "_initialOwner",
          "type": "address"
        },
        {
          "internalType": "uint256",
          "name": "_initialSupply",
          "type": "uint256"
        },
        {
          "internalType": "string",
          "name": "_uri",
          "type": "string"
        },
        {
          "internalType": "address",
          "name": "_fundingToken",
          "type": "address"
        },
        {
          "internalType": "bytes",
          "name": "_data",
          "type": "bytes"
        }
      ],
      "name": "create",
      "outputs": [
        {
          "internalType": "uint256",
          "name": "",
          "type": "uint256"
        }
      ],
      "stateMutability": "nonpayable",
      "type": "function"
    },
    {
      "inputs": [
        {
          "internalType": "uint256",
          "name": "",
          "type": "uint256"
        }
      ],
      "name": "creators",
      "outputs": [
        {
          "internalType": "address",
          "name": "",
          "type": "address"
        }
      ],
      "stateMutability": "view",
      "type": "function"
    },
    {
      "inputs": [
        {
          "internalType": "uint256",
          "name": "_id",
          "type": "uint256"
        },
        {
          "internalType": "uint256",
          "name": "amount",
          "type": "uint256"
        }
      ],
      "name": "fundREIT",
      "outputs": [],
      "stateMutability": "nonpayable",
      "type": "function"
    },
    {
      "inputs": [
        {
          "internalType": "uint256",
          "name": "_id",
          "type": "uint256"
        }
      ],
      "name": "getIPOUnitPrice",
      "outputs": [
        {
          "internalType": "uint256",
          "name": "",
          "type": "uint256"
        }
      ],
      "stateMutability": "view",
      "type": "function"
    },
    {
      "inputs": [
        {
          "internalType": "address",
          "name": "account",
          "type": "address"
        },
        {
          "internalType": "uint256",
          "name": "id",
          "type": "uint256"
        }
      ],
      "name": "getREITBalanceOf",
      "outputs": [
        {
          "internalType": "uint256",
          "name": "",
          "type": "uint256"
        }
      ],
      "stateMutability": "view",
      "type": "function"
    },
    {
      "inputs": [
        {
          "internalType": "string",
          "name": "_name",
          "type": "string"
        },
        {
          "internalType": "string",
          "name": "_symbol",
          "type": "string"
        },
        {
          "internalType": "string",
          "name": "_uri",
          "type": "string"
        },
        {
          "internalType": "address",
          "name": "_proxyRegistryAddress",
          "type": "address"
        }
      ],
      "name": "initialize",
      "outputs": [],
      "stateMutability": "nonpayable",
      "type": "function"
    },
    {
      "inputs": [
        {
          "internalType": "uint256",
          "name": "_id",
          "type": "uint256"
        },
        {
          "internalType": "uint256",
          "name": "ipoTime",
          "type": "uint256"
        },
        {
          "internalType": "uint256",
          "name": "ipoUnitPrice",
          "type": "uint256"
        },
        {
          "internalType": "uint256",
          "name": "liquidationTime",
          "type": "uint256"
        },
        {
          "internalType": "uint256",
          "name": "ownershipFee",
          "type": "uint256"
        }
      ],
      "name": "initiate",
      "outputs": [],
      "stateMutability": "nonpayable",
      "type": "function"
    },
    {
      "inputs": [
        {
          "internalType": "address",
          "name": "account",
          "type": "address"
        },
        {
          "internalType": "address",
          "name": "operator",
          "type": "address"
        }
      ],
      "name": "isApprovedForAll",
      "outputs": [
        {
          "internalType": "bool",
          "name": "isOperator",
          "type": "bool"
        }
      ],
      "stateMutability": "view",
      "type": "function"
    },
    {
      "inputs": [
        {
          "internalType": "address",
          "name": "account",
          "type": "address"
        }
      ],
      "name": "isKYC",
      "outputs": [
        {
          "internalType": "bool",
          "name": "",
          "type": "bool"
        }
      ],
      "stateMutability": "view",
      "type": "function"
    },
    {
      "inputs": [
        {
          "internalType": "address",
          "name": "_to",
          "type": "address"
        },
        {
          "internalType": "uint256",
          "name": "_id",
          "type": "uint256"
        },
        {
          "internalType": "uint256",
          "name": "_quantity",
          "type": "uint256"
        },
        {
          "internalType": "bytes",
          "name": "_data",
          "type": "bytes"
        }
      ],
      "name": "mint",
      "outputs": [],
      "stateMutability": "nonpayable",
      "type": "function"
    },
    {
      "inputs": [],
      "name": "name",
      "outputs": [
        {
          "internalType": "string",
          "name": "",
          "type": "string"
        }
      ],
      "stateMutability": "view",
      "type": "function"
    },
    {
      "inputs": [],
      "name": "owner",
      "outputs": [
        {
          "internalType": "address",
          "name": "",
          "type": "address"
        }
      ],
      "stateMutability": "view",
      "type": "function"
    },
    {
      "inputs": [
        {
          "internalType": "uint256",
          "name": "",
          "type": "uint256"
        }
      ],
      "name": "reitFunding",
      "outputs": [
        {
          "internalType": "uint256",
          "name": "",
          "type": "uint256"
        }
      ],
      "stateMutability": "view",
      "type": "function"
    },
    {
      "inputs": [
        {
          "internalType": "address",
          "name": "account",
          "type": "address"
        }
      ],
      "name": "removeKYC",
      "outputs": [],
      "stateMutability": "nonpayable",
      "type": "function"
    },
    {
      "inputs": [
        {
          "internalType": "address[]",
          "name": "accounts",
          "type": "address[]"
        }
      ],
      "name": "removeManyKYC",
      "outputs": [],
      "stateMutability": "nonpayable",
      "type": "function"
    },
    {
      "inputs": [],
      "name": "renounceOwnership",
      "outputs": [],
      "stateMutability": "nonpayable",
      "type": "function"
    },
    {
      "inputs": [
        {
          "internalType": "address",
          "name": "from",
          "type": "address"
        },
        {
          "internalType": "address",
          "name": "to",
          "type": "address"
        },
        {
          "internalType": "uint256[]",
          "name": "ids",
          "type": "uint256[]"
        },
        {
          "internalType": "uint256[]",
          "name": "amounts",
          "type": "uint256[]"
        },
        {
          "internalType": "bytes",
          "name": "data",
          "type": "bytes"
        }
      ],
      "name": "safeBatchTransferFrom",
      "outputs": [],
      "stateMutability": "nonpayable",
      "type": "function"
    },
    {
      "inputs": [
        {
          "internalType": "address",
          "name": "from",
          "type": "address"
        },
        {
          "internalType": "address",
          "name": "to",
          "type": "address"
        },
        {
          "internalType": "uint256",
          "name": "id",
          "type": "uint256"
        },
        {
          "internalType": "uint256",
          "name": "amount",
          "type": "uint256"
        },
        {
          "internalType": "bytes",
          "name": "data",
          "type": "bytes"
        }
      ],
      "name": "safeTransferFrom",
      "outputs": [],
      "stateMutability": "nonpayable",
      "type": "function"
    },
    {
      "inputs": [
        {
          "internalType": "address",
          "name": "from",
          "type": "address"
        },
        {
          "internalType": "address",
          "name": "to",
          "type": "address"
        },
        {
          "internalType": "uint256",
          "name": "id",
          "type": "uint256"
        },
        {
          "internalType": "uint256",
          "name": "amount",
          "type": "uint256"
        }
      ],
      "name": "safeTransferREITFrom",
      "outputs": [],
      "stateMutability": "nonpayable",
      "type": "function"
    },
    {
      "inputs": [
        {
          "internalType": "address",
          "name": "operator",
          "type": "address"
        },
        {
          "internalType": "bool",
          "name": "approved",
          "type": "bool"
        }
      ],
      "name": "setApprovalForAll",
      "outputs": [],
      "stateMutability": "nonpayable",
      "type": "function"
    },
    {
      "inputs": [
        {
          "internalType": "string",
          "name": "_newBaseMetadataURI",
          "type": "string"
        }
      ],
      "name": "setBaseMetadataURI",
      "outputs": [],
      "stateMutability": "nonpayable",
      "type": "function"
    },
    {
      "inputs": [
        {
          "internalType": "string",
          "name": "_uri",
          "type": "string"
        }
      ],
      "name": "setContractURI",
      "outputs": [],
      "stateMutability": "nonpayable",
      "type": "function"
    },
    {
      "inputs": [
        {
          "internalType": "address",
          "name": "_to",
          "type": "address"
        },
        {
          "internalType": "uint256[]",
          "name": "_ids",
          "type": "uint256[]"
        }
      ],
      "name": "setCreator",
      "outputs": [],
      "stateMutability": "nonpayable",
      "type": "function"
    },
    {
      "inputs": [
        {
          "internalType": "uint256",
          "name": "_id",
          "type": "uint256"
        },
        {
          "internalType": "uint256",
          "name": "yieldDividend",
          "type": "uint256"
        },
        {
          "internalType": "uint256",
          "name": "liquidationExtension",
          "type": "uint256"
        }
      ],
      "name": "setYield",
      "outputs": [],
      "stateMutability": "nonpayable",
      "type": "function"
    },
    {
      "inputs": [
        {
          "internalType": "bytes4",
          "name": "interfaceId",
          "type": "bytes4"
        }
      ],
      "name": "supportsInterface",
      "outputs": [
        {
          "internalType": "bool",
          "name": "",
          "type": "bool"
        }
      ],
      "stateMutability": "view",
      "type": "function"
    },
    {
      "inputs": [],
      "name": "symbol",
      "outputs": [
        {
          "internalType": "string",
          "name": "",
          "type": "string"
        }
      ],
      "stateMutability": "view",
      "type": "function"
    },
    {
      "inputs": [
        {
          "internalType": "uint256",
          "name": "",
          "type": "uint256"
        }
      ],
      "name": "tokenMetadata",
      "outputs": [
        {
          "internalType": "uint256",
          "name": "ipoTime",
          "type": "uint256"
        },
        {
          "internalType": "uint256",
          "name": "ipoUnitPrice",
          "type": "uint256"
        },
        {
          "internalType": "uint256",
          "name": "liquidationTime",
          "type": "uint256"
        },
        {
          "internalType": "uint256",
          "name": "ownershipFee",
          "type": "uint256"
        }
      ],
      "stateMutability": "view",
      "type": "function"
    },
    {
      "inputs": [
        {
          "internalType": "uint256",
          "name": "",
          "type": "uint256"
        }
      ],
      "name": "tokenSupply",
      "outputs": [
        {
          "internalType": "uint256",
          "name": "",
          "type": "uint256"
        }
      ],
      "stateMutability": "view",
      "type": "function"
    },
    {
      "inputs": [
        {
          "internalType": "uint256",
          "name": "",
          "type": "uint256"
        }
      ],
      "name": "tokenUri",
      "outputs": [
        {
          "internalType": "string",
          "name": "",
          "type": "string"
        }
      ],
      "stateMutability": "view",
      "type": "function"
    },
    {
      "inputs": [
        {
          "internalType": "uint256",
          "name": "",
          "type": "uint256"
        }
      ],
      "name": "tokenYieldData",
      "outputs": [
        {
          "internalType": "uint256",
          "name": "yieldDividend",
          "type": "uint256"
        },
        {
          "internalType": "uint256",
          "name": "liquidationExtension",
          "type": "uint256"
        }
      ],
      "stateMutability": "view",
      "type": "function"
    },
    {
      "inputs": [
        {
          "internalType": "uint256",
          "name": "_id",
          "type": "uint256"
        }
      ],
      "name": "totalSupply",
      "outputs": [
        {
          "internalType": "uint256",
          "name": "",
          "type": "uint256"
        }
      ],
      "stateMutability": "view",
      "type": "function"
    },
    {
      "inputs": [
        {
          "internalType": "address",
          "name": "newOwner",
          "type": "address"
        }
      ],
      "name": "transferOwnership",
      "outputs": [],
      "stateMutability": "nonpayable",
      "type": "function"
    },
    {
      "inputs": [
        {
          "internalType": "uint256",
          "name": "_id",
          "type": "uint256"
        }
      ],
      "name": "uri",
      "outputs": [
        {
          "internalType": "string",
          "name": "",
          "type": "string"
        }
      ],
      "stateMutability": "view",
      "type": "function"
    }
  ],
  "bytecode": "0x608060405234801561001057600080fd5b50600160a055613a11806100256000396000f3fe608060405234801561001057600080fd5b50600436106102525760003560e01c80638da5cb5b11610146578063d1c901a4116100c3578063e985e9c511610087578063e985e9c5146105c0578063edc115b3146105d3578063ef83deab146105e6578063f242432a14610606578063f2fde38b14610619578063f7cc40521461062c57600080fd5b8063d1c901a414610543578063d2a6b51a1461057f578063d64e83d714610592578063dfdf4264146105a5578063e8a3d485146105b857600080fd5b8063abfebaa41161010a578063abfebaa4146104c1578063b48ab8b6146104d4578063bd85b039146104e7578063c166e10e14610507578063cd53d08e1461051a57600080fd5b80638da5cb5b1461045b578063938e3d7b1461048057806395d89b41146104935780639944f5181461049b578063a22cb465146104ae57600080fd5b80634e1273f4116101d4578063715018a611610198578063715018a614610407578063731133e91461040f57806378c4acb8146104225780637e518ec81461043557806386bbdcb31461044857600080fd5b80634e1273f4146103495780635c6d8da11461036957806362214e1a1461037c57806368a140771461038f5780636914db60146103b257600080fd5b806322b6ccfe1161021b57806322b6ccfe146102db578063243f6b58146102f05780632693ebf2146103035780632eb2c2d61461032357806340bd2e231461033657600080fd5b8062fdd58e1461025757806301ffc9a71461027d57806306fdde03146102a05780630e89341c146102b55780631675f455146102c8575b600080fd5b61026a610265366004612982565b61063f565b6040519081526020015b60405180910390f35b61029061028b3660046129c4565b6106db565b6040519015158152602001610274565b6102a861072b565b6040516102749190612a2e565b6102a86102c3366004612a41565b6107b9565b6102a86102d6366004612a41565b61085b565b6102ee6102e9366004612a5a565b610874565b005b6102ee6102fe366004612a5a565b6108c2565b61026a610311366004612a41565b609a6020526000908152604090205481565b6102ee610331366004612bc0565b61090d565b6102ee610344366004612a41565b6109a4565b61035c610357366004612c6d565b610d3f565b6040516102749190612d74565b6102ee610377366004612d87565b610e68565b61026a61038a366004612e69565b610f46565b61026a61039d366004612a41565b600090815260a3602052604090206001015490565b6103e76103c0366004612a41565b60a36020526000908152604090208054600182015460028301546003909301549192909184565b604080519485526020850193909352918301526060820152608001610274565b6102ee611130565b6102ee61041d366004612f09565b611166565b6102ee610430366004612f6b565b6111dc565b6102ee610443366004612fdf565b61127d565b6102ee610456366004613013565b6112b3565b609d546001600160a01b03165b6040516001600160a01b039091168152602001610274565b6102ee61048e366004612fdf565b611398565b6102a86113d9565b6102906104a9366004612a5a565b6113e6565b6102ee6104bc366004613043565b61141a565b6102ee6104cf36600461307c565b611425565b6102ee6104e23660046130b7565b6114a7565b61026a6104f5366004612a41565b6000908152609a602052604090205490565b61026a610515366004612982565b61163c565b610468610528366004612a41565b6099602052600090815260409020546001600160a01b031681565b61056a610551366004612a41565b60a4602052600090815260409020805460019091015482565b60408051928352602083019190915201610274565b6102ee61058d366004613145565b61164f565b6102ee6105a0366004612f6b565b611701565b6102ee6105b336600461318a565b61179d565b6102a861185c565b6102906105ce3660046131b6565b6118ee565b6102ee6105e1366004612a41565b6119be565b61026a6105f4366004612a41565b60a66020526000908152604090205481565b6102ee6106143660046131e4565b611cd4565b6102ee610627366004612a5a565b611d5b565b6102ee61063a36600461324c565b611df3565b60006001600160a01b0383166106b05760405162461bcd60e51b815260206004820152602b60248201527f455243313135353a2062616c616e636520717565727920666f7220746865207a60448201526a65726f206164647265737360a81b60648201526084015b60405180910390fd5b5060008181526065602090815260408083206001600160a01b03861684529091529020545b92915050565b60006001600160e01b03198216636cdb3d1360e11b148061070c57506001600160e01b031982166303a24d0760e21b145b806106d557506301ffc9a760e01b6001600160e01b03198316146106d5565b609e805461073890613292565b80601f016020809104026020016040519081016040528092919081815260200182805461076490613292565b80156107b15780601f10610786576101008083540402835291602001916107b1565b820191906000526020600020905b81548152906001019060200180831161079457829003601f168201915b505050505081565b6000818152609b602052604090208054606091906107d690613292565b80601f016020809104026020016040519081016040528092919081815260200182805461080290613292565b801561084f5780601f106108245761010080835404028352916020019161084f565b820191906000526020600020905b81548152906001019060200180831161083257829003601f168201915b50505050509050919050565b609b602052600090815260409020805461073890613292565b60a2546001600160a01b0316331461089e5760405162461bcd60e51b81526004016106a7906132cd565b6001600160a01b0316600090815260a160205260409020805460ff19166001179055565b60a2546001600160a01b031633146108ec5760405162461bcd60e51b81526004016106a7906132cd565b6001600160a01b0316600090815260a160205260409020805460ff19169055565b6001600160a01b038516331480610929575061092985336118ee565b6109905760405162461bcd60e51b815260206004820152603260248201527f455243313135353a207472616e736665722063616c6c6572206973206e6f74206044820152711bdddb995c881b9bdc88185c1c1c9bdd995960721b60648201526084016106a7565b61099d8585858585611e02565b5050505050565b33600090815260a1602052604090205460ff166109f15760405162461bcd60e51b815260206004820152600b60248201526a4e6f7420796574204b594360a81b60448201526064016106a7565b8060006109fe338361063f565b11610a1b5760405162461bcd60e51b81526004016106a79061330f565b600260a0541415610a6e5760405162461bcd60e51b815260206004820152601f60248201527f5265656e7472616e637947756172643a207265656e7472616e742063616c6c0060448201526064016106a7565b600260a0556000610a7f338461063f565b600084815260a46020908152604080832081518083018352815481526001909101548184015287845260a58352818420338552909252909120549192509060ff16610b0157600084815260a560209081526040808320338085529252909120805460016001600160a81b03199091166101009093029290921782178155018290555b600084815260a56020908152604080832033845282528083208151608081018352815460ff81161515825261010090046001600160a01b031693810193909352600181015491830182905260020154606083018190528451929392610b6f92610b6991611fa1565b90611fad565b905060008111610bc15760405162461bcd60e51b815260206004820181905260248201527f524549544e46543a206e6f206d6f726520636c61696d61626c65207969656c6460448201526064016106a7565b600086815260a6602052604090205481811015610c2c5760405162461bcd60e51b815260206004820152602360248201527f524549544e46543a206e656564206d6f72652066756e642066726f6d206973736044820152623ab2b960e91b60648201526084016106a7565b600087815260a66020526040902054610c459083611fad565b600088815260a660205260409020556060830151610c639083611fb9565b600088815260a56020908152604080832033808552908352818420600201949094558a835260a79091529081902054905163a9059cbb60e01b81526004810192909252602482018490526001600160a01b031690819063a9059cbb90604401602060405180830381600087803b158015610cdc57600080fd5b505af1158015610cf0573d6000803e3d6000fd5b505050506040513d601f19601f82011682018060405250810190610d14919061335e565b610d305760405162461bcd60e51b81526004016106a79061337b565b5050600160a055505050505050565b60608151835114610da45760405162461bcd60e51b815260206004820152602960248201527f455243313135353a206163636f756e747320616e6420696473206c656e677468604482015268040dad2e6dac2e8c6d60bb1b60648201526084016106a7565b600083516001600160401b03811115610dbf57610dbf612a77565b604051908082528060200260200182016040528015610de8578160200160208202803683370190505b50905060005b8451811015610e6057610e33858281518110610e0c57610e0c6133b0565b6020026020010151858381518110610e2657610e266133b0565b602002602001015161063f565b828281518110610e4557610e456133b0565b6020908102919091010152610e59816133dc565b9050610dee565b509392505050565b6000610e746001611fc5565b90508015610e8c576000805461ff0019166101001790555b610e958361204d565b8451610ea890609e906020880190612860565b508351610ebc90609f906020870190612860565b50609780546001600160a01b0319166001600160a01b03841617905560006098558251610ef090609c906020860190612860565b50610efa3361207d565b801561099d576000805461ff0019169055604051600181527f7f26b83ff96e1f2b6a682f133852f6798a09c465da95921460cefb38474024989060200160405180910390a15050505050565b609d546000906001600160a01b03163314610f735760405162461bcd60e51b81526004016106a7906133f7565b6000610f7d6120cf565b9050610f876120e5565b600081815260996020526040902080546001600160a01b03191633179055851561100057807f6bb7ff708619ba0610cba295a58592e0451dee2622938c8755667688daf3529b8888604051610fdd92919061342c565b60405180910390a26000818152609b60205260409020610ffe9088886128e4565b505b600081815260a76020908152604080832080546001600160a01b0319166001600160a01b038a1617905580516080810182528381528083018481528183018581526060830186815287875260a386528487209351845591516001848101919091559051600284015590516003909201919091558151808301835284815280840185815286865260a48552948390209051815593519301929092558151601f86018290048202810182019092528482526110d9918b9184918c9189908990819084018382808284376000920191909152506120fc92505050565b6000818152609a602052604090819020899055517f07eac9a0695a188fe9d6fd680bcbbbe39041fb114d5d7ac11252401391f793079061111c9083815260200190565b60405180910390a198975050505050505050565b609d546001600160a01b0316331461115a5760405162461bcd60e51b81526004016106a7906133f7565b611164600061207d565b565b60008381526099602052604090205483906001600160a01b0316331461119e5760405162461bcd60e51b81526004016106a79061345b565b6111aa858585856120fc565b6000848152609a60205260409020546111c39084611fb9565b6000948552609a60205260409094209390935550505050565b60a2546001600160a01b031633146112065760405162461bcd60e51b81526004016106a7906132cd565b60005b8181101561127857600160a16000858585818110611229576112296133b0565b905060200201602081019061123e9190612a5a565b6001600160a01b031681526020810191909152604001600020805460ff191691151591909117905580611270816133dc565b915050611209565b505050565b609d546001600160a01b031633146112a75760405162461bcd60e51b81526004016106a7906133f7565b6112b0816121d8565b50565b600082815260a76020526040908190205490516323b872dd60e01b8152336004820152306024820152604481018390526001600160a01b039091169081906323b872dd90606401602060405180830381600087803b15801561131457600080fd5b505af1158015611328573d6000803e3d6000fd5b505050506040513d601f19601f8201168201806040525081019061134c919061335e565b6113685760405162461bcd60e51b81526004016106a79061337b565b600083815260a660205260409020546113819083611fb9565b600093845260a66020526040909320929092555050565b609d546001600160a01b031633146113c25760405162461bcd60e51b81526004016106a7906133f7565b80516113d590609c906020840190612860565b5050565b609f805461073890613292565b60006001600160a01b0382166113fb57600080fd5b506001600160a01b0316600090815260a1602052604090205460ff1690565b6113d53383836121eb565b60008581526099602052604090205485906001600160a01b0316331461145d5760405162461bcd60e51b81526004016106a79061345b565b5060408051608081018252948552602080860194855285820193845260608601928352600096875260a3905290942092518355905160018301555160028201559051600390910155565b81518351146115115760405162461bcd60e51b815260206004820152603060248201527f455243313135354d696e744275726e2362617463684d696e743a20494e56414c60448201526f09288be82a4a482b2a6be988a9c8ea8960831b60648201526084016106a7565b60005b8351811015611629576000848281518110611531576115316133b0565b602090810291909101810151600081815260999092526040909120549091506001600160a01b031633146115bf5760405162461bcd60e51b815260206004820152602f60248201527f455243313135355472616461626c652362617463684d696e743a204f4e4c595f60448201526e10d491505513d497d0531313d5d151608a1b60648201526084016106a7565b60008483815181106115d3576115d36133b0565b6020026020010151905061160381609a600085815260200190815260200160002054611fb990919063ffffffff16565b6000928352609a6020526040909220919091555080611621816133dc565b915050611514565b50611636848484846122cc565b50505050565b6000611648838361063f565b9392505050565b6001600160a01b0382166116ba5760405162461bcd60e51b815260206004820152602c60248201527f455243313135355472616461626c652373657443726561746f723a20494e564160448201526b2624a22fa0a2222922a9a99760a11b60648201526084016106a7565b60005b81518110156112785760008282815181106116da576116da6133b0565b602002602001015190506116ee8482612418565b50806116f9816133dc565b9150506116bd565b60a2546001600160a01b0316331461172b5760405162461bcd60e51b81526004016106a7906132cd565b60005b8181101561127857600060a1600085858581811061174e5761174e6133b0565b90506020020160208101906117639190612a5a565b6001600160a01b031681526020810191909152604001600020805460ff191691151591909117905580611795816133dc565b91505061172e565b60008381526099602052604090205483906001600160a01b031633146117d55760405162461bcd60e51b81526004016106a79061345b565b6000848152609a6020526040812054906117ef8286611fa1565b600087815260a660205260409020549091508082111561182b5760405162461bcd60e51b815260206004820152600060248201526044016106a7565b50506040805180820182529485526020808601948552600096875260a4905290942092518355505160019091015550565b6060609c805461186b90613292565b80601f016020809104026020016040519081016040528092919081815260200182805461189790613292565b80156118e45780601f106118b9576101008083540402835291602001916118e4565b820191906000526020600020905b8154815290600101906020018083116118c757829003601f168201915b5050505050905090565b60975460405163c455279160e01b81526001600160a01b03848116600483015260009281169190841690829063c45527919060240160206040518083038186803b15801561193b57600080fd5b505afa15801561194f573d6000803e3d6000fd5b505050506040513d601f19601f8201168201806040525081019061197391906134ac565b6001600160a01b0316141561198c5760019150506106d5565b6001600160a01b0380851660009081526066602090815260408083209387168352929052205460ff165b949350505050565b33600090815260a1602052604090205460ff16611a0b5760405162461bcd60e51b815260206004820152600b60248201526a4e6f7420796574204b594360a81b60448201526064016106a7565b806000611a18338361063f565b11611a355760405162461bcd60e51b81526004016106a79061330f565b600082815260a36020908152604080832081516080808201845282548252600180840154838701526002808501548487015260039094015460608085019190915289885260a5875285882033808a5290885286892087519485018852805460ff81161515865261010090046001600160a01b031698850198909852918701549583019590955294909201549282019290925290929091611ad5908661063f565b90506000611af0836040015183611fad90919063ffffffff16565b905060008111611b425760405162461bcd60e51b815260206004820152601960248201527f524549544e46543a20416c72656164792061666669726d65640000000000000060448201526064016106a7565b600086815260a76020908152604080832054815163313ce56760e01b815291516001600160a01b039091169392611c0692859263313ce56792600480840193919291829003018186803b158015611b9857600080fd5b505afa158015611bac573d6000803e3d6000fd5b505050506040513d601f19601f82011682018060405250810190611bd091906134c9565b611bdb90600a6135d0565b611c008860600151611bfa8a6020015188611fa190919063ffffffff16565b90611fa1565b9061247f565b6040516323b872dd60e01b8152336004820152306024820152604481018290529091506001600160a01b038316906323b872dd90606401602060405180830381600087803b158015611c5757600080fd5b505af1158015611c6b573d6000803e3d6000fd5b505050506040513d601f19601f82011682018060405250810190611c8f919061335e565b611cab5760405162461bcd60e51b81526004016106a79061337b565b505050600094855260a56020908152604080872033885290915290942060010193909355505050565b6001600160a01b038516331480611cf05750611cf085336118ee565b611d4e5760405162461bcd60e51b815260206004820152602960248201527f455243313135353a2063616c6c6572206973206e6f74206f776e6572206e6f7260448201526808185c1c1c9bdd995960ba1b60648201526084016106a7565b61099d858585858561248b565b609d546001600160a01b03163314611d855760405162461bcd60e51b81526004016106a7906133f7565b6001600160a01b038116611dea5760405162461bcd60e51b815260206004820152602660248201527f4f776e61626c653a206e6577206f776e657220697320746865207a65726f206160448201526564647265737360d01b60648201526084016106a7565b6112b08161207d565b606061099d8585858585611cd4565b8151835114611e235760405162461bcd60e51b81526004016106a7906135df565b6001600160a01b038416611e495760405162461bcd60e51b81526004016106a790613627565b3360005b8451811015611f33576000858281518110611e6a57611e6a6133b0565b602002602001015190506000858381518110611e8857611e886133b0565b60209081029190910181015160008481526065835260408082206001600160a01b038e168352909352919091205490915081811015611ed95760405162461bcd60e51b81526004016106a79061366c565b60008381526065602090815260408083206001600160a01b038e8116855292528083208585039055908b16825281208054849290611f189084906136b6565b9250508190555050505080611f2c906133dc565b9050611e4d565b50846001600160a01b0316866001600160a01b0316826001600160a01b03167f4a39dc06d4c0dbc64b70af90fd698a233a518aa5d07e595d983b8c0526c8f7fb8787604051611f839291906136ce565b60405180910390a4611f998187878787876125b9565b505050505050565b600061164882846136fc565b6000611648828461371b565b600061164882846136b6565b60008054610100900460ff161561200c578160ff166001148015611fe85750303b155b6120045760405162461bcd60e51b81526004016106a790613732565b506000919050565b60005460ff8084169116106120335760405162461bcd60e51b81526004016106a790613732565b506000805460ff191660ff92909216919091179055600190565b600054610100900460ff166120745760405162461bcd60e51b81526004016106a790613780565b6112b081612724565b609d80546001600160a01b038381166001600160a01b0319831681179093556040519116919082907f8be0079c531659141344cd1fd0a4f28419497f9722a3daafe3b4186f6b6457e090600090a35050565b6098546000906120e0906001611fb9565b905090565b609880549060006120f5836133dc565b9190505550565b6001600160a01b0384166121225760405162461bcd60e51b81526004016106a7906137cb565b33600061212e8561274b565b9050600061213b8561274b565b905060008681526065602090815260408083206001600160a01b038b1684529091528120805487929061216f9084906136b6565b909155505060408051878152602081018790526001600160a01b03808a1692600092918716917fc3d58168c5ae7397731d063d5bbf3d657854427343f4c083240f7aacaa2d0f62910160405180910390a46121cf83600089898989612796565b50505050505050565b80516113d5906067906020840190612860565b816001600160a01b0316836001600160a01b0316141561225f5760405162461bcd60e51b815260206004820152602960248201527f455243313135353a2073657474696e6720617070726f76616c20737461747573604482015268103337b91039b2b63360b91b60648201526084016106a7565b6001600160a01b03838116600081815260666020908152604080832094871680845294825291829020805460ff191686151590811790915591519182527f17307eab39ab6107e8899845ad3d59bd9653f200f220920489ca2b5937696c31910160405180910390a3505050565b6001600160a01b0384166122f25760405162461bcd60e51b81526004016106a7906137cb565b81518351146123135760405162461bcd60e51b81526004016106a7906135df565b3360005b84518110156123b057838181518110612332576123326133b0565b602002602001015160656000878481518110612350576123506133b0565b602002602001015181526020019081526020016000206000886001600160a01b03166001600160a01b03168152602001908152602001600020600082825461239891906136b6565b909155508190506123a8816133dc565b915050612317565b50846001600160a01b031660006001600160a01b0316826001600160a01b03167f4a39dc06d4c0dbc64b70af90fd698a233a518aa5d07e595d983b8c0526c8f7fb87876040516124019291906136ce565b60405180910390a461099d816000878787876125b9565b60008181526099602052604090205481906001600160a01b031633146124505760405162461bcd60e51b81526004016106a79061345b565b50600090815260996020526040902080546001600160a01b0319166001600160a01b0392909216919091179055565b6000611648828461380c565b6001600160a01b0384166124b15760405162461bcd60e51b81526004016106a790613627565b3360006124bd8561274b565b905060006124ca8561274b565b905060008681526065602090815260408083206001600160a01b038c1684529091529020548581101561250f5760405162461bcd60e51b81526004016106a79061366c565b60008781526065602090815260408083206001600160a01b038d8116855292528083208985039055908a1682528120805488929061254e9084906136b6565b909155505060408051888152602081018890526001600160a01b03808b16928c821692918816917fc3d58168c5ae7397731d063d5bbf3d657854427343f4c083240f7aacaa2d0f62910160405180910390a46125ae848a8a8a8a8a612796565b505050505050505050565b6001600160a01b0384163b15611f995760405163bc197c8160e01b81526001600160a01b0385169063bc197c81906125fd908990899088908890889060040161382e565b602060405180830381600087803b15801561261757600080fd5b505af1925050508015612647575060408051601f3d908101601f191682019092526126449181019061388c565b60015b6126f4576126536138a9565b806308c379a0141561268d57506126686138c5565b80612673575061268f565b8060405162461bcd60e51b81526004016106a79190612a2e565b505b60405162461bcd60e51b815260206004820152603460248201527f455243313135353a207472616e7366657220746f206e6f6e20455243313135356044820152732932b1b2b4bb32b91034b6b83632b6b2b73a32b960611b60648201526084016106a7565b6001600160e01b0319811663bc197c8160e01b146121cf5760405162461bcd60e51b81526004016106a79061394e565b600054610100900460ff166112a75760405162461bcd60e51b81526004016106a790613780565b60408051600180825281830190925260609160009190602080830190803683370190505090508281600081518110612785576127856133b0565b602090810291909101015292915050565b6001600160a01b0384163b15611f995760405163f23a6e6160e01b81526001600160a01b0385169063f23a6e61906127da9089908990889088908890600401613996565b602060405180830381600087803b1580156127f457600080fd5b505af1925050508015612824575060408051601f3d908101601f191682019092526128219181019061388c565b60015b612830576126536138a9565b6001600160e01b0319811663f23a6e6160e01b146121cf5760405162461bcd60e51b81526004016106a79061394e565b82805461286c90613292565b90600052602060002090601f01602090048101928261288e57600085556128d4565b82601f106128a757805160ff19168380011785556128d4565b828001600101855582156128d4579182015b828111156128d45782518255916020019190600101906128b9565b506128e0929150612958565b5090565b8280546128f090613292565b90600052602060002090601f01602090048101928261291257600085556128d4565b82601f1061292b5782800160ff198235161785556128d4565b828001600101855582156128d4579182015b828111156128d457823582559160200191906001019061293d565b5b808211156128e05760008155600101612959565b6001600160a01b03811681146112b057600080fd5b6000806040838503121561299557600080fd5b82356129a08161296d565b946020939093013593505050565b6001600160e01b0319811681146112b057600080fd5b6000602082840312156129d657600080fd5b8135611648816129ae565b6000815180845260005b81811015612a07576020818501810151868301820152016129eb565b81811115612a19576000602083870101525b50601f01601f19169290920160200192915050565b60208152600061164860208301846129e1565b600060208284031215612a5357600080fd5b5035919050565b600060208284031215612a6c57600080fd5b81356116488161296d565b634e487b7160e01b600052604160045260246000fd5b601f8201601f191681016001600160401b0381118282101715612ab257612ab2612a77565b6040525050565b60006001600160401b03821115612ad257612ad2612a77565b5060051b60200190565b600082601f830112612aed57600080fd5b81356020612afa82612ab9565b604051612b078282612a8d565b83815260059390931b8501820192828101915086841115612b2757600080fd5b8286015b84811015612b425780358352918301918301612b2b565b509695505050505050565b600082601f830112612b5e57600080fd5b81356001600160401b03811115612b7757612b77612a77565b604051612b8e601f8301601f191660200182612a8d565b818152846020838601011115612ba357600080fd5b816020850160208301376000918101602001919091529392505050565b600080600080600060a08688031215612bd857600080fd5b8535612be38161296d565b94506020860135612bf38161296d565b935060408601356001600160401b0380821115612c0f57600080fd5b612c1b89838a01612adc565b94506060880135915080821115612c3157600080fd5b612c3d89838a01612adc565b93506080880135915080821115612c5357600080fd5b50612c6088828901612b4d565b9150509295509295909350565b60008060408385031215612c8057600080fd5b82356001600160401b0380821115612c9757600080fd5b818501915085601f830112612cab57600080fd5b81356020612cb882612ab9565b604051612cc58282612a8d565b83815260059390931b8501820192828101915089841115612ce557600080fd5b948201945b83861015612d0c578535612cfd8161296d565b82529482019490820190612cea565b96505086013592505080821115612d2257600080fd5b50612d2f85828601612adc565b9150509250929050565b600081518084526020808501945080840160005b83811015612d6957815187529582019590820190600101612d4d565b509495945050505050565b6020815260006116486020830184612d39565b60008060008060808587031215612d9d57600080fd5b84356001600160401b0380821115612db457600080fd5b612dc088838901612b4d565b95506020870135915080821115612dd657600080fd5b612de288838901612b4d565b94506040870135915080821115612df857600080fd5b50612e0587828801612b4d565b9250506060850135612e168161296d565b939692955090935050565b60008083601f840112612e3357600080fd5b5081356001600160401b03811115612e4a57600080fd5b602083019150836020828501011115612e6257600080fd5b9250929050565b600080600080600080600060a0888a031215612e8457600080fd5b8735612e8f8161296d565b96506020880135955060408801356001600160401b0380821115612eb257600080fd5b612ebe8b838c01612e21565b909750955060608a01359150612ed38261296d565b90935060808901359080821115612ee957600080fd5b50612ef68a828b01612e21565b989b979a50959850939692959293505050565b60008060008060808587031215612f1f57600080fd5b8435612f2a8161296d565b9350602085013592506040850135915060608501356001600160401b03811115612f5357600080fd5b612f5f87828801612b4d565b91505092959194509250565b60008060208385031215612f7e57600080fd5b82356001600160401b0380821115612f9557600080fd5b818501915085601f830112612fa957600080fd5b813581811115612fb857600080fd5b8660208260051b8501011115612fcd57600080fd5b60209290920196919550909350505050565b600060208284031215612ff157600080fd5b81356001600160401b0381111561300757600080fd5b6119b684828501612b4d565b6000806040838503121561302657600080fd5b50508035926020909101359150565b80151581146112b057600080fd5b6000806040838503121561305657600080fd5b82356130618161296d565b9150602083013561307181613035565b809150509250929050565b600080600080600060a0868803121561309457600080fd5b505083359560208501359550604085013594606081013594506080013592509050565b600080600080608085870312156130cd57600080fd5b84356130d88161296d565b935060208501356001600160401b03808211156130f457600080fd5b61310088838901612adc565b9450604087013591508082111561311657600080fd5b61312288838901612adc565b9350606087013591508082111561313857600080fd5b50612f5f87828801612b4d565b6000806040838503121561315857600080fd5b82356131638161296d565b915060208301356001600160401b0381111561317e57600080fd5b612d2f85828601612adc565b60008060006060848603121561319f57600080fd5b505081359360208301359350604090920135919050565b600080604083850312156131c957600080fd5b82356131d48161296d565b915060208301356130718161296d565b600080600080600060a086880312156131fc57600080fd5b85356132078161296d565b945060208601356132178161296d565b9350604086013592506060860135915060808601356001600160401b0381111561324057600080fd5b612c6088828901612b4d565b6000806000806080858703121561326257600080fd5b843561326d8161296d565b9350602085013561327d8161296d565b93969395505050506040820135916060013590565b600181811c908216806132a657607f821691505b602082108114156132c757634e487b7160e01b600052602260045260246000fd5b50919050565b60208082526022908201527f4b59434163636573733a2063616c6c6572206973206e6f74207468652061646d60408201526134b760f11b606082015260800190565b6020808252602f908201527f455243313135355472616461626c65236f776e6572734f6e6c793a204f4e4c5960408201526e17d3d5d3915494d7d0531313d5d151608a1b606082015260800190565b60006020828403121561337057600080fd5b815161164881613035565b6020808252818101527f524549544e46543a20436f756c64206e6f74207472616e736665722066756e64604082015260600190565b634e487b7160e01b600052603260045260246000fd5b634e487b7160e01b600052601160045260246000fd5b60006000198214156133f0576133f06133c6565b5060010190565b6020808252818101527f4f776e61626c653a2063616c6c6572206973206e6f7420746865206f776e6572604082015260600190565b60208152816020820152818360408301376000818301604090810191909152601f909201601f19160101919050565b60208082526031908201527f455243313135355472616461626c652363726561746f724f6e6c793a204f4e4c6040820152701657d0d491505513d497d0531313d5d151607a1b606082015260800190565b6000602082840312156134be57600080fd5b81516116488161296d565b6000602082840312156134db57600080fd5b815160ff8116811461164857600080fd5b600181815b8085111561352757816000190482111561350d5761350d6133c6565b8085161561351a57918102915b93841c93908002906134f1565b509250929050565b60008261353e575060016106d5565b8161354b575060006106d5565b8160018114613561576002811461356b57613587565b60019150506106d5565b60ff84111561357c5761357c6133c6565b50506001821b6106d5565b5060208310610133831016604e8410600b84101617156135aa575081810a6106d5565b6135b483836134ec565b80600019048211156135c8576135c86133c6565b029392505050565b600061164860ff84168361352f565b60208082526028908201527f455243313135353a2069647320616e6420616d6f756e7473206c656e677468206040820152670dad2e6dac2e8c6d60c31b606082015260800190565b60208082526025908201527f455243313135353a207472616e7366657220746f20746865207a65726f206164604082015264647265737360d81b606082015260800190565b6020808252602a908201527f455243313135353a20696e73756666696369656e742062616c616e636520666f60408201526939103a3930b739b332b960b11b606082015260800190565b600082198211156136c9576136c96133c6565b500190565b6040815260006136e16040830185612d39565b82810360208401526136f38185612d39565b95945050505050565b6000816000190483118215151615613716576137166133c6565b500290565b60008282101561372d5761372d6133c6565b500390565b6020808252602e908201527f496e697469616c697a61626c653a20636f6e747261637420697320616c72656160408201526d191e481a5b9a5d1a585b1a5e995960921b606082015260800190565b6020808252602b908201527f496e697469616c697a61626c653a20636f6e7472616374206973206e6f74206960408201526a6e697469616c697a696e6760a81b606082015260800190565b60208082526021908201527f455243313135353a206d696e7420746f20746865207a65726f206164647265736040820152607360f81b606082015260800190565b60008261382957634e487b7160e01b600052601260045260246000fd5b500490565b6001600160a01b0386811682528516602082015260a06040820181905260009061385a90830186612d39565b828103606084015261386c8186612d39565b9050828103608084015261388081856129e1565b98975050505050505050565b60006020828403121561389e57600080fd5b8151611648816129ae565b600060033d11156138c25760046000803e5060005160e01c5b90565b600060443d10156138d35790565b6040516003193d81016004833e81513d6001600160401b03816024840111818411171561390257505050505090565b828501915081518181111561391a5750505050505090565b843d87010160208285010111156139345750505050505090565b61394360208286010187612a8d565b509095945050505050565b60208082526028908201527f455243313135353a204552433131353552656365697665722072656a656374656040820152676420746f6b656e7360c01b606082015260800190565b6001600160a01b03868116825285166020820152604081018490526060810183905260a0608082018190526000906139d0908301846129e1565b97965050505050505056fea2646970667358221220e93e154a5bfc6ec51273db88c57618b788aad84dafe81152e41102f3952af5e464736f6c63430008090033",
  "linkReferences": {},
  "deployedLinkReferences": {}
}