{
  "_format": "hh-sol-artifact-1",
  "contractName": "REITNFT",
  "sourceName": "contracts/REITNFT.sol",
  "abi": [
    {
      "anonymous": false,
      "inputs": [
        {
          "indexed": true,
          "internalType": "address",
          "name": "account",
          "type": "address"
        },
        {
          "indexed": true,
          "internalType": "address",
          "name": "operator",
          "type": "address"
        },
        {
          "indexed": false,
          "internalType": "bool",
          "name": "approved",
          "type": "bool"
        }
      ],
      "name": "ApprovalForAll",
      "type": "event"
    },
    {
      "anonymous": false,
      "inputs": [
        {
          "indexed": false,
          "internalType": "uint256",
          "name": "id",
          "type": "uint256"
        }
      ],
      "name": "Create",
      "type": "event"
    },
    {
      "anonymous": false,
      "inputs": [
        {
          "indexed": false,
          "internalType": "uint8",
          "name": "version",
          "type": "uint8"
        }
      ],
      "name": "Initialized",
      "type": "event"
    },
    {
      "anonymous": false,
      "inputs": [
        {
          "indexed": true,
          "internalType": "address",
          "name": "previousOwner",
          "type": "address"
        },
        {
          "indexed": true,
          "internalType": "address",
          "name": "newOwner",
          "type": "address"
        }
      ],
      "name": "OwnershipTransferred",
      "type": "event"
    },
    {
      "anonymous": false,
      "inputs": [
        {
          "indexed": true,
          "internalType": "address",
          "name": "operator",
          "type": "address"
        },
        {
          "indexed": true,
          "internalType": "address",
          "name": "from",
          "type": "address"
        },
        {
          "indexed": true,
          "internalType": "address",
          "name": "to",
          "type": "address"
        },
        {
          "indexed": false,
          "internalType": "uint256[]",
          "name": "ids",
          "type": "uint256[]"
        },
        {
          "indexed": false,
          "internalType": "uint256[]",
          "name": "values",
          "type": "uint256[]"
        }
      ],
      "name": "TransferBatch",
      "type": "event"
    },
    {
      "anonymous": false,
      "inputs": [
        {
          "indexed": true,
          "internalType": "address",
          "name": "operator",
          "type": "address"
        },
        {
          "indexed": true,
          "internalType": "address",
          "name": "from",
          "type": "address"
        },
        {
          "indexed": true,
          "internalType": "address",
          "name": "to",
          "type": "address"
        },
        {
          "indexed": false,
          "internalType": "uint256",
          "name": "id",
          "type": "uint256"
        },
        {
          "indexed": false,
          "internalType": "uint256",
          "name": "value",
          "type": "uint256"
        }
      ],
      "name": "TransferSingle",
      "type": "event"
    },
    {
      "anonymous": false,
      "inputs": [
        {
          "indexed": false,
          "internalType": "string",
          "name": "value",
          "type": "string"
        },
        {
          "indexed": true,
          "internalType": "uint256",
          "name": "id",
          "type": "uint256"
        }
      ],
      "name": "URI",
      "type": "event"
    },
    {
      "inputs": [
        {
          "internalType": "address",
          "name": "account",
          "type": "address"
        },
        {
          "internalType": "uint256",
          "name": "id",
          "type": "uint256"
        }
      ],
      "name": "balanceOf",
      "outputs": [
        {
          "internalType": "uint256",
          "name": "",
          "type": "uint256"
        }
      ],
      "stateMutability": "view",
      "type": "function"
    },
    {
      "inputs": [
        {
          "internalType": "address[]",
          "name": "accounts",
          "type": "address[]"
        },
        {
          "internalType": "uint256[]",
          "name": "ids",
          "type": "uint256[]"
        }
      ],
      "name": "balanceOfBatch",
      "outputs": [
        {
          "internalType": "uint256[]",
          "name": "",
          "type": "uint256[]"
        }
      ],
      "stateMutability": "view",
      "type": "function"
    },
    {
      "inputs": [
        {
          "internalType": "address",
          "name": "_to",
          "type": "address"
        },
        {
          "internalType": "uint256[]",
          "name": "_ids",
          "type": "uint256[]"
        },
        {
          "internalType": "uint256[]",
          "name": "_quantities",
          "type": "uint256[]"
        },
        {
          "internalType": "bytes",
          "name": "_data",
          "type": "bytes"
        }
      ],
      "name": "batchMint",
      "outputs": [],
      "stateMutability": "nonpayable",
      "type": "function"
    },
    {
      "inputs": [],
      "name": "contractURI",
      "outputs": [
        {
          "internalType": "string",
          "name": "",
          "type": "string"
        }
      ],
      "stateMutability": "view",
      "type": "function"
    },
    {
      "inputs": [
        {
          "internalType": "address",
          "name": "_initialOwner",
          "type": "address"
        },
        {
          "internalType": "uint256",
          "name": "_initialSupply",
          "type": "uint256"
        },
        {
          "internalType": "string",
          "name": "_uri",
          "type": "string"
        },
        {
          "internalType": "bytes",
          "name": "_data",
          "type": "bytes"
        }
      ],
      "name": "create",
      "outputs": [
        {
          "internalType": "uint256",
          "name": "",
          "type": "uint256"
        }
      ],
      "stateMutability": "nonpayable",
      "type": "function"
    },
    {
      "inputs": [
        {
          "internalType": "uint256",
          "name": "",
          "type": "uint256"
        }
      ],
      "name": "creators",
      "outputs": [
        {
          "internalType": "address",
          "name": "",
          "type": "address"
        }
      ],
      "stateMutability": "view",
      "type": "function"
    },
    {
      "inputs": [
        {
          "internalType": "uint256",
          "name": "_id",
          "type": "uint256"
        }
      ],
      "name": "getIPOUnitPrice",
      "outputs": [
        {
          "internalType": "uint256",
          "name": "",
          "type": "uint256"
        }
      ],
      "stateMutability": "view",
      "type": "function"
    },
    {
      "inputs": [
        {
          "internalType": "address",
          "name": "account",
          "type": "address"
        },
        {
          "internalType": "uint256",
          "name": "id",
          "type": "uint256"
        }
      ],
      "name": "getREITBalanceOf",
      "outputs": [
        {
          "internalType": "uint256",
          "name": "",
          "type": "uint256"
        }
      ],
      "stateMutability": "view",
      "type": "function"
    },
    {
      "inputs": [
        {
          "internalType": "string",
          "name": "_name",
          "type": "string"
        },
        {
          "internalType": "string",
          "name": "_symbol",
          "type": "string"
        },
        {
          "internalType": "string",
          "name": "_uri",
          "type": "string"
        },
        {
          "internalType": "address",
          "name": "_proxyRegistryAddress",
          "type": "address"
        }
      ],
      "name": "initialize",
      "outputs": [],
      "stateMutability": "nonpayable",
      "type": "function"
    },
    {
      "inputs": [
        {
          "internalType": "address",
          "name": "account",
          "type": "address"
        },
        {
          "internalType": "address",
          "name": "operator",
          "type": "address"
        }
      ],
      "name": "isApprovedForAll",
      "outputs": [
        {
          "internalType": "bool",
          "name": "isOperator",
          "type": "bool"
        }
      ],
      "stateMutability": "view",
      "type": "function"
    },
    {
      "inputs": [
        {
          "internalType": "address",
          "name": "_to",
          "type": "address"
        },
        {
          "internalType": "uint256",
          "name": "_id",
          "type": "uint256"
        },
        {
          "internalType": "uint256",
          "name": "_quantity",
          "type": "uint256"
        },
        {
          "internalType": "bytes",
          "name": "_data",
          "type": "bytes"
        }
      ],
      "name": "mint",
      "outputs": [],
      "stateMutability": "nonpayable",
      "type": "function"
    },
    {
      "inputs": [],
      "name": "name",
      "outputs": [
        {
          "internalType": "string",
          "name": "",
          "type": "string"
        }
      ],
      "stateMutability": "view",
      "type": "function"
    },
    {
      "inputs": [],
      "name": "owner",
      "outputs": [
        {
          "internalType": "address",
          "name": "",
          "type": "address"
        }
      ],
      "stateMutability": "view",
      "type": "function"
    },
    {
      "inputs": [],
      "name": "renounceOwnership",
      "outputs": [],
      "stateMutability": "nonpayable",
      "type": "function"
    },
    {
      "inputs": [
        {
          "internalType": "address",
          "name": "from",
          "type": "address"
        },
        {
          "internalType": "address",
          "name": "to",
          "type": "address"
        },
        {
          "internalType": "uint256[]",
          "name": "ids",
          "type": "uint256[]"
        },
        {
          "internalType": "uint256[]",
          "name": "amounts",
          "type": "uint256[]"
        },
        {
          "internalType": "bytes",
          "name": "data",
          "type": "bytes"
        }
      ],
      "name": "safeBatchTransferFrom",
      "outputs": [],
      "stateMutability": "nonpayable",
      "type": "function"
    },
    {
      "inputs": [
        {
          "internalType": "address",
          "name": "from",
          "type": "address"
        },
        {
          "internalType": "address",
          "name": "to",
          "type": "address"
        },
        {
          "internalType": "uint256",
          "name": "id",
          "type": "uint256"
        },
        {
          "internalType": "uint256",
          "name": "amount",
          "type": "uint256"
        },
        {
          "internalType": "bytes",
          "name": "data",
          "type": "bytes"
        }
      ],
      "name": "safeTransferFrom",
      "outputs": [],
      "stateMutability": "nonpayable",
      "type": "function"
    },
    {
      "inputs": [
        {
          "internalType": "address",
          "name": "from",
          "type": "address"
        },
        {
          "internalType": "address",
          "name": "to",
          "type": "address"
        },
        {
          "internalType": "uint256",
          "name": "id",
          "type": "uint256"
        },
        {
          "internalType": "uint256",
          "name": "amount",
          "type": "uint256"
        }
      ],
      "name": "safeTransferREITFrom",
      "outputs": [],
      "stateMutability": "nonpayable",
      "type": "function"
    },
    {
      "inputs": [
        {
          "internalType": "address",
          "name": "operator",
          "type": "address"
        },
        {
          "internalType": "bool",
          "name": "approved",
          "type": "bool"
        }
      ],
      "name": "setApprovalForAll",
      "outputs": [],
      "stateMutability": "nonpayable",
      "type": "function"
    },
    {
      "inputs": [
        {
          "internalType": "string",
          "name": "_newBaseMetadataURI",
          "type": "string"
        }
      ],
      "name": "setBaseMetadataURI",
      "outputs": [],
      "stateMutability": "nonpayable",
      "type": "function"
    },
    {
      "inputs": [
        {
          "internalType": "string",
          "name": "_uri",
          "type": "string"
        }
      ],
      "name": "setContractURI",
      "outputs": [],
      "stateMutability": "nonpayable",
      "type": "function"
    },
    {
      "inputs": [
        {
          "internalType": "address",
          "name": "_to",
          "type": "address"
        },
        {
          "internalType": "uint256[]",
          "name": "_ids",
          "type": "uint256[]"
        }
      ],
      "name": "setCreator",
      "outputs": [],
      "stateMutability": "nonpayable",
      "type": "function"
    },
    {
      "inputs": [
        {
          "internalType": "bytes4",
          "name": "interfaceId",
          "type": "bytes4"
        }
      ],
      "name": "supportsInterface",
      "outputs": [
        {
          "internalType": "bool",
          "name": "",
          "type": "bool"
        }
      ],
      "stateMutability": "view",
      "type": "function"
    },
    {
      "inputs": [],
      "name": "symbol",
      "outputs": [
        {
          "internalType": "string",
          "name": "",
          "type": "string"
        }
      ],
      "stateMutability": "view",
      "type": "function"
    },
    {
      "inputs": [
        {
          "internalType": "uint256",
          "name": "",
          "type": "uint256"
        }
      ],
      "name": "tokenMetadata",
      "outputs": [
        {
          "internalType": "uint256",
          "name": "ipoTime",
          "type": "uint256"
        },
        {
          "internalType": "uint256",
          "name": "ipoUnitPrice",
          "type": "uint256"
        },
        {
          "internalType": "uint256",
          "name": "yieldPeriod",
          "type": "uint256"
        },
        {
          "internalType": "uint256",
          "name": "yieldDividend",
          "type": "uint256"
        },
        {
          "internalType": "uint256",
          "name": "liquidationTime",
          "type": "uint256"
        },
        {
          "internalType": "uint256",
          "name": "liquidationExtension",
          "type": "uint256"
        }
      ],
      "stateMutability": "view",
      "type": "function"
    },
    {
      "inputs": [
        {
          "internalType": "uint256",
          "name": "",
          "type": "uint256"
        }
      ],
      "name": "tokenSupply",
      "outputs": [
        {
          "internalType": "uint256",
          "name": "",
          "type": "uint256"
        }
      ],
      "stateMutability": "view",
      "type": "function"
    },
    {
      "inputs": [
        {
          "internalType": "uint256",
          "name": "",
          "type": "uint256"
        }
      ],
      "name": "tokenUri",
      "outputs": [
        {
          "internalType": "string",
          "name": "",
          "type": "string"
        }
      ],
      "stateMutability": "view",
      "type": "function"
    },
    {
      "inputs": [
        {
          "internalType": "uint256",
          "name": "_id",
          "type": "uint256"
        }
      ],
      "name": "totalSupply",
      "outputs": [
        {
          "internalType": "uint256",
          "name": "",
          "type": "uint256"
        }
      ],
      "stateMutability": "view",
      "type": "function"
    },
    {
      "inputs": [
        {
          "internalType": "address",
          "name": "newOwner",
          "type": "address"
        }
      ],
      "name": "transferOwnership",
      "outputs": [],
      "stateMutability": "nonpayable",
      "type": "function"
    },
    {
      "inputs": [
        {
          "internalType": "uint256",
          "name": "_id",
          "type": "uint256"
        }
      ],
      "name": "uri",
      "outputs": [
        {
          "internalType": "string",
          "name": "",
          "type": "string"
        }
      ],
      "stateMutability": "view",
      "type": "function"
    }
  ],
  "bytecode": "0x608060405234801561001057600080fd5b50612aec806100206000396000f3fe608060405234801561001057600080fd5b50600436106101ce5760003560e01c80638da5cb5b11610104578063cd53d08e116100a2578063e985e9c511610071578063e985e9c514610470578063f242432a14610483578063f2fde38b14610496578063f7cc4052146104a957600080fd5b8063cd53d08e14610419578063d2a6b51a14610442578063e38e3b2414610455578063e8a3d4851461046857600080fd5b8063a22cb465116100de578063a22cb465146103c0578063b48ab8b6146103d3578063bd85b039146103e6578063c166e10e1461040657600080fd5b80638da5cb5b14610380578063938e3d7b146103a557806395d89b41146103b857600080fd5b80634e1273f4116101715780636914db601161014b5780636914db60146102e2578063715018a614610352578063731133e91461035a5780637e518ec81461036d57600080fd5b80634e1273f41461028c5780635c6d8da1146102ac57806368a14077146102bf57600080fd5b80630e89341c116101ad5780630e89341c146102315780631675f455146102445780632693ebf2146102575780632eb2c2d61461027757600080fd5b8062fdd58e146101d357806301ffc9a7146101f957806306fdde031461021c575b600080fd5b6101e66101e1366004611dc9565b6104bc565b6040519081526020015b60405180910390f35b61020c610207366004611e0b565b610558565b60405190151581526020016101f0565b6102246105a8565b6040516101f09190611e75565b61022461023f366004611e88565b610636565b610224610252366004611e88565b6106d8565b6101e6610265366004611e88565b609a6020526000908152604090205481565b61028a610285366004611fea565b6106f1565b005b61029f61029a366004612097565b610788565b6040516101f0919061219e565b61028a6102ba3660046121b1565b6108b1565b6101e66102cd366004611e88565b600090815260a0602052604090206001015490565b6103256102f0366004611e88565b60a060205260009081526040902080546001820154600283015460038401546004850154600590950154939492939192909186565b604080519687526020870195909552938501929092526060840152608083015260a082015260c0016101f0565b61028a61098f565b61028a61036836600461224b565b6109c5565b61028a61037b3660046122ad565b610a3b565b609d546001600160a01b03165b6040516001600160a01b0390911681526020016101f0565b61028a6103b33660046122ad565b610a71565b610224610ab2565b61028a6103ce3660046122e1565b610abf565b61028a6103e136600461231f565b610aca565b6101e66103f4366004611e88565b6000908152609a602052604090205490565b6101e6610414366004611dc9565b610c5f565b61038d610427366004611e88565b6099602052600090815260409020546001600160a01b031681565b61028a6104503660046123ad565b610c72565b6101e661046336600461243a565b610d29565b610224610fa3565b61020c61047e3660046124c5565b611035565b61028a6104913660046124f3565b611105565b61028a6104a436600461255b565b61118c565b61028a6104b7366004612578565b611224565b60006001600160a01b03831661052d5760405162461bcd60e51b815260206004820152602b60248201527f455243313135353a2062616c616e636520717565727920666f7220746865207a60448201526a65726f206164647265737360a81b60648201526084015b60405180910390fd5b5060008181526065602090815260408083206001600160a01b03861684529091529020545b92915050565b60006001600160e01b03198216636cdb3d1360e11b148061058957506001600160e01b031982166303a24d0760e21b145b8061055257506301ffc9a760e01b6001600160e01b0319831614610552565b609e80546105b5906125be565b80601f01602080910402602001604051908101604052809291908181526020018280546105e1906125be565b801561062e5780601f106106035761010080835404028352916020019161062e565b820191906000526020600020905b81548152906001019060200180831161061157829003601f168201915b505050505081565b6000818152609b60205260409020805460609190610653906125be565b80601f016020809104026020016040519081016040528092919081815260200182805461067f906125be565b80156106cc5780601f106106a1576101008083540402835291602001916106cc565b820191906000526020600020905b8154815290600101906020018083116106af57829003601f168201915b50505050509050919050565b609b60205260009081526040902080546105b5906125be565b6001600160a01b03851633148061070d575061070d8533611035565b6107745760405162461bcd60e51b815260206004820152603260248201527f455243313135353a207472616e736665722063616c6c6572206973206e6f74206044820152711bdddb995c881b9bdc88185c1c1c9bdd995960721b6064820152608401610524565b6107818585858585611233565b5050505050565b606081518351146107ed5760405162461bcd60e51b815260206004820152602960248201527f455243313135353a206163636f756e747320616e6420696473206c656e677468604482015268040dad2e6dac2e8c6d60bb1b6064820152608401610524565b600083516001600160401b0381111561080857610808611ea1565b604051908082528060200260200182016040528015610831578160200160208202803683370190505b50905060005b84518110156108a95761087c858281518110610855576108556125f9565b602002602001015185838151811061086f5761086f6125f9565b60200260200101516104bc565b82828151811061088e5761088e6125f9565b60209081029190910101526108a281612625565b9050610837565b509392505050565b60006108bd60016113d2565b905080156108d5576000805461ff0019166101001790555b6108de8361145a565b84516108f190609e906020880190611c6d565b50835161090590609f906020870190611c6d565b50609780546001600160a01b0319166001600160a01b0384161790556000609855825161093990609c906020860190611c6d565b506109433361148a565b8015610781576000805461ff0019169055604051600181527f7f26b83ff96e1f2b6a682f133852f6798a09c465da95921460cefb38474024989060200160405180910390a15050505050565b609d546001600160a01b031633146109b95760405162461bcd60e51b815260040161052490612640565b6109c3600061148a565b565b60008381526099602052604090205483906001600160a01b031633146109fd5760405162461bcd60e51b815260040161052490612675565b610a09858585856114dc565b6000848152609a6020526040902054610a2290846115b8565b6000948552609a60205260409094209390935550505050565b609d546001600160a01b03163314610a655760405162461bcd60e51b815260040161052490612640565b610a6e816115c4565b50565b609d546001600160a01b03163314610a9b5760405162461bcd60e51b815260040161052490612640565b8051610aae90609c906020840190611c6d565b5050565b609f80546105b5906125be565b610aae3383836115d7565b8151835114610b345760405162461bcd60e51b815260206004820152603060248201527f455243313135354d696e744275726e2362617463684d696e743a20494e56414c60448201526f09288be82a4a482b2a6be988a9c8ea8960831b6064820152608401610524565b60005b8351811015610c4c576000848281518110610b5457610b546125f9565b602090810291909101810151600081815260999092526040909120549091506001600160a01b03163314610be25760405162461bcd60e51b815260206004820152602f60248201527f455243313135355472616461626c652362617463684d696e743a204f4e4c595f60448201526e10d491505513d497d0531313d5d151608a1b6064820152608401610524565b6000848381518110610bf657610bf66125f9565b60200260200101519050610c2681609a6000858152602001908152602001600020546115b890919063ffffffff16565b6000928352609a6020526040909220919091555080610c4481612625565b915050610b37565b50610c59848484846116b8565b50505050565b6000610c6b83836104bc565b9392505050565b6001600160a01b038216610cdd5760405162461bcd60e51b815260206004820152602c60248201527f455243313135355472616461626c652373657443726561746f723a20494e564160448201526b2624a22fa0a2222922a9a99760a11b6064820152608401610524565b60005b8151811015610d24576000828281518110610cfd57610cfd6125f9565b60200260200101519050610d118482611804565b5080610d1c81612625565b915050610ce0565b505050565b609d546000906001600160a01b03163314610d565760405162461bcd60e51b815260040161052490612640565b6000610d6061186b565b9050610d6a611881565b600081815260996020526040902080546001600160a01b031916331790558415610de357807f6bb7ff708619ba0610cba295a58592e0451dee2622938c8755667688daf3529b8787604051610dc09291906126c6565b60405180910390a26000818152609b60205260409020610de1908787611cf1565b505b60405180610100016040528060008152602001600081526020016000815260200160008152602001600081526020016000815260200160006001600160401b03811115610e3257610e32611ea1565b604051908082528060200260200182016040528015610e5b578160200160208202803683370190505b5081526020016000604051908082528060200260200182016040528015610e8c578160200160208202803683370190505b509052600082815260a0602081815260409283902084518155848201516001820155928401516002840155606084015160038401556080840151600484015590830151600583015560c08301518051610eeb9260068501920190611d65565b5060e08201518051610f07916007840191602090910190611d65565b50905050610f4d88828987878080601f0160208091040260200160405190810160405280939291908181526020018383808284376000920191909152506114dc92505050565b6000818152609a602052604090819020889055517f07eac9a0695a188fe9d6fd680bcbbbe39041fb114d5d7ac11252401391f7930790610f909083815260200190565b60405180910390a1979650505050505050565b6060609c8054610fb2906125be565b80601f0160208091040260200160405190810160405280929190818152602001828054610fde906125be565b801561102b5780601f106110005761010080835404028352916020019161102b565b820191906000526020600020905b81548152906001019060200180831161100e57829003601f168201915b5050505050905090565b60975460405163c455279160e01b81526001600160a01b03848116600483015260009281169190841690829063c45527919060240160206040518083038186803b15801561108257600080fd5b505afa158015611096573d6000803e3d6000fd5b505050506040513d601f19601f820116820180604052508101906110ba91906126f5565b6001600160a01b031614156110d3576001915050610552565b6001600160a01b0380851660009081526066602090815260408083209387168352929052205460ff165b949350505050565b6001600160a01b03851633148061112157506111218533611035565b61117f5760405162461bcd60e51b815260206004820152602960248201527f455243313135353a2063616c6c6572206973206e6f74206f776e6572206e6f7260448201526808185c1c1c9bdd995960ba1b6064820152608401610524565b6107818585858585611898565b609d546001600160a01b031633146111b65760405162461bcd60e51b815260040161052490612640565b6001600160a01b03811661121b5760405162461bcd60e51b815260206004820152602660248201527f4f776e61626c653a206e6577206f776e657220697320746865207a65726f206160448201526564647265737360d01b6064820152608401610524565b610a6e8161148a565b60606107818585858585611105565b81518351146112545760405162461bcd60e51b815260040161052490612712565b6001600160a01b03841661127a5760405162461bcd60e51b81526004016105249061275a565b3360005b845181101561136457600085828151811061129b5761129b6125f9565b6020026020010151905060008583815181106112b9576112b96125f9565b60209081029190910181015160008481526065835260408082206001600160a01b038e16835290935291909120549091508181101561130a5760405162461bcd60e51b81526004016105249061279f565b60008381526065602090815260408083206001600160a01b038e8116855292528083208585039055908b168252812080548492906113499084906127e9565b925050819055505050508061135d90612625565b905061127e565b50846001600160a01b0316866001600160a01b0316826001600160a01b03167f4a39dc06d4c0dbc64b70af90fd698a233a518aa5d07e595d983b8c0526c8f7fb87876040516113b4929190612801565b60405180910390a46113ca8187878787876119c6565b505050505050565b60008054610100900460ff1615611419578160ff1660011480156113f55750303b155b6114115760405162461bcd60e51b81526004016105249061282f565b506000919050565b60005460ff8084169116106114405760405162461bcd60e51b81526004016105249061282f565b506000805460ff191660ff92909216919091179055600190565b600054610100900460ff166114815760405162461bcd60e51b81526004016105249061287d565b610a6e81611b31565b609d80546001600160a01b038381166001600160a01b0319831681179093556040519116919082907f8be0079c531659141344cd1fd0a4f28419497f9722a3daafe3b4186f6b6457e090600090a35050565b6001600160a01b0384166115025760405162461bcd60e51b8152600401610524906128c8565b33600061150e85611b58565b9050600061151b85611b58565b905060008681526065602090815260408083206001600160a01b038b1684529091528120805487929061154f9084906127e9565b909155505060408051878152602081018790526001600160a01b03808a1692600092918716917fc3d58168c5ae7397731d063d5bbf3d657854427343f4c083240f7aacaa2d0f62910160405180910390a46115af83600089898989611ba3565b50505050505050565b6000610c6b82846127e9565b8051610aae906067906020840190611c6d565b816001600160a01b0316836001600160a01b0316141561164b5760405162461bcd60e51b815260206004820152602960248201527f455243313135353a2073657474696e6720617070726f76616c20737461747573604482015268103337b91039b2b63360b91b6064820152608401610524565b6001600160a01b03838116600081815260666020908152604080832094871680845294825291829020805460ff191686151590811790915591519182527f17307eab39ab6107e8899845ad3d59bd9653f200f220920489ca2b5937696c31910160405180910390a3505050565b6001600160a01b0384166116de5760405162461bcd60e51b8152600401610524906128c8565b81518351146116ff5760405162461bcd60e51b815260040161052490612712565b3360005b845181101561179c5783818151811061171e5761171e6125f9565b60200260200101516065600087848151811061173c5761173c6125f9565b602002602001015181526020019081526020016000206000886001600160a01b03166001600160a01b03168152602001908152602001600020600082825461178491906127e9565b9091555081905061179481612625565b915050611703565b50846001600160a01b031660006001600160a01b0316826001600160a01b03167f4a39dc06d4c0dbc64b70af90fd698a233a518aa5d07e595d983b8c0526c8f7fb87876040516117ed929190612801565b60405180910390a4610781816000878787876119c6565b60008181526099602052604090205481906001600160a01b0316331461183c5760405162461bcd60e51b815260040161052490612675565b50600090815260996020526040902080546001600160a01b0319166001600160a01b0392909216919091179055565b60985460009061187c9060016115b8565b905090565b6098805490600061189183612625565b9190505550565b6001600160a01b0384166118be5760405162461bcd60e51b81526004016105249061275a565b3360006118ca85611b58565b905060006118d785611b58565b905060008681526065602090815260408083206001600160a01b038c1684529091529020548581101561191c5760405162461bcd60e51b81526004016105249061279f565b60008781526065602090815260408083206001600160a01b038d8116855292528083208985039055908a1682528120805488929061195b9084906127e9565b909155505060408051888152602081018890526001600160a01b03808b16928c821692918816917fc3d58168c5ae7397731d063d5bbf3d657854427343f4c083240f7aacaa2d0f62910160405180910390a46119bb848a8a8a8a8a611ba3565b505050505050505050565b6001600160a01b0384163b156113ca5760405163bc197c8160e01b81526001600160a01b0385169063bc197c8190611a0a9089908990889088908890600401612909565b602060405180830381600087803b158015611a2457600080fd5b505af1925050508015611a54575060408051601f3d908101601f19168201909252611a5191810190612967565b60015b611b0157611a60612984565b806308c379a01415611a9a5750611a756129a0565b80611a805750611a9c565b8060405162461bcd60e51b81526004016105249190611e75565b505b60405162461bcd60e51b815260206004820152603460248201527f455243313135353a207472616e7366657220746f206e6f6e20455243313135356044820152732932b1b2b4bb32b91034b6b83632b6b2b73a32b960611b6064820152608401610524565b6001600160e01b0319811663bc197c8160e01b146115af5760405162461bcd60e51b815260040161052490612a29565b600054610100900460ff16610a655760405162461bcd60e51b81526004016105249061287d565b60408051600180825281830190925260609160009190602080830190803683370190505090508281600081518110611b9257611b926125f9565b602090810291909101015292915050565b6001600160a01b0384163b156113ca5760405163f23a6e6160e01b81526001600160a01b0385169063f23a6e6190611be79089908990889088908890600401612a71565b602060405180830381600087803b158015611c0157600080fd5b505af1925050508015611c31575060408051601f3d908101601f19168201909252611c2e91810190612967565b60015b611c3d57611a60612984565b6001600160e01b0319811663f23a6e6160e01b146115af5760405162461bcd60e51b815260040161052490612a29565b828054611c79906125be565b90600052602060002090601f016020900481019282611c9b5760008555611ce1565b82601f10611cb457805160ff1916838001178555611ce1565b82800160010185558215611ce1579182015b82811115611ce1578251825591602001919060010190611cc6565b50611ced929150611d9f565b5090565b828054611cfd906125be565b90600052602060002090601f016020900481019282611d1f5760008555611ce1565b82601f10611d385782800160ff19823516178555611ce1565b82800160010185558215611ce1579182015b82811115611ce1578235825591602001919060010190611d4a565b828054828255906000526020600020908101928215611ce15791602002820182811115611ce1578251825591602001919060010190611cc6565b5b80821115611ced5760008155600101611da0565b6001600160a01b0381168114610a6e57600080fd5b60008060408385031215611ddc57600080fd5b8235611de781611db4565b946020939093013593505050565b6001600160e01b031981168114610a6e57600080fd5b600060208284031215611e1d57600080fd5b8135610c6b81611df5565b6000815180845260005b81811015611e4e57602081850181015186830182015201611e32565b81811115611e60576000602083870101525b50601f01601f19169290920160200192915050565b602081526000610c6b6020830184611e28565b600060208284031215611e9a57600080fd5b5035919050565b634e487b7160e01b600052604160045260246000fd5b601f8201601f191681016001600160401b0381118282101715611edc57611edc611ea1565b6040525050565b60006001600160401b03821115611efc57611efc611ea1565b5060051b60200190565b600082601f830112611f1757600080fd5b81356020611f2482611ee3565b604051611f318282611eb7565b83815260059390931b8501820192828101915086841115611f5157600080fd5b8286015b84811015611f6c5780358352918301918301611f55565b509695505050505050565b600082601f830112611f8857600080fd5b81356001600160401b03811115611fa157611fa1611ea1565b604051611fb8601f8301601f191660200182611eb7565b818152846020838601011115611fcd57600080fd5b816020850160208301376000918101602001919091529392505050565b600080600080600060a0868803121561200257600080fd5b853561200d81611db4565b9450602086013561201d81611db4565b935060408601356001600160401b038082111561203957600080fd5b61204589838a01611f06565b9450606088013591508082111561205b57600080fd5b61206789838a01611f06565b9350608088013591508082111561207d57600080fd5b5061208a88828901611f77565b9150509295509295909350565b600080604083850312156120aa57600080fd5b82356001600160401b03808211156120c157600080fd5b818501915085601f8301126120d557600080fd5b813560206120e282611ee3565b6040516120ef8282611eb7565b83815260059390931b850182019282810191508984111561210f57600080fd5b948201945b8386101561213657853561212781611db4565b82529482019490820190612114565b9650508601359250508082111561214c57600080fd5b5061215985828601611f06565b9150509250929050565b600081518084526020808501945080840160005b8381101561219357815187529582019590820190600101612177565b509495945050505050565b602081526000610c6b6020830184612163565b600080600080608085870312156121c757600080fd5b84356001600160401b03808211156121de57600080fd5b6121ea88838901611f77565b9550602087013591508082111561220057600080fd5b61220c88838901611f77565b9450604087013591508082111561222257600080fd5b5061222f87828801611f77565b925050606085013561224081611db4565b939692955090935050565b6000806000806080858703121561226157600080fd5b843561226c81611db4565b9350602085013592506040850135915060608501356001600160401b0381111561229557600080fd5b6122a187828801611f77565b91505092959194509250565b6000602082840312156122bf57600080fd5b81356001600160401b038111156122d557600080fd5b6110fd84828501611f77565b600080604083850312156122f457600080fd5b82356122ff81611db4565b91506020830135801515811461231457600080fd5b809150509250929050565b6000806000806080858703121561233557600080fd5b843561234081611db4565b935060208501356001600160401b038082111561235c57600080fd5b61236888838901611f06565b9450604087013591508082111561237e57600080fd5b61238a88838901611f06565b935060608701359150808211156123a057600080fd5b506122a187828801611f77565b600080604083850312156123c057600080fd5b82356123cb81611db4565b915060208301356001600160401b038111156123e657600080fd5b61215985828601611f06565b60008083601f84011261240457600080fd5b5081356001600160401b0381111561241b57600080fd5b60208301915083602082850101111561243357600080fd5b9250929050565b6000806000806000806080878903121561245357600080fd5b863561245e81611db4565b95506020870135945060408701356001600160401b038082111561248157600080fd5b61248d8a838b016123f2565b909650945060608901359150808211156124a657600080fd5b506124b389828a016123f2565b979a9699509497509295939492505050565b600080604083850312156124d857600080fd5b82356124e381611db4565b9150602083013561231481611db4565b600080600080600060a0868803121561250b57600080fd5b853561251681611db4565b9450602086013561252681611db4565b9350604086013592506060860135915060808601356001600160401b0381111561254f57600080fd5b61208a88828901611f77565b60006020828403121561256d57600080fd5b8135610c6b81611db4565b6000806000806080858703121561258e57600080fd5b843561259981611db4565b935060208501356125a981611db4565b93969395505050506040820135916060013590565b600181811c908216806125d257607f821691505b602082108114156125f357634e487b7160e01b600052602260045260246000fd5b50919050565b634e487b7160e01b600052603260045260246000fd5b634e487b7160e01b600052601160045260246000fd5b60006000198214156126395761263961260f565b5060010190565b6020808252818101527f4f776e61626c653a2063616c6c6572206973206e6f7420746865206f776e6572604082015260600190565b60208082526031908201527f455243313135355472616461626c652363726561746f724f6e6c793a204f4e4c6040820152701657d0d491505513d497d0531313d5d151607a1b606082015260800190565b60208152816020820152818360408301376000818301604090810191909152601f909201601f19160101919050565b60006020828403121561270757600080fd5b8151610c6b81611db4565b60208082526028908201527f455243313135353a2069647320616e6420616d6f756e7473206c656e677468206040820152670dad2e6dac2e8c6d60c31b606082015260800190565b60208082526025908201527f455243313135353a207472616e7366657220746f20746865207a65726f206164604082015264647265737360d81b606082015260800190565b6020808252602a908201527f455243313135353a20696e73756666696369656e742062616c616e636520666f60408201526939103a3930b739b332b960b11b606082015260800190565b600082198211156127fc576127fc61260f565b500190565b6040815260006128146040830185612163565b82810360208401526128268185612163565b95945050505050565b6020808252602e908201527f496e697469616c697a61626c653a20636f6e747261637420697320616c72656160408201526d191e481a5b9a5d1a585b1a5e995960921b606082015260800190565b6020808252602b908201527f496e697469616c697a61626c653a20636f6e7472616374206973206e6f74206960408201526a6e697469616c697a696e6760a81b606082015260800190565b60208082526021908201527f455243313135353a206d696e7420746f20746865207a65726f206164647265736040820152607360f81b606082015260800190565b6001600160a01b0386811682528516602082015260a06040820181905260009061293590830186612163565b82810360608401526129478186612163565b9050828103608084015261295b8185611e28565b98975050505050505050565b60006020828403121561297957600080fd5b8151610c6b81611df5565b600060033d111561299d5760046000803e5060005160e01c5b90565b600060443d10156129ae5790565b6040516003193d81016004833e81513d6001600160401b0381602484011181841117156129dd57505050505090565b82850191508151818111156129f55750505050505090565b843d8701016020828501011115612a0f5750505050505090565b612a1e60208286010187611eb7565b509095945050505050565b60208082526028908201527f455243313135353a204552433131353552656365697665722072656a656374656040820152676420746f6b656e7360c01b606082015260800190565b6001600160a01b03868116825285166020820152604081018490526060810183905260a060808201819052600090612aab90830184611e28565b97965050505050505056fea2646970667358221220bce45aeb9fb64275b7d4f26f29312dd3331e4236ded1ecf72a69babbec62f27b64736f6c63430008090033",
  "linkReferences": {},
  "deployedLinkReferences": {}
}