{
  "_format": "hh-sol-artifact-1",
  "contractName": "REITNFT",
  "sourceName": "contracts/REITNFT.sol",
  "abi": [
    {
      "anonymous": false,
      "inputs": [
        {
          "indexed": true,
          "internalType": "address",
          "name": "account",
          "type": "address"
        },
        {
          "indexed": true,
          "internalType": "address",
          "name": "operator",
          "type": "address"
        },
        {
          "indexed": false,
          "internalType": "bool",
          "name": "approved",
          "type": "bool"
        }
      ],
      "name": "ApprovalForAll",
      "type": "event"
    },
    {
      "anonymous": false,
      "inputs": [
        {
          "indexed": false,
          "internalType": "uint256",
          "name": "id",
          "type": "uint256"
        }
      ],
      "name": "Create",
      "type": "event"
    },
    {
      "anonymous": false,
      "inputs": [
        {
          "indexed": true,
          "internalType": "address",
          "name": "previousGovernor",
          "type": "address"
        },
        {
          "indexed": true,
          "internalType": "address",
          "name": "newGovernor",
          "type": "address"
        }
      ],
      "name": "GovernorshipTransferred",
      "type": "event"
    },
    {
      "anonymous": false,
      "inputs": [
        {
          "indexed": false,
          "internalType": "uint8",
          "name": "version",
          "type": "uint8"
        }
      ],
      "name": "Initialized",
      "type": "event"
    },
    {
      "anonymous": false,
      "inputs": [
        {
          "indexed": true,
          "internalType": "address",
          "name": "operator",
          "type": "address"
        },
        {
          "indexed": true,
          "internalType": "address",
          "name": "from",
          "type": "address"
        },
        {
          "indexed": true,
          "internalType": "address",
          "name": "to",
          "type": "address"
        },
        {
          "indexed": false,
          "internalType": "uint256[]",
          "name": "ids",
          "type": "uint256[]"
        },
        {
          "indexed": false,
          "internalType": "uint256[]",
          "name": "values",
          "type": "uint256[]"
        }
      ],
      "name": "TransferBatch",
      "type": "event"
    },
    {
      "anonymous": false,
      "inputs": [
        {
          "indexed": true,
          "internalType": "address",
          "name": "operator",
          "type": "address"
        },
        {
          "indexed": true,
          "internalType": "address",
          "name": "from",
          "type": "address"
        },
        {
          "indexed": true,
          "internalType": "address",
          "name": "to",
          "type": "address"
        },
        {
          "indexed": false,
          "internalType": "uint256",
          "name": "id",
          "type": "uint256"
        },
        {
          "indexed": false,
          "internalType": "uint256",
          "name": "value",
          "type": "uint256"
        }
      ],
      "name": "TransferSingle",
      "type": "event"
    },
    {
      "anonymous": false,
      "inputs": [
        {
          "indexed": false,
          "internalType": "string",
          "name": "value",
          "type": "string"
        },
        {
          "indexed": true,
          "internalType": "uint256",
          "name": "id",
          "type": "uint256"
        }
      ],
      "name": "URI",
      "type": "event"
    },
    {
      "inputs": [
        {
          "internalType": "address[]",
          "name": "accounts",
          "type": "address[]"
        }
      ],
      "name": "addManyToKYC",
      "outputs": [],
      "stateMutability": "nonpayable",
      "type": "function"
    },
    {
      "inputs": [
        {
          "internalType": "address",
          "name": "account",
          "type": "address"
        }
      ],
      "name": "addToKYC",
      "outputs": [],
      "stateMutability": "nonpayable",
      "type": "function"
    },
    {
      "inputs": [
        {
          "internalType": "address",
          "name": "account",
          "type": "address"
        },
        {
          "internalType": "uint256",
          "name": "id",
          "type": "uint256"
        }
      ],
      "name": "balanceOf",
      "outputs": [
        {
          "internalType": "uint256",
          "name": "",
          "type": "uint256"
        }
      ],
      "stateMutability": "view",
      "type": "function"
    },
    {
      "inputs": [
        {
          "internalType": "address[]",
          "name": "accounts",
          "type": "address[]"
        },
        {
          "internalType": "uint256[]",
          "name": "ids",
          "type": "uint256[]"
        }
      ],
      "name": "balanceOfBatch",
      "outputs": [
        {
          "internalType": "uint256[]",
          "name": "",
          "type": "uint256[]"
        }
      ],
      "stateMutability": "view",
      "type": "function"
    },
    {
      "inputs": [
        {
          "internalType": "address",
          "name": "_to",
          "type": "address"
        },
        {
          "internalType": "uint256[]",
          "name": "_ids",
          "type": "uint256[]"
        },
        {
          "internalType": "uint256[]",
          "name": "_quantities",
          "type": "uint256[]"
        },
        {
          "internalType": "bytes",
          "name": "_data",
          "type": "bytes"
        }
      ],
      "name": "batchMint",
      "outputs": [],
      "stateMutability": "nonpayable",
      "type": "function"
    },
    {
      "inputs": [
        {
          "internalType": "uint256",
          "name": "_id",
          "type": "uint256"
        }
      ],
      "name": "claimBenefit",
      "outputs": [],
      "stateMutability": "nonpayable",
      "type": "function"
    },
    {
      "inputs": [],
      "name": "contractURI",
      "outputs": [
        {
          "internalType": "string",
          "name": "",
          "type": "string"
        }
      ],
      "stateMutability": "view",
      "type": "function"
    },
    {
      "inputs": [
        {
          "internalType": "address",
          "name": "_initialOwner",
          "type": "address"
        },
        {
          "internalType": "uint256",
          "name": "_initialSupply",
          "type": "uint256"
        },
        {
          "internalType": "string",
          "name": "_uri",
          "type": "string"
        },
        {
          "internalType": "address",
          "name": "_fundingToken",
          "type": "address"
        },
        {
          "internalType": "bytes",
          "name": "_data",
          "type": "bytes"
        }
      ],
      "name": "createREIT",
      "outputs": [
        {
          "internalType": "uint256",
          "name": "",
          "type": "uint256"
        }
      ],
      "stateMutability": "nonpayable",
      "type": "function"
    },
    {
      "inputs": [
        {
          "internalType": "uint256",
          "name": "",
          "type": "uint256"
        }
      ],
      "name": "creators",
      "outputs": [
        {
          "internalType": "address",
          "name": "",
          "type": "address"
        }
      ],
      "stateMutability": "view",
      "type": "function"
    },
    {
      "inputs": [
        {
          "internalType": "uint256",
          "name": "",
          "type": "uint256"
        }
      ],
      "name": "dividendFunds",
      "outputs": [
        {
          "internalType": "uint256",
          "name": "",
          "type": "uint256"
        }
      ],
      "stateMutability": "view",
      "type": "function"
    },
    {
      "inputs": [
        {
          "internalType": "uint256",
          "name": "_id",
          "type": "uint256"
        }
      ],
      "name": "getBalanceRegistrationFee",
      "outputs": [
        {
          "internalType": "uint256",
          "name": "",
          "type": "uint256"
        }
      ],
      "stateMutability": "view",
      "type": "function"
    },
    {
      "inputs": [
        {
          "internalType": "uint256",
          "name": "_id",
          "type": "uint256"
        }
      ],
      "name": "getClaimedBenefit",
      "outputs": [
        {
          "internalType": "uint256",
          "name": "",
          "type": "uint256"
        }
      ],
      "stateMutability": "view",
      "type": "function"
    },
    {
      "inputs": [
        {
          "internalType": "uint256",
          "name": "_id",
          "type": "uint256"
        }
      ],
      "name": "getIPOContract",
      "outputs": [
        {
          "internalType": "address",
          "name": "",
          "type": "address"
        }
      ],
      "stateMutability": "view",
      "type": "function"
    },
    {
      "inputs": [
        {
          "internalType": "uint256",
          "name": "_id",
          "type": "uint256"
        }
      ],
      "name": "getShareUnitPrice",
      "outputs": [
        {
          "internalType": "uint256",
          "name": "",
          "type": "uint256"
        }
      ],
      "stateMutability": "view",
      "type": "function"
    },
    {
      "inputs": [
        {
          "internalType": "uint256",
          "name": "_id",
          "type": "uint256"
        }
      ],
      "name": "getTotalBenefit",
      "outputs": [
        {
          "internalType": "uint256",
          "name": "",
          "type": "uint256"
        }
      ],
      "stateMutability": "view",
      "type": "function"
    },
    {
      "inputs": [],
      "name": "governor",
      "outputs": [
        {
          "internalType": "address",
          "name": "",
          "type": "address"
        }
      ],
      "stateMutability": "view",
      "type": "function"
    },
    {
      "inputs": [
        {
          "internalType": "string",
          "name": "_name",
          "type": "string"
        },
        {
          "internalType": "string",
          "name": "_symbol",
          "type": "string"
        },
        {
          "internalType": "string",
          "name": "_uri",
          "type": "string"
        }
      ],
      "name": "initialize",
      "outputs": [],
      "stateMutability": "nonpayable",
      "type": "function"
    },
    {
      "inputs": [
        {
          "internalType": "uint256",
          "name": "_id",
          "type": "uint256"
        },
        {
          "internalType": "uint256",
          "name": "ipoTime",
          "type": "uint256"
        },
        {
          "internalType": "uint256",
          "name": "ipoUnitPrice",
          "type": "uint256"
        },
        {
          "internalType": "uint256",
          "name": "liquidationTime",
          "type": "uint256"
        },
        {
          "internalType": "uint256",
          "name": "registerationTaxRate",
          "type": "uint256"
        }
      ],
      "name": "initiate",
      "outputs": [],
      "stateMutability": "nonpayable",
      "type": "function"
    },
    {
      "inputs": [
        {
          "internalType": "address",
          "name": "account",
          "type": "address"
        },
        {
          "internalType": "address",
          "name": "operator",
          "type": "address"
        }
      ],
      "name": "isApprovedForAll",
      "outputs": [
        {
          "internalType": "bool",
          "name": "",
          "type": "bool"
        }
      ],
      "stateMutability": "view",
      "type": "function"
    },
    {
      "inputs": [
        {
          "internalType": "uint256",
          "name": "_id",
          "type": "uint256"
        },
        {
          "internalType": "address",
          "name": "account",
          "type": "address"
        }
      ],
      "name": "isIPOContract",
      "outputs": [
        {
          "internalType": "bool",
          "name": "",
          "type": "bool"
        }
      ],
      "stateMutability": "view",
      "type": "function"
    },
    {
      "inputs": [
        {
          "internalType": "address",
          "name": "account",
          "type": "address"
        }
      ],
      "name": "isKYC",
      "outputs": [
        {
          "internalType": "bool",
          "name": "",
          "type": "bool"
        }
      ],
      "stateMutability": "view",
      "type": "function"
    },
    {
      "inputs": [
        {
          "internalType": "address",
          "name": "_to",
          "type": "address"
        },
        {
          "internalType": "uint256",
          "name": "_id",
          "type": "uint256"
        },
        {
          "internalType": "uint256",
          "name": "_quantity",
          "type": "uint256"
        },
        {
          "internalType": "bytes",
          "name": "_data",
          "type": "bytes"
        }
      ],
      "name": "mint",
      "outputs": [],
      "stateMutability": "nonpayable",
      "type": "function"
    },
    {
      "inputs": [],
      "name": "name",
      "outputs": [
        {
          "internalType": "string",
          "name": "",
          "type": "string"
        }
      ],
      "stateMutability": "view",
      "type": "function"
    },
    {
      "inputs": [
        {
          "internalType": "uint256",
          "name": "_id",
          "type": "uint256"
        },
        {
          "internalType": "uint256",
          "name": "amount",
          "type": "uint256"
        }
      ],
      "name": "payDividends",
      "outputs": [],
      "stateMutability": "nonpayable",
      "type": "function"
    },
    {
      "inputs": [
        {
          "internalType": "uint256",
          "name": "_id",
          "type": "uint256"
        }
      ],
      "name": "registerBalanceOwnership",
      "outputs": [],
      "stateMutability": "nonpayable",
      "type": "function"
    },
    {
      "inputs": [
        {
          "internalType": "address",
          "name": "account",
          "type": "address"
        },
        {
          "internalType": "uint256",
          "name": "id",
          "type": "uint256"
        }
      ],
      "name": "registeredBalanceOf",
      "outputs": [
        {
          "internalType": "uint256",
          "name": "",
          "type": "uint256"
        }
      ],
      "stateMutability": "view",
      "type": "function"
    },
    {
      "inputs": [
        {
          "internalType": "address",
          "name": "account",
          "type": "address"
        }
      ],
      "name": "removeKYC",
      "outputs": [],
      "stateMutability": "nonpayable",
      "type": "function"
    },
    {
      "inputs": [
        {
          "internalType": "address[]",
          "name": "accounts",
          "type": "address[]"
        }
      ],
      "name": "removeManyKYC",
      "outputs": [],
      "stateMutability": "nonpayable",
      "type": "function"
    },
    {
      "inputs": [],
      "name": "renounceGovernorship",
      "outputs": [],
      "stateMutability": "nonpayable",
      "type": "function"
    },
    {
      "inputs": [],
      "name": "revokeKYCAdmin",
      "outputs": [],
      "stateMutability": "nonpayable",
      "type": "function"
    },
    {
      "inputs": [
        {
          "internalType": "address",
          "name": "from",
          "type": "address"
        },
        {
          "internalType": "address",
          "name": "to",
          "type": "address"
        },
        {
          "internalType": "uint256[]",
          "name": "ids",
          "type": "uint256[]"
        },
        {
          "internalType": "uint256[]",
          "name": "amounts",
          "type": "uint256[]"
        },
        {
          "internalType": "bytes",
          "name": "data",
          "type": "bytes"
        }
      ],
      "name": "safeBatchTransferFrom",
      "outputs": [],
      "stateMutability": "nonpayable",
      "type": "function"
    },
    {
      "inputs": [
        {
          "internalType": "address",
          "name": "from",
          "type": "address"
        },
        {
          "internalType": "address",
          "name": "to",
          "type": "address"
        },
        {
          "internalType": "uint256",
          "name": "id",
          "type": "uint256"
        },
        {
          "internalType": "uint256",
          "name": "amount",
          "type": "uint256"
        },
        {
          "internalType": "bytes",
          "name": "data",
          "type": "bytes"
        }
      ],
      "name": "safeTransferFrom",
      "outputs": [],
      "stateMutability": "nonpayable",
      "type": "function"
    },
    {
      "inputs": [
        {
          "internalType": "address",
          "name": "operator",
          "type": "address"
        },
        {
          "internalType": "bool",
          "name": "approved",
          "type": "bool"
        }
      ],
      "name": "setApprovalForAll",
      "outputs": [],
      "stateMutability": "nonpayable",
      "type": "function"
    },
    {
      "inputs": [
        {
          "internalType": "string",
          "name": "_newBaseMetadataURI",
          "type": "string"
        }
      ],
      "name": "setBaseMetadataURI",
      "outputs": [],
      "stateMutability": "nonpayable",
      "type": "function"
    },
    {
      "inputs": [
        {
          "internalType": "string",
          "name": "_uri",
          "type": "string"
        }
      ],
      "name": "setContractURI",
      "outputs": [],
      "stateMutability": "nonpayable",
      "type": "function"
    },
    {
      "inputs": [
        {
          "internalType": "address",
          "name": "_to",
          "type": "address"
        },
        {
          "internalType": "uint256[]",
          "name": "_ids",
          "type": "uint256[]"
        }
      ],
      "name": "setCreator",
      "outputs": [],
      "stateMutability": "nonpayable",
      "type": "function"
    },
    {
      "inputs": [
        {
          "internalType": "uint256",
          "name": "_id",
          "type": "uint256"
        },
        {
          "internalType": "address",
          "name": "account",
          "type": "address"
        }
      ],
      "name": "setIPOContract",
      "outputs": [],
      "stateMutability": "nonpayable",
      "type": "function"
    },
    {
      "inputs": [
        {
          "internalType": "address",
          "name": "account",
          "type": "address"
        }
      ],
      "name": "setKYCAdmin",
      "outputs": [],
      "stateMutability": "nonpayable",
      "type": "function"
    },
    {
      "inputs": [
        {
          "internalType": "bytes4",
          "name": "interfaceId",
          "type": "bytes4"
        }
      ],
      "name": "supportsInterface",
      "outputs": [
        {
          "internalType": "bool",
          "name": "",
          "type": "bool"
        }
      ],
      "stateMutability": "view",
      "type": "function"
    },
    {
      "inputs": [],
      "name": "symbol",
      "outputs": [
        {
          "internalType": "string",
          "name": "",
          "type": "string"
        }
      ],
      "stateMutability": "view",
      "type": "function"
    },
    {
      "inputs": [
        {
          "internalType": "uint256",
          "name": "",
          "type": "uint256"
        }
      ],
      "name": "tokenMetadata",
      "outputs": [
        {
          "internalType": "uint256",
          "name": "ipoTime",
          "type": "uint256"
        },
        {
          "internalType": "uint256",
          "name": "ipoUnitPrice",
          "type": "uint256"
        },
        {
          "internalType": "uint256",
          "name": "liquidationTime",
          "type": "uint256"
        },
        {
          "internalType": "uint256",
          "name": "registerationTaxRate",
          "type": "uint256"
        }
      ],
      "stateMutability": "view",
      "type": "function"
    },
    {
      "inputs": [
        {
          "internalType": "uint256",
          "name": "",
          "type": "uint256"
        }
      ],
      "name": "tokenSupply",
      "outputs": [
        {
          "internalType": "uint256",
          "name": "",
          "type": "uint256"
        }
      ],
      "stateMutability": "view",
      "type": "function"
    },
    {
      "inputs": [
        {
          "internalType": "uint256",
          "name": "",
          "type": "uint256"
        }
      ],
      "name": "tokenUri",
      "outputs": [
        {
          "internalType": "string",
          "name": "",
          "type": "string"
        }
      ],
      "stateMutability": "view",
      "type": "function"
    },
    {
      "inputs": [
        {
          "internalType": "uint256",
          "name": "",
          "type": "uint256"
        }
      ],
      "name": "tokenYieldData",
      "outputs": [
        {
          "internalType": "uint256",
          "name": "yieldDividend",
          "type": "uint256"
        },
        {
          "internalType": "uint256",
          "name": "liquidationExtension",
          "type": "uint256"
        }
      ],
      "stateMutability": "view",
      "type": "function"
    },
    {
      "inputs": [
        {
          "internalType": "uint256",
          "name": "_id",
          "type": "uint256"
        }
      ],
      "name": "totalSupply",
      "outputs": [
        {
          "internalType": "uint256",
          "name": "",
          "type": "uint256"
        }
      ],
      "stateMutability": "view",
      "type": "function"
    },
    {
      "inputs": [
        {
          "internalType": "address",
          "name": "newGovernor",
          "type": "address"
        }
      ],
      "name": "transferGovernorship",
      "outputs": [],
      "stateMutability": "nonpayable",
      "type": "function"
    },
    {
      "inputs": [
        {
          "internalType": "uint256",
          "name": "_id",
          "type": "uint256"
        },
        {
          "internalType": "uint256",
          "name": "dividend",
          "type": "uint256"
        }
      ],
      "name": "unlockDividends",
      "outputs": [],
      "stateMutability": "nonpayable",
      "type": "function"
    },
    {
      "inputs": [
        {
          "internalType": "uint256",
          "name": "_id",
          "type": "uint256"
        }
      ],
      "name": "uri",
      "outputs": [
        {
          "internalType": "string",
          "name": "",
          "type": "string"
        }
      ],
      "stateMutability": "view",
      "type": "function"
    }
  ],
  "bytecode": "0x608060405234801561001057600080fd5b506141b8806100206000396000f3fe608060405234801561001057600080fd5b506004361061029f5760003560e01c8063938e3d7b11610167578063cd53d08e116100ce578063e8e0b2d011610087578063e8e0b2d0146106a1578063e985e9c5146106b4578063efe7744f146106f0578063f242432a14610711578063f6ee8fcc14610724578063f720a8c51461073757600080fd5b8063cd53d08e146105fa578063d1c901a414610623578063d2a6b51a14610660578063d64e83d714610673578063d98d9eaf14610686578063e8a3d4851461069957600080fd5b8063abfebaa411610120578063abfebaa41461056a578063b1fd69101461057d578063b48ab8b6146105a1578063b6aa515b146105b4578063bb897303146105c7578063bd85b039146105da57600080fd5b8063938e3d7b146104ec57806395d89b41146104ff5780639944f518146105075780639b166e2f1461051a578063a22cb46514610544578063a6487c531461055757600080fd5b8063409f8c481161020b578063652005bf116101c4578063652005bf146104425780636914db6014610455578063731133e9146104ab57806378c4acb8146104be5780637e518ec8146104d157806381c0c263146104e457600080fd5b8063409f8c48146103ce57806341924055146103e15780634e1273f4146103f457806358cc49a514610414578063590a5ce01461042757806359d1a4b11461043a57600080fd5b80631675f4551161025d5780631675f4551461034d57806322b6ccfe14610360578063243f6b58146103755780632693ebf2146103885780632eb2c2d6146103a85780633ade0a38146103bb57600080fd5b8062fdd58e146102a457806301ffc9a7146102ca57806306fdde03146102ed5780630c340a24146103025780630e89341c146103275780631624610a1461033a575b600080fd5b6102b76102b23660046131fd565b61074a565b6040519081526020015b60405180910390f35b6102dd6102d836600461323d565b61075d565b60405190151581526020016102c1565b6102f56107af565b6040516102c191906132a7565b6097546001600160a01b03165b6040516001600160a01b0390911681526020016102c1565b6102f56103353660046132ba565b61083e565b6102b76103483660046131fd565b6108e0565b6102f561035b3660046132ba565b61093a565b61037361036e3660046132d3565b610953565b005b6103736103833660046132d3565b6109a3565b6102b76103963660046132ba565b60fd6020526000908152604090205481565b6103736103b6366004613437565b6109f0565b6103736103c93660046132ba565b610d47565b6103736103dc3660046132d3565b610fa0565b6102b76103ef3660046132ba565b61102c565b6104076104023660046134e0565b611125565b6040516102c191906135e5565b6103736104223660046132ba565b61124e565b6103736104353660046135f8565b6115eb565b6103736116df565b6102b76104503660046132ba565b611715565b61048b6104633660046132ba565b6101356020526000908152604090208054600182015460028301546003909301549192909184565b6040805194855260208501939093529183015260608201526080016102c1565b6103736104b936600461361a565b61178d565b6103736104cc36600461367a565b611803565b6103736104df3660046136ee565b6118a6565b6103736118d9565b6103736104fa3660046136ee565b61190d565b6102f561194e565b6102dd6105153660046132d3565b61195c565b61030f6105283660046132ba565b600090815261013a60205260409020546001600160a01b031690565b610373610552366004613738565b611991565b61037361056536600461376f565b61199c565b6103736105783660046137f6565b611a68565b6102b761058b3660046132ba565b6000908152610135602052604090206001015490565b6103736105af366004613831565b611aeb565b6103736105c23660046132d3565b611c7a565b6102b76105d5366004613905565b611d18565b6102b76105e83660046132ba565b600090815260fd602052604090205490565b61030f6106083660046132ba565b60fc602052600090815260409020546001600160a01b031681565b61064b6106313660046132ba565b610136602052600090815260409020805460019091015482565b604080519283526020830191909152016102c1565b61037361066e3660046139a2565b611f0a565b61037361068136600461367a565b611fbc565b6102dd6106943660046139e5565b61205a565b6102f561207c565b6103736106af3660046135f8565b61210e565b6102dd6106c2366004613a11565b6001600160a01b03918216600090815260666020908152604080832093909416825291909152205460ff1690565b6102b76106fe3660046132ba565b6101386020526000908152604090205481565b61037361071f366004613a3b565b61220a565b6103736107323660046139e5565b612386565b6102b76107453660046132ba565b6123ee565b600061075683836124db565b9392505050565b60006001600160e01b03198216636cdb3d1360e11b148061078e57506001600160e01b031982166303a24d0760e21b145b806107a957506301ffc9a760e01b6001600160e01b03198316145b92915050565b61010080546107bd90613a9f565b80601f01602080910402602001604051908101604052809291908181526020018280546107e990613a9f565b80156108365780601f1061080b57610100808354040283529160200191610836565b820191906000526020600020905b81548152906001019060200180831161081957829003601f168201915b505050505081565b600081815260fe6020526040902080546060919061085b90613a9f565b80601f016020809104026020016040519081016040528092919081815260200182805461088790613a9f565b80156108d45780601f106108a9576101008083540402835291602001916108d4565b820191906000526020600020905b8154815290600101906020018083116108b757829003601f168201915b50505050509050919050565b60006001600160a01b0383166109115760405162461bcd60e51b815260040161090890613ad4565b60405180910390fd5b50600090815261013b602090815260408083206001600160a01b03949094168352929052205490565b60fe60205260009081526040902080546107bd90613a9f565b610103546001600160a01b0316331461097e5760405162461bcd60e51b815260040161090890613b1f565b6001600160a01b0316600090815261010260205260409020805460ff19166001179055565b610103546001600160a01b031633146109ce5760405162461bcd60e51b815260040161090890613b1f565b6001600160a01b0316600090815261010260205260409020805460ff19169055565b6001600160a01b038516331480610a0c5750610a0c85336106c2565b610a735760405162461bcd60e51b815260206004820152603260248201527f455243313135353a207472616e736665722063616c6c6572206973206e6f74206044820152711bdddb995c881b9bdc88185c1c1c9bdd995960721b6064820152608401610908565b60005b8351811015610b17576000848281518110610a9357610a93613b61565b602002602001015190506000848381518110610ab157610ab1613b61565b602090810291909101810151600084815261013b835260408082206001600160a01b038d168352909352919091205490915081811015610b035760405162461bcd60e51b815260040161090890613b77565b50505080610b1090613bd9565b9050610a76565b50610b25858585858561252b565b60005b8351811015610ba9576000848281518110610b4557610b45613b61565b602002602001015190506000848381518110610b6357610b63613b61565b602090810291909101810151600093845261013b825260408085206001600160a01b038c168652909252922080549290920390915550610ba281613bd9565b9050610b28565b50610bb38461195c565b15610c7e5760005b8351811015610c78576000848281518110610bd857610bd8613b61565b60200260200101519050610bec818861205a565b15610c67576000848381518110610c0557610c05613b61565b602090810291909101810151600084815261013b835260408082206001600160a01b038c1683529093529190912054909150610c4190826126de565b600083815261013b602090815260408083206001600160a01b038c168452909152902055505b50610c7181613bd9565b9050610bbb565b50610d40565b60005b8351811015610d3e576000848281518110610c9e57610c9e613b61565b60200260200101519050610cb2818761205a565b15610d2d576000848381518110610ccb57610ccb613b61565b602090810291909101810151600084815261013b835260408082206001600160a01b038c1683529093529190912054909150610d0790826126de565b600083815261013b602090815260408083206001600160a01b038c168452909152902055505b50610d3781613bd9565b9050610c81565b505b5050505050565b336000908152610102602052604090205460ff16610d775760405162461bcd60e51b815260040161090890613bf4565b806000610d85335b8361074a565b11610da25760405162461bcd60e51b815260040161090890613c19565b60008281526101356020908152604080832081516080810183528154815260018201549381019390935260028101549183019190915260030154606082015290610dec338561074a565b600085815261013b6020526040812091925090610e279082335b6001600160a01b0316815260208101919091526040016000205483906126ea565b905060008111610e795760405162461bcd60e51b815260206004820152601c60248201527f524549544e46543a204e6f7468696e6720746f207265676973746572000000006044820152606401610908565b6000858152610139602090815260408220546060860151918601516001600160a01b039091169291610ec6916305f5e10091610ec091610eba9088906126f6565b906126f6565b90612702565b90506001600160a01b0382166323b872dd336040516001600160e01b031960e084901b1681526001600160a01b03909116600482015230602482015260448101849052606401602060405180830381600087803b158015610f2657600080fd5b505af1158015610f3a573d6000803e3d6000fd5b505050506040513d601f19601f82011682018060405250810190610f5e9190613c6e565b610f7a5760405162461bcd60e51b815260040161090890613c8b565b505050600093845261013b60209081526040808620338752909152909320929092555050565b6097546001600160a01b03163314610fca5760405162461bcd60e51b815260040161090890613cc0565b6001600160a01b0381166110205760405162461bcd60e51b815260206004820181905260248201527f4b59432041646d696e2063616e6e6f74206265207a65726f20616464726573736044820152606401610908565b6110298161270e565b50565b336000908152610102602052604081205460ff1661105c5760405162461bcd60e51b815260040161090890613bf4565b81600061106833610d7f565b116110855760405162461bcd60e51b815260040161090890613c19565b600083815261013560209081526040808320815160808101835281548152600182015493810193909352600281015491830191909152600301546060820152906110cf338661074a565b600086815261013b60205260408120919250906110ed908233610e06565b905060006111186305f5e100610ec08660600151610eba8860200151876126f690919063ffffffff16565b9550505050505b50919050565b6060815183511461118a5760405162461bcd60e51b815260206004820152602960248201527f455243313135353a206163636f756e747320616e6420696473206c656e677468604482015268040dad2e6dac2e8c6d60bb1b6064820152608401610908565b600083516001600160401b038111156111a5576111a56132ee565b6040519080825280602002602001820160405280156111ce578160200160208202803683370190505b50905060005b8451811015611246576112198582815181106111f2576111f2613b61565b602002602001015185838151811061120c5761120c613b61565b602002602001015161074a565b82828151811061122b5761122b613b61565b602090810291909101015261123f81613bd9565b90506111d4565b509392505050565b336000908152610102602052604090205460ff1661127e5760405162461bcd60e51b815260040161090890613bf4565b80600061128a33610d7f565b116112a75760405162461bcd60e51b815260040161090890613c19565b600260c95414156112fa5760405162461bcd60e51b815260206004820152601f60248201527f5265656e7472616e637947756172643a207265656e7472616e742063616c6c006044820152606401610908565b600260c95560008281526101366020908152604080832081518083018352815481526001909101548184015285845261013783528184203385529092529091205460ff1661137a576000838152610137602090815260408083203380855292528220805460016101009093026001600160a81b0319909116178217815501555b600083815261013760209081526040808320338085529083528184208251606081018452815460ff81161515825261010090046001600160a01b031681860152600190910154818401819052865189875261013b90955292852090949361140a9392611404929086905b6001600160a01b03168152602081019190915260400160002054906126f6565b906126ea565b90506000811161145c5760405162461bcd60e51b815260206004820181905260248201527f524549544e46543a206e6f206d6f726520636c61696d61626c65207969656c646044820152606401610908565b60008581526101386020526040902054818110156114cc5760405162461bcd60e51b815260206004820152602760248201527f524549544e46543a206e656564206d6f72652066756e64696e67732066726f6d6044820152661034b9b9bab2b960c91b6064820152608401610908565b600086815261013860205260409020546114e690836126ea565b60008781526101386020526040908190209190915583015161150890836126de565b6000878152610137602090815260408083203380855290835281842060010194909455898352610139825280832054815163a9059cbb60e01b815260048101959095526024850187905290516001600160a01b0390911693849363a9059cbb9360448084019491939192918390030190829087803b15801561158957600080fd5b505af115801561159d573d6000803e3d6000fd5b505050506040513d601f19601f820116820180604052508101906115c19190613c6e565b6115dd5760405162461bcd60e51b815260040161090890613c8b565b5050600160c9555050505050565b600082815261013960205260409020546001600160a01b0316806323b872dd336040516001600160e01b031960e084901b1681526001600160a01b03909116600482015230602482015260448101859052606401602060405180830381600087803b15801561165957600080fd5b505af115801561166d573d6000803e3d6000fd5b505050506040513d601f19601f820116820180604052508101906116919190613c6e565b6116ad5760405162461bcd60e51b815260040161090890613c8b565b600083815261013860205260409020546116c790836126de565b60009384526101386020526040909320929092555050565b6097546001600160a01b031633146117095760405162461bcd60e51b815260040161090890613cc0565b611713600061270e565b565b6000818161172233610d7f565b1161173f5760405162461bcd60e51b815260040161090890613c19565b60008381526101376020908152604080832033845290915290205460ff1661176a576000915061111f565b505060009081526101376020908152604080832033845290915290206001015490565b600083815260fc602052604090205483906001600160a01b031633146117c55760405162461bcd60e51b815260040161090890613d06565b6117d185858585612731565b600084815260fd60205260409020546117ea90846126de565b600094855260fd60205260409094209390935550505050565b610103546001600160a01b0316331461182e5760405162461bcd60e51b815260040161090890613b1f565b60005b818110156118a1576001610102600085858581811061185257611852613b61565b905060200201602081019061186791906132d3565b6001600160a01b031681526020810191909152604001600020805460ff19169115159190911790558061189981613bd9565b915050611831565b505050565b6097546001600160a01b031633146118d05760405162461bcd60e51b815260040161090890613cc0565b6110298161282b565b6097546001600160a01b031633146119035760405162461bcd60e51b815260040161090890613cc0565b611713600061283e565b6097546001600160a01b031633146119375760405162461bcd60e51b815260040161090890613cc0565b805161194a9060ff9060208401906130d9565b5050565b61010180546107bd90613a9f565b60006001600160a01b03821661197157600080fd5b506001600160a01b03166000908152610102602052604090205460ff1690565b61194a338383612890565b60006119a86001612971565b905080156119c0576000805461ff0019166101001790555b6119c9826129fe565b6119d1612a2e565b6119d9612a5d565b83516119ed906101009060208701906130d9565b508251611a02906101019060208601906130d9565b50600060fb558151611a1b9060ff9060208501906130d9565b508015611a62576000805461ff0019169055604051600181527f7f26b83ff96e1f2b6a682f133852f6798a09c465da95921460cefb38474024989060200160405180910390a15b50505050565b600085815260fc602052604090205485906001600160a01b03163314611aa05760405162461bcd60e51b815260040161090890613d06565b50604080516080810182529485526020808601948552858201938452606086019283526000968752610135905290942092518355905160018301555160028201559051600390910155565b8151835114611b555760405162461bcd60e51b815260206004820152603060248201527f455243313135354d696e744275726e2362617463684d696e743a20494e56414c60448201526f09288be82a4a482b2a6be988a9c8ea8960831b6064820152608401610908565b60005b8351811015611c6d576000848281518110611b7557611b75613b61565b602090810291909101810151600081815260fc9092526040909120549091506001600160a01b03163314611c035760405162461bcd60e51b815260206004820152602f60248201527f455243313135355472616461626c652362617463684d696e743a204f4e4c595f60448201526e10d491505513d497d0531313d5d151608a1b6064820152608401610908565b6000848381518110611c1757611c17613b61565b60200260200101519050611c478160fd6000858152602001908152602001600020546126de90919063ffffffff16565b600092835260fd6020526040909220919091555080611c6581613bd9565b915050611b58565b50611a6284848484612a8c565b6097546001600160a01b03163314611ca45760405162461bcd60e51b815260040161090890613cc0565b6001600160a01b038116611d0f5760405162461bcd60e51b815260206004820152602c60248201527f476f7665726e61626c653a206e657720676f7665726e6f72206973207468652060448201526b7a65726f206164647265737360a01b6064820152608401610908565b6110298161283e565b6097546000906001600160a01b03163314611d455760405162461bcd60e51b815260040161090890613cc0565b6000611d4f612bf6565b9050611d59612c0c565b611d633382612c23565b8515611dbe57807f6bb7ff708619ba0610cba295a58592e0451dee2622938c8755667688daf3529b8888604051611d9b929190613d57565b60405180910390a2600081815260fe60205260409020611dbc90888861315d565b505b60008181526101396020908152604080832080546001600160a01b0319166001600160a01b038a161790558051608081018252838152808301848152818301858152606083018681528787526101358652848720935184559151600184810191909155905160028401559051600390920191909155815180830183528481528084018581528686526101368552948390209051815593519301929092558151601f8601829004820281018201909252848252611e9a918b9184918c91899089908190840183828082843760009201919091525061178d92505050565b600081815261013b602090815260408083206001600160a01b038d16845282528083208b905583835260fd8252918290208a905590518281527f07eac9a0695a188fe9d6fd680bcbbbe39041fb114d5d7ac11252401391f79307910160405180910390a198975050505050505050565b6001600160a01b038216611f755760405162461bcd60e51b815260206004820152602c60248201527f455243313135355472616461626c652373657443726561746f723a20494e564160448201526b2624a22fa0a2222922a9a99760a11b6064820152608401610908565b60005b81518110156118a1576000828281518110611f9557611f95613b61565b60200260200101519050611fa98482612c23565b5080611fb481613bd9565b915050611f78565b610103546001600160a01b03163314611fe75760405162461bcd60e51b815260040161090890613b1f565b60005b818110156118a1576000610102600085858581811061200b5761200b613b61565b905060200201602081019061202091906132d3565b6001600160a01b031681526020810191909152604001600020805460ff19169115159190911790558061205281613bd9565b915050611fea565b600091825261013a6020526040909120546001600160a01b0391821691161490565b606060ff805461208b90613a9f565b80601f01602080910402602001604051908101604052809291908181526020018280546120b790613a9f565b80156121045780601f106120d957610100808354040283529160200191612104565b820191906000526020600020905b8154815290600101906020018083116120e757829003601f168201915b5050505050905090565b600082815260fc602052604090205482906001600160a01b031633146121465760405162461bcd60e51b815260040161090890613d06565b6000838152610136602052604081205461216090846126de565b600085815260fd602052604081205491925061217c82846126f6565b60008781526101386020526040902054909150808211156121ef5760405162461bcd60e51b815260206004820152602760248201527f4e6f7420656e6f7567682066756e64696e6720746f2070617920616c6c206469604482015266766964656e647360c81b6064820152608401610908565b50505060009384526101366020526040909320929092555050565b6001600160a01b038516331480612226575061222685336106c2565b6122845760405162461bcd60e51b815260206004820152602960248201527f455243313135353a2063616c6c6572206973206e6f74206f776e6572206e6f7260448201526808185c1c1c9bdd995960ba1b6064820152608401610908565b600083815261013b602090815260408083206001600160a01b0389168452909152902054828110156122c85760405162461bcd60e51b815260040161090890613b77565b6122d58686868686612c8a565b600084815261013b602090815260408083206001600160a01b038a16845290915290208382039055612307848661205a565b8061232757506123168561195c565b80156123275750612327848761205a565b15610d3e57600084815261013b602090815260408083206001600160a01b038916845290915290205461235a90846126de565b600085815261013b602090815260408083206001600160a01b038a168452909152902055505050505050565b600082815260fc602052604090205482906001600160a01b031633146123be5760405162461bcd60e51b815260040161090890613d06565b50600091825261013a602052604090912080546001600160a01b0319166001600160a01b03909216919091179055565b600081816123fb33610d7f565b116124185760405162461bcd60e51b815260040161090890613c19565b60008381526101376020908152604080832033845290915290205460ff16612443576000915061111f565b6000838152610136602090815260408083208151808301835281548152600191820154818501528785526101378452828520338087529085528386208451606081018652815460ff81161515825261010090046001600160a01b03168188015293015483850181905282518a885261013b9096529386209195929492936124d19390926114049286906113e4565b9695505050505050565b60006001600160a01b0383166125035760405162461bcd60e51b815260040161090890613ad4565b5060009081526065602090815260408083206001600160a01b03949094168352929052205490565b815183511461254c5760405162461bcd60e51b815260040161090890613d86565b6001600160a01b0384166125725760405162461bcd60e51b815260040161090890613dce565b33612581818787878787610d3e565b60005b845181101561266a5760008582815181106125a1576125a1613b61565b6020026020010151905060008583815181106125bf576125bf613b61565b60209081029190910181015160008481526065835260408082206001600160a01b038e1683529093529190912054909150818110156126105760405162461bcd60e51b815260040161090890613e13565b60008381526065602090815260408083206001600160a01b038e8116855292528083208585039055908b1682528120805484929061264f908490613e5d565b925050819055505050508061266390613bd9565b9050612584565b50846001600160a01b0316866001600160a01b0316826001600160a01b03167f4a39dc06d4c0dbc64b70af90fd698a233a518aa5d07e595d983b8c0526c8f7fb87876040516126ba929190613e75565b60405180910390a46126d0818787878787610d3e565b610d3e818787878787612dd4565b60006107568284613e5d565b60006107568284613ea3565b60006107568284613eba565b60006107568284613ed9565b61010380546001600160a01b0319166001600160a01b0392909216919091179055565b6001600160a01b0384166127575760405162461bcd60e51b815260040161090890613efb565b33600061276385612f3f565b9050600061277085612f3f565b905061278183600089858589610d3e565b60008681526065602090815260408083206001600160a01b038b168452909152812080548792906127b3908490613e5d565b909155505060408051878152602081018790526001600160a01b03808a1692600092918716917fc3d58168c5ae7397731d063d5bbf3d657854427343f4c083240f7aacaa2d0f62910160405180910390a461281383600089858589610d3e565b61282283600089898989612f8a565b50505050505050565b805161194a9060679060208401906130d9565b609780546001600160a01b038381166001600160a01b0319831681179093556040519116919082907fc7c0c772add429241571afb3805861fb3cfa2af374534088b76cdb4325a87e9a90600090a35050565b816001600160a01b0316836001600160a01b031614156129045760405162461bcd60e51b815260206004820152602960248201527f455243313135353a2073657474696e6720617070726f76616c20737461747573604482015268103337b91039b2b63360b91b6064820152608401610908565b6001600160a01b03838116600081815260666020908152604080832094871680845294825291829020805460ff191686151590811790915591519182527f17307eab39ab6107e8899845ad3d59bd9653f200f220920489ca2b5937696c31910160405180910390a3505050565b60008054610100900460ff16156129b8578160ff1660011480156129945750303b155b6129b05760405162461bcd60e51b815260040161090890613f3c565b506000919050565b60005460ff8084169116106129df5760405162461bcd60e51b815260040161090890613f3c565b506000805460ff191660ff92909216919091179055600190565b919050565b600054610100900460ff16612a255760405162461bcd60e51b815260040161090890613f8a565b61102981613054565b600054610100900460ff16612a555760405162461bcd60e51b815260040161090890613f8a565b61171361307b565b600054610100900460ff16612a845760405162461bcd60e51b815260040161090890613f8a565b6117136130ab565b6001600160a01b038416612ab25760405162461bcd60e51b815260040161090890613efb565b8151835114612ad35760405162461bcd60e51b815260040161090890613d86565b33612ae381600087878787610d3e565b60005b8451811015612b7f57838181518110612b0157612b01613b61565b602002602001015160656000878481518110612b1f57612b1f613b61565b602002602001015181526020019081526020016000206000886001600160a01b03166001600160a01b031681526020019081526020016000206000828254612b679190613e5d565b90915550819050612b7781613bd9565b915050612ae6565b50846001600160a01b031660006001600160a01b0316826001600160a01b03167f4a39dc06d4c0dbc64b70af90fd698a233a518aa5d07e595d983b8c0526c8f7fb8787604051612bd0929190613e75565b60405180910390a4612be781600087878787610d3e565b610d4081600087878787612dd4565b60fb54600090612c079060016126de565b905090565b60fb8054906000612c1c83613bd9565b9190505550565b600081815260fc602052604090205481906001600160a01b03163314612c5b5760405162461bcd60e51b815260040161090890613d06565b50600090815260fc6020526040902080546001600160a01b0319166001600160a01b0392909216919091179055565b6001600160a01b038416612cb05760405162461bcd60e51b815260040161090890613dce565b336000612cbc85612f3f565b90506000612cc985612f3f565b9050612cd9838989858589610d3e565b60008681526065602090815260408083206001600160a01b038c16845290915290205485811015612d1c5760405162461bcd60e51b815260040161090890613e13565b60008781526065602090815260408083206001600160a01b038d8116855292528083208985039055908a16825281208054889290612d5b908490613e5d565b909155505060408051888152602081018890526001600160a01b03808b16928c821692918816917fc3d58168c5ae7397731d063d5bbf3d657854427343f4c083240f7aacaa2d0f62910160405180910390a4612dbb848a8a86868a610d3e565b612dc9848a8a8a8a8a612f8a565b505050505050505050565b6001600160a01b0384163b15610d3e5760405163bc197c8160e01b81526001600160a01b0385169063bc197c8190612e189089908990889088908890600401613fd5565b602060405180830381600087803b158015612e3257600080fd5b505af1925050508015612e62575060408051601f3d908101601f19168201909252612e5f91810190614033565b60015b612f0f57612e6e614050565b806308c379a01415612ea85750612e8361406c565b80612e8e5750612eaa565b8060405162461bcd60e51b815260040161090891906132a7565b505b60405162461bcd60e51b815260206004820152603460248201527f455243313135353a207472616e7366657220746f206e6f6e20455243313135356044820152732932b1b2b4bb32b91034b6b83632b6b2b73a32b960611b6064820152608401610908565b6001600160e01b0319811663bc197c8160e01b146128225760405162461bcd60e51b8152600401610908906140f5565b60408051600180825281830190925260609160009190602080830190803683370190505090508281600081518110612f7957612f79613b61565b602090810291909101015292915050565b6001600160a01b0384163b15610d3e5760405163f23a6e6160e01b81526001600160a01b0385169063f23a6e6190612fce908990899088908890889060040161413d565b602060405180830381600087803b158015612fe857600080fd5b505af1925050508015613018575060408051601f3d908101601f1916820190925261301591810190614033565b60015b61302457612e6e614050565b6001600160e01b0319811663f23a6e6160e01b146128225760405162461bcd60e51b8152600401610908906140f5565b600054610100900460ff166118d05760405162461bcd60e51b815260040161090890613f8a565b600054610100900460ff166130a25760405162461bcd60e51b815260040161090890613f8a565b6117133361283e565b600054610100900460ff166130d25760405162461bcd60e51b815260040161090890613f8a565b600160c955565b8280546130e590613a9f565b90600052602060002090601f016020900481019282613107576000855561314d565b82601f1061312057805160ff191683800117855561314d565b8280016001018555821561314d579182015b8281111561314d578251825591602001919060010190613132565b506131599291506131d1565b5090565b82805461316990613a9f565b90600052602060002090601f01602090048101928261318b576000855561314d565b82601f106131a45782800160ff1982351617855561314d565b8280016001018555821561314d579182015b8281111561314d5782358255916020019190600101906131b6565b5b8082111561315957600081556001016131d2565b80356001600160a01b03811681146129f957600080fd5b6000806040838503121561321057600080fd5b613219836131e6565b946020939093013593505050565b6001600160e01b03198116811461102957600080fd5b60006020828403121561324f57600080fd5b813561075681613227565b6000815180845260005b8181101561328057602081850181015186830182015201613264565b81811115613292576000602083870101525b50601f01601f19169290920160200192915050565b602081526000610756602083018461325a565b6000602082840312156132cc57600080fd5b5035919050565b6000602082840312156132e557600080fd5b610756826131e6565b634e487b7160e01b600052604160045260246000fd5b601f8201601f191681016001600160401b0381118282101715613329576133296132ee565b6040525050565b60006001600160401b03821115613349576133496132ee565b5060051b60200190565b600082601f83011261336457600080fd5b8135602061337182613330565b60405161337e8282613304565b83815260059390931b850182019282810191508684111561339e57600080fd5b8286015b848110156133b957803583529183019183016133a2565b509695505050505050565b600082601f8301126133d557600080fd5b81356001600160401b038111156133ee576133ee6132ee565b604051613405601f8301601f191660200182613304565b81815284602083860101111561341a57600080fd5b816020850160208301376000918101602001919091529392505050565b600080600080600060a0868803121561344f57600080fd5b613458866131e6565b9450613466602087016131e6565b935060408601356001600160401b038082111561348257600080fd5b61348e89838a01613353565b945060608801359150808211156134a457600080fd5b6134b089838a01613353565b935060808801359150808211156134c657600080fd5b506134d3888289016133c4565b9150509295509295909350565b600080604083850312156134f357600080fd5b82356001600160401b038082111561350a57600080fd5b818501915085601f83011261351e57600080fd5b8135602061352b82613330565b6040516135388282613304565b83815260059390931b850182019282810191508984111561355857600080fd5b948201945b8386101561357d5761356e866131e6565b8252948201949082019061355d565b9650508601359250508082111561359357600080fd5b506135a085828601613353565b9150509250929050565b600081518084526020808501945080840160005b838110156135da578151875295820195908201906001016135be565b509495945050505050565b60208152600061075660208301846135aa565b6000806040838503121561360b57600080fd5b50508035926020909101359150565b6000806000806080858703121561363057600080fd5b613639856131e6565b9350602085013592506040850135915060608501356001600160401b0381111561366257600080fd5b61366e878288016133c4565b91505092959194509250565b6000806020838503121561368d57600080fd5b82356001600160401b03808211156136a457600080fd5b818501915085601f8301126136b857600080fd5b8135818111156136c757600080fd5b8660208260051b85010111156136dc57600080fd5b60209290920196919550909350505050565b60006020828403121561370057600080fd5b81356001600160401b0381111561371657600080fd5b613722848285016133c4565b949350505050565b801515811461102957600080fd5b6000806040838503121561374b57600080fd5b613754836131e6565b915060208301356137648161372a565b809150509250929050565b60008060006060848603121561378457600080fd5b83356001600160401b038082111561379b57600080fd5b6137a7878388016133c4565b945060208601359150808211156137bd57600080fd5b6137c9878388016133c4565b935060408601359150808211156137df57600080fd5b506137ec868287016133c4565b9150509250925092565b600080600080600060a0868803121561380e57600080fd5b505083359560208501359550604085013594606081013594506080013592509050565b6000806000806080858703121561384757600080fd5b613850856131e6565b935060208501356001600160401b038082111561386c57600080fd5b61387888838901613353565b9450604087013591508082111561388e57600080fd5b61389a88838901613353565b935060608701359150808211156138b057600080fd5b5061366e878288016133c4565b60008083601f8401126138cf57600080fd5b5081356001600160401b038111156138e657600080fd5b6020830191508360208285010111156138fe57600080fd5b9250929050565b600080600080600080600060a0888a03121561392057600080fd5b613929886131e6565b96506020880135955060408801356001600160401b038082111561394c57600080fd5b6139588b838c016138bd565b909750955085915061396c60608b016131e6565b945060808a013591508082111561398257600080fd5b5061398f8a828b016138bd565b989b979a50959850939692959293505050565b600080604083850312156139b557600080fd5b6139be836131e6565b915060208301356001600160401b038111156139d957600080fd5b6135a085828601613353565b600080604083850312156139f857600080fd5b82359150613a08602084016131e6565b90509250929050565b60008060408385031215613a2457600080fd5b613a2d836131e6565b9150613a08602084016131e6565b600080600080600060a08688031215613a5357600080fd5b613a5c866131e6565b9450613a6a602087016131e6565b9350604086013592506060860135915060808601356001600160401b03811115613a9357600080fd5b6134d3888289016133c4565b600181811c90821680613ab357607f821691505b6020821081141561111f57634e487b7160e01b600052602260045260246000fd5b6020808252602b908201527f455243313135353a2062616c616e636520717565727920666f7220746865207a60408201526a65726f206164647265737360a81b606082015260800190565b60208082526022908201527f4b59434163636573733a2063616c6c6572206973206e6f74207468652061646d60408201526134b760f11b606082015260800190565b634e487b7160e01b600052603260045260246000fd5b6020808252602c908201527f496e73756666696369656e7420726567697374657265642062616c616e63652060408201526b3337b9103a3930b739b332b960a11b606082015260800190565b634e487b7160e01b600052601160045260246000fd5b6000600019821415613bed57613bed613bc3565b5060010190565b6020808252600b908201526a4e6f7420796574204b594360a81b604082015260600190565b60208082526035908201527f455243313135355472616461626c65237368617265486f6c646572734f6e6c796040820152740e8813d3931657d3d5d3915494d7d0531313d5d151605a1b606082015260800190565b600060208284031215613c8057600080fd5b81516107568161372a565b6020808252818101527f524549544e46543a20436f756c64206e6f74207472616e736665722066756e64604082015260600190565b60208082526026908201527f476f7665726e61626c653a2063616c6c6572206973206e6f742074686520676f6040820152653b32b93737b960d11b606082015260800190565b60208082526031908201527f455243313135355472616461626c652363726561746f724f6e6c793a204f4e4c6040820152701657d0d491505513d497d0531313d5d151607a1b606082015260800190565b60208152816020820152818360408301376000818301604090810191909152601f909201601f19160101919050565b60208082526028908201527f455243313135353a2069647320616e6420616d6f756e7473206c656e677468206040820152670dad2e6dac2e8c6d60c31b606082015260800190565b60208082526025908201527f455243313135353a207472616e7366657220746f20746865207a65726f206164604082015264647265737360d81b606082015260800190565b6020808252602a908201527f455243313135353a20696e73756666696369656e742062616c616e636520666f60408201526939103a3930b739b332b960b11b606082015260800190565b60008219821115613e7057613e70613bc3565b500190565b604081526000613e8860408301856135aa565b8281036020840152613e9a81856135aa565b95945050505050565b600082821015613eb557613eb5613bc3565b500390565b6000816000190483118215151615613ed457613ed4613bc3565b500290565b600082613ef657634e487b7160e01b600052601260045260246000fd5b500490565b60208082526021908201527f455243313135353a206d696e7420746f20746865207a65726f206164647265736040820152607360f81b606082015260800190565b6020808252602e908201527f496e697469616c697a61626c653a20636f6e747261637420697320616c72656160408201526d191e481a5b9a5d1a585b1a5e995960921b606082015260800190565b6020808252602b908201527f496e697469616c697a61626c653a20636f6e7472616374206973206e6f74206960408201526a6e697469616c697a696e6760a81b606082015260800190565b6001600160a01b0386811682528516602082015260a060408201819052600090614001908301866135aa565b828103606084015261401381866135aa565b90508281036080840152614027818561325a565b98975050505050505050565b60006020828403121561404557600080fd5b815161075681613227565b600060033d11156140695760046000803e5060005160e01c5b90565b600060443d101561407a5790565b6040516003193d81016004833e81513d6001600160401b0381602484011181841117156140a957505050505090565b82850191508151818111156140c15750505050505090565b843d87010160208285010111156140db5750505050505090565b6140ea60208286010187613304565b509095945050505050565b60208082526028908201527f455243313135353a204552433131353552656365697665722072656a656374656040820152676420746f6b656e7360c01b606082015260800190565b6001600160a01b03868116825285166020820152604081018490526060810183905260a0608082018190526000906141779083018461325a565b97965050505050505056fea26469706673582212208136a253dc750a5fa3f1521c6db7ff2d3f5230cffe00876c65f425b3fa52f82464736f6c63430008090033",
  "linkReferences": {},
  "deployedLinkReferences": {}
}