{
  "_format": "hh-sol-artifact-1",
  "contractName": "REITNFT",
  "sourceName": "contracts/REITNFT.sol",
  "abi": [
    {
      "anonymous": false,
      "inputs": [
        {
          "indexed": true,
          "internalType": "address",
          "name": "account",
          "type": "address"
        },
        {
          "indexed": true,
          "internalType": "address",
          "name": "operator",
          "type": "address"
        },
        {
          "indexed": false,
          "internalType": "bool",
          "name": "approved",
          "type": "bool"
        }
      ],
      "name": "ApprovalForAll",
      "type": "event"
    },
    {
      "anonymous": false,
      "inputs": [
        {
          "indexed": false,
          "internalType": "uint256",
          "name": "id",
          "type": "uint256"
        }
      ],
      "name": "Create",
      "type": "event"
    },
    {
      "anonymous": false,
      "inputs": [
        {
          "indexed": true,
          "internalType": "address",
          "name": "previousGovernor",
          "type": "address"
        },
        {
          "indexed": true,
          "internalType": "address",
          "name": "newGovernor",
          "type": "address"
        }
      ],
      "name": "GovernorshipTransferred",
      "type": "event"
    },
    {
      "anonymous": false,
      "inputs": [
        {
          "indexed": false,
          "internalType": "uint8",
          "name": "version",
          "type": "uint8"
        }
      ],
      "name": "Initialized",
      "type": "event"
    },
    {
      "anonymous": false,
      "inputs": [
        {
          "indexed": true,
          "internalType": "address",
          "name": "operator",
          "type": "address"
        },
        {
          "indexed": true,
          "internalType": "address",
          "name": "from",
          "type": "address"
        },
        {
          "indexed": true,
          "internalType": "address",
          "name": "to",
          "type": "address"
        },
        {
          "indexed": false,
          "internalType": "uint256[]",
          "name": "ids",
          "type": "uint256[]"
        },
        {
          "indexed": false,
          "internalType": "uint256[]",
          "name": "values",
          "type": "uint256[]"
        }
      ],
      "name": "TransferBatch",
      "type": "event"
    },
    {
      "anonymous": false,
      "inputs": [
        {
          "indexed": true,
          "internalType": "address",
          "name": "operator",
          "type": "address"
        },
        {
          "indexed": true,
          "internalType": "address",
          "name": "from",
          "type": "address"
        },
        {
          "indexed": true,
          "internalType": "address",
          "name": "to",
          "type": "address"
        },
        {
          "indexed": false,
          "internalType": "uint256",
          "name": "id",
          "type": "uint256"
        },
        {
          "indexed": false,
          "internalType": "uint256",
          "name": "value",
          "type": "uint256"
        }
      ],
      "name": "TransferSingle",
      "type": "event"
    },
    {
      "anonymous": false,
      "inputs": [
        {
          "indexed": false,
          "internalType": "string",
          "name": "value",
          "type": "string"
        },
        {
          "indexed": true,
          "internalType": "uint256",
          "name": "id",
          "type": "uint256"
        }
      ],
      "name": "URI",
      "type": "event"
    },
    {
      "inputs": [
        {
          "internalType": "address[]",
          "name": "accounts",
          "type": "address[]"
        }
      ],
      "name": "addManyToKYC",
      "outputs": [],
      "stateMutability": "nonpayable",
      "type": "function"
    },
    {
      "inputs": [
        {
          "internalType": "address",
          "name": "account",
          "type": "address"
        }
      ],
      "name": "addToKYC",
      "outputs": [],
      "stateMutability": "nonpayable",
      "type": "function"
    },
    {
      "inputs": [
        {
          "internalType": "address",
          "name": "account",
          "type": "address"
        },
        {
          "internalType": "uint256",
          "name": "id",
          "type": "uint256"
        }
      ],
      "name": "balanceOf",
      "outputs": [
        {
          "internalType": "uint256",
          "name": "",
          "type": "uint256"
        }
      ],
      "stateMutability": "view",
      "type": "function"
    },
    {
      "inputs": [
        {
          "internalType": "address[]",
          "name": "accounts",
          "type": "address[]"
        },
        {
          "internalType": "uint256[]",
          "name": "ids",
          "type": "uint256[]"
        }
      ],
      "name": "balanceOfBatch",
      "outputs": [
        {
          "internalType": "uint256[]",
          "name": "",
          "type": "uint256[]"
        }
      ],
      "stateMutability": "view",
      "type": "function"
    },
    {
      "inputs": [
        {
          "internalType": "address",
          "name": "_to",
          "type": "address"
        },
        {
          "internalType": "uint256[]",
          "name": "_ids",
          "type": "uint256[]"
        },
        {
          "internalType": "uint256[]",
          "name": "_quantities",
          "type": "uint256[]"
        },
        {
          "internalType": "bytes",
          "name": "_data",
          "type": "bytes"
        }
      ],
      "name": "batchMint",
      "outputs": [],
      "stateMutability": "nonpayable",
      "type": "function"
    },
    {
      "inputs": [
        {
          "internalType": "uint256",
          "name": "_id",
          "type": "uint256"
        }
      ],
      "name": "claimBenefit",
      "outputs": [],
      "stateMutability": "nonpayable",
      "type": "function"
    },
    {
      "inputs": [],
      "name": "contractURI",
      "outputs": [
        {
          "internalType": "string",
          "name": "",
          "type": "string"
        }
      ],
      "stateMutability": "view",
      "type": "function"
    },
    {
      "inputs": [
        {
          "internalType": "address",
          "name": "_initialOwner",
          "type": "address"
        },
        {
          "internalType": "uint256",
          "name": "_initialSupply",
          "type": "uint256"
        },
        {
          "internalType": "string",
          "name": "_uri",
          "type": "string"
        },
        {
          "internalType": "address",
          "name": "_fundingToken",
          "type": "address"
        },
        {
          "internalType": "bytes",
          "name": "_data",
          "type": "bytes"
        }
      ],
      "name": "createREIT",
      "outputs": [
        {
          "internalType": "uint256",
          "name": "",
          "type": "uint256"
        }
      ],
      "stateMutability": "nonpayable",
      "type": "function"
    },
    {
      "inputs": [
        {
          "internalType": "uint256",
          "name": "",
          "type": "uint256"
        }
      ],
      "name": "creators",
      "outputs": [
        {
          "internalType": "address",
          "name": "",
          "type": "address"
        }
      ],
      "stateMutability": "view",
      "type": "function"
    },
    {
      "inputs": [
        {
          "internalType": "uint256",
          "name": "",
          "type": "uint256"
        }
      ],
      "name": "dividendFunds",
      "outputs": [
        {
          "internalType": "uint256",
          "name": "",
          "type": "uint256"
        }
      ],
      "stateMutability": "view",
      "type": "function"
    },
    {
      "inputs": [
        {
          "internalType": "uint256",
          "name": "_id",
          "type": "uint256"
        }
      ],
      "name": "getClaimedYield",
      "outputs": [
        {
          "internalType": "uint256",
          "name": "",
          "type": "uint256"
        }
      ],
      "stateMutability": "view",
      "type": "function"
    },
    {
      "inputs": [
        {
          "internalType": "uint256",
          "name": "_id",
          "type": "uint256"
        }
      ],
      "name": "getIPOContract",
      "outputs": [
        {
          "internalType": "address",
          "name": "",
          "type": "address"
        }
      ],
      "stateMutability": "view",
      "type": "function"
    },
    {
      "inputs": [
        {
          "internalType": "uint256",
          "name": "_id",
          "type": "uint256"
        }
      ],
      "name": "getShareUnitPrice",
      "outputs": [
        {
          "internalType": "uint256",
          "name": "",
          "type": "uint256"
        }
      ],
      "stateMutability": "view",
      "type": "function"
    },
    {
      "inputs": [
        {
          "internalType": "uint256",
          "name": "_id",
          "type": "uint256"
        }
      ],
      "name": "getTotalClaimableBenefit",
      "outputs": [
        {
          "internalType": "uint256",
          "name": "",
          "type": "uint256"
        }
      ],
      "stateMutability": "view",
      "type": "function"
    },
    {
      "inputs": [
        {
          "internalType": "uint256",
          "name": "_id",
          "type": "uint256"
        }
      ],
      "name": "getTotalYieldDividendPerShare",
      "outputs": [
        {
          "internalType": "uint256",
          "name": "",
          "type": "uint256"
        }
      ],
      "stateMutability": "view",
      "type": "function"
    },
    {
      "inputs": [
        {
          "internalType": "uint256",
          "name": "_id",
          "type": "uint256"
        },
        {
          "internalType": "uint256",
          "name": "index",
          "type": "uint256"
        }
      ],
      "name": "getYieldDividendPerShareAt",
      "outputs": [
        {
          "internalType": "uint256",
          "name": "",
          "type": "uint256"
        }
      ],
      "stateMutability": "view",
      "type": "function"
    },
    {
      "inputs": [],
      "name": "governor",
      "outputs": [
        {
          "internalType": "address",
          "name": "",
          "type": "address"
        }
      ],
      "stateMutability": "view",
      "type": "function"
    },
    {
      "inputs": [
        {
          "internalType": "string",
          "name": "_name",
          "type": "string"
        },
        {
          "internalType": "string",
          "name": "_symbol",
          "type": "string"
        },
        {
          "internalType": "string",
          "name": "_uri",
          "type": "string"
        }
      ],
      "name": "initialize",
      "outputs": [],
      "stateMutability": "nonpayable",
      "type": "function"
    },
    {
      "inputs": [
        {
          "internalType": "uint256",
          "name": "_id",
          "type": "uint256"
        },
        {
          "internalType": "uint256",
          "name": "ipoTime",
          "type": "uint256"
        },
        {
          "internalType": "uint256",
          "name": "ipoUnitPrice",
          "type": "uint256"
        },
        {
          "internalType": "uint256",
          "name": "liquidationTime",
          "type": "uint256"
        },
        {
          "internalType": "uint256",
          "name": "registerationTaxRate",
          "type": "uint256"
        }
      ],
      "name": "initiate",
      "outputs": [],
      "stateMutability": "nonpayable",
      "type": "function"
    },
    {
      "inputs": [
        {
          "internalType": "address",
          "name": "account",
          "type": "address"
        },
        {
          "internalType": "address",
          "name": "operator",
          "type": "address"
        }
      ],
      "name": "isApprovedForAll",
      "outputs": [
        {
          "internalType": "bool",
          "name": "",
          "type": "bool"
        }
      ],
      "stateMutability": "view",
      "type": "function"
    },
    {
      "inputs": [
        {
          "internalType": "uint256",
          "name": "_id",
          "type": "uint256"
        },
        {
          "internalType": "address",
          "name": "account",
          "type": "address"
        }
      ],
      "name": "isIPOContract",
      "outputs": [
        {
          "internalType": "bool",
          "name": "",
          "type": "bool"
        }
      ],
      "stateMutability": "view",
      "type": "function"
    },
    {
      "inputs": [
        {
          "internalType": "address",
          "name": "account",
          "type": "address"
        }
      ],
      "name": "isKYC",
      "outputs": [
        {
          "internalType": "bool",
          "name": "",
          "type": "bool"
        }
      ],
      "stateMutability": "view",
      "type": "function"
    },
    {
      "inputs": [
        {
          "internalType": "address",
          "name": "_to",
          "type": "address"
        },
        {
          "internalType": "uint256",
          "name": "_id",
          "type": "uint256"
        },
        {
          "internalType": "uint256",
          "name": "_quantity",
          "type": "uint256"
        },
        {
          "internalType": "bytes",
          "name": "_data",
          "type": "bytes"
        }
      ],
      "name": "mint",
      "outputs": [],
      "stateMutability": "nonpayable",
      "type": "function"
    },
    {
      "inputs": [],
      "name": "name",
      "outputs": [
        {
          "internalType": "string",
          "name": "",
          "type": "string"
        }
      ],
      "stateMutability": "view",
      "type": "function"
    },
    {
      "inputs": [
        {
          "internalType": "uint256",
          "name": "_id",
          "type": "uint256"
        },
        {
          "internalType": "uint256",
          "name": "amount",
          "type": "uint256"
        }
      ],
      "name": "payDividends",
      "outputs": [],
      "stateMutability": "nonpayable",
      "type": "function"
    },
    {
      "inputs": [
        {
          "internalType": "uint256",
          "name": "_id",
          "type": "uint256"
        }
      ],
      "name": "registerBalances",
      "outputs": [],
      "stateMutability": "nonpayable",
      "type": "function"
    },
    {
      "inputs": [
        {
          "internalType": "address",
          "name": "account",
          "type": "address"
        }
      ],
      "name": "removeKYC",
      "outputs": [],
      "stateMutability": "nonpayable",
      "type": "function"
    },
    {
      "inputs": [
        {
          "internalType": "address[]",
          "name": "accounts",
          "type": "address[]"
        }
      ],
      "name": "removeManyKYC",
      "outputs": [],
      "stateMutability": "nonpayable",
      "type": "function"
    },
    {
      "inputs": [],
      "name": "renounceGovernorship",
      "outputs": [],
      "stateMutability": "nonpayable",
      "type": "function"
    },
    {
      "inputs": [],
      "name": "revokeKYCAdmin",
      "outputs": [],
      "stateMutability": "nonpayable",
      "type": "function"
    },
    {
      "inputs": [
        {
          "internalType": "address",
          "name": "from",
          "type": "address"
        },
        {
          "internalType": "address",
          "name": "to",
          "type": "address"
        },
        {
          "internalType": "uint256[]",
          "name": "ids",
          "type": "uint256[]"
        },
        {
          "internalType": "uint256[]",
          "name": "amounts",
          "type": "uint256[]"
        },
        {
          "internalType": "bytes",
          "name": "data",
          "type": "bytes"
        }
      ],
      "name": "safeBatchTransferFrom",
      "outputs": [],
      "stateMutability": "nonpayable",
      "type": "function"
    },
    {
      "inputs": [
        {
          "internalType": "address",
          "name": "from",
          "type": "address"
        },
        {
          "internalType": "address",
          "name": "to",
          "type": "address"
        },
        {
          "internalType": "uint256",
          "name": "id",
          "type": "uint256"
        },
        {
          "internalType": "uint256",
          "name": "amount",
          "type": "uint256"
        },
        {
          "internalType": "bytes",
          "name": "data",
          "type": "bytes"
        }
      ],
      "name": "safeTransferFrom",
      "outputs": [],
      "stateMutability": "nonpayable",
      "type": "function"
    },
    {
      "inputs": [
        {
          "internalType": "address",
          "name": "operator",
          "type": "address"
        },
        {
          "internalType": "bool",
          "name": "approved",
          "type": "bool"
        }
      ],
      "name": "setApprovalForAll",
      "outputs": [],
      "stateMutability": "nonpayable",
      "type": "function"
    },
    {
      "inputs": [
        {
          "internalType": "string",
          "name": "_newBaseMetadataURI",
          "type": "string"
        }
      ],
      "name": "setBaseMetadataURI",
      "outputs": [],
      "stateMutability": "nonpayable",
      "type": "function"
    },
    {
      "inputs": [
        {
          "internalType": "string",
          "name": "_uri",
          "type": "string"
        }
      ],
      "name": "setContractURI",
      "outputs": [],
      "stateMutability": "nonpayable",
      "type": "function"
    },
    {
      "inputs": [
        {
          "internalType": "address",
          "name": "_to",
          "type": "address"
        },
        {
          "internalType": "uint256[]",
          "name": "_ids",
          "type": "uint256[]"
        }
      ],
      "name": "setCreator",
      "outputs": [],
      "stateMutability": "nonpayable",
      "type": "function"
    },
    {
      "inputs": [
        {
          "internalType": "uint256",
          "name": "_id",
          "type": "uint256"
        },
        {
          "internalType": "address",
          "name": "account",
          "type": "address"
        }
      ],
      "name": "setIPOContract",
      "outputs": [],
      "stateMutability": "nonpayable",
      "type": "function"
    },
    {
      "inputs": [
        {
          "internalType": "address",
          "name": "account",
          "type": "address"
        }
      ],
      "name": "setKYCAdmin",
      "outputs": [],
      "stateMutability": "nonpayable",
      "type": "function"
    },
    {
      "inputs": [
        {
          "internalType": "bytes4",
          "name": "interfaceId",
          "type": "bytes4"
        }
      ],
      "name": "supportsInterface",
      "outputs": [
        {
          "internalType": "bool",
          "name": "",
          "type": "bool"
        }
      ],
      "stateMutability": "view",
      "type": "function"
    },
    {
      "inputs": [],
      "name": "symbol",
      "outputs": [
        {
          "internalType": "string",
          "name": "",
          "type": "string"
        }
      ],
      "stateMutability": "view",
      "type": "function"
    },
    {
      "inputs": [
        {
          "internalType": "uint256",
          "name": "",
          "type": "uint256"
        }
      ],
      "name": "tokenMetadata",
      "outputs": [
        {
          "internalType": "uint256",
          "name": "ipoTime",
          "type": "uint256"
        },
        {
          "internalType": "uint256",
          "name": "ipoUnitPrice",
          "type": "uint256"
        },
        {
          "internalType": "uint256",
          "name": "liquidationTime",
          "type": "uint256"
        },
        {
          "internalType": "uint256",
          "name": "registerationTaxRate",
          "type": "uint256"
        }
      ],
      "stateMutability": "view",
      "type": "function"
    },
    {
      "inputs": [
        {
          "internalType": "uint256",
          "name": "",
          "type": "uint256"
        }
      ],
      "name": "tokenSupply",
      "outputs": [
        {
          "internalType": "uint256",
          "name": "",
          "type": "uint256"
        }
      ],
      "stateMutability": "view",
      "type": "function"
    },
    {
      "inputs": [
        {
          "internalType": "uint256",
          "name": "",
          "type": "uint256"
        }
      ],
      "name": "tokenUri",
      "outputs": [
        {
          "internalType": "string",
          "name": "",
          "type": "string"
        }
      ],
      "stateMutability": "view",
      "type": "function"
    },
    {
      "inputs": [
        {
          "internalType": "uint256",
          "name": "",
          "type": "uint256"
        }
      ],
      "name": "tokenYieldData",
      "outputs": [
        {
          "internalType": "uint256",
          "name": "liquidationExtension",
          "type": "uint256"
        },
        {
          "internalType": "uint256",
          "name": "yieldDividendIndexCounter",
          "type": "uint256"
        }
      ],
      "stateMutability": "view",
      "type": "function"
    },
    {
      "inputs": [
        {
          "internalType": "uint256",
          "name": "_id",
          "type": "uint256"
        }
      ],
      "name": "totalSupply",
      "outputs": [
        {
          "internalType": "uint256",
          "name": "",
          "type": "uint256"
        }
      ],
      "stateMutability": "view",
      "type": "function"
    },
    {
      "inputs": [
        {
          "internalType": "address",
          "name": "newGovernor",
          "type": "address"
        }
      ],
      "name": "transferGovernorship",
      "outputs": [],
      "stateMutability": "nonpayable",
      "type": "function"
    },
    {
      "inputs": [
        {
          "internalType": "uint256",
          "name": "_id",
          "type": "uint256"
        },
        {
          "internalType": "uint256",
          "name": "dividendPerShare",
          "type": "uint256"
        },
        {
          "internalType": "uint256",
          "name": "index",
          "type": "uint256"
        }
      ],
      "name": "unlockDividendPerShare",
      "outputs": [],
      "stateMutability": "nonpayable",
      "type": "function"
    },
    {
      "inputs": [
        {
          "internalType": "uint256",
          "name": "_id",
          "type": "uint256"
        }
      ],
      "name": "uri",
      "outputs": [
        {
          "internalType": "string",
          "name": "",
          "type": "string"
        }
      ],
      "stateMutability": "view",
      "type": "function"
    }
  ],
  "bytecode": "0x608060405234801561001057600080fd5b506146fb806100206000396000f3fe608060405234801561001057600080fd5b506004361061029f5760003560e01c80639944f51811610167578063c8841272116100ce578063df47739011610087578063df477390146106ac578063e8a3d485146106bf578063e985e9c5146106c7578063efe7744f14610703578063f242432a14610724578063f6ee8fcc1461073757600080fd5b8063c8841272146105fa578063cd53d08e1461060d578063d1c901a414610636578063d2a6b51a14610673578063d64e83d714610686578063d98d9eaf1461069957600080fd5b8063b1fd691011610120578063b1fd69101461056a578063b48ab8b61461058e578063b6aa515b146105a1578063bb897303146105b4578063bd85b039146105c7578063beb60ec4146105e757600080fd5b80639944f518146104e15780639a429294146104f45780639b166e2f14610507578063a22cb46514610531578063a6487c5314610544578063abfebaa41461055757600080fd5b80634e1273f41161020b578063731133e9116101c4578063731133e91461048557806378c4acb8146104985780637e518ec8146104ab57806381c0c263146104be578063938e3d7b146104c657806395d89b41146104d957600080fd5b80634e1273f4146103ce57806358cc49a5146103ee578063590a5ce01461040157806359d1a4b114610414578063651217951461041c5780636914db601461042f57600080fd5b806322b6ccfe1161025d57806322b6ccfe1461034d578063243f6b58146103625780632693ebf2146103755780632eb2c2d61461039557806330237a72146103a8578063409f8c48146103bb57600080fd5b8062fdd58e146102a457806301ffc9a7146102ca57806306fdde03146102ed5780630c340a24146103025780630e89341c146103275780631675f4551461033a575b600080fd5b6102b76102b2366004613811565b61074a565b6040519081526020015b60405180910390f35b6102dd6102d8366004613851565b61075f565b60405190151581526020016102c1565b6102f56107af565b6040516102c191906138c2565b6097546001600160a01b03165b6040516001600160a01b0390911681526020016102c1565b6102f56103353660046138d5565b61083e565b6102f56103483660046138d5565b6108e0565b61036061035b3660046138ee565b6108f9565b005b6103606103703660046138ee565b610952565b6102b76103833660046138d5565b60fd6020526000908152604090205481565b6103606103a3366004613a47565b61099f565b6103606103b6366004613af0565b610cee565b6103606103c93660046138ee565b610da2565b6103e16103dc366004613b1c565b610e2e565b6040516102c19190613c21565b6103606103fc3660046138d5565b610f57565b61036061040f366004613c34565b611448565b61036061156c565b6102b761042a366004613c34565b6115a2565b61046561043d3660046138d5565b6101356020526000908152604090208054600182015460028301546003909301549192909184565b6040805194855260208501939093529183015260608201526080016102c1565b610360610493366004613c56565b6115d9565b6103606104a6366004613cb6565b61164f565b6103606104b9366004613d2a565b6116f2565b610360611725565b6103606104d4366004613d2a565b611759565b6102f561179a565b6102dd6104ef3660046138ee565b6117a8565b6102b76105023660046138d5565b6117dd565b61030f6105153660046138d5565b600090815261013a60205260409020546001600160a01b031690565b61036061053f366004613d6c565b6118b6565b610360610552366004613da3565b6118c1565b610360610565366004613e2a565b611944565b6102b76105783660046138d5565b6000908152610135602052604090206001015490565b61036061059c366004613e65565b6119c7565b6103606105af3660046138ee565b611b56565b6102b76105c2366004613f39565b611bf4565b6102b76105d53660046138d5565b600090815260fd602052604090205490565b6103606105f53660046138d5565b611e15565b6102b76106083660046138d5565b6120ee565b61030f61061b3660046138d5565b60fc602052600090815260409020546001600160a01b031681565b61065e6106443660046138d5565b610136602052600090815260409020805460029091015482565b604080519283526020830191909152016102c1565b610360610681366004613fd6565b6121a3565b610360610694366004613cb6565b6122dd565b6102dd6106a7366004614019565b61237b565b6102b76106ba3660046138d5565b61239d565b6102f56123ea565b6102dd6106d5366004614045565b6001600160a01b03918216600090815260666020908152604080832093909416825291909152205460ff1690565b6102b76107113660046138d5565b6101386020526000908152604090205481565b61036061073236600461406f565b61247c565b610360610745366004614019565b6126c6565b6000610756838361272e565b90505b92915050565b60006001600160e01b03198216636cdb3d1360e11b148061079057506001600160e01b031982166303a24d0760e21b145b8061075957506301ffc9a760e01b6001600160e01b0319831614610759565b61010080546107bd906140d3565b80601f01602080910402602001604051908101604052809291908181526020018280546107e9906140d3565b80156108365780601f1061080b57610100808354040283529160200191610836565b820191906000526020600020905b81548152906001019060200180831161081957829003601f168201915b505050505081565b600081815260fe6020526040902080546060919061085b906140d3565b80601f0160208091040260200160405190810160405280929190818152602001828054610887906140d3565b80156108d45780601f106108a9576101008083540402835291602001916108d4565b820191906000526020600020905b8154815290600101906020018083116108b757829003601f168201915b50505050509050919050565b60fe60205260009081526040902080546107bd906140d3565b610103546001600160a01b0316331461092d5760405162461bcd60e51b815260040161092490614108565b60405180910390fd5b6001600160a01b0316600090815261010260205260409020805460ff19166001179055565b610103546001600160a01b0316331461097d5760405162461bcd60e51b815260040161092490614108565b6001600160a01b0316600090815261010260205260409020805460ff19169055565b81518351146109c05760405162461bcd60e51b81526004016109249061414a565b6001600160a01b0384166109e65760405162461bcd60e51b815260040161092490614192565b6001600160a01b038516331480610a025750610a0285336106d5565b610a695760405162461bcd60e51b815260206004820152603260248201527f455243313135353a207472616e736665722063616c6c6572206973206e6f74206044820152711bdddb995c881b9bdc88185c1c1c9bdd995960721b6064820152608401610924565b3360005b8451811015610b0d576000858281518110610a8a57610a8a6141d7565b602002602001015190506000858381518110610aa857610aa86141d7565b60209081029190910181015160008481526065835260408082206001600160a01b038e168352909352919091205490915081811015610af95760405162461bcd60e51b8152600401610924906141ed565b50505080610b069061424d565b9050610a6d565b5060005b8451811015610b5d576000858281518110610b2e57610b2e6141d7565b60200260200101519050610b4288826127c2565b610b4c87826127c2565b50610b568161424d565b9050610b11565b5060005b8451811015610c80576000858281518110610b7e57610b7e6141d7565b602002602001015190506000858381518110610b9c57610b9c6141d7565b60209081029190910181015160008481526065835260408082206001600160a01b038e168352909352918220805482810390915590925090610bde848c61237b565b80610bee5750610bee848b61237b565b905080610c3357600084815261013b602090815260408083206001600160a01b038e16845290915281208054859290610c28908490614268565b90915550610c6b9050565b60008481526065602090815260408083206001600160a01b038e16845290915281208054859290610c65908490614268565b90915550505b5050505080610c799061424d565b9050610b61565b50846001600160a01b0316866001600160a01b0316826001600160a01b03167f4a39dc06d4c0dbc64b70af90fd698a233a518aa5d07e595d983b8c0526c8f7fb8787604051610cd0929190614280565b60405180910390a4610ce68187878787876129ec565b505050505050565b600083815260fc602052604090205483906001600160a01b03163314610d265760405162461bcd60e51b8152600401610924906142ae565b600084815261013660205260409020600101805484919084908110610d4d57610d4d6141d7565b600091825260209091200155610d64826001614268565b600085815261013660205260409020600201541015610d9c57610d88826001614268565b600085815261013660205260409020600201555b50505050565b6097546001600160a01b03163314610dcc5760405162461bcd60e51b8152600401610924906142ff565b6001600160a01b038116610e225760405162461bcd60e51b815260206004820181905260248201527f4b59432041646d696e2063616e6e6f74206265207a65726f20616464726573736044820152606401610924565b610e2b81612b60565b50565b60608151835114610e935760405162461bcd60e51b815260206004820152602960248201527f455243313135353a206163636f756e747320616e6420696473206c656e677468604482015268040dad2e6dac2e8c6d60bb1b6064820152608401610924565b600083516001600160401b03811115610eae57610eae613909565b604051908082528060200260200182016040528015610ed7578160200160208202803683370190505b50905060005b8451811015610f4f57610f22858281518110610efb57610efb6141d7565b6020026020010151858381518110610f1557610f156141d7565b602002602001015161074a565b828281518110610f3457610f346141d7565b6020908102919091010152610f488161424d565b9050610edd565b509392505050565b336000908152610102602052604090205460ff16610fa55760405162461bcd60e51b815260206004820152600b60248201526a4e6f7420796574204b594360a81b6044820152606401610924565b806000610fb3335b8361074a565b11610fd05760405162461bcd60e51b815260040161092490614345565b600260c95414156110235760405162461bcd60e51b815260206004820152601f60248201527f5265656e7472616e637947756172643a207265656e7472616e742063616c6c006044820152606401610924565b600260c955600082815261013b60209081526040808320338452909152902054156110905760405162461bcd60e51b815260206004820152601f60248201527f4d75737420726567697374657220616c6c20524549542062616c616e636573006044820152606401610924565b60008281526101376020908152604080832033845290915290205460ff16611100576000828152610137602090815260408083203380855292528220805460016101009093026001600160a81b031990911617821781556002810183905560038101839055908101829055600401555b60008281526101376020908152604080832033808552908352818420825160c081018452815460ff81161515825261010090046001600160a01b0316948101949094526001810154928401929092526002820154606084015260038201546080840181905260049092015460a08401529192916111899190611183905b87612b83565b90612d07565b9050600081116111db5760405162461bcd60e51b815260206004820181905260248201527f524549544e46543a206e6f206d6f726520636c61696d61626c65207969656c646044820152606401610924565b600084815261013860205260409020548181101561124b5760405162461bcd60e51b815260206004820152602760248201527f524549544e46543a206e656564206d6f72652066756e64696e67732066726f6d6044820152661034b9b9bab2b960c91b6064820152608401610924565b60008581526101366020908152604080832081516060810183528154815260018201805484518187028101870190955280855291949293858401939092908301828280156112b857602002820191906000526020600020905b8154815260200190600101908083116112a4575b5050509183525050600291909101546020918201526000888152610137825260408082203383529092528181206003810191909155908201516001820155600401549091506113079084612d07565b600087815261013760209081526040808320338085529083528184206004908101959095558a8452610139835281842054825163a9059cbb60e01b8152958601919091526024850188905290516001600160a01b0390911693849363a9059cbb9360448084019491939192918390030190829087803b15801561138957600080fd5b505af115801561139d573d6000803e3d6000fd5b505050506040513d601f19601f820116820180604052508101906113c1919061439a565b61140d5760405162461bcd60e51b815260206004820181905260248201527f524549544e46543a20436f756c64206e6f74207472616e736665722066756e646044820152606401610924565b600087815261013860205260409020546114279085612d13565b60009788526101386020526040909720969096555050600160c95550505050565b600082815261013960205260409020546001600160a01b0316806323b872dd336040516001600160e01b031960e084901b1681526001600160a01b03909116600482015230602482015260448101859052606401602060405180830381600087803b1580156114b657600080fd5b505af11580156114ca573d6000803e3d6000fd5b505050506040513d601f19601f820116820180604052508101906114ee919061439a565b61153a5760405162461bcd60e51b815260206004820181905260248201527f524549544e46543a20436f756c64206e6f74207472616e736665722066756e646044820152606401610924565b600083815261013860205260409020546115549083612d07565b60009384526101386020526040909320929092555050565b6097546001600160a01b031633146115965760405162461bcd60e51b8152600401610924906142ff565b6115a06000612b60565b565b6000828152610136602052604081206001018054839081106115c6576115c66141d7565b9060005260206000200154905092915050565b600083815260fc602052604090205483906001600160a01b031633146116115760405162461bcd60e51b8152600401610924906142ae565b61161d85858585612d1f565b600084815260fd60205260409020546116369084612d07565b600094855260fd60205260409094209390935550505050565b610103546001600160a01b0316331461167a5760405162461bcd60e51b815260040161092490614108565b60005b818110156116ed576001610102600085858581811061169e5761169e6141d7565b90506020020160208101906116b391906138ee565b6001600160a01b031681526020810191909152604001600020805460ff1916911515919091179055806116e58161424d565b91505061167d565b505050565b6097546001600160a01b0316331461171c5760405162461bcd60e51b8152600401610924906142ff565b610e2b81612df2565b6097546001600160a01b0316331461174f5760405162461bcd60e51b8152600401610924906142ff565b6115a06000612e05565b6097546001600160a01b031633146117835760405162461bcd60e51b8152600401610924906142ff565b80516117969060ff9060208401906136b3565b5050565b61010180546107bd906140d3565b60006001600160a01b0382166117bd57600080fd5b506001600160a01b03166000908152610102602052604090205460ff1690565b60008181526101366020908152604080832081516060810183528154815260018201805484518187028101870190955280855286958695939493858201939092909183018282801561184e57602002820191906000526020600020905b81548152602001906001019080831161183a575b50505050508152602001600282015481525050905060005b81604001518110156118ad5781602001518181518110611888576118886141d7565b60200260200101518361189b9190614268565b92506118a68161424d565b9050611866565b50909392505050565b611796338383612e57565b60006118cd6001612f38565b905080156118e5576000805461ff0019166101001790555b6118f0848484612fc5565b6118f8613087565b8015610d9c576000805461ff0019169055604051600181527f7f26b83ff96e1f2b6a682f133852f6798a09c465da95921460cefb3847402498906020015b60405180910390a150505050565b600085815260fc602052604090205485906001600160a01b0316331461197c5760405162461bcd60e51b8152600401610924906142ae565b50604080516080810182529485526020808601948552858201938452606086019283526000968752610135905290942092518355905160018301555160028201559051600390910155565b8151835114611a315760405162461bcd60e51b815260206004820152603060248201527f455243313135354d696e744275726e2362617463684d696e743a20494e56414c60448201526f09288be82a4a482b2a6be988a9c8ea8960831b6064820152608401610924565b60005b8351811015611b49576000848281518110611a5157611a516141d7565b602090810291909101810151600081815260fc9092526040909120549091506001600160a01b03163314611adf5760405162461bcd60e51b815260206004820152602f60248201527f455243313135355472616461626c652362617463684d696e743a204f4e4c595f60448201526e10d491505513d497d0531313d5d151608a1b6064820152608401610924565b6000848381518110611af357611af36141d7565b60200260200101519050611b238160fd600085815260200190815260200160002054612d0790919063ffffffff16565b600092835260fd6020526040909220919091555080611b418161424d565b915050611a34565b50610d9c848484846130b6565b6097546001600160a01b03163314611b805760405162461bcd60e51b8152600401610924906142ff565b6001600160a01b038116611beb5760405162461bcd60e51b815260206004820152602c60248201527f476f7665726e61626c653a206e657720676f7665726e6f72206973207468652060448201526b7a65726f206164647265737360a01b6064820152608401610924565b610e2b81612e05565b6097546000906001600160a01b03163314611c215760405162461bcd60e51b8152600401610924906142ff565b6000611c2b613202565b9050611c35613218565b611c3f898261322f565b8515611c9a57807f6bb7ff708619ba0610cba295a58592e0451dee2622938c8755667688daf3529b8888604051611c779291906143b7565b60405180910390a2600081815260fe60205260409020611c98908888613737565b505b60008181526101396020908152604080832080546001600160a01b0319166001600160a01b038a1617905580516080810182528381528083018481528183018581526060808401878152888852610135875285882094518555925160018501559051600284015590516003909201919091558151908101825292835280516078808252610f208201909252838301929091908201610f0080368337505050815260006020918201819052838152610136825260409020825181558282015180519192611d6e926001850192909101906137ab565b5060408201518160020155905050611dbe89828a87878080601f016020809104026020016040519081016040528093929190818152602001838380828437600092019190915250612d1f92505050565b600081815260fd602052604090819020899055517f07eac9a0695a188fe9d6fd680bcbbbe39041fb114d5d7ac11252401391f7930790611e019083815260200190565b60405180910390a198975050505050505050565b336000908152610102602052604090205460ff16611e635760405162461bcd60e51b815260206004820152600b60248201526a4e6f7420796574204b594360a81b6044820152606401610924565b806000611e6f33610fad565b11611e8c5760405162461bcd60e51b815260040161092490614345565b600260c9541415611edf5760405162461bcd60e51b815260206004820152601f60248201527f5265656e7472616e637947756172643a207265656e7472616e742063616c6c006044820152606401610924565b600260c955600082815261013b6020908152604080832033845290915290205480611f455760405162461bcd60e51b8152602060048201526016602482015275105b1c9958591e481c9959da5cdd195c995908185b1b60521b6044820152606401610924565b6000611f51848361325d565b600085815261013960205260409020549091506001600160a01b0316806323b872dd336040516001600160e01b031960e084901b1681526001600160a01b03909116600482015230602482015260448101859052606401602060405180830381600087803b158015611fc257600080fd5b505af1158015611fd6573d6000803e3d6000fd5b505050506040513d601f19601f82011682018060405250810190611ffa919061439a565b6120465760405162461bcd60e51b815260206004820152601a60248201527f524549544e46543a20436f756c64206e6f7420706179207461780000000000006044820152606401610924565b600085815261013b60209081526040808320338085529083528184208490558884526065835281842090845290915281208054859290612087908490614268565b9091555050600085815261013760209081526040808320338452909152902060028101546003909101546120ba91612d07565b60009586526101376020908152604080882033895290915286206003810191909155600201949094555050600160c9555050565b600081816120fb33610fad565b116121185760405162461bcd60e51b815260040161092490614345565b6000838152610137602090815260408083203380855290835292819020815160c081018352815460ff81161515825261010090046001600160a01b0316938101939093526001810154918301919091526002810154606083015260038101546080830181905260049091015460a0830152909161219991906111839061117d565b9250505b50919050565b6001600160a01b03821661220d5760405162461bcd60e51b815260206004820152602b60248201527f455243313135355472616461626c652373657443726561746f723a20494e564160448201526a4c49445f4144445245535360a81b6064820152608401610924565b60005b81518110156116ed57600082828151811061222d5761222d6141d7565b6020026020010151905061223e3390565b600082815260fc60205260409020546001600160a01b039081169116146122c05760405162461bcd60e51b815260206004820152603060248201527f455243313135355472616461626c652373657443726561746f723a204f4e4c5960448201526f17d0d491505513d497d0531313d5d15160821b6064820152608401610924565b6122ca848261322f565b50806122d58161424d565b915050612210565b610103546001600160a01b031633146123085760405162461bcd60e51b815260040161092490614108565b60005b818110156116ed576000610102600085858581811061232c5761232c6141d7565b905060200201602081019061234191906138ee565b6001600160a01b031681526020810191909152604001600020805460ff1916911515919091179055806123738161424d565b91505061230b565b600091825261013a6020526040909120546001600160a01b0391821691161490565b600081816123aa33610fad565b116123c75760405162461bcd60e51b815260040161092490614345565b505060009081526101376020908152604080832033845290915290206004015490565b606060ff80546123f9906140d3565b80601f0160208091040260200160405190810160405280929190818152602001828054612425906140d3565b80156124725780601f1061244757610100808354040283529160200191612472565b820191906000526020600020905b81548152906001019060200180831161245557829003601f168201915b5050505050905090565b6001600160a01b0384166124a25760405162461bcd60e51b815260040161092490614192565b6001600160a01b0385163314806124be57506124be85336106d5565b61251c5760405162461bcd60e51b815260206004820152602960248201527f455243313135353a2063616c6c6572206973206e6f74206f776e6572206e6f7260448201526808185c1c1c9bdd995960ba1b6064820152608401610924565b336000612528856132cc565b90506000612535856132cc565b905060008681526065602090815260408083206001600160a01b038c1684529091529020548581101561257a5760405162461bcd60e51b8152600401610924906141ed565b61258489886127c2565b61258e88886127c2565b60008781526065602090815260408083206001600160a01b038d168452909152812087830390556125bf888b61237b565b806125cf57506125cf888a61237b565b90508061261457600088815261013b602090815260408083206001600160a01b038d16845290915281208054899290612609908490614268565b9091555061264c9050565b60008881526065602090815260408083206001600160a01b038d16845290915281208054899290612646908490614268565b90915550505b886001600160a01b03168a6001600160a01b0316866001600160a01b03167fc3d58168c5ae7397731d063d5bbf3d657854427343f4c083240f7aacaa2d0f628b8b6040516126a4929190918252602082015260400190565b60405180910390a46126ba858b8b8b8b8b613317565b50505050505050505050565b600082815260fc602052604090205482906001600160a01b031633146126fe5760405162461bcd60e51b8152600401610924906142ae565b50600091825261013a602052604090912080546001600160a01b0319166001600160a01b03909216919091179055565b60006001600160a01b03831661279a5760405162461bcd60e51b815260206004820152602b60248201527f455243313135353a2062616c616e636520717565727920666f7220746865207a60448201526a65726f206164647265737360a81b6064820152608401610924565b5060009081526065602090815260408083206001600160a01b03949094168352929052205490565b6127cc818361237b565b156127d5575050565b6000818152610137602090815260408083206001600160a01b038616845290915290205460ff16612852576000818152610137602090815260408083206001600160a01b03861680855292528220805460016001600160a81b03199091166101009093029290921782178155600281018390556003810183905501555b600061285e8383612b83565b9050600061286c84846133e1565b90506000610136600085815260200190815260200160002060405180606001604052908160008201548152602001600182018054806020026020016040519081016040528092919081815260200182805480156128e857602002820191906000526020600020905b8154815260200190600101908083116128d4575b505050918352505060029190910154602091820152604080830151600088815261013784528281206001600160a01b038b16825290935291206001015590508215612986576000848152610137602090815260408083206001600160a01b038916845290915290206003015461295e9084612d07565b6000858152610137602090815260408083206001600160a01b038a1684529091529020600301555b81156129e5576000848152610137602090815260408083206001600160a01b03891684529091529020600201546129bd9083612d07565b6000858152610137602090815260408083206001600160a01b038a1684529091529020600201555b5050505050565b6001600160a01b0384163b15610ce65760405163bc197c8160e01b81526001600160a01b0385169063bc197c8190612a3090899089908890889088906004016143e6565b602060405180830381600087803b158015612a4a57600080fd5b505af1925050508015612a7a575060408051601f3d908101601f19168201909252612a7791810190614444565b60015b612b2757612a86614461565b806308c379a01415612ac05750612a9b61447d565b80612aa65750612ac2565b8060405162461bcd60e51b815260040161092491906138c2565b505b60405162461bcd60e51b815260206004820152603460248201527f455243313135353a207472616e7366657220746f206e6f6e20455243313135356044820152732932b1b2b4bb32b91034b6b83632b6b2b73a32b960611b6064820152608401610924565b6001600160e01b0319811663bc197c8160e01b14612b575760405162461bcd60e51b815260040161092490614506565b50505050505050565b61010380546001600160a01b0319166001600160a01b0392909216919091179055565b6000818152610137602090815260408083206001600160a01b038087168552908352818420825160c081018452815460ff8116151580835261010090910490931694810194909452600181015492840192909252600282015460608401526003820154608084015260049091015460a0830152612c04576000915050610759565b6000838152610136602090815260408083208151606081018352815481526001820180548451818702810187019095528085529194929385840193909290830182828015612c7157602002820191906000526020600020905b815481526020019060010190808311612c5d575b5050505050815260200160028201548152505090506000612c92868661074a565b60408401519091506000905b8360400151811015612cfc576000612cdc8486602001518481518110612cc657612cc66141d7565b602002602001015161355890919063ffffffff16565b9050612ce88382612d07565b92505080612cf59061424d565b9050612c9e565b509695505050505050565b60006107568284614268565b6000610756828461454e565b6001600160a01b038416612d455760405162461bcd60e51b815260040161092490614565565b336000612d51856132cc565b90506000612d5e856132cc565b905060008681526065602090815260408083206001600160a01b038b16845290915281208054879290612d92908490614268565b909155505060408051878152602081018790526001600160a01b03808a1692600092918716917fc3d58168c5ae7397731d063d5bbf3d657854427343f4c083240f7aacaa2d0f62910160405180910390a4612b5783600089898989613317565b80516117969060679060208401906136b3565b609780546001600160a01b038381166001600160a01b0319831681179093556040519116919082907fc7c0c772add429241571afb3805861fb3cfa2af374534088b76cdb4325a87e9a90600090a35050565b816001600160a01b0316836001600160a01b03161415612ecb5760405162461bcd60e51b815260206004820152602960248201527f455243313135353a2073657474696e6720617070726f76616c20737461747573604482015268103337b91039b2b63360b91b6064820152608401610924565b6001600160a01b03838116600081815260666020908152604080832094871680845294825291829020805460ff191686151590811790915591519182527f17307eab39ab6107e8899845ad3d59bd9653f200f220920489ca2b5937696c31910160405180910390a3505050565b60008054610100900460ff1615612f7f578160ff166001148015612f5b5750303b155b612f775760405162461bcd60e51b8152600401610924906145a6565b506000919050565b60005460ff808416911610612fa65760405162461bcd60e51b8152600401610924906145a6565b506000805460ff191660ff92909216919091179055600190565b919050565b6000612fd16001612f38565b90508015612fe9576000805461ff0019166101001790555b612ff282613564565b612ffa613594565b6130026135c3565b8351613016906101009060208701906136b3565b50825161302b906101019060208601906136b3565b50600060fb5581516130449060ff9060208501906136b3565b508015610d9c576000805461ff0019169055604051600181527f7f26b83ff96e1f2b6a682f133852f6798a09c465da95921460cefb384740249890602001611936565b600054610100900460ff166130ae5760405162461bcd60e51b8152600401610924906145f4565b6115a06135f2565b6001600160a01b0384166130dc5760405162461bcd60e51b815260040161092490614565565b81518351146130fd5760405162461bcd60e51b81526004016109249061414a565b3360005b845181101561319a5783818151811061311c5761311c6141d7565b60200260200101516065600087848151811061313a5761313a6141d7565b602002602001015181526020019081526020016000206000886001600160a01b03166001600160a01b0316815260200190815260200160002060008282546131829190614268565b909155508190506131928161424d565b915050613101565b50846001600160a01b031660006001600160a01b0316826001600160a01b03167f4a39dc06d4c0dbc64b70af90fd698a233a518aa5d07e595d983b8c0526c8f7fb87876040516131eb929190614280565b60405180910390a46129e5816000878787876129ec565b60fb54600090613213906001612d07565b905090565b60fb80549060006132288361424d565b9190505550565b600090815260fc6020526040902080546001600160a01b0319166001600160a01b0392909216919091179055565b6000828152610135602090815260408083208151608081018352815481526001820154938101849052600282015492810192909252600301546060820181905290916132c4916305f5e100916132be91906132b89088613558565b90613558565b90613622565b949350505050565b60408051600180825281830190925260609160009190602080830190803683370190505090508281600081518110613306576133066141d7565b602090810291909101015292915050565b6001600160a01b0384163b15610ce65760405163f23a6e6160e01b81526001600160a01b0385169063f23a6e619061335b908990899088908890889060040161463f565b602060405180830381600087803b15801561337557600080fd5b505af19250505080156133a5575060408051601f3d908101601f191682019092526133a291810190614444565b60015b6133b157612a86614461565b6001600160e01b0319811663f23a6e6160e01b14612b575760405162461bcd60e51b815260040161092490614506565b6000818152610137602090815260408083206001600160a01b038087168552908352818420825160c081018452815460ff8116151580835261010090910490931694810194909452600181015492840192909252600282015460608401526003820154608084015260049091015460a0830152613462576000915050610759565b60008381526101366020908152604080832081516060810183528154815260018201805484518187028101870190955280855291949293858401939092908301828280156134cf57602002820191906000526020600020905b8154815260200190600101908083116134bb575b505050918352505060029190910154602091820152600086815261013b825260408082206001600160a01b038a168352909252818120549185015192935090915b8360400151811015612cfc5760006135388486602001518481518110612cc657612cc66141d7565b90506135448382612d07565b925050806135519061424d565b9050613510565b60006107568284614684565b600054610100900460ff1661358b5760405162461bcd60e51b8152600401610924906145f4565b610e2b8161362e565b600054610100900460ff166135bb5760405162461bcd60e51b8152600401610924906145f4565b6115a0613655565b600054610100900460ff166135ea5760405162461bcd60e51b8152600401610924906145f4565b6115a0613685565b600054610100900460ff166136195760405162461bcd60e51b8152600401610924906145f4565b6115a033612b60565b600061075682846146a3565b600054610100900460ff1661171c5760405162461bcd60e51b8152600401610924906145f4565b600054610100900460ff1661367c5760405162461bcd60e51b8152600401610924906145f4565b6115a033612e05565b600054610100900460ff166136ac5760405162461bcd60e51b8152600401610924906145f4565b600160c955565b8280546136bf906140d3565b90600052602060002090601f0160209004810192826136e15760008555613727565b82601f106136fa57805160ff1916838001178555613727565b82800160010185558215613727579182015b8281111561372757825182559160200191906001019061370c565b506137339291506137e5565b5090565b828054613743906140d3565b90600052602060002090601f0160209004810192826137655760008555613727565b82601f1061377e5782800160ff19823516178555613727565b82800160010185558215613727579182015b82811115613727578235825591602001919060010190613790565b828054828255906000526020600020908101928215613727579160200282018281111561372757825182559160200191906001019061370c565b5b8082111561373357600081556001016137e6565b80356001600160a01b0381168114612fc057600080fd5b6000806040838503121561382457600080fd5b61382d836137fa565b946020939093013593505050565b6001600160e01b031981168114610e2b57600080fd5b60006020828403121561386357600080fd5b813561386e8161383b565b9392505050565b6000815180845260005b8181101561389b5760208185018101518683018201520161387f565b818111156138ad576000602083870101525b50601f01601f19169290920160200192915050565b6020815260006107566020830184613875565b6000602082840312156138e757600080fd5b5035919050565b60006020828403121561390057600080fd5b610756826137fa565b634e487b7160e01b600052604160045260246000fd5b601f8201601f191681016001600160401b038111828210171561394457613944613909565b6040525050565b60006001600160401b0382111561396457613964613909565b5060051b60200190565b600082601f83011261397f57600080fd5b8135602061398c8261394b565b604051613999828261391f565b83815260059390931b85018201928281019150868411156139b957600080fd5b8286015b84811015612cfc57803583529183019183016139bd565b600082601f8301126139e557600080fd5b81356001600160401b038111156139fe576139fe613909565b604051613a15601f8301601f19166020018261391f565b818152846020838601011115613a2a57600080fd5b816020850160208301376000918101602001919091529392505050565b600080600080600060a08688031215613a5f57600080fd5b613a68866137fa565b9450613a76602087016137fa565b935060408601356001600160401b0380821115613a9257600080fd5b613a9e89838a0161396e565b94506060880135915080821115613ab457600080fd5b613ac089838a0161396e565b93506080880135915080821115613ad657600080fd5b50613ae3888289016139d4565b9150509295509295909350565b600080600060608486031215613b0557600080fd5b505081359360208301359350604090920135919050565b60008060408385031215613b2f57600080fd5b82356001600160401b0380821115613b4657600080fd5b818501915085601f830112613b5a57600080fd5b81356020613b678261394b565b604051613b74828261391f565b83815260059390931b8501820192828101915089841115613b9457600080fd5b948201945b83861015613bb957613baa866137fa565b82529482019490820190613b99565b96505086013592505080821115613bcf57600080fd5b50613bdc8582860161396e565b9150509250929050565b600081518084526020808501945080840160005b83811015613c1657815187529582019590820190600101613bfa565b509495945050505050565b6020815260006107566020830184613be6565b60008060408385031215613c4757600080fd5b50508035926020909101359150565b60008060008060808587031215613c6c57600080fd5b613c75856137fa565b9350602085013592506040850135915060608501356001600160401b03811115613c9e57600080fd5b613caa878288016139d4565b91505092959194509250565b60008060208385031215613cc957600080fd5b82356001600160401b0380821115613ce057600080fd5b818501915085601f830112613cf457600080fd5b813581811115613d0357600080fd5b8660208260051b8501011115613d1857600080fd5b60209290920196919550909350505050565b600060208284031215613d3c57600080fd5b81356001600160401b03811115613d5257600080fd5b6132c4848285016139d4565b8015158114610e2b57600080fd5b60008060408385031215613d7f57600080fd5b613d88836137fa565b91506020830135613d9881613d5e565b809150509250929050565b600080600060608486031215613db857600080fd5b83356001600160401b0380821115613dcf57600080fd5b613ddb878388016139d4565b94506020860135915080821115613df157600080fd5b613dfd878388016139d4565b93506040860135915080821115613e1357600080fd5b50613e20868287016139d4565b9150509250925092565b600080600080600060a08688031215613e4257600080fd5b505083359560208501359550604085013594606081013594506080013592509050565b60008060008060808587031215613e7b57600080fd5b613e84856137fa565b935060208501356001600160401b0380821115613ea057600080fd5b613eac8883890161396e565b94506040870135915080821115613ec257600080fd5b613ece8883890161396e565b93506060870135915080821115613ee457600080fd5b50613caa878288016139d4565b60008083601f840112613f0357600080fd5b5081356001600160401b03811115613f1a57600080fd5b602083019150836020828501011115613f3257600080fd5b9250929050565b600080600080600080600060a0888a031215613f5457600080fd5b613f5d886137fa565b96506020880135955060408801356001600160401b0380821115613f8057600080fd5b613f8c8b838c01613ef1565b9097509550859150613fa060608b016137fa565b945060808a0135915080821115613fb657600080fd5b50613fc38a828b01613ef1565b989b979a50959850939692959293505050565b60008060408385031215613fe957600080fd5b613ff2836137fa565b915060208301356001600160401b0381111561400d57600080fd5b613bdc8582860161396e565b6000806040838503121561402c57600080fd5b8235915061403c602084016137fa565b90509250929050565b6000806040838503121561405857600080fd5b614061836137fa565b915061403c602084016137fa565b600080600080600060a0868803121561408757600080fd5b614090866137fa565b945061409e602087016137fa565b9350604086013592506060860135915060808601356001600160401b038111156140c757600080fd5b613ae3888289016139d4565b600181811c908216806140e757607f821691505b6020821081141561219d57634e487b7160e01b600052602260045260246000fd5b60208082526022908201527f4b59434163636573733a2063616c6c6572206973206e6f74207468652061646d60408201526134b760f11b606082015260800190565b60208082526028908201527f455243313135353a2069647320616e6420616d6f756e7473206c656e677468206040820152670dad2e6dac2e8c6d60c31b606082015260800190565b60208082526025908201527f455243313135353a207472616e7366657220746f20746865207a65726f206164604082015264647265737360d81b606082015260800190565b634e487b7160e01b600052603260045260246000fd5b6020808252602a908201527f455243313135353a20696e73756666696369656e742062616c616e636520666f60408201526939103a3930b739b332b960b11b606082015260800190565b634e487b7160e01b600052601160045260246000fd5b600060001982141561426157614261614237565b5060010190565b6000821982111561427b5761427b614237565b500190565b6040815260006142936040830185613be6565b82810360208401526142a58185613be6565b95945050505050565b60208082526031908201527f455243313135355472616461626c652363726561746f724f6e6c793a204f4e4c6040820152701657d0d491505513d497d0531313d5d151607a1b606082015260800190565b60208082526026908201527f476f7665726e61626c653a2063616c6c6572206973206e6f742074686520676f6040820152653b32b93737b960d11b606082015260800190565b60208082526035908201527f455243313135355472616461626c65237368617265486f6c646572734f6e6c796040820152740e8813d3931657d3d5d3915494d7d0531313d5d151605a1b606082015260800190565b6000602082840312156143ac57600080fd5b815161386e81613d5e565b60208152816020820152818360408301376000818301604090810191909152601f909201601f19160101919050565b6001600160a01b0386811682528516602082015260a06040820181905260009061441290830186613be6565b82810360608401526144248186613be6565b905082810360808401526144388185613875565b98975050505050505050565b60006020828403121561445657600080fd5b815161386e8161383b565b600060033d111561447a5760046000803e5060005160e01c5b90565b600060443d101561448b5790565b6040516003193d81016004833e81513d6001600160401b0381602484011181841117156144ba57505050505090565b82850191508151818111156144d25750505050505090565b843d87010160208285010111156144ec5750505050505090565b6144fb6020828601018761391f565b509095945050505050565b60208082526028908201527f455243313135353a204552433131353552656365697665722072656a656374656040820152676420746f6b656e7360c01b606082015260800190565b60008282101561456057614560614237565b500390565b60208082526021908201527f455243313135353a206d696e7420746f20746865207a65726f206164647265736040820152607360f81b606082015260800190565b6020808252602e908201527f496e697469616c697a61626c653a20636f6e747261637420697320616c72656160408201526d191e481a5b9a5d1a585b1a5e995960921b606082015260800190565b6020808252602b908201527f496e697469616c697a61626c653a20636f6e7472616374206973206e6f74206960408201526a6e697469616c697a696e6760a81b606082015260800190565b6001600160a01b03868116825285166020820152604081018490526060810183905260a06080820181905260009061467990830184613875565b979650505050505050565b600081600019048311821515161561469e5761469e614237565b500290565b6000826146c057634e487b7160e01b600052601260045260246000fd5b50049056fea2646970667358221220a25c4bc3d3f4cff6dc56eb73c75b6787ab3f8d319bb9bc247fdc5aee7683daea64736f6c63430008090033",
  "linkReferences": {},
  "deployedLinkReferences": {}
}