{
  "_format": "hh-sol-artifact-1",
  "contractName": "REITNFT",
  "sourceName": "contracts/REITNFT.sol",
  "abi": [
    {
      "anonymous": false,
      "inputs": [
        {
          "indexed": true,
          "internalType": "address",
          "name": "account",
          "type": "address"
        },
        {
          "indexed": true,
          "internalType": "address",
          "name": "operator",
          "type": "address"
        },
        {
          "indexed": false,
          "internalType": "bool",
          "name": "approved",
          "type": "bool"
        }
      ],
      "name": "ApprovalForAll",
      "type": "event"
    },
    {
      "anonymous": false,
      "inputs": [
        {
          "indexed": false,
          "internalType": "uint256",
          "name": "id",
          "type": "uint256"
        }
      ],
      "name": "Create",
      "type": "event"
    },
    {
      "anonymous": false,
      "inputs": [
        {
          "indexed": true,
          "internalType": "address",
          "name": "previousGovernor",
          "type": "address"
        },
        {
          "indexed": true,
          "internalType": "address",
          "name": "newGovernor",
          "type": "address"
        }
      ],
      "name": "GovernorshipTransferred",
      "type": "event"
    },
    {
      "anonymous": false,
      "inputs": [
        {
          "indexed": false,
          "internalType": "uint8",
          "name": "version",
          "type": "uint8"
        }
      ],
      "name": "Initialized",
      "type": "event"
    },
    {
      "anonymous": false,
      "inputs": [
        {
          "indexed": true,
          "internalType": "address",
          "name": "operator",
          "type": "address"
        },
        {
          "indexed": true,
          "internalType": "address",
          "name": "from",
          "type": "address"
        },
        {
          "indexed": true,
          "internalType": "address",
          "name": "to",
          "type": "address"
        },
        {
          "indexed": false,
          "internalType": "uint256[]",
          "name": "ids",
          "type": "uint256[]"
        },
        {
          "indexed": false,
          "internalType": "uint256[]",
          "name": "values",
          "type": "uint256[]"
        }
      ],
      "name": "TransferBatch",
      "type": "event"
    },
    {
      "anonymous": false,
      "inputs": [
        {
          "indexed": true,
          "internalType": "address",
          "name": "operator",
          "type": "address"
        },
        {
          "indexed": true,
          "internalType": "address",
          "name": "from",
          "type": "address"
        },
        {
          "indexed": true,
          "internalType": "address",
          "name": "to",
          "type": "address"
        },
        {
          "indexed": false,
          "internalType": "uint256",
          "name": "id",
          "type": "uint256"
        },
        {
          "indexed": false,
          "internalType": "uint256",
          "name": "value",
          "type": "uint256"
        }
      ],
      "name": "TransferSingle",
      "type": "event"
    },
    {
      "anonymous": false,
      "inputs": [
        {
          "indexed": false,
          "internalType": "string",
          "name": "value",
          "type": "string"
        },
        {
          "indexed": true,
          "internalType": "uint256",
          "name": "id",
          "type": "uint256"
        }
      ],
      "name": "URI",
      "type": "event"
    },
    {
      "inputs": [
        {
          "internalType": "address[]",
          "name": "accounts",
          "type": "address[]"
        }
      ],
      "name": "addManyToKYC",
      "outputs": [],
      "stateMutability": "nonpayable",
      "type": "function"
    },
    {
      "inputs": [
        {
          "internalType": "address",
          "name": "account",
          "type": "address"
        }
      ],
      "name": "addToKYC",
      "outputs": [],
      "stateMutability": "nonpayable",
      "type": "function"
    },
    {
      "inputs": [
        {
          "internalType": "address",
          "name": "account",
          "type": "address"
        },
        {
          "internalType": "uint256",
          "name": "id",
          "type": "uint256"
        }
      ],
      "name": "balanceOf",
      "outputs": [
        {
          "internalType": "uint256",
          "name": "",
          "type": "uint256"
        }
      ],
      "stateMutability": "view",
      "type": "function"
    },
    {
      "inputs": [
        {
          "internalType": "address[]",
          "name": "accounts",
          "type": "address[]"
        },
        {
          "internalType": "uint256[]",
          "name": "ids",
          "type": "uint256[]"
        }
      ],
      "name": "balanceOfBatch",
      "outputs": [
        {
          "internalType": "uint256[]",
          "name": "",
          "type": "uint256[]"
        }
      ],
      "stateMutability": "view",
      "type": "function"
    },
    {
      "inputs": [
        {
          "internalType": "address",
          "name": "_to",
          "type": "address"
        },
        {
          "internalType": "uint256[]",
          "name": "_ids",
          "type": "uint256[]"
        },
        {
          "internalType": "uint256[]",
          "name": "_quantities",
          "type": "uint256[]"
        },
        {
          "internalType": "bytes",
          "name": "_data",
          "type": "bytes"
        }
      ],
      "name": "batchMint",
      "outputs": [],
      "stateMutability": "nonpayable",
      "type": "function"
    },
    {
      "inputs": [
        {
          "internalType": "uint256",
          "name": "_id",
          "type": "uint256"
        }
      ],
      "name": "claimBenefit",
      "outputs": [],
      "stateMutability": "nonpayable",
      "type": "function"
    },
    {
      "inputs": [],
      "name": "contractURI",
      "outputs": [
        {
          "internalType": "string",
          "name": "",
          "type": "string"
        }
      ],
      "stateMutability": "view",
      "type": "function"
    },
    {
      "inputs": [
        {
          "internalType": "address",
          "name": "_initialOwner",
          "type": "address"
        },
        {
          "internalType": "uint256",
          "name": "_initialSupply",
          "type": "uint256"
        },
        {
          "internalType": "string",
          "name": "_uri",
          "type": "string"
        },
        {
          "internalType": "address",
          "name": "_fundingToken",
          "type": "address"
        },
        {
          "internalType": "bytes",
          "name": "_data",
          "type": "bytes"
        }
      ],
      "name": "createREIT",
      "outputs": [
        {
          "internalType": "uint256",
          "name": "",
          "type": "uint256"
        }
      ],
      "stateMutability": "nonpayable",
      "type": "function"
    },
    {
      "inputs": [
        {
          "internalType": "uint256",
          "name": "",
          "type": "uint256"
        }
      ],
      "name": "creators",
      "outputs": [
        {
          "internalType": "address",
          "name": "",
          "type": "address"
        }
      ],
      "stateMutability": "view",
      "type": "function"
    },
    {
      "inputs": [
        {
          "internalType": "uint256",
          "name": "",
          "type": "uint256"
        }
      ],
      "name": "dividendFunds",
      "outputs": [
        {
          "internalType": "uint256",
          "name": "",
          "type": "uint256"
        }
      ],
      "stateMutability": "view",
      "type": "function"
    },
    {
      "inputs": [
        {
          "internalType": "uint256",
          "name": "_id",
          "type": "uint256"
        }
      ],
      "name": "getClaimedYield",
      "outputs": [
        {
          "internalType": "uint256",
          "name": "",
          "type": "uint256"
        }
      ],
      "stateMutability": "view",
      "type": "function"
    },
    {
      "inputs": [
        {
          "internalType": "uint256",
          "name": "_id",
          "type": "uint256"
        }
      ],
      "name": "getIPOContract",
      "outputs": [
        {
          "internalType": "address",
          "name": "",
          "type": "address"
        }
      ],
      "stateMutability": "view",
      "type": "function"
    },
    {
      "inputs": [
        {
          "internalType": "uint256",
          "name": "_id",
          "type": "uint256"
        }
      ],
      "name": "getShareUnitPrice",
      "outputs": [
        {
          "internalType": "uint256",
          "name": "",
          "type": "uint256"
        }
      ],
      "stateMutability": "view",
      "type": "function"
    },
    {
      "inputs": [
        {
          "internalType": "uint256",
          "name": "_id",
          "type": "uint256"
        }
      ],
      "name": "getTotalClaimableBenefit",
      "outputs": [
        {
          "internalType": "uint256",
          "name": "",
          "type": "uint256"
        }
      ],
      "stateMutability": "view",
      "type": "function"
    },
    {
      "inputs": [
        {
          "internalType": "uint256",
          "name": "_id",
          "type": "uint256"
        }
      ],
      "name": "getTotalYieldDividendPerShare",
      "outputs": [
        {
          "internalType": "uint256",
          "name": "",
          "type": "uint256"
        }
      ],
      "stateMutability": "view",
      "type": "function"
    },
    {
      "inputs": [
        {
          "internalType": "uint256",
          "name": "_id",
          "type": "uint256"
        },
        {
          "internalType": "uint256",
          "name": "index",
          "type": "uint256"
        }
      ],
      "name": "getYieldDividendPerShareAt",
      "outputs": [
        {
          "internalType": "uint256",
          "name": "",
          "type": "uint256"
        }
      ],
      "stateMutability": "view",
      "type": "function"
    },
    {
      "inputs": [],
      "name": "governor",
      "outputs": [
        {
          "internalType": "address",
          "name": "",
          "type": "address"
        }
      ],
      "stateMutability": "view",
      "type": "function"
    },
    {
      "inputs": [
        {
          "internalType": "string",
          "name": "_name",
          "type": "string"
        },
        {
          "internalType": "string",
          "name": "_symbol",
          "type": "string"
        },
        {
          "internalType": "string",
          "name": "_uri",
          "type": "string"
        }
      ],
      "name": "initialize",
      "outputs": [],
      "stateMutability": "nonpayable",
      "type": "function"
    },
    {
      "inputs": [
        {
          "internalType": "uint256",
          "name": "_id",
          "type": "uint256"
        },
        {
          "internalType": "uint256",
          "name": "ipoTime",
          "type": "uint256"
        },
        {
          "internalType": "uint256",
          "name": "ipoUnitPrice",
          "type": "uint256"
        },
        {
          "internalType": "uint256",
          "name": "liquidationTime",
          "type": "uint256"
        },
        {
          "internalType": "uint256",
          "name": "registerationTaxRate",
          "type": "uint256"
        }
      ],
      "name": "initiate",
      "outputs": [],
      "stateMutability": "nonpayable",
      "type": "function"
    },
    {
      "inputs": [
        {
          "internalType": "address",
          "name": "account",
          "type": "address"
        },
        {
          "internalType": "address",
          "name": "operator",
          "type": "address"
        }
      ],
      "name": "isApprovedForAll",
      "outputs": [
        {
          "internalType": "bool",
          "name": "",
          "type": "bool"
        }
      ],
      "stateMutability": "view",
      "type": "function"
    },
    {
      "inputs": [
        {
          "internalType": "uint256",
          "name": "_id",
          "type": "uint256"
        },
        {
          "internalType": "address",
          "name": "account",
          "type": "address"
        }
      ],
      "name": "isIPOContract",
      "outputs": [
        {
          "internalType": "bool",
          "name": "",
          "type": "bool"
        }
      ],
      "stateMutability": "view",
      "type": "function"
    },
    {
      "inputs": [
        {
          "internalType": "address",
          "name": "account",
          "type": "address"
        }
      ],
      "name": "isKYC",
      "outputs": [
        {
          "internalType": "bool",
          "name": "",
          "type": "bool"
        }
      ],
      "stateMutability": "view",
      "type": "function"
    },
    {
      "inputs": [
        {
          "internalType": "address",
          "name": "_to",
          "type": "address"
        },
        {
          "internalType": "uint256",
          "name": "_id",
          "type": "uint256"
        },
        {
          "internalType": "uint256",
          "name": "_quantity",
          "type": "uint256"
        },
        {
          "internalType": "bytes",
          "name": "_data",
          "type": "bytes"
        }
      ],
      "name": "mint",
      "outputs": [],
      "stateMutability": "nonpayable",
      "type": "function"
    },
    {
      "inputs": [],
      "name": "name",
      "outputs": [
        {
          "internalType": "string",
          "name": "",
          "type": "string"
        }
      ],
      "stateMutability": "view",
      "type": "function"
    },
    {
      "inputs": [
        {
          "internalType": "uint256",
          "name": "_id",
          "type": "uint256"
        },
        {
          "internalType": "uint256",
          "name": "amount",
          "type": "uint256"
        }
      ],
      "name": "payDividends",
      "outputs": [],
      "stateMutability": "nonpayable",
      "type": "function"
    },
    {
      "inputs": [
        {
          "internalType": "uint256",
          "name": "_id",
          "type": "uint256"
        }
      ],
      "name": "registerBalances",
      "outputs": [],
      "stateMutability": "nonpayable",
      "type": "function"
    },
    {
      "inputs": [
        {
          "internalType": "address",
          "name": "account",
          "type": "address"
        }
      ],
      "name": "removeKYC",
      "outputs": [],
      "stateMutability": "nonpayable",
      "type": "function"
    },
    {
      "inputs": [
        {
          "internalType": "address[]",
          "name": "accounts",
          "type": "address[]"
        }
      ],
      "name": "removeManyKYC",
      "outputs": [],
      "stateMutability": "nonpayable",
      "type": "function"
    },
    {
      "inputs": [],
      "name": "renounceGovernorship",
      "outputs": [],
      "stateMutability": "nonpayable",
      "type": "function"
    },
    {
      "inputs": [],
      "name": "revokeKYCAdmin",
      "outputs": [],
      "stateMutability": "nonpayable",
      "type": "function"
    },
    {
      "inputs": [
        {
          "internalType": "address",
          "name": "from",
          "type": "address"
        },
        {
          "internalType": "address",
          "name": "to",
          "type": "address"
        },
        {
          "internalType": "uint256[]",
          "name": "ids",
          "type": "uint256[]"
        },
        {
          "internalType": "uint256[]",
          "name": "amounts",
          "type": "uint256[]"
        },
        {
          "internalType": "bytes",
          "name": "data",
          "type": "bytes"
        }
      ],
      "name": "safeBatchTransferFrom",
      "outputs": [],
      "stateMutability": "nonpayable",
      "type": "function"
    },
    {
      "inputs": [
        {
          "internalType": "address",
          "name": "from",
          "type": "address"
        },
        {
          "internalType": "address",
          "name": "to",
          "type": "address"
        },
        {
          "internalType": "uint256",
          "name": "id",
          "type": "uint256"
        },
        {
          "internalType": "uint256",
          "name": "amount",
          "type": "uint256"
        },
        {
          "internalType": "bytes",
          "name": "data",
          "type": "bytes"
        }
      ],
      "name": "safeTransferFrom",
      "outputs": [],
      "stateMutability": "nonpayable",
      "type": "function"
    },
    {
      "inputs": [
        {
          "internalType": "address",
          "name": "operator",
          "type": "address"
        },
        {
          "internalType": "bool",
          "name": "approved",
          "type": "bool"
        }
      ],
      "name": "setApprovalForAll",
      "outputs": [],
      "stateMutability": "nonpayable",
      "type": "function"
    },
    {
      "inputs": [
        {
          "internalType": "string",
          "name": "_newBaseMetadataURI",
          "type": "string"
        }
      ],
      "name": "setBaseMetadataURI",
      "outputs": [],
      "stateMutability": "nonpayable",
      "type": "function"
    },
    {
      "inputs": [
        {
          "internalType": "string",
          "name": "_uri",
          "type": "string"
        }
      ],
      "name": "setContractURI",
      "outputs": [],
      "stateMutability": "nonpayable",
      "type": "function"
    },
    {
      "inputs": [
        {
          "internalType": "address",
          "name": "_to",
          "type": "address"
        },
        {
          "internalType": "uint256[]",
          "name": "_ids",
          "type": "uint256[]"
        }
      ],
      "name": "setCreator",
      "outputs": [],
      "stateMutability": "nonpayable",
      "type": "function"
    },
    {
      "inputs": [
        {
          "internalType": "uint256",
          "name": "_id",
          "type": "uint256"
        },
        {
          "internalType": "address",
          "name": "account",
          "type": "address"
        }
      ],
      "name": "setIPOContract",
      "outputs": [],
      "stateMutability": "nonpayable",
      "type": "function"
    },
    {
      "inputs": [
        {
          "internalType": "address",
          "name": "account",
          "type": "address"
        }
      ],
      "name": "setKYCAdmin",
      "outputs": [],
      "stateMutability": "nonpayable",
      "type": "function"
    },
    {
      "inputs": [
        {
          "internalType": "bytes4",
          "name": "interfaceId",
          "type": "bytes4"
        }
      ],
      "name": "supportsInterface",
      "outputs": [
        {
          "internalType": "bool",
          "name": "",
          "type": "bool"
        }
      ],
      "stateMutability": "view",
      "type": "function"
    },
    {
      "inputs": [],
      "name": "symbol",
      "outputs": [
        {
          "internalType": "string",
          "name": "",
          "type": "string"
        }
      ],
      "stateMutability": "view",
      "type": "function"
    },
    {
      "inputs": [
        {
          "internalType": "uint256",
          "name": "",
          "type": "uint256"
        }
      ],
      "name": "tokenMetadata",
      "outputs": [
        {
          "internalType": "uint256",
          "name": "ipoTime",
          "type": "uint256"
        },
        {
          "internalType": "uint256",
          "name": "ipoUnitPrice",
          "type": "uint256"
        },
        {
          "internalType": "uint256",
          "name": "liquidationTime",
          "type": "uint256"
        },
        {
          "internalType": "uint256",
          "name": "registerationTaxRate",
          "type": "uint256"
        }
      ],
      "stateMutability": "view",
      "type": "function"
    },
    {
      "inputs": [
        {
          "internalType": "uint256",
          "name": "",
          "type": "uint256"
        }
      ],
      "name": "tokenSupply",
      "outputs": [
        {
          "internalType": "uint256",
          "name": "",
          "type": "uint256"
        }
      ],
      "stateMutability": "view",
      "type": "function"
    },
    {
      "inputs": [
        {
          "internalType": "uint256",
          "name": "",
          "type": "uint256"
        }
      ],
      "name": "tokenUri",
      "outputs": [
        {
          "internalType": "string",
          "name": "",
          "type": "string"
        }
      ],
      "stateMutability": "view",
      "type": "function"
    },
    {
      "inputs": [
        {
          "internalType": "uint256",
          "name": "",
          "type": "uint256"
        }
      ],
      "name": "tokenYieldData",
      "outputs": [
        {
          "internalType": "uint256",
          "name": "liquidationExtension",
          "type": "uint256"
        },
        {
          "internalType": "uint256",
          "name": "yieldDividendIndexCounter",
          "type": "uint256"
        }
      ],
      "stateMutability": "view",
      "type": "function"
    },
    {
      "inputs": [
        {
          "internalType": "uint256",
          "name": "_id",
          "type": "uint256"
        }
      ],
      "name": "totalSupply",
      "outputs": [
        {
          "internalType": "uint256",
          "name": "",
          "type": "uint256"
        }
      ],
      "stateMutability": "view",
      "type": "function"
    },
    {
      "inputs": [
        {
          "internalType": "address",
          "name": "newGovernor",
          "type": "address"
        }
      ],
      "name": "transferGovernorship",
      "outputs": [],
      "stateMutability": "nonpayable",
      "type": "function"
    },
    {
      "inputs": [
        {
          "internalType": "uint256",
          "name": "_id",
          "type": "uint256"
        },
        {
          "internalType": "uint256",
          "name": "dividendPerShare",
          "type": "uint256"
        },
        {
          "internalType": "uint256",
          "name": "index",
          "type": "uint256"
        }
      ],
      "name": "unlockDividendPerShare",
      "outputs": [],
      "stateMutability": "nonpayable",
      "type": "function"
    },
    {
      "inputs": [
        {
          "internalType": "uint256",
          "name": "_id",
          "type": "uint256"
        }
      ],
      "name": "uri",
      "outputs": [
        {
          "internalType": "string",
          "name": "",
          "type": "string"
        }
      ],
      "stateMutability": "view",
      "type": "function"
    }
  ],
  "bytecode": "0x608060405234801561001057600080fd5b5061458a806100206000396000f3fe608060405234801561001057600080fd5b506004361061029f5760003560e01c80639944f51811610167578063c8841272116100ce578063df47739011610087578063df477390146106ac578063e8a3d485146106bf578063e985e9c5146106c7578063efe7744f14610703578063f242432a14610724578063f6ee8fcc1461073757600080fd5b8063c8841272146105fa578063cd53d08e1461060d578063d1c901a414610636578063d2a6b51a14610673578063d64e83d714610686578063d98d9eaf1461069957600080fd5b8063b1fd691011610120578063b1fd69101461056a578063b48ab8b61461058e578063b6aa515b146105a1578063bb897303146105b4578063bd85b039146105c7578063beb60ec4146105e757600080fd5b80639944f518146104e15780639a429294146104f45780639b166e2f14610507578063a22cb46514610531578063a6487c5314610544578063abfebaa41461055757600080fd5b80634e1273f41161020b578063731133e9116101c4578063731133e91461048557806378c4acb8146104985780637e518ec8146104ab57806381c0c263146104be578063938e3d7b146104c657806395d89b41146104d957600080fd5b80634e1273f4146103ce57806358cc49a5146103ee578063590a5ce01461040157806359d1a4b114610414578063651217951461041c5780636914db601461042f57600080fd5b806322b6ccfe1161025d57806322b6ccfe1461034d578063243f6b58146103625780632693ebf2146103755780632eb2c2d61461039557806330237a72146103a8578063409f8c48146103bb57600080fd5b8062fdd58e146102a457806301ffc9a7146102ca57806306fdde03146102ed5780630c340a24146103025780630e89341c146103275780631675f4551461033a575b600080fd5b6102b76102b23660046136a0565b61074a565b6040519081526020015b60405180910390f35b6102dd6102d83660046136e0565b61075f565b60405190151581526020016102c1565b6102f56107af565b6040516102c19190613751565b6097546001600160a01b03165b6040516001600160a01b0390911681526020016102c1565b6102f5610335366004613764565b61083e565b6102f5610348366004613764565b6108e0565b61036061035b36600461377d565b6108f9565b005b61036061037036600461377d565b610952565b6102b7610383366004613764565b60fd6020526000908152604090205481565b6103606103a33660046138d6565b61099f565b6103606103b636600461397f565b610cee565b6103606103c936600461377d565b610da2565b6103e16103dc3660046139ab565b610e2e565b6040516102c19190613ab0565b6103606103fc366004613764565b610f57565b61036061040f366004613ac3565b611308565b61036061142c565b6102b761042a366004613ac3565b611462565b61046561043d366004613764565b6101356020526000908152604090208054600182015460028301546003909301549192909184565b6040805194855260208501939093529183015260608201526080016102c1565b610360610493366004613ae5565b611499565b6103606104a6366004613b45565b61150f565b6103606104b9366004613bb9565b6115b2565b6103606115e5565b6103606104d4366004613bb9565b611619565b6102f561165a565b6102dd6104ef36600461377d565b611668565b6102b7610502366004613764565b61169d565b61030f610515366004613764565b600090815261013a60205260409020546001600160a01b031690565b61036061053f366004613bfb565b611772565b610360610552366004613c32565b61177d565b610360610565366004613cb9565b611800565b6102b7610578366004613764565b6000908152610135602052604090206001015490565b61036061059c366004613cf4565b611883565b6103606105af36600461377d565b611a12565b6102b76105c2366004613dc8565b611ab0565b6102b76105d5366004613764565b600090815260fd602052604090205490565b6103606105f5366004613764565b611ccf565b6102b7610608366004613764565b611f7e565b61030f61061b366004613764565b60fc602052600090815260409020546001600160a01b031681565b61065e610644366004613764565b610136602052600090815260409020805460019091015482565b604080519283526020830191909152016102c1565b610360610681366004613e65565b61203a565b610360610694366004613b45565b612174565b6102dd6106a7366004613ea8565b612212565b6102b76106ba366004613764565b612234565b6102f5612281565b6102dd6106d5366004613ed4565b6001600160a01b03918216600090815260666020908152604080832093909416825291909152205460ff1690565b6102b7610711366004613764565b6101386020526000908152604090205481565b610360610732366004613efe565b612313565b610360610745366004613ea8565b61255d565b600061075683836125c5565b90505b92915050565b60006001600160e01b03198216636cdb3d1360e11b148061079057506001600160e01b031982166303a24d0760e21b145b8061075957506301ffc9a760e01b6001600160e01b0319831614610759565b61010080546107bd90613f62565b80601f01602080910402602001604051908101604052809291908181526020018280546107e990613f62565b80156108365780601f1061080b57610100808354040283529160200191610836565b820191906000526020600020905b81548152906001019060200180831161081957829003601f168201915b505050505081565b600081815260fe6020526040902080546060919061085b90613f62565b80601f016020809104026020016040519081016040528092919081815260200182805461088790613f62565b80156108d45780601f106108a9576101008083540402835291602001916108d4565b820191906000526020600020905b8154815290600101906020018083116108b757829003601f168201915b50505050509050919050565b60fe60205260009081526040902080546107bd90613f62565b610103546001600160a01b0316331461092d5760405162461bcd60e51b815260040161092490613f97565b60405180910390fd5b6001600160a01b0316600090815261010260205260409020805460ff19166001179055565b610103546001600160a01b0316331461097d5760405162461bcd60e51b815260040161092490613f97565b6001600160a01b0316600090815261010260205260409020805460ff19169055565b81518351146109c05760405162461bcd60e51b815260040161092490613fd9565b6001600160a01b0384166109e65760405162461bcd60e51b815260040161092490614021565b6001600160a01b038516331480610a025750610a0285336106d5565b610a695760405162461bcd60e51b815260206004820152603260248201527f455243313135353a207472616e736665722063616c6c6572206973206e6f74206044820152711bdddb995c881b9bdc88185c1c1c9bdd995960721b6064820152608401610924565b3360005b8451811015610b0d576000858281518110610a8a57610a8a614066565b602002602001015190506000858381518110610aa857610aa8614066565b60209081029190910181015160008481526065835260408082206001600160a01b038e168352909352919091205490915081811015610af95760405162461bcd60e51b81526004016109249061407c565b50505080610b06906140dc565b9050610a6d565b5060005b8451811015610b5d576000858281518110610b2e57610b2e614066565b60200260200101519050610b428882612659565b610b4c8782612659565b50610b56816140dc565b9050610b11565b5060005b8451811015610c80576000858281518110610b7e57610b7e614066565b602002602001015190506000858381518110610b9c57610b9c614066565b60209081029190910181015160008481526065835260408082206001600160a01b038e168352909352918220805482810390915590925090610bde848c612212565b80610bee5750610bee848b612212565b905080610c3357600084815261013b602090815260408083206001600160a01b038e16845290915281208054859290610c289084906140f7565b90915550610c6b9050565b60008481526065602090815260408083206001600160a01b038e16845290915281208054859290610c659084906140f7565b90915550505b5050505080610c79906140dc565b9050610b61565b50846001600160a01b0316866001600160a01b0316826001600160a01b03167f4a39dc06d4c0dbc64b70af90fd698a233a518aa5d07e595d983b8c0526c8f7fb8787604051610cd092919061410f565b60405180910390a4610ce6818787878787612886565b505050505050565b600083815260fc602052604090205483906001600160a01b03163314610d265760405162461bcd60e51b81526004016109249061413d565b600084815261013660205260409020600201805484919084908110610d4d57610d4d614066565b600091825260209091200155610d648260016140f7565b600085815261013660205260409020600101541015610d9c57610d888260016140f7565b600085815261013660205260409020600101555b50505050565b6097546001600160a01b03163314610dcc5760405162461bcd60e51b81526004016109249061418e565b6001600160a01b038116610e225760405162461bcd60e51b815260206004820181905260248201527f4b59432041646d696e2063616e6e6f74206265207a65726f20616464726573736044820152606401610924565b610e2b816129fa565b50565b60608151835114610e935760405162461bcd60e51b815260206004820152602960248201527f455243313135353a206163636f756e747320616e6420696473206c656e677468604482015268040dad2e6dac2e8c6d60bb1b6064820152608401610924565b600083516001600160401b03811115610eae57610eae613798565b604051908082528060200260200182016040528015610ed7578160200160208202803683370190505b50905060005b8451811015610f4f57610f22858281518110610efb57610efb614066565b6020026020010151858381518110610f1557610f15614066565b602002602001015161074a565b828281518110610f3457610f34614066565b6020908102919091010152610f48816140dc565b9050610edd565b509392505050565b336000908152610102602052604090205460ff16610fa55760405162461bcd60e51b815260206004820152600b60248201526a4e6f7420796574204b594360a81b6044820152606401610924565b806000610fb3335b8361074a565b11610fd05760405162461bcd60e51b8152600401610924906141d4565b600260c95414156110235760405162461bcd60e51b815260206004820152601f60248201527f5265656e7472616e637947756172643a207265656e7472616e742063616c6c006044820152606401610924565b600260c9556000828152610137602090815260408083203380855292529091205460ff166110a5576000838152610137602090815260408083206001600160a01b03851680855292528220805460016001600160a81b031990911661010090930292909217821781556002810183905560038101839055908101829055600401555b6110af8184612659565b6000838152610137602090815260408083206001600160a01b0385168452909152902060030154806111235760405162461bcd60e51b815260206004820181905260248201527f524549544e46543a206e6f206d6f726520636c61696d61626c65207969656c646044820152606401610924565b60008481526101386020526040902054818110156111935760405162461bcd60e51b815260206004820152602760248201527f524549544e46543a206e656564206d6f72652066756e64696e67732066726f6d6044820152661034b9b9bab2b960c91b6064820152608401610924565b6000858152610137602090815260408083206001600160a01b038716845290915281206003810191909155600401546111cc9083612a1d565b6000868152610137602090815260408083206001600160a01b038881168086529184528285206004908101969096558a85526101399093529281902054905163a9059cbb60e01b815293840192909252602483018590521690819063a9059cbb90604401602060405180830381600087803b15801561124a57600080fd5b505af115801561125e573d6000803e3d6000fd5b505050506040513d601f19601f820116820180604052508101906112829190614229565b6112ce5760405162461bcd60e51b815260206004820181905260248201527f524549544e46543a20436f756c64206e6f74207472616e736665722066756e646044820152606401610924565b600086815261013860205260409020546112e89084612a29565b60009687526101386020526040909620959095555050600160c955505050565b600082815261013960205260409020546001600160a01b0316806323b872dd336040516001600160e01b031960e084901b1681526001600160a01b03909116600482015230602482015260448101859052606401602060405180830381600087803b15801561137657600080fd5b505af115801561138a573d6000803e3d6000fd5b505050506040513d601f19601f820116820180604052508101906113ae9190614229565b6113fa5760405162461bcd60e51b815260206004820181905260248201527f524549544e46543a20436f756c64206e6f74207472616e736665722066756e646044820152606401610924565b600083815261013860205260409020546114149083612a1d565b60009384526101386020526040909320929092555050565b6097546001600160a01b031633146114565760405162461bcd60e51b81526004016109249061418e565b61146060006129fa565b565b60008281526101366020526040812060020180548390811061148657611486614066565b9060005260206000200154905092915050565b600083815260fc602052604090205483906001600160a01b031633146114d15760405162461bcd60e51b81526004016109249061413d565b6114dd85858585612a35565b600084815260fd60205260409020546114f69084612a1d565b600094855260fd60205260409094209390935550505050565b610103546001600160a01b0316331461153a5760405162461bcd60e51b815260040161092490613f97565b60005b818110156115ad576001610102600085858581811061155e5761155e614066565b9050602002016020810190611573919061377d565b6001600160a01b031681526020810191909152604001600020805460ff1916911515919091179055806115a5816140dc565b91505061153d565b505050565b6097546001600160a01b031633146115dc5760405162461bcd60e51b81526004016109249061418e565b610e2b81612b08565b6097546001600160a01b0316331461160f5760405162461bcd60e51b81526004016109249061418e565b6114606000612b1b565b6097546001600160a01b031633146116435760405162461bcd60e51b81526004016109249061418e565b80516116569060ff906020840190613542565b5050565b61010180546107bd90613f62565b60006001600160a01b03821661167d57600080fd5b506001600160a01b03166000908152610102602052604090205460ff1690565b60008181526101366020908152604080832081516060810183528154815260018201548185015260028201805484518187028101870186528181528796879694959486019391929083018282801561171457602002820191906000526020600020905b815481526020019060010190808311611700575b505050505081525050905060005b8160200151811015611769578160400151818151811061174457611744614066565b60200260200101518361175791906140f7565b9250611762816140dc565b9050611722565b50909392505050565b611656338383612b6d565b60006117896001612c4e565b905080156117a1576000805461ff0019166101001790555b6117ac848484612cdb565b6117b4612d9d565b8015610d9c576000805461ff0019169055604051600181527f7f26b83ff96e1f2b6a682f133852f6798a09c465da95921460cefb3847402498906020015b60405180910390a150505050565b600085815260fc602052604090205485906001600160a01b031633146118385760405162461bcd60e51b81526004016109249061413d565b50604080516080810182529485526020808601948552858201938452606086019283526000968752610135905290942092518355905160018301555160028201559051600390910155565b81518351146118ed5760405162461bcd60e51b815260206004820152603060248201527f455243313135354d696e744275726e2362617463684d696e743a20494e56414c60448201526f09288be82a4a482b2a6be988a9c8ea8960831b6064820152608401610924565b60005b8351811015611a0557600084828151811061190d5761190d614066565b602090810291909101810151600081815260fc9092526040909120549091506001600160a01b0316331461199b5760405162461bcd60e51b815260206004820152602f60248201527f455243313135355472616461626c652362617463684d696e743a204f4e4c595f60448201526e10d491505513d497d0531313d5d151608a1b6064820152608401610924565b60008483815181106119af576119af614066565b602002602001015190506119df8160fd600085815260200190815260200160002054612a1d90919063ffffffff16565b600092835260fd60205260409092209190915550806119fd816140dc565b9150506118f0565b50610d9c84848484612dcc565b6097546001600160a01b03163314611a3c5760405162461bcd60e51b81526004016109249061418e565b6001600160a01b038116611aa75760405162461bcd60e51b815260206004820152602c60248201527f476f7665726e61626c653a206e657720676f7665726e6f72206973207468652060448201526b7a65726f206164647265737360a01b6064820152608401610924565b610e2b81612b1b565b6097546000906001600160a01b03163314611add5760405162461bcd60e51b81526004016109249061418e565b6000611ae7612f18565b9050611af1612f2e565b611afb8982612f45565b8515611b5657807f6bb7ff708619ba0610cba295a58592e0451dee2622938c8755667688daf3529b8888604051611b33929190614246565b60405180910390a2600081815260fe60205260409020611b549088886135c6565b505b60008181526101396020908152604080832080546001600160a01b0319166001600160a01b038a161790558051608081018252838152808301848152818301858152606080840187815288885261013587528588209451855592516001850155905160028401559051600390920191909155815190810182528381528083019390935280516078808252610f2082018352918401929091908201610f008036833750505090526000828152610136602090815260409182902083518155838201516001820155918301518051611c32926002850192019061363a565b50905050611c7889828a87878080601f016020809104026020016040519081016040528093929190818152602001838380828437600092019190915250612a3592505050565b600081815260fd602052604090819020899055517f07eac9a0695a188fe9d6fd680bcbbbe39041fb114d5d7ac11252401391f7930790611cbb9083815260200190565b60405180910390a198975050505050505050565b336000908152610102602052604090205460ff16611d1d5760405162461bcd60e51b815260206004820152600b60248201526a4e6f7420796574204b594360a81b6044820152606401610924565b600260c9541415611d705760405162461bcd60e51b815260206004820152601f60248201527f5265656e7472616e637947756172643a207265656e7472616e742063616c6c006044820152606401610924565b600260c955600081815261013b6020908152604080832033845290915290205480611dd65760405162461bcd60e51b8152602060048201526016602482015275105b1c9958591e481c9959da5cdd195c995908185b1b60521b6044820152606401610924565b6000611de28383612f73565b600084815261013960205260409020549091506001600160a01b0316806323b872dd336040516001600160e01b031960e084901b1681526001600160a01b03909116600482015230602482015260448101859052606401602060405180830381600087803b158015611e5357600080fd5b505af1158015611e67573d6000803e3d6000fd5b505050506040513d601f19601f82011682018060405250810190611e8b9190614229565b611ed75760405162461bcd60e51b815260206004820152601a60248201527f524549544e46543a20436f756c64206e6f7420706179207461780000000000006044820152606401610924565b600084815261013b60209081526040808320338085529083528184208490558784526065835281842090845290915281208054859290611f189084906140f7565b909155505060008481526101376020908152604080832033845290915290206002810154600390910154611f4b91612a1d565b60009485526101376020908152604080872033885290915285206003810191909155600201939093555050600160c95550565b60008181611f8b33610fad565b11611fa85760405162461bcd60e51b8152600401610924906141d4565b6000838152610137602090815260408083203380855290835292819020815160c081018352815460ff81161515825261010090046001600160a01b0316938101939093526001810154918301919091526002810154606083015260038101546080830181905260049091015460a08301529091612030919061202a9087612fe2565b90612a1d565b9250505b50919050565b6001600160a01b0382166120a45760405162461bcd60e51b815260206004820152602b60248201527f455243313135355472616461626c652373657443726561746f723a20494e564160448201526a4c49445f4144445245535360a81b6064820152608401610924565b60005b81518110156115ad5760008282815181106120c4576120c4614066565b602002602001015190506120d53390565b600082815260fc60205260409020546001600160a01b039081169116146121575760405162461bcd60e51b815260206004820152603060248201527f455243313135355472616461626c652373657443726561746f723a204f4e4c5960448201526f17d0d491505513d497d0531313d5d15160821b6064820152608401610924565b6121618482612f45565b508061216c816140dc565b9150506120a7565b610103546001600160a01b0316331461219f5760405162461bcd60e51b815260040161092490613f97565b60005b818110156115ad57600061010260008585858181106121c3576121c3614066565b90506020020160208101906121d8919061377d565b6001600160a01b031681526020810191909152604001600020805460ff19169115159190911790558061220a816140dc565b9150506121a2565b600091825261013a6020526040909120546001600160a01b0391821691161490565b6000818161224133610fad565b1161225e5760405162461bcd60e51b8152600401610924906141d4565b505060009081526101376020908152604080832033845290915290206004015490565b606060ff805461229090613f62565b80601f01602080910402602001604051908101604052809291908181526020018280546122bc90613f62565b80156123095780601f106122de57610100808354040283529160200191612309565b820191906000526020600020905b8154815290600101906020018083116122ec57829003601f168201915b5050505050905090565b6001600160a01b0384166123395760405162461bcd60e51b815260040161092490614021565b6001600160a01b038516331480612355575061235585336106d5565b6123b35760405162461bcd60e51b815260206004820152602960248201527f455243313135353a2063616c6c6572206973206e6f74206f776e6572206e6f7260448201526808185c1c1c9bdd995960ba1b6064820152608401610924565b3360006123bf85613160565b905060006123cc85613160565b905060008681526065602090815260408083206001600160a01b038c168452909152902054858110156124115760405162461bcd60e51b81526004016109249061407c565b61241b8988612659565b6124258888612659565b60008781526065602090815260408083206001600160a01b038d16845290915281208783039055612456888b612212565b806124665750612466888a612212565b9050806124ab57600088815261013b602090815260408083206001600160a01b038d168452909152812080548992906124a09084906140f7565b909155506124e39050565b60008881526065602090815260408083206001600160a01b038d168452909152812080548992906124dd9084906140f7565b90915550505b886001600160a01b03168a6001600160a01b0316866001600160a01b03167fc3d58168c5ae7397731d063d5bbf3d657854427343f4c083240f7aacaa2d0f628b8b60405161253b929190918252602082015260400190565b60405180910390a4612551858b8b8b8b8b6131ab565b50505050505050505050565b600082815260fc602052604090205482906001600160a01b031633146125955760405162461bcd60e51b81526004016109249061413d565b50600091825261013a602052604090912080546001600160a01b0319166001600160a01b03909216919091179055565b60006001600160a01b0383166126315760405162461bcd60e51b815260206004820152602b60248201527f455243313135353a2062616c616e636520717565727920666f7220746865207a60448201526a65726f206164647265737360a81b6064820152608401610924565b5060009081526065602090815260408083206001600160a01b03949094168352929052205490565b6126638183612212565b1561266c575050565b6000818152610137602090815260408083206001600160a01b038616845290915290205460ff166126e9576000818152610137602090815260408083206001600160a01b03861680855292528220805460016001600160a81b03199091166101009093029290921782178155600281018390556003810183905501555b60006126f58383612fe2565b905060006127038484613275565b90506000610136600085815260200190815260200160002060405180606001604052908160008201548152602001600182015481526020016002820180548060200260200160405190810160405280929190818152602001828054801561278957602002820191906000526020600020905b815481526020019060010190808311612775575b505050919092525050506020808201516000878152610137835260408082206001600160a01b038b168352909352919091206001015590508215612820576000848152610137602090815260408083206001600160a01b03891684529091529020600301546127f89084612a1d565b6000858152610137602090815260408083206001600160a01b038a1684529091529020600301555b811561287f576000848152610137602090815260408083206001600160a01b03891684529091529020600201546128579083612a1d565b6000858152610137602090815260408083206001600160a01b038a1684529091529020600201555b5050505050565b6001600160a01b0384163b15610ce65760405163bc197c8160e01b81526001600160a01b0385169063bc197c81906128ca9089908990889088908890600401614275565b602060405180830381600087803b1580156128e457600080fd5b505af1925050508015612914575060408051601f3d908101601f19168201909252612911918101906142d3565b60015b6129c1576129206142f0565b806308c379a0141561295a575061293561430c565b80612940575061295c565b8060405162461bcd60e51b81526004016109249190613751565b505b60405162461bcd60e51b815260206004820152603460248201527f455243313135353a207472616e7366657220746f206e6f6e20455243313135356044820152732932b1b2b4bb32b91034b6b83632b6b2b73a32b960611b6064820152608401610924565b6001600160e01b0319811663bc197c8160e01b146129f15760405162461bcd60e51b815260040161092490614395565b50505050505050565b61010380546001600160a01b0319166001600160a01b0392909216919091179055565b600061075682846140f7565b600061075682846143dd565b6001600160a01b038416612a5b5760405162461bcd60e51b8152600401610924906143f4565b336000612a6785613160565b90506000612a7485613160565b905060008681526065602090815260408083206001600160a01b038b16845290915281208054879290612aa89084906140f7565b909155505060408051878152602081018790526001600160a01b03808a1692600092918716917fc3d58168c5ae7397731d063d5bbf3d657854427343f4c083240f7aacaa2d0f62910160405180910390a46129f1836000898989896131ab565b8051611656906067906020840190613542565b609780546001600160a01b038381166001600160a01b0319831681179093556040519116919082907fc7c0c772add429241571afb3805861fb3cfa2af374534088b76cdb4325a87e9a90600090a35050565b816001600160a01b0316836001600160a01b03161415612be15760405162461bcd60e51b815260206004820152602960248201527f455243313135353a2073657474696e6720617070726f76616c20737461747573604482015268103337b91039b2b63360b91b6064820152608401610924565b6001600160a01b03838116600081815260666020908152604080832094871680845294825291829020805460ff191686151590811790915591519182527f17307eab39ab6107e8899845ad3d59bd9653f200f220920489ca2b5937696c31910160405180910390a3505050565b60008054610100900460ff1615612c95578160ff166001148015612c715750303b155b612c8d5760405162461bcd60e51b815260040161092490614435565b506000919050565b60005460ff808416911610612cbc5760405162461bcd60e51b815260040161092490614435565b506000805460ff191660ff92909216919091179055600190565b919050565b6000612ce76001612c4e565b90508015612cff576000805461ff0019166101001790555b612d08826133e7565b612d10613417565b612d18613446565b8351612d2c90610100906020870190613542565b508251612d4190610101906020860190613542565b50600060fb558151612d5a9060ff906020850190613542565b508015610d9c576000805461ff0019169055604051600181527f7f26b83ff96e1f2b6a682f133852f6798a09c465da95921460cefb3847402498906020016117f2565b600054610100900460ff16612dc45760405162461bcd60e51b815260040161092490614483565b611460613475565b6001600160a01b038416612df25760405162461bcd60e51b8152600401610924906143f4565b8151835114612e135760405162461bcd60e51b815260040161092490613fd9565b3360005b8451811015612eb057838181518110612e3257612e32614066565b602002602001015160656000878481518110612e5057612e50614066565b602002602001015181526020019081526020016000206000886001600160a01b03166001600160a01b031681526020019081526020016000206000828254612e9891906140f7565b90915550819050612ea8816140dc565b915050612e17565b50846001600160a01b031660006001600160a01b0316826001600160a01b03167f4a39dc06d4c0dbc64b70af90fd698a233a518aa5d07e595d983b8c0526c8f7fb8787604051612f0192919061410f565b60405180910390a461287f81600087878787612886565b60fb54600090612f29906001612a1d565b905090565b60fb8054906000612f3e836140dc565b9190505550565b600090815260fc6020526040902080546001600160a01b0319166001600160a01b0392909216919091179055565b600082815261013560209081526040808320815160808101835281548152600182015493810184905260028201549281019290925260030154606082018190529091612fda916305f5e10091612fd49190612fce90886134a5565b906134a5565b906134b1565b949350505050565b6000818152610137602090815260408083206001600160a01b038087168552908352818420825160c081018452815460ff8116151580835261010090910490931694810194909452600181015492840192909252600282015460608401526003820154608084015260049091015460a0830152613063576000915050610759565b6000838152610136602090815260408083208151606081018352815481526001820154818501526002820180548451818702810187018652818152929593948601938301828280156130d457602002820191906000526020600020905b8154815260200190600101908083116130c0575b505050505081525050905060006130eb868661074a565b60408401519091506000905b8360200151811015613155576000613135848660400151848151811061311f5761311f614066565b60200260200101516134a590919063ffffffff16565b90506131418382612a1d565b9250508061314e906140dc565b90506130f7565b509695505050505050565b6040805160018082528183019092526060916000919060208083019080368337019050509050828160008151811061319a5761319a614066565b602090810291909101015292915050565b6001600160a01b0384163b15610ce65760405163f23a6e6160e01b81526001600160a01b0385169063f23a6e61906131ef90899089908890889088906004016144ce565b602060405180830381600087803b15801561320957600080fd5b505af1925050508015613239575060408051601f3d908101601f19168201909252613236918101906142d3565b60015b613245576129206142f0565b6001600160e01b0319811663f23a6e6160e01b146129f15760405162461bcd60e51b815260040161092490614395565b6000818152610137602090815260408083206001600160a01b038087168552908352818420825160c081018452815460ff8116151580835261010090910490931694810194909452600181015492840192909252600282015460608401526003820154608084015260049091015460a08301526132f6576000915050610759565b60008381526101366020908152604080832081516060810183528154815260018201548185015260028201805484518187028101870186528181529295939486019383018282801561336757602002820191906000526020600020905b815481526020019060010190808311613353575b50505091909252505050600085815261013b602090815260408083206001600160a01b038a1684529091528082205490850151929350915b83602001518110156131555760006133c7848660400151848151811061311f5761311f614066565b90506133d38382612a1d565b925050806133e0906140dc565b905061339f565b600054610100900460ff1661340e5760405162461bcd60e51b815260040161092490614483565b610e2b816134bd565b600054610100900460ff1661343e5760405162461bcd60e51b815260040161092490614483565b6114606134e4565b600054610100900460ff1661346d5760405162461bcd60e51b815260040161092490614483565b611460613514565b600054610100900460ff1661349c5760405162461bcd60e51b815260040161092490614483565b611460336129fa565b60006107568284614513565b60006107568284614532565b600054610100900460ff166115dc5760405162461bcd60e51b815260040161092490614483565b600054610100900460ff1661350b5760405162461bcd60e51b815260040161092490614483565b61146033612b1b565b600054610100900460ff1661353b5760405162461bcd60e51b815260040161092490614483565b600160c955565b82805461354e90613f62565b90600052602060002090601f01602090048101928261357057600085556135b6565b82601f1061358957805160ff19168380011785556135b6565b828001600101855582156135b6579182015b828111156135b657825182559160200191906001019061359b565b506135c2929150613674565b5090565b8280546135d290613f62565b90600052602060002090601f0160209004810192826135f457600085556135b6565b82601f1061360d5782800160ff198235161785556135b6565b828001600101855582156135b6579182015b828111156135b657823582559160200191906001019061361f565b8280548282559060005260206000209081019282156135b657916020028201828111156135b657825182559160200191906001019061359b565b5b808211156135c25760008155600101613675565b80356001600160a01b0381168114612cd657600080fd5b600080604083850312156136b357600080fd5b6136bc83613689565b946020939093013593505050565b6001600160e01b031981168114610e2b57600080fd5b6000602082840312156136f257600080fd5b81356136fd816136ca565b9392505050565b6000815180845260005b8181101561372a5760208185018101518683018201520161370e565b8181111561373c576000602083870101525b50601f01601f19169290920160200192915050565b6020815260006107566020830184613704565b60006020828403121561377657600080fd5b5035919050565b60006020828403121561378f57600080fd5b61075682613689565b634e487b7160e01b600052604160045260246000fd5b601f8201601f191681016001600160401b03811182821017156137d3576137d3613798565b6040525050565b60006001600160401b038211156137f3576137f3613798565b5060051b60200190565b600082601f83011261380e57600080fd5b8135602061381b826137da565b60405161382882826137ae565b83815260059390931b850182019282810191508684111561384857600080fd5b8286015b84811015613155578035835291830191830161384c565b600082601f83011261387457600080fd5b81356001600160401b0381111561388d5761388d613798565b6040516138a4601f8301601f1916602001826137ae565b8181528460208386010111156138b957600080fd5b816020850160208301376000918101602001919091529392505050565b600080600080600060a086880312156138ee57600080fd5b6138f786613689565b945061390560208701613689565b935060408601356001600160401b038082111561392157600080fd5b61392d89838a016137fd565b9450606088013591508082111561394357600080fd5b61394f89838a016137fd565b9350608088013591508082111561396557600080fd5b5061397288828901613863565b9150509295509295909350565b60008060006060848603121561399457600080fd5b505081359360208301359350604090920135919050565b600080604083850312156139be57600080fd5b82356001600160401b03808211156139d557600080fd5b818501915085601f8301126139e957600080fd5b813560206139f6826137da565b604051613a0382826137ae565b83815260059390931b8501820192828101915089841115613a2357600080fd5b948201945b83861015613a4857613a3986613689565b82529482019490820190613a28565b96505086013592505080821115613a5e57600080fd5b50613a6b858286016137fd565b9150509250929050565b600081518084526020808501945080840160005b83811015613aa557815187529582019590820190600101613a89565b509495945050505050565b6020815260006107566020830184613a75565b60008060408385031215613ad657600080fd5b50508035926020909101359150565b60008060008060808587031215613afb57600080fd5b613b0485613689565b9350602085013592506040850135915060608501356001600160401b03811115613b2d57600080fd5b613b3987828801613863565b91505092959194509250565b60008060208385031215613b5857600080fd5b82356001600160401b0380821115613b6f57600080fd5b818501915085601f830112613b8357600080fd5b813581811115613b9257600080fd5b8660208260051b8501011115613ba757600080fd5b60209290920196919550909350505050565b600060208284031215613bcb57600080fd5b81356001600160401b03811115613be157600080fd5b612fda84828501613863565b8015158114610e2b57600080fd5b60008060408385031215613c0e57600080fd5b613c1783613689565b91506020830135613c2781613bed565b809150509250929050565b600080600060608486031215613c4757600080fd5b83356001600160401b0380821115613c5e57600080fd5b613c6a87838801613863565b94506020860135915080821115613c8057600080fd5b613c8c87838801613863565b93506040860135915080821115613ca257600080fd5b50613caf86828701613863565b9150509250925092565b600080600080600060a08688031215613cd157600080fd5b505083359560208501359550604085013594606081013594506080013592509050565b60008060008060808587031215613d0a57600080fd5b613d1385613689565b935060208501356001600160401b0380821115613d2f57600080fd5b613d3b888389016137fd565b94506040870135915080821115613d5157600080fd5b613d5d888389016137fd565b93506060870135915080821115613d7357600080fd5b50613b3987828801613863565b60008083601f840112613d9257600080fd5b5081356001600160401b03811115613da957600080fd5b602083019150836020828501011115613dc157600080fd5b9250929050565b600080600080600080600060a0888a031215613de357600080fd5b613dec88613689565b96506020880135955060408801356001600160401b0380821115613e0f57600080fd5b613e1b8b838c01613d80565b9097509550859150613e2f60608b01613689565b945060808a0135915080821115613e4557600080fd5b50613e528a828b01613d80565b989b979a50959850939692959293505050565b60008060408385031215613e7857600080fd5b613e8183613689565b915060208301356001600160401b03811115613e9c57600080fd5b613a6b858286016137fd565b60008060408385031215613ebb57600080fd5b82359150613ecb60208401613689565b90509250929050565b60008060408385031215613ee757600080fd5b613ef083613689565b9150613ecb60208401613689565b600080600080600060a08688031215613f1657600080fd5b613f1f86613689565b9450613f2d60208701613689565b9350604086013592506060860135915060808601356001600160401b03811115613f5657600080fd5b61397288828901613863565b600181811c90821680613f7657607f821691505b6020821081141561203457634e487b7160e01b600052602260045260246000fd5b60208082526022908201527f4b59434163636573733a2063616c6c6572206973206e6f74207468652061646d60408201526134b760f11b606082015260800190565b60208082526028908201527f455243313135353a2069647320616e6420616d6f756e7473206c656e677468206040820152670dad2e6dac2e8c6d60c31b606082015260800190565b60208082526025908201527f455243313135353a207472616e7366657220746f20746865207a65726f206164604082015264647265737360d81b606082015260800190565b634e487b7160e01b600052603260045260246000fd5b6020808252602a908201527f455243313135353a20696e73756666696369656e742062616c616e636520666f60408201526939103a3930b739b332b960b11b606082015260800190565b634e487b7160e01b600052601160045260246000fd5b60006000198214156140f0576140f06140c6565b5060010190565b6000821982111561410a5761410a6140c6565b500190565b6040815260006141226040830185613a75565b82810360208401526141348185613a75565b95945050505050565b60208082526031908201527f455243313135355472616461626c652363726561746f724f6e6c793a204f4e4c6040820152701657d0d491505513d497d0531313d5d151607a1b606082015260800190565b60208082526026908201527f476f7665726e61626c653a2063616c6c6572206973206e6f742074686520676f6040820152653b32b93737b960d11b606082015260800190565b60208082526035908201527f455243313135355472616461626c65237368617265486f6c646572734f6e6c796040820152740e8813d3931657d3d5d3915494d7d0531313d5d151605a1b606082015260800190565b60006020828403121561423b57600080fd5b81516136fd81613bed565b60208152816020820152818360408301376000818301604090810191909152601f909201601f19160101919050565b6001600160a01b0386811682528516602082015260a0604082018190526000906142a190830186613a75565b82810360608401526142b38186613a75565b905082810360808401526142c78185613704565b98975050505050505050565b6000602082840312156142e557600080fd5b81516136fd816136ca565b600060033d11156143095760046000803e5060005160e01c5b90565b600060443d101561431a5790565b6040516003193d81016004833e81513d6001600160401b03816024840111818411171561434957505050505090565b82850191508151818111156143615750505050505090565b843d870101602082850101111561437b5750505050505090565b61438a602082860101876137ae565b509095945050505050565b60208082526028908201527f455243313135353a204552433131353552656365697665722072656a656374656040820152676420746f6b656e7360c01b606082015260800190565b6000828210156143ef576143ef6140c6565b500390565b60208082526021908201527f455243313135353a206d696e7420746f20746865207a65726f206164647265736040820152607360f81b606082015260800190565b6020808252602e908201527f496e697469616c697a61626c653a20636f6e747261637420697320616c72656160408201526d191e481a5b9a5d1a585b1a5e995960921b606082015260800190565b6020808252602b908201527f496e697469616c697a61626c653a20636f6e7472616374206973206e6f74206960408201526a6e697469616c697a696e6760a81b606082015260800190565b6001600160a01b03868116825285166020820152604081018490526060810183905260a06080820181905260009061450890830184613704565b979650505050505050565b600081600019048311821515161561452d5761452d6140c6565b500290565b60008261454f57634e487b7160e01b600052601260045260246000fd5b50049056fea2646970667358221220df54aa2577c846d1cad0d0078daa0cc2c5ea2f10c6dce27343e008f1f865802864736f6c63430008090033",
  "linkReferences": {},
  "deployedLinkReferences": {}
}