{
  "_format": "hh-sol-artifact-1",
  "contractName": "REITNFT",
  "sourceName": "contracts/REITNFT.sol",
  "abi": [
    {
      "anonymous": false,
      "inputs": [
        {
          "indexed": true,
          "internalType": "address",
          "name": "account",
          "type": "address"
        },
        {
          "indexed": true,
          "internalType": "address",
          "name": "operator",
          "type": "address"
        },
        {
          "indexed": false,
          "internalType": "bool",
          "name": "approved",
          "type": "bool"
        }
      ],
      "name": "ApprovalForAll",
      "type": "event"
    },
    {
      "anonymous": false,
      "inputs": [
        {
          "indexed": false,
          "internalType": "uint256",
          "name": "id",
          "type": "uint256"
        }
      ],
      "name": "Create",
      "type": "event"
    },
    {
      "anonymous": false,
      "inputs": [
        {
          "indexed": true,
          "internalType": "address",
          "name": "previousGovernor",
          "type": "address"
        },
        {
          "indexed": true,
          "internalType": "address",
          "name": "newGovernor",
          "type": "address"
        }
      ],
      "name": "GovernorshipTransferred",
      "type": "event"
    },
    {
      "anonymous": false,
      "inputs": [
        {
          "indexed": false,
          "internalType": "uint8",
          "name": "version",
          "type": "uint8"
        }
      ],
      "name": "Initialized",
      "type": "event"
    },
    {
      "anonymous": false,
      "inputs": [
        {
          "indexed": true,
          "internalType": "address",
          "name": "operator",
          "type": "address"
        },
        {
          "indexed": true,
          "internalType": "address",
          "name": "from",
          "type": "address"
        },
        {
          "indexed": true,
          "internalType": "address",
          "name": "to",
          "type": "address"
        },
        {
          "indexed": false,
          "internalType": "uint256[]",
          "name": "ids",
          "type": "uint256[]"
        },
        {
          "indexed": false,
          "internalType": "uint256[]",
          "name": "values",
          "type": "uint256[]"
        }
      ],
      "name": "TransferBatch",
      "type": "event"
    },
    {
      "anonymous": false,
      "inputs": [
        {
          "indexed": true,
          "internalType": "address",
          "name": "operator",
          "type": "address"
        },
        {
          "indexed": true,
          "internalType": "address",
          "name": "from",
          "type": "address"
        },
        {
          "indexed": true,
          "internalType": "address",
          "name": "to",
          "type": "address"
        },
        {
          "indexed": false,
          "internalType": "uint256",
          "name": "id",
          "type": "uint256"
        },
        {
          "indexed": false,
          "internalType": "uint256",
          "name": "value",
          "type": "uint256"
        }
      ],
      "name": "TransferSingle",
      "type": "event"
    },
    {
      "anonymous": false,
      "inputs": [
        {
          "indexed": false,
          "internalType": "string",
          "name": "value",
          "type": "string"
        },
        {
          "indexed": true,
          "internalType": "uint256",
          "name": "id",
          "type": "uint256"
        }
      ],
      "name": "URI",
      "type": "event"
    },
    {
      "inputs": [
        {
          "internalType": "address[]",
          "name": "accounts",
          "type": "address[]"
        }
      ],
      "name": "addManyToKYC",
      "outputs": [],
      "stateMutability": "nonpayable",
      "type": "function"
    },
    {
      "inputs": [
        {
          "internalType": "address",
          "name": "account",
          "type": "address"
        }
      ],
      "name": "addToKYC",
      "outputs": [],
      "stateMutability": "nonpayable",
      "type": "function"
    },
    {
      "inputs": [
        {
          "internalType": "address",
          "name": "account",
          "type": "address"
        },
        {
          "internalType": "uint256",
          "name": "id",
          "type": "uint256"
        }
      ],
      "name": "balanceOf",
      "outputs": [
        {
          "internalType": "uint256",
          "name": "",
          "type": "uint256"
        }
      ],
      "stateMutability": "view",
      "type": "function"
    },
    {
      "inputs": [
        {
          "internalType": "address[]",
          "name": "accounts",
          "type": "address[]"
        },
        {
          "internalType": "uint256[]",
          "name": "ids",
          "type": "uint256[]"
        }
      ],
      "name": "balanceOfBatch",
      "outputs": [
        {
          "internalType": "uint256[]",
          "name": "",
          "type": "uint256[]"
        }
      ],
      "stateMutability": "view",
      "type": "function"
    },
    {
      "inputs": [
        {
          "internalType": "address",
          "name": "_to",
          "type": "address"
        },
        {
          "internalType": "uint256[]",
          "name": "_ids",
          "type": "uint256[]"
        },
        {
          "internalType": "uint256[]",
          "name": "_quantities",
          "type": "uint256[]"
        },
        {
          "internalType": "bytes",
          "name": "_data",
          "type": "bytes"
        }
      ],
      "name": "batchMint",
      "outputs": [],
      "stateMutability": "nonpayable",
      "type": "function"
    },
    {
      "inputs": [
        {
          "internalType": "uint256",
          "name": "_id",
          "type": "uint256"
        }
      ],
      "name": "claimBenefit",
      "outputs": [],
      "stateMutability": "nonpayable",
      "type": "function"
    },
    {
      "inputs": [],
      "name": "contractURI",
      "outputs": [
        {
          "internalType": "string",
          "name": "",
          "type": "string"
        }
      ],
      "stateMutability": "view",
      "type": "function"
    },
    {
      "inputs": [
        {
          "internalType": "address",
          "name": "_initialOwner",
          "type": "address"
        },
        {
          "internalType": "uint256",
          "name": "_initialSupply",
          "type": "uint256"
        },
        {
          "internalType": "string",
          "name": "_uri",
          "type": "string"
        },
        {
          "internalType": "address",
          "name": "_fundingToken",
          "type": "address"
        },
        {
          "internalType": "bytes",
          "name": "_data",
          "type": "bytes"
        }
      ],
      "name": "createREIT",
      "outputs": [
        {
          "internalType": "uint256",
          "name": "",
          "type": "uint256"
        }
      ],
      "stateMutability": "nonpayable",
      "type": "function"
    },
    {
      "inputs": [
        {
          "internalType": "uint256",
          "name": "",
          "type": "uint256"
        }
      ],
      "name": "creators",
      "outputs": [
        {
          "internalType": "address",
          "name": "",
          "type": "address"
        }
      ],
      "stateMutability": "view",
      "type": "function"
    },
    {
      "inputs": [
        {
          "internalType": "uint256",
          "name": "",
          "type": "uint256"
        }
      ],
      "name": "dividendFunds",
      "outputs": [
        {
          "internalType": "uint256",
          "name": "",
          "type": "uint256"
        }
      ],
      "stateMutability": "view",
      "type": "function"
    },
    {
      "inputs": [
        {
          "internalType": "uint256",
          "name": "_id",
          "type": "uint256"
        }
      ],
      "name": "getIPOContract",
      "outputs": [
        {
          "internalType": "address",
          "name": "",
          "type": "address"
        }
      ],
      "stateMutability": "view",
      "type": "function"
    },
    {
      "inputs": [
        {
          "internalType": "uint256",
          "name": "_id",
          "type": "uint256"
        }
      ],
      "name": "getShareUnitPrice",
      "outputs": [
        {
          "internalType": "uint256",
          "name": "",
          "type": "uint256"
        }
      ],
      "stateMutability": "view",
      "type": "function"
    },
    {
      "inputs": [
        {
          "internalType": "uint256",
          "name": "_id",
          "type": "uint256"
        }
      ],
      "name": "getTotalBenefit",
      "outputs": [
        {
          "internalType": "uint256",
          "name": "",
          "type": "uint256"
        }
      ],
      "stateMutability": "view",
      "type": "function"
    },
    {
      "inputs": [],
      "name": "governor",
      "outputs": [
        {
          "internalType": "address",
          "name": "",
          "type": "address"
        }
      ],
      "stateMutability": "view",
      "type": "function"
    },
    {
      "inputs": [
        {
          "internalType": "string",
          "name": "_name",
          "type": "string"
        },
        {
          "internalType": "string",
          "name": "_symbol",
          "type": "string"
        },
        {
          "internalType": "string",
          "name": "_uri",
          "type": "string"
        }
      ],
      "name": "initialize",
      "outputs": [],
      "stateMutability": "nonpayable",
      "type": "function"
    },
    {
      "inputs": [
        {
          "internalType": "uint256",
          "name": "_id",
          "type": "uint256"
        },
        {
          "internalType": "uint256",
          "name": "ipoTime",
          "type": "uint256"
        },
        {
          "internalType": "uint256",
          "name": "ipoUnitPrice",
          "type": "uint256"
        },
        {
          "internalType": "uint256",
          "name": "liquidationTime",
          "type": "uint256"
        },
        {
          "internalType": "uint256",
          "name": "registerationTaxRate",
          "type": "uint256"
        }
      ],
      "name": "initiate",
      "outputs": [],
      "stateMutability": "nonpayable",
      "type": "function"
    },
    {
      "inputs": [
        {
          "internalType": "address",
          "name": "account",
          "type": "address"
        },
        {
          "internalType": "address",
          "name": "operator",
          "type": "address"
        }
      ],
      "name": "isApprovedForAll",
      "outputs": [
        {
          "internalType": "bool",
          "name": "",
          "type": "bool"
        }
      ],
      "stateMutability": "view",
      "type": "function"
    },
    {
      "inputs": [
        {
          "internalType": "uint256",
          "name": "_id",
          "type": "uint256"
        },
        {
          "internalType": "address",
          "name": "account",
          "type": "address"
        }
      ],
      "name": "isIPOContract",
      "outputs": [
        {
          "internalType": "bool",
          "name": "",
          "type": "bool"
        }
      ],
      "stateMutability": "view",
      "type": "function"
    },
    {
      "inputs": [
        {
          "internalType": "address",
          "name": "account",
          "type": "address"
        }
      ],
      "name": "isKYC",
      "outputs": [
        {
          "internalType": "bool",
          "name": "",
          "type": "bool"
        }
      ],
      "stateMutability": "view",
      "type": "function"
    },
    {
      "inputs": [
        {
          "internalType": "address",
          "name": "_to",
          "type": "address"
        },
        {
          "internalType": "uint256",
          "name": "_id",
          "type": "uint256"
        },
        {
          "internalType": "uint256",
          "name": "_quantity",
          "type": "uint256"
        },
        {
          "internalType": "bytes",
          "name": "_data",
          "type": "bytes"
        }
      ],
      "name": "mint",
      "outputs": [],
      "stateMutability": "nonpayable",
      "type": "function"
    },
    {
      "inputs": [],
      "name": "name",
      "outputs": [
        {
          "internalType": "string",
          "name": "",
          "type": "string"
        }
      ],
      "stateMutability": "view",
      "type": "function"
    },
    {
      "inputs": [
        {
          "internalType": "uint256",
          "name": "_id",
          "type": "uint256"
        },
        {
          "internalType": "uint256",
          "name": "amount",
          "type": "uint256"
        }
      ],
      "name": "payDividends",
      "outputs": [],
      "stateMutability": "nonpayable",
      "type": "function"
    },
    {
      "inputs": [
        {
          "internalType": "address",
          "name": "account",
          "type": "address"
        }
      ],
      "name": "removeKYC",
      "outputs": [],
      "stateMutability": "nonpayable",
      "type": "function"
    },
    {
      "inputs": [
        {
          "internalType": "address[]",
          "name": "accounts",
          "type": "address[]"
        }
      ],
      "name": "removeManyKYC",
      "outputs": [],
      "stateMutability": "nonpayable",
      "type": "function"
    },
    {
      "inputs": [],
      "name": "renounceGovernorship",
      "outputs": [],
      "stateMutability": "nonpayable",
      "type": "function"
    },
    {
      "inputs": [],
      "name": "revokeKYCAdmin",
      "outputs": [],
      "stateMutability": "nonpayable",
      "type": "function"
    },
    {
      "inputs": [
        {
          "internalType": "address",
          "name": "from",
          "type": "address"
        },
        {
          "internalType": "address",
          "name": "to",
          "type": "address"
        },
        {
          "internalType": "uint256[]",
          "name": "ids",
          "type": "uint256[]"
        },
        {
          "internalType": "uint256[]",
          "name": "amounts",
          "type": "uint256[]"
        },
        {
          "internalType": "bytes",
          "name": "data",
          "type": "bytes"
        }
      ],
      "name": "safeBatchTransferFrom",
      "outputs": [],
      "stateMutability": "nonpayable",
      "type": "function"
    },
    {
      "inputs": [
        {
          "internalType": "address",
          "name": "from",
          "type": "address"
        },
        {
          "internalType": "address",
          "name": "to",
          "type": "address"
        },
        {
          "internalType": "uint256",
          "name": "id",
          "type": "uint256"
        },
        {
          "internalType": "uint256",
          "name": "amount",
          "type": "uint256"
        },
        {
          "internalType": "bytes",
          "name": "data",
          "type": "bytes"
        }
      ],
      "name": "safeTransferFrom",
      "outputs": [],
      "stateMutability": "nonpayable",
      "type": "function"
    },
    {
      "inputs": [
        {
          "internalType": "address",
          "name": "operator",
          "type": "address"
        },
        {
          "internalType": "bool",
          "name": "approved",
          "type": "bool"
        }
      ],
      "name": "setApprovalForAll",
      "outputs": [],
      "stateMutability": "nonpayable",
      "type": "function"
    },
    {
      "inputs": [
        {
          "internalType": "string",
          "name": "_newBaseMetadataURI",
          "type": "string"
        }
      ],
      "name": "setBaseMetadataURI",
      "outputs": [],
      "stateMutability": "nonpayable",
      "type": "function"
    },
    {
      "inputs": [
        {
          "internalType": "string",
          "name": "_uri",
          "type": "string"
        }
      ],
      "name": "setContractURI",
      "outputs": [],
      "stateMutability": "nonpayable",
      "type": "function"
    },
    {
      "inputs": [
        {
          "internalType": "address",
          "name": "_to",
          "type": "address"
        },
        {
          "internalType": "uint256[]",
          "name": "_ids",
          "type": "uint256[]"
        }
      ],
      "name": "setCreator",
      "outputs": [],
      "stateMutability": "nonpayable",
      "type": "function"
    },
    {
      "inputs": [
        {
          "internalType": "uint256",
          "name": "_id",
          "type": "uint256"
        },
        {
          "internalType": "address",
          "name": "account",
          "type": "address"
        }
      ],
      "name": "setIPOContract",
      "outputs": [],
      "stateMutability": "nonpayable",
      "type": "function"
    },
    {
      "inputs": [
        {
          "internalType": "address",
          "name": "account",
          "type": "address"
        }
      ],
      "name": "setKYCAdmin",
      "outputs": [],
      "stateMutability": "nonpayable",
      "type": "function"
    },
    {
      "inputs": [
        {
          "internalType": "bytes4",
          "name": "interfaceId",
          "type": "bytes4"
        }
      ],
      "name": "supportsInterface",
      "outputs": [
        {
          "internalType": "bool",
          "name": "",
          "type": "bool"
        }
      ],
      "stateMutability": "view",
      "type": "function"
    },
    {
      "inputs": [],
      "name": "symbol",
      "outputs": [
        {
          "internalType": "string",
          "name": "",
          "type": "string"
        }
      ],
      "stateMutability": "view",
      "type": "function"
    },
    {
      "inputs": [
        {
          "internalType": "uint256",
          "name": "",
          "type": "uint256"
        }
      ],
      "name": "tokenMetadata",
      "outputs": [
        {
          "internalType": "uint256",
          "name": "ipoTime",
          "type": "uint256"
        },
        {
          "internalType": "uint256",
          "name": "ipoUnitPrice",
          "type": "uint256"
        },
        {
          "internalType": "uint256",
          "name": "liquidationTime",
          "type": "uint256"
        },
        {
          "internalType": "uint256",
          "name": "registerationTaxRate",
          "type": "uint256"
        }
      ],
      "stateMutability": "view",
      "type": "function"
    },
    {
      "inputs": [
        {
          "internalType": "uint256",
          "name": "",
          "type": "uint256"
        }
      ],
      "name": "tokenSupply",
      "outputs": [
        {
          "internalType": "uint256",
          "name": "",
          "type": "uint256"
        }
      ],
      "stateMutability": "view",
      "type": "function"
    },
    {
      "inputs": [
        {
          "internalType": "uint256",
          "name": "",
          "type": "uint256"
        }
      ],
      "name": "tokenUri",
      "outputs": [
        {
          "internalType": "string",
          "name": "",
          "type": "string"
        }
      ],
      "stateMutability": "view",
      "type": "function"
    },
    {
      "inputs": [
        {
          "internalType": "uint256",
          "name": "",
          "type": "uint256"
        }
      ],
      "name": "tokenYieldData",
      "outputs": [
        {
          "internalType": "uint256",
          "name": "liquidationExtension",
          "type": "uint256"
        }
      ],
      "stateMutability": "view",
      "type": "function"
    },
    {
      "inputs": [
        {
          "internalType": "uint256",
          "name": "_id",
          "type": "uint256"
        }
      ],
      "name": "totalSupply",
      "outputs": [
        {
          "internalType": "uint256",
          "name": "",
          "type": "uint256"
        }
      ],
      "stateMutability": "view",
      "type": "function"
    },
    {
      "inputs": [
        {
          "internalType": "address",
          "name": "newGovernor",
          "type": "address"
        }
      ],
      "name": "transferGovernorship",
      "outputs": [],
      "stateMutability": "nonpayable",
      "type": "function"
    },
    {
      "inputs": [
        {
          "internalType": "uint256",
          "name": "_id",
          "type": "uint256"
        },
        {
          "internalType": "uint256",
          "name": "dividend",
          "type": "uint256"
        }
      ],
      "name": "unlockDividends",
      "outputs": [],
      "stateMutability": "nonpayable",
      "type": "function"
    },
    {
      "inputs": [
        {
          "internalType": "uint256",
          "name": "_id",
          "type": "uint256"
        }
      ],
      "name": "uri",
      "outputs": [
        {
          "internalType": "string",
          "name": "",
          "type": "string"
        }
      ],
      "stateMutability": "view",
      "type": "function"
    }
  ],
  "bytecode": "0x608060405234801561001057600080fd5b50613f00806100206000396000f3fe608060405234801561001057600080fd5b50600436106102735760003560e01c80639944f51811610151578063d1c901a4116100c3578063e8e0b2d011610087578063e8e0b2d01461062d578063e985e9c514610640578063efe7744f1461067c578063f242432a1461069d578063f6ee8fcc146106b0578063f720a8c5146106c357600080fd5b8063d1c901a4146105ab578063d2a6b51a146105cf578063d64e83d7146105e2578063d98d9eaf146105f5578063e8a3d4851461062557600080fd5b8063b1fd691011610115578063b1fd691014610505578063b48ab8b614610529578063b6aa515b1461053c578063bb8973031461054f578063bd85b03914610562578063cd53d08e1461058257600080fd5b80639944f5181461048f5780639b166e2f146104a2578063a22cb465146104cc578063a6487c53146104df578063abfebaa4146104f257600080fd5b80634e1273f4116101ea578063731133e9116101ae578063731133e91461043357806378c4acb8146104465780637e518ec81461045957806381c0c2631461046c578063938e3d7b1461047457806395d89b411461048757600080fd5b80634e1273f41461038f57806358cc49a5146103af578063590a5ce0146103c257806359d1a4b1146103d55780636914db60146103dd57600080fd5b80631675f4551161023c5780631675f4551461030e57806322b6ccfe14610321578063243f6b58146103365780632693ebf2146103495780632eb2c2d614610369578063409f8c481461037c57600080fd5b8062fdd58e1461027857806301ffc9a71461029e57806306fdde03146102c15780630c340a24146102d65780630e89341c146102fb575b600080fd5b61028b610286366004613042565b6106d6565b6040519081526020015b60405180910390f35b6102b16102ac366004613082565b6106eb565b6040519015158152602001610295565b6102c961073b565b60405161029591906130f3565b6097546001600160a01b03165b6040516001600160a01b039091168152602001610295565b6102c9610309366004613106565b6107ca565b6102c961031c366004613106565b61086c565b61033461032f36600461311f565b610885565b005b61033461034436600461311f565b6108de565b61028b610357366004613106565b60fd6020526000908152604090205481565b610334610377366004613278565b61092b565b61033461038a36600461311f565b610b2a565b6103a261039d366004613321565b610bb6565b6040516102959190613426565b6103346103bd366004613106565b610cdf565b6103346103d0366004613439565b6110ff565b610334611223565b6104136103eb366004613106565b6101356020526000908152604090208054600182015460028301546003909301549192909184565b604080519485526020850193909352918301526060820152608001610295565b61033461044136600461345b565b611259565b6103346104543660046134bb565b6112cf565b61033461046736600461352f565b611372565b6103346113a5565b61033461048236600461352f565b6113d9565b6102c961141a565b6102b161049d36600461311f565b611428565b6102e36104b0366004613106565b600090815261013a60205260409020546001600160a01b031690565b6103346104da366004613571565b61145d565b6103346104ed3660046135a8565b611468565b61033461050036600461362f565b6114ec565b61028b610513366004613106565b6000908152610135602052604090206001015490565b61033461053736600461366a565b61156f565b61033461054a36600461311f565b6116fe565b61028b61055d36600461373e565b61179c565b61028b610570366004613106565b600090815260fd602052604090205490565b6102e3610590366004613106565b60fc602052600090815260409020546001600160a01b031681565b61028b6105b9366004613106565b6101366020526000908152604090206001015481565b6103346105dd3660046137db565b611990565b6103346105f03660046134bb565b611aca565b6102b161060336600461381e565b600091825261013a6020526040909120546001600160a01b0391821691161490565b6102c9611b68565b61033461063b366004613439565b611bfa565b6102b161064e36600461384a565b6001600160a01b03918216600090815260666020908152604080832093909416825291909152205460ff1690565b61028b61068a366004613106565b6101386020526000908152604090205481565b6103346106ab366004613874565b611c57565b6103346106be36600461381e565b611df1565b61028b6106d1366004613106565b611e59565b60006106e28383611ef8565b90505b92915050565b60006001600160e01b03198216636cdb3d1360e11b148061071c57506001600160e01b031982166303a24d0760e21b145b806106e557506301ffc9a760e01b6001600160e01b03198316146106e5565b6101008054610749906138d8565b80601f0160208091040260200160405190810160405280929190818152602001828054610775906138d8565b80156107c25780601f10610797576101008083540402835291602001916107c2565b820191906000526020600020905b8154815290600101906020018083116107a557829003601f168201915b505050505081565b600081815260fe602052604090208054606091906107e7906138d8565b80601f0160208091040260200160405190810160405280929190818152602001828054610813906138d8565b80156108605780601f1061083557610100808354040283529160200191610860565b820191906000526020600020905b81548152906001019060200180831161084357829003601f168201915b50505050509050919050565b60fe6020526000908152604090208054610749906138d8565b610103546001600160a01b031633146108b95760405162461bcd60e51b81526004016108b09061390d565b60405180910390fd5b6001600160a01b0316600090815261010260205260409020805460ff19166001179055565b610103546001600160a01b031633146109095760405162461bcd60e51b81526004016108b09061390d565b6001600160a01b0316600090815261010260205260409020805460ff19169055565b6001600160a01b0385163314806109475750610947853361064e565b6109ae5760405162461bcd60e51b815260206004820152603260248201527f455243313135353a207472616e736665722063616c6c6572206973206e6f74206044820152711bdddb995c881b9bdc88185c1c1c9bdd995960721b60648201526084016108b0565b60005b8351811015610b155760008482815181106109ce576109ce61394f565b6020026020010151905060008483815181106109ec576109ec61394f565b602002602001015190506000610a028383611f8c565b60008481526101396020526040908190205490516323b872dd60e01b81526001600160a01b038c811660048301523060248301526044820184905292935091169081906323b872dd90606401602060405180830381600087803b158015610a6857600080fd5b505af1158015610a7c573d6000803e3d6000fd5b505050506040513d601f19601f82011682018060405250810190610aa09190613965565b610aec5760405162461bcd60e51b815260206004820152601a60248201527f524549544e46543a20436f756c64206e6f74207061792074617800000000000060448201526064016108b0565b610af68a85611ffb565b610b008985611ffb565b5050505080610b0e90613998565b90506109b1565b50610b238585858585612163565b5050505050565b6097546001600160a01b03163314610b545760405162461bcd60e51b81526004016108b0906139b3565b6001600160a01b038116610baa5760405162461bcd60e51b815260206004820181905260248201527f4b59432041646d696e2063616e6e6f74206265207a65726f206164647265737360448201526064016108b0565b610bb381612302565b50565b60608151835114610c1b5760405162461bcd60e51b815260206004820152602960248201527f455243313135353a206163636f756e747320616e6420696473206c656e677468604482015268040dad2e6dac2e8c6d60bb1b60648201526084016108b0565b600083516001600160401b03811115610c3657610c3661313a565b604051908082528060200260200182016040528015610c5f578160200160208202803683370190505b50905060005b8451811015610cd757610caa858281518110610c8357610c8361394f565b6020026020010151858381518110610c9d57610c9d61394f565b60200260200101516106d6565b828281518110610cbc57610cbc61394f565b6020908102919091010152610cd081613998565b9050610c65565b509392505050565b336000908152610102602052604090205460ff16610d2d5760405162461bcd60e51b815260206004820152600b60248201526a4e6f7420796574204b594360a81b60448201526064016108b0565b806000610d3b335b836106d6565b11610d585760405162461bcd60e51b81526004016108b0906139f9565b600260c9541415610dab5760405162461bcd60e51b815260206004820152601f60248201527f5265656e7472616e637947756172643a207265656e7472616e742063616c6c0060448201526064016108b0565b600260c95560008281526101376020908152604080832033845290915290205460ff16610e11576000828152610137602090815260408083203380855292528220805460016101009093026001600160a81b031990911617821781556002810183905501555b600082815261013760209081526040808320338085529083528184208251608081018452815460ff81161515825261010090046001600160a01b03169481019490945260018101549284019290925260029091015460608301819052919291610e8591610e7f905b87612325565b90612485565b905060008111610ed75760405162461bcd60e51b815260206004820181905260248201527f524549544e46543a206e6f206d6f726520636c61696d61626c65207969656c6460448201526064016108b0565b6000848152610138602052604090205481811015610f475760405162461bcd60e51b815260206004820152602760248201527f524549544e46543a206e656564206d6f72652066756e64696e67732066726f6d6044820152661034b9b9bab2b960c91b60648201526084016108b0565b600085815261013660209081526040808320815181546060948102820185018452928101838152909391928492849190840182828015610fa657602002820191906000526020600020905b815481526020019060010190808311610f92575b50505091835250506001919091015460209182015260008881526101389091526040902054909150610fd89084612491565b6000878152610138602090815260408083209390935561013781528282203380845290825283832060028101849055855151600190910155898352610139825283832054845163a9059cbb60e01b815260048101929092526024820188905293516001600160a01b0390941693849363a9059cbb93604480850194919392918390030190829087803b15801561106d57600080fd5b505af1158015611081573d6000803e3d6000fd5b505050506040513d601f19601f820116820180604052508101906110a59190613965565b6110f15760405162461bcd60e51b815260206004820181905260248201527f524549544e46543a20436f756c64206e6f74207472616e736665722066756e6460448201526064016108b0565b5050600160c9555050505050565b600082815261013960205260409020546001600160a01b0316806323b872dd336040516001600160e01b031960e084901b1681526001600160a01b03909116600482015230602482015260448101859052606401602060405180830381600087803b15801561116d57600080fd5b505af1158015611181573d6000803e3d6000fd5b505050506040513d601f19601f820116820180604052508101906111a59190613965565b6111f15760405162461bcd60e51b815260206004820181905260248201527f524549544e46543a20436f756c64206e6f74207472616e736665722066756e6460448201526064016108b0565b6000838152610138602052604090205461120b9083612485565b60009384526101386020526040909320929092555050565b6097546001600160a01b0316331461124d5760405162461bcd60e51b81526004016108b0906139b3565b6112576000612302565b565b600083815260fc602052604090205483906001600160a01b031633146112915760405162461bcd60e51b81526004016108b090613a4e565b61129d8585858561249d565b600084815260fd60205260409020546112b69084612485565b600094855260fd60205260409094209390935550505050565b610103546001600160a01b031633146112fa5760405162461bcd60e51b81526004016108b09061390d565b60005b8181101561136d576001610102600085858581811061131e5761131e61394f565b9050602002016020810190611333919061311f565b6001600160a01b031681526020810191909152604001600020805460ff19169115159190911790558061136581613998565b9150506112fd565b505050565b6097546001600160a01b0316331461139c5760405162461bcd60e51b81526004016108b0906139b3565b610bb381612570565b6097546001600160a01b031633146113cf5760405162461bcd60e51b81526004016108b0906139b3565b6112576000612583565b6097546001600160a01b031633146114035760405162461bcd60e51b81526004016108b0906139b3565b80516114169060ff906020840190612ee4565b5050565b6101018054610749906138d8565b60006001600160a01b03821661143d57600080fd5b506001600160a01b03166000908152610102602052604090205460ff1690565b6114163383836125d5565b600061147460016126b6565b9050801561148c576000805461ff0019166101001790555b611497848484612743565b61149f612805565b80156114e6576000805461ff0019169055604051600181527f7f26b83ff96e1f2b6a682f133852f6798a09c465da95921460cefb3847402498906020015b60405180910390a15b50505050565b600085815260fc602052604090205485906001600160a01b031633146115245760405162461bcd60e51b81526004016108b090613a4e565b50604080516080810182529485526020808601948552858201938452606086019283526000968752610135905290942092518355905160018301555160028201559051600390910155565b81518351146115d95760405162461bcd60e51b815260206004820152603060248201527f455243313135354d696e744275726e2362617463684d696e743a20494e56414c60448201526f09288be82a4a482b2a6be988a9c8ea8960831b60648201526084016108b0565b60005b83518110156116f15760008482815181106115f9576115f961394f565b602090810291909101810151600081815260fc9092526040909120549091506001600160a01b031633146116875760405162461bcd60e51b815260206004820152602f60248201527f455243313135355472616461626c652362617463684d696e743a204f4e4c595f60448201526e10d491505513d497d0531313d5d151608a1b60648201526084016108b0565b600084838151811061169b5761169b61394f565b602002602001015190506116cb8160fd60008581526020019081526020016000205461248590919063ffffffff16565b600092835260fd60205260409092209190915550806116e981613998565b9150506115dc565b506114e684848484612834565b6097546001600160a01b031633146117285760405162461bcd60e51b81526004016108b0906139b3565b6001600160a01b0381166117935760405162461bcd60e51b815260206004820152602c60248201527f476f7665726e61626c653a206e657720676f7665726e6f72206973207468652060448201526b7a65726f206164647265737360a01b60648201526084016108b0565b610bb381612583565b6097546000906001600160a01b031633146117c95760405162461bcd60e51b81526004016108b0906139b3565b60006117d3612980565b90506117dd612996565b6117e789826129ad565b851561184257807f6bb7ff708619ba0610cba295a58592e0451dee2622938c8755667688daf3529b888860405161181f929190613a9f565b60405180910390a2600081815260fe60205260409020611840908888612f68565b505b60008181526101396020908152604080832080546001600160a01b0319166001600160a01b038a16179055805160808101825283815280830184815281830185815260608084018781528888526101358752858820945185559251600185015590516002840155905160039092019190915581518083018581529181018352908152808301849052848452610136835292208251805191926118e992849290910190612fdc565b506020820151816001015590505061193989828a87878080601f01602080910402602001604051908101604052809392919081815260200183838082843760009201919091525061249d92505050565b600081815260fd602052604090819020899055517f07eac9a0695a188fe9d6fd680bcbbbe39041fb114d5d7ac11252401391f793079061197c9083815260200190565b60405180910390a198975050505050505050565b6001600160a01b0382166119fa5760405162461bcd60e51b815260206004820152602b60248201527f455243313135355472616461626c652373657443726561746f723a20494e564160448201526a4c49445f4144445245535360a81b60648201526084016108b0565b60005b815181101561136d576000828281518110611a1a57611a1a61394f565b60200260200101519050611a2b3390565b600082815260fc60205260409020546001600160a01b03908116911614611aad5760405162461bcd60e51b815260206004820152603060248201527f455243313135355472616461626c652373657443726561746f723a204f4e4c5960448201526f17d0d491505513d497d0531313d5d15160821b60648201526084016108b0565b611ab784826129ad565b5080611ac281613998565b9150506119fd565b610103546001600160a01b03163314611af55760405162461bcd60e51b81526004016108b09061390d565b60005b8181101561136d5760006101026000858585818110611b1957611b1961394f565b9050602002016020810190611b2e919061311f565b6001600160a01b031681526020810191909152604001600020805460ff191691151591909117905580611b6081613998565b915050611af8565b606060ff8054611b77906138d8565b80601f0160208091040260200160405190810160405280929190818152602001828054611ba3906138d8565b8015611bf05780601f10611bc557610100808354040283529160200191611bf0565b820191906000526020600020905b815481529060010190602001808311611bd357829003601f168201915b5050505050905090565b600082815260fc602052604090205482906001600160a01b03163314611c325760405162461bcd60e51b81526004016108b090613a4e565b5060009182526101366020908152604083208054600181018255908452922090910155565b6001600160a01b038516331480611c735750611c73853361064e565b611cd15760405162461bcd60e51b815260206004820152602960248201527f455243313135353a2063616c6c6572206973206e6f74206f776e6572206e6f7260448201526808185c1c1c9bdd995960ba1b60648201526084016108b0565b6000611cdd8484611f8c565b60008581526101396020526040908190205490516323b872dd60e01b81526001600160a01b0389811660048301523060248301526044820184905292935091169081906323b872dd90606401602060405180830381600087803b158015611d4357600080fd5b505af1158015611d57573d6000803e3d6000fd5b505050506040513d601f19601f82011682018060405250810190611d7b9190613965565b611dc75760405162461bcd60e51b815260206004820152601a60248201527f524549544e46543a20436f756c64206e6f74207061792074617800000000000060448201526064016108b0565b611dd18786611ffb565b611ddb8686611ffb565b611de887878787876129db565b50505050505050565b600082815260fc602052604090205482906001600160a01b03163314611e295760405162461bcd60e51b81526004016108b090613a4e565b50600091825261013a602052604090912080546001600160a01b0319166001600160a01b03909216919091179055565b60008181611e6633610d35565b11611e835760405162461bcd60e51b81526004016108b0906139f9565b60008381526101376020908152604080832033808552908352928190208151608081018352815460ff81161515825261010090046001600160a01b03169381019390935260018101549183019190915260020154606082018190529091611eee9190610e7f90610e79565b9250505b50919050565b60006001600160a01b038316611f645760405162461bcd60e51b815260206004820152602b60248201527f455243313135353a2062616c616e636520717565727920666f7220746865207a60448201526a65726f206164647265737360a81b60648201526084016108b0565b5060009081526065602090815260408083206001600160a01b03949094168352929052205490565b600082815261013560209081526040808320815160808101835281548152600182015493810184905260028201549281019290925260030154606082018190529091611ff3916305f5e10091611fed9190611fe79088612b09565b90612b09565b90612b15565b949350505050565b6000818152610137602090815260408083206001600160a01b038616845290915290205460ff16612071576000818152610137602090815260408083206001600160a01b03861680855292528220805460016001600160a81b031990911661010090930292909217821781556002810183905501555b600061207d8383612325565b9050801561136d576000828152610136602090815260408083208151815460609481028201850184529281018381529093919284928491908401828280156120e457602002820191906000526020600020905b8154815260200190600101908083116120d0575b5050509183525050600191909101546020918201526000858152610137825260408082206001600160a01b038916835290925220600201549091506121299083612485565b6000938452610137602090815260408086206001600160a01b03979097168652959052939092206002810193909355505151600190910155565b81518351146121845760405162461bcd60e51b81526004016108b090613ace565b6001600160a01b0384166121aa5760405162461bcd60e51b81526004016108b090613b16565b3360005b84518110156122945760008582815181106121cb576121cb61394f565b6020026020010151905060008583815181106121e9576121e961394f565b60209081029190910181015160008481526065835260408082206001600160a01b038e16835290935291909120549091508181101561223a5760405162461bcd60e51b81526004016108b090613b5b565b60008381526065602090815260408083206001600160a01b038e8116855292528083208585039055908b16825281208054849290612279908490613ba5565b925050819055505050508061228d90613998565b90506121ae565b50846001600160a01b0316866001600160a01b0316826001600160a01b03167f4a39dc06d4c0dbc64b70af90fd698a233a518aa5d07e595d983b8c0526c8f7fb87876040516122e4929190613bbd565b60405180910390a46122fa818787878787612b21565b505050505050565b61010380546001600160a01b0319166001600160a01b0392909216919091179055565b6000818152610137602090815260408083206001600160a01b0380871685529083528184208251608081018452815460ff811615158083526101009091049093169481019490945260018101549284019290925260029091015460608301526123925760009150506106e5565b6000838152610136602090815260408083208151815460609481028201850184529281018381529093919284928491908401828280156123f157602002820191906000526020600020905b8154815260200190600101908083116123dd575b505050505081526020016001820154815250509050600061241286866106d6565b60408401519091506000905b83515181101561247a57600061245a84866000015184815181106124445761244461394f565b6020026020010151612b0990919063ffffffff16565b90506124668382612485565b9250508061247390613998565b905061241e565b509695505050505050565b60006106e28284613ba5565b60006106e28284613beb565b6001600160a01b0384166124c35760405162461bcd60e51b81526004016108b090613c02565b3360006124cf85612c8c565b905060006124dc85612c8c565b905060008681526065602090815260408083206001600160a01b038b16845290915281208054879290612510908490613ba5565b909155505060408051878152602081018790526001600160a01b03808a1692600092918716917fc3d58168c5ae7397731d063d5bbf3d657854427343f4c083240f7aacaa2d0f62910160405180910390a4611de883600089898989612cd7565b8051611416906067906020840190612ee4565b609780546001600160a01b038381166001600160a01b0319831681179093556040519116919082907fc7c0c772add429241571afb3805861fb3cfa2af374534088b76cdb4325a87e9a90600090a35050565b816001600160a01b0316836001600160a01b031614156126495760405162461bcd60e51b815260206004820152602960248201527f455243313135353a2073657474696e6720617070726f76616c20737461747573604482015268103337b91039b2b63360b91b60648201526084016108b0565b6001600160a01b03838116600081815260666020908152604080832094871680845294825291829020805460ff191686151590811790915591519182527f17307eab39ab6107e8899845ad3d59bd9653f200f220920489ca2b5937696c31910160405180910390a3505050565b60008054610100900460ff16156126fd578160ff1660011480156126d95750303b155b6126f55760405162461bcd60e51b81526004016108b090613c43565b506000919050565b60005460ff8084169116106127245760405162461bcd60e51b81526004016108b090613c43565b506000805460ff191660ff92909216919091179055600190565b919050565b600061274f60016126b6565b90508015612767576000805461ff0019166101001790555b61277082612da1565b612778612dd1565b612780612e00565b835161279490610100906020870190612ee4565b5082516127a990610101906020860190612ee4565b50600060fb5581516127c29060ff906020850190612ee4565b5080156114e6576000805461ff0019169055604051600181527f7f26b83ff96e1f2b6a682f133852f6798a09c465da95921460cefb3847402498906020016114dd565b600054610100900460ff1661282c5760405162461bcd60e51b81526004016108b090613c91565b611257612e2f565b6001600160a01b03841661285a5760405162461bcd60e51b81526004016108b090613c02565b815183511461287b5760405162461bcd60e51b81526004016108b090613ace565b3360005b84518110156129185783818151811061289a5761289a61394f565b6020026020010151606560008784815181106128b8576128b861394f565b602002602001015181526020019081526020016000206000886001600160a01b03166001600160a01b0316815260200190815260200160002060008282546129009190613ba5565b9091555081905061291081613998565b91505061287f565b50846001600160a01b031660006001600160a01b0316826001600160a01b03167f4a39dc06d4c0dbc64b70af90fd698a233a518aa5d07e595d983b8c0526c8f7fb8787604051612969929190613bbd565b60405180910390a4610b2381600087878787612b21565b60fb54600090612991906001612485565b905090565b60fb80549060006129a683613998565b9190505550565b600090815260fc6020526040902080546001600160a01b0319166001600160a01b0392909216919091179055565b6001600160a01b038416612a015760405162461bcd60e51b81526004016108b090613b16565b336000612a0d85612c8c565b90506000612a1a85612c8c565b905060008681526065602090815260408083206001600160a01b038c16845290915290205485811015612a5f5760405162461bcd60e51b81526004016108b090613b5b565b60008781526065602090815260408083206001600160a01b038d8116855292528083208985039055908a16825281208054889290612a9e908490613ba5565b909155505060408051888152602081018890526001600160a01b03808b16928c821692918816917fc3d58168c5ae7397731d063d5bbf3d657854427343f4c083240f7aacaa2d0f62910160405180910390a4612afe848a8a8a8a8a612cd7565b505050505050505050565b60006106e28284613cdc565b60006106e28284613cfb565b6001600160a01b0384163b156122fa5760405163bc197c8160e01b81526001600160a01b0385169063bc197c8190612b659089908990889088908890600401613d1d565b602060405180830381600087803b158015612b7f57600080fd5b505af1925050508015612baf575060408051601f3d908101601f19168201909252612bac91810190613d7b565b60015b612c5c57612bbb613d98565b806308c379a01415612bf55750612bd0613db4565b80612bdb5750612bf7565b8060405162461bcd60e51b81526004016108b091906130f3565b505b60405162461bcd60e51b815260206004820152603460248201527f455243313135353a207472616e7366657220746f206e6f6e20455243313135356044820152732932b1b2b4bb32b91034b6b83632b6b2b73a32b960611b60648201526084016108b0565b6001600160e01b0319811663bc197c8160e01b14611de85760405162461bcd60e51b81526004016108b090613e3d565b60408051600180825281830190925260609160009190602080830190803683370190505090508281600081518110612cc657612cc661394f565b602090810291909101015292915050565b6001600160a01b0384163b156122fa5760405163f23a6e6160e01b81526001600160a01b0385169063f23a6e6190612d1b9089908990889088908890600401613e85565b602060405180830381600087803b158015612d3557600080fd5b505af1925050508015612d65575060408051601f3d908101601f19168201909252612d6291810190613d7b565b60015b612d7157612bbb613d98565b6001600160e01b0319811663f23a6e6160e01b14611de85760405162461bcd60e51b81526004016108b090613e3d565b600054610100900460ff16612dc85760405162461bcd60e51b81526004016108b090613c91565b610bb381612e5f565b600054610100900460ff16612df85760405162461bcd60e51b81526004016108b090613c91565b611257612e86565b600054610100900460ff16612e275760405162461bcd60e51b81526004016108b090613c91565b611257612eb6565b600054610100900460ff16612e565760405162461bcd60e51b81526004016108b090613c91565b61125733612302565b600054610100900460ff1661139c5760405162461bcd60e51b81526004016108b090613c91565b600054610100900460ff16612ead5760405162461bcd60e51b81526004016108b090613c91565b61125733612583565b600054610100900460ff16612edd5760405162461bcd60e51b81526004016108b090613c91565b600160c955565b828054612ef0906138d8565b90600052602060002090601f016020900481019282612f125760008555612f58565b82601f10612f2b57805160ff1916838001178555612f58565b82800160010185558215612f58579182015b82811115612f58578251825591602001919060010190612f3d565b50612f64929150613016565b5090565b828054612f74906138d8565b90600052602060002090601f016020900481019282612f965760008555612f58565b82601f10612faf5782800160ff19823516178555612f58565b82800160010185558215612f58579182015b82811115612f58578235825591602001919060010190612fc1565b828054828255906000526020600020908101928215612f585791602002820182811115612f58578251825591602001919060010190612f3d565b5b80821115612f645760008155600101613017565b80356001600160a01b038116811461273e57600080fd5b6000806040838503121561305557600080fd5b61305e8361302b565b946020939093013593505050565b6001600160e01b031981168114610bb357600080fd5b60006020828403121561309457600080fd5b813561309f8161306c565b9392505050565b6000815180845260005b818110156130cc576020818501810151868301820152016130b0565b818111156130de576000602083870101525b50601f01601f19169290920160200192915050565b6020815260006106e260208301846130a6565b60006020828403121561311857600080fd5b5035919050565b60006020828403121561313157600080fd5b6106e28261302b565b634e487b7160e01b600052604160045260246000fd5b601f8201601f191681016001600160401b03811182821017156131755761317561313a565b6040525050565b60006001600160401b038211156131955761319561313a565b5060051b60200190565b600082601f8301126131b057600080fd5b813560206131bd8261317c565b6040516131ca8282613150565b83815260059390931b85018201928281019150868411156131ea57600080fd5b8286015b8481101561247a57803583529183019183016131ee565b600082601f83011261321657600080fd5b81356001600160401b0381111561322f5761322f61313a565b604051613246601f8301601f191660200182613150565b81815284602083860101111561325b57600080fd5b816020850160208301376000918101602001919091529392505050565b600080600080600060a0868803121561329057600080fd5b6132998661302b565b94506132a76020870161302b565b935060408601356001600160401b03808211156132c357600080fd5b6132cf89838a0161319f565b945060608801359150808211156132e557600080fd5b6132f189838a0161319f565b9350608088013591508082111561330757600080fd5b5061331488828901613205565b9150509295509295909350565b6000806040838503121561333457600080fd5b82356001600160401b038082111561334b57600080fd5b818501915085601f83011261335f57600080fd5b8135602061336c8261317c565b6040516133798282613150565b83815260059390931b850182019282810191508984111561339957600080fd5b948201945b838610156133be576133af8661302b565b8252948201949082019061339e565b965050860135925050808211156133d457600080fd5b506133e18582860161319f565b9150509250929050565b600081518084526020808501945080840160005b8381101561341b578151875295820195908201906001016133ff565b509495945050505050565b6020815260006106e260208301846133eb565b6000806040838503121561344c57600080fd5b50508035926020909101359150565b6000806000806080858703121561347157600080fd5b61347a8561302b565b9350602085013592506040850135915060608501356001600160401b038111156134a357600080fd5b6134af87828801613205565b91505092959194509250565b600080602083850312156134ce57600080fd5b82356001600160401b03808211156134e557600080fd5b818501915085601f8301126134f957600080fd5b81358181111561350857600080fd5b8660208260051b850101111561351d57600080fd5b60209290920196919550909350505050565b60006020828403121561354157600080fd5b81356001600160401b0381111561355757600080fd5b611ff384828501613205565b8015158114610bb357600080fd5b6000806040838503121561358457600080fd5b61358d8361302b565b9150602083013561359d81613563565b809150509250929050565b6000806000606084860312156135bd57600080fd5b83356001600160401b03808211156135d457600080fd5b6135e087838801613205565b945060208601359150808211156135f657600080fd5b61360287838801613205565b9350604086013591508082111561361857600080fd5b5061362586828701613205565b9150509250925092565b600080600080600060a0868803121561364757600080fd5b505083359560208501359550604085013594606081013594506080013592509050565b6000806000806080858703121561368057600080fd5b6136898561302b565b935060208501356001600160401b03808211156136a557600080fd5b6136b18883890161319f565b945060408701359150808211156136c757600080fd5b6136d38883890161319f565b935060608701359150808211156136e957600080fd5b506134af87828801613205565b60008083601f84011261370857600080fd5b5081356001600160401b0381111561371f57600080fd5b60208301915083602082850101111561373757600080fd5b9250929050565b600080600080600080600060a0888a03121561375957600080fd5b6137628861302b565b96506020880135955060408801356001600160401b038082111561378557600080fd5b6137918b838c016136f6565b90975095508591506137a560608b0161302b565b945060808a01359150808211156137bb57600080fd5b506137c88a828b016136f6565b989b979a50959850939692959293505050565b600080604083850312156137ee57600080fd5b6137f78361302b565b915060208301356001600160401b0381111561381257600080fd5b6133e18582860161319f565b6000806040838503121561383157600080fd5b823591506138416020840161302b565b90509250929050565b6000806040838503121561385d57600080fd5b6138668361302b565b91506138416020840161302b565b600080600080600060a0868803121561388c57600080fd5b6138958661302b565b94506138a36020870161302b565b9350604086013592506060860135915060808601356001600160401b038111156138cc57600080fd5b61331488828901613205565b600181811c908216806138ec57607f821691505b60208210811415611ef257634e487b7160e01b600052602260045260246000fd5b60208082526022908201527f4b59434163636573733a2063616c6c6572206973206e6f74207468652061646d60408201526134b760f11b606082015260800190565b634e487b7160e01b600052603260045260246000fd5b60006020828403121561397757600080fd5b815161309f81613563565b634e487b7160e01b600052601160045260246000fd5b60006000198214156139ac576139ac613982565b5060010190565b60208082526026908201527f476f7665726e61626c653a2063616c6c6572206973206e6f742074686520676f6040820152653b32b93737b960d11b606082015260800190565b60208082526035908201527f455243313135355472616461626c65237368617265486f6c646572734f6e6c796040820152740e8813d3931657d3d5d3915494d7d0531313d5d151605a1b606082015260800190565b60208082526031908201527f455243313135355472616461626c652363726561746f724f6e6c793a204f4e4c6040820152701657d0d491505513d497d0531313d5d151607a1b606082015260800190565b60208152816020820152818360408301376000818301604090810191909152601f909201601f19160101919050565b60208082526028908201527f455243313135353a2069647320616e6420616d6f756e7473206c656e677468206040820152670dad2e6dac2e8c6d60c31b606082015260800190565b60208082526025908201527f455243313135353a207472616e7366657220746f20746865207a65726f206164604082015264647265737360d81b606082015260800190565b6020808252602a908201527f455243313135353a20696e73756666696369656e742062616c616e636520666f60408201526939103a3930b739b332b960b11b606082015260800190565b60008219821115613bb857613bb8613982565b500190565b604081526000613bd060408301856133eb565b8281036020840152613be281856133eb565b95945050505050565b600082821015613bfd57613bfd613982565b500390565b60208082526021908201527f455243313135353a206d696e7420746f20746865207a65726f206164647265736040820152607360f81b606082015260800190565b6020808252602e908201527f496e697469616c697a61626c653a20636f6e747261637420697320616c72656160408201526d191e481a5b9a5d1a585b1a5e995960921b606082015260800190565b6020808252602b908201527f496e697469616c697a61626c653a20636f6e7472616374206973206e6f74206960408201526a6e697469616c697a696e6760a81b606082015260800190565b6000816000190483118215151615613cf657613cf6613982565b500290565b600082613d1857634e487b7160e01b600052601260045260246000fd5b500490565b6001600160a01b0386811682528516602082015260a060408201819052600090613d49908301866133eb565b8281036060840152613d5b81866133eb565b90508281036080840152613d6f81856130a6565b98975050505050505050565b600060208284031215613d8d57600080fd5b815161309f8161306c565b600060033d1115613db15760046000803e5060005160e01c5b90565b600060443d1015613dc25790565b6040516003193d81016004833e81513d6001600160401b038160248401118184111715613df157505050505090565b8285019150815181811115613e095750505050505090565b843d8701016020828501011115613e235750505050505090565b613e3260208286010187613150565b509095945050505050565b60208082526028908201527f455243313135353a204552433131353552656365697665722072656a656374656040820152676420746f6b656e7360c01b606082015260800190565b6001600160a01b03868116825285166020820152604081018490526060810183905260a060808201819052600090613ebf908301846130a6565b97965050505050505056fea2646970667358221220b23bbe7072f92f5b0d5ac998b7797a12624f772413bc3bd8bcf9868e31376ff664736f6c63430008090033",
  "linkReferences": {},
  "deployedLinkReferences": {}
}