{
  "_format": "hh-sol-artifact-1",
  "contractName": "REITNFT",
  "sourceName": "contracts/REITNFT.sol",
  "abi": [
    {
      "anonymous": false,
      "inputs": [
        {
          "indexed": true,
          "internalType": "address",
          "name": "account",
          "type": "address"
        },
        {
          "indexed": true,
          "internalType": "address",
          "name": "operator",
          "type": "address"
        },
        {
          "indexed": false,
          "internalType": "bool",
          "name": "approved",
          "type": "bool"
        }
      ],
      "name": "ApprovalForAll",
      "type": "event"
    },
    {
      "anonymous": false,
      "inputs": [
        {
          "indexed": false,
          "internalType": "uint256",
          "name": "id",
          "type": "uint256"
        }
      ],
      "name": "Create",
      "type": "event"
    },
    {
      "anonymous": false,
      "inputs": [
        {
          "indexed": true,
          "internalType": "address",
          "name": "previousGovernor",
          "type": "address"
        },
        {
          "indexed": true,
          "internalType": "address",
          "name": "newGovernor",
          "type": "address"
        }
      ],
      "name": "GovernorshipTransferred",
      "type": "event"
    },
    {
      "anonymous": false,
      "inputs": [
        {
          "indexed": false,
          "internalType": "uint8",
          "name": "version",
          "type": "uint8"
        }
      ],
      "name": "Initialized",
      "type": "event"
    },
    {
      "anonymous": false,
      "inputs": [
        {
          "indexed": true,
          "internalType": "address",
          "name": "operator",
          "type": "address"
        },
        {
          "indexed": true,
          "internalType": "address",
          "name": "from",
          "type": "address"
        },
        {
          "indexed": true,
          "internalType": "address",
          "name": "to",
          "type": "address"
        },
        {
          "indexed": false,
          "internalType": "uint256[]",
          "name": "ids",
          "type": "uint256[]"
        },
        {
          "indexed": false,
          "internalType": "uint256[]",
          "name": "values",
          "type": "uint256[]"
        }
      ],
      "name": "TransferBatch",
      "type": "event"
    },
    {
      "anonymous": false,
      "inputs": [
        {
          "indexed": true,
          "internalType": "address",
          "name": "operator",
          "type": "address"
        },
        {
          "indexed": true,
          "internalType": "address",
          "name": "from",
          "type": "address"
        },
        {
          "indexed": true,
          "internalType": "address",
          "name": "to",
          "type": "address"
        },
        {
          "indexed": false,
          "internalType": "uint256",
          "name": "id",
          "type": "uint256"
        },
        {
          "indexed": false,
          "internalType": "uint256",
          "name": "value",
          "type": "uint256"
        }
      ],
      "name": "TransferSingle",
      "type": "event"
    },
    {
      "anonymous": false,
      "inputs": [
        {
          "indexed": false,
          "internalType": "string",
          "name": "value",
          "type": "string"
        },
        {
          "indexed": true,
          "internalType": "uint256",
          "name": "id",
          "type": "uint256"
        }
      ],
      "name": "URI",
      "type": "event"
    },
    {
      "inputs": [
        {
          "internalType": "address[]",
          "name": "accounts",
          "type": "address[]"
        }
      ],
      "name": "addManyToKYC",
      "outputs": [],
      "stateMutability": "nonpayable",
      "type": "function"
    },
    {
      "inputs": [
        {
          "internalType": "address",
          "name": "account",
          "type": "address"
        }
      ],
      "name": "addToKYC",
      "outputs": [],
      "stateMutability": "nonpayable",
      "type": "function"
    },
    {
      "inputs": [
        {
          "internalType": "address",
          "name": "account",
          "type": "address"
        },
        {
          "internalType": "uint256",
          "name": "id",
          "type": "uint256"
        }
      ],
      "name": "balanceOf",
      "outputs": [
        {
          "internalType": "uint256",
          "name": "",
          "type": "uint256"
        }
      ],
      "stateMutability": "view",
      "type": "function"
    },
    {
      "inputs": [
        {
          "internalType": "address[]",
          "name": "accounts",
          "type": "address[]"
        },
        {
          "internalType": "uint256[]",
          "name": "ids",
          "type": "uint256[]"
        }
      ],
      "name": "balanceOfBatch",
      "outputs": [
        {
          "internalType": "uint256[]",
          "name": "",
          "type": "uint256[]"
        }
      ],
      "stateMutability": "view",
      "type": "function"
    },
    {
      "inputs": [
        {
          "internalType": "address",
          "name": "_to",
          "type": "address"
        },
        {
          "internalType": "uint256[]",
          "name": "_ids",
          "type": "uint256[]"
        },
        {
          "internalType": "uint256[]",
          "name": "_quantities",
          "type": "uint256[]"
        },
        {
          "internalType": "bytes",
          "name": "_data",
          "type": "bytes"
        }
      ],
      "name": "batchMint",
      "outputs": [],
      "stateMutability": "nonpayable",
      "type": "function"
    },
    {
      "inputs": [
        {
          "internalType": "uint256",
          "name": "_id",
          "type": "uint256"
        }
      ],
      "name": "claimBenefit",
      "outputs": [],
      "stateMutability": "nonpayable",
      "type": "function"
    },
    {
      "inputs": [],
      "name": "contractURI",
      "outputs": [
        {
          "internalType": "string",
          "name": "",
          "type": "string"
        }
      ],
      "stateMutability": "view",
      "type": "function"
    },
    {
      "inputs": [
        {
          "internalType": "address",
          "name": "_initialOwner",
          "type": "address"
        },
        {
          "internalType": "uint256",
          "name": "_initialSupply",
          "type": "uint256"
        },
        {
          "internalType": "string",
          "name": "_uri",
          "type": "string"
        },
        {
          "internalType": "address",
          "name": "_fundingToken",
          "type": "address"
        },
        {
          "internalType": "bytes",
          "name": "_data",
          "type": "bytes"
        }
      ],
      "name": "createREIT",
      "outputs": [
        {
          "internalType": "uint256",
          "name": "",
          "type": "uint256"
        }
      ],
      "stateMutability": "nonpayable",
      "type": "function"
    },
    {
      "inputs": [
        {
          "internalType": "uint256",
          "name": "",
          "type": "uint256"
        }
      ],
      "name": "creators",
      "outputs": [
        {
          "internalType": "address",
          "name": "",
          "type": "address"
        }
      ],
      "stateMutability": "view",
      "type": "function"
    },
    {
      "inputs": [
        {
          "internalType": "uint256",
          "name": "",
          "type": "uint256"
        }
      ],
      "name": "dividendFunds",
      "outputs": [
        {
          "internalType": "uint256",
          "name": "",
          "type": "uint256"
        }
      ],
      "stateMutability": "view",
      "type": "function"
    },
    {
      "inputs": [
        {
          "internalType": "uint256",
          "name": "_id",
          "type": "uint256"
        }
      ],
      "name": "getIPOContract",
      "outputs": [
        {
          "internalType": "address",
          "name": "",
          "type": "address"
        }
      ],
      "stateMutability": "view",
      "type": "function"
    },
    {
      "inputs": [
        {
          "internalType": "uint256",
          "name": "_id",
          "type": "uint256"
        }
      ],
      "name": "getShareUnitPrice",
      "outputs": [
        {
          "internalType": "uint256",
          "name": "",
          "type": "uint256"
        }
      ],
      "stateMutability": "view",
      "type": "function"
    },
    {
      "inputs": [
        {
          "internalType": "uint256",
          "name": "_id",
          "type": "uint256"
        }
      ],
      "name": "getTotalBenefit",
      "outputs": [
        {
          "internalType": "uint256",
          "name": "",
          "type": "uint256"
        }
      ],
      "stateMutability": "view",
      "type": "function"
    },
    {
      "inputs": [
        {
          "internalType": "uint256",
          "name": "_id",
          "type": "uint256"
        },
        {
          "internalType": "uint256",
          "name": "index",
          "type": "uint256"
        }
      ],
      "name": "getYieldDividendAt",
      "outputs": [
        {
          "internalType": "uint256",
          "name": "",
          "type": "uint256"
        }
      ],
      "stateMutability": "view",
      "type": "function"
    },
    {
      "inputs": [],
      "name": "governor",
      "outputs": [
        {
          "internalType": "address",
          "name": "",
          "type": "address"
        }
      ],
      "stateMutability": "view",
      "type": "function"
    },
    {
      "inputs": [
        {
          "internalType": "string",
          "name": "_name",
          "type": "string"
        },
        {
          "internalType": "string",
          "name": "_symbol",
          "type": "string"
        },
        {
          "internalType": "string",
          "name": "_uri",
          "type": "string"
        }
      ],
      "name": "initialize",
      "outputs": [],
      "stateMutability": "nonpayable",
      "type": "function"
    },
    {
      "inputs": [
        {
          "internalType": "uint256",
          "name": "_id",
          "type": "uint256"
        },
        {
          "internalType": "uint256",
          "name": "ipoTime",
          "type": "uint256"
        },
        {
          "internalType": "uint256",
          "name": "ipoUnitPrice",
          "type": "uint256"
        },
        {
          "internalType": "uint256",
          "name": "liquidationTime",
          "type": "uint256"
        },
        {
          "internalType": "uint256",
          "name": "registerationTaxRate",
          "type": "uint256"
        }
      ],
      "name": "initiate",
      "outputs": [],
      "stateMutability": "nonpayable",
      "type": "function"
    },
    {
      "inputs": [
        {
          "internalType": "address",
          "name": "account",
          "type": "address"
        },
        {
          "internalType": "address",
          "name": "operator",
          "type": "address"
        }
      ],
      "name": "isApprovedForAll",
      "outputs": [
        {
          "internalType": "bool",
          "name": "",
          "type": "bool"
        }
      ],
      "stateMutability": "view",
      "type": "function"
    },
    {
      "inputs": [
        {
          "internalType": "uint256",
          "name": "_id",
          "type": "uint256"
        },
        {
          "internalType": "address",
          "name": "account",
          "type": "address"
        }
      ],
      "name": "isIPOContract",
      "outputs": [
        {
          "internalType": "bool",
          "name": "",
          "type": "bool"
        }
      ],
      "stateMutability": "view",
      "type": "function"
    },
    {
      "inputs": [
        {
          "internalType": "address",
          "name": "account",
          "type": "address"
        }
      ],
      "name": "isKYC",
      "outputs": [
        {
          "internalType": "bool",
          "name": "",
          "type": "bool"
        }
      ],
      "stateMutability": "view",
      "type": "function"
    },
    {
      "inputs": [
        {
          "internalType": "address",
          "name": "_to",
          "type": "address"
        },
        {
          "internalType": "uint256",
          "name": "_id",
          "type": "uint256"
        },
        {
          "internalType": "uint256",
          "name": "_quantity",
          "type": "uint256"
        },
        {
          "internalType": "bytes",
          "name": "_data",
          "type": "bytes"
        }
      ],
      "name": "mint",
      "outputs": [],
      "stateMutability": "nonpayable",
      "type": "function"
    },
    {
      "inputs": [],
      "name": "name",
      "outputs": [
        {
          "internalType": "string",
          "name": "",
          "type": "string"
        }
      ],
      "stateMutability": "view",
      "type": "function"
    },
    {
      "inputs": [
        {
          "internalType": "uint256",
          "name": "_id",
          "type": "uint256"
        },
        {
          "internalType": "uint256",
          "name": "amount",
          "type": "uint256"
        }
      ],
      "name": "payDividends",
      "outputs": [],
      "stateMutability": "nonpayable",
      "type": "function"
    },
    {
      "inputs": [
        {
          "internalType": "address",
          "name": "account",
          "type": "address"
        }
      ],
      "name": "removeKYC",
      "outputs": [],
      "stateMutability": "nonpayable",
      "type": "function"
    },
    {
      "inputs": [
        {
          "internalType": "address[]",
          "name": "accounts",
          "type": "address[]"
        }
      ],
      "name": "removeManyKYC",
      "outputs": [],
      "stateMutability": "nonpayable",
      "type": "function"
    },
    {
      "inputs": [],
      "name": "renounceGovernorship",
      "outputs": [],
      "stateMutability": "nonpayable",
      "type": "function"
    },
    {
      "inputs": [],
      "name": "revokeKYCAdmin",
      "outputs": [],
      "stateMutability": "nonpayable",
      "type": "function"
    },
    {
      "inputs": [
        {
          "internalType": "address",
          "name": "from",
          "type": "address"
        },
        {
          "internalType": "address",
          "name": "to",
          "type": "address"
        },
        {
          "internalType": "uint256[]",
          "name": "ids",
          "type": "uint256[]"
        },
        {
          "internalType": "uint256[]",
          "name": "amounts",
          "type": "uint256[]"
        },
        {
          "internalType": "bytes",
          "name": "data",
          "type": "bytes"
        }
      ],
      "name": "safeBatchTransferFrom",
      "outputs": [],
      "stateMutability": "nonpayable",
      "type": "function"
    },
    {
      "inputs": [
        {
          "internalType": "address",
          "name": "from",
          "type": "address"
        },
        {
          "internalType": "address",
          "name": "to",
          "type": "address"
        },
        {
          "internalType": "uint256",
          "name": "id",
          "type": "uint256"
        },
        {
          "internalType": "uint256",
          "name": "amount",
          "type": "uint256"
        },
        {
          "internalType": "bytes",
          "name": "data",
          "type": "bytes"
        }
      ],
      "name": "safeTransferFrom",
      "outputs": [],
      "stateMutability": "nonpayable",
      "type": "function"
    },
    {
      "inputs": [
        {
          "internalType": "address",
          "name": "operator",
          "type": "address"
        },
        {
          "internalType": "bool",
          "name": "approved",
          "type": "bool"
        }
      ],
      "name": "setApprovalForAll",
      "outputs": [],
      "stateMutability": "nonpayable",
      "type": "function"
    },
    {
      "inputs": [
        {
          "internalType": "string",
          "name": "_newBaseMetadataURI",
          "type": "string"
        }
      ],
      "name": "setBaseMetadataURI",
      "outputs": [],
      "stateMutability": "nonpayable",
      "type": "function"
    },
    {
      "inputs": [
        {
          "internalType": "string",
          "name": "_uri",
          "type": "string"
        }
      ],
      "name": "setContractURI",
      "outputs": [],
      "stateMutability": "nonpayable",
      "type": "function"
    },
    {
      "inputs": [
        {
          "internalType": "address",
          "name": "_to",
          "type": "address"
        },
        {
          "internalType": "uint256[]",
          "name": "_ids",
          "type": "uint256[]"
        }
      ],
      "name": "setCreator",
      "outputs": [],
      "stateMutability": "nonpayable",
      "type": "function"
    },
    {
      "inputs": [
        {
          "internalType": "uint256",
          "name": "_id",
          "type": "uint256"
        },
        {
          "internalType": "address",
          "name": "account",
          "type": "address"
        }
      ],
      "name": "setIPOContract",
      "outputs": [],
      "stateMutability": "nonpayable",
      "type": "function"
    },
    {
      "inputs": [
        {
          "internalType": "address",
          "name": "account",
          "type": "address"
        }
      ],
      "name": "setKYCAdmin",
      "outputs": [],
      "stateMutability": "nonpayable",
      "type": "function"
    },
    {
      "inputs": [
        {
          "internalType": "bytes4",
          "name": "interfaceId",
          "type": "bytes4"
        }
      ],
      "name": "supportsInterface",
      "outputs": [
        {
          "internalType": "bool",
          "name": "",
          "type": "bool"
        }
      ],
      "stateMutability": "view",
      "type": "function"
    },
    {
      "inputs": [],
      "name": "symbol",
      "outputs": [
        {
          "internalType": "string",
          "name": "",
          "type": "string"
        }
      ],
      "stateMutability": "view",
      "type": "function"
    },
    {
      "inputs": [
        {
          "internalType": "uint256",
          "name": "",
          "type": "uint256"
        }
      ],
      "name": "tokenMetadata",
      "outputs": [
        {
          "internalType": "uint256",
          "name": "ipoTime",
          "type": "uint256"
        },
        {
          "internalType": "uint256",
          "name": "ipoUnitPrice",
          "type": "uint256"
        },
        {
          "internalType": "uint256",
          "name": "liquidationTime",
          "type": "uint256"
        },
        {
          "internalType": "uint256",
          "name": "registerationTaxRate",
          "type": "uint256"
        }
      ],
      "stateMutability": "view",
      "type": "function"
    },
    {
      "inputs": [
        {
          "internalType": "uint256",
          "name": "",
          "type": "uint256"
        }
      ],
      "name": "tokenSupply",
      "outputs": [
        {
          "internalType": "uint256",
          "name": "",
          "type": "uint256"
        }
      ],
      "stateMutability": "view",
      "type": "function"
    },
    {
      "inputs": [
        {
          "internalType": "uint256",
          "name": "",
          "type": "uint256"
        }
      ],
      "name": "tokenUri",
      "outputs": [
        {
          "internalType": "string",
          "name": "",
          "type": "string"
        }
      ],
      "stateMutability": "view",
      "type": "function"
    },
    {
      "inputs": [
        {
          "internalType": "uint256",
          "name": "",
          "type": "uint256"
        }
      ],
      "name": "tokenYieldData",
      "outputs": [
        {
          "internalType": "uint256",
          "name": "liquidationExtension",
          "type": "uint256"
        },
        {
          "internalType": "uint256",
          "name": "yieldDividendIndex",
          "type": "uint256"
        }
      ],
      "stateMutability": "view",
      "type": "function"
    },
    {
      "inputs": [
        {
          "internalType": "uint256",
          "name": "_id",
          "type": "uint256"
        }
      ],
      "name": "totalSupply",
      "outputs": [
        {
          "internalType": "uint256",
          "name": "",
          "type": "uint256"
        }
      ],
      "stateMutability": "view",
      "type": "function"
    },
    {
      "inputs": [
        {
          "internalType": "address",
          "name": "newGovernor",
          "type": "address"
        }
      ],
      "name": "transferGovernorship",
      "outputs": [],
      "stateMutability": "nonpayable",
      "type": "function"
    },
    {
      "inputs": [
        {
          "internalType": "uint256",
          "name": "_id",
          "type": "uint256"
        },
        {
          "internalType": "uint256",
          "name": "dividend",
          "type": "uint256"
        },
        {
          "internalType": "uint256",
          "name": "index",
          "type": "uint256"
        }
      ],
      "name": "unlockDividends",
      "outputs": [],
      "stateMutability": "nonpayable",
      "type": "function"
    },
    {
      "inputs": [
        {
          "internalType": "uint256",
          "name": "_id",
          "type": "uint256"
        }
      ],
      "name": "uri",
      "outputs": [
        {
          "internalType": "string",
          "name": "",
          "type": "string"
        }
      ],
      "stateMutability": "view",
      "type": "function"
    }
  ],
  "bytecode": "0x608060405234801561001057600080fd5b5061408c806100206000396000f3fe608060405234801561001057600080fd5b506004361061027e5760003560e01c8063938e3d7b1161015c578063bd85b039116100ce578063e8a3d48511610087578063e8a3d48514610652578063e985e9c51461065a578063efe7744f14610696578063f242432a146106b7578063f6ee8fcc146106ca578063f720a8c5146106dd57600080fd5b8063bd85b03914610593578063cd53d08e146105b3578063d1c901a4146105dc578063d2a6b51a14610619578063d64e83d71461062c578063d98d9eaf1461063f57600080fd5b8063a6487c5311610120578063a6487c5314610510578063abfebaa414610523578063b1fd691014610536578063b48ab8b61461055a578063b6aa515b1461056d578063bb8973031461058057600080fd5b8063938e3d7b146104a557806395d89b41146104b85780639944f518146104c05780639b166e2f146104d3578063a22cb465146104fd57600080fd5b8063409f8c48116101f55780636914db60116101b95780636914db60146103fb578063731133e91461045157806378c4acb8146104645780637e518ec81461047757806381c0c2631461048a57806393860ead1461049257600080fd5b8063409f8c481461039a5780634e1273f4146103ad57806358cc49a5146103cd578063590a5ce0146103e057806359d1a4b1146103f357600080fd5b80631675f455116102475780631675f4551461031957806322b6ccfe1461032c578063243f6b58146103415780632693ebf2146103545780632eb2c2d6146103745780633f4280c41461038757600080fd5b8062fdd58e1461028357806301ffc9a7146102a957806306fdde03146102cc5780630c340a24146102e15780630e89341c14610306575b600080fd5b6102966102913660046131a2565b6106f0565b6040519081526020015b60405180910390f35b6102bc6102b73660046131e2565b610705565b60405190151581526020016102a0565b6102d4610755565b6040516102a09190613253565b6097546001600160a01b03165b6040516001600160a01b0390911681526020016102a0565b6102d4610314366004613266565b6107e4565b6102d4610327366004613266565b610886565b61033f61033a36600461327f565b61089f565b005b61033f61034f36600461327f565b6108f8565b610296610362366004613266565b60fd6020526000908152604090205481565b61033f6103823660046133d8565b610945565b61033f610395366004613481565b610b68565b61033f6103a836600461327f565b610c10565b6103c06103bb3660046134ad565b610c9c565b6040516102a091906135b2565b61033f6103db366004613266565b610dc5565b61033f6103ee3660046135c5565b6111f4565b61033f611318565b610431610409366004613266565b6101356020526000908152604090208054600182015460028301546003909301549192909184565b6040805194855260208501939093529183015260608201526080016102a0565b61033f61045f3660046135e7565b61134e565b61033f610472366004613647565b6113c4565b61033f6104853660046136bb565b611467565b61033f61149a565b6102966104a03660046135c5565b6114ce565b61033f6104b33660046136bb565b611505565b6102d4611546565b6102bc6104ce36600461327f565b611554565b6102ee6104e1366004613266565b600090815261013a60205260409020546001600160a01b031690565b61033f61050b3660046136fd565b611589565b61033f61051e366004613734565b611594565b61033f6105313660046137bb565b611617565b610296610544366004613266565b6000908152610135602052604090206001015490565b61033f6105683660046137f6565b61169a565b61033f61057b36600461327f565b611829565b61029661058e3660046138ca565b6118c7565b6102966105a1366004613266565b600090815260fd602052604090205490565b6102ee6105c1366004613266565b60fc602052600090815260409020546001600160a01b031681565b6106046105ea366004613266565b610136602052600090815260409020805460029091015482565b604080519283526020830191909152016102a0565b61033f610627366004613967565b611ae8565b61033f61063a366004613647565b611c22565b6102bc61064d3660046139aa565b611cc0565b6102d4611ce2565b6102bc6106683660046139d6565b6001600160a01b03918216600090815260666020908152604080832093909416825291909152205460ff1690565b6102966106a4366004613266565b6101386020526000908152604090205481565b61033f6106c5366004613a00565b611d74565b61033f6106d83660046139aa565b611f2b565b6102966106eb366004613266565b611f93565b60006106fc8383612032565b90505b92915050565b60006001600160e01b03198216636cdb3d1360e11b148061073657506001600160e01b031982166303a24d0760e21b145b806106ff57506301ffc9a760e01b6001600160e01b03198316146106ff565b610100805461076390613a64565b80601f016020809104026020016040519081016040528092919081815260200182805461078f90613a64565b80156107dc5780601f106107b1576101008083540402835291602001916107dc565b820191906000526020600020905b8154815290600101906020018083116107bf57829003601f168201915b505050505081565b600081815260fe6020526040902080546060919061080190613a64565b80601f016020809104026020016040519081016040528092919081815260200182805461082d90613a64565b801561087a5780601f1061084f5761010080835404028352916020019161087a565b820191906000526020600020905b81548152906001019060200180831161085d57829003601f168201915b50505050509050919050565b60fe602052600090815260409020805461076390613a64565b610103546001600160a01b031633146108d35760405162461bcd60e51b81526004016108ca90613a99565b60405180910390fd5b6001600160a01b0316600090815261010260205260409020805460ff19166001179055565b610103546001600160a01b031633146109235760405162461bcd60e51b81526004016108ca90613a99565b6001600160a01b0316600090815261010260205260409020805460ff19169055565b6001600160a01b03851633148061096157506109618533610668565b6109c85760405162461bcd60e51b815260206004820152603260248201527f455243313135353a207472616e736665722063616c6c6572206973206e6f74206044820152711bdddb995c881b9bdc88185c1c1c9bdd995960721b60648201526084016108ca565b60005b8351811015610b535760008482815181106109e8576109e8613adb565b602002602001015190506000848381518110610a0657610a06613adb565b60200260200101519050610a1a8289611cc0565b158015610a2e5750610a2c8288611cc0565b155b15610b36576000610a3f83836120c6565b60008481526101396020526040908190205490516323b872dd60e01b81526001600160a01b038c811660048301523060248301526044820184905292935091169081906323b872dd90606401602060405180830381600087803b158015610aa557600080fd5b505af1158015610ab9573d6000803e3d6000fd5b505050506040513d601f19601f82011682018060405250810190610add9190613af1565b610b295760405162461bcd60e51b815260206004820152601a60248201527f524549544e46543a20436f756c64206e6f74207061792074617800000000000060448201526064016108ca565b610b338a85612135565b50505b610b408783612135565b505080610b4c90613b24565b90506109cb565b50610b6185858585856122aa565b5050505050565b600083815260fc602052604090205483906001600160a01b03163314610ba05760405162461bcd60e51b81526004016108ca90613b3f565b600084815261013660205260409020600101805484919084908110610bc757610bc7613adb565b9060005260206000200181905550816101366000868152602001908152602001600020600201541015610c0a576000848152610136602052604090206002018290555b50505050565b6097546001600160a01b03163314610c3a5760405162461bcd60e51b81526004016108ca90613b90565b6001600160a01b038116610c905760405162461bcd60e51b815260206004820181905260248201527f4b59432041646d696e2063616e6e6f74206265207a65726f206164647265737360448201526064016108ca565b610c9981612449565b50565b60608151835114610d015760405162461bcd60e51b815260206004820152602960248201527f455243313135353a206163636f756e747320616e6420696473206c656e677468604482015268040dad2e6dac2e8c6d60bb1b60648201526084016108ca565b600083516001600160401b03811115610d1c57610d1c61329a565b604051908082528060200260200182016040528015610d45578160200160208202803683370190505b50905060005b8451811015610dbd57610d90858281518110610d6957610d69613adb565b6020026020010151858381518110610d8357610d83613adb565b60200260200101516106f0565b828281518110610da257610da2613adb565b6020908102919091010152610db681613b24565b9050610d4b565b509392505050565b336000908152610102602052604090205460ff16610e135760405162461bcd60e51b815260206004820152600b60248201526a4e6f7420796574204b594360a81b60448201526064016108ca565b806000610e21335b836106f0565b11610e3e5760405162461bcd60e51b81526004016108ca90613bd6565b600260c9541415610e915760405162461bcd60e51b815260206004820152601f60248201527f5265656e7472616e637947756172643a207265656e7472616e742063616c6c0060448201526064016108ca565b600260c95560008281526101376020908152604080832033845290915290205460ff16610ef7576000828152610137602090815260408083203380855292528220805460016101009093026001600160a81b031990911617821781556002810183905501555b600082815261013760209081526040808320338085529083528184208251608081018452815460ff81161515825261010090046001600160a01b03169481019490945260018101549284019290925260029091015460608301819052919291610f6b91610f65905b8761246c565b906125dc565b905060008111610fbd5760405162461bcd60e51b815260206004820181905260248201527f524549544e46543a206e6f206d6f726520636c61696d61626c65207969656c6460448201526064016108ca565b600084815261013860205260409020548181101561102d5760405162461bcd60e51b815260206004820152602760248201527f524549544e46543a206e656564206d6f72652066756e64696e67732066726f6d6044820152661034b9b9bab2b960c91b60648201526084016108ca565b600085815261013660209081526040808320815160608101835281548152600182018054845181870281018701909552808552919492938584019390929083018282801561109a57602002820191906000526020600020905b815481526020019060010190808311611086575b505050918352505060029190910154602091820152600088815261013890915260409020549091506110cc90846125e8565b600087815261013860209081526040808320939093556101378152828220338084529082528383206002810184905585850151600190910155898352610139825283832054845163a9059cbb60e01b815260048101929092526024820188905293516001600160a01b0390941693849363a9059cbb93604480850194919392918390030190829087803b15801561116257600080fd5b505af1158015611176573d6000803e3d6000fd5b505050506040513d601f19601f8201168201806040525081019061119a9190613af1565b6111e65760405162461bcd60e51b815260206004820181905260248201527f524549544e46543a20436f756c64206e6f74207472616e736665722066756e6460448201526064016108ca565b5050600160c9555050505050565b600082815261013960205260409020546001600160a01b0316806323b872dd336040516001600160e01b031960e084901b1681526001600160a01b03909116600482015230602482015260448101859052606401602060405180830381600087803b15801561126257600080fd5b505af1158015611276573d6000803e3d6000fd5b505050506040513d601f19601f8201168201806040525081019061129a9190613af1565b6112e65760405162461bcd60e51b815260206004820181905260248201527f524549544e46543a20436f756c64206e6f74207472616e736665722066756e6460448201526064016108ca565b6000838152610138602052604090205461130090836125dc565b60009384526101386020526040909320929092555050565b6097546001600160a01b031633146113425760405162461bcd60e51b81526004016108ca90613b90565b61134c6000612449565b565b600083815260fc602052604090205483906001600160a01b031633146113865760405162461bcd60e51b81526004016108ca90613b3f565b611392858585856125f4565b600084815260fd60205260409020546113ab90846125dc565b600094855260fd60205260409094209390935550505050565b610103546001600160a01b031633146113ef5760405162461bcd60e51b81526004016108ca90613a99565b60005b81811015611462576001610102600085858581811061141357611413613adb565b9050602002016020810190611428919061327f565b6001600160a01b031681526020810191909152604001600020805460ff19169115159190911790558061145a81613b24565b9150506113f2565b505050565b6097546001600160a01b031633146114915760405162461bcd60e51b81526004016108ca90613b90565b610c99816126d0565b6097546001600160a01b031633146114c45760405162461bcd60e51b81526004016108ca90613b90565b61134c60006126e3565b6000828152610136602052604081206001018054839081106114f2576114f2613adb565b9060005260206000200154905092915050565b6097546001600160a01b0316331461152f5760405162461bcd60e51b81526004016108ca90613b90565b80516115429060ff906020840190613044565b5050565b610101805461076390613a64565b60006001600160a01b03821661156957600080fd5b506001600160a01b03166000908152610102602052604090205460ff1690565b611542338383612735565b60006115a06001612816565b905080156115b8576000805461ff0019166101001790555b6115c38484846128a3565b6115cb612965565b8015610c0a576000805461ff0019169055604051600181527f7f26b83ff96e1f2b6a682f133852f6798a09c465da95921460cefb3847402498906020015b60405180910390a150505050565b600085815260fc602052604090205485906001600160a01b0316331461164f5760405162461bcd60e51b81526004016108ca90613b3f565b50604080516080810182529485526020808601948552858201938452606086019283526000968752610135905290942092518355905160018301555160028201559051600390910155565b81518351146117045760405162461bcd60e51b815260206004820152603060248201527f455243313135354d696e744275726e2362617463684d696e743a20494e56414c60448201526f09288be82a4a482b2a6be988a9c8ea8960831b60648201526084016108ca565b60005b835181101561181c57600084828151811061172457611724613adb565b602090810291909101810151600081815260fc9092526040909120549091506001600160a01b031633146117b25760405162461bcd60e51b815260206004820152602f60248201527f455243313135355472616461626c652362617463684d696e743a204f4e4c595f60448201526e10d491505513d497d0531313d5d151608a1b60648201526084016108ca565b60008483815181106117c6576117c6613adb565b602002602001015190506117f68160fd6000858152602001908152602001600020546125dc90919063ffffffff16565b600092835260fd602052604090922091909155508061181481613b24565b915050611707565b50610c0a84848484612994565b6097546001600160a01b031633146118535760405162461bcd60e51b81526004016108ca90613b90565b6001600160a01b0381166118be5760405162461bcd60e51b815260206004820152602c60248201527f476f7665726e61626c653a206e657720676f7665726e6f72206973207468652060448201526b7a65726f206164647265737360a01b60648201526084016108ca565b610c99816126e3565b6097546000906001600160a01b031633146118f45760405162461bcd60e51b81526004016108ca90613b90565b60006118fe612ae0565b9050611908612af6565b6119128982612b0d565b851561196d57807f6bb7ff708619ba0610cba295a58592e0451dee2622938c8755667688daf3529b888860405161194a929190613c2b565b60405180910390a2600081815260fe6020526040902061196b9088886130c8565b505b60008181526101396020908152604080832080546001600160a01b0319166001600160a01b038a1617905580516080810182528381528083018481528183018581526060808401878152888852610135875285882094518555925160018501559051600284015590516003909201919091558151908101825292835280516078808252610f208201909252838301929091908201610f0080368337505050815260006020918201819052838152610136825260409020825181558282015180519192611a419260018501929091019061313c565b5060408201518160020155905050611a9189828a87878080601f0160208091040260200160405190810160405280939291908181526020018383808284376000920191909152506125f492505050565b600081815260fd602052604090819020899055517f07eac9a0695a188fe9d6fd680bcbbbe39041fb114d5d7ac11252401391f7930790611ad49083815260200190565b60405180910390a198975050505050505050565b6001600160a01b038216611b525760405162461bcd60e51b815260206004820152602b60248201527f455243313135355472616461626c652373657443726561746f723a20494e564160448201526a4c49445f4144445245535360a81b60648201526084016108ca565b60005b8151811015611462576000828281518110611b7257611b72613adb565b60200260200101519050611b833390565b600082815260fc60205260409020546001600160a01b03908116911614611c055760405162461bcd60e51b815260206004820152603060248201527f455243313135355472616461626c652373657443726561746f723a204f4e4c5960448201526f17d0d491505513d497d0531313d5d15160821b60648201526084016108ca565b611c0f8482612b0d565b5080611c1a81613b24565b915050611b55565b610103546001600160a01b03163314611c4d5760405162461bcd60e51b81526004016108ca90613a99565b60005b818110156114625760006101026000858585818110611c7157611c71613adb565b9050602002016020810190611c86919061327f565b6001600160a01b031681526020810191909152604001600020805460ff191691151591909117905580611cb881613b24565b915050611c50565b600091825261013a6020526040909120546001600160a01b0391821691161490565b606060ff8054611cf190613a64565b80601f0160208091040260200160405190810160405280929190818152602001828054611d1d90613a64565b8015611d6a5780601f10611d3f57610100808354040283529160200191611d6a565b820191906000526020600020905b815481529060010190602001808311611d4d57829003601f168201915b5050505050905090565b6001600160a01b038516331480611d905750611d908533610668565b611dee5760405162461bcd60e51b815260206004820152602960248201527f455243313135353a2063616c6c6572206973206e6f74206f776e6572206e6f7260448201526808185c1c1c9bdd995960ba1b60648201526084016108ca565b611df88386611cc0565b158015611e0c5750611e0a8385611cc0565b155b15611f14576000611e1d84846120c6565b60008581526101396020526040908190205490516323b872dd60e01b81526001600160a01b0389811660048301523060248301526044820184905292935091169081906323b872dd90606401602060405180830381600087803b158015611e8357600080fd5b505af1158015611e97573d6000803e3d6000fd5b505050506040513d601f19601f82011682018060405250810190611ebb9190613af1565b611f075760405162461bcd60e51b815260206004820152601a60248201527f524549544e46543a20436f756c64206e6f74207061792074617800000000000060448201526064016108ca565b611f118786612135565b50505b611f1e8484612135565b610b618585858585612b3b565b600082815260fc602052604090205482906001600160a01b03163314611f635760405162461bcd60e51b81526004016108ca90613b3f565b50600091825261013a602052604090912080546001600160a01b0319166001600160a01b03909216919091179055565b60008181611fa033610e1b565b11611fbd5760405162461bcd60e51b81526004016108ca90613bd6565b60008381526101376020908152604080832033808552908352928190208151608081018352815460ff81161515825261010090046001600160a01b031693810193909352600181015491830191909152600201546060820181905290916120289190610f6590610f5f565b9250505b50919050565b60006001600160a01b03831661209e5760405162461bcd60e51b815260206004820152602b60248201527f455243313135353a2062616c616e636520717565727920666f7220746865207a60448201526a65726f206164647265737360a81b60648201526084016108ca565b5060009081526065602090815260408083206001600160a01b03949094168352929052205490565b60008281526101356020908152604080832081516080810183528154815260018201549381018490526002820154928101929092526003015460608201819052909161212d916305f5e1009161212791906121219088612c69565b90612c69565b90612c75565b949350505050565b6000818152610137602090815260408083206001600160a01b038616845290915290205460ff166121ab576000818152610137602090815260408083206001600160a01b03861680855292528220805460016001600160a81b031990911661010090930292909217821781556002810183905501555b60006121b7838361246c565b9050801561146257600082815261013660209081526040808320815160608101835281548152600182018054845181870281018701909552808552919492938584019390929083018282801561222c57602002820191906000526020600020905b815481526020019060010190808311612218575b50505091835250506002918201546020918201526000868152610137825260408082206001600160a01b038a16835290925220015490915061226e90836125dc565b6000938452610137602090815260408086206001600160a01b039790971686529590529284902060028101939093559092015160019091015550565b81518351146122cb5760405162461bcd60e51b81526004016108ca90613c5a565b6001600160a01b0384166122f15760405162461bcd60e51b81526004016108ca90613ca2565b3360005b84518110156123db57600085828151811061231257612312613adb565b60200260200101519050600085838151811061233057612330613adb565b60209081029190910181015160008481526065835260408082206001600160a01b038e1683529093529190912054909150818110156123815760405162461bcd60e51b81526004016108ca90613ce7565b60008381526065602090815260408083206001600160a01b038e8116855292528083208585039055908b168252812080548492906123c0908490613d31565b92505081905550505050806123d490613b24565b90506122f5565b50846001600160a01b0316866001600160a01b0316826001600160a01b03167f4a39dc06d4c0dbc64b70af90fd698a233a518aa5d07e595d983b8c0526c8f7fb878760405161242b929190613d49565b60405180910390a4612441818787878787612c81565b505050505050565b61010380546001600160a01b0319166001600160a01b0392909216919091179055565b6000818152610137602090815260408083206001600160a01b0380871685529083528184208251608081018452815460ff811615158083526101009091049093169481019490945260018101549284019290925260029091015460608301526124d95760009150506106ff565b600083815261013660209081526040808320815160608101835281548152600182018054845181870281018701909552808552919492938584019390929083018282801561254657602002820191906000526020600020905b815481526020019060010190808311612532575b505050505081526020016002820154815250509050600061256786866106f0565b60408401519091506000905b83604001518110156125d15760006125b1848660200151848151811061259b5761259b613adb565b6020026020010151612c6990919063ffffffff16565b90506125bd83826125dc565b925050806125ca90613b24565b9050612573565b509695505050505050565b60006106fc8284613d31565b60006106fc8284613d77565b6001600160a01b03841661261a5760405162461bcd60e51b81526004016108ca90613d8e565b33600061262685612dec565b9050600061263385612dec565b905060008681526065602090815260408083206001600160a01b038b16845290915281208054879290612667908490613d31565b909155505060408051878152602081018790526001600160a01b03808a1692600092918716917fc3d58168c5ae7397731d063d5bbf3d657854427343f4c083240f7aacaa2d0f62910160405180910390a46126c783600089898989612e37565b50505050505050565b8051611542906067906020840190613044565b609780546001600160a01b038381166001600160a01b0319831681179093556040519116919082907fc7c0c772add429241571afb3805861fb3cfa2af374534088b76cdb4325a87e9a90600090a35050565b816001600160a01b0316836001600160a01b031614156127a95760405162461bcd60e51b815260206004820152602960248201527f455243313135353a2073657474696e6720617070726f76616c20737461747573604482015268103337b91039b2b63360b91b60648201526084016108ca565b6001600160a01b03838116600081815260666020908152604080832094871680845294825291829020805460ff191686151590811790915591519182527f17307eab39ab6107e8899845ad3d59bd9653f200f220920489ca2b5937696c31910160405180910390a3505050565b60008054610100900460ff161561285d578160ff1660011480156128395750303b155b6128555760405162461bcd60e51b81526004016108ca90613dcf565b506000919050565b60005460ff8084169116106128845760405162461bcd60e51b81526004016108ca90613dcf565b506000805460ff191660ff92909216919091179055600190565b919050565b60006128af6001612816565b905080156128c7576000805461ff0019166101001790555b6128d082612f01565b6128d8612f31565b6128e0612f60565b83516128f490610100906020870190613044565b50825161290990610101906020860190613044565b50600060fb5581516129229060ff906020850190613044565b508015610c0a576000805461ff0019169055604051600181527f7f26b83ff96e1f2b6a682f133852f6798a09c465da95921460cefb384740249890602001611609565b600054610100900460ff1661298c5760405162461bcd60e51b81526004016108ca90613e1d565b61134c612f8f565b6001600160a01b0384166129ba5760405162461bcd60e51b81526004016108ca90613d8e565b81518351146129db5760405162461bcd60e51b81526004016108ca90613c5a565b3360005b8451811015612a78578381815181106129fa576129fa613adb565b602002602001015160656000878481518110612a1857612a18613adb565b602002602001015181526020019081526020016000206000886001600160a01b03166001600160a01b031681526020019081526020016000206000828254612a609190613d31565b90915550819050612a7081613b24565b9150506129df565b50846001600160a01b031660006001600160a01b0316826001600160a01b03167f4a39dc06d4c0dbc64b70af90fd698a233a518aa5d07e595d983b8c0526c8f7fb8787604051612ac9929190613d49565b60405180910390a4610b6181600087878787612c81565b60fb54600090612af19060016125dc565b905090565b60fb8054906000612b0683613b24565b9190505550565b600090815260fc6020526040902080546001600160a01b0319166001600160a01b0392909216919091179055565b6001600160a01b038416612b615760405162461bcd60e51b81526004016108ca90613ca2565b336000612b6d85612dec565b90506000612b7a85612dec565b905060008681526065602090815260408083206001600160a01b038c16845290915290205485811015612bbf5760405162461bcd60e51b81526004016108ca90613ce7565b60008781526065602090815260408083206001600160a01b038d8116855292528083208985039055908a16825281208054889290612bfe908490613d31565b909155505060408051888152602081018890526001600160a01b03808b16928c821692918816917fc3d58168c5ae7397731d063d5bbf3d657854427343f4c083240f7aacaa2d0f62910160405180910390a4612c5e848a8a8a8a8a612e37565b505050505050505050565b60006106fc8284613e68565b60006106fc8284613e87565b6001600160a01b0384163b156124415760405163bc197c8160e01b81526001600160a01b0385169063bc197c8190612cc59089908990889088908890600401613ea9565b602060405180830381600087803b158015612cdf57600080fd5b505af1925050508015612d0f575060408051601f3d908101601f19168201909252612d0c91810190613f07565b60015b612dbc57612d1b613f24565b806308c379a01415612d555750612d30613f40565b80612d3b5750612d57565b8060405162461bcd60e51b81526004016108ca9190613253565b505b60405162461bcd60e51b815260206004820152603460248201527f455243313135353a207472616e7366657220746f206e6f6e20455243313135356044820152732932b1b2b4bb32b91034b6b83632b6b2b73a32b960611b60648201526084016108ca565b6001600160e01b0319811663bc197c8160e01b146126c75760405162461bcd60e51b81526004016108ca90613fc9565b60408051600180825281830190925260609160009190602080830190803683370190505090508281600081518110612e2657612e26613adb565b602090810291909101015292915050565b6001600160a01b0384163b156124415760405163f23a6e6160e01b81526001600160a01b0385169063f23a6e6190612e7b9089908990889088908890600401614011565b602060405180830381600087803b158015612e9557600080fd5b505af1925050508015612ec5575060408051601f3d908101601f19168201909252612ec291810190613f07565b60015b612ed157612d1b613f24565b6001600160e01b0319811663f23a6e6160e01b146126c75760405162461bcd60e51b81526004016108ca90613fc9565b600054610100900460ff16612f285760405162461bcd60e51b81526004016108ca90613e1d565b610c9981612fbf565b600054610100900460ff16612f585760405162461bcd60e51b81526004016108ca90613e1d565b61134c612fe6565b600054610100900460ff16612f875760405162461bcd60e51b81526004016108ca90613e1d565b61134c613016565b600054610100900460ff16612fb65760405162461bcd60e51b81526004016108ca90613e1d565b61134c33612449565b600054610100900460ff166114915760405162461bcd60e51b81526004016108ca90613e1d565b600054610100900460ff1661300d5760405162461bcd60e51b81526004016108ca90613e1d565b61134c336126e3565b600054610100900460ff1661303d5760405162461bcd60e51b81526004016108ca90613e1d565b600160c955565b82805461305090613a64565b90600052602060002090601f01602090048101928261307257600085556130b8565b82601f1061308b57805160ff19168380011785556130b8565b828001600101855582156130b8579182015b828111156130b857825182559160200191906001019061309d565b506130c4929150613176565b5090565b8280546130d490613a64565b90600052602060002090601f0160209004810192826130f657600085556130b8565b82601f1061310f5782800160ff198235161785556130b8565b828001600101855582156130b8579182015b828111156130b8578235825591602001919060010190613121565b8280548282559060005260206000209081019282156130b857916020028201828111156130b857825182559160200191906001019061309d565b5b808211156130c45760008155600101613177565b80356001600160a01b038116811461289e57600080fd5b600080604083850312156131b557600080fd5b6131be8361318b565b946020939093013593505050565b6001600160e01b031981168114610c9957600080fd5b6000602082840312156131f457600080fd5b81356131ff816131cc565b9392505050565b6000815180845260005b8181101561322c57602081850181015186830182015201613210565b8181111561323e576000602083870101525b50601f01601f19169290920160200192915050565b6020815260006106fc6020830184613206565b60006020828403121561327857600080fd5b5035919050565b60006020828403121561329157600080fd5b6106fc8261318b565b634e487b7160e01b600052604160045260246000fd5b601f8201601f191681016001600160401b03811182821017156132d5576132d561329a565b6040525050565b60006001600160401b038211156132f5576132f561329a565b5060051b60200190565b600082601f83011261331057600080fd5b8135602061331d826132dc565b60405161332a82826132b0565b83815260059390931b850182019282810191508684111561334a57600080fd5b8286015b848110156125d1578035835291830191830161334e565b600082601f83011261337657600080fd5b81356001600160401b0381111561338f5761338f61329a565b6040516133a6601f8301601f1916602001826132b0565b8181528460208386010111156133bb57600080fd5b816020850160208301376000918101602001919091529392505050565b600080600080600060a086880312156133f057600080fd5b6133f98661318b565b94506134076020870161318b565b935060408601356001600160401b038082111561342357600080fd5b61342f89838a016132ff565b9450606088013591508082111561344557600080fd5b61345189838a016132ff565b9350608088013591508082111561346757600080fd5b5061347488828901613365565b9150509295509295909350565b60008060006060848603121561349657600080fd5b505081359360208301359350604090920135919050565b600080604083850312156134c057600080fd5b82356001600160401b03808211156134d757600080fd5b818501915085601f8301126134eb57600080fd5b813560206134f8826132dc565b60405161350582826132b0565b83815260059390931b850182019282810191508984111561352557600080fd5b948201945b8386101561354a5761353b8661318b565b8252948201949082019061352a565b9650508601359250508082111561356057600080fd5b5061356d858286016132ff565b9150509250929050565b600081518084526020808501945080840160005b838110156135a75781518752958201959082019060010161358b565b509495945050505050565b6020815260006106fc6020830184613577565b600080604083850312156135d857600080fd5b50508035926020909101359150565b600080600080608085870312156135fd57600080fd5b6136068561318b565b9350602085013592506040850135915060608501356001600160401b0381111561362f57600080fd5b61363b87828801613365565b91505092959194509250565b6000806020838503121561365a57600080fd5b82356001600160401b038082111561367157600080fd5b818501915085601f83011261368557600080fd5b81358181111561369457600080fd5b8660208260051b85010111156136a957600080fd5b60209290920196919550909350505050565b6000602082840312156136cd57600080fd5b81356001600160401b038111156136e357600080fd5b61212d84828501613365565b8015158114610c9957600080fd5b6000806040838503121561371057600080fd5b6137198361318b565b91506020830135613729816136ef565b809150509250929050565b60008060006060848603121561374957600080fd5b83356001600160401b038082111561376057600080fd5b61376c87838801613365565b9450602086013591508082111561378257600080fd5b61378e87838801613365565b935060408601359150808211156137a457600080fd5b506137b186828701613365565b9150509250925092565b600080600080600060a086880312156137d357600080fd5b505083359560208501359550604085013594606081013594506080013592509050565b6000806000806080858703121561380c57600080fd5b6138158561318b565b935060208501356001600160401b038082111561383157600080fd5b61383d888389016132ff565b9450604087013591508082111561385357600080fd5b61385f888389016132ff565b9350606087013591508082111561387557600080fd5b5061363b87828801613365565b60008083601f84011261389457600080fd5b5081356001600160401b038111156138ab57600080fd5b6020830191508360208285010111156138c357600080fd5b9250929050565b600080600080600080600060a0888a0312156138e557600080fd5b6138ee8861318b565b96506020880135955060408801356001600160401b038082111561391157600080fd5b61391d8b838c01613882565b909750955085915061393160608b0161318b565b945060808a013591508082111561394757600080fd5b506139548a828b01613882565b989b979a50959850939692959293505050565b6000806040838503121561397a57600080fd5b6139838361318b565b915060208301356001600160401b0381111561399e57600080fd5b61356d858286016132ff565b600080604083850312156139bd57600080fd5b823591506139cd6020840161318b565b90509250929050565b600080604083850312156139e957600080fd5b6139f28361318b565b91506139cd6020840161318b565b600080600080600060a08688031215613a1857600080fd5b613a218661318b565b9450613a2f6020870161318b565b9350604086013592506060860135915060808601356001600160401b03811115613a5857600080fd5b61347488828901613365565b600181811c90821680613a7857607f821691505b6020821081141561202c57634e487b7160e01b600052602260045260246000fd5b60208082526022908201527f4b59434163636573733a2063616c6c6572206973206e6f74207468652061646d60408201526134b760f11b606082015260800190565b634e487b7160e01b600052603260045260246000fd5b600060208284031215613b0357600080fd5b81516131ff816136ef565b634e487b7160e01b600052601160045260246000fd5b6000600019821415613b3857613b38613b0e565b5060010190565b60208082526031908201527f455243313135355472616461626c652363726561746f724f6e6c793a204f4e4c6040820152701657d0d491505513d497d0531313d5d151607a1b606082015260800190565b60208082526026908201527f476f7665726e61626c653a2063616c6c6572206973206e6f742074686520676f6040820152653b32b93737b960d11b606082015260800190565b60208082526035908201527f455243313135355472616461626c65237368617265486f6c646572734f6e6c796040820152740e8813d3931657d3d5d3915494d7d0531313d5d151605a1b606082015260800190565b60208152816020820152818360408301376000818301604090810191909152601f909201601f19160101919050565b60208082526028908201527f455243313135353a2069647320616e6420616d6f756e7473206c656e677468206040820152670dad2e6dac2e8c6d60c31b606082015260800190565b60208082526025908201527f455243313135353a207472616e7366657220746f20746865207a65726f206164604082015264647265737360d81b606082015260800190565b6020808252602a908201527f455243313135353a20696e73756666696369656e742062616c616e636520666f60408201526939103a3930b739b332b960b11b606082015260800190565b60008219821115613d4457613d44613b0e565b500190565b604081526000613d5c6040830185613577565b8281036020840152613d6e8185613577565b95945050505050565b600082821015613d8957613d89613b0e565b500390565b60208082526021908201527f455243313135353a206d696e7420746f20746865207a65726f206164647265736040820152607360f81b606082015260800190565b6020808252602e908201527f496e697469616c697a61626c653a20636f6e747261637420697320616c72656160408201526d191e481a5b9a5d1a585b1a5e995960921b606082015260800190565b6020808252602b908201527f496e697469616c697a61626c653a20636f6e7472616374206973206e6f74206960408201526a6e697469616c697a696e6760a81b606082015260800190565b6000816000190483118215151615613e8257613e82613b0e565b500290565b600082613ea457634e487b7160e01b600052601260045260246000fd5b500490565b6001600160a01b0386811682528516602082015260a060408201819052600090613ed590830186613577565b8281036060840152613ee78186613577565b90508281036080840152613efb8185613206565b98975050505050505050565b600060208284031215613f1957600080fd5b81516131ff816131cc565b600060033d1115613f3d5760046000803e5060005160e01c5b90565b600060443d1015613f4e5790565b6040516003193d81016004833e81513d6001600160401b038160248401118184111715613f7d57505050505090565b8285019150815181811115613f955750505050505090565b843d8701016020828501011115613faf5750505050505090565b613fbe602082860101876132b0565b509095945050505050565b60208082526028908201527f455243313135353a204552433131353552656365697665722072656a656374656040820152676420746f6b656e7360c01b606082015260800190565b6001600160a01b03868116825285166020820152604081018490526060810183905260a06080820181905260009061404b90830184613206565b97965050505050505056fea2646970667358221220face229ade38aceb24eb9806bb5d36f3b17276e2600d7339b3a0c2e5a755595364736f6c63430008090033",
  "linkReferences": {},
  "deployedLinkReferences": {}
}