{
  "_format": "hh-sol-artifact-1",
  "contractName": "REITNFT",
  "sourceName": "contracts/REITNFT.sol",
  "abi": [
    {
      "anonymous": false,
      "inputs": [
        {
          "indexed": true,
          "internalType": "address",
          "name": "account",
          "type": "address"
        },
        {
          "indexed": true,
          "internalType": "address",
          "name": "operator",
          "type": "address"
        },
        {
          "indexed": false,
          "internalType": "bool",
          "name": "approved",
          "type": "bool"
        }
      ],
      "name": "ApprovalForAll",
      "type": "event"
    },
    {
      "anonymous": false,
      "inputs": [
        {
          "indexed": false,
          "internalType": "uint256",
          "name": "id",
          "type": "uint256"
        }
      ],
      "name": "Create",
      "type": "event"
    },
    {
      "anonymous": false,
      "inputs": [
        {
          "indexed": true,
          "internalType": "address",
          "name": "previousGovernor",
          "type": "address"
        },
        {
          "indexed": true,
          "internalType": "address",
          "name": "newGovernor",
          "type": "address"
        }
      ],
      "name": "GovernorshipTransferred",
      "type": "event"
    },
    {
      "anonymous": false,
      "inputs": [
        {
          "indexed": false,
          "internalType": "uint8",
          "name": "version",
          "type": "uint8"
        }
      ],
      "name": "Initialized",
      "type": "event"
    },
    {
      "anonymous": false,
      "inputs": [
        {
          "indexed": true,
          "internalType": "address",
          "name": "operator",
          "type": "address"
        },
        {
          "indexed": true,
          "internalType": "address",
          "name": "from",
          "type": "address"
        },
        {
          "indexed": true,
          "internalType": "address",
          "name": "to",
          "type": "address"
        },
        {
          "indexed": false,
          "internalType": "uint256[]",
          "name": "ids",
          "type": "uint256[]"
        },
        {
          "indexed": false,
          "internalType": "uint256[]",
          "name": "values",
          "type": "uint256[]"
        }
      ],
      "name": "TransferBatch",
      "type": "event"
    },
    {
      "anonymous": false,
      "inputs": [
        {
          "indexed": true,
          "internalType": "address",
          "name": "operator",
          "type": "address"
        },
        {
          "indexed": true,
          "internalType": "address",
          "name": "from",
          "type": "address"
        },
        {
          "indexed": true,
          "internalType": "address",
          "name": "to",
          "type": "address"
        },
        {
          "indexed": false,
          "internalType": "uint256",
          "name": "id",
          "type": "uint256"
        },
        {
          "indexed": false,
          "internalType": "uint256",
          "name": "value",
          "type": "uint256"
        }
      ],
      "name": "TransferSingle",
      "type": "event"
    },
    {
      "anonymous": false,
      "inputs": [
        {
          "indexed": false,
          "internalType": "string",
          "name": "value",
          "type": "string"
        },
        {
          "indexed": true,
          "internalType": "uint256",
          "name": "id",
          "type": "uint256"
        }
      ],
      "name": "URI",
      "type": "event"
    },
    {
      "inputs": [
        {
          "internalType": "address[]",
          "name": "accounts",
          "type": "address[]"
        }
      ],
      "name": "addManyToKYC",
      "outputs": [],
      "stateMutability": "nonpayable",
      "type": "function"
    },
    {
      "inputs": [
        {
          "internalType": "address",
          "name": "account",
          "type": "address"
        }
      ],
      "name": "addToKYC",
      "outputs": [],
      "stateMutability": "nonpayable",
      "type": "function"
    },
    {
      "inputs": [
        {
          "internalType": "address",
          "name": "account",
          "type": "address"
        },
        {
          "internalType": "uint256",
          "name": "id",
          "type": "uint256"
        }
      ],
      "name": "balanceOf",
      "outputs": [
        {
          "internalType": "uint256",
          "name": "",
          "type": "uint256"
        }
      ],
      "stateMutability": "view",
      "type": "function"
    },
    {
      "inputs": [
        {
          "internalType": "address[]",
          "name": "accounts",
          "type": "address[]"
        },
        {
          "internalType": "uint256[]",
          "name": "ids",
          "type": "uint256[]"
        }
      ],
      "name": "balanceOfBatch",
      "outputs": [
        {
          "internalType": "uint256[]",
          "name": "",
          "type": "uint256[]"
        }
      ],
      "stateMutability": "view",
      "type": "function"
    },
    {
      "inputs": [
        {
          "internalType": "address",
          "name": "_to",
          "type": "address"
        },
        {
          "internalType": "uint256[]",
          "name": "_ids",
          "type": "uint256[]"
        },
        {
          "internalType": "uint256[]",
          "name": "_quantities",
          "type": "uint256[]"
        },
        {
          "internalType": "bytes",
          "name": "_data",
          "type": "bytes"
        }
      ],
      "name": "batchMint",
      "outputs": [],
      "stateMutability": "nonpayable",
      "type": "function"
    },
    {
      "inputs": [
        {
          "internalType": "uint256",
          "name": "_id",
          "type": "uint256"
        }
      ],
      "name": "claimBenefit",
      "outputs": [],
      "stateMutability": "nonpayable",
      "type": "function"
    },
    {
      "inputs": [],
      "name": "contractURI",
      "outputs": [
        {
          "internalType": "string",
          "name": "",
          "type": "string"
        }
      ],
      "stateMutability": "view",
      "type": "function"
    },
    {
      "inputs": [
        {
          "internalType": "address",
          "name": "_initialOwner",
          "type": "address"
        },
        {
          "internalType": "uint256",
          "name": "_initialSupply",
          "type": "uint256"
        },
        {
          "internalType": "string",
          "name": "_uri",
          "type": "string"
        },
        {
          "internalType": "address",
          "name": "_fundingToken",
          "type": "address"
        },
        {
          "internalType": "bytes",
          "name": "_data",
          "type": "bytes"
        }
      ],
      "name": "createREIT",
      "outputs": [
        {
          "internalType": "uint256",
          "name": "",
          "type": "uint256"
        }
      ],
      "stateMutability": "nonpayable",
      "type": "function"
    },
    {
      "inputs": [
        {
          "internalType": "uint256",
          "name": "",
          "type": "uint256"
        }
      ],
      "name": "creators",
      "outputs": [
        {
          "internalType": "address",
          "name": "",
          "type": "address"
        }
      ],
      "stateMutability": "view",
      "type": "function"
    },
    {
      "inputs": [
        {
          "internalType": "uint256",
          "name": "",
          "type": "uint256"
        }
      ],
      "name": "dividendFunds",
      "outputs": [
        {
          "internalType": "uint256",
          "name": "",
          "type": "uint256"
        }
      ],
      "stateMutability": "view",
      "type": "function"
    },
    {
      "inputs": [
        {
          "internalType": "uint256",
          "name": "_id",
          "type": "uint256"
        }
      ],
      "name": "getClaimedYield",
      "outputs": [
        {
          "internalType": "uint256",
          "name": "",
          "type": "uint256"
        }
      ],
      "stateMutability": "view",
      "type": "function"
    },
    {
      "inputs": [
        {
          "internalType": "uint256",
          "name": "_id",
          "type": "uint256"
        }
      ],
      "name": "getIPOContract",
      "outputs": [
        {
          "internalType": "address",
          "name": "",
          "type": "address"
        }
      ],
      "stateMutability": "view",
      "type": "function"
    },
    {
      "inputs": [
        {
          "internalType": "uint256",
          "name": "_id",
          "type": "uint256"
        }
      ],
      "name": "getShareUnitPrice",
      "outputs": [
        {
          "internalType": "uint256",
          "name": "",
          "type": "uint256"
        }
      ],
      "stateMutability": "view",
      "type": "function"
    },
    {
      "inputs": [
        {
          "internalType": "uint256",
          "name": "_id",
          "type": "uint256"
        }
      ],
      "name": "getTotalClaimableBenefit",
      "outputs": [
        {
          "internalType": "uint256",
          "name": "",
          "type": "uint256"
        }
      ],
      "stateMutability": "view",
      "type": "function"
    },
    {
      "inputs": [
        {
          "internalType": "uint256",
          "name": "_id",
          "type": "uint256"
        }
      ],
      "name": "getTotalYieldDividendPerShare",
      "outputs": [
        {
          "internalType": "uint256",
          "name": "",
          "type": "uint256"
        }
      ],
      "stateMutability": "view",
      "type": "function"
    },
    {
      "inputs": [
        {
          "internalType": "uint256",
          "name": "_id",
          "type": "uint256"
        },
        {
          "internalType": "uint256",
          "name": "index",
          "type": "uint256"
        }
      ],
      "name": "getYieldDividendPerShareAt",
      "outputs": [
        {
          "internalType": "uint256",
          "name": "",
          "type": "uint256"
        }
      ],
      "stateMutability": "view",
      "type": "function"
    },
    {
      "inputs": [],
      "name": "governor",
      "outputs": [
        {
          "internalType": "address",
          "name": "",
          "type": "address"
        }
      ],
      "stateMutability": "view",
      "type": "function"
    },
    {
      "inputs": [
        {
          "internalType": "string",
          "name": "_name",
          "type": "string"
        },
        {
          "internalType": "string",
          "name": "_symbol",
          "type": "string"
        },
        {
          "internalType": "string",
          "name": "_uri",
          "type": "string"
        }
      ],
      "name": "initialize",
      "outputs": [],
      "stateMutability": "nonpayable",
      "type": "function"
    },
    {
      "inputs": [
        {
          "internalType": "uint256",
          "name": "_id",
          "type": "uint256"
        },
        {
          "internalType": "uint256",
          "name": "ipoTime",
          "type": "uint256"
        },
        {
          "internalType": "uint256",
          "name": "ipoUnitPrice",
          "type": "uint256"
        },
        {
          "internalType": "uint256",
          "name": "liquidationTime",
          "type": "uint256"
        },
        {
          "internalType": "uint256",
          "name": "registerationTaxRate",
          "type": "uint256"
        }
      ],
      "name": "initiate",
      "outputs": [],
      "stateMutability": "nonpayable",
      "type": "function"
    },
    {
      "inputs": [
        {
          "internalType": "address",
          "name": "account",
          "type": "address"
        },
        {
          "internalType": "address",
          "name": "operator",
          "type": "address"
        }
      ],
      "name": "isApprovedForAll",
      "outputs": [
        {
          "internalType": "bool",
          "name": "",
          "type": "bool"
        }
      ],
      "stateMutability": "view",
      "type": "function"
    },
    {
      "inputs": [
        {
          "internalType": "uint256",
          "name": "_id",
          "type": "uint256"
        },
        {
          "internalType": "address",
          "name": "account",
          "type": "address"
        }
      ],
      "name": "isIPOContract",
      "outputs": [
        {
          "internalType": "bool",
          "name": "",
          "type": "bool"
        }
      ],
      "stateMutability": "view",
      "type": "function"
    },
    {
      "inputs": [
        {
          "internalType": "address",
          "name": "account",
          "type": "address"
        }
      ],
      "name": "isKYC",
      "outputs": [
        {
          "internalType": "bool",
          "name": "",
          "type": "bool"
        }
      ],
      "stateMutability": "view",
      "type": "function"
    },
    {
      "inputs": [
        {
          "internalType": "address",
          "name": "_to",
          "type": "address"
        },
        {
          "internalType": "uint256",
          "name": "_id",
          "type": "uint256"
        },
        {
          "internalType": "uint256",
          "name": "_quantity",
          "type": "uint256"
        },
        {
          "internalType": "bytes",
          "name": "_data",
          "type": "bytes"
        }
      ],
      "name": "mint",
      "outputs": [],
      "stateMutability": "nonpayable",
      "type": "function"
    },
    {
      "inputs": [],
      "name": "name",
      "outputs": [
        {
          "internalType": "string",
          "name": "",
          "type": "string"
        }
      ],
      "stateMutability": "view",
      "type": "function"
    },
    {
      "inputs": [
        {
          "internalType": "uint256",
          "name": "_id",
          "type": "uint256"
        },
        {
          "internalType": "uint256",
          "name": "amount",
          "type": "uint256"
        }
      ],
      "name": "payDividends",
      "outputs": [],
      "stateMutability": "nonpayable",
      "type": "function"
    },
    {
      "inputs": [
        {
          "internalType": "address",
          "name": "account",
          "type": "address"
        }
      ],
      "name": "removeKYC",
      "outputs": [],
      "stateMutability": "nonpayable",
      "type": "function"
    },
    {
      "inputs": [
        {
          "internalType": "address[]",
          "name": "accounts",
          "type": "address[]"
        }
      ],
      "name": "removeManyKYC",
      "outputs": [],
      "stateMutability": "nonpayable",
      "type": "function"
    },
    {
      "inputs": [],
      "name": "renounceGovernorship",
      "outputs": [],
      "stateMutability": "nonpayable",
      "type": "function"
    },
    {
      "inputs": [],
      "name": "revokeKYCAdmin",
      "outputs": [],
      "stateMutability": "nonpayable",
      "type": "function"
    },
    {
      "inputs": [
        {
          "internalType": "address",
          "name": "from",
          "type": "address"
        },
        {
          "internalType": "address",
          "name": "to",
          "type": "address"
        },
        {
          "internalType": "uint256[]",
          "name": "ids",
          "type": "uint256[]"
        },
        {
          "internalType": "uint256[]",
          "name": "amounts",
          "type": "uint256[]"
        },
        {
          "internalType": "bytes",
          "name": "data",
          "type": "bytes"
        }
      ],
      "name": "safeBatchTransferFrom",
      "outputs": [],
      "stateMutability": "nonpayable",
      "type": "function"
    },
    {
      "inputs": [
        {
          "internalType": "address",
          "name": "from",
          "type": "address"
        },
        {
          "internalType": "address",
          "name": "to",
          "type": "address"
        },
        {
          "internalType": "uint256",
          "name": "id",
          "type": "uint256"
        },
        {
          "internalType": "uint256",
          "name": "amount",
          "type": "uint256"
        },
        {
          "internalType": "bytes",
          "name": "data",
          "type": "bytes"
        }
      ],
      "name": "safeTransferFrom",
      "outputs": [],
      "stateMutability": "nonpayable",
      "type": "function"
    },
    {
      "inputs": [
        {
          "internalType": "address",
          "name": "operator",
          "type": "address"
        },
        {
          "internalType": "bool",
          "name": "approved",
          "type": "bool"
        }
      ],
      "name": "setApprovalForAll",
      "outputs": [],
      "stateMutability": "nonpayable",
      "type": "function"
    },
    {
      "inputs": [
        {
          "internalType": "string",
          "name": "_newBaseMetadataURI",
          "type": "string"
        }
      ],
      "name": "setBaseMetadataURI",
      "outputs": [],
      "stateMutability": "nonpayable",
      "type": "function"
    },
    {
      "inputs": [
        {
          "internalType": "string",
          "name": "_uri",
          "type": "string"
        }
      ],
      "name": "setContractURI",
      "outputs": [],
      "stateMutability": "nonpayable",
      "type": "function"
    },
    {
      "inputs": [
        {
          "internalType": "address",
          "name": "_to",
          "type": "address"
        },
        {
          "internalType": "uint256[]",
          "name": "_ids",
          "type": "uint256[]"
        }
      ],
      "name": "setCreator",
      "outputs": [],
      "stateMutability": "nonpayable",
      "type": "function"
    },
    {
      "inputs": [
        {
          "internalType": "uint256",
          "name": "_id",
          "type": "uint256"
        },
        {
          "internalType": "address",
          "name": "account",
          "type": "address"
        }
      ],
      "name": "setIPOContract",
      "outputs": [],
      "stateMutability": "nonpayable",
      "type": "function"
    },
    {
      "inputs": [
        {
          "internalType": "address",
          "name": "account",
          "type": "address"
        }
      ],
      "name": "setKYCAdmin",
      "outputs": [],
      "stateMutability": "nonpayable",
      "type": "function"
    },
    {
      "inputs": [
        {
          "internalType": "bytes4",
          "name": "interfaceId",
          "type": "bytes4"
        }
      ],
      "name": "supportsInterface",
      "outputs": [
        {
          "internalType": "bool",
          "name": "",
          "type": "bool"
        }
      ],
      "stateMutability": "view",
      "type": "function"
    },
    {
      "inputs": [],
      "name": "symbol",
      "outputs": [
        {
          "internalType": "string",
          "name": "",
          "type": "string"
        }
      ],
      "stateMutability": "view",
      "type": "function"
    },
    {
      "inputs": [
        {
          "internalType": "uint256",
          "name": "",
          "type": "uint256"
        }
      ],
      "name": "tokenMetadata",
      "outputs": [
        {
          "internalType": "uint256",
          "name": "ipoTime",
          "type": "uint256"
        },
        {
          "internalType": "uint256",
          "name": "ipoUnitPrice",
          "type": "uint256"
        },
        {
          "internalType": "uint256",
          "name": "liquidationTime",
          "type": "uint256"
        },
        {
          "internalType": "uint256",
          "name": "registerationTaxRate",
          "type": "uint256"
        }
      ],
      "stateMutability": "view",
      "type": "function"
    },
    {
      "inputs": [
        {
          "internalType": "uint256",
          "name": "",
          "type": "uint256"
        }
      ],
      "name": "tokenSupply",
      "outputs": [
        {
          "internalType": "uint256",
          "name": "",
          "type": "uint256"
        }
      ],
      "stateMutability": "view",
      "type": "function"
    },
    {
      "inputs": [
        {
          "internalType": "uint256",
          "name": "",
          "type": "uint256"
        }
      ],
      "name": "tokenUri",
      "outputs": [
        {
          "internalType": "string",
          "name": "",
          "type": "string"
        }
      ],
      "stateMutability": "view",
      "type": "function"
    },
    {
      "inputs": [
        {
          "internalType": "uint256",
          "name": "",
          "type": "uint256"
        }
      ],
      "name": "tokenYieldData",
      "outputs": [
        {
          "internalType": "uint256",
          "name": "liquidationExtension",
          "type": "uint256"
        },
        {
          "internalType": "uint256",
          "name": "yieldDividendIndexCounter",
          "type": "uint256"
        }
      ],
      "stateMutability": "view",
      "type": "function"
    },
    {
      "inputs": [
        {
          "internalType": "uint256",
          "name": "_id",
          "type": "uint256"
        }
      ],
      "name": "totalSupply",
      "outputs": [
        {
          "internalType": "uint256",
          "name": "",
          "type": "uint256"
        }
      ],
      "stateMutability": "view",
      "type": "function"
    },
    {
      "inputs": [
        {
          "internalType": "address",
          "name": "newGovernor",
          "type": "address"
        }
      ],
      "name": "transferGovernorship",
      "outputs": [],
      "stateMutability": "nonpayable",
      "type": "function"
    },
    {
      "inputs": [
        {
          "internalType": "uint256",
          "name": "_id",
          "type": "uint256"
        },
        {
          "internalType": "uint256",
          "name": "dividendPerShare",
          "type": "uint256"
        },
        {
          "internalType": "uint256",
          "name": "index",
          "type": "uint256"
        }
      ],
      "name": "unlockDividendPerShare",
      "outputs": [],
      "stateMutability": "nonpayable",
      "type": "function"
    },
    {
      "inputs": [
        {
          "internalType": "uint256",
          "name": "_id",
          "type": "uint256"
        }
      ],
      "name": "uri",
      "outputs": [
        {
          "internalType": "string",
          "name": "",
          "type": "string"
        }
      ],
      "stateMutability": "view",
      "type": "function"
    }
  ],
  "bytecode": "0x608060405234801561001057600080fd5b5061427e806100206000396000f3fe608060405234801561001057600080fd5b50600436106102945760003560e01c806395d89b4111610167578063c8841272116100ce578063df47739011610087578063df4773901461068e578063e8a3d485146106a1578063e985e9c5146106a9578063efe7744f146106e5578063f242432a14610706578063f6ee8fcc1461071957600080fd5b8063c8841272146105dc578063cd53d08e146105ef578063d1c901a414610618578063d2a6b51a14610655578063d64e83d714610668578063d98d9eaf1461067b57600080fd5b8063abfebaa411610120578063abfebaa41461054c578063b1fd69101461055f578063b48ab8b614610583578063b6aa515b14610596578063bb897303146105a9578063bd85b039146105bc57600080fd5b806395d89b41146104ce5780639944f518146104d65780639a429294146104e95780639b166e2f146104fc578063a22cb46514610526578063a6487c531461053957600080fd5b8063409f8c481161020b5780636914db60116101c45780636914db6014610424578063731133e91461047a57806378c4acb81461048d5780637e518ec8146104a057806381c0c263146104b3578063938e3d7b146104bb57600080fd5b8063409f8c48146103b05780634e1273f4146103c357806358cc49a5146103e3578063590a5ce0146103f657806359d1a4b114610409578063651217951461041157600080fd5b80631675f4551161025d5780631675f4551461032f57806322b6ccfe14610342578063243f6b58146103575780632693ebf21461036a5780632eb2c2d61461038a57806330237a721461039d57600080fd5b8062fdd58e1461029957806301ffc9a7146102bf57806306fdde03146102e25780630c340a24146102f75780630e89341c1461031c575b600080fd5b6102ac6102a7366004613394565b61072c565b6040519081526020015b60405180910390f35b6102d26102cd3660046133d4565b610741565b60405190151581526020016102b6565b6102ea610791565b6040516102b69190613445565b6097546001600160a01b03165b6040516001600160a01b0390911681526020016102b6565b6102ea61032a366004613458565b610820565b6102ea61033d366004613458565b6108c2565b610355610350366004613471565b6108db565b005b610355610365366004613471565b610934565b6102ac610378366004613458565b60fd6020526000908152604090205481565b6103556103983660046135ca565b610981565b6103556103ab366004613673565b610ba4565b6103556103be366004613471565b610c58565b6103d66103d136600461369f565b610ce4565b6040516102b691906137a4565b6103556103f1366004613458565b610e0d565b6103556104043660046137b7565b61127e565b6103556113a2565b6102ac61041f3660046137b7565b6113d8565b61045a610432366004613458565b6101356020526000908152604090208054600182015460028301546003909301549192909184565b6040805194855260208501939093529183015260608201526080016102b6565b6103556104883660046137d9565b61140f565b61035561049b366004613839565b611485565b6103556104ae3660046138ad565b611528565b61035561155b565b6103556104c93660046138ad565b61158f565b6102ea6115d0565b6102d26104e4366004613471565b6115de565b6102ac6104f7366004613458565b611613565b61030461050a366004613458565b600090815261013a60205260409020546001600160a01b031690565b6103556105343660046138ef565b6116ec565b610355610547366004613926565b6116f7565b61035561055a3660046139ad565b61177a565b6102ac61056d366004613458565b6000908152610135602052604090206001015490565b6103556105913660046139e8565b6117fd565b6103556105a4366004613471565b61198c565b6102ac6105b7366004613abc565b611a2a565b6102ac6105ca366004613458565b600090815260fd602052604090205490565b6102ac6105ea366004613458565b611c4b565b6103046105fd366004613458565b60fc602052600090815260409020546001600160a01b031681565b610640610626366004613458565b610136602052600090815260409020805460029091015482565b604080519283526020830191909152016102b6565b610355610663366004613b59565b611cf6565b610355610676366004613839565b611e30565b6102d2610689366004613b9c565b611ece565b6102ac61069c366004613458565b611ef0565b6102ea611f3d565b6102d26106b7366004613bc8565b6001600160a01b03918216600090815260666020908152604080832093909416825291909152205460ff1690565b6102ac6106f3366004613458565b6101386020526000908152604090205481565b610355610714366004613bf2565b611fcf565b610355610727366004613b9c565b612186565b600061073883836121ee565b90505b92915050565b60006001600160e01b03198216636cdb3d1360e11b148061077257506001600160e01b031982166303a24d0760e21b145b8061073b57506301ffc9a760e01b6001600160e01b031983161461073b565b610100805461079f90613c56565b80601f01602080910402602001604051908101604052809291908181526020018280546107cb90613c56565b80156108185780601f106107ed57610100808354040283529160200191610818565b820191906000526020600020905b8154815290600101906020018083116107fb57829003601f168201915b505050505081565b600081815260fe6020526040902080546060919061083d90613c56565b80601f016020809104026020016040519081016040528092919081815260200182805461086990613c56565b80156108b65780601f1061088b576101008083540402835291602001916108b6565b820191906000526020600020905b81548152906001019060200180831161089957829003601f168201915b50505050509050919050565b60fe602052600090815260409020805461079f90613c56565b610103546001600160a01b0316331461090f5760405162461bcd60e51b815260040161090690613c8b565b60405180910390fd5b6001600160a01b0316600090815261010260205260409020805460ff19166001179055565b610103546001600160a01b0316331461095f5760405162461bcd60e51b815260040161090690613c8b565b6001600160a01b0316600090815261010260205260409020805460ff19169055565b6001600160a01b03851633148061099d575061099d85336106b7565b610a045760405162461bcd60e51b815260206004820152603260248201527f455243313135353a207472616e736665722063616c6c6572206973206e6f74206044820152711bdddb995c881b9bdc88185c1c1c9bdd995960721b6064820152608401610906565b60005b8351811015610b8f576000848281518110610a2457610a24613ccd565b602002602001015190506000848381518110610a4257610a42613ccd565b60200260200101519050610a568289611ece565b158015610a6a5750610a688288611ece565b155b15610b72576000610a7b8383612282565b60008481526101396020526040908190205490516323b872dd60e01b81526001600160a01b038c811660048301523060248301526044820184905292935091169081906323b872dd90606401602060405180830381600087803b158015610ae157600080fd5b505af1158015610af5573d6000803e3d6000fd5b505050506040513d601f19601f82011682018060405250810190610b199190613ce3565b610b655760405162461bcd60e51b815260206004820152601a60248201527f524549544e46543a20436f756c64206e6f7420706179207461780000000000006044820152606401610906565b610b6f8a856122f1565b50505b610b7c87836122f1565b505080610b8890613d16565b9050610a07565b50610b9d8585858585612492565b5050505050565b600083815260fc602052604090205483906001600160a01b03163314610bdc5760405162461bcd60e51b815260040161090690613d31565b600084815261013660205260409020600101805484919084908110610c0357610c03613ccd565b600091825260209091200155610c1a826001613d82565b600085815261013660205260409020600201541015610c5257610c3e826001613d82565b600085815261013660205260409020600201555b50505050565b6097546001600160a01b03163314610c825760405162461bcd60e51b815260040161090690613d9a565b6001600160a01b038116610cd85760405162461bcd60e51b815260206004820181905260248201527f4b59432041646d696e2063616e6e6f74206265207a65726f20616464726573736044820152606401610906565b610ce181612631565b50565b60608151835114610d495760405162461bcd60e51b815260206004820152602960248201527f455243313135353a206163636f756e747320616e6420696473206c656e677468604482015268040dad2e6dac2e8c6d60bb1b6064820152608401610906565b600083516001600160401b03811115610d6457610d6461348c565b604051908082528060200260200182016040528015610d8d578160200160208202803683370190505b50905060005b8451811015610e0557610dd8858281518110610db157610db1613ccd565b6020026020010151858381518110610dcb57610dcb613ccd565b602002602001015161072c565b828281518110610dea57610dea613ccd565b6020908102919091010152610dfe81613d16565b9050610d93565b509392505050565b336000908152610102602052604090205460ff16610e5b5760405162461bcd60e51b815260206004820152600b60248201526a4e6f7420796574204b594360a81b6044820152606401610906565b806000610e69335b8361072c565b11610e865760405162461bcd60e51b815260040161090690613de0565b600260c9541415610ed95760405162461bcd60e51b815260206004820152601f60248201527f5265656e7472616e637947756172643a207265656e7472616e742063616c6c006044820152606401610906565b600260c95560008281526101376020908152604080832033845290915290205460ff16610f47576000828152610137602090815260408083203380855292528220805460016101009093026001600160a81b0319909116178217815560028101839055908101829055600301555b60008281526101376020908152604080832033808552908352818420825160a081018452815460ff81161515825261010090046001600160a01b0316948101949094526001810154928401929092526002820154606084018190526003909201546080840152919291610fc69190610fc0905b87612654565b906127ce565b9050600081116110185760405162461bcd60e51b815260206004820181905260248201527f524549544e46543a206e6f206d6f726520636c61696d61626c65207969656c646044820152606401610906565b60008481526101386020526040902054818110156110885760405162461bcd60e51b815260206004820152602760248201527f524549544e46543a206e656564206d6f72652066756e64696e67732066726f6d6044820152661034b9b9bab2b960c91b6064820152608401610906565b60008581526101366020908152604080832081516060810183528154815260018201805484518187028101870190955280855291949293858401939092908301828280156110f557602002820191906000526020600020905b8154815260200190600101908083116110e1575b50505091835250506002918201546020918201526000898152610137825260408082203383529092528181209283015582015160018201556003015490915061113e90846127ce565b6000878152610137602090815260408083203380855290835281842060030194909455898352610139825280832054815163a9059cbb60e01b815260048101959095526024850188905290516001600160a01b0390911693849363a9059cbb9360448084019491939192918390030190829087803b1580156111bf57600080fd5b505af11580156111d3573d6000803e3d6000fd5b505050506040513d601f19601f820116820180604052508101906111f79190613ce3565b6112435760405162461bcd60e51b815260206004820181905260248201527f524549544e46543a20436f756c64206e6f74207472616e736665722066756e646044820152606401610906565b6000878152610138602052604090205461125d90856127da565b60009788526101386020526040909720969096555050600160c95550505050565b600082815261013960205260409020546001600160a01b0316806323b872dd336040516001600160e01b031960e084901b1681526001600160a01b03909116600482015230602482015260448101859052606401602060405180830381600087803b1580156112ec57600080fd5b505af1158015611300573d6000803e3d6000fd5b505050506040513d601f19601f820116820180604052508101906113249190613ce3565b6113705760405162461bcd60e51b815260206004820181905260248201527f524549544e46543a20436f756c64206e6f74207472616e736665722066756e646044820152606401610906565b6000838152610138602052604090205461138a90836127ce565b60009384526101386020526040909320929092555050565b6097546001600160a01b031633146113cc5760405162461bcd60e51b815260040161090690613d9a565b6113d66000612631565b565b6000828152610136602052604081206001018054839081106113fc576113fc613ccd565b9060005260206000200154905092915050565b600083815260fc602052604090205483906001600160a01b031633146114475760405162461bcd60e51b815260040161090690613d31565b611453858585856127e6565b600084815260fd602052604090205461146c90846127ce565b600094855260fd60205260409094209390935550505050565b610103546001600160a01b031633146114b05760405162461bcd60e51b815260040161090690613c8b565b60005b8181101561152357600161010260008585858181106114d4576114d4613ccd565b90506020020160208101906114e99190613471565b6001600160a01b031681526020810191909152604001600020805460ff19169115159190911790558061151b81613d16565b9150506114b3565b505050565b6097546001600160a01b031633146115525760405162461bcd60e51b815260040161090690613d9a565b610ce1816128c2565b6097546001600160a01b031633146115855760405162461bcd60e51b815260040161090690613d9a565b6113d660006128d5565b6097546001600160a01b031633146115b95760405162461bcd60e51b815260040161090690613d9a565b80516115cc9060ff906020840190613236565b5050565b610101805461079f90613c56565b60006001600160a01b0382166115f357600080fd5b506001600160a01b03166000908152610102602052604090205460ff1690565b60008181526101366020908152604080832081516060810183528154815260018201805484518187028101870190955280855286958695939493858201939092909183018282801561168457602002820191906000526020600020905b815481526020019060010190808311611670575b50505050508152602001600282015481525050905060005b81604001518110156116e357816020015181815181106116be576116be613ccd565b6020026020010151836116d19190613d82565b92506116dc81613d16565b905061169c565b50909392505050565b6115cc338383612927565b60006117036001612a08565b9050801561171b576000805461ff0019166101001790555b611726848484612a95565b61172e612b57565b8015610c52576000805461ff0019169055604051600181527f7f26b83ff96e1f2b6a682f133852f6798a09c465da95921460cefb3847402498906020015b60405180910390a150505050565b600085815260fc602052604090205485906001600160a01b031633146117b25760405162461bcd60e51b815260040161090690613d31565b50604080516080810182529485526020808601948552858201938452606086019283526000968752610135905290942092518355905160018301555160028201559051600390910155565b81518351146118675760405162461bcd60e51b815260206004820152603060248201527f455243313135354d696e744275726e2362617463684d696e743a20494e56414c60448201526f09288be82a4a482b2a6be988a9c8ea8960831b6064820152608401610906565b60005b835181101561197f57600084828151811061188757611887613ccd565b602090810291909101810151600081815260fc9092526040909120549091506001600160a01b031633146119155760405162461bcd60e51b815260206004820152602f60248201527f455243313135355472616461626c652362617463684d696e743a204f4e4c595f60448201526e10d491505513d497d0531313d5d151608a1b6064820152608401610906565b600084838151811061192957611929613ccd565b602002602001015190506119598160fd6000858152602001908152602001600020546127ce90919063ffffffff16565b600092835260fd602052604090922091909155508061197781613d16565b91505061186a565b50610c5284848484612b86565b6097546001600160a01b031633146119b65760405162461bcd60e51b815260040161090690613d9a565b6001600160a01b038116611a215760405162461bcd60e51b815260206004820152602c60248201527f476f7665726e61626c653a206e657720676f7665726e6f72206973207468652060448201526b7a65726f206164647265737360a01b6064820152608401610906565b610ce1816128d5565b6097546000906001600160a01b03163314611a575760405162461bcd60e51b815260040161090690613d9a565b6000611a61612cd2565b9050611a6b612ce8565b611a758982612cff565b8515611ad057807f6bb7ff708619ba0610cba295a58592e0451dee2622938c8755667688daf3529b8888604051611aad929190613e35565b60405180910390a2600081815260fe60205260409020611ace9088886132ba565b505b60008181526101396020908152604080832080546001600160a01b0319166001600160a01b038a1617905580516080810182528381528083018481528183018581526060808401878152888852610135875285882094518555925160018501559051600284015590516003909201919091558151908101825292835280516078808252610f208201909252838301929091908201610f0080368337505050815260006020918201819052838152610136825260409020825181558282015180519192611ba49260018501929091019061332e565b5060408201518160020155905050611bf489828a87878080601f0160208091040260200160405190810160405280939291908181526020018383808284376000920191909152506127e692505050565b600081815260fd602052604090819020899055517f07eac9a0695a188fe9d6fd680bcbbbe39041fb114d5d7ac11252401391f7930790611c379083815260200190565b60405180910390a198975050505050505050565b60008181611c5833610e63565b11611c755760405162461bcd60e51b815260040161090690613de0565b6000838152610137602090815260408083203380855290835292819020815160a081018352815460ff81161515825261010090046001600160a01b03169381019390935260018101549183019190915260028101546060830181905260039091015460808301529091611cec9190610fc090610fba565b9250505b50919050565b6001600160a01b038216611d605760405162461bcd60e51b815260206004820152602b60248201527f455243313135355472616461626c652373657443726561746f723a20494e564160448201526a4c49445f4144445245535360a81b6064820152608401610906565b60005b8151811015611523576000828281518110611d8057611d80613ccd565b60200260200101519050611d913390565b600082815260fc60205260409020546001600160a01b03908116911614611e135760405162461bcd60e51b815260206004820152603060248201527f455243313135355472616461626c652373657443726561746f723a204f4e4c5960448201526f17d0d491505513d497d0531313d5d15160821b6064820152608401610906565b611e1d8482612cff565b5080611e2881613d16565b915050611d63565b610103546001600160a01b03163314611e5b5760405162461bcd60e51b815260040161090690613c8b565b60005b818110156115235760006101026000858585818110611e7f57611e7f613ccd565b9050602002016020810190611e949190613471565b6001600160a01b031681526020810191909152604001600020805460ff191691151591909117905580611ec681613d16565b915050611e5e565b600091825261013a6020526040909120546001600160a01b0391821691161490565b60008181611efd33610e63565b11611f1a5760405162461bcd60e51b815260040161090690613de0565b505060009081526101376020908152604080832033845290915290206003015490565b606060ff8054611f4c90613c56565b80601f0160208091040260200160405190810160405280929190818152602001828054611f7890613c56565b8015611fc55780601f10611f9a57610100808354040283529160200191611fc5565b820191906000526020600020905b815481529060010190602001808311611fa857829003601f168201915b5050505050905090565b6001600160a01b038516331480611feb5750611feb85336106b7565b6120495760405162461bcd60e51b815260206004820152602960248201527f455243313135353a2063616c6c6572206973206e6f74206f776e6572206e6f7260448201526808185c1c1c9bdd995960ba1b6064820152608401610906565b6120538386611ece565b15801561206757506120658385611ece565b155b1561216f5760006120788484612282565b60008581526101396020526040908190205490516323b872dd60e01b81526001600160a01b0389811660048301523060248301526044820184905292935091169081906323b872dd90606401602060405180830381600087803b1580156120de57600080fd5b505af11580156120f2573d6000803e3d6000fd5b505050506040513d601f19601f820116820180604052508101906121169190613ce3565b6121625760405162461bcd60e51b815260206004820152601a60248201527f524549544e46543a20436f756c64206e6f7420706179207461780000000000006044820152606401610906565b61216c87866122f1565b50505b61217984846122f1565b610b9d8585858585612d2d565b600082815260fc602052604090205482906001600160a01b031633146121be5760405162461bcd60e51b815260040161090690613d31565b50600091825261013a602052604090912080546001600160a01b0319166001600160a01b03909216919091179055565b60006001600160a01b03831661225a5760405162461bcd60e51b815260206004820152602b60248201527f455243313135353a2062616c616e636520717565727920666f7220746865207a60448201526a65726f206164647265737360a81b6064820152608401610906565b5060009081526065602090815260408083206001600160a01b03949094168352929052205490565b6000828152610135602090815260408083208151608081018352815481526001820154938101849052600282015492810192909252600301546060820181905290916122e9916305f5e100916122e391906122dd9088612e5b565b90612e5b565b90612e67565b949350505050565b6000818152610137602090815260408083206001600160a01b038616845290915290205460ff16612367576000818152610137602090815260408083206001600160a01b03861680855292528220805460016001600160a81b031990911661010090930292909217821781556002810183905501555b60006123738383612654565b90506000610136600084815260200190815260200160002060405180606001604052908160008201548152602001600182018054806020026020016040519081016040528092919081815260200182805480156123ef57602002820191906000526020600020905b8154815260200190600101908083116123db575b505050918352505060029190910154602091820152604080830151600087815261013784528281206001600160a01b038a16825290935291206001015590508115610c52576000838152610137602090815260408083206001600160a01b038816845290915290206002015461246590836127ce565b6000848152610137602090815260408083206001600160a01b038916845290915290206002015550505050565b81518351146124b35760405162461bcd60e51b815260040161090690613e64565b6001600160a01b0384166124d95760405162461bcd60e51b815260040161090690613eac565b3360005b84518110156125c35760008582815181106124fa576124fa613ccd565b60200260200101519050600085838151811061251857612518613ccd565b60209081029190910181015160008481526065835260408082206001600160a01b038e1683529093529190912054909150818110156125695760405162461bcd60e51b815260040161090690613ef1565b60008381526065602090815260408083206001600160a01b038e8116855292528083208585039055908b168252812080548492906125a8908490613d82565b92505081905550505050806125bc90613d16565b90506124dd565b50846001600160a01b0316866001600160a01b0316826001600160a01b03167f4a39dc06d4c0dbc64b70af90fd698a233a518aa5d07e595d983b8c0526c8f7fb8787604051612613929190613f3b565b60405180910390a4612629818787878787612e73565b505050505050565b61010380546001600160a01b0319166001600160a01b0392909216919091179055565b6000818152610137602090815260408083206001600160a01b038087168552908352818420825160a081018452815460ff81161515808352610100909104909316948101949094526001810154928401929092526002820154606084015260039091015460808301526126cb57600091505061073b565b600083815261013660209081526040808320815160608101835281548152600182018054845181870281018701909552808552919492938584019390929083018282801561273857602002820191906000526020600020905b815481526020019060010190808311612724575b5050505050815260200160028201548152505090506000612759868661072c565b60408401519091506000905b83604001518110156127c35760006127a3848660200151848151811061278d5761278d613ccd565b6020026020010151612e5b90919063ffffffff16565b90506127af83826127ce565b925050806127bc90613d16565b9050612765565b509695505050505050565b60006107388284613d82565b60006107388284613f69565b6001600160a01b03841661280c5760405162461bcd60e51b815260040161090690613f80565b33600061281885612fde565b9050600061282585612fde565b905060008681526065602090815260408083206001600160a01b038b16845290915281208054879290612859908490613d82565b909155505060408051878152602081018790526001600160a01b03808a1692600092918716917fc3d58168c5ae7397731d063d5bbf3d657854427343f4c083240f7aacaa2d0f62910160405180910390a46128b983600089898989613029565b50505050505050565b80516115cc906067906020840190613236565b609780546001600160a01b038381166001600160a01b0319831681179093556040519116919082907fc7c0c772add429241571afb3805861fb3cfa2af374534088b76cdb4325a87e9a90600090a35050565b816001600160a01b0316836001600160a01b0316141561299b5760405162461bcd60e51b815260206004820152602960248201527f455243313135353a2073657474696e6720617070726f76616c20737461747573604482015268103337b91039b2b63360b91b6064820152608401610906565b6001600160a01b03838116600081815260666020908152604080832094871680845294825291829020805460ff191686151590811790915591519182527f17307eab39ab6107e8899845ad3d59bd9653f200f220920489ca2b5937696c31910160405180910390a3505050565b60008054610100900460ff1615612a4f578160ff166001148015612a2b5750303b155b612a475760405162461bcd60e51b815260040161090690613fc1565b506000919050565b60005460ff808416911610612a765760405162461bcd60e51b815260040161090690613fc1565b506000805460ff191660ff92909216919091179055600190565b919050565b6000612aa16001612a08565b90508015612ab9576000805461ff0019166101001790555b612ac2826130f3565b612aca613123565b612ad2613152565b8351612ae690610100906020870190613236565b508251612afb90610101906020860190613236565b50600060fb558151612b149060ff906020850190613236565b508015610c52576000805461ff0019169055604051600181527f7f26b83ff96e1f2b6a682f133852f6798a09c465da95921460cefb38474024989060200161176c565b600054610100900460ff16612b7e5760405162461bcd60e51b81526004016109069061400f565b6113d6613181565b6001600160a01b038416612bac5760405162461bcd60e51b815260040161090690613f80565b8151835114612bcd5760405162461bcd60e51b815260040161090690613e64565b3360005b8451811015612c6a57838181518110612bec57612bec613ccd565b602002602001015160656000878481518110612c0a57612c0a613ccd565b602002602001015181526020019081526020016000206000886001600160a01b03166001600160a01b031681526020019081526020016000206000828254612c529190613d82565b90915550819050612c6281613d16565b915050612bd1565b50846001600160a01b031660006001600160a01b0316826001600160a01b03167f4a39dc06d4c0dbc64b70af90fd698a233a518aa5d07e595d983b8c0526c8f7fb8787604051612cbb929190613f3b565b60405180910390a4610b9d81600087878787612e73565b60fb54600090612ce39060016127ce565b905090565b60fb8054906000612cf883613d16565b9190505550565b600090815260fc6020526040902080546001600160a01b0319166001600160a01b0392909216919091179055565b6001600160a01b038416612d535760405162461bcd60e51b815260040161090690613eac565b336000612d5f85612fde565b90506000612d6c85612fde565b905060008681526065602090815260408083206001600160a01b038c16845290915290205485811015612db15760405162461bcd60e51b815260040161090690613ef1565b60008781526065602090815260408083206001600160a01b038d8116855292528083208985039055908a16825281208054889290612df0908490613d82565b909155505060408051888152602081018890526001600160a01b03808b16928c821692918816917fc3d58168c5ae7397731d063d5bbf3d657854427343f4c083240f7aacaa2d0f62910160405180910390a4612e50848a8a8a8a8a613029565b505050505050505050565b6000610738828461405a565b60006107388284614079565b6001600160a01b0384163b156126295760405163bc197c8160e01b81526001600160a01b0385169063bc197c8190612eb7908990899088908890889060040161409b565b602060405180830381600087803b158015612ed157600080fd5b505af1925050508015612f01575060408051601f3d908101601f19168201909252612efe918101906140f9565b60015b612fae57612f0d614116565b806308c379a01415612f475750612f22614132565b80612f2d5750612f49565b8060405162461bcd60e51b81526004016109069190613445565b505b60405162461bcd60e51b815260206004820152603460248201527f455243313135353a207472616e7366657220746f206e6f6e20455243313135356044820152732932b1b2b4bb32b91034b6b83632b6b2b73a32b960611b6064820152608401610906565b6001600160e01b0319811663bc197c8160e01b146128b95760405162461bcd60e51b8152600401610906906141bb565b6040805160018082528183019092526060916000919060208083019080368337019050509050828160008151811061301857613018613ccd565b602090810291909101015292915050565b6001600160a01b0384163b156126295760405163f23a6e6160e01b81526001600160a01b0385169063f23a6e619061306d9089908990889088908890600401614203565b602060405180830381600087803b15801561308757600080fd5b505af19250505080156130b7575060408051601f3d908101601f191682019092526130b4918101906140f9565b60015b6130c357612f0d614116565b6001600160e01b0319811663f23a6e6160e01b146128b95760405162461bcd60e51b8152600401610906906141bb565b600054610100900460ff1661311a5760405162461bcd60e51b81526004016109069061400f565b610ce1816131b1565b600054610100900460ff1661314a5760405162461bcd60e51b81526004016109069061400f565b6113d66131d8565b600054610100900460ff166131795760405162461bcd60e51b81526004016109069061400f565b6113d6613208565b600054610100900460ff166131a85760405162461bcd60e51b81526004016109069061400f565b6113d633612631565b600054610100900460ff166115525760405162461bcd60e51b81526004016109069061400f565b600054610100900460ff166131ff5760405162461bcd60e51b81526004016109069061400f565b6113d6336128d5565b600054610100900460ff1661322f5760405162461bcd60e51b81526004016109069061400f565b600160c955565b82805461324290613c56565b90600052602060002090601f01602090048101928261326457600085556132aa565b82601f1061327d57805160ff19168380011785556132aa565b828001600101855582156132aa579182015b828111156132aa57825182559160200191906001019061328f565b506132b6929150613368565b5090565b8280546132c690613c56565b90600052602060002090601f0160209004810192826132e857600085556132aa565b82601f106133015782800160ff198235161785556132aa565b828001600101855582156132aa579182015b828111156132aa578235825591602001919060010190613313565b8280548282559060005260206000209081019282156132aa57916020028201828111156132aa57825182559160200191906001019061328f565b5b808211156132b65760008155600101613369565b80356001600160a01b0381168114612a9057600080fd5b600080604083850312156133a757600080fd5b6133b08361337d565b946020939093013593505050565b6001600160e01b031981168114610ce157600080fd5b6000602082840312156133e657600080fd5b81356133f1816133be565b9392505050565b6000815180845260005b8181101561341e57602081850181015186830182015201613402565b81811115613430576000602083870101525b50601f01601f19169290920160200192915050565b60208152600061073860208301846133f8565b60006020828403121561346a57600080fd5b5035919050565b60006020828403121561348357600080fd5b6107388261337d565b634e487b7160e01b600052604160045260246000fd5b601f8201601f191681016001600160401b03811182821017156134c7576134c761348c565b6040525050565b60006001600160401b038211156134e7576134e761348c565b5060051b60200190565b600082601f83011261350257600080fd5b8135602061350f826134ce565b60405161351c82826134a2565b83815260059390931b850182019282810191508684111561353c57600080fd5b8286015b848110156127c35780358352918301918301613540565b600082601f83011261356857600080fd5b81356001600160401b038111156135815761358161348c565b604051613598601f8301601f1916602001826134a2565b8181528460208386010111156135ad57600080fd5b816020850160208301376000918101602001919091529392505050565b600080600080600060a086880312156135e257600080fd5b6135eb8661337d565b94506135f96020870161337d565b935060408601356001600160401b038082111561361557600080fd5b61362189838a016134f1565b9450606088013591508082111561363757600080fd5b61364389838a016134f1565b9350608088013591508082111561365957600080fd5b5061366688828901613557565b9150509295509295909350565b60008060006060848603121561368857600080fd5b505081359360208301359350604090920135919050565b600080604083850312156136b257600080fd5b82356001600160401b03808211156136c957600080fd5b818501915085601f8301126136dd57600080fd5b813560206136ea826134ce565b6040516136f782826134a2565b83815260059390931b850182019282810191508984111561371757600080fd5b948201945b8386101561373c5761372d8661337d565b8252948201949082019061371c565b9650508601359250508082111561375257600080fd5b5061375f858286016134f1565b9150509250929050565b600081518084526020808501945080840160005b838110156137995781518752958201959082019060010161377d565b509495945050505050565b6020815260006107386020830184613769565b600080604083850312156137ca57600080fd5b50508035926020909101359150565b600080600080608085870312156137ef57600080fd5b6137f88561337d565b9350602085013592506040850135915060608501356001600160401b0381111561382157600080fd5b61382d87828801613557565b91505092959194509250565b6000806020838503121561384c57600080fd5b82356001600160401b038082111561386357600080fd5b818501915085601f83011261387757600080fd5b81358181111561388657600080fd5b8660208260051b850101111561389b57600080fd5b60209290920196919550909350505050565b6000602082840312156138bf57600080fd5b81356001600160401b038111156138d557600080fd5b6122e984828501613557565b8015158114610ce157600080fd5b6000806040838503121561390257600080fd5b61390b8361337d565b9150602083013561391b816138e1565b809150509250929050565b60008060006060848603121561393b57600080fd5b83356001600160401b038082111561395257600080fd5b61395e87838801613557565b9450602086013591508082111561397457600080fd5b61398087838801613557565b9350604086013591508082111561399657600080fd5b506139a386828701613557565b9150509250925092565b600080600080600060a086880312156139c557600080fd5b505083359560208501359550604085013594606081013594506080013592509050565b600080600080608085870312156139fe57600080fd5b613a078561337d565b935060208501356001600160401b0380821115613a2357600080fd5b613a2f888389016134f1565b94506040870135915080821115613a4557600080fd5b613a51888389016134f1565b93506060870135915080821115613a6757600080fd5b5061382d87828801613557565b60008083601f840112613a8657600080fd5b5081356001600160401b03811115613a9d57600080fd5b602083019150836020828501011115613ab557600080fd5b9250929050565b600080600080600080600060a0888a031215613ad757600080fd5b613ae08861337d565b96506020880135955060408801356001600160401b0380821115613b0357600080fd5b613b0f8b838c01613a74565b9097509550859150613b2360608b0161337d565b945060808a0135915080821115613b3957600080fd5b50613b468a828b01613a74565b989b979a50959850939692959293505050565b60008060408385031215613b6c57600080fd5b613b758361337d565b915060208301356001600160401b03811115613b9057600080fd5b61375f858286016134f1565b60008060408385031215613baf57600080fd5b82359150613bbf6020840161337d565b90509250929050565b60008060408385031215613bdb57600080fd5b613be48361337d565b9150613bbf6020840161337d565b600080600080600060a08688031215613c0a57600080fd5b613c138661337d565b9450613c216020870161337d565b9350604086013592506060860135915060808601356001600160401b03811115613c4a57600080fd5b61366688828901613557565b600181811c90821680613c6a57607f821691505b60208210811415611cf057634e487b7160e01b600052602260045260246000fd5b60208082526022908201527f4b59434163636573733a2063616c6c6572206973206e6f74207468652061646d60408201526134b760f11b606082015260800190565b634e487b7160e01b600052603260045260246000fd5b600060208284031215613cf557600080fd5b81516133f1816138e1565b634e487b7160e01b600052601160045260246000fd5b6000600019821415613d2a57613d2a613d00565b5060010190565b60208082526031908201527f455243313135355472616461626c652363726561746f724f6e6c793a204f4e4c6040820152701657d0d491505513d497d0531313d5d151607a1b606082015260800190565b60008219821115613d9557613d95613d00565b500190565b60208082526026908201527f476f7665726e61626c653a2063616c6c6572206973206e6f742074686520676f6040820152653b32b93737b960d11b606082015260800190565b60208082526035908201527f455243313135355472616461626c65237368617265486f6c646572734f6e6c796040820152740e8813d3931657d3d5d3915494d7d0531313d5d151605a1b606082015260800190565b60208152816020820152818360408301376000818301604090810191909152601f909201601f19160101919050565b60208082526028908201527f455243313135353a2069647320616e6420616d6f756e7473206c656e677468206040820152670dad2e6dac2e8c6d60c31b606082015260800190565b60208082526025908201527f455243313135353a207472616e7366657220746f20746865207a65726f206164604082015264647265737360d81b606082015260800190565b6020808252602a908201527f455243313135353a20696e73756666696369656e742062616c616e636520666f60408201526939103a3930b739b332b960b11b606082015260800190565b604081526000613f4e6040830185613769565b8281036020840152613f608185613769565b95945050505050565b600082821015613f7b57613f7b613d00565b500390565b60208082526021908201527f455243313135353a206d696e7420746f20746865207a65726f206164647265736040820152607360f81b606082015260800190565b6020808252602e908201527f496e697469616c697a61626c653a20636f6e747261637420697320616c72656160408201526d191e481a5b9a5d1a585b1a5e995960921b606082015260800190565b6020808252602b908201527f496e697469616c697a61626c653a20636f6e7472616374206973206e6f74206960408201526a6e697469616c697a696e6760a81b606082015260800190565b600081600019048311821515161561407457614074613d00565b500290565b60008261409657634e487b7160e01b600052601260045260246000fd5b500490565b6001600160a01b0386811682528516602082015260a0604082018190526000906140c790830186613769565b82810360608401526140d98186613769565b905082810360808401526140ed81856133f8565b98975050505050505050565b60006020828403121561410b57600080fd5b81516133f1816133be565b600060033d111561412f5760046000803e5060005160e01c5b90565b600060443d10156141405790565b6040516003193d81016004833e81513d6001600160401b03816024840111818411171561416f57505050505090565b82850191508151818111156141875750505050505090565b843d87010160208285010111156141a15750505050505090565b6141b0602082860101876134a2565b509095945050505050565b60208082526028908201527f455243313135353a204552433131353552656365697665722072656a656374656040820152676420746f6b656e7360c01b606082015260800190565b6001600160a01b03868116825285166020820152604081018490526060810183905260a06080820181905260009061423d908301846133f8565b97965050505050505056fea2646970667358221220cb7b3944604b4d77ffc5df5fcbaa1b513d5ea11a1f7ca723929a4eef066aa24b64736f6c63430008090033",
  "linkReferences": {},
  "deployedLinkReferences": {}
}