{
  "_format": "hh-sol-artifact-1",
  "contractName": "REITNFT",
  "sourceName": "contracts/REITNFT.sol",
  "abi": [
    {
      "anonymous": false,
      "inputs": [
        {
          "indexed": true,
          "internalType": "address",
          "name": "account",
          "type": "address"
        },
        {
          "indexed": true,
          "internalType": "address",
          "name": "operator",
          "type": "address"
        },
        {
          "indexed": false,
          "internalType": "bool",
          "name": "approved",
          "type": "bool"
        }
      ],
      "name": "ApprovalForAll",
      "type": "event"
    },
    {
      "anonymous": false,
      "inputs": [
        {
          "indexed": false,
          "internalType": "uint256",
          "name": "id",
          "type": "uint256"
        }
      ],
      "name": "Create",
      "type": "event"
    },
    {
      "anonymous": false,
      "inputs": [
        {
          "indexed": false,
          "internalType": "uint8",
          "name": "version",
          "type": "uint8"
        }
      ],
      "name": "Initialized",
      "type": "event"
    },
    {
      "anonymous": false,
      "inputs": [
        {
          "indexed": true,
          "internalType": "address",
          "name": "previousOwner",
          "type": "address"
        },
        {
          "indexed": true,
          "internalType": "address",
          "name": "newOwner",
          "type": "address"
        }
      ],
      "name": "OwnershipTransferred",
      "type": "event"
    },
    {
      "anonymous": false,
      "inputs": [
        {
          "indexed": true,
          "internalType": "address",
          "name": "operator",
          "type": "address"
        },
        {
          "indexed": true,
          "internalType": "address",
          "name": "from",
          "type": "address"
        },
        {
          "indexed": true,
          "internalType": "address",
          "name": "to",
          "type": "address"
        },
        {
          "indexed": false,
          "internalType": "uint256[]",
          "name": "ids",
          "type": "uint256[]"
        },
        {
          "indexed": false,
          "internalType": "uint256[]",
          "name": "values",
          "type": "uint256[]"
        }
      ],
      "name": "TransferBatch",
      "type": "event"
    },
    {
      "anonymous": false,
      "inputs": [
        {
          "indexed": true,
          "internalType": "address",
          "name": "operator",
          "type": "address"
        },
        {
          "indexed": true,
          "internalType": "address",
          "name": "from",
          "type": "address"
        },
        {
          "indexed": true,
          "internalType": "address",
          "name": "to",
          "type": "address"
        },
        {
          "indexed": false,
          "internalType": "uint256",
          "name": "id",
          "type": "uint256"
        },
        {
          "indexed": false,
          "internalType": "uint256",
          "name": "value",
          "type": "uint256"
        }
      ],
      "name": "TransferSingle",
      "type": "event"
    },
    {
      "anonymous": false,
      "inputs": [
        {
          "indexed": false,
          "internalType": "string",
          "name": "value",
          "type": "string"
        },
        {
          "indexed": true,
          "internalType": "uint256",
          "name": "id",
          "type": "uint256"
        }
      ],
      "name": "URI",
      "type": "event"
    },
    {
      "inputs": [
        {
          "internalType": "address[]",
          "name": "accounts",
          "type": "address[]"
        }
      ],
      "name": "addManyToKYC",
      "outputs": [],
      "stateMutability": "nonpayable",
      "type": "function"
    },
    {
      "inputs": [
        {
          "internalType": "address",
          "name": "account",
          "type": "address"
        }
      ],
      "name": "addToKYC",
      "outputs": [],
      "stateMutability": "nonpayable",
      "type": "function"
    },
    {
      "inputs": [
        {
          "internalType": "address",
          "name": "account",
          "type": "address"
        },
        {
          "internalType": "uint256",
          "name": "id",
          "type": "uint256"
        }
      ],
      "name": "balanceOf",
      "outputs": [
        {
          "internalType": "uint256",
          "name": "",
          "type": "uint256"
        }
      ],
      "stateMutability": "view",
      "type": "function"
    },
    {
      "inputs": [
        {
          "internalType": "address[]",
          "name": "accounts",
          "type": "address[]"
        },
        {
          "internalType": "uint256[]",
          "name": "ids",
          "type": "uint256[]"
        }
      ],
      "name": "balanceOfBatch",
      "outputs": [
        {
          "internalType": "uint256[]",
          "name": "",
          "type": "uint256[]"
        }
      ],
      "stateMutability": "view",
      "type": "function"
    },
    {
      "inputs": [
        {
          "internalType": "address",
          "name": "_to",
          "type": "address"
        },
        {
          "internalType": "uint256[]",
          "name": "_ids",
          "type": "uint256[]"
        },
        {
          "internalType": "uint256[]",
          "name": "_quantities",
          "type": "uint256[]"
        },
        {
          "internalType": "bytes",
          "name": "_data",
          "type": "bytes"
        }
      ],
      "name": "batchMint",
      "outputs": [],
      "stateMutability": "nonpayable",
      "type": "function"
    },
    {
      "inputs": [
        {
          "internalType": "uint256",
          "name": "_id",
          "type": "uint256"
        }
      ],
      "name": "claimBenefit",
      "outputs": [],
      "stateMutability": "nonpayable",
      "type": "function"
    },
    {
      "inputs": [],
      "name": "contractURI",
      "outputs": [
        {
          "internalType": "string",
          "name": "",
          "type": "string"
        }
      ],
      "stateMutability": "view",
      "type": "function"
    },
    {
      "inputs": [
        {
          "internalType": "address",
          "name": "_initialOwner",
          "type": "address"
        },
        {
          "internalType": "uint256",
          "name": "_initialSupply",
          "type": "uint256"
        },
        {
          "internalType": "string",
          "name": "_uri",
          "type": "string"
        },
        {
          "internalType": "address",
          "name": "_fundingToken",
          "type": "address"
        },
        {
          "internalType": "bytes",
          "name": "_data",
          "type": "bytes"
        }
      ],
      "name": "create",
      "outputs": [
        {
          "internalType": "uint256",
          "name": "",
          "type": "uint256"
        }
      ],
      "stateMutability": "nonpayable",
      "type": "function"
    },
    {
      "inputs": [
        {
          "internalType": "uint256",
          "name": "",
          "type": "uint256"
        }
      ],
      "name": "creators",
      "outputs": [
        {
          "internalType": "address",
          "name": "",
          "type": "address"
        }
      ],
      "stateMutability": "view",
      "type": "function"
    },
    {
      "inputs": [
        {
          "internalType": "uint256",
          "name": "",
          "type": "uint256"
        }
      ],
      "name": "dividendFunds",
      "outputs": [
        {
          "internalType": "uint256",
          "name": "",
          "type": "uint256"
        }
      ],
      "stateMutability": "view",
      "type": "function"
    },
    {
      "inputs": [
        {
          "internalType": "uint256",
          "name": "_id",
          "type": "uint256"
        }
      ],
      "name": "getIPOUnitPrice",
      "outputs": [
        {
          "internalType": "uint256",
          "name": "",
          "type": "uint256"
        }
      ],
      "stateMutability": "view",
      "type": "function"
    },
    {
      "inputs": [
        {
          "internalType": "string",
          "name": "_name",
          "type": "string"
        },
        {
          "internalType": "string",
          "name": "_symbol",
          "type": "string"
        },
        {
          "internalType": "string",
          "name": "_uri",
          "type": "string"
        }
      ],
      "name": "initialize",
      "outputs": [],
      "stateMutability": "nonpayable",
      "type": "function"
    },
    {
      "inputs": [
        {
          "internalType": "uint256",
          "name": "_id",
          "type": "uint256"
        },
        {
          "internalType": "uint256",
          "name": "ipoTime",
          "type": "uint256"
        },
        {
          "internalType": "uint256",
          "name": "ipoUnitPrice",
          "type": "uint256"
        },
        {
          "internalType": "uint256",
          "name": "liquidationTime",
          "type": "uint256"
        },
        {
          "internalType": "uint256",
          "name": "registerationFee",
          "type": "uint256"
        }
      ],
      "name": "initiate",
      "outputs": [],
      "stateMutability": "nonpayable",
      "type": "function"
    },
    {
      "inputs": [
        {
          "internalType": "address",
          "name": "account",
          "type": "address"
        },
        {
          "internalType": "address",
          "name": "operator",
          "type": "address"
        }
      ],
      "name": "isApprovedForAll",
      "outputs": [
        {
          "internalType": "bool",
          "name": "",
          "type": "bool"
        }
      ],
      "stateMutability": "view",
      "type": "function"
    },
    {
      "inputs": [
        {
          "internalType": "address",
          "name": "account",
          "type": "address"
        }
      ],
      "name": "isKYC",
      "outputs": [
        {
          "internalType": "bool",
          "name": "",
          "type": "bool"
        }
      ],
      "stateMutability": "view",
      "type": "function"
    },
    {
      "inputs": [
        {
          "internalType": "address",
          "name": "_to",
          "type": "address"
        },
        {
          "internalType": "uint256",
          "name": "_id",
          "type": "uint256"
        },
        {
          "internalType": "uint256",
          "name": "_quantity",
          "type": "uint256"
        },
        {
          "internalType": "bytes",
          "name": "_data",
          "type": "bytes"
        }
      ],
      "name": "mint",
      "outputs": [],
      "stateMutability": "nonpayable",
      "type": "function"
    },
    {
      "inputs": [],
      "name": "name",
      "outputs": [
        {
          "internalType": "string",
          "name": "",
          "type": "string"
        }
      ],
      "stateMutability": "view",
      "type": "function"
    },
    {
      "inputs": [],
      "name": "owner",
      "outputs": [
        {
          "internalType": "address",
          "name": "",
          "type": "address"
        }
      ],
      "stateMutability": "view",
      "type": "function"
    },
    {
      "inputs": [
        {
          "internalType": "uint256",
          "name": "_id",
          "type": "uint256"
        },
        {
          "internalType": "uint256",
          "name": "amount",
          "type": "uint256"
        }
      ],
      "name": "payDividends",
      "outputs": [],
      "stateMutability": "nonpayable",
      "type": "function"
    },
    {
      "inputs": [
        {
          "internalType": "uint256",
          "name": "_id",
          "type": "uint256"
        }
      ],
      "name": "registerBalanceOwnership",
      "outputs": [],
      "stateMutability": "nonpayable",
      "type": "function"
    },
    {
      "inputs": [
        {
          "internalType": "address",
          "name": "account",
          "type": "address"
        },
        {
          "internalType": "uint256",
          "name": "id",
          "type": "uint256"
        }
      ],
      "name": "registeredBalanceOf",
      "outputs": [
        {
          "internalType": "uint256",
          "name": "",
          "type": "uint256"
        }
      ],
      "stateMutability": "view",
      "type": "function"
    },
    {
      "inputs": [
        {
          "internalType": "address",
          "name": "account",
          "type": "address"
        }
      ],
      "name": "removeKYC",
      "outputs": [],
      "stateMutability": "nonpayable",
      "type": "function"
    },
    {
      "inputs": [
        {
          "internalType": "address[]",
          "name": "accounts",
          "type": "address[]"
        }
      ],
      "name": "removeManyKYC",
      "outputs": [],
      "stateMutability": "nonpayable",
      "type": "function"
    },
    {
      "inputs": [],
      "name": "renounceOwnership",
      "outputs": [],
      "stateMutability": "nonpayable",
      "type": "function"
    },
    {
      "inputs": [
        {
          "internalType": "address",
          "name": "from",
          "type": "address"
        },
        {
          "internalType": "address",
          "name": "to",
          "type": "address"
        },
        {
          "internalType": "uint256[]",
          "name": "ids",
          "type": "uint256[]"
        },
        {
          "internalType": "uint256[]",
          "name": "amounts",
          "type": "uint256[]"
        },
        {
          "internalType": "bytes",
          "name": "data",
          "type": "bytes"
        }
      ],
      "name": "safeBatchTransferFrom",
      "outputs": [],
      "stateMutability": "nonpayable",
      "type": "function"
    },
    {
      "inputs": [
        {
          "internalType": "address",
          "name": "from",
          "type": "address"
        },
        {
          "internalType": "address",
          "name": "to",
          "type": "address"
        },
        {
          "internalType": "uint256",
          "name": "id",
          "type": "uint256"
        },
        {
          "internalType": "uint256",
          "name": "amount",
          "type": "uint256"
        },
        {
          "internalType": "bytes",
          "name": "data",
          "type": "bytes"
        }
      ],
      "name": "safeTransferFrom",
      "outputs": [],
      "stateMutability": "nonpayable",
      "type": "function"
    },
    {
      "inputs": [
        {
          "internalType": "address",
          "name": "operator",
          "type": "address"
        },
        {
          "internalType": "bool",
          "name": "approved",
          "type": "bool"
        }
      ],
      "name": "setApprovalForAll",
      "outputs": [],
      "stateMutability": "nonpayable",
      "type": "function"
    },
    {
      "inputs": [
        {
          "internalType": "string",
          "name": "_newBaseMetadataURI",
          "type": "string"
        }
      ],
      "name": "setBaseMetadataURI",
      "outputs": [],
      "stateMutability": "nonpayable",
      "type": "function"
    },
    {
      "inputs": [
        {
          "internalType": "string",
          "name": "_uri",
          "type": "string"
        }
      ],
      "name": "setContractURI",
      "outputs": [],
      "stateMutability": "nonpayable",
      "type": "function"
    },
    {
      "inputs": [
        {
          "internalType": "address",
          "name": "_to",
          "type": "address"
        },
        {
          "internalType": "uint256[]",
          "name": "_ids",
          "type": "uint256[]"
        }
      ],
      "name": "setCreator",
      "outputs": [],
      "stateMutability": "nonpayable",
      "type": "function"
    },
    {
      "inputs": [
        {
          "internalType": "bytes4",
          "name": "interfaceId",
          "type": "bytes4"
        }
      ],
      "name": "supportsInterface",
      "outputs": [
        {
          "internalType": "bool",
          "name": "",
          "type": "bool"
        }
      ],
      "stateMutability": "view",
      "type": "function"
    },
    {
      "inputs": [],
      "name": "symbol",
      "outputs": [
        {
          "internalType": "string",
          "name": "",
          "type": "string"
        }
      ],
      "stateMutability": "view",
      "type": "function"
    },
    {
      "inputs": [
        {
          "internalType": "uint256",
          "name": "",
          "type": "uint256"
        }
      ],
      "name": "tokenMetadata",
      "outputs": [
        {
          "internalType": "uint256",
          "name": "ipoTime",
          "type": "uint256"
        },
        {
          "internalType": "uint256",
          "name": "ipoUnitPrice",
          "type": "uint256"
        },
        {
          "internalType": "uint256",
          "name": "liquidationTime",
          "type": "uint256"
        },
        {
          "internalType": "uint256",
          "name": "registerationFee",
          "type": "uint256"
        }
      ],
      "stateMutability": "view",
      "type": "function"
    },
    {
      "inputs": [
        {
          "internalType": "uint256",
          "name": "",
          "type": "uint256"
        }
      ],
      "name": "tokenSupply",
      "outputs": [
        {
          "internalType": "uint256",
          "name": "",
          "type": "uint256"
        }
      ],
      "stateMutability": "view",
      "type": "function"
    },
    {
      "inputs": [
        {
          "internalType": "uint256",
          "name": "",
          "type": "uint256"
        }
      ],
      "name": "tokenUri",
      "outputs": [
        {
          "internalType": "string",
          "name": "",
          "type": "string"
        }
      ],
      "stateMutability": "view",
      "type": "function"
    },
    {
      "inputs": [
        {
          "internalType": "uint256",
          "name": "",
          "type": "uint256"
        }
      ],
      "name": "tokenYieldData",
      "outputs": [
        {
          "internalType": "uint256",
          "name": "yieldDividend",
          "type": "uint256"
        },
        {
          "internalType": "uint256",
          "name": "liquidationExtension",
          "type": "uint256"
        }
      ],
      "stateMutability": "view",
      "type": "function"
    },
    {
      "inputs": [
        {
          "internalType": "uint256",
          "name": "_id",
          "type": "uint256"
        }
      ],
      "name": "totalSupply",
      "outputs": [
        {
          "internalType": "uint256",
          "name": "",
          "type": "uint256"
        }
      ],
      "stateMutability": "view",
      "type": "function"
    },
    {
      "inputs": [
        {
          "internalType": "address",
          "name": "newOwner",
          "type": "address"
        }
      ],
      "name": "transferOwnership",
      "outputs": [],
      "stateMutability": "nonpayable",
      "type": "function"
    },
    {
      "inputs": [
        {
          "internalType": "uint256",
          "name": "_id",
          "type": "uint256"
        },
        {
          "internalType": "uint256",
          "name": "dividend",
          "type": "uint256"
        }
      ],
      "name": "unlockDividends",
      "outputs": [],
      "stateMutability": "nonpayable",
      "type": "function"
    },
    {
      "inputs": [
        {
          "internalType": "uint256",
          "name": "_id",
          "type": "uint256"
        }
      ],
      "name": "uri",
      "outputs": [
        {
          "internalType": "string",
          "name": "",
          "type": "string"
        }
      ],
      "stateMutability": "view",
      "type": "function"
    }
  ],
  "bytecode": "0x608060405234801561001057600080fd5b5061393b806100206000396000f3fe608060405234801561001057600080fd5b50600436106102475760003560e01c80637e518ec81161013b578063cd53d08e116100b8578063e8e0b2d01161007c578063e8e0b2d0146105b5578063e985e9c5146105c8578063efe7744f14610604578063f242432a14610624578063f2fde38b1461063757600080fd5b8063cd53d08e14610522578063d1c901a41461054b578063d2a6b51a14610587578063d64e83d71461059a578063e8a3d485146105ad57600080fd5b8063a22cb465116100ff578063a22cb465146104b6578063a6487c53146104c9578063abfebaa4146104dc578063b48ab8b6146104ef578063bd85b0391461050257600080fd5b80637e518ec8146104505780638da5cb5b14610463578063938e3d7b1461048857806395d89b411461049b5780639944f518146104a357600080fd5b80633ade0a38116101c957806368a140771161018d57806368a14077146103aa5780636914db60146103cd578063715018a614610422578063731133e91461042a57806378c4acb81461043d57600080fd5b80633ade0a381461033e5780634e1273f41461035157806358cc49a514610371578063590a5ce01461038457806362214e1a1461039757600080fd5b80631675f455116102105780631675f455146102d057806322b6ccfe146102e3578063243f6b58146102f85780632693ebf21461030b5780632eb2c2d61461032b57600080fd5b8062fdd58e1461024c57806301ffc9a71461027257806306fdde03146102955780630e89341c146102aa5780631624610a146102bd575b600080fd5b61025f61025a366004612907565b61064a565b6040519081526020015b60405180910390f35b610285610280366004612947565b61065f565b6040519015158152602001610269565b61029d6106af565b60405161026991906129b8565b61029d6102b83660046129cb565b61073d565b61025f6102cb366004612907565b6107df565b61029d6102de3660046129cb565b610838565b6102f66102f13660046129e4565b610851565b005b6102f66103063660046129e4565b61089f565b61025f6103193660046129cb565b60cb6020526000908152604090205481565b6102f6610339366004612b48565b6108ea565b6102f661034c3660046129cb565b610981565b61036461035f366004612bf1565b610c4a565b6040516102699190612cf6565b6102f661037f3660046129cb565b610d73565b6102f6610392366004612d09565b611121565b61025f6103a5366004612d73565b611206565b61025f6103b83660046129cb565b600090815260d3602052604090206001015490565b6104026103db3660046129cb565b60d36020526000908152604090208054600182015460028301546003909301549192909184565b604080519485526020850193909352918301526060820152608001610269565b6102f66113f0565b6102f6610438366004612e10565b611426565b6102f661044b366004612e70565b61149c565b6102f661045e366004612ee4565b61153d565b60ce546001600160a01b03165b6040516001600160a01b039091168152602001610269565b6102f6610496366004612ee4565b611573565b61029d6115b4565b6102856104b13660046129e4565b6115c1565b6102f66104c4366004612f2e565b6115f5565b6102f66104d7366004612f65565b611600565b6102f66104ea366004612fec565b6116cb565b6102f66104fd366004613027565b61174d565b61025f6105103660046129cb565b600090815260cb602052604090205490565b6104706105303660046129cb565b60ca602052600090815260409020546001600160a01b031681565b6105726105593660046129cb565b60d4602052600090815260409020805460019091015482565b60408051928352602083019190915201610269565b6102f66105953660046130b3565b6118dc565b6102f66105a8366004612e70565b61198e565b61029d611a2a565b6102f66105c3366004612d09565b611abc565b6102856105d63660046130f6565b6001600160a01b03918216600090815260986020908152604080832093909416825291909152205460ff1690565b61025f6106123660046129cb565b60d66020526000908152604090205481565b6102f6610632366004613129565b611bb5565b6102f66106453660046129e4565b611c3c565b60006106568383611cd4565b90505b92915050565b60006001600160e01b03198216636cdb3d1360e11b148061069057506001600160e01b031982166303a24d0760e21b145b8061065957506301ffc9a760e01b6001600160e01b0319831614610659565b60cf80546106bc9061318d565b80601f01602080910402602001604051908101604052809291908181526020018280546106e89061318d565b80156107355780601f1061070a57610100808354040283529160200191610735565b820191906000526020600020905b81548152906001019060200180831161071857829003601f168201915b505050505081565b600081815260cc6020526040902080546060919061075a9061318d565b80601f01602080910402602001604051908101604052809291908181526020018280546107869061318d565b80156107d35780601f106107a8576101008083540402835291602001916107d3565b820191906000526020600020905b8154815290600101906020018083116107b657829003601f168201915b50505050509050919050565b60006001600160a01b0383166108105760405162461bcd60e51b8152600401610807906131c8565b60405180910390fd5b50600090815260d8602090815260408083206001600160a01b03949094168352929052205490565b60cc60205260009081526040902080546106bc9061318d565b60d2546001600160a01b0316331461087b5760405162461bcd60e51b815260040161080790613213565b6001600160a01b0316600090815260d160205260409020805460ff19166001179055565b60d2546001600160a01b031633146108c95760405162461bcd60e51b815260040161080790613213565b6001600160a01b0316600090815260d160205260409020805460ff19169055565b6001600160a01b038516331480610906575061090685336105d6565b61096d5760405162461bcd60e51b815260206004820152603260248201527f455243313135353a207472616e736665722063616c6c6572206973206e6f74206044820152711bdddb995c881b9bdc88185c1c1c9bdd995960721b6064820152608401610807565b61097a8585858585611d24565b5050505050565b33600090815260d1602052604090205460ff166109ce5760405162461bcd60e51b815260206004820152600b60248201526a4e6f7420796574204b594360a81b6044820152606401610807565b8060006109db338361064a565b116109f85760405162461bcd60e51b815260040161080790613255565b600082815260d36020908152604080832081516080810183528154815260018201549381019390935260028101549183019190915260030154606082015290610a41338561064a565b600085815260d86020908152604080832033845290915281205491925090610a6a908390611ec3565b905060008111610abc5760405162461bcd60e51b815260206004820152601c60248201527f524549544e46543a204e6f7468696e6720746f207265676973746572000000006044820152606401610807565b600085815260d76020908152604080832054815163313ce56760e01b815291516001600160a01b039091169392610b8092859263313ce56792600480840193919291829003018186803b158015610b1257600080fd5b505afa158015610b26573d6000803e3d6000fd5b505050506040513d601f19601f82011682018060405250810190610b4a91906132a5565b610b5590600a6133c2565b610b7a8760600151610b74896020015188611ecf90919063ffffffff16565b90611ecf565b90611edb565b6040516323b872dd60e01b8152336004820152306024820152604481018290529091506001600160a01b038316906323b872dd90606401602060405180830381600087803b158015610bd157600080fd5b505af1158015610be5573d6000803e3d6000fd5b505050506040513d601f19601f82011682018060405250810190610c0991906133d1565b610c255760405162461bcd60e51b8152600401610807906133ee565b505050600093845260d860209081526040808620338752909152909320929092555050565b60608151835114610caf5760405162461bcd60e51b815260206004820152602960248201527f455243313135353a206163636f756e747320616e6420696473206c656e677468604482015268040dad2e6dac2e8c6d60bb1b6064820152608401610807565b600083516001600160401b03811115610cca57610cca6129ff565b604051908082528060200260200182016040528015610cf3578160200160208202803683370190505b50905060005b8451811015610d6b57610d3e858281518110610d1757610d17613423565b6020026020010151858381518110610d3157610d31613423565b602002602001015161064a565b828281518110610d5057610d50613423565b6020908102919091010152610d6481613439565b9050610cf9565b509392505050565b33600090815260d1602052604090205460ff16610dc05760405162461bcd60e51b815260206004820152600b60248201526a4e6f7420796574204b594360a81b6044820152606401610807565b806000610dcd338361064a565b11610dea5760405162461bcd60e51b815260040161080790613255565b60026001541415610e3d5760405162461bcd60e51b815260206004820152601f60248201527f5265656e7472616e637947756172643a207265656e7472616e742063616c6c006044820152606401610807565b60026001908155600083815260d46020908152604080832081518083018352815481529401548483015285835260d5825280832033845290915290205460ff16610ebb57600083815260d5602090815260408083203380855292528220805460016001600160a81b0319909116610100909302929092178217815501555b600083815260d56020908152604080832033845282528083208151606081018352815460ff81161515825261010090046001600160a01b031681850152600190910154818301819052855188865260d8909452918420909392610f4c9291610f46919085610f263390565b6001600160a01b0316815260208101919091526040016000205490611ecf565b90611ec3565b905060008111610f9e5760405162461bcd60e51b815260206004820181905260248201527f524549544e46543a206e6f206d6f726520636c61696d61626c65207969656c646044820152606401610807565b600085815260d660205260409020548181101561100d5760405162461bcd60e51b815260206004820152602760248201527f524549544e46543a206e656564206d6f72652066756e64696e67732066726f6d6044820152661034b9b9bab2b960c91b6064820152608401610807565b600086815260d660205260409020546110269083611ec3565b600087815260d6602052604090819020919091558301516110479083611ee7565b600087815260d560209081526040808320338085529083528184206001019490945589835260d79091529081902054905163a9059cbb60e01b81526004810192909252602482018490526001600160a01b031690819063a9059cbb90604401602060405180830381600087803b1580156110c057600080fd5b505af11580156110d4573d6000803e3d6000fd5b505050506040513d601f19601f820116820180604052508101906110f891906133d1565b6111145760405162461bcd60e51b8152600401610807906133ee565b5050600180555050505050565b600082815260d76020526040908190205490516323b872dd60e01b8152336004820152306024820152604481018390526001600160a01b039091169081906323b872dd90606401602060405180830381600087803b15801561118257600080fd5b505af1158015611196573d6000803e3d6000fd5b505050506040513d601f19601f820116820180604052508101906111ba91906133d1565b6111d65760405162461bcd60e51b8152600401610807906133ee565b600083815260d660205260409020546111ef9083611ee7565b600093845260d66020526040909320929092555050565b60ce546000906001600160a01b031633146112335760405162461bcd60e51b815260040161080790613454565b600061123d611ef3565b9050611247611f09565b600081815260ca6020526040902080546001600160a01b0319163317905585156112c057807f6bb7ff708619ba0610cba295a58592e0451dee2622938c8755667688daf3529b888860405161129d929190613489565b60405180910390a2600081815260cc602052604090206112be9088886127e3565b505b600081815260d76020908152604080832080546001600160a01b0319166001600160a01b038a1617905580516080810182528381528083018481528183018581526060830186815287875260d386528487209351845591516001848101919091559051600284015590516003909201919091558151808301835284815280840185815286865260d48552948390209051815593519301929092558151601f8601829004820281018201909252848252611399918b9184918c91899089908190840183828082843760009201919091525061142692505050565b600081815260cb602052604090819020899055517f07eac9a0695a188fe9d6fd680bcbbbe39041fb114d5d7ac11252401391f79307906113dc9083815260200190565b60405180910390a198975050505050505050565b60ce546001600160a01b0316331461141a5760405162461bcd60e51b815260040161080790613454565b6114246000611f20565b565b600083815260ca602052604090205483906001600160a01b0316331461145e5760405162461bcd60e51b8152600401610807906134b8565b61146a85858585611f72565b600084815260cb60205260409020546114839084611ee7565b600094855260cb60205260409094209390935550505050565b60d2546001600160a01b031633146114c65760405162461bcd60e51b815260040161080790613213565b60005b8181101561153857600160d160008585858181106114e9576114e9613423565b90506020020160208101906114fe91906129e4565b6001600160a01b031681526020810191909152604001600020805460ff19169115159190911790558061153081613439565b9150506114c9565b505050565b60ce546001600160a01b031633146115675760405162461bcd60e51b815260040161080790613454565b6115708161204e565b50565b60ce546001600160a01b0316331461159d5760405162461bcd60e51b815260040161080790613454565b80516115b09060cd906020840190612867565b5050565b60d080546106bc9061318d565b60006001600160a01b0382166115d657600080fd5b506001600160a01b0316600090815260d1602052604090205460ff1690565b6115b0338383612061565b600061160c6001612142565b90508015611624576000805461ff0019166101001790555b61162d826121cf565b6116356121ff565b61163e33611f20565b83516116519060cf906020870190612867565b5082516116659060d0906020860190612867565b50600060c955815161167e9060cd906020850190612867565b5080156116c5576000805461ff0019169055604051600181527f7f26b83ff96e1f2b6a682f133852f6798a09c465da95921460cefb38474024989060200160405180910390a15b50505050565b600085815260ca602052604090205485906001600160a01b031633146117035760405162461bcd60e51b8152600401610807906134b8565b5060408051608081018252948552602080860194855285820193845260608601928352600096875260d3905290942092518355905160018301555160028201559051600390910155565b81518351146117b75760405162461bcd60e51b815260206004820152603060248201527f455243313135354d696e744275726e2362617463684d696e743a20494e56414c60448201526f09288be82a4a482b2a6be988a9c8ea8960831b6064820152608401610807565b60005b83518110156118cf5760008482815181106117d7576117d7613423565b602090810291909101810151600081815260ca9092526040909120549091506001600160a01b031633146118655760405162461bcd60e51b815260206004820152602f60248201527f455243313135355472616461626c652362617463684d696e743a204f4e4c595f60448201526e10d491505513d497d0531313d5d151608a1b6064820152608401610807565b600084838151811061187957611879613423565b602002602001015190506118a98160cb600085815260200190815260200160002054611ee790919063ffffffff16565b600092835260cb60205260409092209190915550806118c781613439565b9150506117ba565b506116c58484848461222e565b6001600160a01b0382166119475760405162461bcd60e51b815260206004820152602c60248201527f455243313135355472616461626c652373657443726561746f723a20494e564160448201526b2624a22fa0a2222922a9a99760a11b6064820152608401610807565b60005b815181101561153857600082828151811061196757611967613423565b6020026020010151905061197b848261237a565b508061198681613439565b91505061194a565b60d2546001600160a01b031633146119b85760405162461bcd60e51b815260040161080790613213565b60005b8181101561153857600060d160008585858181106119db576119db613423565b90506020020160208101906119f091906129e4565b6001600160a01b031681526020810191909152604001600020805460ff191691151591909117905580611a2281613439565b9150506119bb565b606060cd8054611a399061318d565b80601f0160208091040260200160405190810160405280929190818152602001828054611a659061318d565b8015611ab25780601f10611a8757610100808354040283529160200191611ab2565b820191906000526020600020905b815481529060010190602001808311611a9557829003601f168201915b5050505050905090565b600082815260ca602052604090205482906001600160a01b03163314611af45760405162461bcd60e51b8152600401610807906134b8565b600083815260d46020526040812054611b0d9084611ee7565b600085815260cb6020526040812054919250611b298284611ecf565b600087815260d6602052604090205490915080821115611b9b5760405162461bcd60e51b815260206004820152602760248201527f4e6f7420656e6f7567682066756e64696e6720746f2070617920616c6c206469604482015266766964656e647360c81b6064820152608401610807565b505050600093845260d46020526040909320929092555050565b6001600160a01b038516331480611bd15750611bd185336105d6565b611c2f5760405162461bcd60e51b815260206004820152602960248201527f455243313135353a2063616c6c6572206973206e6f74206f776e6572206e6f7260448201526808185c1c1c9bdd995960ba1b6064820152608401610807565b61097a85858585856123e1565b60ce546001600160a01b03163314611c665760405162461bcd60e51b815260040161080790613454565b6001600160a01b038116611ccb5760405162461bcd60e51b815260206004820152602660248201527f4f776e61626c653a206e6577206f776e657220697320746865207a65726f206160448201526564647265737360d01b6064820152608401610807565b61157081611f20565b60006001600160a01b038316611cfc5760405162461bcd60e51b8152600401610807906131c8565b5060009081526097602090815260408083206001600160a01b03949094168352929052205490565b8151835114611d455760405162461bcd60e51b815260040161080790613509565b6001600160a01b038416611d6b5760405162461bcd60e51b815260040161080790613551565b3360005b8451811015611e55576000858281518110611d8c57611d8c613423565b602002602001015190506000858381518110611daa57611daa613423565b60209081029190910181015160008481526097835260408082206001600160a01b038e168352909352919091205490915081811015611dfb5760405162461bcd60e51b815260040161080790613596565b60008381526097602090815260408083206001600160a01b038e8116855292528083208585039055908b16825281208054849290611e3a9084906135e0565b9250508190555050505080611e4e90613439565b9050611d6f565b50846001600160a01b0316866001600160a01b0316826001600160a01b03167f4a39dc06d4c0dbc64b70af90fd698a233a518aa5d07e595d983b8c0526c8f7fb8787604051611ea59291906135f8565b60405180910390a4611ebb81878787878761250f565b505050505050565b60006106568284613626565b6000610656828461363d565b6000610656828461365c565b600061065682846135e0565b60c954600090611f04906001611ee7565b905090565b60c98054906000611f1983613439565b9190505550565b60ce80546001600160a01b038381166001600160a01b0319831681179093556040519116919082907f8be0079c531659141344cd1fd0a4f28419497f9722a3daafe3b4186f6b6457e090600090a35050565b6001600160a01b038416611f985760405162461bcd60e51b81526004016108079061367e565b336000611fa48561267a565b90506000611fb18561267a565b905060008681526097602090815260408083206001600160a01b038b16845290915281208054879290611fe59084906135e0565b909155505060408051878152602081018790526001600160a01b03808a1692600092918716917fc3d58168c5ae7397731d063d5bbf3d657854427343f4c083240f7aacaa2d0f62910160405180910390a4612045836000898989896126c5565b50505050505050565b80516115b0906099906020840190612867565b816001600160a01b0316836001600160a01b031614156120d55760405162461bcd60e51b815260206004820152602960248201527f455243313135353a2073657474696e6720617070726f76616c20737461747573604482015268103337b91039b2b63360b91b6064820152608401610807565b6001600160a01b03838116600081815260986020908152604080832094871680845294825291829020805460ff191686151590811790915591519182527f17307eab39ab6107e8899845ad3d59bd9653f200f220920489ca2b5937696c31910160405180910390a3505050565b60008054610100900460ff1615612189578160ff1660011480156121655750303b155b6121815760405162461bcd60e51b8152600401610807906136bf565b506000919050565b60005460ff8084169116106121b05760405162461bcd60e51b8152600401610807906136bf565b506000805460ff191660ff92909216919091179055600190565b919050565b600054610100900460ff166121f65760405162461bcd60e51b81526004016108079061370d565b6115708161278f565b600054610100900460ff166122265760405162461bcd60e51b81526004016108079061370d565b6114246127b6565b6001600160a01b0384166122545760405162461bcd60e51b81526004016108079061367e565b81518351146122755760405162461bcd60e51b815260040161080790613509565b3360005b84518110156123125783818151811061229457612294613423565b6020026020010151609760008784815181106122b2576122b2613423565b602002602001015181526020019081526020016000206000886001600160a01b03166001600160a01b0316815260200190815260200160002060008282546122fa91906135e0565b9091555081905061230a81613439565b915050612279565b50846001600160a01b031660006001600160a01b0316826001600160a01b03167f4a39dc06d4c0dbc64b70af90fd698a233a518aa5d07e595d983b8c0526c8f7fb87876040516123639291906135f8565b60405180910390a461097a8160008787878761250f565b600081815260ca602052604090205481906001600160a01b031633146123b25760405162461bcd60e51b8152600401610807906134b8565b50600090815260ca6020526040902080546001600160a01b0319166001600160a01b0392909216919091179055565b6001600160a01b0384166124075760405162461bcd60e51b815260040161080790613551565b3360006124138561267a565b905060006124208561267a565b905060008681526097602090815260408083206001600160a01b038c168452909152902054858110156124655760405162461bcd60e51b815260040161080790613596565b60008781526097602090815260408083206001600160a01b038d8116855292528083208985039055908a168252812080548892906124a49084906135e0565b909155505060408051888152602081018890526001600160a01b03808b16928c821692918816917fc3d58168c5ae7397731d063d5bbf3d657854427343f4c083240f7aacaa2d0f62910160405180910390a4612504848a8a8a8a8a6126c5565b505050505050505050565b6001600160a01b0384163b15611ebb5760405163bc197c8160e01b81526001600160a01b0385169063bc197c81906125539089908990889088908890600401613758565b602060405180830381600087803b15801561256d57600080fd5b505af192505050801561259d575060408051601f3d908101601f1916820190925261259a918101906137b6565b60015b61264a576125a96137d3565b806308c379a014156125e357506125be6137ef565b806125c957506125e5565b8060405162461bcd60e51b815260040161080791906129b8565b505b60405162461bcd60e51b815260206004820152603460248201527f455243313135353a207472616e7366657220746f206e6f6e20455243313135356044820152732932b1b2b4bb32b91034b6b83632b6b2b73a32b960611b6064820152608401610807565b6001600160e01b0319811663bc197c8160e01b146120455760405162461bcd60e51b815260040161080790613878565b604080516001808252818301909252606091600091906020808301908036833701905050905082816000815181106126b4576126b4613423565b602090810291909101015292915050565b6001600160a01b0384163b15611ebb5760405163f23a6e6160e01b81526001600160a01b0385169063f23a6e619061270990899089908890889088906004016138c0565b602060405180830381600087803b15801561272357600080fd5b505af1925050508015612753575060408051601f3d908101601f19168201909252612750918101906137b6565b60015b61275f576125a96137d3565b6001600160e01b0319811663f23a6e6160e01b146120455760405162461bcd60e51b815260040161080790613878565b600054610100900460ff166115675760405162461bcd60e51b81526004016108079061370d565b600054610100900460ff166127dd5760405162461bcd60e51b81526004016108079061370d565b60018055565b8280546127ef9061318d565b90600052602060002090601f0160209004810192826128115760008555612857565b82601f1061282a5782800160ff19823516178555612857565b82800160010185558215612857579182015b8281111561285757823582559160200191906001019061283c565b506128639291506128db565b5090565b8280546128739061318d565b90600052602060002090601f0160209004810192826128955760008555612857565b82601f106128ae57805160ff1916838001178555612857565b82800160010185558215612857579182015b828111156128575782518255916020019190600101906128c0565b5b8082111561286357600081556001016128dc565b80356001600160a01b03811681146121ca57600080fd5b6000806040838503121561291a57600080fd5b612923836128f0565b946020939093013593505050565b6001600160e01b03198116811461157057600080fd5b60006020828403121561295957600080fd5b813561296481612931565b9392505050565b6000815180845260005b8181101561299157602081850181015186830182015201612975565b818111156129a3576000602083870101525b50601f01601f19169290920160200192915050565b602081526000610656602083018461296b565b6000602082840312156129dd57600080fd5b5035919050565b6000602082840312156129f657600080fd5b610656826128f0565b634e487b7160e01b600052604160045260246000fd5b601f8201601f191681016001600160401b0381118282101715612a3a57612a3a6129ff565b6040525050565b60006001600160401b03821115612a5a57612a5a6129ff565b5060051b60200190565b600082601f830112612a7557600080fd5b81356020612a8282612a41565b604051612a8f8282612a15565b83815260059390931b8501820192828101915086841115612aaf57600080fd5b8286015b84811015612aca5780358352918301918301612ab3565b509695505050505050565b600082601f830112612ae657600080fd5b81356001600160401b03811115612aff57612aff6129ff565b604051612b16601f8301601f191660200182612a15565b818152846020838601011115612b2b57600080fd5b816020850160208301376000918101602001919091529392505050565b600080600080600060a08688031215612b6057600080fd5b612b69866128f0565b9450612b77602087016128f0565b935060408601356001600160401b0380821115612b9357600080fd5b612b9f89838a01612a64565b94506060880135915080821115612bb557600080fd5b612bc189838a01612a64565b93506080880135915080821115612bd757600080fd5b50612be488828901612ad5565b9150509295509295909350565b60008060408385031215612c0457600080fd5b82356001600160401b0380821115612c1b57600080fd5b818501915085601f830112612c2f57600080fd5b81356020612c3c82612a41565b604051612c498282612a15565b83815260059390931b8501820192828101915089841115612c6957600080fd5b948201945b83861015612c8e57612c7f866128f0565b82529482019490820190612c6e565b96505086013592505080821115612ca457600080fd5b50612cb185828601612a64565b9150509250929050565b600081518084526020808501945080840160005b83811015612ceb57815187529582019590820190600101612ccf565b509495945050505050565b6020815260006106566020830184612cbb565b60008060408385031215612d1c57600080fd5b50508035926020909101359150565b60008083601f840112612d3d57600080fd5b5081356001600160401b03811115612d5457600080fd5b602083019150836020828501011115612d6c57600080fd5b9250929050565b600080600080600080600060a0888a031215612d8e57600080fd5b612d97886128f0565b96506020880135955060408801356001600160401b0380821115612dba57600080fd5b612dc68b838c01612d2b565b9097509550859150612dda60608b016128f0565b945060808a0135915080821115612df057600080fd5b50612dfd8a828b01612d2b565b989b979a50959850939692959293505050565b60008060008060808587031215612e2657600080fd5b612e2f856128f0565b9350602085013592506040850135915060608501356001600160401b03811115612e5857600080fd5b612e6487828801612ad5565b91505092959194509250565b60008060208385031215612e8357600080fd5b82356001600160401b0380821115612e9a57600080fd5b818501915085601f830112612eae57600080fd5b813581811115612ebd57600080fd5b8660208260051b8501011115612ed257600080fd5b60209290920196919550909350505050565b600060208284031215612ef657600080fd5b81356001600160401b03811115612f0c57600080fd5b612f1884828501612ad5565b949350505050565b801515811461157057600080fd5b60008060408385031215612f4157600080fd5b612f4a836128f0565b91506020830135612f5a81612f20565b809150509250929050565b600080600060608486031215612f7a57600080fd5b83356001600160401b0380821115612f9157600080fd5b612f9d87838801612ad5565b94506020860135915080821115612fb357600080fd5b612fbf87838801612ad5565b93506040860135915080821115612fd557600080fd5b50612fe286828701612ad5565b9150509250925092565b600080600080600060a0868803121561300457600080fd5b505083359560208501359550604085013594606081013594506080013592509050565b6000806000806080858703121561303d57600080fd5b613046856128f0565b935060208501356001600160401b038082111561306257600080fd5b61306e88838901612a64565b9450604087013591508082111561308457600080fd5b61309088838901612a64565b935060608701359150808211156130a657600080fd5b50612e6487828801612ad5565b600080604083850312156130c657600080fd5b6130cf836128f0565b915060208301356001600160401b038111156130ea57600080fd5b612cb185828601612a64565b6000806040838503121561310957600080fd5b613112836128f0565b9150613120602084016128f0565b90509250929050565b600080600080600060a0868803121561314157600080fd5b61314a866128f0565b9450613158602087016128f0565b9350604086013592506060860135915060808601356001600160401b0381111561318157600080fd5b612be488828901612ad5565b600181811c908216806131a157607f821691505b602082108114156131c257634e487b7160e01b600052602260045260246000fd5b50919050565b6020808252602b908201527f455243313135353a2062616c616e636520717565727920666f7220746865207a60408201526a65726f206164647265737360a81b606082015260800190565b60208082526022908201527f4b59434163636573733a2063616c6c6572206973206e6f74207468652061646d60408201526134b760f11b606082015260800190565b60208082526030908201527f455243313135355472616461626c6523686f6c646572734f6e6c793a204f4e4c60408201526f1657d3d5d3915494d7d0531313d5d15160821b606082015260800190565b6000602082840312156132b757600080fd5b815160ff8116811461296457600080fd5b634e487b7160e01b600052601160045260246000fd5b600181815b808511156133195781600019048211156132ff576132ff6132c8565b8085161561330c57918102915b93841c93908002906132e3565b509250929050565b60008261333057506001610659565b8161333d57506000610659565b8160018114613353576002811461335d57613379565b6001915050610659565b60ff84111561336e5761336e6132c8565b50506001821b610659565b5060208310610133831016604e8410600b841016171561339c575081810a610659565b6133a683836132de565b80600019048211156133ba576133ba6132c8565b029392505050565b600061065660ff841683613321565b6000602082840312156133e357600080fd5b815161296481612f20565b6020808252818101527f524549544e46543a20436f756c64206e6f74207472616e736665722066756e64604082015260600190565b634e487b7160e01b600052603260045260246000fd5b600060001982141561344d5761344d6132c8565b5060010190565b6020808252818101527f4f776e61626c653a2063616c6c6572206973206e6f7420746865206f776e6572604082015260600190565b60208152816020820152818360408301376000818301604090810191909152601f909201601f19160101919050565b60208082526031908201527f455243313135355472616461626c652363726561746f724f6e6c793a204f4e4c6040820152701657d0d491505513d497d0531313d5d151607a1b606082015260800190565b60208082526028908201527f455243313135353a2069647320616e6420616d6f756e7473206c656e677468206040820152670dad2e6dac2e8c6d60c31b606082015260800190565b60208082526025908201527f455243313135353a207472616e7366657220746f20746865207a65726f206164604082015264647265737360d81b606082015260800190565b6020808252602a908201527f455243313135353a20696e73756666696369656e742062616c616e636520666f60408201526939103a3930b739b332b960b11b606082015260800190565b600082198211156135f3576135f36132c8565b500190565b60408152600061360b6040830185612cbb565b828103602084015261361d8185612cbb565b95945050505050565b600082821015613638576136386132c8565b500390565b6000816000190483118215151615613657576136576132c8565b500290565b60008261367957634e487b7160e01b600052601260045260246000fd5b500490565b60208082526021908201527f455243313135353a206d696e7420746f20746865207a65726f206164647265736040820152607360f81b606082015260800190565b6020808252602e908201527f496e697469616c697a61626c653a20636f6e747261637420697320616c72656160408201526d191e481a5b9a5d1a585b1a5e995960921b606082015260800190565b6020808252602b908201527f496e697469616c697a61626c653a20636f6e7472616374206973206e6f74206960408201526a6e697469616c697a696e6760a81b606082015260800190565b6001600160a01b0386811682528516602082015260a06040820181905260009061378490830186612cbb565b82810360608401526137968186612cbb565b905082810360808401526137aa818561296b565b98975050505050505050565b6000602082840312156137c857600080fd5b815161296481612931565b600060033d11156137ec5760046000803e5060005160e01c5b90565b600060443d10156137fd5790565b6040516003193d81016004833e81513d6001600160401b03816024840111818411171561382c57505050505090565b82850191508151818111156138445750505050505090565b843d870101602082850101111561385e5750505050505090565b61386d60208286010187612a15565b509095945050505050565b60208082526028908201527f455243313135353a204552433131353552656365697665722072656a656374656040820152676420746f6b656e7360c01b606082015260800190565b6001600160a01b03868116825285166020820152604081018490526060810183905260a0608082018190526000906138fa9083018461296b565b97965050505050505056fea2646970667358221220d0916246bfc17815d9a4c54d9f4e9ee3ccc2d4eba99b9632f628e8a99a4cef0164736f6c63430008090033",
  "linkReferences": {},
  "deployedLinkReferences": {}
}