{
  "_format": "hh-sol-artifact-1",
  "contractName": "REITNFT",
  "sourceName": "contracts/REITNFT.sol",
  "abi": [
    {
      "anonymous": false,
      "inputs": [
        {
          "indexed": true,
          "internalType": "address",
          "name": "account",
          "type": "address"
        },
        {
          "indexed": true,
          "internalType": "address",
          "name": "operator",
          "type": "address"
        },
        {
          "indexed": false,
          "internalType": "bool",
          "name": "approved",
          "type": "bool"
        }
      ],
      "name": "ApprovalForAll",
      "type": "event"
    },
    {
      "anonymous": false,
      "inputs": [
        {
          "indexed": false,
          "internalType": "uint256",
          "name": "id",
          "type": "uint256"
        },
        {
          "indexed": false,
          "internalType": "address",
          "name": "creator",
          "type": "address"
        }
      ],
      "name": "Create",
      "type": "event"
    },
    {
      "anonymous": false,
      "inputs": [
        {
          "indexed": true,
          "internalType": "address",
          "name": "previousGovernor",
          "type": "address"
        },
        {
          "indexed": true,
          "internalType": "address",
          "name": "newGovernor",
          "type": "address"
        }
      ],
      "name": "GovernorshipTransferred",
      "type": "event"
    },
    {
      "anonymous": false,
      "inputs": [
        {
          "indexed": false,
          "internalType": "uint8",
          "name": "version",
          "type": "uint8"
        }
      ],
      "name": "Initialized",
      "type": "event"
    },
    {
      "anonymous": false,
      "inputs": [
        {
          "indexed": true,
          "internalType": "address",
          "name": "operator",
          "type": "address"
        },
        {
          "indexed": true,
          "internalType": "address",
          "name": "from",
          "type": "address"
        },
        {
          "indexed": true,
          "internalType": "address",
          "name": "to",
          "type": "address"
        },
        {
          "indexed": false,
          "internalType": "uint256[]",
          "name": "ids",
          "type": "uint256[]"
        },
        {
          "indexed": false,
          "internalType": "uint256[]",
          "name": "values",
          "type": "uint256[]"
        }
      ],
      "name": "TransferBatch",
      "type": "event"
    },
    {
      "anonymous": false,
      "inputs": [
        {
          "indexed": true,
          "internalType": "address",
          "name": "operator",
          "type": "address"
        },
        {
          "indexed": true,
          "internalType": "address",
          "name": "from",
          "type": "address"
        },
        {
          "indexed": true,
          "internalType": "address",
          "name": "to",
          "type": "address"
        },
        {
          "indexed": false,
          "internalType": "uint256",
          "name": "id",
          "type": "uint256"
        },
        {
          "indexed": false,
          "internalType": "uint256",
          "name": "value",
          "type": "uint256"
        }
      ],
      "name": "TransferSingle",
      "type": "event"
    },
    {
      "anonymous": false,
      "inputs": [
        {
          "indexed": false,
          "internalType": "string",
          "name": "value",
          "type": "string"
        },
        {
          "indexed": true,
          "internalType": "uint256",
          "name": "id",
          "type": "uint256"
        }
      ],
      "name": "URI",
      "type": "event"
    },
    {
      "inputs": [
        {
          "internalType": "address[]",
          "name": "accounts",
          "type": "address[]"
        }
      ],
      "name": "addManyToKYC",
      "outputs": [],
      "stateMutability": "nonpayable",
      "type": "function"
    },
    {
      "inputs": [
        {
          "internalType": "address",
          "name": "account",
          "type": "address"
        }
      ],
      "name": "addToKYC",
      "outputs": [],
      "stateMutability": "nonpayable",
      "type": "function"
    },
    {
      "inputs": [
        {
          "internalType": "uint256",
          "name": "id",
          "type": "uint256"
        },
        {
          "internalType": "address[]",
          "name": "accounts",
          "type": "address[]"
        }
      ],
      "name": "allowLiquidationClaims",
      "outputs": [],
      "stateMutability": "nonpayable",
      "type": "function"
    },
    {
      "inputs": [
        {
          "internalType": "address",
          "name": "account",
          "type": "address"
        },
        {
          "internalType": "uint256",
          "name": "id",
          "type": "uint256"
        }
      ],
      "name": "balanceOf",
      "outputs": [
        {
          "internalType": "uint256",
          "name": "",
          "type": "uint256"
        }
      ],
      "stateMutability": "view",
      "type": "function"
    },
    {
      "inputs": [
        {
          "internalType": "address[]",
          "name": "accounts",
          "type": "address[]"
        },
        {
          "internalType": "uint256[]",
          "name": "ids",
          "type": "uint256[]"
        }
      ],
      "name": "balanceOfBatch",
      "outputs": [
        {
          "internalType": "uint256[]",
          "name": "",
          "type": "uint256[]"
        }
      ],
      "stateMutability": "view",
      "type": "function"
    },
    {
      "inputs": [
        {
          "internalType": "address",
          "name": "_to",
          "type": "address"
        },
        {
          "internalType": "uint256[]",
          "name": "_ids",
          "type": "uint256[]"
        },
        {
          "internalType": "uint256[]",
          "name": "_quantities",
          "type": "uint256[]"
        },
        {
          "internalType": "bytes",
          "name": "_data",
          "type": "bytes"
        }
      ],
      "name": "batchMint",
      "outputs": [],
      "stateMutability": "nonpayable",
      "type": "function"
    },
    {
      "inputs": [
        {
          "internalType": "uint256",
          "name": "id",
          "type": "uint256"
        }
      ],
      "name": "claimDividends",
      "outputs": [],
      "stateMutability": "nonpayable",
      "type": "function"
    },
    {
      "inputs": [
        {
          "internalType": "uint256",
          "name": "id",
          "type": "uint256"
        }
      ],
      "name": "claimLiquidations",
      "outputs": [],
      "stateMutability": "nonpayable",
      "type": "function"
    },
    {
      "inputs": [],
      "name": "contractURI",
      "outputs": [
        {
          "internalType": "string",
          "name": "",
          "type": "string"
        }
      ],
      "stateMutability": "view",
      "type": "function"
    },
    {
      "inputs": [
        {
          "internalType": "address",
          "name": "_initialOwner",
          "type": "address"
        },
        {
          "internalType": "uint256",
          "name": "_initialSupply",
          "type": "uint256"
        },
        {
          "internalType": "string",
          "name": "_uri",
          "type": "string"
        },
        {
          "internalType": "address",
          "name": "_fundingToken",
          "type": "address"
        },
        {
          "internalType": "bytes",
          "name": "_data",
          "type": "bytes"
        }
      ],
      "name": "createREIT",
      "outputs": [
        {
          "internalType": "uint256",
          "name": "",
          "type": "uint256"
        }
      ],
      "stateMutability": "nonpayable",
      "type": "function"
    },
    {
      "inputs": [
        {
          "internalType": "uint256",
          "name": "",
          "type": "uint256"
        }
      ],
      "name": "creators",
      "outputs": [
        {
          "internalType": "address",
          "name": "",
          "type": "address"
        }
      ],
      "stateMutability": "view",
      "type": "function"
    },
    {
      "inputs": [
        {
          "internalType": "uint256",
          "name": "id",
          "type": "uint256"
        },
        {
          "internalType": "uint256",
          "name": "amount",
          "type": "uint256"
        }
      ],
      "name": "fundDividendVault",
      "outputs": [],
      "stateMutability": "nonpayable",
      "type": "function"
    },
    {
      "inputs": [
        {
          "internalType": "uint256",
          "name": "id",
          "type": "uint256"
        },
        {
          "internalType": "uint256",
          "name": "amount",
          "type": "uint256"
        }
      ],
      "name": "fundLiquidationVault",
      "outputs": [],
      "stateMutability": "nonpayable",
      "type": "function"
    },
    {
      "inputs": [
        {
          "internalType": "uint256",
          "name": "id",
          "type": "uint256"
        }
      ],
      "name": "getClaimableLiquidations",
      "outputs": [
        {
          "internalType": "uint256",
          "name": "",
          "type": "uint256"
        }
      ],
      "stateMutability": "view",
      "type": "function"
    },
    {
      "inputs": [
        {
          "internalType": "uint256",
          "name": "id",
          "type": "uint256"
        }
      ],
      "name": "getClaimedDividends",
      "outputs": [
        {
          "internalType": "uint256",
          "name": "",
          "type": "uint256"
        }
      ],
      "stateMutability": "view",
      "type": "function"
    },
    {
      "inputs": [
        {
          "internalType": "uint256",
          "name": "id",
          "type": "uint256"
        }
      ],
      "name": "getClaimedLiquidations",
      "outputs": [
        {
          "internalType": "uint256",
          "name": "",
          "type": "uint256"
        }
      ],
      "stateMutability": "view",
      "type": "function"
    },
    {
      "inputs": [
        {
          "internalType": "uint256",
          "name": "id",
          "type": "uint256"
        },
        {
          "internalType": "uint256",
          "name": "index",
          "type": "uint256"
        }
      ],
      "name": "getDividendPerShare",
      "outputs": [
        {
          "internalType": "uint256",
          "name": "",
          "type": "uint256"
        }
      ],
      "stateMutability": "view",
      "type": "function"
    },
    {
      "inputs": [
        {
          "internalType": "uint256",
          "name": "id",
          "type": "uint256"
        }
      ],
      "name": "getFundingToken",
      "outputs": [
        {
          "internalType": "address",
          "name": "",
          "type": "address"
        }
      ],
      "stateMutability": "view",
      "type": "function"
    },
    {
      "inputs": [
        {
          "internalType": "uint256",
          "name": "_id",
          "type": "uint256"
        }
      ],
      "name": "getIPOContract",
      "outputs": [
        {
          "internalType": "address",
          "name": "",
          "type": "address"
        }
      ],
      "stateMutability": "view",
      "type": "function"
    },
    {
      "inputs": [
        {
          "internalType": "uint256",
          "name": "id",
          "type": "uint256"
        }
      ],
      "name": "getIPOUnitPrice",
      "outputs": [
        {
          "internalType": "uint256",
          "name": "",
          "type": "uint256"
        }
      ],
      "stateMutability": "view",
      "type": "function"
    },
    {
      "inputs": [
        {
          "internalType": "uint256",
          "name": "id",
          "type": "uint256"
        }
      ],
      "name": "getLockedDividends",
      "outputs": [
        {
          "internalType": "uint256",
          "name": "",
          "type": "uint256"
        }
      ],
      "stateMutability": "view",
      "type": "function"
    },
    {
      "inputs": [
        {
          "internalType": "uint256",
          "name": "_id",
          "type": "uint256"
        }
      ],
      "name": "getTotalClaimableDividends",
      "outputs": [
        {
          "internalType": "uint256",
          "name": "",
          "type": "uint256"
        }
      ],
      "stateMutability": "view",
      "type": "function"
    },
    {
      "inputs": [
        {
          "internalType": "uint256",
          "name": "id",
          "type": "uint256"
        }
      ],
      "name": "getTotalDividendPerShare",
      "outputs": [
        {
          "internalType": "uint256",
          "name": "",
          "type": "uint256"
        }
      ],
      "stateMutability": "view",
      "type": "function"
    },
    {
      "inputs": [],
      "name": "governor",
      "outputs": [
        {
          "internalType": "address",
          "name": "",
          "type": "address"
        }
      ],
      "stateMutability": "view",
      "type": "function"
    },
    {
      "inputs": [
        {
          "internalType": "uint256",
          "name": "id",
          "type": "uint256"
        },
        {
          "internalType": "address[]",
          "name": "accounts",
          "type": "address[]"
        }
      ],
      "name": "holdLiquidationClaims",
      "outputs": [],
      "stateMutability": "nonpayable",
      "type": "function"
    },
    {
      "inputs": [
        {
          "internalType": "string",
          "name": "_name",
          "type": "string"
        },
        {
          "internalType": "string",
          "name": "_symbol",
          "type": "string"
        },
        {
          "internalType": "string",
          "name": "_uri",
          "type": "string"
        }
      ],
      "name": "initialize",
      "outputs": [],
      "stateMutability": "nonpayable",
      "type": "function"
    },
    {
      "inputs": [
        {
          "internalType": "uint256",
          "name": "_id",
          "type": "uint256"
        },
        {
          "internalType": "uint64",
          "name": "initiateTime",
          "type": "uint64"
        },
        {
          "internalType": "uint256",
          "name": "unitValue",
          "type": "uint256"
        },
        {
          "internalType": "uint64",
          "name": "liquidationTime",
          "type": "uint64"
        },
        {
          "internalType": "uint64",
          "name": "transferTax",
          "type": "uint64"
        }
      ],
      "name": "initiateREIT",
      "outputs": [],
      "stateMutability": "nonpayable",
      "type": "function"
    },
    {
      "inputs": [
        {
          "internalType": "address",
          "name": "account",
          "type": "address"
        },
        {
          "internalType": "address",
          "name": "operator",
          "type": "address"
        }
      ],
      "name": "isApprovedForAll",
      "outputs": [
        {
          "internalType": "bool",
          "name": "",
          "type": "bool"
        }
      ],
      "stateMutability": "view",
      "type": "function"
    },
    {
      "inputs": [
        {
          "internalType": "uint256",
          "name": "_id",
          "type": "uint256"
        },
        {
          "internalType": "address",
          "name": "account",
          "type": "address"
        }
      ],
      "name": "isIPOContract",
      "outputs": [
        {
          "internalType": "bool",
          "name": "",
          "type": "bool"
        }
      ],
      "stateMutability": "view",
      "type": "function"
    },
    {
      "inputs": [
        {
          "internalType": "address",
          "name": "account",
          "type": "address"
        }
      ],
      "name": "isKYC",
      "outputs": [
        {
          "internalType": "bool",
          "name": "",
          "type": "bool"
        }
      ],
      "stateMutability": "view",
      "type": "function"
    },
    {
      "inputs": [
        {
          "internalType": "address",
          "name": "account",
          "type": "address"
        },
        {
          "internalType": "uint256",
          "name": "id",
          "type": "uint256"
        }
      ],
      "name": "liquidatedBalanceOf",
      "outputs": [
        {
          "internalType": "uint256",
          "name": "",
          "type": "uint256"
        }
      ],
      "stateMutability": "view",
      "type": "function"
    },
    {
      "inputs": [
        {
          "internalType": "uint256",
          "name": "id",
          "type": "uint256"
        }
      ],
      "name": "lockLiquidationPerShare",
      "outputs": [],
      "stateMutability": "nonpayable",
      "type": "function"
    },
    {
      "inputs": [
        {
          "internalType": "address",
          "name": "account",
          "type": "address"
        },
        {
          "internalType": "uint256",
          "name": "id",
          "type": "uint256"
        }
      ],
      "name": "lockedBalanceOf",
      "outputs": [
        {
          "internalType": "uint256",
          "name": "",
          "type": "uint256"
        }
      ],
      "stateMutability": "view",
      "type": "function"
    },
    {
      "inputs": [
        {
          "internalType": "address",
          "name": "_to",
          "type": "address"
        },
        {
          "internalType": "uint256",
          "name": "_id",
          "type": "uint256"
        },
        {
          "internalType": "uint256",
          "name": "_quantity",
          "type": "uint256"
        },
        {
          "internalType": "bytes",
          "name": "_data",
          "type": "bytes"
        }
      ],
      "name": "mint",
      "outputs": [],
      "stateMutability": "nonpayable",
      "type": "function"
    },
    {
      "inputs": [],
      "name": "name",
      "outputs": [
        {
          "internalType": "string",
          "name": "",
          "type": "string"
        }
      ],
      "stateMutability": "view",
      "type": "function"
    },
    {
      "inputs": [
        {
          "internalType": "uint256",
          "name": "id",
          "type": "uint256"
        }
      ],
      "name": "redeemLockedBalances",
      "outputs": [],
      "stateMutability": "nonpayable",
      "type": "function"
    },
    {
      "inputs": [
        {
          "internalType": "address",
          "name": "account",
          "type": "address"
        }
      ],
      "name": "removeKYC",
      "outputs": [],
      "stateMutability": "nonpayable",
      "type": "function"
    },
    {
      "inputs": [
        {
          "internalType": "address[]",
          "name": "accounts",
          "type": "address[]"
        }
      ],
      "name": "removeManyKYC",
      "outputs": [],
      "stateMutability": "nonpayable",
      "type": "function"
    },
    {
      "inputs": [],
      "name": "renounceGovernorship",
      "outputs": [],
      "stateMutability": "nonpayable",
      "type": "function"
    },
    {
      "inputs": [],
      "name": "revokeKYCAdmin",
      "outputs": [],
      "stateMutability": "nonpayable",
      "type": "function"
    },
    {
      "inputs": [
        {
          "internalType": "address",
          "name": "from",
          "type": "address"
        },
        {
          "internalType": "address",
          "name": "to",
          "type": "address"
        },
        {
          "internalType": "uint256[]",
          "name": "ids",
          "type": "uint256[]"
        },
        {
          "internalType": "uint256[]",
          "name": "amounts",
          "type": "uint256[]"
        },
        {
          "internalType": "bytes",
          "name": "data",
          "type": "bytes"
        }
      ],
      "name": "safeBatchTransferFrom",
      "outputs": [],
      "stateMutability": "nonpayable",
      "type": "function"
    },
    {
      "inputs": [
        {
          "internalType": "address",
          "name": "from",
          "type": "address"
        },
        {
          "internalType": "address",
          "name": "to",
          "type": "address"
        },
        {
          "internalType": "uint256",
          "name": "id",
          "type": "uint256"
        },
        {
          "internalType": "uint256",
          "name": "amount",
          "type": "uint256"
        },
        {
          "internalType": "bytes",
          "name": "data",
          "type": "bytes"
        }
      ],
      "name": "safeTransferFrom",
      "outputs": [],
      "stateMutability": "nonpayable",
      "type": "function"
    },
    {
      "inputs": [
        {
          "internalType": "address",
          "name": "operator",
          "type": "address"
        },
        {
          "internalType": "bool",
          "name": "approved",
          "type": "bool"
        }
      ],
      "name": "setApprovalForAll",
      "outputs": [],
      "stateMutability": "nonpayable",
      "type": "function"
    },
    {
      "inputs": [
        {
          "internalType": "string",
          "name": "_newBaseMetadataURI",
          "type": "string"
        }
      ],
      "name": "setBaseMetadataURI",
      "outputs": [],
      "stateMutability": "nonpayable",
      "type": "function"
    },
    {
      "inputs": [
        {
          "internalType": "string",
          "name": "_uri",
          "type": "string"
        }
      ],
      "name": "setContractURI",
      "outputs": [],
      "stateMutability": "nonpayable",
      "type": "function"
    },
    {
      "inputs": [
        {
          "internalType": "address",
          "name": "_to",
          "type": "address"
        },
        {
          "internalType": "uint256[]",
          "name": "_ids",
          "type": "uint256[]"
        }
      ],
      "name": "setCreator",
      "outputs": [],
      "stateMutability": "nonpayable",
      "type": "function"
    },
    {
      "inputs": [
        {
          "internalType": "uint256",
          "name": "_id",
          "type": "uint256"
        },
        {
          "internalType": "address",
          "name": "account",
          "type": "address"
        }
      ],
      "name": "setIPOContract",
      "outputs": [],
      "stateMutability": "nonpayable",
      "type": "function"
    },
    {
      "inputs": [
        {
          "internalType": "address",
          "name": "account",
          "type": "address"
        }
      ],
      "name": "setKYCAdmin",
      "outputs": [],
      "stateMutability": "nonpayable",
      "type": "function"
    },
    {
      "inputs": [
        {
          "internalType": "uint256",
          "name": "_id",
          "type": "uint256"
        },
        {
          "internalType": "uint256",
          "name": "value",
          "type": "uint256"
        }
      ],
      "name": "setUnitMarketValue",
      "outputs": [],
      "stateMutability": "nonpayable",
      "type": "function"
    },
    {
      "inputs": [
        {
          "internalType": "bytes4",
          "name": "interfaceId",
          "type": "bytes4"
        }
      ],
      "name": "supportsInterface",
      "outputs": [
        {
          "internalType": "bool",
          "name": "",
          "type": "bool"
        }
      ],
      "stateMutability": "view",
      "type": "function"
    },
    {
      "inputs": [],
      "name": "symbol",
      "outputs": [
        {
          "internalType": "string",
          "name": "",
          "type": "string"
        }
      ],
      "stateMutability": "view",
      "type": "function"
    },
    {
      "inputs": [
        {
          "internalType": "uint256",
          "name": "",
          "type": "uint256"
        }
      ],
      "name": "tokenSupply",
      "outputs": [
        {
          "internalType": "uint256",
          "name": "",
          "type": "uint256"
        }
      ],
      "stateMutability": "view",
      "type": "function"
    },
    {
      "inputs": [
        {
          "internalType": "uint256",
          "name": "",
          "type": "uint256"
        }
      ],
      "name": "tokenUri",
      "outputs": [
        {
          "internalType": "string",
          "name": "",
          "type": "string"
        }
      ],
      "stateMutability": "view",
      "type": "function"
    },
    {
      "inputs": [
        {
          "internalType": "uint256",
          "name": "_id",
          "type": "uint256"
        }
      ],
      "name": "totalSupply",
      "outputs": [
        {
          "internalType": "uint256",
          "name": "",
          "type": "uint256"
        }
      ],
      "stateMutability": "view",
      "type": "function"
    },
    {
      "inputs": [
        {
          "internalType": "address",
          "name": "newGovernor",
          "type": "address"
        }
      ],
      "name": "transferGovernorship",
      "outputs": [],
      "stateMutability": "nonpayable",
      "type": "function"
    },
    {
      "inputs": [
        {
          "internalType": "uint256",
          "name": "id",
          "type": "uint256"
        },
        {
          "internalType": "uint256",
          "name": "value",
          "type": "uint256"
        },
        {
          "internalType": "uint32",
          "name": "time",
          "type": "uint32"
        }
      ],
      "name": "unlockDividendPerShare",
      "outputs": [],
      "stateMutability": "nonpayable",
      "type": "function"
    },
    {
      "inputs": [
        {
          "internalType": "uint256",
          "name": "id",
          "type": "uint256"
        },
        {
          "internalType": "uint256",
          "name": "value",
          "type": "uint256"
        }
      ],
      "name": "unlockLiquidationPerShare",
      "outputs": [],
      "stateMutability": "nonpayable",
      "type": "function"
    },
    {
      "inputs": [
        {
          "internalType": "uint256",
          "name": "_id",
          "type": "uint256"
        }
      ],
      "name": "uri",
      "outputs": [
        {
          "internalType": "string",
          "name": "",
          "type": "string"
        }
      ],
      "stateMutability": "view",
      "type": "function"
    },
    {
      "inputs": [
        {
          "internalType": "uint256",
          "name": "id",
          "type": "uint256"
        },
        {
          "internalType": "uint256",
          "name": "amount",
          "type": "uint256"
        },
        {
          "internalType": "address",
          "name": "to",
          "type": "address"
        }
      ],
      "name": "withdrawDividendVault",
      "outputs": [],
      "stateMutability": "nonpayable",
      "type": "function"
    },
    {
      "inputs": [
        {
          "internalType": "uint256",
          "name": "id",
          "type": "uint256"
        },
        {
          "internalType": "uint256",
          "name": "amount",
          "type": "uint256"
        },
        {
          "internalType": "address",
          "name": "to",
          "type": "address"
        }
      ],
      "name": "withdrawLiquidationVault",
      "outputs": [],
      "stateMutability": "nonpayable",
      "type": "function"
    }
  ],
  "bytecode": "0x608060405234801561001057600080fd5b50615479806100206000396000f3fe608060405234801561001057600080fd5b50600436106103a25760003560e01c806395d89b41116101e9578063cd53d08e1161010f578063e43ca761116100ad578063ec9f21891161007c578063ec9f2189146108c4578063f242432a146108d7578063f6ee8fcc146108ea578063ffd91612146108fd57600080fd5b8063e43ca76114610843578063e6034af114610856578063e8a3d48514610880578063e985e9c51461088857600080fd5b8063d2a6b51a116100e9578063d2a6b51a146107f7578063d64e83d71461080a578063d98d9eaf1461081d578063dac3e3341461083057600080fd5b8063cd53d08e146107a8578063cd5e54d5146107d1578063d0044d62146107e457600080fd5b8063aa4d92cb11610187578063bd7047c411610156578063bd7047c41461074f578063bd85b03914610762578063bff804ca14610782578063cd2519891461079557600080fd5b8063aa4d92cb14610703578063b48ab8b614610716578063b6aa515b14610729578063bb8973031461073c57600080fd5b80639d6ad5c8116101c35780639d6ad5c8146106b7578063a22cb465146106ca578063a2e42dde146106dd578063a6487c53146106f057600080fd5b806395d89b41146106725780639944f5181461067a5780639b166e2f1461068d57600080fd5b80633a69c8d8116102ce57806368a140771161026c5780637e518ec81161023b5780637e518ec81461060e57806381c0c263146106215780638ef4c80714610629578063938e3d7b1461065f57600080fd5b806368a14077146105b4578063731133e9146105d5578063780f30e5146105e857806378c4acb8146105fb57600080fd5b806351053648116102a857806351053648146105505780635269d7951461056357806359d1a4b1146105765780635f9f59381461057e57600080fd5b80633a69c8d81461050a578063409f8c481461051d5780634e1273f41461053057600080fd5b80630e89341c11610346578063243f6b5811610315578063243f6b58146104b15780632693ebf2146104c45780632dada0fd146104e45780632eb2c2d6146104f757600080fd5b80630e89341c14610465578063148dc459146104785780631675f4551461048b57806322b6ccfe1461049e57600080fd5b806306fdde031161038257806306fdde03146104055780630c248ff21461041a5780630c2f4f681461042d5780630c340a241461044057600080fd5b806256d08d146103a7578062fdd58e146103bc57806301ffc9a7146103e2575b600080fd5b6103ba6103b5366004614368565b610910565b005b6103cf6103ca3660046143c1565b610a4e565b6040519081526020015b60405180910390f35b6103f56103f0366004614401565b610a61565b60405190151581526020016103d9565b61040d610ab3565b6040516103d9919061446b565b6103ba61042836600461447e565b610b42565b6103cf61043b3660046144b3565b610cb0565b6097546001600160a01b03165b6040516001600160a01b0390911681526020016103d9565b61040d6104733660046144b3565b610daf565b6103ba6104863660046144b3565b610e51565b61040d6104993660046144b3565b611112565b6103ba6104ac3660046144cc565b61112b565b6103ba6104bf3660046144cc565b61117b565b6103cf6104d23660046144b3565b60fd6020526000908152604090205481565b6103ba6104f2366004614532565b6111c8565b6103ba6105053660046146c6565b611284565b6103cf6105183660046144b3565b6115d3565b6103ba61052b3660046144cc565b611679565b61054361053e36600461476f565b611705565b6040516103d99190614874565b6103cf61055e3660046144b3565b61182e565b6103cf6105713660046144b3565b6118d4565b6103ba6119e4565b6103cf61058c3660046143c1565b600090815261013d602090815260408083206001600160a01b03949094168352929052205490565b6103cf6105c23660046144b3565b6000908152610135602052604090205490565b6103ba6105e3366004614887565b611a1a565b6103ba6105f63660046148e7565b611a90565b6103ba610609366004614909565b611b84565b6103ba61061c36600461494a565b611c27565b6103ba611c5a565b6103cf6106373660046143c1565b600090815261013c602090815260408083206001600160a01b03949094168352929052205490565b6103ba61066d36600461494a565b611c8e565b61040d611ccf565b6103f56106883660046144cc565b611cdd565b61044d61069b3660046144b3565b600090815261013b60205260409020546001600160a01b031690565b6103ba6106c536600461447e565b611d12565b6103ba6106d8366004614994565b611e80565b6103ba6106eb3660046148e7565b611e8b565b6103ba6106fe3660046149cb565b611fd9565b6103ba610711366004614a69565b61205d565b6103ba610724366004614ac0565b61212f565b6103ba6107373660046144cc565b6122be565b6103cf61074a366004614b8d565b61235c565b6103ba61075d3660046144b3565b612619565b6103cf6107703660046144b3565b600090815260fd602052604090205490565b6103ba6107903660046144b3565b612821565b6103cf6107a33660046148e7565b612a90565b61044d6107b63660046144b3565b60fc602052600090815260409020546001600160a01b031681565b6103ba6107df366004614532565b612ac7565b6103ba6107f23660046144b3565b612b7e565b6103ba610805366004614c2a565b612bcc565b6103ba610818366004614909565b612d06565b6103f561082b366004614c6d565b612da4565b6103cf61083e3660046144b3565b612dc6565b6103ba6108513660046148e7565b612f4f565b61044d6108643660046144b3565b600090815261013a60205260409020546001600160a01b031690565b61040d612f9b565b6103f5610896366004614c99565b6001600160a01b03918216600090815260666020908152604080832093909416825291909152205460ff1690565b6103cf6108d23660046144b3565b61302d565b6103ba6108e5366004614cc3565b6131aa565b6103ba6108f8366004614c6d565b61347c565b6103ba61090b3660046148e7565b613534565b600083815260fc602052604090205483906001600160a01b031633146109515760405162461bcd60e51b815260040161094890614d27565b60405180910390fd5b60008481526101366020526040902060010154156109ab5760405162461bcd60e51b8152602060048201526017602482015276135d5cdd081b9bdd081e595d081b1a5c5d5a59185d1959604a1b6044820152606401610948565b6109b6826001614d8e565b6000858152610136602052604090206003015463ffffffff91821691161015610a0f576109e4826001614d8e565b600085815261013660205260409020600301805463ffffffff191663ffffffff929092169190911790555b600084815261013660205260409020600201805484919063ffffffff8516908110610a3c57610a3c614db6565b60009182526020909120015550505050565b6000610a5a8383613583565b9392505050565b60006001600160e01b03198216636cdb3d1360e11b1480610a9257506001600160e01b031982166303a24d0760e21b145b80610aad57506301ffc9a760e01b6001600160e01b03198316145b92915050565b6101008054610ac190614dcc565b80601f0160208091040260200160405190810160405280929190818152602001828054610aed90614dcc565b8015610b3a5780601f10610b0f57610100808354040283529160200191610b3a565b820191906000526020600020905b815481529060010190602001808311610b1d57829003601f168201915b505050505081565b6097546001600160a01b03163314610b6c5760405162461bcd60e51b815260040161094890614e07565b60008381526101396020526040902054821115610bcb5760405162461bcd60e51b815260206004820152601b60248201527f4e6f7420656e6f7567682066756e6420746f20776974686472617700000000006044820152606401610948565b600083815261013a60205260409081902054905163a9059cbb60e01b81526001600160a01b0383811660048301526024820185905290911690819063a9059cbb90604401602060405180830381600087803b158015610c2957600080fd5b505af1158015610c3d573d6000803e3d6000fd5b505050506040513d601f19601f82011682018060405250810190610c619190614e4d565b610c7d5760405162461bcd60e51b815260040161094890614e6a565b60008481526101396020526040902054610c979084613617565b6000948552610139602052604090942093909355505050565b600081815261013d60209081526040808320338085529083528184205485855261013c8452828520828652845282852054868652606585528386209286529190935290832054849284929091610d069190614e9f565b610d109190614e9f565b905060008111610d325760405162461bcd60e51b815260040161094890614eb7565b6000848152610137602090815260408083203380855292529091206005015460ff1615610d63576000935050610da8565b60008581526065602090815260408083206001600160a01b0385168452825280832054888452610136909252822060010154909190610da29083614f0c565b95505050505b5050919050565b600081815260fe60205260409020805460609190610dcc90614dcc565b80601f0160208091040260200160405190810160405280929190818152602001828054610df890614dcc565b8015610e455780601f10610e1a57610100808354040283529160200191610e45565b820191906000526020600020905b815481529060010190602001808311610e2857829003601f168201915b50505050509050919050565b336000908152610102602052604090205460ff16610e815760405162461bcd60e51b815260040161094890614f2b565b600260c9541415610ea45760405162461bcd60e51b815260040161094890614f50565b600260c9556000818152610137602090815260408083203380855292529091206005015460ff16610f225760405162461bcd60e51b815260206004820152602260248201527f524549544e46543a206c69717569646174696f6e207374696c6c206f6e20686f6044820152611b1960f21b6064820152608401610948565b60008281526065602090815260408083206001600160a01b0385168452825280832054858452610136909252822060010154909190610f619083614f0c565b905060008111610fb35760405162461bcd60e51b815260206004820181905260248201527f524549544e46543a206e6f206c69717569646174696f6e20746f20636c61696d6044820152606401610948565b60008481526101396020526040902054811115610fe25760405162461bcd60e51b815260040161094890614f87565b610fec8385613623565b600084815261013a60205260409081902054905163a9059cbb60e01b81526001600160a01b0385811660048301526024820184905290911690819063a9059cbb90604401602060405180830381600087803b15801561104a57600080fd5b505af115801561105e573d6000803e3d6000fd5b505050506040513d601f19601f820116820180604052508101906110829190614e4d565b61109e5760405162461bcd60e51b815260040161094890614e6a565b50600084815261013d602090815260408083206001600160a01b0390961680845295825280832094909455858252606581528382208583528152838220829055948152610139855282812080548390039055610137855282812093815292909352902060040180549091019055600160c955565b60fe6020526000908152604090208054610ac190614dcc565b610103546001600160a01b031633146111565760405162461bcd60e51b815260040161094890614fce565b6001600160a01b0316600090815261010260205260409020805460ff19166001179055565b610103546001600160a01b031633146111a65760405162461bcd60e51b815260040161094890614fce565b6001600160a01b0316600090815261010260205260409020805460ff19169055565b600083815260fc602052604090205483906001600160a01b031633146112005760405162461bcd60e51b815260040161094890614d27565b60005b8281101561127d576000858152610137602052604081208186868581811061122d5761122d614db6565b905060200201602081019061124291906144cc565b6001600160a01b031681526020810191909152604001600020600501805460ff191691151591909117905561127681615010565b9050611203565b5050505050565b81518351146112a55760405162461bcd60e51b81526004016109489061502b565b6001600160a01b0384166112cb5760405162461bcd60e51b815260040161094890615073565b6001600160a01b0385163314806112e757506112e78533610896565b61134e5760405162461bcd60e51b815260206004820152603260248201527f455243313135353a207472616e736665722063616c6c6572206973206e6f74206044820152711bdddb995c881b9bdc88185c1c1c9bdd995960721b6064820152608401610948565b3360005b84518110156113f257600085828151811061136f5761136f614db6565b60200260200101519050600085838151811061138d5761138d614db6565b60209081029190910181015160008481526065835260408082206001600160a01b038e1683529093529190912054909150818110156113de5760405162461bcd60e51b8152600401610948906150b8565b505050806113eb90615010565b9050611352565b5060005b845181101561144257600085828151811061141357611413614db6565b602002602001015190506114278882613623565b6114318782613623565b5061143b81615010565b90506113f6565b5060005b845181101561156557600085828151811061146357611463614db6565b60200260200101519050600085838151811061148157611481614db6565b60209081029190910181015160008481526065835260408082206001600160a01b038e1683529093529182208054828103909155909250906114c3848c612da4565b806114d357506114d3848b612da4565b90508061151857600084815261013c602090815260408083206001600160a01b038e1684529091528120805485929061150d908490614e9f565b909155506115509050565b60008481526065602090815260408083206001600160a01b038e1684529091528120805485929061154a908490614e9f565b90915550505b505050508061155e90615010565b9050611446565b50846001600160a01b0316866001600160a01b0316826001600160a01b03167f4a39dc06d4c0dbc64b70af90fd698a233a518aa5d07e595d983b8c0526c8f7fb87876040516115b5929190615102565b60405180910390a46115cb8187878787876138e8565b505050505050565b600081815261013d60209081526040808320338085529083528184205485855261013c84528285208286528452828520548686526065855283862092865291909352908320548492849290916116299190614e9f565b6116339190614e9f565b9050600081116116555760405162461bcd60e51b815260040161094890614eb7565b50505060009081526101376020908152604080832033845290915290206003015490565b6097546001600160a01b031633146116a35760405162461bcd60e51b815260040161094890614e07565b6001600160a01b0381166116f95760405162461bcd60e51b815260206004820181905260248201527f4b59432041646d696e2063616e6e6f74206265207a65726f20616464726573736044820152606401610948565b61170281613a5c565b50565b6060815183511461176a5760405162461bcd60e51b815260206004820152602960248201527f455243313135353a206163636f756e747320616e6420696473206c656e677468604482015268040dad2e6dac2e8c6d60bb1b6064820152608401610948565b600083516001600160401b038111156117855761178561457d565b6040519080825280602002602001820160405280156117ae578160200160208202803683370190505b50905060005b8451811015611826576117f98582815181106117d2576117d2614db6565b60200260200101518583815181106117ec576117ec614db6565b6020026020010151610a4e565b82828151811061180b5761180b614db6565b602090810291909101015261181f81615010565b90506117b4565b509392505050565b600081815261013d60209081526040808320338085529083528184205485855261013c84528285208286528452828520548686526065855283862092865291909352908320548492849290916118849190614e9f565b61188e9190614e9f565b9050600081116118b05760405162461bcd60e51b815260040161094890614eb7565b50505060009081526101376020908152604080832033845290915290206004015490565b600081815261013660209081526040808320815160a0810183528154815260018201548185015260028201805484518187028101870186528181528796879694959486019391929083018282801561194b57602002820191906000526020600020905b815481526020019060010190808311611937575b50505091835250506003919091015463ffffffff8116602083015264010000000090046001600160401b0316604090910152905060005b816060015163ffffffff168163ffffffff1610156119db5781604001518163ffffffff16815181106119b6576119b6614db6565b6020026020010151836119c99190614e9f565b92506119d481615130565b9050611982565b50909392505050565b6097546001600160a01b03163314611a0e5760405162461bcd60e51b815260040161094890614e07565b611a186000613a5c565b565b600083815260fc602052604090205483906001600160a01b03163314611a525760405162461bcd60e51b815260040161094890614d27565b611a5e85858585613a7f565b600084815260fd6020526040902054611a779084613b52565b600094855260fd60205260409094209390935550505050565b600082815261013a60205260409020546001600160a01b0316806323b872dd336040516001600160e01b031960e084901b1681526001600160a01b03909116600482015230602482015260448101859052606401602060405180830381600087803b158015611afe57600080fd5b505af1158015611b12573d6000803e3d6000fd5b505050506040513d601f19601f82011682018060405250810190611b369190614e4d565b611b525760405162461bcd60e51b815260040161094890614e6a565b60008381526101396020526040902054611b6c9083613b52565b60009384526101396020526040909320929092555050565b610103546001600160a01b03163314611baf5760405162461bcd60e51b815260040161094890614fce565b60005b81811015611c225760016101026000858585818110611bd357611bd3614db6565b9050602002016020810190611be891906144cc565b6001600160a01b031681526020810191909152604001600020805460ff191691151591909117905580611c1a81615010565b915050611bb2565b505050565b6097546001600160a01b03163314611c515760405162461bcd60e51b815260040161094890614e07565b61170281613b5e565b6097546001600160a01b03163314611c845760405162461bcd60e51b815260040161094890614e07565b611a186000613b71565b6097546001600160a01b03163314611cb85760405162461bcd60e51b815260040161094890614e07565b8051611ccb9060ff906020840190614221565b5050565b6101018054610ac190614dcc565b60006001600160a01b038216611cf257600080fd5b506001600160a01b03166000908152610102602052604090205460ff1690565b6097546001600160a01b03163314611d3c5760405162461bcd60e51b815260040161094890614e07565b60008381526101386020526040902054821115611d9b5760405162461bcd60e51b815260206004820152601b60248201527f4e6f7420656e6f7567682066756e6420746f20776974686472617700000000006044820152606401610948565b600083815261013a60205260409081902054905163a9059cbb60e01b81526001600160a01b0383811660048301526024820185905290911690819063a9059cbb90604401602060405180830381600087803b158015611df957600080fd5b505af1158015611e0d573d6000803e3d6000fd5b505050506040513d601f19601f82011682018060405250810190611e319190614e4d565b611e4d5760405162461bcd60e51b815260040161094890614e6a565b60008481526101386020526040902054611e679084613617565b6000948552610138602052604090942093909355505050565b611ccb338383613bc3565b6000828152610136602052604090206001015415611ee55760405162461bcd60e51b8152602060048201526017602482015276135d5cdd081b9bdd081e595d081b1a5c5d5a59185d1959604a1b6044820152606401610948565b600082815261013a60205260409020546001600160a01b0316806323b872dd336040516001600160e01b031960e084901b1681526001600160a01b03909116600482015230602482015260448101859052606401602060405180830381600087803b158015611f5357600080fd5b505af1158015611f67573d6000803e3d6000fd5b505050506040513d601f19601f82011682018060405250810190611f8b9190614e4d565b611fa75760405162461bcd60e51b815260040161094890614e6a565b60008381526101386020526040902054611fc19083613b52565b60009384526101386020526040909320929092555050565b6000611fe56001613ca4565b90508015611ffd576000805461ff0019166101001790555b612008848484613d31565b612010613df3565b8015612057576000805461ff0019169055604051600181527f7f26b83ff96e1f2b6a682f133852f6798a09c465da95921460cefb3847402498906020015b60405180910390a15b50505050565b600085815260fc602052604090205485906001600160a01b031633146120955760405162461bcd60e51b815260040161094890614d27565b50604080516080810182528481526001600160401b039586166020808301918252948716828401908152938716606083019081526000988952610135865283892092518355905160019092018054945191519288166001600160801b031990951694909417600160401b918816919091021767ffffffffffffffff60801b1916600160801b91909616029490941790556101369052912055565b81518351146121995760405162461bcd60e51b815260206004820152603060248201527f455243313135354d696e744275726e2362617463684d696e743a20494e56414c60448201526f09288be82a4a482b2a6be988a9c8ea8960831b6064820152608401610948565b60005b83518110156122b15760008482815181106121b9576121b9614db6565b602090810291909101810151600081815260fc9092526040909120549091506001600160a01b031633146122475760405162461bcd60e51b815260206004820152602f60248201527f455243313135355472616461626c652362617463684d696e743a204f4e4c595f60448201526e10d491505513d497d0531313d5d151608a1b6064820152608401610948565b600084838151811061225b5761225b614db6565b6020026020010151905061228b8160fd600085815260200190815260200160002054613b5290919063ffffffff16565b600092835260fd60205260409092209190915550806122a981615010565b91505061219c565b5061205784848484613e22565b6097546001600160a01b031633146122e85760405162461bcd60e51b815260040161094890614e07565b6001600160a01b0381166123535760405162461bcd60e51b815260206004820152602c60248201527f476f7665726e61626c653a206e657720676f7665726e6f72206973207468652060448201526b7a65726f206164647265737360a01b6064820152608401610948565b61170281613b71565b6097546000906001600160a01b031633146123895760405162461bcd60e51b815260040161094890614e07565b6000612393613f6e565b905061239d613f84565b6123a78982613f9b565b851561240257807f6bb7ff708619ba0610cba295a58592e0451dee2622938c8755667688daf3529b88886040516123df929190615154565b60405180910390a2600081815260fe602052604090206124009088886142a5565b505b600081815261013a6020908152604080832080546001600160a01b038a166001600160a01b031990911617905580516080810182528381528083018481528183018581526060830186815287875261013586528487209351845591516001939093018054915192516001600160401b03908116600160801b0267ffffffffffffffff60801b19948216600160401b026001600160801b031990941691909516179190911791909116919091179055805160a0810182528381528083019390935280516064808252610ca082018352918401929091908201610c80803683375050508152600060208083018290526040928301829052848252610136815290829020835181558382015160018201559183015180516125269260028501920190614319565b506060820151600390910180546080909301516001600160401b0316640100000000026bffffffffffffffffffffffff1990931663ffffffff90921691909117919091179055604080516020601f86018190048102820181019092528481526125b0918b9184918c91908990899081908401838280828437600092019190915250613a7f92505050565b600081815260fd602052604090819020899055517f748fd6a01f0f0df2e8354235caf8fdf83654b5a47b2358be7e7bffb16b726ceb906126059083908c909182526001600160a01b0316602082015260400190565b60405180910390a198975050505050505050565b336000908152610102602052604090205460ff166126495760405162461bcd60e51b815260040161094890614f2b565b600260c954141561266c5760405162461bcd60e51b815260040161094890614f50565b600260c9553361267c8183613623565b6000828152610137602090815260408083206001600160a01b0385168452909152902060020154806126f05760405162461bcd60e51b815260206004820181905260248201527f524549544e46543a206e6f206d6f726520636c61696d61626c65207969656c646044820152606401610948565b6000838152610138602052604090205481111561271f5760405162461bcd60e51b815260040161094890614f87565b600083815261013a60205260409081902054905163a9059cbb60e01b81526001600160a01b0384811660048301526024820184905290911690819063a9059cbb90604401602060405180830381600087803b15801561277d57600080fd5b505af1158015612791573d6000803e3d6000fd5b505050506040513d601f19601f820116820180604052508101906127b59190614e4d565b6127d15760405162461bcd60e51b815260040161094890614e6a565b506000838152610137602090815260408083206001600160a01b0390951683529381528382206002810183905560030180548401905593815261013890935291208054919091039055600160c955565b336000908152610102602052604090205460ff166128515760405162461bcd60e51b815260040161094890614f2b565b600260c95414156128745760405162461bcd60e51b815260040161094890614f50565b600260c955600081815261013c6020908152604080832033808552925290912054806128d95760405162461bcd60e51b8152602060048201526014602482015273105b1c9958591e481d5b9b1bd8dad95908185b1b60621b6044820152606401610948565b600083815261013560209081526040808320600101546101369092528220546305f5e10091600160801b90046001600160401b03169061291a908590614f0c565b6129249190614f0c565b61292e9190615183565b600085815261013a6020526040908190205490516323b872dd60e01b81526001600160a01b0386811660048301523060248301526044820184905292935091169081906323b872dd90606401602060405180830381600087803b15801561299457600080fd5b505af11580156129a8573d6000803e3d6000fd5b505050506040513d601f19601f820116820180604052508101906129cc9190614e4d565b612a185760405162461bcd60e51b815260206004820152601a60248201527f524549544e46543a20436f756c64206e6f7420706179207461780000000000006044820152606401610948565b5050600083815261013c602090815260408083206001600160a01b0395909516808452948252808320839055858352606582528083208584528252808320805494909401909355938152610137845281812092815291909252908120600181810180546002909301805490930190925591905560c955565b600082815261013660205260408120600201805483908110612ab457612ab4614db6565b9060005260206000200154905092915050565b600083815260fc602052604090205483906001600160a01b03163314612aff5760405162461bcd60e51b815260040161094890614d27565b60005b8281101561127d57600085815261013760205260408120600191868685818110612b2e57612b2e614db6565b9050602002016020810190612b4391906144cc565b6001600160a01b031681526020810191909152604001600020600501805460ff1916911515919091179055612b7781615010565b9050612b02565b600081815260fc602052604090205481906001600160a01b03163314612bb65760405162461bcd60e51b815260040161094890614d27565b5060009081526101366020526040812060010155565b6001600160a01b038216612c365760405162461bcd60e51b815260206004820152602b60248201527f455243313135355472616461626c652373657443726561746f723a20494e564160448201526a4c49445f4144445245535360a81b6064820152608401610948565b60005b8151811015611c22576000828281518110612c5657612c56614db6565b60200260200101519050612c673390565b600082815260fc60205260409020546001600160a01b03908116911614612ce95760405162461bcd60e51b815260206004820152603060248201527f455243313135355472616461626c652373657443726561746f723a204f4e4c5960448201526f17d0d491505513d497d0531313d5d15160821b6064820152608401610948565b612cf38482613f9b565b5080612cfe81615010565b915050612c39565b610103546001600160a01b03163314612d315760405162461bcd60e51b815260040161094890614fce565b60005b81811015611c225760006101026000858585818110612d5557612d55614db6565b9050602002016020810190612d6a91906144cc565b6001600160a01b031681526020810191909152604001600020805460ff191691151591909117905580612d9c81615010565b915050612d34565b600091825261013b6020526040909120546001600160a01b0391821691161490565b600081815261013d60209081526040808320338085529083528184205485855261013c8452828520828652845282852054868652606585528386209286529190935290832054849284929091612e1c9190614e9f565b612e269190614e9f565b905060008111612e485760405162461bcd60e51b815260040161094890614eb7565b600084815260656020908152604080832033808552908352818420548885526101368452828520600301546101378552838620838752909452918420600501549093919263ffffffff9081169162010000900416805b8263ffffffff168163ffffffff161015612f105760008a815261013660205260409020600201805486919063ffffffff8416908110612edf57612edf614db6565b9060005260206000200154612ef49190614f0c565b612efe9085614e9f565b9350612f0981615130565b9050612e9e565b506000898152610137602090815260408083206001600160a01b0389168452909152902060020154612f429084614e9f565b9998505050505050505050565b600082815260fc602052604090205482906001600160a01b03163314612f875760405162461bcd60e51b815260040161094890614d27565b506000918252610136602052604090912055565b606060ff8054612faa90614dcc565b80601f0160208091040260200160405190810160405280929190818152602001828054612fd690614dcc565b80156130235780601f10612ff857610100808354040283529160200191613023565b820191906000526020600020905b81548152906001019060200180831161300657829003601f168201915b5050505050905090565b600081815261013d60209081526040808320338085529083528184205485855261013c84528285208286528452828520548686526065855283862092865291909352908320548492849290916130839190614e9f565b61308d9190614e9f565b9050600081116130af5760405162461bcd60e51b815260040161094890614eb7565b600084815261013c6020908152604080832033808552908352818420548885526101368452828520600301546101378552838620838752909452918420600501549093919263ffffffff9081169162010000900416805b8263ffffffff168163ffffffff1610156131785760008a815261013660205260409020600201805486919063ffffffff841690811061314757613147614db6565b906000526020600020015461315c9190614f0c565b6131669085614e9f565b935061317181615130565b9050613106565b506000898152610137602090815260408083206001600160a01b0389168452909152902060010154612f429084614e9f565b6001600160a01b0384166131d05760405162461bcd60e51b815260040161094890615073565b6001600160a01b0385163314806131ec57506131ec8533610896565b61324a5760405162461bcd60e51b815260206004820152602960248201527f455243313135353a2063616c6c6572206973206e6f74206f776e6572206e6f7260448201526808185c1c1c9bdd995960ba1b6064820152608401610948565b836001600160a01b0316856001600160a01b031614156132d25760405162461bcd60e51b815260206004820152603760248201527f455243313135353a2046726f6d5f41646472657373206d75737420626520646960448201527f66666572656e742066726f6d20546f5f416464726573730000000000000000006064820152608401610948565b3360006132de85613fc9565b905060006132eb85613fc9565b905060008681526065602090815260408083206001600160a01b038c168452909152902054858110156133305760405162461bcd60e51b8152600401610948906150b8565b61333a8988613623565b6133448888613623565b60008781526065602090815260408083206001600160a01b038d16845290915281208783039055613375888b612da4565b806133855750613385888a612da4565b9050806133ca57600088815261013c602090815260408083206001600160a01b038d168452909152812080548992906133bf908490614e9f565b909155506134029050565b60008881526065602090815260408083206001600160a01b038d168452909152812080548992906133fc908490614e9f565b90915550505b886001600160a01b03168a6001600160a01b0316866001600160a01b03167fc3d58168c5ae7397731d063d5bbf3d657854427343f4c083240f7aacaa2d0f628b8b60405161345a929190918252602082015260400190565b60405180910390a4613470858b8b8b8b8b614014565b50505050505050505050565b600082815260fc602052604090205482906001600160a01b031633146134b45760405162461bcd60e51b815260040161094890614d27565b6001600160a01b0382163b6135045760405162461bcd60e51b8152602060048201526016602482015275125413c81b5d5cdd08189948184818dbdb9d1c9858dd60521b6044820152606401610948565b50600091825261013b602052604090912080546001600160a01b0319166001600160a01b03909216919091179055565b600082815260fc602052604090205482906001600160a01b0316331461356c5760405162461bcd60e51b815260040161094890614d27565b506000918252610136602052604090912060010155565b60006001600160a01b0383166135ef5760405162461bcd60e51b815260206004820152602b60248201527f455243313135353a2062616c616e636520717565727920666f7220746865207a60448201526a65726f206164647265737360a81b6064820152608401610948565b5060009081526065602090815260408083206001600160a01b03949094168352929052205490565b6000610a5a82846151a5565b61362d8183612da4565b15613636575050565b6000818152610137602090815260408083206001600160a01b0386168452909152902060050154610100900460ff16613749576040805161010080820183526001600160a01b0385811680845260006020808601828152868801838152606088018481526080890185815260a08a01868152600160c08c0181815260e08d018981528f8a5261013789528e8a209a8a52999097529b90962099518a546001600160a01b03191698169790971789559151988801989098559651600287015595516003860155915160048501559051600590930180549451915161ffff1990951693151561ff001916939093179015159091021765ffffffff000019166201000063ffffffff909316929092029190911790555b6000818152610137602090815260408083206001600160a01b03861684528252808320600501548484526101369092529091206003015463ffffffff6201000090920482169116808210156120575760008381526065602090815260408083206001600160a01b0388168085529083528184205487855261013c84528285209185529252822054829190855b8563ffffffff168163ffffffff16101561383757600088815261013660205260408120600201805463ffffffff841690811061381357613813614db6565b600091825260209091200154848102969096019583029490940193506001016137d5565b506000878152610137602090815260408083206001600160a01b038c1684529091529020600501805465ffffffff000019166201000063ffffffff88160217905583156138ab576000878152610137602090815260408083206001600160a01b038c16845290915290206002018054850190555b82156138de576000878152610137602090815260408083206001600160a01b038c16845290915290206001018054840190555b5050505050505050565b6001600160a01b0384163b156115cb5760405163bc197c8160e01b81526001600160a01b0385169063bc197c819061392c90899089908890889088906004016151bc565b602060405180830381600087803b15801561394657600080fd5b505af1925050508015613976575060408051601f3d908101601f191682019092526139739181019061521a565b60015b613a2357613982615237565b806308c379a014156139bc5750613997615253565b806139a257506139be565b8060405162461bcd60e51b8152600401610948919061446b565b505b60405162461bcd60e51b815260206004820152603460248201527f455243313135353a207472616e7366657220746f206e6f6e20455243313135356044820152732932b1b2b4bb32b91034b6b83632b6b2b73a32b960611b6064820152608401610948565b6001600160e01b0319811663bc197c8160e01b14613a535760405162461bcd60e51b8152600401610948906152dc565b50505050505050565b61010380546001600160a01b0319166001600160a01b0392909216919091179055565b6001600160a01b038416613aa55760405162461bcd60e51b815260040161094890615324565b336000613ab185613fc9565b90506000613abe85613fc9565b905060008681526065602090815260408083206001600160a01b038b16845290915281208054879290613af2908490614e9f565b909155505060408051878152602081018790526001600160a01b03808a1692600092918716917fc3d58168c5ae7397731d063d5bbf3d657854427343f4c083240f7aacaa2d0f62910160405180910390a4613a5383600089898989614014565b6000610a5a8284614e9f565b8051611ccb906067906020840190614221565b609780546001600160a01b038381166001600160a01b0319831681179093556040519116919082907fc7c0c772add429241571afb3805861fb3cfa2af374534088b76cdb4325a87e9a90600090a35050565b816001600160a01b0316836001600160a01b03161415613c375760405162461bcd60e51b815260206004820152602960248201527f455243313135353a2073657474696e6720617070726f76616c20737461747573604482015268103337b91039b2b63360b91b6064820152608401610948565b6001600160a01b03838116600081815260666020908152604080832094871680845294825291829020805460ff191686151590811790915591519182527f17307eab39ab6107e8899845ad3d59bd9653f200f220920489ca2b5937696c31910160405180910390a3505050565b60008054610100900460ff1615613ceb578160ff166001148015613cc75750303b155b613ce35760405162461bcd60e51b815260040161094890615365565b506000919050565b60005460ff808416911610613d125760405162461bcd60e51b815260040161094890615365565b506000805460ff191660ff92909216919091179055600190565b919050565b6000613d3d6001613ca4565b90508015613d55576000805461ff0019166101001790555b613d5e826140de565b613d6661410e565b613d6e61413d565b8351613d8290610100906020870190614221565b508251613d9790610101906020860190614221565b50600060fb558151613db09060ff906020850190614221565b508015612057576000805461ff0019169055604051600181527f7f26b83ff96e1f2b6a682f133852f6798a09c465da95921460cefb38474024989060200161204e565b600054610100900460ff16613e1a5760405162461bcd60e51b8152600401610948906153b3565b611a1861416c565b6001600160a01b038416613e485760405162461bcd60e51b815260040161094890615324565b8151835114613e695760405162461bcd60e51b81526004016109489061502b565b3360005b8451811015613f0657838181518110613e8857613e88614db6565b602002602001015160656000878481518110613ea657613ea6614db6565b602002602001015181526020019081526020016000206000886001600160a01b03166001600160a01b031681526020019081526020016000206000828254613eee9190614e9f565b90915550819050613efe81615010565b915050613e6d565b50846001600160a01b031660006001600160a01b0316826001600160a01b03167f4a39dc06d4c0dbc64b70af90fd698a233a518aa5d07e595d983b8c0526c8f7fb8787604051613f57929190615102565b60405180910390a461127d816000878787876138e8565b60fb54600090613f7f906001613b52565b905090565b60fb8054906000613f9483615010565b9190505550565b600090815260fc6020526040902080546001600160a01b0319166001600160a01b0392909216919091179055565b6040805160018082528183019092526060916000919060208083019080368337019050509050828160008151811061400357614003614db6565b602090810291909101015292915050565b6001600160a01b0384163b156115cb5760405163f23a6e6160e01b81526001600160a01b0385169063f23a6e619061405890899089908890889088906004016153fe565b602060405180830381600087803b15801561407257600080fd5b505af19250505080156140a2575060408051601f3d908101601f1916820190925261409f9181019061521a565b60015b6140ae57613982615237565b6001600160e01b0319811663f23a6e6160e01b14613a535760405162461bcd60e51b8152600401610948906152dc565b600054610100900460ff166141055760405162461bcd60e51b8152600401610948906153b3565b6117028161419c565b600054610100900460ff166141355760405162461bcd60e51b8152600401610948906153b3565b611a186141c3565b600054610100900460ff166141645760405162461bcd60e51b8152600401610948906153b3565b611a186141f3565b600054610100900460ff166141935760405162461bcd60e51b8152600401610948906153b3565b611a1833613a5c565b600054610100900460ff16611c515760405162461bcd60e51b8152600401610948906153b3565b600054610100900460ff166141ea5760405162461bcd60e51b8152600401610948906153b3565b611a1833613b71565b600054610100900460ff1661421a5760405162461bcd60e51b8152600401610948906153b3565b600160c955565b82805461422d90614dcc565b90600052602060002090601f01602090048101928261424f5760008555614295565b82601f1061426857805160ff1916838001178555614295565b82800160010185558215614295579182015b8281111561429557825182559160200191906001019061427a565b506142a1929150614353565b5090565b8280546142b190614dcc565b90600052602060002090601f0160209004810192826142d35760008555614295565b82601f106142ec5782800160ff19823516178555614295565b82800160010185558215614295579182015b828111156142955782358255916020019190600101906142fe565b828054828255906000526020600020908101928215614295579160200282018281111561429557825182559160200191906001019061427a565b5b808211156142a15760008155600101614354565b60008060006060848603121561437d57600080fd5b8335925060208401359150604084013563ffffffff8116811461439f57600080fd5b809150509250925092565b80356001600160a01b0381168114613d2c57600080fd5b600080604083850312156143d457600080fd5b6143dd836143aa565b946020939093013593505050565b6001600160e01b03198116811461170257600080fd5b60006020828403121561441357600080fd5b8135610a5a816143eb565b6000815180845260005b8181101561444457602081850181015186830182015201614428565b81811115614456576000602083870101525b50601f01601f19169290920160200192915050565b602081526000610a5a602083018461441e565b60008060006060848603121561449357600080fd5b83359250602084013591506144aa604085016143aa565b90509250925092565b6000602082840312156144c557600080fd5b5035919050565b6000602082840312156144de57600080fd5b610a5a826143aa565b60008083601f8401126144f957600080fd5b5081356001600160401b0381111561451057600080fd5b6020830191508360208260051b850101111561452b57600080fd5b9250929050565b60008060006040848603121561454757600080fd5b8335925060208401356001600160401b0381111561456457600080fd5b614570868287016144e7565b9497909650939450505050565b634e487b7160e01b600052604160045260246000fd5b601f8201601f191681016001600160401b03811182821017156145b8576145b861457d565b6040525050565b60006001600160401b038211156145d8576145d861457d565b5060051b60200190565b600082601f8301126145f357600080fd5b81356020614600826145bf565b60405161460d8282614593565b83815260059390931b850182019282810191508684111561462d57600080fd5b8286015b848110156146485780358352918301918301614631565b509695505050505050565b600082601f83011261466457600080fd5b81356001600160401b0381111561467d5761467d61457d565b604051614694601f8301601f191660200182614593565b8181528460208386010111156146a957600080fd5b816020850160208301376000918101602001919091529392505050565b600080600080600060a086880312156146de57600080fd5b6146e7866143aa565b94506146f5602087016143aa565b935060408601356001600160401b038082111561471157600080fd5b61471d89838a016145e2565b9450606088013591508082111561473357600080fd5b61473f89838a016145e2565b9350608088013591508082111561475557600080fd5b5061476288828901614653565b9150509295509295909350565b6000806040838503121561478257600080fd5b82356001600160401b038082111561479957600080fd5b818501915085601f8301126147ad57600080fd5b813560206147ba826145bf565b6040516147c78282614593565b83815260059390931b85018201928281019150898411156147e757600080fd5b948201945b8386101561480c576147fd866143aa565b825294820194908201906147ec565b9650508601359250508082111561482257600080fd5b5061482f858286016145e2565b9150509250929050565b600081518084526020808501945080840160005b838110156148695781518752958201959082019060010161484d565b509495945050505050565b602081526000610a5a6020830184614839565b6000806000806080858703121561489d57600080fd5b6148a6856143aa565b9350602085013592506040850135915060608501356001600160401b038111156148cf57600080fd5b6148db87828801614653565b91505092959194509250565b600080604083850312156148fa57600080fd5b50508035926020909101359150565b6000806020838503121561491c57600080fd5b82356001600160401b0381111561493257600080fd5b61493e858286016144e7565b90969095509350505050565b60006020828403121561495c57600080fd5b81356001600160401b0381111561497257600080fd5b61497e84828501614653565b949350505050565b801515811461170257600080fd5b600080604083850312156149a757600080fd5b6149b0836143aa565b915060208301356149c081614986565b809150509250929050565b6000806000606084860312156149e057600080fd5b83356001600160401b03808211156149f757600080fd5b614a0387838801614653565b94506020860135915080821115614a1957600080fd5b614a2587838801614653565b93506040860135915080821115614a3b57600080fd5b50614a4886828701614653565b9150509250925092565b80356001600160401b0381168114613d2c57600080fd5b600080600080600060a08688031215614a8157600080fd5b85359450614a9160208701614a52565b935060408601359250614aa660608701614a52565b9150614ab460808701614a52565b90509295509295909350565b60008060008060808587031215614ad657600080fd5b614adf856143aa565b935060208501356001600160401b0380821115614afb57600080fd5b614b07888389016145e2565b94506040870135915080821115614b1d57600080fd5b614b29888389016145e2565b93506060870135915080821115614b3f57600080fd5b506148db87828801614653565b60008083601f840112614b5e57600080fd5b5081356001600160401b03811115614b7557600080fd5b60208301915083602082850101111561452b57600080fd5b600080600080600080600060a0888a031215614ba857600080fd5b614bb1886143aa565b96506020880135955060408801356001600160401b0380821115614bd457600080fd5b614be08b838c01614b4c565b9097509550859150614bf460608b016143aa565b945060808a0135915080821115614c0a57600080fd5b50614c178a828b01614b4c565b989b979a50959850939692959293505050565b60008060408385031215614c3d57600080fd5b614c46836143aa565b915060208301356001600160401b03811115614c6157600080fd5b61482f858286016145e2565b60008060408385031215614c8057600080fd5b82359150614c90602084016143aa565b90509250929050565b60008060408385031215614cac57600080fd5b614cb5836143aa565b9150614c90602084016143aa565b600080600080600060a08688031215614cdb57600080fd5b614ce4866143aa565b9450614cf2602087016143aa565b9350604086013592506060860135915060808601356001600160401b03811115614d1b57600080fd5b61476288828901614653565b60208082526031908201527f455243313135355472616461626c652363726561746f724f6e6c793a204f4e4c6040820152701657d0d491505513d497d0531313d5d151607a1b606082015260800190565b634e487b7160e01b600052601160045260246000fd5b600063ffffffff808316818516808303821115614dad57614dad614d78565b01949350505050565b634e487b7160e01b600052603260045260246000fd5b600181811c90821680614de057607f821691505b60208210811415614e0157634e487b7160e01b600052602260045260246000fd5b50919050565b60208082526026908201527f476f7665726e61626c653a2063616c6c6572206973206e6f742074686520676f6040820152653b32b93737b960d11b606082015260800190565b600060208284031215614e5f57600080fd5b8151610a5a81614986565b6020808252818101527f524549544e46543a20436f756c64206e6f74207472616e736665722066756e64604082015260600190565b60008219821115614eb257614eb2614d78565b500190565b60208082526035908201527f455243313135355472616461626c65237368617265486f6c646572734f6e6c796040820152740e8813d3931657d3d5d3915494d7d0531313d5d151605a1b606082015260800190565b6000816000190483118215151615614f2657614f26614d78565b500290565b6020808252600b908201526a4e6f7420796574204b594360a81b604082015260600190565b6020808252601f908201527f5265656e7472616e637947756172643a207265656e7472616e742063616c6c00604082015260600190565b60208082526027908201527f524549544e46543a206e656564206d6f72652066756e64696e67732066726f6d6040820152661034b9b9bab2b960c91b606082015260800190565b60208082526022908201527f4b59434163636573733a2063616c6c6572206973206e6f74207468652061646d60408201526134b760f11b606082015260800190565b600060001982141561502457615024614d78565b5060010190565b60208082526028908201527f455243313135353a2069647320616e6420616d6f756e7473206c656e677468206040820152670dad2e6dac2e8c6d60c31b606082015260800190565b60208082526025908201527f455243313135353a207472616e7366657220746f20746865207a65726f206164604082015264647265737360d81b606082015260800190565b6020808252602a908201527f455243313135353a20696e73756666696369656e742062616c616e636520666f60408201526939103a3930b739b332b960b11b606082015260800190565b6040815260006151156040830185614839565b82810360208401526151278185614839565b95945050505050565b600063ffffffff8083168181141561514a5761514a614d78565b6001019392505050565b60208152816020820152818360408301376000818301604090810191909152601f909201601f19160101919050565b6000826151a057634e487b7160e01b600052601260045260246000fd5b500490565b6000828210156151b7576151b7614d78565b500390565b6001600160a01b0386811682528516602082015260a0604082018190526000906151e890830186614839565b82810360608401526151fa8186614839565b9050828103608084015261520e818561441e565b98975050505050505050565b60006020828403121561522c57600080fd5b8151610a5a816143eb565b600060033d11156152505760046000803e5060005160e01c5b90565b600060443d10156152615790565b6040516003193d81016004833e81513d6001600160401b03816024840111818411171561529057505050505090565b82850191508151818111156152a85750505050505090565b843d87010160208285010111156152c25750505050505090565b6152d160208286010187614593565b509095945050505050565b60208082526028908201527f455243313135353a204552433131353552656365697665722072656a656374656040820152676420746f6b656e7360c01b606082015260800190565b60208082526021908201527f455243313135353a206d696e7420746f20746865207a65726f206164647265736040820152607360f81b606082015260800190565b6020808252602e908201527f496e697469616c697a61626c653a20636f6e747261637420697320616c72656160408201526d191e481a5b9a5d1a585b1a5e995960921b606082015260800190565b6020808252602b908201527f496e697469616c697a61626c653a20636f6e7472616374206973206e6f74206960408201526a6e697469616c697a696e6760a81b606082015260800190565b6001600160a01b03868116825285166020820152604081018490526060810183905260a0608082018190526000906154389083018461441e565b97965050505050505056fea264697066735822122056d7018297ad95338244eaa9158e8ae3fc21c3d687c5091ae161708fbc9d75b164736f6c63430008090033",
  "linkReferences": {},
  "deployedLinkReferences": {}
}