{
  "_format": "hh-sol-artifact-1",
  "contractName": "REITNFT",
  "sourceName": "contracts/REITNFT.sol",
  "abi": [
    {
      "anonymous": false,
      "inputs": [
        {
          "indexed": true,
          "internalType": "address",
          "name": "account",
          "type": "address"
        },
        {
          "indexed": true,
          "internalType": "address",
          "name": "operator",
          "type": "address"
        },
        {
          "indexed": false,
          "internalType": "bool",
          "name": "approved",
          "type": "bool"
        }
      ],
      "name": "ApprovalForAll",
      "type": "event"
    },
    {
      "anonymous": false,
      "inputs": [
        {
          "indexed": false,
          "internalType": "uint256",
          "name": "id",
          "type": "uint256"
        }
      ],
      "name": "Create",
      "type": "event"
    },
    {
      "anonymous": false,
      "inputs": [
        {
          "indexed": true,
          "internalType": "address",
          "name": "previousGovernor",
          "type": "address"
        },
        {
          "indexed": true,
          "internalType": "address",
          "name": "newGovernor",
          "type": "address"
        }
      ],
      "name": "GovernorshipTransferred",
      "type": "event"
    },
    {
      "anonymous": false,
      "inputs": [
        {
          "indexed": false,
          "internalType": "uint8",
          "name": "version",
          "type": "uint8"
        }
      ],
      "name": "Initialized",
      "type": "event"
    },
    {
      "anonymous": false,
      "inputs": [
        {
          "indexed": true,
          "internalType": "address",
          "name": "operator",
          "type": "address"
        },
        {
          "indexed": true,
          "internalType": "address",
          "name": "from",
          "type": "address"
        },
        {
          "indexed": true,
          "internalType": "address",
          "name": "to",
          "type": "address"
        },
        {
          "indexed": false,
          "internalType": "uint256[]",
          "name": "ids",
          "type": "uint256[]"
        },
        {
          "indexed": false,
          "internalType": "uint256[]",
          "name": "values",
          "type": "uint256[]"
        }
      ],
      "name": "TransferBatch",
      "type": "event"
    },
    {
      "anonymous": false,
      "inputs": [
        {
          "indexed": true,
          "internalType": "address",
          "name": "operator",
          "type": "address"
        },
        {
          "indexed": true,
          "internalType": "address",
          "name": "from",
          "type": "address"
        },
        {
          "indexed": true,
          "internalType": "address",
          "name": "to",
          "type": "address"
        },
        {
          "indexed": false,
          "internalType": "uint256",
          "name": "id",
          "type": "uint256"
        },
        {
          "indexed": false,
          "internalType": "uint256",
          "name": "value",
          "type": "uint256"
        }
      ],
      "name": "TransferSingle",
      "type": "event"
    },
    {
      "anonymous": false,
      "inputs": [
        {
          "indexed": false,
          "internalType": "string",
          "name": "value",
          "type": "string"
        },
        {
          "indexed": true,
          "internalType": "uint256",
          "name": "id",
          "type": "uint256"
        }
      ],
      "name": "URI",
      "type": "event"
    },
    {
      "inputs": [
        {
          "internalType": "address[]",
          "name": "accounts",
          "type": "address[]"
        }
      ],
      "name": "addManyToKYC",
      "outputs": [],
      "stateMutability": "nonpayable",
      "type": "function"
    },
    {
      "inputs": [
        {
          "internalType": "address",
          "name": "account",
          "type": "address"
        }
      ],
      "name": "addToKYC",
      "outputs": [],
      "stateMutability": "nonpayable",
      "type": "function"
    },
    {
      "inputs": [
        {
          "internalType": "address",
          "name": "account",
          "type": "address"
        },
        {
          "internalType": "uint256",
          "name": "id",
          "type": "uint256"
        }
      ],
      "name": "balanceOf",
      "outputs": [
        {
          "internalType": "uint256",
          "name": "",
          "type": "uint256"
        }
      ],
      "stateMutability": "view",
      "type": "function"
    },
    {
      "inputs": [
        {
          "internalType": "address[]",
          "name": "accounts",
          "type": "address[]"
        },
        {
          "internalType": "uint256[]",
          "name": "ids",
          "type": "uint256[]"
        }
      ],
      "name": "balanceOfBatch",
      "outputs": [
        {
          "internalType": "uint256[]",
          "name": "",
          "type": "uint256[]"
        }
      ],
      "stateMutability": "view",
      "type": "function"
    },
    {
      "inputs": [
        {
          "internalType": "address",
          "name": "_to",
          "type": "address"
        },
        {
          "internalType": "uint256[]",
          "name": "_ids",
          "type": "uint256[]"
        },
        {
          "internalType": "uint256[]",
          "name": "_quantities",
          "type": "uint256[]"
        },
        {
          "internalType": "bytes",
          "name": "_data",
          "type": "bytes"
        }
      ],
      "name": "batchMint",
      "outputs": [],
      "stateMutability": "nonpayable",
      "type": "function"
    },
    {
      "inputs": [
        {
          "internalType": "uint256",
          "name": "_id",
          "type": "uint256"
        }
      ],
      "name": "claimBenefit",
      "outputs": [],
      "stateMutability": "nonpayable",
      "type": "function"
    },
    {
      "inputs": [],
      "name": "contractURI",
      "outputs": [
        {
          "internalType": "string",
          "name": "",
          "type": "string"
        }
      ],
      "stateMutability": "view",
      "type": "function"
    },
    {
      "inputs": [
        {
          "internalType": "address",
          "name": "_initialOwner",
          "type": "address"
        },
        {
          "internalType": "uint256",
          "name": "_initialSupply",
          "type": "uint256"
        },
        {
          "internalType": "string",
          "name": "_uri",
          "type": "string"
        },
        {
          "internalType": "address",
          "name": "_fundingToken",
          "type": "address"
        },
        {
          "internalType": "bytes",
          "name": "_data",
          "type": "bytes"
        }
      ],
      "name": "createREIT",
      "outputs": [
        {
          "internalType": "uint256",
          "name": "",
          "type": "uint256"
        }
      ],
      "stateMutability": "nonpayable",
      "type": "function"
    },
    {
      "inputs": [
        {
          "internalType": "uint256",
          "name": "",
          "type": "uint256"
        }
      ],
      "name": "creators",
      "outputs": [
        {
          "internalType": "address",
          "name": "",
          "type": "address"
        }
      ],
      "stateMutability": "view",
      "type": "function"
    },
    {
      "inputs": [
        {
          "internalType": "uint256",
          "name": "",
          "type": "uint256"
        }
      ],
      "name": "dividendFunds",
      "outputs": [
        {
          "internalType": "uint256",
          "name": "",
          "type": "uint256"
        }
      ],
      "stateMutability": "view",
      "type": "function"
    },
    {
      "inputs": [
        {
          "internalType": "uint256",
          "name": "_id",
          "type": "uint256"
        }
      ],
      "name": "getIPOContract",
      "outputs": [
        {
          "internalType": "address",
          "name": "",
          "type": "address"
        }
      ],
      "stateMutability": "view",
      "type": "function"
    },
    {
      "inputs": [
        {
          "internalType": "uint256",
          "name": "_id",
          "type": "uint256"
        }
      ],
      "name": "getIPOUnitPrice",
      "outputs": [
        {
          "internalType": "uint256",
          "name": "",
          "type": "uint256"
        }
      ],
      "stateMutability": "view",
      "type": "function"
    },
    {
      "inputs": [],
      "name": "governor",
      "outputs": [
        {
          "internalType": "address",
          "name": "",
          "type": "address"
        }
      ],
      "stateMutability": "view",
      "type": "function"
    },
    {
      "inputs": [
        {
          "internalType": "string",
          "name": "_name",
          "type": "string"
        },
        {
          "internalType": "string",
          "name": "_symbol",
          "type": "string"
        },
        {
          "internalType": "string",
          "name": "_uri",
          "type": "string"
        }
      ],
      "name": "initialize",
      "outputs": [],
      "stateMutability": "nonpayable",
      "type": "function"
    },
    {
      "inputs": [
        {
          "internalType": "uint256",
          "name": "_id",
          "type": "uint256"
        },
        {
          "internalType": "uint256",
          "name": "ipoTime",
          "type": "uint256"
        },
        {
          "internalType": "uint256",
          "name": "ipoUnitPrice",
          "type": "uint256"
        },
        {
          "internalType": "uint256",
          "name": "liquidationTime",
          "type": "uint256"
        },
        {
          "internalType": "uint256",
          "name": "registerationFee",
          "type": "uint256"
        }
      ],
      "name": "initiate",
      "outputs": [],
      "stateMutability": "nonpayable",
      "type": "function"
    },
    {
      "inputs": [
        {
          "internalType": "address",
          "name": "account",
          "type": "address"
        },
        {
          "internalType": "address",
          "name": "operator",
          "type": "address"
        }
      ],
      "name": "isApprovedForAll",
      "outputs": [
        {
          "internalType": "bool",
          "name": "",
          "type": "bool"
        }
      ],
      "stateMutability": "view",
      "type": "function"
    },
    {
      "inputs": [
        {
          "internalType": "uint256",
          "name": "_id",
          "type": "uint256"
        },
        {
          "internalType": "address",
          "name": "account",
          "type": "address"
        }
      ],
      "name": "isIPOContract",
      "outputs": [
        {
          "internalType": "bool",
          "name": "",
          "type": "bool"
        }
      ],
      "stateMutability": "view",
      "type": "function"
    },
    {
      "inputs": [
        {
          "internalType": "address",
          "name": "account",
          "type": "address"
        }
      ],
      "name": "isKYC",
      "outputs": [
        {
          "internalType": "bool",
          "name": "",
          "type": "bool"
        }
      ],
      "stateMutability": "view",
      "type": "function"
    },
    {
      "inputs": [
        {
          "internalType": "address",
          "name": "_to",
          "type": "address"
        },
        {
          "internalType": "uint256",
          "name": "_id",
          "type": "uint256"
        },
        {
          "internalType": "uint256",
          "name": "_quantity",
          "type": "uint256"
        },
        {
          "internalType": "bytes",
          "name": "_data",
          "type": "bytes"
        }
      ],
      "name": "mint",
      "outputs": [],
      "stateMutability": "nonpayable",
      "type": "function"
    },
    {
      "inputs": [],
      "name": "name",
      "outputs": [
        {
          "internalType": "string",
          "name": "",
          "type": "string"
        }
      ],
      "stateMutability": "view",
      "type": "function"
    },
    {
      "inputs": [
        {
          "internalType": "uint256",
          "name": "_id",
          "type": "uint256"
        },
        {
          "internalType": "uint256",
          "name": "amount",
          "type": "uint256"
        }
      ],
      "name": "payDividends",
      "outputs": [],
      "stateMutability": "nonpayable",
      "type": "function"
    },
    {
      "inputs": [
        {
          "internalType": "uint256",
          "name": "_id",
          "type": "uint256"
        }
      ],
      "name": "registerBalanceOwnership",
      "outputs": [],
      "stateMutability": "nonpayable",
      "type": "function"
    },
    {
      "inputs": [
        {
          "internalType": "address",
          "name": "account",
          "type": "address"
        },
        {
          "internalType": "uint256",
          "name": "id",
          "type": "uint256"
        }
      ],
      "name": "registeredBalanceOf",
      "outputs": [
        {
          "internalType": "uint256",
          "name": "",
          "type": "uint256"
        }
      ],
      "stateMutability": "view",
      "type": "function"
    },
    {
      "inputs": [
        {
          "internalType": "address",
          "name": "account",
          "type": "address"
        }
      ],
      "name": "removeKYC",
      "outputs": [],
      "stateMutability": "nonpayable",
      "type": "function"
    },
    {
      "inputs": [
        {
          "internalType": "address[]",
          "name": "accounts",
          "type": "address[]"
        }
      ],
      "name": "removeManyKYC",
      "outputs": [],
      "stateMutability": "nonpayable",
      "type": "function"
    },
    {
      "inputs": [],
      "name": "renounceGovernorship",
      "outputs": [],
      "stateMutability": "nonpayable",
      "type": "function"
    },
    {
      "inputs": [],
      "name": "revokeKYCAdmin",
      "outputs": [],
      "stateMutability": "nonpayable",
      "type": "function"
    },
    {
      "inputs": [
        {
          "internalType": "address",
          "name": "from",
          "type": "address"
        },
        {
          "internalType": "address",
          "name": "to",
          "type": "address"
        },
        {
          "internalType": "uint256[]",
          "name": "ids",
          "type": "uint256[]"
        },
        {
          "internalType": "uint256[]",
          "name": "amounts",
          "type": "uint256[]"
        },
        {
          "internalType": "bytes",
          "name": "data",
          "type": "bytes"
        }
      ],
      "name": "safeBatchTransferFrom",
      "outputs": [],
      "stateMutability": "nonpayable",
      "type": "function"
    },
    {
      "inputs": [
        {
          "internalType": "address",
          "name": "from",
          "type": "address"
        },
        {
          "internalType": "address",
          "name": "to",
          "type": "address"
        },
        {
          "internalType": "uint256",
          "name": "id",
          "type": "uint256"
        },
        {
          "internalType": "uint256",
          "name": "amount",
          "type": "uint256"
        },
        {
          "internalType": "bytes",
          "name": "data",
          "type": "bytes"
        }
      ],
      "name": "safeTransferFrom",
      "outputs": [],
      "stateMutability": "nonpayable",
      "type": "function"
    },
    {
      "inputs": [
        {
          "internalType": "address",
          "name": "operator",
          "type": "address"
        },
        {
          "internalType": "bool",
          "name": "approved",
          "type": "bool"
        }
      ],
      "name": "setApprovalForAll",
      "outputs": [],
      "stateMutability": "nonpayable",
      "type": "function"
    },
    {
      "inputs": [
        {
          "internalType": "string",
          "name": "_newBaseMetadataURI",
          "type": "string"
        }
      ],
      "name": "setBaseMetadataURI",
      "outputs": [],
      "stateMutability": "nonpayable",
      "type": "function"
    },
    {
      "inputs": [
        {
          "internalType": "string",
          "name": "_uri",
          "type": "string"
        }
      ],
      "name": "setContractURI",
      "outputs": [],
      "stateMutability": "nonpayable",
      "type": "function"
    },
    {
      "inputs": [
        {
          "internalType": "address",
          "name": "_to",
          "type": "address"
        },
        {
          "internalType": "uint256[]",
          "name": "_ids",
          "type": "uint256[]"
        }
      ],
      "name": "setCreator",
      "outputs": [],
      "stateMutability": "nonpayable",
      "type": "function"
    },
    {
      "inputs": [
        {
          "internalType": "uint256",
          "name": "_id",
          "type": "uint256"
        },
        {
          "internalType": "address",
          "name": "account",
          "type": "address"
        }
      ],
      "name": "setIPOContract",
      "outputs": [],
      "stateMutability": "nonpayable",
      "type": "function"
    },
    {
      "inputs": [
        {
          "internalType": "address",
          "name": "account",
          "type": "address"
        }
      ],
      "name": "setKYCAdmin",
      "outputs": [],
      "stateMutability": "nonpayable",
      "type": "function"
    },
    {
      "inputs": [
        {
          "internalType": "bytes4",
          "name": "interfaceId",
          "type": "bytes4"
        }
      ],
      "name": "supportsInterface",
      "outputs": [
        {
          "internalType": "bool",
          "name": "",
          "type": "bool"
        }
      ],
      "stateMutability": "view",
      "type": "function"
    },
    {
      "inputs": [],
      "name": "symbol",
      "outputs": [
        {
          "internalType": "string",
          "name": "",
          "type": "string"
        }
      ],
      "stateMutability": "view",
      "type": "function"
    },
    {
      "inputs": [
        {
          "internalType": "uint256",
          "name": "",
          "type": "uint256"
        }
      ],
      "name": "tokenMetadata",
      "outputs": [
        {
          "internalType": "uint256",
          "name": "ipoTime",
          "type": "uint256"
        },
        {
          "internalType": "uint256",
          "name": "ipoUnitPrice",
          "type": "uint256"
        },
        {
          "internalType": "uint256",
          "name": "liquidationTime",
          "type": "uint256"
        },
        {
          "internalType": "uint256",
          "name": "registerationFee",
          "type": "uint256"
        }
      ],
      "stateMutability": "view",
      "type": "function"
    },
    {
      "inputs": [
        {
          "internalType": "uint256",
          "name": "",
          "type": "uint256"
        }
      ],
      "name": "tokenSupply",
      "outputs": [
        {
          "internalType": "uint256",
          "name": "",
          "type": "uint256"
        }
      ],
      "stateMutability": "view",
      "type": "function"
    },
    {
      "inputs": [
        {
          "internalType": "uint256",
          "name": "",
          "type": "uint256"
        }
      ],
      "name": "tokenUri",
      "outputs": [
        {
          "internalType": "string",
          "name": "",
          "type": "string"
        }
      ],
      "stateMutability": "view",
      "type": "function"
    },
    {
      "inputs": [
        {
          "internalType": "uint256",
          "name": "",
          "type": "uint256"
        }
      ],
      "name": "tokenYieldData",
      "outputs": [
        {
          "internalType": "uint256",
          "name": "yieldDividend",
          "type": "uint256"
        },
        {
          "internalType": "uint256",
          "name": "liquidationExtension",
          "type": "uint256"
        }
      ],
      "stateMutability": "view",
      "type": "function"
    },
    {
      "inputs": [
        {
          "internalType": "uint256",
          "name": "_id",
          "type": "uint256"
        }
      ],
      "name": "totalSupply",
      "outputs": [
        {
          "internalType": "uint256",
          "name": "",
          "type": "uint256"
        }
      ],
      "stateMutability": "view",
      "type": "function"
    },
    {
      "inputs": [
        {
          "internalType": "address",
          "name": "newGovernor",
          "type": "address"
        }
      ],
      "name": "transferGovernorship",
      "outputs": [],
      "stateMutability": "nonpayable",
      "type": "function"
    },
    {
      "inputs": [
        {
          "internalType": "uint256",
          "name": "_id",
          "type": "uint256"
        },
        {
          "internalType": "uint256",
          "name": "dividend",
          "type": "uint256"
        }
      ],
      "name": "unlockDividends",
      "outputs": [],
      "stateMutability": "nonpayable",
      "type": "function"
    },
    {
      "inputs": [
        {
          "internalType": "uint256",
          "name": "_id",
          "type": "uint256"
        }
      ],
      "name": "uri",
      "outputs": [
        {
          "internalType": "string",
          "name": "",
          "type": "string"
        }
      ],
      "stateMutability": "view",
      "type": "function"
    }
  ],
  "bytecode": "0x608060405234801561001057600080fd5b5061408e806100206000396000f3fe608060405234801561001057600080fd5b506004361061027e5760003560e01c806381c0c2631161015c578063bd85b039116100ce578063e8a3d48511610087578063e8a3d48514610652578063e8e0b2d01461065a578063e985e9c51461066d578063efe7744f146106a9578063f242432a146106ca578063f6ee8fcc146106dd57600080fd5b8063bd85b03914610593578063cd53d08e146105b3578063d1c901a4146105dc578063d2a6b51a14610619578063d64e83d71461062c578063d98d9eaf1461063f57600080fd5b8063a22cb46511610120578063a22cb46514610521578063a6487c5314610534578063abfebaa414610547578063b48ab8b61461055a578063b6aa515b1461056d578063bb8973031461058057600080fd5b806381c0c263146104c1578063938e3d7b146104c957806395d89b41146104dc5780639944f518146104e45780639b166e2f146104f757600080fd5b80633ade0a38116101f557806359d1a4b1116101b957806359d1a4b11461040657806368a140771461040e5780636914db6014610432578063731133e91461048857806378c4acb81461049b5780637e518ec8146104ae57600080fd5b80633ade0a381461039a578063409f8c48146103ad5780634e1273f4146103c057806358cc49a5146103e0578063590a5ce0146103f357600080fd5b80631624610a116102475780631624610a146103195780631675f4551461032c57806322b6ccfe1461033f578063243f6b58146103545780632693ebf2146103675780632eb2c2d61461038757600080fd5b8062fdd58e1461028357806301ffc9a7146102a957806306fdde03146102cc5780630c340a24146102e15780630e89341c14610306575b600080fd5b610296610291366004612fd5565b6106f0565b6040519081526020015b60405180910390f35b6102bc6102b7366004613015565b610705565b60405190151581526020016102a0565b6102d4610755565b6040516102a09190613086565b6097546001600160a01b03165b6040516001600160a01b0390911681526020016102a0565b6102d4610314366004613099565b6107e4565b610296610327366004612fd5565b610886565b6102d461033a366004613099565b6108e0565b61035261034d3660046130b2565b6108f9565b005b6103526103623660046130b2565b610949565b610296610375366004613099565b60fd6020526000908152604090205481565b610352610395366004613216565b610996565b6103526103a8366004613099565b610ced565b6103526103bb3660046130b2565b610fcb565b6103d36103ce3660046132bf565b611057565b6040516102a091906133c4565b6103526103ee366004613099565b611180565b6103526104013660046133d7565b611528565b61035261161c565b61029661041c366004613099565b6000908152610135602052604090206001015490565b610468610440366004613099565b6101356020526000908152604090208054600182015460028301546003909301549192909184565b6040805194855260208501939093529183015260608201526080016102a0565b6103526104963660046133f9565b611652565b6103526104a9366004613459565b6116c8565b6103526104bc3660046134cd565b61176b565b61035261179e565b6103526104d73660046134cd565b6117d2565b6102d4611813565b6102bc6104f23660046130b2565b611821565b6102ee610505366004613099565b600090815261013a60205260409020546001600160a01b031690565b61035261052f366004613517565b611856565b61035261054236600461354e565b611861565b6103526105553660046135d5565b61192d565b610352610568366004613610565b6119b0565b61035261057b3660046130b2565b611b3f565b61029661058e3660046136e4565b611bdd565b6102966105a1366004613099565b600090815260fd602052604090205490565b6102ee6105c1366004613099565b60fc602052600090815260409020546001600160a01b031681565b6106046105ea366004613099565b610136602052600090815260409020805460019091015482565b604080519283526020830191909152016102a0565b610352610627366004613781565b611dcf565b61035261063a366004613459565b611e81565b6102bc61064d3660046137c4565b611f1f565b6102d4611f41565b6103526106683660046133d7565b611fd3565b6102bc61067b3660046137f0565b6001600160a01b03918216600090815260666020908152604080832093909416825291909152205460ff1690565b6102966106b7366004613099565b6101386020526000908152604090205481565b6103526106d836600461381a565b6120cf565b6103526106eb3660046137c4565b61224b565b60006106fc83836122b3565b90505b92915050565b60006001600160e01b03198216636cdb3d1360e11b148061073657506001600160e01b031982166303a24d0760e21b145b806106ff57506301ffc9a760e01b6001600160e01b03198316146106ff565b61010080546107639061387e565b80601f016020809104026020016040519081016040528092919081815260200182805461078f9061387e565b80156107dc5780601f106107b1576101008083540402835291602001916107dc565b820191906000526020600020905b8154815290600101906020018083116107bf57829003601f168201915b505050505081565b600081815260fe602052604090208054606091906108019061387e565b80601f016020809104026020016040519081016040528092919081815260200182805461082d9061387e565b801561087a5780601f1061084f5761010080835404028352916020019161087a565b820191906000526020600020905b81548152906001019060200180831161085d57829003601f168201915b50505050509050919050565b60006001600160a01b0383166108b75760405162461bcd60e51b81526004016108ae906138b9565b60405180910390fd5b50600090815261013b602090815260408083206001600160a01b03949094168352929052205490565b60fe60205260009081526040902080546107639061387e565b610103546001600160a01b031633146109245760405162461bcd60e51b81526004016108ae90613904565b6001600160a01b0316600090815261010260205260409020805460ff19166001179055565b610103546001600160a01b031633146109745760405162461bcd60e51b81526004016108ae90613904565b6001600160a01b0316600090815261010260205260409020805460ff19169055565b6001600160a01b0385163314806109b257506109b2853361067b565b610a195760405162461bcd60e51b815260206004820152603260248201527f455243313135353a207472616e736665722063616c6c6572206973206e6f74206044820152711bdddb995c881b9bdc88185c1c1c9bdd995960721b60648201526084016108ae565b60005b8351811015610abd576000848281518110610a3957610a39613946565b602002602001015190506000848381518110610a5757610a57613946565b602090810291909101810151600084815261013b835260408082206001600160a01b038d168352909352919091205490915081811015610aa95760405162461bcd60e51b81526004016108ae9061395c565b50505080610ab6906139be565b9050610a1c565b50610acb8585858585612303565b60005b8351811015610b4f576000848281518110610aeb57610aeb613946565b602002602001015190506000848381518110610b0957610b09613946565b602090810291909101810151600093845261013b825260408085206001600160a01b038c168652909252922080549290920390915550610b48816139be565b9050610ace565b50610b5984611821565b15610c245760005b8351811015610c1e576000848281518110610b7e57610b7e613946565b60200260200101519050610b928188611f1f565b15610c0d576000848381518110610bab57610bab613946565b602090810291909101810151600084815261013b835260408082206001600160a01b038c1683529093529190912054909150610be790826124b6565b600083815261013b602090815260408083206001600160a01b038c168452909152902055505b50610c17816139be565b9050610b61565b50610ce6565b60005b8351811015610ce4576000848281518110610c4457610c44613946565b60200260200101519050610c588187611f1f565b15610cd3576000848381518110610c7157610c71613946565b602090810291909101810151600084815261013b835260408082206001600160a01b038c1683529093529190912054909150610cad90826124b6565b600083815261013b602090815260408083206001600160a01b038c168452909152902055505b50610cdd816139be565b9050610c27565b505b5050505050565b336000908152610102602052604090205460ff16610d3b5760405162461bcd60e51b815260206004820152600b60248201526a4e6f7420796574204b594360a81b60448201526064016108ae565b806000610d49335b836106f0565b11610d665760405162461bcd60e51b81526004016108ae906139d9565b60008281526101356020908152604080832081516080810183528154815260018201549381019390935260028101549183019190915260030154606082015290610db033856106f0565b600085815261013b6020908152604080832033845290915281205491925090610dda9083906124c2565b905060008111610e2c5760405162461bcd60e51b815260206004820152601c60248201527f524549544e46543a204e6f7468696e6720746f2072656769737465720000000060448201526064016108ae565b60008581526101396020908152604080832054815163313ce56760e01b815291516001600160a01b039091169392610ef192859263313ce56792600480840193919291829003018186803b158015610e8357600080fd5b505afa158015610e97573d6000803e3d6000fd5b505050506040513d601f19601f82011682018060405250810190610ebb9190613a2e565b610ec690600a613b35565b610eeb8760600151610ee58960200151886124ce90919063ffffffff16565b906124ce565b906124da565b90506001600160a01b0382166323b872dd336040516001600160e01b031960e084901b1681526001600160a01b03909116600482015230602482015260448101849052606401602060405180830381600087803b158015610f5157600080fd5b505af1158015610f65573d6000803e3d6000fd5b505050506040513d601f19601f82011682018060405250810190610f899190613b44565b610fa55760405162461bcd60e51b81526004016108ae90613b61565b505050600093845261013b60209081526040808620338752909152909320929092555050565b6097546001600160a01b03163314610ff55760405162461bcd60e51b81526004016108ae90613b96565b6001600160a01b03811661104b5760405162461bcd60e51b815260206004820181905260248201527f4b59432041646d696e2063616e6e6f74206265207a65726f206164647265737360448201526064016108ae565b611054816124e6565b50565b606081518351146110bc5760405162461bcd60e51b815260206004820152602960248201527f455243313135353a206163636f756e747320616e6420696473206c656e677468604482015268040dad2e6dac2e8c6d60bb1b60648201526084016108ae565b600083516001600160401b038111156110d7576110d76130cd565b604051908082528060200260200182016040528015611100578160200160208202803683370190505b50905060005b84518110156111785761114b85828151811061112457611124613946565b602002602001015185838151811061113e5761113e613946565b60200260200101516106f0565b82828151811061115d5761115d613946565b6020908102919091010152611171816139be565b9050611106565b509392505050565b336000908152610102602052604090205460ff166111ce5760405162461bcd60e51b815260206004820152600b60248201526a4e6f7420796574204b594360a81b60448201526064016108ae565b8060006111da33610d43565b116111f75760405162461bcd60e51b81526004016108ae906139d9565b600260c954141561124a5760405162461bcd60e51b815260206004820152601f60248201527f5265656e7472616e637947756172643a207265656e7472616e742063616c6c0060448201526064016108ae565b600260c95560008281526101366020908152604080832081518083018352815481526001909101548184015285845261013783528184203385529092529091205460ff166112ca576000838152610137602090815260408083203380855292528220805460016101009093026001600160a81b0319909116178217815501555b600083815261013760209081526040808320338085529083528184208251606081018452815460ff81161515825261010090046001600160a01b031681860152600190910154818401819052865189875261013b8652848720938752929094529184205491939261134792909161134191906124ce565b906124c2565b9050600081116113995760405162461bcd60e51b815260206004820181905260248201527f524549544e46543a206e6f206d6f726520636c61696d61626c65207969656c6460448201526064016108ae565b60008581526101386020526040902054818110156114095760405162461bcd60e51b815260206004820152602760248201527f524549544e46543a206e656564206d6f72652066756e64696e67732066726f6d6044820152661034b9b9bab2b960c91b60648201526084016108ae565b6000868152610138602052604090205461142390836124c2565b60008781526101386020526040908190209190915583015161144590836124b6565b6000878152610137602090815260408083203380855290835281842060010194909455898352610139825280832054815163a9059cbb60e01b815260048101959095526024850187905290516001600160a01b0390911693849363a9059cbb9360448084019491939192918390030190829087803b1580156114c657600080fd5b505af11580156114da573d6000803e3d6000fd5b505050506040513d601f19601f820116820180604052508101906114fe9190613b44565b61151a5760405162461bcd60e51b81526004016108ae90613b61565b5050600160c9555050505050565b600082815261013960205260409020546001600160a01b0316806323b872dd336040516001600160e01b031960e084901b1681526001600160a01b03909116600482015230602482015260448101859052606401602060405180830381600087803b15801561159657600080fd5b505af11580156115aa573d6000803e3d6000fd5b505050506040513d601f19601f820116820180604052508101906115ce9190613b44565b6115ea5760405162461bcd60e51b81526004016108ae90613b61565b6000838152610138602052604090205461160490836124b6565b60009384526101386020526040909320929092555050565b6097546001600160a01b031633146116465760405162461bcd60e51b81526004016108ae90613b96565b61165060006124e6565b565b600083815260fc602052604090205483906001600160a01b0316331461168a5760405162461bcd60e51b81526004016108ae90613bdc565b61169685858585612509565b600084815260fd60205260409020546116af90846124b6565b600094855260fd60205260409094209390935550505050565b610103546001600160a01b031633146116f35760405162461bcd60e51b81526004016108ae90613904565b60005b81811015611766576001610102600085858581811061171757611717613946565b905060200201602081019061172c91906130b2565b6001600160a01b031681526020810191909152604001600020805460ff19169115159190911790558061175e816139be565b9150506116f6565b505050565b6097546001600160a01b031633146117955760405162461bcd60e51b81526004016108ae90613b96565b61105481612603565b6097546001600160a01b031633146117c85760405162461bcd60e51b81526004016108ae90613b96565b6116506000612616565b6097546001600160a01b031633146117fc5760405162461bcd60e51b81526004016108ae90613b96565b805161180f9060ff906020840190612eb1565b5050565b61010180546107639061387e565b60006001600160a01b03821661183657600080fd5b506001600160a01b03166000908152610102602052604090205460ff1690565b61180f338383612668565b600061186d6001612749565b90508015611885576000805461ff0019166101001790555b61188e826127d6565b611896612806565b61189e612835565b83516118b290610100906020870190612eb1565b5082516118c790610101906020860190612eb1565b50600060fb5581516118e09060ff906020850190612eb1565b508015611927576000805461ff0019169055604051600181527f7f26b83ff96e1f2b6a682f133852f6798a09c465da95921460cefb38474024989060200160405180910390a15b50505050565b600085815260fc602052604090205485906001600160a01b031633146119655760405162461bcd60e51b81526004016108ae90613bdc565b50604080516080810182529485526020808601948552858201938452606086019283526000968752610135905290942092518355905160018301555160028201559051600390910155565b8151835114611a1a5760405162461bcd60e51b815260206004820152603060248201527f455243313135354d696e744275726e2362617463684d696e743a20494e56414c60448201526f09288be82a4a482b2a6be988a9c8ea8960831b60648201526084016108ae565b60005b8351811015611b32576000848281518110611a3a57611a3a613946565b602090810291909101810151600081815260fc9092526040909120549091506001600160a01b03163314611ac85760405162461bcd60e51b815260206004820152602f60248201527f455243313135355472616461626c652362617463684d696e743a204f4e4c595f60448201526e10d491505513d497d0531313d5d151608a1b60648201526084016108ae565b6000848381518110611adc57611adc613946565b60200260200101519050611b0c8160fd6000858152602001908152602001600020546124b690919063ffffffff16565b600092835260fd6020526040909220919091555080611b2a816139be565b915050611a1d565b5061192784848484612864565b6097546001600160a01b03163314611b695760405162461bcd60e51b81526004016108ae90613b96565b6001600160a01b038116611bd45760405162461bcd60e51b815260206004820152602c60248201527f476f7665726e61626c653a206e657720676f7665726e6f72206973207468652060448201526b7a65726f206164647265737360a01b60648201526084016108ae565b61105481612616565b6097546000906001600160a01b03163314611c0a5760405162461bcd60e51b81526004016108ae90613b96565b6000611c146129ce565b9050611c1e6129e4565b611c2833826129fb565b8515611c8357807f6bb7ff708619ba0610cba295a58592e0451dee2622938c8755667688daf3529b8888604051611c60929190613c2d565b60405180910390a2600081815260fe60205260409020611c81908888612f35565b505b60008181526101396020908152604080832080546001600160a01b0319166001600160a01b038a161790558051608081018252838152808301848152818301858152606083018681528787526101358652848720935184559151600184810191909155905160028401559051600390920191909155815180830183528481528084018581528686526101368552948390209051815593519301929092558151601f8601829004820281018201909252848252611d5f918b9184918c91899089908190840183828082843760009201919091525061165292505050565b600081815261013b602090815260408083206001600160a01b038d16845282528083208b905583835260fd8252918290208a905590518281527f07eac9a0695a188fe9d6fd680bcbbbe39041fb114d5d7ac11252401391f79307910160405180910390a198975050505050505050565b6001600160a01b038216611e3a5760405162461bcd60e51b815260206004820152602c60248201527f455243313135355472616461626c652373657443726561746f723a20494e564160448201526b2624a22fa0a2222922a9a99760a11b60648201526084016108ae565b60005b8151811015611766576000828281518110611e5a57611e5a613946565b60200260200101519050611e6e84826129fb565b5080611e79816139be565b915050611e3d565b610103546001600160a01b03163314611eac5760405162461bcd60e51b81526004016108ae90613904565b60005b818110156117665760006101026000858585818110611ed057611ed0613946565b9050602002016020810190611ee591906130b2565b6001600160a01b031681526020810191909152604001600020805460ff191691151591909117905580611f17816139be565b915050611eaf565b600091825261013a6020526040909120546001600160a01b0391821691161490565b606060ff8054611f509061387e565b80601f0160208091040260200160405190810160405280929190818152602001828054611f7c9061387e565b8015611fc95780601f10611f9e57610100808354040283529160200191611fc9565b820191906000526020600020905b815481529060010190602001808311611fac57829003601f168201915b5050505050905090565b600082815260fc602052604090205482906001600160a01b0316331461200b5760405162461bcd60e51b81526004016108ae90613bdc565b6000838152610136602052604081205461202590846124b6565b600085815260fd602052604081205491925061204182846124ce565b60008781526101386020526040902054909150808211156120b45760405162461bcd60e51b815260206004820152602760248201527f4e6f7420656e6f7567682066756e64696e6720746f2070617920616c6c206469604482015266766964656e647360c81b60648201526084016108ae565b50505060009384526101366020526040909320929092555050565b6001600160a01b0385163314806120eb57506120eb853361067b565b6121495760405162461bcd60e51b815260206004820152602960248201527f455243313135353a2063616c6c6572206973206e6f74206f776e6572206e6f7260448201526808185c1c1c9bdd995960ba1b60648201526084016108ae565b600083815261013b602090815260408083206001600160a01b03891684529091529020548281101561218d5760405162461bcd60e51b81526004016108ae9061395c565b61219a8686868686612a62565b600084815261013b602090815260408083206001600160a01b038a168452909152902083820390556121cc8486611f1f565b806121ec57506121db85611821565b80156121ec57506121ec8487611f1f565b15610ce457600084815261013b602090815260408083206001600160a01b038916845290915290205461221f90846124b6565b600085815261013b602090815260408083206001600160a01b038a168452909152902055505050505050565b600082815260fc602052604090205482906001600160a01b031633146122835760405162461bcd60e51b81526004016108ae90613bdc565b50600091825261013a602052604090912080546001600160a01b0319166001600160a01b03909216919091179055565b60006001600160a01b0383166122db5760405162461bcd60e51b81526004016108ae906138b9565b5060009081526065602090815260408083206001600160a01b03949094168352929052205490565b81518351146123245760405162461bcd60e51b81526004016108ae90613c5c565b6001600160a01b03841661234a5760405162461bcd60e51b81526004016108ae90613ca4565b33612359818787878787610ce4565b60005b845181101561244257600085828151811061237957612379613946565b60200260200101519050600085838151811061239757612397613946565b60209081029190910181015160008481526065835260408082206001600160a01b038e1683529093529190912054909150818110156123e85760405162461bcd60e51b81526004016108ae90613ce9565b60008381526065602090815260408083206001600160a01b038e8116855292528083208585039055908b16825281208054849290612427908490613d33565b925050819055505050508061243b906139be565b905061235c565b50846001600160a01b0316866001600160a01b0316826001600160a01b03167f4a39dc06d4c0dbc64b70af90fd698a233a518aa5d07e595d983b8c0526c8f7fb8787604051612492929190613d4b565b60405180910390a46124a8818787878787610ce4565b610ce4818787878787612bac565b60006106fc8284613d33565b60006106fc8284613d79565b60006106fc8284613d90565b60006106fc8284613daf565b61010380546001600160a01b0319166001600160a01b0392909216919091179055565b6001600160a01b03841661252f5760405162461bcd60e51b81526004016108ae90613dd1565b33600061253b85612d17565b9050600061254885612d17565b905061255983600089858589610ce4565b60008681526065602090815260408083206001600160a01b038b1684529091528120805487929061258b908490613d33565b909155505060408051878152602081018790526001600160a01b03808a1692600092918716917fc3d58168c5ae7397731d063d5bbf3d657854427343f4c083240f7aacaa2d0f62910160405180910390a46125eb83600089858589610ce4565b6125fa83600089898989612d62565b50505050505050565b805161180f906067906020840190612eb1565b609780546001600160a01b038381166001600160a01b0319831681179093556040519116919082907fc7c0c772add429241571afb3805861fb3cfa2af374534088b76cdb4325a87e9a90600090a35050565b816001600160a01b0316836001600160a01b031614156126dc5760405162461bcd60e51b815260206004820152602960248201527f455243313135353a2073657474696e6720617070726f76616c20737461747573604482015268103337b91039b2b63360b91b60648201526084016108ae565b6001600160a01b03838116600081815260666020908152604080832094871680845294825291829020805460ff191686151590811790915591519182527f17307eab39ab6107e8899845ad3d59bd9653f200f220920489ca2b5937696c31910160405180910390a3505050565b60008054610100900460ff1615612790578160ff16600114801561276c5750303b155b6127885760405162461bcd60e51b81526004016108ae90613e12565b506000919050565b60005460ff8084169116106127b75760405162461bcd60e51b81526004016108ae90613e12565b506000805460ff191660ff92909216919091179055600190565b919050565b600054610100900460ff166127fd5760405162461bcd60e51b81526004016108ae90613e60565b61105481612e2c565b600054610100900460ff1661282d5760405162461bcd60e51b81526004016108ae90613e60565b611650612e53565b600054610100900460ff1661285c5760405162461bcd60e51b81526004016108ae90613e60565b611650612e83565b6001600160a01b03841661288a5760405162461bcd60e51b81526004016108ae90613dd1565b81518351146128ab5760405162461bcd60e51b81526004016108ae90613c5c565b336128bb81600087878787610ce4565b60005b8451811015612957578381815181106128d9576128d9613946565b6020026020010151606560008784815181106128f7576128f7613946565b602002602001015181526020019081526020016000206000886001600160a01b03166001600160a01b03168152602001908152602001600020600082825461293f9190613d33565b9091555081905061294f816139be565b9150506128be565b50846001600160a01b031660006001600160a01b0316826001600160a01b03167f4a39dc06d4c0dbc64b70af90fd698a233a518aa5d07e595d983b8c0526c8f7fb87876040516129a8929190613d4b565b60405180910390a46129bf81600087878787610ce4565b610ce681600087878787612bac565b60fb546000906129df9060016124b6565b905090565b60fb80549060006129f4836139be565b9190505550565b600081815260fc602052604090205481906001600160a01b03163314612a335760405162461bcd60e51b81526004016108ae90613bdc565b50600090815260fc6020526040902080546001600160a01b0319166001600160a01b0392909216919091179055565b6001600160a01b038416612a885760405162461bcd60e51b81526004016108ae90613ca4565b336000612a9485612d17565b90506000612aa185612d17565b9050612ab1838989858589610ce4565b60008681526065602090815260408083206001600160a01b038c16845290915290205485811015612af45760405162461bcd60e51b81526004016108ae90613ce9565b60008781526065602090815260408083206001600160a01b038d8116855292528083208985039055908a16825281208054889290612b33908490613d33565b909155505060408051888152602081018890526001600160a01b03808b16928c821692918816917fc3d58168c5ae7397731d063d5bbf3d657854427343f4c083240f7aacaa2d0f62910160405180910390a4612b93848a8a86868a610ce4565b612ba1848a8a8a8a8a612d62565b505050505050505050565b6001600160a01b0384163b15610ce45760405163bc197c8160e01b81526001600160a01b0385169063bc197c8190612bf09089908990889088908890600401613eab565b602060405180830381600087803b158015612c0a57600080fd5b505af1925050508015612c3a575060408051601f3d908101601f19168201909252612c3791810190613f09565b60015b612ce757612c46613f26565b806308c379a01415612c805750612c5b613f42565b80612c665750612c82565b8060405162461bcd60e51b81526004016108ae9190613086565b505b60405162461bcd60e51b815260206004820152603460248201527f455243313135353a207472616e7366657220746f206e6f6e20455243313135356044820152732932b1b2b4bb32b91034b6b83632b6b2b73a32b960611b60648201526084016108ae565b6001600160e01b0319811663bc197c8160e01b146125fa5760405162461bcd60e51b81526004016108ae90613fcb565b60408051600180825281830190925260609160009190602080830190803683370190505090508281600081518110612d5157612d51613946565b602090810291909101015292915050565b6001600160a01b0384163b15610ce45760405163f23a6e6160e01b81526001600160a01b0385169063f23a6e6190612da69089908990889088908890600401614013565b602060405180830381600087803b158015612dc057600080fd5b505af1925050508015612df0575060408051601f3d908101601f19168201909252612ded91810190613f09565b60015b612dfc57612c46613f26565b6001600160e01b0319811663f23a6e6160e01b146125fa5760405162461bcd60e51b81526004016108ae90613fcb565b600054610100900460ff166117955760405162461bcd60e51b81526004016108ae90613e60565b600054610100900460ff16612e7a5760405162461bcd60e51b81526004016108ae90613e60565b61165033612616565b600054610100900460ff16612eaa5760405162461bcd60e51b81526004016108ae90613e60565b600160c955565b828054612ebd9061387e565b90600052602060002090601f016020900481019282612edf5760008555612f25565b82601f10612ef857805160ff1916838001178555612f25565b82800160010185558215612f25579182015b82811115612f25578251825591602001919060010190612f0a565b50612f31929150612fa9565b5090565b828054612f419061387e565b90600052602060002090601f016020900481019282612f635760008555612f25565b82601f10612f7c5782800160ff19823516178555612f25565b82800160010185558215612f25579182015b82811115612f25578235825591602001919060010190612f8e565b5b80821115612f315760008155600101612faa565b80356001600160a01b03811681146127d157600080fd5b60008060408385031215612fe857600080fd5b612ff183612fbe565b946020939093013593505050565b6001600160e01b03198116811461105457600080fd5b60006020828403121561302757600080fd5b813561303281612fff565b9392505050565b6000815180845260005b8181101561305f57602081850181015186830182015201613043565b81811115613071576000602083870101525b50601f01601f19169290920160200192915050565b6020815260006106fc6020830184613039565b6000602082840312156130ab57600080fd5b5035919050565b6000602082840312156130c457600080fd5b6106fc82612fbe565b634e487b7160e01b600052604160045260246000fd5b601f8201601f191681016001600160401b0381118282101715613108576131086130cd565b6040525050565b60006001600160401b03821115613128576131286130cd565b5060051b60200190565b600082601f83011261314357600080fd5b813560206131508261310f565b60405161315d82826130e3565b83815260059390931b850182019282810191508684111561317d57600080fd5b8286015b848110156131985780358352918301918301613181565b509695505050505050565b600082601f8301126131b457600080fd5b81356001600160401b038111156131cd576131cd6130cd565b6040516131e4601f8301601f1916602001826130e3565b8181528460208386010111156131f957600080fd5b816020850160208301376000918101602001919091529392505050565b600080600080600060a0868803121561322e57600080fd5b61323786612fbe565b945061324560208701612fbe565b935060408601356001600160401b038082111561326157600080fd5b61326d89838a01613132565b9450606088013591508082111561328357600080fd5b61328f89838a01613132565b935060808801359150808211156132a557600080fd5b506132b2888289016131a3565b9150509295509295909350565b600080604083850312156132d257600080fd5b82356001600160401b03808211156132e957600080fd5b818501915085601f8301126132fd57600080fd5b8135602061330a8261310f565b60405161331782826130e3565b83815260059390931b850182019282810191508984111561333757600080fd5b948201945b8386101561335c5761334d86612fbe565b8252948201949082019061333c565b9650508601359250508082111561337257600080fd5b5061337f85828601613132565b9150509250929050565b600081518084526020808501945080840160005b838110156133b95781518752958201959082019060010161339d565b509495945050505050565b6020815260006106fc6020830184613389565b600080604083850312156133ea57600080fd5b50508035926020909101359150565b6000806000806080858703121561340f57600080fd5b61341885612fbe565b9350602085013592506040850135915060608501356001600160401b0381111561344157600080fd5b61344d878288016131a3565b91505092959194509250565b6000806020838503121561346c57600080fd5b82356001600160401b038082111561348357600080fd5b818501915085601f83011261349757600080fd5b8135818111156134a657600080fd5b8660208260051b85010111156134bb57600080fd5b60209290920196919550909350505050565b6000602082840312156134df57600080fd5b81356001600160401b038111156134f557600080fd5b613501848285016131a3565b949350505050565b801515811461105457600080fd5b6000806040838503121561352a57600080fd5b61353383612fbe565b9150602083013561354381613509565b809150509250929050565b60008060006060848603121561356357600080fd5b83356001600160401b038082111561357a57600080fd5b613586878388016131a3565b9450602086013591508082111561359c57600080fd5b6135a8878388016131a3565b935060408601359150808211156135be57600080fd5b506135cb868287016131a3565b9150509250925092565b600080600080600060a086880312156135ed57600080fd5b505083359560208501359550604085013594606081013594506080013592509050565b6000806000806080858703121561362657600080fd5b61362f85612fbe565b935060208501356001600160401b038082111561364b57600080fd5b61365788838901613132565b9450604087013591508082111561366d57600080fd5b61367988838901613132565b9350606087013591508082111561368f57600080fd5b5061344d878288016131a3565b60008083601f8401126136ae57600080fd5b5081356001600160401b038111156136c557600080fd5b6020830191508360208285010111156136dd57600080fd5b9250929050565b600080600080600080600060a0888a0312156136ff57600080fd5b61370888612fbe565b96506020880135955060408801356001600160401b038082111561372b57600080fd5b6137378b838c0161369c565b909750955085915061374b60608b01612fbe565b945060808a013591508082111561376157600080fd5b5061376e8a828b0161369c565b989b979a50959850939692959293505050565b6000806040838503121561379457600080fd5b61379d83612fbe565b915060208301356001600160401b038111156137b857600080fd5b61337f85828601613132565b600080604083850312156137d757600080fd5b823591506137e760208401612fbe565b90509250929050565b6000806040838503121561380357600080fd5b61380c83612fbe565b91506137e760208401612fbe565b600080600080600060a0868803121561383257600080fd5b61383b86612fbe565b945061384960208701612fbe565b9350604086013592506060860135915060808601356001600160401b0381111561387257600080fd5b6132b2888289016131a3565b600181811c9082168061389257607f821691505b602082108114156138b357634e487b7160e01b600052602260045260246000fd5b50919050565b6020808252602b908201527f455243313135353a2062616c616e636520717565727920666f7220746865207a60408201526a65726f206164647265737360a81b606082015260800190565b60208082526022908201527f4b59434163636573733a2063616c6c6572206973206e6f74207468652061646d60408201526134b760f11b606082015260800190565b634e487b7160e01b600052603260045260246000fd5b6020808252602c908201527f496e73756666696369656e7420726567697374657265642062616c616e63652060408201526b3337b9103a3930b739b332b960a11b606082015260800190565b634e487b7160e01b600052601160045260246000fd5b60006000198214156139d2576139d26139a8565b5060010190565b60208082526035908201527f455243313135355472616461626c65237368617265486f6c646572734f6e6c796040820152740e8813d3931657d3d5d3915494d7d0531313d5d151605a1b606082015260800190565b600060208284031215613a4057600080fd5b815160ff8116811461303257600080fd5b600181815b80851115613a8c578160001904821115613a7257613a726139a8565b80851615613a7f57918102915b93841c9390800290613a56565b509250929050565b600082613aa3575060016106ff565b81613ab0575060006106ff565b8160018114613ac65760028114613ad057613aec565b60019150506106ff565b60ff841115613ae157613ae16139a8565b50506001821b6106ff565b5060208310610133831016604e8410600b8410161715613b0f575081810a6106ff565b613b198383613a51565b8060001904821115613b2d57613b2d6139a8565b029392505050565b60006106fc60ff841683613a94565b600060208284031215613b5657600080fd5b815161303281613509565b6020808252818101527f524549544e46543a20436f756c64206e6f74207472616e736665722066756e64604082015260600190565b60208082526026908201527f476f7665726e61626c653a2063616c6c6572206973206e6f742074686520676f6040820152653b32b93737b960d11b606082015260800190565b60208082526031908201527f455243313135355472616461626c652363726561746f724f6e6c793a204f4e4c6040820152701657d0d491505513d497d0531313d5d151607a1b606082015260800190565b60208152816020820152818360408301376000818301604090810191909152601f909201601f19160101919050565b60208082526028908201527f455243313135353a2069647320616e6420616d6f756e7473206c656e677468206040820152670dad2e6dac2e8c6d60c31b606082015260800190565b60208082526025908201527f455243313135353a207472616e7366657220746f20746865207a65726f206164604082015264647265737360d81b606082015260800190565b6020808252602a908201527f455243313135353a20696e73756666696369656e742062616c616e636520666f60408201526939103a3930b739b332b960b11b606082015260800190565b60008219821115613d4657613d466139a8565b500190565b604081526000613d5e6040830185613389565b8281036020840152613d708185613389565b95945050505050565b600082821015613d8b57613d8b6139a8565b500390565b6000816000190483118215151615613daa57613daa6139a8565b500290565b600082613dcc57634e487b7160e01b600052601260045260246000fd5b500490565b60208082526021908201527f455243313135353a206d696e7420746f20746865207a65726f206164647265736040820152607360f81b606082015260800190565b6020808252602e908201527f496e697469616c697a61626c653a20636f6e747261637420697320616c72656160408201526d191e481a5b9a5d1a585b1a5e995960921b606082015260800190565b6020808252602b908201527f496e697469616c697a61626c653a20636f6e7472616374206973206e6f74206960408201526a6e697469616c697a696e6760a81b606082015260800190565b6001600160a01b0386811682528516602082015260a060408201819052600090613ed790830186613389565b8281036060840152613ee98186613389565b90508281036080840152613efd8185613039565b98975050505050505050565b600060208284031215613f1b57600080fd5b815161303281612fff565b600060033d1115613f3f5760046000803e5060005160e01c5b90565b600060443d1015613f505790565b6040516003193d81016004833e81513d6001600160401b038160248401118184111715613f7f57505050505090565b8285019150815181811115613f975750505050505090565b843d8701016020828501011115613fb15750505050505090565b613fc0602082860101876130e3565b509095945050505050565b60208082526028908201527f455243313135353a204552433131353552656365697665722072656a656374656040820152676420746f6b656e7360c01b606082015260800190565b6001600160a01b03868116825285166020820152604081018490526060810183905260a06080820181905260009061404d90830184613039565b97965050505050505056fea26469706673582212208b65cba388e61c3433c5ea5e4c2a4b8e56188dd96d7e6ce6feddfc2805fd8c8864736f6c63430008090033",
  "linkReferences": {},
  "deployedLinkReferences": {}
}