{
  "_format": "hh-sol-artifact-1",
  "contractName": "REITNFT",
  "sourceName": "contracts/REITNFT.sol",
  "abi": [
    {
      "anonymous": false,
      "inputs": [
        {
          "indexed": true,
          "internalType": "address",
          "name": "account",
          "type": "address"
        },
        {
          "indexed": true,
          "internalType": "address",
          "name": "operator",
          "type": "address"
        },
        {
          "indexed": false,
          "internalType": "bool",
          "name": "approved",
          "type": "bool"
        }
      ],
      "name": "ApprovalForAll",
      "type": "event"
    },
    {
      "anonymous": false,
      "inputs": [
        {
          "indexed": false,
          "internalType": "uint256",
          "name": "id",
          "type": "uint256"
        },
        {
          "indexed": false,
          "internalType": "address",
          "name": "creator",
          "type": "address"
        },
        {
          "indexed": false,
          "internalType": "uint256",
          "name": "supply",
          "type": "uint256"
        },
        {
          "indexed": false,
          "internalType": "string",
          "name": "uri",
          "type": "string"
        }
      ],
      "name": "Create",
      "type": "event"
    },
    {
      "anonymous": false,
      "inputs": [
        {
          "indexed": true,
          "internalType": "address",
          "name": "previousGovernor",
          "type": "address"
        },
        {
          "indexed": true,
          "internalType": "address",
          "name": "newGovernor",
          "type": "address"
        }
      ],
      "name": "GovernorshipTransferred",
      "type": "event"
    },
    {
      "anonymous": false,
      "inputs": [
        {
          "indexed": false,
          "internalType": "uint8",
          "name": "version",
          "type": "uint8"
        }
      ],
      "name": "Initialized",
      "type": "event"
    },
    {
      "anonymous": false,
      "inputs": [
        {
          "indexed": true,
          "internalType": "address",
          "name": "operator",
          "type": "address"
        },
        {
          "indexed": true,
          "internalType": "address",
          "name": "from",
          "type": "address"
        },
        {
          "indexed": true,
          "internalType": "address",
          "name": "to",
          "type": "address"
        },
        {
          "indexed": false,
          "internalType": "uint256[]",
          "name": "ids",
          "type": "uint256[]"
        },
        {
          "indexed": false,
          "internalType": "uint256[]",
          "name": "values",
          "type": "uint256[]"
        }
      ],
      "name": "TransferBatch",
      "type": "event"
    },
    {
      "anonymous": false,
      "inputs": [
        {
          "indexed": true,
          "internalType": "address",
          "name": "operator",
          "type": "address"
        },
        {
          "indexed": true,
          "internalType": "address",
          "name": "from",
          "type": "address"
        },
        {
          "indexed": true,
          "internalType": "address",
          "name": "to",
          "type": "address"
        },
        {
          "indexed": false,
          "internalType": "uint256",
          "name": "id",
          "type": "uint256"
        },
        {
          "indexed": false,
          "internalType": "uint256",
          "name": "value",
          "type": "uint256"
        }
      ],
      "name": "TransferSingle",
      "type": "event"
    },
    {
      "anonymous": false,
      "inputs": [
        {
          "indexed": false,
          "internalType": "string",
          "name": "value",
          "type": "string"
        },
        {
          "indexed": true,
          "internalType": "uint256",
          "name": "id",
          "type": "uint256"
        }
      ],
      "name": "URI",
      "type": "event"
    },
    {
      "inputs": [
        {
          "internalType": "address[]",
          "name": "accounts",
          "type": "address[]"
        }
      ],
      "name": "addManyToKYC",
      "outputs": [],
      "stateMutability": "nonpayable",
      "type": "function"
    },
    {
      "inputs": [
        {
          "internalType": "address",
          "name": "account",
          "type": "address"
        }
      ],
      "name": "addToKYC",
      "outputs": [],
      "stateMutability": "nonpayable",
      "type": "function"
    },
    {
      "inputs": [
        {
          "internalType": "uint256",
          "name": "id",
          "type": "uint256"
        },
        {
          "internalType": "address[]",
          "name": "accounts",
          "type": "address[]"
        }
      ],
      "name": "allowLiquidationClaims",
      "outputs": [],
      "stateMutability": "nonpayable",
      "type": "function"
    },
    {
      "inputs": [
        {
          "internalType": "address",
          "name": "account",
          "type": "address"
        },
        {
          "internalType": "uint256",
          "name": "id",
          "type": "uint256"
        }
      ],
      "name": "balanceOf",
      "outputs": [
        {
          "internalType": "uint256",
          "name": "",
          "type": "uint256"
        }
      ],
      "stateMutability": "view",
      "type": "function"
    },
    {
      "inputs": [
        {
          "internalType": "address[]",
          "name": "accounts",
          "type": "address[]"
        },
        {
          "internalType": "uint256[]",
          "name": "ids",
          "type": "uint256[]"
        }
      ],
      "name": "balanceOfBatch",
      "outputs": [
        {
          "internalType": "uint256[]",
          "name": "",
          "type": "uint256[]"
        }
      ],
      "stateMutability": "view",
      "type": "function"
    },
    {
      "inputs": [
        {
          "internalType": "address",
          "name": "_to",
          "type": "address"
        },
        {
          "internalType": "uint256[]",
          "name": "_ids",
          "type": "uint256[]"
        },
        {
          "internalType": "uint256[]",
          "name": "_quantities",
          "type": "uint256[]"
        },
        {
          "internalType": "bytes",
          "name": "_data",
          "type": "bytes"
        }
      ],
      "name": "batchMint",
      "outputs": [],
      "stateMutability": "nonpayable",
      "type": "function"
    },
    {
      "inputs": [
        {
          "internalType": "uint256",
          "name": "id",
          "type": "uint256"
        }
      ],
      "name": "claimDividends",
      "outputs": [],
      "stateMutability": "nonpayable",
      "type": "function"
    },
    {
      "inputs": [
        {
          "internalType": "uint256",
          "name": "id",
          "type": "uint256"
        }
      ],
      "name": "claimLiquidations",
      "outputs": [],
      "stateMutability": "nonpayable",
      "type": "function"
    },
    {
      "inputs": [],
      "name": "contractURI",
      "outputs": [
        {
          "internalType": "string",
          "name": "",
          "type": "string"
        }
      ],
      "stateMutability": "view",
      "type": "function"
    },
    {
      "inputs": [
        {
          "internalType": "address",
          "name": "_initialOwner",
          "type": "address"
        },
        {
          "internalType": "uint256",
          "name": "_initialSupply",
          "type": "uint256"
        },
        {
          "internalType": "string",
          "name": "_uri",
          "type": "string"
        },
        {
          "internalType": "address",
          "name": "_fundingToken",
          "type": "address"
        },
        {
          "internalType": "bytes",
          "name": "_data",
          "type": "bytes"
        }
      ],
      "name": "createREIT",
      "outputs": [
        {
          "internalType": "uint256",
          "name": "",
          "type": "uint256"
        }
      ],
      "stateMutability": "nonpayable",
      "type": "function"
    },
    {
      "inputs": [
        {
          "internalType": "uint256",
          "name": "",
          "type": "uint256"
        }
      ],
      "name": "creators",
      "outputs": [
        {
          "internalType": "address",
          "name": "",
          "type": "address"
        }
      ],
      "stateMutability": "view",
      "type": "function"
    },
    {
      "inputs": [
        {
          "internalType": "uint256",
          "name": "id",
          "type": "uint256"
        },
        {
          "internalType": "uint256",
          "name": "amount",
          "type": "uint256"
        }
      ],
      "name": "fundDividendVault",
      "outputs": [],
      "stateMutability": "nonpayable",
      "type": "function"
    },
    {
      "inputs": [
        {
          "internalType": "uint256",
          "name": "id",
          "type": "uint256"
        },
        {
          "internalType": "uint256",
          "name": "amount",
          "type": "uint256"
        }
      ],
      "name": "fundLiquidationVault",
      "outputs": [],
      "stateMutability": "nonpayable",
      "type": "function"
    },
    {
      "inputs": [
        {
          "internalType": "uint256",
          "name": "id",
          "type": "uint256"
        }
      ],
      "name": "getClaimableLiquidations",
      "outputs": [
        {
          "internalType": "uint256",
          "name": "",
          "type": "uint256"
        }
      ],
      "stateMutability": "view",
      "type": "function"
    },
    {
      "inputs": [
        {
          "internalType": "uint256",
          "name": "id",
          "type": "uint256"
        }
      ],
      "name": "getClaimedDividends",
      "outputs": [
        {
          "internalType": "uint256",
          "name": "",
          "type": "uint256"
        }
      ],
      "stateMutability": "view",
      "type": "function"
    },
    {
      "inputs": [
        {
          "internalType": "uint256",
          "name": "id",
          "type": "uint256"
        }
      ],
      "name": "getClaimedLiquidations",
      "outputs": [
        {
          "internalType": "uint256",
          "name": "",
          "type": "uint256"
        }
      ],
      "stateMutability": "view",
      "type": "function"
    },
    {
      "inputs": [
        {
          "internalType": "uint256",
          "name": "id",
          "type": "uint256"
        },
        {
          "internalType": "uint256",
          "name": "index",
          "type": "uint256"
        }
      ],
      "name": "getDividendPerShare",
      "outputs": [
        {
          "internalType": "uint256",
          "name": "",
          "type": "uint256"
        }
      ],
      "stateMutability": "view",
      "type": "function"
    },
    {
      "inputs": [
        {
          "internalType": "uint256",
          "name": "id",
          "type": "uint256"
        }
      ],
      "name": "getFundingToken",
      "outputs": [
        {
          "internalType": "address",
          "name": "",
          "type": "address"
        }
      ],
      "stateMutability": "view",
      "type": "function"
    },
    {
      "inputs": [
        {
          "internalType": "uint256",
          "name": "_id",
          "type": "uint256"
        }
      ],
      "name": "getIPOContract",
      "outputs": [
        {
          "internalType": "address",
          "name": "",
          "type": "address"
        }
      ],
      "stateMutability": "view",
      "type": "function"
    },
    {
      "inputs": [
        {
          "internalType": "uint256",
          "name": "id",
          "type": "uint256"
        }
      ],
      "name": "getIPOTime",
      "outputs": [
        {
          "internalType": "uint256",
          "name": "",
          "type": "uint256"
        }
      ],
      "stateMutability": "view",
      "type": "function"
    },
    {
      "inputs": [
        {
          "internalType": "uint256",
          "name": "id",
          "type": "uint256"
        }
      ],
      "name": "getIPOUnitPrice",
      "outputs": [
        {
          "internalType": "uint256",
          "name": "",
          "type": "uint256"
        }
      ],
      "stateMutability": "view",
      "type": "function"
    },
    {
      "inputs": [
        {
          "internalType": "uint256",
          "name": "id",
          "type": "uint256"
        }
      ],
      "name": "getLiquidationTime",
      "outputs": [
        {
          "internalType": "uint256",
          "name": "",
          "type": "uint256"
        }
      ],
      "stateMutability": "view",
      "type": "function"
    },
    {
      "inputs": [
        {
          "internalType": "uint256",
          "name": "id",
          "type": "uint256"
        }
      ],
      "name": "getLockedDividends",
      "outputs": [
        {
          "internalType": "uint256",
          "name": "",
          "type": "uint256"
        }
      ],
      "stateMutability": "view",
      "type": "function"
    },
    {
      "inputs": [
        {
          "internalType": "address",
          "name": "account",
          "type": "address"
        }
      ],
      "name": "getLoyaltyLevel",
      "outputs": [
        {
          "internalType": "uint256",
          "name": "",
          "type": "uint256"
        }
      ],
      "stateMutability": "view",
      "type": "function"
    },
    {
      "inputs": [],
      "name": "getStakeableTokenContract",
      "outputs": [
        {
          "internalType": "address",
          "name": "",
          "type": "address"
        }
      ],
      "stateMutability": "view",
      "type": "function"
    },
    {
      "inputs": [
        {
          "internalType": "uint256",
          "name": "_id",
          "type": "uint256"
        }
      ],
      "name": "getTotalClaimableDividends",
      "outputs": [
        {
          "internalType": "uint256",
          "name": "",
          "type": "uint256"
        }
      ],
      "stateMutability": "view",
      "type": "function"
    },
    {
      "inputs": [
        {
          "internalType": "uint256",
          "name": "id",
          "type": "uint256"
        }
      ],
      "name": "getTotalDividendPerShare",
      "outputs": [
        {
          "internalType": "uint256",
          "name": "",
          "type": "uint256"
        }
      ],
      "stateMutability": "view",
      "type": "function"
    },
    {
      "inputs": [
        {
          "internalType": "uint256",
          "name": "id",
          "type": "uint256"
        }
      ],
      "name": "getTransferTaxRate",
      "outputs": [
        {
          "internalType": "uint256",
          "name": "",
          "type": "uint256"
        }
      ],
      "stateMutability": "view",
      "type": "function"
    },
    {
      "inputs": [
        {
          "internalType": "uint256",
          "name": "id",
          "type": "uint256"
        }
      ],
      "name": "getUnitMarketPrice",
      "outputs": [
        {
          "internalType": "uint256",
          "name": "",
          "type": "uint256"
        }
      ],
      "stateMutability": "view",
      "type": "function"
    },
    {
      "inputs": [],
      "name": "governor",
      "outputs": [
        {
          "internalType": "address",
          "name": "",
          "type": "address"
        }
      ],
      "stateMutability": "view",
      "type": "function"
    },
    {
      "inputs": [
        {
          "internalType": "uint256",
          "name": "id",
          "type": "uint256"
        },
        {
          "internalType": "address[]",
          "name": "accounts",
          "type": "address[]"
        }
      ],
      "name": "holdLiquidationClaims",
      "outputs": [],
      "stateMutability": "nonpayable",
      "type": "function"
    },
    {
      "inputs": [
        {
          "internalType": "string",
          "name": "_name",
          "type": "string"
        },
        {
          "internalType": "string",
          "name": "_symbol",
          "type": "string"
        },
        {
          "internalType": "string",
          "name": "_uri",
          "type": "string"
        }
      ],
      "name": "initialize",
      "outputs": [],
      "stateMutability": "nonpayable",
      "type": "function"
    },
    {
      "inputs": [
        {
          "internalType": "uint256",
          "name": "_id",
          "type": "uint256"
        },
        {
          "internalType": "uint64",
          "name": "initiateTime",
          "type": "uint64"
        },
        {
          "internalType": "uint256",
          "name": "unitValue",
          "type": "uint256"
        },
        {
          "internalType": "uint64",
          "name": "liquidationTime",
          "type": "uint64"
        },
        {
          "internalType": "uint256[]",
          "name": "transferTaxes",
          "type": "uint256[]"
        }
      ],
      "name": "initiateREIT",
      "outputs": [],
      "stateMutability": "nonpayable",
      "type": "function"
    },
    {
      "inputs": [
        {
          "internalType": "address",
          "name": "account",
          "type": "address"
        },
        {
          "internalType": "address",
          "name": "operator",
          "type": "address"
        }
      ],
      "name": "isApprovedForAll",
      "outputs": [
        {
          "internalType": "bool",
          "name": "",
          "type": "bool"
        }
      ],
      "stateMutability": "view",
      "type": "function"
    },
    {
      "inputs": [
        {
          "internalType": "uint256",
          "name": "_id",
          "type": "uint256"
        },
        {
          "internalType": "address",
          "name": "account",
          "type": "address"
        }
      ],
      "name": "isIPOContract",
      "outputs": [
        {
          "internalType": "bool",
          "name": "",
          "type": "bool"
        }
      ],
      "stateMutability": "view",
      "type": "function"
    },
    {
      "inputs": [
        {
          "internalType": "address",
          "name": "account",
          "type": "address"
        }
      ],
      "name": "isKYC",
      "outputs": [
        {
          "internalType": "bool",
          "name": "",
          "type": "bool"
        }
      ],
      "stateMutability": "view",
      "type": "function"
    },
    {
      "inputs": [
        {
          "internalType": "address",
          "name": "account",
          "type": "address"
        },
        {
          "internalType": "uint256",
          "name": "id",
          "type": "uint256"
        }
      ],
      "name": "liquidatedBalanceOf",
      "outputs": [
        {
          "internalType": "uint256",
          "name": "",
          "type": "uint256"
        }
      ],
      "stateMutability": "view",
      "type": "function"
    },
    {
      "inputs": [
        {
          "internalType": "uint256",
          "name": "id",
          "type": "uint256"
        }
      ],
      "name": "lockLiquidationPerShare",
      "outputs": [],
      "stateMutability": "nonpayable",
      "type": "function"
    },
    {
      "inputs": [
        {
          "internalType": "address",
          "name": "account",
          "type": "address"
        },
        {
          "internalType": "uint256",
          "name": "id",
          "type": "uint256"
        }
      ],
      "name": "lockedBalanceOf",
      "outputs": [
        {
          "internalType": "uint256",
          "name": "",
          "type": "uint256"
        }
      ],
      "stateMutability": "view",
      "type": "function"
    },
    {
      "inputs": [
        {
          "internalType": "uint256",
          "name": "",
          "type": "uint256"
        }
      ],
      "name": "loyaltyConditions",
      "outputs": [
        {
          "internalType": "uint256",
          "name": "",
          "type": "uint256"
        }
      ],
      "stateMutability": "view",
      "type": "function"
    },
    {
      "inputs": [
        {
          "internalType": "address",
          "name": "_to",
          "type": "address"
        },
        {
          "internalType": "uint256",
          "name": "_id",
          "type": "uint256"
        },
        {
          "internalType": "uint256",
          "name": "_quantity",
          "type": "uint256"
        },
        {
          "internalType": "bytes",
          "name": "_data",
          "type": "bytes"
        }
      ],
      "name": "mint",
      "outputs": [],
      "stateMutability": "nonpayable",
      "type": "function"
    },
    {
      "inputs": [],
      "name": "name",
      "outputs": [
        {
          "internalType": "string",
          "name": "",
          "type": "string"
        }
      ],
      "stateMutability": "view",
      "type": "function"
    },
    {
      "inputs": [
        {
          "internalType": "uint256",
          "name": "id",
          "type": "uint256"
        }
      ],
      "name": "redeemLockedBalances",
      "outputs": [],
      "stateMutability": "nonpayable",
      "type": "function"
    },
    {
      "inputs": [
        {
          "internalType": "address",
          "name": "account",
          "type": "address"
        }
      ],
      "name": "removeKYC",
      "outputs": [],
      "stateMutability": "nonpayable",
      "type": "function"
    },
    {
      "inputs": [
        {
          "internalType": "address[]",
          "name": "accounts",
          "type": "address[]"
        }
      ],
      "name": "removeManyKYC",
      "outputs": [],
      "stateMutability": "nonpayable",
      "type": "function"
    },
    {
      "inputs": [],
      "name": "renounceGovernorship",
      "outputs": [],
      "stateMutability": "nonpayable",
      "type": "function"
    },
    {
      "inputs": [],
      "name": "revokeKYCAdmin",
      "outputs": [],
      "stateMutability": "nonpayable",
      "type": "function"
    },
    {
      "inputs": [
        {
          "internalType": "address",
          "name": "from",
          "type": "address"
        },
        {
          "internalType": "address",
          "name": "to",
          "type": "address"
        },
        {
          "internalType": "uint256[]",
          "name": "ids",
          "type": "uint256[]"
        },
        {
          "internalType": "uint256[]",
          "name": "amounts",
          "type": "uint256[]"
        },
        {
          "internalType": "bytes",
          "name": "data",
          "type": "bytes"
        }
      ],
      "name": "safeBatchTransferFrom",
      "outputs": [],
      "stateMutability": "nonpayable",
      "type": "function"
    },
    {
      "inputs": [
        {
          "internalType": "address",
          "name": "from",
          "type": "address"
        },
        {
          "internalType": "address",
          "name": "to",
          "type": "address"
        },
        {
          "internalType": "uint256",
          "name": "id",
          "type": "uint256"
        },
        {
          "internalType": "uint256",
          "name": "amount",
          "type": "uint256"
        },
        {
          "internalType": "bytes",
          "name": "data",
          "type": "bytes"
        }
      ],
      "name": "safeTransferFrom",
      "outputs": [],
      "stateMutability": "nonpayable",
      "type": "function"
    },
    {
      "inputs": [
        {
          "internalType": "address",
          "name": "operator",
          "type": "address"
        },
        {
          "internalType": "bool",
          "name": "approved",
          "type": "bool"
        }
      ],
      "name": "setApprovalForAll",
      "outputs": [],
      "stateMutability": "nonpayable",
      "type": "function"
    },
    {
      "inputs": [
        {
          "internalType": "string",
          "name": "_newBaseMetadataURI",
          "type": "string"
        }
      ],
      "name": "setBaseMetadataURI",
      "outputs": [],
      "stateMutability": "nonpayable",
      "type": "function"
    },
    {
      "inputs": [
        {
          "internalType": "string",
          "name": "_uri",
          "type": "string"
        }
      ],
      "name": "setContractURI",
      "outputs": [],
      "stateMutability": "nonpayable",
      "type": "function"
    },
    {
      "inputs": [
        {
          "internalType": "address",
          "name": "_to",
          "type": "address"
        },
        {
          "internalType": "uint256[]",
          "name": "_ids",
          "type": "uint256[]"
        }
      ],
      "name": "setCreator",
      "outputs": [],
      "stateMutability": "nonpayable",
      "type": "function"
    },
    {
      "inputs": [
        {
          "internalType": "uint256",
          "name": "_id",
          "type": "uint256"
        },
        {
          "internalType": "address",
          "name": "account",
          "type": "address"
        }
      ],
      "name": "setIPOContract",
      "outputs": [],
      "stateMutability": "nonpayable",
      "type": "function"
    },
    {
      "inputs": [
        {
          "internalType": "address",
          "name": "account",
          "type": "address"
        }
      ],
      "name": "setKYCAdmin",
      "outputs": [],
      "stateMutability": "nonpayable",
      "type": "function"
    },
    {
      "inputs": [
        {
          "internalType": "uint256[]",
          "name": "conditions",
          "type": "uint256[]"
        }
      ],
      "name": "setLoyaltyConditions",
      "outputs": [],
      "stateMutability": "nonpayable",
      "type": "function"
    },
    {
      "inputs": [
        {
          "internalType": "address",
          "name": "account",
          "type": "address"
        }
      ],
      "name": "setLoyaltyProgramAdmin",
      "outputs": [],
      "stateMutability": "nonpayable",
      "type": "function"
    },
    {
      "inputs": [
        {
          "internalType": "uint256",
          "name": "_id",
          "type": "uint256"
        },
        {
          "internalType": "uint256",
          "name": "value",
          "type": "uint256"
        }
      ],
      "name": "setUnitMarketValue",
      "outputs": [],
      "stateMutability": "nonpayable",
      "type": "function"
    },
    {
      "inputs": [
        {
          "internalType": "address",
          "name": "_token",
          "type": "address"
        },
        {
          "internalType": "uint256",
          "name": "period",
          "type": "uint256"
        }
      ],
      "name": "setupLoyaltyProgram",
      "outputs": [],
      "stateMutability": "nonpayable",
      "type": "function"
    },
    {
      "inputs": [
        {
          "internalType": "uint256",
          "name": "amount",
          "type": "uint256"
        }
      ],
      "name": "stake",
      "outputs": [],
      "stateMutability": "nonpayable",
      "type": "function"
    },
    {
      "inputs": [
        {
          "internalType": "bytes4",
          "name": "interfaceId",
          "type": "bytes4"
        }
      ],
      "name": "supportsInterface",
      "outputs": [
        {
          "internalType": "bool",
          "name": "",
          "type": "bool"
        }
      ],
      "stateMutability": "view",
      "type": "function"
    },
    {
      "inputs": [],
      "name": "symbol",
      "outputs": [
        {
          "internalType": "string",
          "name": "",
          "type": "string"
        }
      ],
      "stateMutability": "view",
      "type": "function"
    },
    {
      "inputs": [
        {
          "internalType": "uint256",
          "name": "",
          "type": "uint256"
        }
      ],
      "name": "tokenSupply",
      "outputs": [
        {
          "internalType": "uint256",
          "name": "",
          "type": "uint256"
        }
      ],
      "stateMutability": "view",
      "type": "function"
    },
    {
      "inputs": [
        {
          "internalType": "uint256",
          "name": "",
          "type": "uint256"
        }
      ],
      "name": "tokenUri",
      "outputs": [
        {
          "internalType": "string",
          "name": "",
          "type": "string"
        }
      ],
      "stateMutability": "view",
      "type": "function"
    },
    {
      "inputs": [
        {
          "internalType": "uint256",
          "name": "_id",
          "type": "uint256"
        }
      ],
      "name": "totalSupply",
      "outputs": [
        {
          "internalType": "uint256",
          "name": "",
          "type": "uint256"
        }
      ],
      "stateMutability": "view",
      "type": "function"
    },
    {
      "inputs": [
        {
          "internalType": "address",
          "name": "newGovernor",
          "type": "address"
        }
      ],
      "name": "transferGovernorship",
      "outputs": [],
      "stateMutability": "nonpayable",
      "type": "function"
    },
    {
      "inputs": [
        {
          "internalType": "uint256",
          "name": "id",
          "type": "uint256"
        },
        {
          "internalType": "uint256",
          "name": "value",
          "type": "uint256"
        },
        {
          "internalType": "uint32",
          "name": "time",
          "type": "uint32"
        }
      ],
      "name": "unlockDividendPerShare",
      "outputs": [],
      "stateMutability": "nonpayable",
      "type": "function"
    },
    {
      "inputs": [
        {
          "internalType": "uint256",
          "name": "id",
          "type": "uint256"
        },
        {
          "internalType": "uint256",
          "name": "value",
          "type": "uint256"
        }
      ],
      "name": "unlockLiquidationPerShare",
      "outputs": [],
      "stateMutability": "nonpayable",
      "type": "function"
    },
    {
      "inputs": [],
      "name": "unstake",
      "outputs": [],
      "stateMutability": "nonpayable",
      "type": "function"
    },
    {
      "inputs": [
        {
          "internalType": "uint256",
          "name": "_id",
          "type": "uint256"
        }
      ],
      "name": "uri",
      "outputs": [
        {
          "internalType": "string",
          "name": "",
          "type": "string"
        }
      ],
      "stateMutability": "view",
      "type": "function"
    },
    {
      "inputs": [
        {
          "internalType": "uint256",
          "name": "id",
          "type": "uint256"
        },
        {
          "internalType": "uint256",
          "name": "amount",
          "type": "uint256"
        },
        {
          "internalType": "address",
          "name": "to",
          "type": "address"
        }
      ],
      "name": "withdrawDividendVault",
      "outputs": [],
      "stateMutability": "nonpayable",
      "type": "function"
    },
    {
      "inputs": [
        {
          "internalType": "uint256",
          "name": "id",
          "type": "uint256"
        },
        {
          "internalType": "uint256",
          "name": "amount",
          "type": "uint256"
        },
        {
          "internalType": "address",
          "name": "to",
          "type": "address"
        }
      ],
      "name": "withdrawLiquidationVault",
      "outputs": [],
      "stateMutability": "nonpayable",
      "type": "function"
    },
    {
      "inputs": [
        {
          "internalType": "uint256",
          "name": "amount",
          "type": "uint256"
        }
      ],
      "name": "withdrawLoyaltyStakings",
      "outputs": [],
      "stateMutability": "nonpayable",
      "type": "function"
    }
  ],
  "bytecode": "0x608060405234801561001057600080fd5b50615f9180620000216000396000f3fe608060405234801561001057600080fd5b50600436106104315760003560e01c806392d0215811610236578063cd2519891161013b578063e537e8ec116100c3578063eff06d6d11610087578063eff06d6d14610a53578063f242432a14610a66578063f6ee8fcc14610a79578063fdb593c114610a8c578063ffd9161214610ab957600080fd5b8063e537e8ec146109bf578063e6034af1146109d2578063e8a3d485146109fc578063e985e9c514610a04578063ec9f218914610a4057600080fd5b8063d2a6b51a1161010a578063d2a6b51a14610960578063d64e83d714610973578063d98d9eaf14610986578063dac3e33414610999578063e43ca761146109ac57600080fd5b8063cd251989146108fe578063cd53d08e14610911578063cd5e54d51461093a578063d0044d621461094d57600080fd5b8063a694fc3a116101be578063bd7047c41161018d578063bd7047c414610884578063bd85b03914610897578063bff804ca146108b7578063c66727e4146108ca578063ccaa4a50146108eb57600080fd5b8063a694fc3a14610838578063b48ab8b61461084b578063b6aa515b1461085e578063bb8973031461087157600080fd5b80639b166e2f116102055780639b166e2f146107c25780639d6ad5c8146107ec578063a22cb465146107ff578063a2e42dde14610812578063a6487c531461082557600080fd5b806392d0215814610781578063938e3d7b1461079457806395d89b41146107a75780639944f518146107af57600080fd5b80632eb2c2d61161033c578063731133e9116102c457806378c4acb81161029357806378c4acb8146106f05780637e518ec8146107035780638191be2a1461071657806381c0c263146107435780638ef4c8071461074b57600080fd5b8063731133e9146106a457806373a316df146106b757806373b6d575146106ca578063780f30e5146106dd57600080fd5b8063510536481161030b578063510536481461061f5780635269d7951461063257806359d1a4b1146106455780635f9f59381461064d57806368a140771461068357600080fd5b80632eb2c2d6146105c65780633a69c8d8146105d9578063409f8c48146105ec5780634e1273f4146105ff57600080fd5b80630e89341c116103bf57806322b6ccfe1161038e57806322b6ccfe14610565578063243f6b58146105785780632693ebf21461058b5780632dada0fd146105ab5780632def6620146105be57600080fd5b80630e89341c1461051a578063127b94371461052d578063148dc4591461053f5780631675f4551461055257600080fd5b8063060b162711610406578063060b1627146104a757806306fdde03146104ba5780630c248ff2146104cf5780630c2f4f68146104e25780630c340a24146104f557600080fd5b806256d08d14610436578062fdd58e1461044b57806301ffc9a71461047157806303f4077b14610494575b600080fd5b610449610444366004614d9f565b610acc565b005b61045e610459366004614df8565b610c01565b6040519081526020015b60405180910390f35b61048461047f366004614e38565b610c14565b6040519015158152602001610468565b6104496104a2366004614e55565b610c66565b6104496104b5366004614ebb565b610cc2565b6104c2610cff565b6040516104689190614f49565b6104496104dd366004614f5c565b610d8e565b61045e6104f0366004614f91565b610ecc565b6097546001600160a01b03165b6040516001600160a01b039091168152602001610468565b6104c2610528366004614f91565b610fca565b610105546001600160a01b0316610502565b61044961054d366004614f91565b61106c565b6104c2610560366004614f91565b61135d565b610449610573366004614e55565b611376565b610449610586366004614e55565b6113c6565b61045e610599366004614f91565b60fd6020526000908152604090205481565b6104496105b9366004614faa565b611413565b6104496114cf565b6104496105d436600461513e565b61166b565b61045e6105e7366004614f91565b6119ba565b6104496105fa366004614e55565b611a60565b61061261060d3660046151e7565b611ab9565b60405161046891906152ec565b61045e61062d366004614f91565b611be2565b61045e610640366004614f91565b611c88565b610449611d98565b61045e61065b366004614df8565b6000908152610111602090815260408083206001600160a01b03949094168352929052205490565b61045e610691366004614f91565b6000908152610109602052604090205490565b6104496106b23660046152ff565b611dce565b61045e6106c5366004614f91565b611e44565b6104496106d8366004615376565b611e50565b6104496106eb3660046153ed565b611f6a565b6104496106fe366004614ebb565b61204a565b61044961071136600461540f565b6120e8565b61045e610724366004614e55565b6001600160a01b03166000908152610107602052604090206002015490565b61044961211b565b61045e610759366004614df8565b6000908152610110602090815260408083206001600160a01b03949094168352929052205490565b61044961078f366004614f91565b61214f565b6104496107a236600461540f565b6122f9565b6104c261233a565b6104846107bd366004614e55565b612348565b6105026107d0366004614f91565b600090815261010f60205260409020546001600160a01b031690565b6104496107fa366004614f5c565b612390565b61044961080d366004615451565b6124ce565b6104496108203660046153ed565b6124d9565b610449610833366004615488565b61260a565b610449610846366004614f91565b612696565b61044961085936600461550f565b612898565b61044961086c366004614e55565b6129be565b61045e61087f3660046155dc565b612a5c565b610449610892366004614f91565b612d34565b61045e6108a5366004614f91565b600090815260fd602052604090205490565b6104496108c5366004614f91565b612f6c565b61045e6108d8366004614f91565b600090815261010a602052604090205490565b61045e6108f9366004614f91565b6131a6565b61045e61090c3660046153ed565b6131c8565b61050261091f366004614f91565b60fc602052600090815260409020546001600160a01b031681565b610449610948366004614faa565b6131ff565b61044961095b366004614f91565b6132b6565b61044961096e366004615679565b613304565b610449610981366004614ebb565b6133d3565b6104846109943660046156bc565b613471565b61045e6109a7366004614f91565b613493565b6104496109ba3660046153ed565b61361c565b61045e6109cd366004614f91565b613668565b6105026109e0366004614f91565b600090815261010e60205260409020546001600160a01b031690565b6104c26136be565b610484610a123660046156e8565b6001600160a01b03918216600090815260666020908152604080832093909416825291909152205460ff1690565b61045e610a4e366004614f91565b613750565b610449610a61366004614df8565b6138cd565b610449610a74366004615712565b613920565b610449610a873660046156bc565b613ce4565b61045e610a9a366004614f91565b600090815261010960205260409020600201546001600160401b031690565b610449610ac73660046153ed565b613d94565b600083815260fc602052604090205483906001600160a01b03163314610b0d5760405162461bcd60e51b8152600401610b0490615776565b60405180910390fd5b600084815261010a602052604090206001015415610b5e5760405162461bcd60e51b815260206004820152600e60248201526d1393d517d312545552511055115160921b6044820152606401610b04565b610b698260016157ba565b600085815261010a602052604090206003015463ffffffff91821691161015610bc257610b978260016157ba565b600085815261010a60205260409020600301805463ffffffff191663ffffffff929092169190911790555b600084815261010a60205260409020600201805484919063ffffffff8516908110610bef57610bef6157e2565b60009182526020909120015550505050565b6000610c0d8383613de3565b9392505050565b60006001600160e01b03198216636cdb3d1360e11b1480610c4557506001600160e01b031982166303a24d0760e21b145b80610c6057506301ffc9a760e01b6001600160e01b03198316145b92915050565b6097546001600160a01b03163314610c905760405162461bcd60e51b8152600401610b04906157f8565b6001600160a01b038116610cb65760405162461bcd60e51b8152600401610b049061583e565b610cbf81613e77565b50565b610108546001600160a01b03163314610ced5760405162461bcd60e51b8152600401610b0490615864565b610cfa6101048383614c1e565b505050565b6101008054610d0d906158ab565b80601f0160208091040260200160405190810160405280929190818152602001828054610d39906158ab565b8015610d865780601f10610d5b57610100808354040283529160200191610d86565b820191906000526020600020905b815481529060010190602001808311610d6957829003601f168201915b505050505081565b6097546001600160a01b03163314610db85760405162461bcd60e51b8152600401610b04906157f8565b600083815261010d6020526040902054821115610de75760405162461bcd60e51b8152600401610b04906158e6565b600083815261010e60205260409081902054905163a9059cbb60e01b81526001600160a01b0383811660048301526024820185905290911690819063a9059cbb90604401602060405180830381600087803b158015610e4557600080fd5b505af1158015610e59573d6000803e3d6000fd5b505050506040513d601f19601f82011682018060405250810190610e7d919061590a565b610e995760405162461bcd60e51b8152600401610b0490615927565b600084815261010d6020526040902054610eb39084613e9a565b600094855261010d602052604090942093909355505050565b60008181526101116020908152604080832033808552908352818420548585526101108452828520828652845282852054868652606585528386209286529190935290832054849284929091610f22919061594f565b610f2c919061594f565b905060008111610f4e5760405162461bcd60e51b8152600401610b0490615967565b600084815261010b602090815260408083203380855292529091206005015460ff16610f7e576000935050610fc3565b60008581526065602090815260408083206001600160a01b038516845282528083205488845261010a909252822060010154909190610fbd9083615994565b95505050505b5050919050565b600081815260fe60205260409020805460609190610fe7906158ab565b80601f0160208091040260200160405190810160405280929190818152602001828054611013906158ab565b80156110605780601f1061103557610100808354040283529160200191611060565b820191906000526020600020905b81548152906001019060200180831161104357829003601f168201915b50505050509050919050565b336000908152610102602052604090205460ff1661109c5760405162461bcd60e51b8152600401610b04906159b3565b600260c95414156110bf5760405162461bcd60e51b8152600401610b04906159d8565b600260c955600081815261010b602090815260408083203380855292529091206005015460ff1661113d5760405162461bcd60e51b815260206004820152602260248201527f524549544e46543a206c69717569646174696f6e207374696c6c206f6e20686f6044820152611b1960f21b6064820152608401610b04565b60008281526065602090815260408083206001600160a01b038516845282528083205485845261010a90925282206001015490919061117c9083615994565b9050600081116111ce5760405162461bcd60e51b815260206004820181905260248201527f524549544e46543a206e6f206c69717569646174696f6e20746f20636c61696d6044820152606401610b04565b600084815261010d60205260409020548111156111fd5760405162461bcd60e51b8152600401610b0490615a0f565b6112078385613ea6565b600084815261010e60205260409081902054905163a9059cbb60e01b81526001600160a01b0385811660048301526024820184905290911690819063a9059cbb90604401602060405180830381600087803b15801561126557600080fd5b505af1158015611279573d6000803e3d6000fd5b505050506040513d601f19601f8201168201806040525081019061129d919061590a565b6112e95760405162461bcd60e51b815260206004820181905260248201527f524549544e46543a20436f756c64206e6f74207472616e736665722066756e646044820152606401610b04565b506000848152610111602090815260408083206001600160a01b039096168084529582528083209490945585825260658152838220858352815283822082905594815261010d85528281208054839003905561010b855282812093815292909352902060040180549091019055600160c955565b60fe6020526000908152604090208054610d0d906158ab565b610103546001600160a01b031633146113a15760405162461bcd60e51b8152600401610b0490615a56565b6001600160a01b0316600090815261010260205260409020805460ff19166001179055565b610103546001600160a01b031633146113f15760405162461bcd60e51b8152600401610b0490615a56565b6001600160a01b0316600090815261010260205260409020805460ff19169055565b600083815260fc602052604090205483906001600160a01b0316331461144b5760405162461bcd60e51b8152600401610b0490615776565b60005b828110156114c857600085815261010b6020526040812081868685818110611478576114786157e2565b905060200201602081019061148d9190614e55565b6001600160a01b031681526020810191909152604001600020600501805460ff19169115159190911790556114c181615a98565b905061144e565b5050505050565b600260c95414156114f25760405162461bcd60e51b8152600401610b04906159d8565b600260c9553360008181526101076020526040812060010154611516904290613e9a565b90506101065481116115625760405162461bcd60e51b815260206004820152601560248201527443616e6e6f74207769746864726177206561726c7960581b6044820152606401610b04565b610105546001600160a01b0383811660009081526101076020526040908190205490516323b872dd60e01b815291909216916323b872dd916115ab913091879190600401615ab3565b602060405180830381600087803b1580156115c557600080fd5b505af11580156115d9573d6000803e3d6000fd5b505050506040513d601f19601f820116820180604052508101906115fd919061590a565b6116445760405162461bcd60e51b815260206004820152601860248201527721b7bab632103737ba103a3930b739b332b9103a37b5b2b760411b6044820152606401610b04565b506001600160a01b031660009081526101076020526040812081815560020155600160c955565b815183511461168c5760405162461bcd60e51b8152600401610b0490615ad7565b6001600160a01b0384166116b25760405162461bcd60e51b8152600401610b0490615b1f565b6001600160a01b0385163314806116ce57506116ce8533610a12565b6117355760405162461bcd60e51b815260206004820152603260248201527f455243313135353a207472616e736665722063616c6c6572206973206e6f74206044820152711bdddb995c881b9bdc88185c1c1c9bdd995960721b6064820152608401610b04565b3360005b84518110156117d9576000858281518110611756576117566157e2565b602002602001015190506000858381518110611774576117746157e2565b60209081029190910181015160008481526065835260408082206001600160a01b038e1683529093529190912054909150818110156117c55760405162461bcd60e51b8152600401610b0490615b64565b505050806117d290615a98565b9050611739565b5060005b84518110156118295760008582815181106117fa576117fa6157e2565b6020026020010151905061180e8882613ea6565b6118188782613ea6565b5061182281615a98565b90506117dd565b5060005b845181101561194c57600085828151811061184a5761184a6157e2565b602002602001015190506000858381518110611868576118686157e2565b60209081029190910181015160008481526065835260408082206001600160a01b038e1683529093529182208054828103909155909250906118aa848c613471565b806118ba57506118ba848b613471565b9050806118ff576000848152610110602090815260408083206001600160a01b038e168452909152812080548592906118f490849061594f565b909155506119379050565b60008481526065602090815260408083206001600160a01b038e1684529091528120805485929061193190849061594f565b90915550505b505050508061194590615a98565b905061182d565b50846001600160a01b0316866001600160a01b0316826001600160a01b03167f4a39dc06d4c0dbc64b70af90fd698a233a518aa5d07e595d983b8c0526c8f7fb878760405161199c929190615bae565b60405180910390a46119b281878787878761416b565b505050505050565b60008181526101116020908152604080832033808552908352818420548585526101108452828520828652845282852054868652606585528386209286529190935290832054849284929091611a10919061594f565b611a1a919061594f565b905060008111611a3c5760405162461bcd60e51b8152600401610b0490615967565b505050600090815261010b6020908152604080832033845290915290206003015490565b6097546001600160a01b03163314611a8a5760405162461bcd60e51b8152600401610b04906157f8565b6001600160a01b038116611ab05760405162461bcd60e51b8152600401610b049061583e565b610cbf816142df565b60608151835114611b1e5760405162461bcd60e51b815260206004820152602960248201527f455243313135353a206163636f756e747320616e6420696473206c656e677468604482015268040dad2e6dac2e8c6d60bb1b6064820152608401610b04565b600083516001600160401b03811115611b3957611b39614ff5565b604051908082528060200260200182016040528015611b62578160200160208202803683370190505b50905060005b8451811015611bda57611bad858281518110611b8657611b866157e2565b6020026020010151858381518110611ba057611ba06157e2565b6020026020010151610c01565b828281518110611bbf57611bbf6157e2565b6020908102919091010152611bd381615a98565b9050611b68565b509392505050565b60008181526101116020908152604080832033808552908352818420548585526101108452828520828652845282852054868652606585528386209286529190935290832054849284929091611c38919061594f565b611c42919061594f565b905060008111611c645760405162461bcd60e51b8152600401610b0490615967565b505050600090815261010b6020908152604080832033845290915290206004015490565b600081815261010a60209081526040808320815160a08101835281548152600182015481850152600282018054845181870281018701865281815287968796949594860193919290830182828015611cff57602002820191906000526020600020905b815481526020019060010190808311611ceb575b50505091835250506003919091015463ffffffff8116602083015264010000000090046001600160401b0316604090910152905060005b816060015163ffffffff168163ffffffff161015611d8f5781604001518163ffffffff1681518110611d6a57611d6a6157e2565b602002602001015183611d7d919061594f565b9250611d8881615bdc565b9050611d36565b50909392505050565b6097546001600160a01b03163314611dc25760405162461bcd60e51b8152600401610b04906157f8565b611dcc60006142df565b565b600083815260fc602052604090205483906001600160a01b03163314611e065760405162461bcd60e51b8152600401610b0490615776565b611e1285858585614302565b600084815260fd6020526040902054611e2b90846143d5565b600094855260fd60205260409094209390935550505050565b6000610c6033836143e1565b600086815260fc602052604090205486906001600160a01b03163314611e885760405162461bcd60e51b8152600401610b0490615776565b604051806080016040528086815260200184848080602002602001604051908101604052809392919081815260200183836020028082843760009201829052509385525050506001600160401b03808a166020808501919091529088166040938401528a82526101098152919020825181558282015180519192611f1492600185019290910190614c69565b50604082810151600290920180546060909401516001600160401b03908116600160401b026001600160801b0319909516931692909217929092179055600097885261010a602052909620939093555050505050565b600082815261010e60205260409020546001600160a01b0316806323b872dd3330856040518463ffffffff1660e01b8152600401611faa93929190615ab3565b602060405180830381600087803b158015611fc457600080fd5b505af1158015611fd8573d6000803e3d6000fd5b505050506040513d601f19601f82011682018060405250810190611ffc919061590a565b6120185760405162461bcd60e51b8152600401610b0490615927565b600083815261010d602052604090205461203290836143d5565b600093845261010d6020526040909320929092555050565b610103546001600160a01b031633146120755760405162461bcd60e51b8152600401610b0490615a56565b60005b81811015610cfa5760016101026000858585818110612099576120996157e2565b90506020020160208101906120ae9190614e55565b6001600160a01b031681526020810191909152604001600020805460ff1916911515919091179055806120e081615a98565b915050612078565b6097546001600160a01b031633146121125760405162461bcd60e51b8152600401610b04906157f8565b610cbf81614473565b6097546001600160a01b031633146121455760405162461bcd60e51b8152600401610b04906157f8565b611dcc6000614486565b6097546001600160a01b031633146121795760405162461bcd60e51b8152600401610b04906157f8565b600081116121b75760405162461bcd60e51b815260206004820152600b60248201526a16915493d7d05353d5539560aa1b6044820152606401610b04565b610105546040516370a0823160e01b81523060048201526000916001600160a01b0316906370a082319060240160206040518083038186803b1580156121fc57600080fd5b505afa158015612210573d6000803e3d6000fd5b505050506040513d601f19601f820116820180604052508101906122349190615c00565b90508181116122555760405162461bcd60e51b8152600401610b04906158e6565b610105546001600160a01b031663a9059cbb6122796097546001600160a01b031690565b6040516001600160e01b031960e084901b1681526001600160a01b03909116600482015260248101859052604401602060405180830381600087803b1580156122c157600080fd5b505af11580156122d5573d6000803e3d6000fd5b505050506040513d601f19601f82011682018060405250810190610cfa919061590a565b6097546001600160a01b031633146123235760405162461bcd60e51b8152600401610b04906157f8565b80516123369060ff906020840190614ca4565b5050565b6101018054610d0d906158ab565b60006001600160a01b0382166123705760405162461bcd60e51b8152600401610b049061583e565b506001600160a01b03166000908152610102602052604090205460ff1690565b6097546001600160a01b031633146123ba5760405162461bcd60e51b8152600401610b04906157f8565b600083815261010c60205260409020548211156123e95760405162461bcd60e51b8152600401610b04906158e6565b600083815261010e60205260409081902054905163a9059cbb60e01b81526001600160a01b0383811660048301526024820185905290911690819063a9059cbb90604401602060405180830381600087803b15801561244757600080fd5b505af115801561245b573d6000803e3d6000fd5b505050506040513d601f19601f8201168201806040525081019061247f919061590a565b61249b5760405162461bcd60e51b8152600401610b0490615927565b600084815261010c60205260409020546124b59084613e9a565b600094855261010c602052604090942093909355505050565b6123363383836144d8565b600082815261010a60205260409020600101541561252a5760405162461bcd60e51b815260206004820152600e60248201526d1393d517d312545552511055115160921b6044820152606401610b04565b600082815261010e60205260409020546001600160a01b0316806323b872dd3330856040518463ffffffff1660e01b815260040161256a93929190615ab3565b602060405180830381600087803b15801561258457600080fd5b505af1158015612598573d6000803e3d6000fd5b505050506040513d601f19601f820116820180604052508101906125bc919061590a565b6125d85760405162461bcd60e51b8152600401610b0490615927565b600083815261010c60205260409020546125f290836143d5565b600093845261010c6020526040909320929092555050565b600061261660016145b9565b9050801561262e576000805461ff0019166101001790555b612639848484614646565b612641614708565b612649614737565b8015612690576000805461ff0019169055604051600181527f7f26b83ff96e1f2b6a682f133852f6798a09c465da95921460cefb3847402498906020015b60405180910390a15b50505050565b600260c95414156126b95760405162461bcd60e51b8152600401610b04906159d8565b600260c955806127025760405162461bcd60e51b815260206004820152601460248201527343616e6e6f74207374616b65206e6f7468696e6760601b6044820152606401610b04565b610105546040516323b872dd60e01b815233916001600160a01b0316906323b872dd9061273790849030908790600401615ab3565b602060405180830381600087803b15801561275157600080fd5b505af1158015612765573d6000803e3d6000fd5b505050506040513d601f19601f82011682018060405250810190612789919061590a565b6127d05760405162461bcd60e51b815260206004820152601860248201527721b7bab632103737ba103a3930b739b332b9103a37b5b2b760411b6044820152606401610b04565b6001600160a01b0381166000908152610107602052604090206003015460ff1661285f576040805160808101825283815242602080830191825260008385018181526001606086018181526001600160a01b0389168452610107909452959091209351845591519383019390935551600282015590516003909101805460ff1916911515919091179055612886565b6001600160a01b038116600090815261010760205260409020805483018155426001909101555b61288f81614766565b5050600160c955565b81518351146128e15760405162461bcd60e51b81526020600482015260156024820152740929cac82989288be82a4a482b2a6be988a9c8ea89605b1b6044820152606401610b04565b60005b83518110156129b1576000848281518110612901576129016157e2565b602090810291909101810151600081815260fc9092526040909120549091506001600160a01b031633146129475760405162461bcd60e51b8152600401610b0490615776565b600084838151811061295b5761295b6157e2565b6020026020010151905061298b8160fd6000858152602001908152602001600020546143d590919063ffffffff16565b600092835260fd60205260409092209190915550806129a981615a98565b9150506128e4565b50612690848484846147ef565b6097546001600160a01b031633146129e85760405162461bcd60e51b8152600401610b04906157f8565b6001600160a01b038116612a535760405162461bcd60e51b815260206004820152602c60248201527f476f7665726e61626c653a206e657720676f7665726e6f72206973207468652060448201526b7a65726f206164647265737360a01b6064820152608401610b04565b610cbf81614486565b6097546000906001600160a01b03163314612a895760405162461bcd60e51b8152600401610b04906157f8565b6000612a9361493b565b9050612a9d614951565b612aa78982614968565b8515612b0257807f6bb7ff708619ba0610cba295a58592e0451dee2622938c8755667688daf3529b8888604051612adf929190615c42565b60405180910390a2600081815260fe60205260409020612b00908888614d17565b505b600081815261010e6020908152604080832080546001600160a01b0319166001600160a01b038a1617905580516080810182529283528051600580825260c0820190925283830192909190820160a08036833750505081526000602080830182905260409283018290528482526101098152919020825181558282015180519192612b9592600185019290910190614c69565b5060408281015160029290920180546060909401516001600160401b03908116600160401b026001600160801b0319909516931692909217929092179055805160a081018252600080825260208083019190915282516064808252610ca082018552929384019290918201610c8080368337505050815260006020808301829052604092830182905284825261010a81529082902083518155838201516001820155918301518051612c4d9260028501920190614c69565b506060820151600390910180546080909301516001600160401b0316640100000000026bffffffffffffffffffffffff1990931663ffffffff90921691909117919091179055604080516020601f8601819004810282018101909252848152612cd7918b9184918c9190899089908190840183828082843760009201919091525061430292505050565b600081815260fd602052604090819020899055517f88f0d41cef6a8206a30337c993797fb4e945b6990053d384c25afa4fa13bfe5190612d209083908c908c908c908c90615c56565b60405180910390a198975050505050505050565b336000908152610102602052604090205460ff16612d645760405162461bcd60e51b8152600401610b04906159b3565b600260c9541415612d875760405162461bcd60e51b8152600401610b04906159d8565b600260c95533612d978183613ea6565b600082815261010b602090815260408083206001600160a01b038516845290915290206002015480612e0b5760405162461bcd60e51b815260206004820181905260248201527f524549544e46543a206e6f206d6f726520636c61696d61626c65207969656c646044820152606401610b04565b600083815261010c6020526040902054811115612e3a5760405162461bcd60e51b8152600401610b0490615a0f565b600083815261010e60205260409081902054905163a9059cbb60e01b81526001600160a01b0384811660048301526024820184905290911690819063a9059cbb90604401602060405180830381600087803b158015612e9857600080fd5b505af1158015612eac573d6000803e3d6000fd5b505050506040513d601f19601f82011682018060405250810190612ed0919061590a565b612f1c5760405162461bcd60e51b815260206004820181905260248201527f524549544e46543a20436f756c64206e6f74207472616e736665722066756e646044820152606401610b04565b50600083815261010b602090815260408083206001600160a01b0390951683529381528382206002810183905560030180548401905593815261010c90935291208054919091039055600160c955565b336000908152610102602052604090205460ff16612f9c5760405162461bcd60e51b8152600401610b04906159b3565b600260c9541415612fbf5760405162461bcd60e51b8152600401610b04906159d8565b600260c95560008181526101106020908152604080832033808552925290912054806130245760405162461bcd60e51b81526020600482015260146024820152731053149150511657d5539313d0d2d15117d0531360621b6044820152606401610b04565b600061303083856143e1565b600085815261010a602090815260408083205461010e909252918290205491516323b872dd60e01b81529293506305f5e100908502840204916001600160a01b039091169081906323b872dd9061308f90889030908790600401615ab3565b602060405180830381600087803b1580156130a957600080fd5b505af11580156130bd573d6000803e3d6000fd5b505050506040513d601f19601f820116820180604052508101906130e1919061590a565b61312d5760405162461bcd60e51b815260206004820152601a60248201527f524549544e46543a20436f756c64206e6f7420706179207461780000000000006044820152606401610b04565b5050506000838152610110602090815260408083206001600160a01b039590951680845294825280832083905585835260658252808320858452825280832080549490940190935593815261010b845281812092815291909252908120600181810180546002909301805490930190925591905560c955565b61010481815481106131b757600080fd5b600091825260209091200154905081565b600082815261010a602052604081206002018054839081106131ec576131ec6157e2565b9060005260206000200154905092915050565b600083815260fc602052604090205483906001600160a01b031633146132375760405162461bcd60e51b8152600401610b0490615776565b60005b828110156114c857600085815261010b60205260408120600191868685818110613266576132666157e2565b905060200201602081019061327b9190614e55565b6001600160a01b031681526020810191909152604001600020600501805460ff19169115159190911790556132af81615a98565b905061323a565b600081815260fc602052604090205481906001600160a01b031633146132ee5760405162461bcd60e51b8152600401610b0490615776565b50600090815261010a6020526040812060010155565b6001600160a01b03821661334c5760405162461bcd60e51b815260206004820152600f60248201526e494e56414c49445f4144445245535360881b6044820152606401610b04565b60005b8151811015610cfa57600082828151811061336c5761336c6157e2565b6020026020010151905061337d3390565b600082815260fc60205260409020546001600160a01b039081169116146133b65760405162461bcd60e51b8152600401610b0490615776565b6133c08482614968565b50806133cb81615a98565b91505061334f565b610103546001600160a01b031633146133fe5760405162461bcd60e51b8152600401610b0490615a56565b60005b81811015610cfa5760006101026000858585818110613422576134226157e2565b90506020020160208101906134379190614e55565b6001600160a01b031681526020810191909152604001600020805460ff19169115159190911790558061346981615a98565b915050613401565b600091825261010f6020526040909120546001600160a01b0391821691161490565b600081815261011160209081526040808320338085529083528184205485855261011084528285208286528452828520548686526065855283862092865291909352908320548492849290916134e9919061594f565b6134f3919061594f565b9050600081116135155760405162461bcd60e51b8152600401610b0490615967565b6000848152606560209081526040808320338085529083528184205488855261010a84528285206003015461010b8552838620838752909452918420600501549093919263ffffffff9081169162010000900416805b8263ffffffff168163ffffffff1610156135dd5760008a815261010a60205260409020600201805486919063ffffffff84169081106135ac576135ac6157e2565b90600052602060002001546135c19190615994565b6135cb908561594f565b93506135d681615bdc565b905061356b565b50600089815261010b602090815260408083206001600160a01b038916845290915290206002015461360f908461594f565b9998505050505050505050565b600082815260fc602052604090205482906001600160a01b031633146136545760405162461bcd60e51b8152600401610b0490615776565b50600091825261010a602052604090912055565b600081815261010a60209081526040808320600301546101099092528220600201546136af916001600160401b03640100000000909104811691600160401b900416615c8f565b6001600160401b031692915050565b606060ff80546136cd906158ab565b80601f01602080910402602001604051908101604052809291908181526020018280546136f9906158ab565b80156137465780601f1061371b57610100808354040283529160200191613746565b820191906000526020600020905b81548152906001019060200180831161372957829003601f168201915b5050505050905090565b600081815261011160209081526040808320338085529083528184205485855261011084528285208286528452828520548686526065855283862092865291909352908320548492849290916137a6919061594f565b6137b0919061594f565b9050600081116137d25760405162461bcd60e51b8152600401610b0490615967565b600084815261011060209081526040808320338085529083528184205488855261010a84528285206003015461010b8552838620838752909452918420600501549093919263ffffffff9081169162010000900416805b8263ffffffff168163ffffffff16101561389b5760008a815261010a60205260409020600201805486919063ffffffff841690811061386a5761386a6157e2565b906000526020600020015461387f9190615994565b613889908561594f565b935061389481615bdc565b9050613829565b50600089815261010b602090815260408083206001600160a01b038916845290915290206001015461360f908461594f565b610108546001600160a01b031633146138f85760405162461bcd60e51b8152600401610b0490615864565b61010580546001600160a01b0319166001600160a01b03939093169290921790915561010655565b6001600160a01b0384166139465760405162461bcd60e51b8152600401610b0490615b1f565b6001600160a01b03851633148061396257506139628533610a12565b6139c05760405162461bcd60e51b815260206004820152602960248201527f455243313135353a2063616c6c6572206973206e6f74206f776e6572206e6f7260448201526808185c1c1c9bdd995960ba1b6064820152608401610b04565b836001600160a01b0316856001600160a01b03161415613a485760405162461bcd60e51b815260206004820152603760248201527f455243313135353a2046726f6d5f41646472657373206d75737420626520646960448201527f66666572656e742066726f6d20546f5f416464726573730000000000000000006064820152608401610b04565b336000613a5485614996565b90506000613a6185614996565b905060008681526065602090815260408083206001600160a01b038c16845290915290205485811015613aa65760405162461bcd60e51b8152600401610b0490615b64565b613ab08988613ea6565b613aba8888613ea6565b60008781526065602090815260408083206001600160a01b038d16845290915281208783039055613aeb888b613471565b80613afb5750613afb888a613471565b905080613b40576000888152610110602090815260408083206001600160a01b038d16845290915281208054899290613b3590849061594f565b90915550613c6a9050565b60008881526065602090815260408083206001600160a01b038d16845290915281208054899290613b7290849061594f565b90915550613b829050888b613471565b15613c6a57600088815261010b602090815260408083206001600160a01b038d16845290915290206005015462010000900463ffffffff168015613c68576000805b8263ffffffff16811015613c2a5760008b815261010a6020526040902060020180548b919083908110613bf957613bf96157e2565b9060005260206000200154613c0e9190615994565b613c18908361594f565b9150613c2381615a98565b9050613bc4565b5060008a815261010b602090815260408083206001600160a01b038f16845290915281206002018054839290613c6190849061594f565b9091555050505b505b886001600160a01b03168a6001600160a01b0316866001600160a01b03167fc3d58168c5ae7397731d063d5bbf3d657854427343f4c083240f7aacaa2d0f628b8b604051613cc2929190918252602082015260400190565b60405180910390a4613cd8858b8b8b8b8b6149e1565b50505050505050505050565b600082815260fc602052604090205482906001600160a01b03163314613d1c5760405162461bcd60e51b8152600401610b0490615776565b6001600160a01b0382163b613d645760405162461bcd60e51b815260206004820152600e60248201526d1393d517d057d0d3d395149050d560921b6044820152606401610b04565b50600091825261010f602052604090912080546001600160a01b0319166001600160a01b03909216919091179055565b600082815260fc602052604090205482906001600160a01b03163314613dcc5760405162461bcd60e51b8152600401610b0490615776565b50600091825261010a602052604090912060010155565b60006001600160a01b038316613e4f5760405162461bcd60e51b815260206004820152602b60248201527f455243313135353a2062616c616e636520717565727920666f7220746865207a60448201526a65726f206164647265737360a81b6064820152608401610b04565b5060009081526065602090815260408083206001600160a01b03949094168352929052205490565b61010880546001600160a01b0319166001600160a01b0392909216919091179055565b6000610c0d8284615cb1565b613eb08183613471565b15613eb9575050565b600081815261010b602090815260408083206001600160a01b0386168452909152902060050154610100900460ff16613fcc576040805161010080820183526001600160a01b0385811680845260006020808601828152868801838152606088018481526080890185815260a08a01868152600160c08c0181815260e08d018981528f8a5261010b89528e8a209a8a52999097529b90962099518a546001600160a01b03191698169790971789559151988801989098559651600287015595516003860155915160048501559051600590930180549451915161ffff1990951693151561ff001916939093179015159091021765ffffffff000019166201000063ffffffff909316929092029190911790555b600081815261010b602090815260408083206001600160a01b038616845282528083206005015484845261010a9092529091206003015463ffffffff6201000090920482169116808210156126905760008381526065602090815260408083206001600160a01b0388168085529083528184205487855261011084528285209185529252822054829190855b8563ffffffff168163ffffffff1610156140ba57600088815261010a60205260408120600201805463ffffffff8416908110614096576140966157e2565b60009182526020909120015484810296909601958302949094019350600101614058565b50600087815261010b602090815260408083206001600160a01b038c1684529091529020600501805465ffffffff000019166201000063ffffffff881602179055831561412e57600087815261010b602090815260408083206001600160a01b038c16845290915290206002018054850190555b821561416157600087815261010b602090815260408083206001600160a01b038c16845290915290206001018054840190555b5050505050505050565b6001600160a01b0384163b156119b25760405163bc197c8160e01b81526001600160a01b0385169063bc197c81906141af9089908990889088908890600401615cc8565b602060405180830381600087803b1580156141c957600080fd5b505af19250505080156141f9575060408051601f3d908101601f191682019092526141f691810190615d26565b60015b6142a657614205615d43565b806308c379a0141561423f575061421a615d5f565b806142255750614241565b8060405162461bcd60e51b8152600401610b049190614f49565b505b60405162461bcd60e51b815260206004820152603460248201527f455243313135353a207472616e7366657220746f206e6f6e20455243313135356044820152732932b1b2b4bb32b91034b6b83632b6b2b73a32b960611b6064820152608401610b04565b6001600160e01b0319811663bc197c8160e01b146142d65760405162461bcd60e51b8152600401610b0490615de8565b50505050505050565b61010380546001600160a01b0319166001600160a01b0392909216919091179055565b6001600160a01b0384166143285760405162461bcd60e51b8152600401610b0490615e30565b33600061433485614996565b9050600061434185614996565b905060008681526065602090815260408083206001600160a01b038b1684529091528120805487929061437590849061594f565b909155505060408051878152602081018790526001600160a01b03808a1692600092918716917fc3d58168c5ae7397731d063d5bbf3d657854427343f4c083240f7aacaa2d0f62910160405180910390a46142d6836000898989896149e1565b6000610c0d828461594f565b6001600160a01b038216600090815261010760209081526040808320600201548484526101099092528220600101805483919083908110614424576144246157e2565b90600052602060002001549050806000141561446b57600084815261010960205260408120600101805490919061445d5761445d6157e2565b906000526020600020015490505b949350505050565b8051612336906067906020840190614ca4565b609780546001600160a01b038381166001600160a01b0319831681179093556040519116919082907fc7c0c772add429241571afb3805861fb3cfa2af374534088b76cdb4325a87e9a90600090a35050565b816001600160a01b0316836001600160a01b0316141561454c5760405162461bcd60e51b815260206004820152602960248201527f455243313135353a2073657474696e6720617070726f76616c20737461747573604482015268103337b91039b2b63360b91b6064820152608401610b04565b6001600160a01b03838116600081815260666020908152604080832094871680845294825291829020805460ff191686151590811790915591519182527f17307eab39ab6107e8899845ad3d59bd9653f200f220920489ca2b5937696c31910160405180910390a3505050565b60008054610100900460ff1615614600578160ff1660011480156145dc5750303b155b6145f85760405162461bcd60e51b8152600401610b0490615e71565b506000919050565b60005460ff8084169116106146275760405162461bcd60e51b8152600401610b0490615e71565b506000805460ff191660ff92909216919091179055600190565b919050565b600061465260016145b9565b9050801561466a576000805461ff0019166101001790555b61467382614aab565b61467b614adb565b614683614b0a565b835161469790610100906020870190614ca4565b5082516146ac90610101906020860190614ca4565b50600060fb5581516146c59060ff906020850190614ca4565b508015612690576000805461ff0019169055604051600181527f7f26b83ff96e1f2b6a682f133852f6798a09c465da95921460cefb384740249890602001612687565b600054610100900460ff1661472f5760405162461bcd60e51b8152600401610b0490615ebf565b611dcc614b39565b600054610100900460ff1661475e5760405162461bcd60e51b8152600401610b0490615ebf565b611dcc614b69565b6001600160a01b038116600090815261010760205260408120546101045490919061479390600190615cb1565b90505b61010481815481106147aa576147aa6157e2565b906000526020600020015482106147df576001600160a01b038316600090815261010760205260409020600201819055505050565b6147e881615f0a565b9050614796565b6001600160a01b0384166148155760405162461bcd60e51b8152600401610b0490615e30565b81518351146148365760405162461bcd60e51b8152600401610b0490615ad7565b3360005b84518110156148d357838181518110614855576148556157e2565b602002602001015160656000878481518110614873576148736157e2565b602002602001015181526020019081526020016000206000886001600160a01b03166001600160a01b0316815260200190815260200160002060008282546148bb919061594f565b909155508190506148cb81615a98565b91505061483a565b50846001600160a01b031660006001600160a01b0316826001600160a01b03167f4a39dc06d4c0dbc64b70af90fd698a233a518aa5d07e595d983b8c0526c8f7fb8787604051614924929190615bae565b60405180910390a46114c88160008787878761416b565b60fb5460009061494c9060016143d5565b905090565b60fb805490600061496183615a98565b9190505550565b600090815260fc6020526040902080546001600160a01b0319166001600160a01b0392909216919091179055565b604080516001808252818301909252606091600091906020808301908036833701905050905082816000815181106149d0576149d06157e2565b602090810291909101015292915050565b6001600160a01b0384163b156119b25760405163f23a6e6160e01b81526001600160a01b0385169063f23a6e6190614a259089908990889088908890600401615f21565b602060405180830381600087803b158015614a3f57600080fd5b505af1925050508015614a6f575060408051601f3d908101601f19168201909252614a6c91810190615d26565b60015b614a7b57614205615d43565b6001600160e01b0319811663f23a6e6160e01b146142d65760405162461bcd60e51b8152600401610b0490615de8565b600054610100900460ff16614ad25760405162461bcd60e51b8152600401610b0490615ebf565b610cbf81614b99565b600054610100900460ff16614b025760405162461bcd60e51b8152600401610b0490615ebf565b611dcc614bc0565b600054610100900460ff16614b315760405162461bcd60e51b8152600401610b0490615ebf565b611dcc614bf0565b600054610100900460ff16614b605760405162461bcd60e51b8152600401610b0490615ebf565b611dcc336142df565b600054610100900460ff16614b905760405162461bcd60e51b8152600401610b0490615ebf565b611dcc33613e77565b600054610100900460ff166121125760405162461bcd60e51b8152600401610b0490615ebf565b600054610100900460ff16614be75760405162461bcd60e51b8152600401610b0490615ebf565b611dcc33614486565b600054610100900460ff16614c175760405162461bcd60e51b8152600401610b0490615ebf565b600160c955565b828054828255906000526020600020908101928215614c59579160200282015b82811115614c59578235825591602001919060010190614c3e565b50614c65929150614d8a565b5090565b828054828255906000526020600020908101928215614c59579160200282015b82811115614c59578251825591602001919060010190614c89565b828054614cb0906158ab565b90600052602060002090601f016020900481019282614cd25760008555614c59565b82601f10614ceb57805160ff1916838001178555614c59565b82800160010185558215614c595791820182811115614c59578251825591602001919060010190614c89565b828054614d23906158ab565b90600052602060002090601f016020900481019282614d455760008555614c59565b82601f10614d5e5782800160ff19823516178555614c59565b82800160010185558215614c595791820182811115614c59578235825591602001919060010190614c3e565b5b80821115614c655760008155600101614d8b565b600080600060608486031215614db457600080fd5b8335925060208401359150604084013563ffffffff81168114614dd657600080fd5b809150509250925092565b80356001600160a01b038116811461464157600080fd5b60008060408385031215614e0b57600080fd5b614e1483614de1565b946020939093013593505050565b6001600160e01b031981168114610cbf57600080fd5b600060208284031215614e4a57600080fd5b8135610c0d81614e22565b600060208284031215614e6757600080fd5b610c0d82614de1565b60008083601f840112614e8257600080fd5b5081356001600160401b03811115614e9957600080fd5b6020830191508360208260051b8501011115614eb457600080fd5b9250929050565b60008060208385031215614ece57600080fd5b82356001600160401b03811115614ee457600080fd5b614ef085828601614e70565b90969095509350505050565b6000815180845260005b81811015614f2257602081850181015186830182015201614f06565b81811115614f34576000602083870101525b50601f01601f19169290920160200192915050565b602081526000610c0d6020830184614efc565b600080600060608486031215614f7157600080fd5b8335925060208401359150614f8860408501614de1565b90509250925092565b600060208284031215614fa357600080fd5b5035919050565b600080600060408486031215614fbf57600080fd5b8335925060208401356001600160401b03811115614fdc57600080fd5b614fe886828701614e70565b9497909650939450505050565b634e487b7160e01b600052604160045260246000fd5b601f8201601f191681016001600160401b038111828210171561503057615030614ff5565b6040525050565b60006001600160401b0382111561505057615050614ff5565b5060051b60200190565b600082601f83011261506b57600080fd5b8135602061507882615037565b604051615085828261500b565b83815260059390931b85018201928281019150868411156150a557600080fd5b8286015b848110156150c057803583529183019183016150a9565b509695505050505050565b600082601f8301126150dc57600080fd5b81356001600160401b038111156150f5576150f5614ff5565b60405161510c601f8301601f19166020018261500b565b81815284602083860101111561512157600080fd5b816020850160208301376000918101602001919091529392505050565b600080600080600060a0868803121561515657600080fd5b61515f86614de1565b945061516d60208701614de1565b935060408601356001600160401b038082111561518957600080fd5b61519589838a0161505a565b945060608801359150808211156151ab57600080fd5b6151b789838a0161505a565b935060808801359150808211156151cd57600080fd5b506151da888289016150cb565b9150509295509295909350565b600080604083850312156151fa57600080fd5b82356001600160401b038082111561521157600080fd5b818501915085601f83011261522557600080fd5b8135602061523282615037565b60405161523f828261500b565b83815260059390931b850182019282810191508984111561525f57600080fd5b948201945b838610156152845761527586614de1565b82529482019490820190615264565b9650508601359250508082111561529a57600080fd5b506152a78582860161505a565b9150509250929050565b600081518084526020808501945080840160005b838110156152e1578151875295820195908201906001016152c5565b509495945050505050565b602081526000610c0d60208301846152b1565b6000806000806080858703121561531557600080fd5b61531e85614de1565b9350602085013592506040850135915060608501356001600160401b0381111561534757600080fd5b615353878288016150cb565b91505092959194509250565b80356001600160401b038116811461464157600080fd5b60008060008060008060a0878903121561538f57600080fd5b8635955061539f6020880161535f565b9450604087013593506153b46060880161535f565b925060808701356001600160401b038111156153cf57600080fd5b6153db89828a01614e70565b979a9699509497509295939492505050565b6000806040838503121561540057600080fd5b50508035926020909101359150565b60006020828403121561542157600080fd5b81356001600160401b0381111561543757600080fd5b61446b848285016150cb565b8015158114610cbf57600080fd5b6000806040838503121561546457600080fd5b61546d83614de1565b9150602083013561547d81615443565b809150509250929050565b60008060006060848603121561549d57600080fd5b83356001600160401b03808211156154b457600080fd5b6154c0878388016150cb565b945060208601359150808211156154d657600080fd5b6154e2878388016150cb565b935060408601359150808211156154f857600080fd5b50615505868287016150cb565b9150509250925092565b6000806000806080858703121561552557600080fd5b61552e85614de1565b935060208501356001600160401b038082111561554a57600080fd5b6155568883890161505a565b9450604087013591508082111561556c57600080fd5b6155788883890161505a565b9350606087013591508082111561558e57600080fd5b50615353878288016150cb565b60008083601f8401126155ad57600080fd5b5081356001600160401b038111156155c457600080fd5b602083019150836020828501011115614eb457600080fd5b600080600080600080600060a0888a0312156155f757600080fd5b61560088614de1565b96506020880135955060408801356001600160401b038082111561562357600080fd5b61562f8b838c0161559b565b909750955085915061564360608b01614de1565b945060808a013591508082111561565957600080fd5b506156668a828b0161559b565b989b979a50959850939692959293505050565b6000806040838503121561568c57600080fd5b61569583614de1565b915060208301356001600160401b038111156156b057600080fd5b6152a78582860161505a565b600080604083850312156156cf57600080fd5b823591506156df60208401614de1565b90509250929050565b600080604083850312156156fb57600080fd5b61570483614de1565b91506156df60208401614de1565b600080600080600060a0868803121561572a57600080fd5b61573386614de1565b945061574160208701614de1565b9350604086013592506060860135915060808601356001600160401b0381111561576a57600080fd5b6151da888289016150cb565b60208082526014908201527313d3931657d0d491505513d497d0531313d5d15160621b604082015260600190565b634e487b7160e01b600052601160045260246000fd5b600063ffffffff8083168185168083038211156157d9576157d96157a4565b01949350505050565b634e487b7160e01b600052603260045260246000fd5b60208082526026908201527f476f7665726e61626c653a2063616c6c6572206973206e6f742074686520676f6040820152653b32b93737b960d11b606082015260800190565b6020808252600c908201526b5a45524f5f4144445245535360a01b604082015260600190565b60208082526027908201527f4c6f79616c747950726f6772616d3a2063616c6c6572206973206e6f74207468604082015266329030b236b4b760c91b606082015260800190565b600181811c908216806158bf57607f821691505b602082108114156158e057634e487b7160e01b600052602260045260246000fd5b50919050565b6020808252600a908201526909c9ea8be8a9c9eaa8e960b31b604082015260600190565b60006020828403121561591c57600080fd5b8151610c0d81615443565b6020808252600e908201526d2a2920a729a322a92fa2a92927a960911b604082015260600190565b60008219821115615962576159626157a4565b500190565b60208082526013908201527213d3931657d3d5d3915494d7d0531313d5d151606a1b604082015260600190565b60008160001904831182151516156159ae576159ae6157a4565b500290565b6020808252600b908201526a4e6f7420796574204b594360a81b604082015260600190565b6020808252601f908201527f5265656e7472616e637947756172643a207265656e7472616e742063616c6c00604082015260600190565b60208082526027908201527f524549544e46543a206e656564206d6f72652066756e64696e67732066726f6d6040820152661034b9b9bab2b960c91b606082015260800190565b60208082526022908201527f4b59434163636573733a2063616c6c6572206973206e6f74207468652061646d60408201526134b760f11b606082015260800190565b6000600019821415615aac57615aac6157a4565b5060010190565b6001600160a01b039384168152919092166020820152604081019190915260600190565b60208082526028908201527f455243313135353a2069647320616e6420616d6f756e7473206c656e677468206040820152670dad2e6dac2e8c6d60c31b606082015260800190565b60208082526025908201527f455243313135353a207472616e7366657220746f20746865207a65726f206164604082015264647265737360d81b606082015260800190565b6020808252602a908201527f455243313135353a20696e73756666696369656e742062616c616e636520666f60408201526939103a3930b739b332b960b11b606082015260800190565b604081526000615bc160408301856152b1565b8281036020840152615bd381856152b1565b95945050505050565b600063ffffffff80831681811415615bf657615bf66157a4565b6001019392505050565b600060208284031215615c1257600080fd5b5051919050565b81835281816020850137506000828201602090810191909152601f909101601f19169091010190565b60208152600061446b602083018486615c19565b85815260018060a01b0385166020820152836040820152608060608201526000615c84608083018486615c19565b979650505050505050565b60006001600160401b038083168185168083038211156157d9576157d96157a4565b600082821015615cc357615cc36157a4565b500390565b6001600160a01b0386811682528516602082015260a060408201819052600090615cf4908301866152b1565b8281036060840152615d0681866152b1565b90508281036080840152615d1a8185614efc565b98975050505050505050565b600060208284031215615d3857600080fd5b8151610c0d81614e22565b600060033d1115615d5c5760046000803e5060005160e01c5b90565b600060443d1015615d6d5790565b6040516003193d81016004833e81513d6001600160401b038160248401118184111715615d9c57505050505090565b8285019150815181811115615db45750505050505090565b843d8701016020828501011115615dce5750505050505090565b615ddd6020828601018761500b565b509095945050505050565b60208082526028908201527f455243313135353a204552433131353552656365697665722072656a656374656040820152676420746f6b656e7360c01b606082015260800190565b60208082526021908201527f455243313135353a206d696e7420746f20746865207a65726f206164647265736040820152607360f81b606082015260800190565b6020808252602e908201527f496e697469616c697a61626c653a20636f6e747261637420697320616c72656160408201526d191e481a5b9a5d1a585b1a5e995960921b606082015260800190565b6020808252602b908201527f496e697469616c697a61626c653a20636f6e7472616374206973206e6f74206960408201526a6e697469616c697a696e6760a81b606082015260800190565b600081615f1957615f196157a4565b506000190190565b6001600160a01b03868116825285166020820152604081018490526060810183905260a060808201819052600090615c8490830184614efc56fea264697066735822122015492e3bb5d8a9f6d696a7c34b6971607da3b208773ca469c0bc1c516838c5e164736f6c63430008090033",
  "linkReferences": {},
  "deployedLinkReferences": {}
}