{
  "_format": "hh-sol-artifact-1",
  "contractName": "REITNFT",
  "sourceName": "contracts/REITNFT.sol",
  "abi": [
    {
      "anonymous": false,
      "inputs": [
        {
          "indexed": true,
          "internalType": "address",
          "name": "account",
          "type": "address"
        },
        {
          "indexed": true,
          "internalType": "address",
          "name": "operator",
          "type": "address"
        },
        {
          "indexed": false,
          "internalType": "bool",
          "name": "approved",
          "type": "bool"
        }
      ],
      "name": "ApprovalForAll",
      "type": "event"
    },
    {
      "anonymous": false,
      "inputs": [
        {
          "indexed": false,
          "internalType": "uint256",
          "name": "id",
          "type": "uint256"
        }
      ],
      "name": "Create",
      "type": "event"
    },
    {
      "anonymous": false,
      "inputs": [
        {
          "indexed": false,
          "internalType": "uint8",
          "name": "version",
          "type": "uint8"
        }
      ],
      "name": "Initialized",
      "type": "event"
    },
    {
      "anonymous": false,
      "inputs": [
        {
          "indexed": true,
          "internalType": "address",
          "name": "previousOwner",
          "type": "address"
        },
        {
          "indexed": true,
          "internalType": "address",
          "name": "newOwner",
          "type": "address"
        }
      ],
      "name": "OwnershipTransferred",
      "type": "event"
    },
    {
      "anonymous": false,
      "inputs": [
        {
          "indexed": true,
          "internalType": "address",
          "name": "operator",
          "type": "address"
        },
        {
          "indexed": true,
          "internalType": "address",
          "name": "from",
          "type": "address"
        },
        {
          "indexed": true,
          "internalType": "address",
          "name": "to",
          "type": "address"
        },
        {
          "indexed": false,
          "internalType": "uint256[]",
          "name": "ids",
          "type": "uint256[]"
        },
        {
          "indexed": false,
          "internalType": "uint256[]",
          "name": "values",
          "type": "uint256[]"
        }
      ],
      "name": "TransferBatch",
      "type": "event"
    },
    {
      "anonymous": false,
      "inputs": [
        {
          "indexed": true,
          "internalType": "address",
          "name": "operator",
          "type": "address"
        },
        {
          "indexed": true,
          "internalType": "address",
          "name": "from",
          "type": "address"
        },
        {
          "indexed": true,
          "internalType": "address",
          "name": "to",
          "type": "address"
        },
        {
          "indexed": false,
          "internalType": "uint256",
          "name": "id",
          "type": "uint256"
        },
        {
          "indexed": false,
          "internalType": "uint256",
          "name": "value",
          "type": "uint256"
        }
      ],
      "name": "TransferSingle",
      "type": "event"
    },
    {
      "anonymous": false,
      "inputs": [
        {
          "indexed": false,
          "internalType": "string",
          "name": "value",
          "type": "string"
        },
        {
          "indexed": true,
          "internalType": "uint256",
          "name": "id",
          "type": "uint256"
        }
      ],
      "name": "URI",
      "type": "event"
    },
    {
      "inputs": [
        {
          "internalType": "address[]",
          "name": "accounts",
          "type": "address[]"
        }
      ],
      "name": "addManyToKYC",
      "outputs": [],
      "stateMutability": "nonpayable",
      "type": "function"
    },
    {
      "inputs": [
        {
          "internalType": "address",
          "name": "account",
          "type": "address"
        }
      ],
      "name": "addToKYC",
      "outputs": [],
      "stateMutability": "nonpayable",
      "type": "function"
    },
    {
      "inputs": [
        {
          "internalType": "uint256",
          "name": "_id",
          "type": "uint256"
        }
      ],
      "name": "affirmOwnership",
      "outputs": [],
      "stateMutability": "nonpayable",
      "type": "function"
    },
    {
      "inputs": [
        {
          "internalType": "address",
          "name": "account",
          "type": "address"
        },
        {
          "internalType": "uint256",
          "name": "id",
          "type": "uint256"
        }
      ],
      "name": "balanceOf",
      "outputs": [
        {
          "internalType": "uint256",
          "name": "",
          "type": "uint256"
        }
      ],
      "stateMutability": "view",
      "type": "function"
    },
    {
      "inputs": [
        {
          "internalType": "address[]",
          "name": "accounts",
          "type": "address[]"
        },
        {
          "internalType": "uint256[]",
          "name": "ids",
          "type": "uint256[]"
        }
      ],
      "name": "balanceOfBatch",
      "outputs": [
        {
          "internalType": "uint256[]",
          "name": "",
          "type": "uint256[]"
        }
      ],
      "stateMutability": "view",
      "type": "function"
    },
    {
      "inputs": [
        {
          "internalType": "address",
          "name": "_to",
          "type": "address"
        },
        {
          "internalType": "uint256[]",
          "name": "_ids",
          "type": "uint256[]"
        },
        {
          "internalType": "uint256[]",
          "name": "_quantities",
          "type": "uint256[]"
        },
        {
          "internalType": "bytes",
          "name": "_data",
          "type": "bytes"
        }
      ],
      "name": "batchMint",
      "outputs": [],
      "stateMutability": "nonpayable",
      "type": "function"
    },
    {
      "inputs": [
        {
          "internalType": "uint256",
          "name": "_id",
          "type": "uint256"
        }
      ],
      "name": "claimYield",
      "outputs": [],
      "stateMutability": "nonpayable",
      "type": "function"
    },
    {
      "inputs": [],
      "name": "contractURI",
      "outputs": [
        {
          "internalType": "string",
          "name": "",
          "type": "string"
        }
      ],
      "stateMutability": "view",
      "type": "function"
    },
    {
      "inputs": [
        {
          "internalType": "address",
          "name": "_initialOwner",
          "type": "address"
        },
        {
          "internalType": "uint256",
          "name": "_initialSupply",
          "type": "uint256"
        },
        {
          "internalType": "string",
          "name": "_uri",
          "type": "string"
        },
        {
          "internalType": "address",
          "name": "_fundingToken",
          "type": "address"
        },
        {
          "internalType": "bytes",
          "name": "_data",
          "type": "bytes"
        }
      ],
      "name": "create",
      "outputs": [
        {
          "internalType": "uint256",
          "name": "",
          "type": "uint256"
        }
      ],
      "stateMutability": "nonpayable",
      "type": "function"
    },
    {
      "inputs": [
        {
          "internalType": "uint256",
          "name": "",
          "type": "uint256"
        }
      ],
      "name": "creators",
      "outputs": [
        {
          "internalType": "address",
          "name": "",
          "type": "address"
        }
      ],
      "stateMutability": "view",
      "type": "function"
    },
    {
      "inputs": [
        {
          "internalType": "uint256",
          "name": "_id",
          "type": "uint256"
        },
        {
          "internalType": "uint256",
          "name": "amount",
          "type": "uint256"
        }
      ],
      "name": "fundREIT",
      "outputs": [],
      "stateMutability": "nonpayable",
      "type": "function"
    },
    {
      "inputs": [
        {
          "internalType": "uint256",
          "name": "_id",
          "type": "uint256"
        }
      ],
      "name": "getIPOUnitPrice",
      "outputs": [
        {
          "internalType": "uint256",
          "name": "",
          "type": "uint256"
        }
      ],
      "stateMutability": "view",
      "type": "function"
    },
    {
      "inputs": [
        {
          "internalType": "address",
          "name": "account",
          "type": "address"
        },
        {
          "internalType": "uint256",
          "name": "id",
          "type": "uint256"
        }
      ],
      "name": "getREITBalanceOf",
      "outputs": [
        {
          "internalType": "uint256",
          "name": "",
          "type": "uint256"
        }
      ],
      "stateMutability": "view",
      "type": "function"
    },
    {
      "inputs": [
        {
          "internalType": "string",
          "name": "_name",
          "type": "string"
        },
        {
          "internalType": "string",
          "name": "_symbol",
          "type": "string"
        },
        {
          "internalType": "string",
          "name": "_uri",
          "type": "string"
        }
      ],
      "name": "initialize",
      "outputs": [],
      "stateMutability": "nonpayable",
      "type": "function"
    },
    {
      "inputs": [
        {
          "internalType": "uint256",
          "name": "_id",
          "type": "uint256"
        },
        {
          "internalType": "uint256",
          "name": "ipoTime",
          "type": "uint256"
        },
        {
          "internalType": "uint256",
          "name": "ipoUnitPrice",
          "type": "uint256"
        },
        {
          "internalType": "uint256",
          "name": "liquidationTime",
          "type": "uint256"
        },
        {
          "internalType": "uint256",
          "name": "ownershipFee",
          "type": "uint256"
        }
      ],
      "name": "initiate",
      "outputs": [],
      "stateMutability": "nonpayable",
      "type": "function"
    },
    {
      "inputs": [
        {
          "internalType": "address",
          "name": "account",
          "type": "address"
        },
        {
          "internalType": "address",
          "name": "operator",
          "type": "address"
        }
      ],
      "name": "isApprovedForAll",
      "outputs": [
        {
          "internalType": "bool",
          "name": "",
          "type": "bool"
        }
      ],
      "stateMutability": "view",
      "type": "function"
    },
    {
      "inputs": [
        {
          "internalType": "address",
          "name": "account",
          "type": "address"
        }
      ],
      "name": "isKYC",
      "outputs": [
        {
          "internalType": "bool",
          "name": "",
          "type": "bool"
        }
      ],
      "stateMutability": "view",
      "type": "function"
    },
    {
      "inputs": [
        {
          "internalType": "address",
          "name": "_to",
          "type": "address"
        },
        {
          "internalType": "uint256",
          "name": "_id",
          "type": "uint256"
        },
        {
          "internalType": "uint256",
          "name": "_quantity",
          "type": "uint256"
        },
        {
          "internalType": "bytes",
          "name": "_data",
          "type": "bytes"
        }
      ],
      "name": "mint",
      "outputs": [],
      "stateMutability": "nonpayable",
      "type": "function"
    },
    {
      "inputs": [],
      "name": "name",
      "outputs": [
        {
          "internalType": "string",
          "name": "",
          "type": "string"
        }
      ],
      "stateMutability": "view",
      "type": "function"
    },
    {
      "inputs": [],
      "name": "owner",
      "outputs": [
        {
          "internalType": "address",
          "name": "",
          "type": "address"
        }
      ],
      "stateMutability": "view",
      "type": "function"
    },
    {
      "inputs": [
        {
          "internalType": "uint256",
          "name": "",
          "type": "uint256"
        }
      ],
      "name": "reitFunding",
      "outputs": [
        {
          "internalType": "uint256",
          "name": "",
          "type": "uint256"
        }
      ],
      "stateMutability": "view",
      "type": "function"
    },
    {
      "inputs": [
        {
          "internalType": "address",
          "name": "account",
          "type": "address"
        }
      ],
      "name": "removeKYC",
      "outputs": [],
      "stateMutability": "nonpayable",
      "type": "function"
    },
    {
      "inputs": [
        {
          "internalType": "address[]",
          "name": "accounts",
          "type": "address[]"
        }
      ],
      "name": "removeManyKYC",
      "outputs": [],
      "stateMutability": "nonpayable",
      "type": "function"
    },
    {
      "inputs": [],
      "name": "renounceOwnership",
      "outputs": [],
      "stateMutability": "nonpayable",
      "type": "function"
    },
    {
      "inputs": [
        {
          "internalType": "address",
          "name": "from",
          "type": "address"
        },
        {
          "internalType": "address",
          "name": "to",
          "type": "address"
        },
        {
          "internalType": "uint256[]",
          "name": "ids",
          "type": "uint256[]"
        },
        {
          "internalType": "uint256[]",
          "name": "amounts",
          "type": "uint256[]"
        },
        {
          "internalType": "bytes",
          "name": "data",
          "type": "bytes"
        }
      ],
      "name": "safeBatchTransferFrom",
      "outputs": [],
      "stateMutability": "nonpayable",
      "type": "function"
    },
    {
      "inputs": [
        {
          "internalType": "address",
          "name": "from",
          "type": "address"
        },
        {
          "internalType": "address",
          "name": "to",
          "type": "address"
        },
        {
          "internalType": "uint256",
          "name": "id",
          "type": "uint256"
        },
        {
          "internalType": "uint256",
          "name": "amount",
          "type": "uint256"
        },
        {
          "internalType": "bytes",
          "name": "data",
          "type": "bytes"
        }
      ],
      "name": "safeTransferFrom",
      "outputs": [],
      "stateMutability": "nonpayable",
      "type": "function"
    },
    {
      "inputs": [
        {
          "internalType": "address",
          "name": "from",
          "type": "address"
        },
        {
          "internalType": "address",
          "name": "to",
          "type": "address"
        },
        {
          "internalType": "uint256",
          "name": "id",
          "type": "uint256"
        },
        {
          "internalType": "uint256",
          "name": "amount",
          "type": "uint256"
        }
      ],
      "name": "safeTransferREITFrom",
      "outputs": [],
      "stateMutability": "nonpayable",
      "type": "function"
    },
    {
      "inputs": [
        {
          "internalType": "address",
          "name": "operator",
          "type": "address"
        },
        {
          "internalType": "bool",
          "name": "approved",
          "type": "bool"
        }
      ],
      "name": "setApprovalForAll",
      "outputs": [],
      "stateMutability": "nonpayable",
      "type": "function"
    },
    {
      "inputs": [
        {
          "internalType": "string",
          "name": "_newBaseMetadataURI",
          "type": "string"
        }
      ],
      "name": "setBaseMetadataURI",
      "outputs": [],
      "stateMutability": "nonpayable",
      "type": "function"
    },
    {
      "inputs": [
        {
          "internalType": "string",
          "name": "_uri",
          "type": "string"
        }
      ],
      "name": "setContractURI",
      "outputs": [],
      "stateMutability": "nonpayable",
      "type": "function"
    },
    {
      "inputs": [
        {
          "internalType": "address",
          "name": "_to",
          "type": "address"
        },
        {
          "internalType": "uint256[]",
          "name": "_ids",
          "type": "uint256[]"
        }
      ],
      "name": "setCreator",
      "outputs": [],
      "stateMutability": "nonpayable",
      "type": "function"
    },
    {
      "inputs": [
        {
          "internalType": "uint256",
          "name": "_id",
          "type": "uint256"
        },
        {
          "internalType": "uint256",
          "name": "yieldDividend",
          "type": "uint256"
        },
        {
          "internalType": "uint256",
          "name": "liquidationExtension",
          "type": "uint256"
        }
      ],
      "name": "setYield",
      "outputs": [],
      "stateMutability": "nonpayable",
      "type": "function"
    },
    {
      "inputs": [
        {
          "internalType": "bytes4",
          "name": "interfaceId",
          "type": "bytes4"
        }
      ],
      "name": "supportsInterface",
      "outputs": [
        {
          "internalType": "bool",
          "name": "",
          "type": "bool"
        }
      ],
      "stateMutability": "view",
      "type": "function"
    },
    {
      "inputs": [],
      "name": "symbol",
      "outputs": [
        {
          "internalType": "string",
          "name": "",
          "type": "string"
        }
      ],
      "stateMutability": "view",
      "type": "function"
    },
    {
      "inputs": [
        {
          "internalType": "uint256",
          "name": "",
          "type": "uint256"
        }
      ],
      "name": "tokenMetadata",
      "outputs": [
        {
          "internalType": "uint256",
          "name": "ipoTime",
          "type": "uint256"
        },
        {
          "internalType": "uint256",
          "name": "ipoUnitPrice",
          "type": "uint256"
        },
        {
          "internalType": "uint256",
          "name": "liquidationTime",
          "type": "uint256"
        },
        {
          "internalType": "uint256",
          "name": "ownershipFee",
          "type": "uint256"
        }
      ],
      "stateMutability": "view",
      "type": "function"
    },
    {
      "inputs": [
        {
          "internalType": "uint256",
          "name": "",
          "type": "uint256"
        }
      ],
      "name": "tokenSupply",
      "outputs": [
        {
          "internalType": "uint256",
          "name": "",
          "type": "uint256"
        }
      ],
      "stateMutability": "view",
      "type": "function"
    },
    {
      "inputs": [
        {
          "internalType": "uint256",
          "name": "",
          "type": "uint256"
        }
      ],
      "name": "tokenUri",
      "outputs": [
        {
          "internalType": "string",
          "name": "",
          "type": "string"
        }
      ],
      "stateMutability": "view",
      "type": "function"
    },
    {
      "inputs": [
        {
          "internalType": "uint256",
          "name": "",
          "type": "uint256"
        }
      ],
      "name": "tokenYieldData",
      "outputs": [
        {
          "internalType": "uint256",
          "name": "yieldDividend",
          "type": "uint256"
        },
        {
          "internalType": "uint256",
          "name": "liquidationExtension",
          "type": "uint256"
        }
      ],
      "stateMutability": "view",
      "type": "function"
    },
    {
      "inputs": [
        {
          "internalType": "uint256",
          "name": "_id",
          "type": "uint256"
        }
      ],
      "name": "totalSupply",
      "outputs": [
        {
          "internalType": "uint256",
          "name": "",
          "type": "uint256"
        }
      ],
      "stateMutability": "view",
      "type": "function"
    },
    {
      "inputs": [
        {
          "internalType": "address",
          "name": "newOwner",
          "type": "address"
        }
      ],
      "name": "transferOwnership",
      "outputs": [],
      "stateMutability": "nonpayable",
      "type": "function"
    },
    {
      "inputs": [
        {
          "internalType": "uint256",
          "name": "_id",
          "type": "uint256"
        }
      ],
      "name": "uri",
      "outputs": [
        {
          "internalType": "string",
          "name": "",
          "type": "string"
        }
      ],
      "stateMutability": "view",
      "type": "function"
    }
  ],
  "bytecode": "0x608060405234801561001057600080fd5b50613974806100206000396000f3fe608060405234801561001057600080fd5b50600436106102525760003560e01c8063938e3d7b11610146578063d1c901a4116100c3578063e985e9c511610087578063e985e9c5146105c0578063edc115b3146105fc578063ef83deab1461060f578063f242432a1461062f578063f2fde38b14610642578063f7cc40521461065557600080fd5b8063d1c901a414610543578063d2a6b51a1461057f578063d64e83d714610592578063dfdf4264146105a5578063e8a3d485146105b857600080fd5b8063abfebaa41161010a578063abfebaa4146104c1578063b48ab8b6146104d4578063bd85b039146104e7578063c166e10e14610507578063cd53d08e1461051a57600080fd5b8063938e3d7b1461046d57806395d89b41146104805780639944f51814610488578063a22cb4651461049b578063a6487c53146104ae57600080fd5b80634e1273f4116101d4578063731133e911610198578063731133e9146103fc57806378c4acb81461040f5780637e518ec81461042257806386bbdcb3146104355780638da5cb5b1461044857600080fd5b80634e1273f41461034957806362214e1a1461036957806368a140771461037c5780636914db601461039f578063715018a6146103f457600080fd5b806322b6ccfe1161021b57806322b6ccfe146102db578063243f6b58146102f05780632693ebf2146103035780632eb2c2d61461032357806340bd2e231461033657600080fd5b8062fdd58e1461025757806301ffc9a71461027d57806306fdde03146102a05780630e89341c146102b55780631675f455146102c8575b600080fd5b61026a610265366004612924565b610668565b6040519081526020015b60405180910390f35b61029061028b366004612964565b610704565b6040519015158152602001610274565b6102a8610754565b60405161027491906129ce565b6102a86102c33660046129e1565b6107e2565b6102a86102d63660046129e1565b610884565b6102ee6102e93660046129fa565b61089d565b005b6102ee6102fe3660046129fa565b6108eb565b61026a6103113660046129e1565b60cb6020526000908152604090205481565b6102ee610331366004612b5e565b610936565b6102ee6103443660046129e1565b6109cd565b61035c610357366004612c07565b610d67565b6040516102749190612d0c565b61026a610377366004612d67565b610e90565b61026a61038a3660046129e1565b600090815260d3602052604090206001015490565b6103d46103ad3660046129e1565b60d36020526000908152604090208054600182015460028301546003909301549192909184565b604080519485526020850193909352918301526060820152608001610274565b6102ee61107a565b6102ee61040a366004612e04565b6110b0565b6102ee61041d366004612e64565b611126565b6102ee610430366004612ed8565b6111c7565b6102ee610443366004612f14565b6111fd565b60ce546001600160a01b03165b6040516001600160a01b039091168152602001610274565b6102ee61047b366004612ed8565b6112e2565b6102a8611323565b6102906104963660046129fa565b611330565b6102ee6104a9366004612f44565b611364565b6102ee6104bc366004612f7b565b61136f565b6102ee6104cf366004613002565b61143a565b6102ee6104e236600461303d565b6114bc565b61026a6104f53660046129e1565b600090815260cb602052604090205490565b61026a610515366004612924565b61164b565b6104556105283660046129e1565b60ca602052600090815260409020546001600160a01b031681565b61056a6105513660046129e1565b60d4602052600090815260409020805460019091015482565b60408051928352602083019190915201610274565b6102ee61058d3660046130c9565b61165e565b6102ee6105a0366004612e64565b611710565b6102ee6105b336600461310c565b6117ac565b6102a861186b565b6102906105ce366004613138565b6001600160a01b03918216600090815260986020908152604080832093909416825291909152205460ff1690565b6102ee61060a3660046129e1565b6118fd565b61026a61061d3660046129e1565b60d66020526000908152604090205481565b6102ee61063d36600461316b565b611c13565b6102ee6106503660046129fa565b611c9a565b6102ee6106633660046131cf565b611d32565b60006001600160a01b0383166106d95760405162461bcd60e51b815260206004820152602b60248201527f455243313135353a2062616c616e636520717565727920666f7220746865207a60448201526a65726f206164647265737360a81b60648201526084015b60405180910390fd5b5060008181526097602090815260408083206001600160a01b03861684529091529020545b92915050565b60006001600160e01b03198216636cdb3d1360e11b148061073557506001600160e01b031982166303a24d0760e21b145b806106fe57506301ffc9a760e01b6001600160e01b03198316146106fe565b60cf805461076190613211565b80601f016020809104026020016040519081016040528092919081815260200182805461078d90613211565b80156107da5780601f106107af576101008083540402835291602001916107da565b820191906000526020600020905b8154815290600101906020018083116107bd57829003601f168201915b505050505081565b600081815260cc602052604090208054606091906107ff90613211565b80601f016020809104026020016040519081016040528092919081815260200182805461082b90613211565b80156108785780601f1061084d57610100808354040283529160200191610878565b820191906000526020600020905b81548152906001019060200180831161085b57829003601f168201915b50505050509050919050565b60cc602052600090815260409020805461076190613211565b60d2546001600160a01b031633146108c75760405162461bcd60e51b81526004016106d09061324c565b6001600160a01b0316600090815260d160205260409020805460ff19166001179055565b60d2546001600160a01b031633146109155760405162461bcd60e51b81526004016106d09061324c565b6001600160a01b0316600090815260d160205260409020805460ff19169055565b6001600160a01b038516331480610952575061095285336105ce565b6109b95760405162461bcd60e51b815260206004820152603260248201527f455243313135353a207472616e736665722063616c6c6572206973206e6f74206044820152711bdddb995c881b9bdc88185c1c1c9bdd995960721b60648201526084016106d0565b6109c68585858585611d41565b5050505050565b33600090815260d1602052604090205460ff16610a1a5760405162461bcd60e51b815260206004820152600b60248201526a4e6f7420796574204b594360a81b60448201526064016106d0565b806000610a273383610668565b11610a445760405162461bcd60e51b81526004016106d09061328e565b60026001541415610a975760405162461bcd60e51b815260206004820152601f60248201527f5265656e7472616e637947756172643a207265656e7472616e742063616c6c0060448201526064016106d0565b60026001556000610aa83384610668565b600084815260d46020908152604080832081518083018352815481526001909101548184015287845260d58352818420338552909252909120549192509060ff16610b2a57600084815260d560209081526040808320338085529252909120805460016001600160a81b03199091166101009093029290921782178155018290555b600084815260d56020908152604080832033845282528083208151608081018352815460ff81161515825261010090046001600160a01b031693810193909352600181015491830182905260020154606083018190528451929392610b9892610b9291611ee0565b90611eec565b905060008111610bea5760405162461bcd60e51b815260206004820181905260248201527f524549544e46543a206e6f206d6f726520636c61696d61626c65207969656c6460448201526064016106d0565b600086815260d6602052604090205481811015610c555760405162461bcd60e51b815260206004820152602360248201527f524549544e46543a206e656564206d6f72652066756e642066726f6d206973736044820152623ab2b960e91b60648201526084016106d0565b600087815260d66020526040902054610c6e9083611eec565b600088815260d660205260409020556060830151610c8c9083611ef8565b600088815260d56020908152604080832033808552908352818420600201949094558a835260d79091529081902054905163a9059cbb60e01b81526004810192909252602482018490526001600160a01b031690819063a9059cbb90604401602060405180830381600087803b158015610d0557600080fd5b505af1158015610d19573d6000803e3d6000fd5b505050506040513d601f19601f82011682018060405250810190610d3d91906132de565b610d595760405162461bcd60e51b81526004016106d0906132fb565b505060018055505050505050565b60608151835114610dcc5760405162461bcd60e51b815260206004820152602960248201527f455243313135353a206163636f756e747320616e6420696473206c656e677468604482015268040dad2e6dac2e8c6d60bb1b60648201526084016106d0565b600083516001600160401b03811115610de757610de7612a15565b604051908082528060200260200182016040528015610e10578160200160208202803683370190505b50905060005b8451811015610e8857610e5b858281518110610e3457610e34613330565b6020026020010151858381518110610e4e57610e4e613330565b6020026020010151610668565b828281518110610e6d57610e6d613330565b6020908102919091010152610e818161335c565b9050610e16565b509392505050565b60ce546000906001600160a01b03163314610ebd5760405162461bcd60e51b81526004016106d090613377565b6000610ec7611f04565b9050610ed1611f1a565b600081815260ca6020526040902080546001600160a01b031916331790558515610f4a57807f6bb7ff708619ba0610cba295a58592e0451dee2622938c8755667688daf3529b8888604051610f279291906133ac565b60405180910390a2600081815260cc60205260409020610f48908888612800565b505b600081815260d76020908152604080832080546001600160a01b0319166001600160a01b038a1617905580516080810182528381528083018481528183018581526060830186815287875260d386528487209351845591516001848101919091559051600284015590516003909201919091558151808301835284815280840185815286865260d48552948390209051815593519301929092558151601f8601829004820281018201909252848252611023918b9184918c918990899081908401838280828437600092019190915250611f3192505050565b600081815260cb602052604090819020899055517f07eac9a0695a188fe9d6fd680bcbbbe39041fb114d5d7ac11252401391f79307906110669083815260200190565b60405180910390a198975050505050505050565b60ce546001600160a01b031633146110a45760405162461bcd60e51b81526004016106d090613377565b6110ae600061200d565b565b600083815260ca602052604090205483906001600160a01b031633146110e85760405162461bcd60e51b81526004016106d0906133db565b6110f485858585611f31565b600084815260cb602052604090205461110d9084611ef8565b600094855260cb60205260409094209390935550505050565b60d2546001600160a01b031633146111505760405162461bcd60e51b81526004016106d09061324c565b60005b818110156111c257600160d1600085858581811061117357611173613330565b905060200201602081019061118891906129fa565b6001600160a01b031681526020810191909152604001600020805460ff1916911515919091179055806111ba8161335c565b915050611153565b505050565b60ce546001600160a01b031633146111f15760405162461bcd60e51b81526004016106d090613377565b6111fa8161205f565b50565b600082815260d76020526040908190205490516323b872dd60e01b8152336004820152306024820152604481018390526001600160a01b039091169081906323b872dd90606401602060405180830381600087803b15801561125e57600080fd5b505af1158015611272573d6000803e3d6000fd5b505050506040513d601f19601f8201168201806040525081019061129691906132de565b6112b25760405162461bcd60e51b81526004016106d0906132fb565b600083815260d660205260409020546112cb9083611ef8565b600093845260d66020526040909320929092555050565b60ce546001600160a01b0316331461130c5760405162461bcd60e51b81526004016106d090613377565b805161131f9060cd906020840190612884565b5050565b60d0805461076190613211565b60006001600160a01b03821661134557600080fd5b506001600160a01b0316600090815260d1602052604090205460ff1690565b61131f338383612072565b600061137b6001612153565b90508015611393576000805461ff0019166101001790555b61139c826121e0565b6113a4612210565b6113ad3361200d565b83516113c09060cf906020870190612884565b5082516113d49060d0906020860190612884565b50600060c95581516113ed9060cd906020850190612884565b508015611434576000805461ff0019169055604051600181527f7f26b83ff96e1f2b6a682f133852f6798a09c465da95921460cefb38474024989060200160405180910390a15b50505050565b600085815260ca602052604090205485906001600160a01b031633146114725760405162461bcd60e51b81526004016106d0906133db565b5060408051608081018252948552602080860194855285820193845260608601928352600096875260d3905290942092518355905160018301555160028201559051600390910155565b81518351146115265760405162461bcd60e51b815260206004820152603060248201527f455243313135354d696e744275726e2362617463684d696e743a20494e56414c60448201526f09288be82a4a482b2a6be988a9c8ea8960831b60648201526084016106d0565b60005b835181101561163e57600084828151811061154657611546613330565b602090810291909101810151600081815260ca9092526040909120549091506001600160a01b031633146115d45760405162461bcd60e51b815260206004820152602f60248201527f455243313135355472616461626c652362617463684d696e743a204f4e4c595f60448201526e10d491505513d497d0531313d5d151608a1b60648201526084016106d0565b60008483815181106115e8576115e8613330565b602002602001015190506116188160cb600085815260200190815260200160002054611ef890919063ffffffff16565b600092835260cb60205260409092209190915550806116368161335c565b915050611529565b506114348484848461223f565b60006116578383610668565b9392505050565b6001600160a01b0382166116c95760405162461bcd60e51b815260206004820152602c60248201527f455243313135355472616461626c652373657443726561746f723a20494e564160448201526b2624a22fa0a2222922a9a99760a11b60648201526084016106d0565b60005b81518110156111c25760008282815181106116e9576116e9613330565b602002602001015190506116fd848261238b565b50806117088161335c565b9150506116cc565b60d2546001600160a01b0316331461173a5760405162461bcd60e51b81526004016106d09061324c565b60005b818110156111c257600060d1600085858581811061175d5761175d613330565b905060200201602081019061177291906129fa565b6001600160a01b031681526020810191909152604001600020805460ff1916911515919091179055806117a48161335c565b91505061173d565b600083815260ca602052604090205483906001600160a01b031633146117e45760405162461bcd60e51b81526004016106d0906133db565b600084815260cb6020526040812054906117fe8286611ee0565b600087815260d660205260409020549091508082111561183a5760405162461bcd60e51b815260206004820152600060248201526044016106d0565b50506040805180820182529485526020808601948552600096875260d4905290942092518355505160019091015550565b606060cd805461187a90613211565b80601f01602080910402602001604051908101604052809291908181526020018280546118a690613211565b80156118f35780601f106118c8576101008083540402835291602001916118f3565b820191906000526020600020905b8154815290600101906020018083116118d657829003601f168201915b5050505050905090565b33600090815260d1602052604090205460ff1661194a5760405162461bcd60e51b815260206004820152600b60248201526a4e6f7420796574204b594360a81b60448201526064016106d0565b8060006119573383610668565b116119745760405162461bcd60e51b81526004016106d09061328e565b600082815260d36020908152604080832081516080808201845282548252600180840154838701526002808501548487015260039094015460608085019190915289885260d5875285882033808a5290885286892087519485018852805460ff81161515865261010090046001600160a01b031698850198909852918701549583019590955294909201549282019290925290929091611a149086610668565b90506000611a2f836040015183611eec90919063ffffffff16565b905060008111611a815760405162461bcd60e51b815260206004820152601960248201527f524549544e46543a20416c72656164792061666669726d65640000000000000060448201526064016106d0565b600086815260d76020908152604080832054815163313ce56760e01b815291516001600160a01b039091169392611b4592859263313ce56792600480840193919291829003018186803b158015611ad757600080fd5b505afa158015611aeb573d6000803e3d6000fd5b505050506040513d601f19601f82011682018060405250810190611b0f919061342c565b611b1a90600a613533565b611b3f8860600151611b398a6020015188611ee090919063ffffffff16565b90611ee0565b906123f2565b6040516323b872dd60e01b8152336004820152306024820152604481018290529091506001600160a01b038316906323b872dd90606401602060405180830381600087803b158015611b9657600080fd5b505af1158015611baa573d6000803e3d6000fd5b505050506040513d601f19601f82011682018060405250810190611bce91906132de565b611bea5760405162461bcd60e51b81526004016106d0906132fb565b505050600094855260d56020908152604080872033885290915290942060010193909355505050565b6001600160a01b038516331480611c2f5750611c2f85336105ce565b611c8d5760405162461bcd60e51b815260206004820152602960248201527f455243313135353a2063616c6c6572206973206e6f74206f776e6572206e6f7260448201526808185c1c1c9bdd995960ba1b60648201526084016106d0565b6109c685858585856123fe565b60ce546001600160a01b03163314611cc45760405162461bcd60e51b81526004016106d090613377565b6001600160a01b038116611d295760405162461bcd60e51b815260206004820152602660248201527f4f776e61626c653a206e6577206f776e657220697320746865207a65726f206160448201526564647265737360d01b60648201526084016106d0565b6111fa8161200d565b60606109c68585858585611c13565b8151835114611d625760405162461bcd60e51b81526004016106d090613542565b6001600160a01b038416611d885760405162461bcd60e51b81526004016106d09061358a565b3360005b8451811015611e72576000858281518110611da957611da9613330565b602002602001015190506000858381518110611dc757611dc7613330565b60209081029190910181015160008481526097835260408082206001600160a01b038e168352909352919091205490915081811015611e185760405162461bcd60e51b81526004016106d0906135cf565b60008381526097602090815260408083206001600160a01b038e8116855292528083208585039055908b16825281208054849290611e57908490613619565b9250508190555050505080611e6b9061335c565b9050611d8c565b50846001600160a01b0316866001600160a01b0316826001600160a01b03167f4a39dc06d4c0dbc64b70af90fd698a233a518aa5d07e595d983b8c0526c8f7fb8787604051611ec2929190613631565b60405180910390a4611ed881878787878761252c565b505050505050565b6000611657828461365f565b6000611657828461367e565b60006116578284613619565b60c954600090611f15906001611ef8565b905090565b60c98054906000611f2a8361335c565b9190505550565b6001600160a01b038416611f575760405162461bcd60e51b81526004016106d090613695565b336000611f6385612697565b90506000611f7085612697565b905060008681526097602090815260408083206001600160a01b038b16845290915281208054879290611fa4908490613619565b909155505060408051878152602081018790526001600160a01b03808a1692600092918716917fc3d58168c5ae7397731d063d5bbf3d657854427343f4c083240f7aacaa2d0f62910160405180910390a4612004836000898989896126e2565b50505050505050565b60ce80546001600160a01b038381166001600160a01b0319831681179093556040519116919082907f8be0079c531659141344cd1fd0a4f28419497f9722a3daafe3b4186f6b6457e090600090a35050565b805161131f906099906020840190612884565b816001600160a01b0316836001600160a01b031614156120e65760405162461bcd60e51b815260206004820152602960248201527f455243313135353a2073657474696e6720617070726f76616c20737461747573604482015268103337b91039b2b63360b91b60648201526084016106d0565b6001600160a01b03838116600081815260986020908152604080832094871680845294825291829020805460ff191686151590811790915591519182527f17307eab39ab6107e8899845ad3d59bd9653f200f220920489ca2b5937696c31910160405180910390a3505050565b60008054610100900460ff161561219a578160ff1660011480156121765750303b155b6121925760405162461bcd60e51b81526004016106d0906136d6565b506000919050565b60005460ff8084169116106121c15760405162461bcd60e51b81526004016106d0906136d6565b506000805460ff191660ff92909216919091179055600190565b919050565b600054610100900460ff166122075760405162461bcd60e51b81526004016106d090613724565b6111fa816127ac565b600054610100900460ff166122375760405162461bcd60e51b81526004016106d090613724565b6110ae6127d3565b6001600160a01b0384166122655760405162461bcd60e51b81526004016106d090613695565b81518351146122865760405162461bcd60e51b81526004016106d090613542565b3360005b8451811015612323578381815181106122a5576122a5613330565b6020026020010151609760008784815181106122c3576122c3613330565b602002602001015181526020019081526020016000206000886001600160a01b03166001600160a01b03168152602001908152602001600020600082825461230b9190613619565b9091555081905061231b8161335c565b91505061228a565b50846001600160a01b031660006001600160a01b0316826001600160a01b03167f4a39dc06d4c0dbc64b70af90fd698a233a518aa5d07e595d983b8c0526c8f7fb8787604051612374929190613631565b60405180910390a46109c68160008787878761252c565b600081815260ca602052604090205481906001600160a01b031633146123c35760405162461bcd60e51b81526004016106d0906133db565b50600090815260ca6020526040902080546001600160a01b0319166001600160a01b0392909216919091179055565b6000611657828461376f565b6001600160a01b0384166124245760405162461bcd60e51b81526004016106d09061358a565b33600061243085612697565b9050600061243d85612697565b905060008681526097602090815260408083206001600160a01b038c168452909152902054858110156124825760405162461bcd60e51b81526004016106d0906135cf565b60008781526097602090815260408083206001600160a01b038d8116855292528083208985039055908a168252812080548892906124c1908490613619565b909155505060408051888152602081018890526001600160a01b03808b16928c821692918816917fc3d58168c5ae7397731d063d5bbf3d657854427343f4c083240f7aacaa2d0f62910160405180910390a4612521848a8a8a8a8a6126e2565b505050505050505050565b6001600160a01b0384163b15611ed85760405163bc197c8160e01b81526001600160a01b0385169063bc197c81906125709089908990889088908890600401613791565b602060405180830381600087803b15801561258a57600080fd5b505af19250505080156125ba575060408051601f3d908101601f191682019092526125b7918101906137ef565b60015b612667576125c661380c565b806308c379a0141561260057506125db613828565b806125e65750612602565b8060405162461bcd60e51b81526004016106d091906129ce565b505b60405162461bcd60e51b815260206004820152603460248201527f455243313135353a207472616e7366657220746f206e6f6e20455243313135356044820152732932b1b2b4bb32b91034b6b83632b6b2b73a32b960611b60648201526084016106d0565b6001600160e01b0319811663bc197c8160e01b146120045760405162461bcd60e51b81526004016106d0906138b1565b604080516001808252818301909252606091600091906020808301908036833701905050905082816000815181106126d1576126d1613330565b602090810291909101015292915050565b6001600160a01b0384163b15611ed85760405163f23a6e6160e01b81526001600160a01b0385169063f23a6e619061272690899089908890889088906004016138f9565b602060405180830381600087803b15801561274057600080fd5b505af1925050508015612770575060408051601f3d908101601f1916820190925261276d918101906137ef565b60015b61277c576125c661380c565b6001600160e01b0319811663f23a6e6160e01b146120045760405162461bcd60e51b81526004016106d0906138b1565b600054610100900460ff166111f15760405162461bcd60e51b81526004016106d090613724565b600054610100900460ff166127fa5760405162461bcd60e51b81526004016106d090613724565b60018055565b82805461280c90613211565b90600052602060002090601f01602090048101928261282e5760008555612874565b82601f106128475782800160ff19823516178555612874565b82800160010185558215612874579182015b82811115612874578235825591602001919060010190612859565b506128809291506128f8565b5090565b82805461289090613211565b90600052602060002090601f0160209004810192826128b25760008555612874565b82601f106128cb57805160ff1916838001178555612874565b82800160010185558215612874579182015b828111156128745782518255916020019190600101906128dd565b5b8082111561288057600081556001016128f9565b80356001600160a01b03811681146121db57600080fd5b6000806040838503121561293757600080fd5b6129408361290d565b946020939093013593505050565b6001600160e01b0319811681146111fa57600080fd5b60006020828403121561297657600080fd5b81356116578161294e565b6000815180845260005b818110156129a75760208185018101518683018201520161298b565b818111156129b9576000602083870101525b50601f01601f19169290920160200192915050565b6020815260006116576020830184612981565b6000602082840312156129f357600080fd5b5035919050565b600060208284031215612a0c57600080fd5b6116578261290d565b634e487b7160e01b600052604160045260246000fd5b601f8201601f191681016001600160401b0381118282101715612a5057612a50612a15565b6040525050565b60006001600160401b03821115612a7057612a70612a15565b5060051b60200190565b600082601f830112612a8b57600080fd5b81356020612a9882612a57565b604051612aa58282612a2b565b83815260059390931b8501820192828101915086841115612ac557600080fd5b8286015b84811015612ae05780358352918301918301612ac9565b509695505050505050565b600082601f830112612afc57600080fd5b81356001600160401b03811115612b1557612b15612a15565b604051612b2c601f8301601f191660200182612a2b565b818152846020838601011115612b4157600080fd5b816020850160208301376000918101602001919091529392505050565b600080600080600060a08688031215612b7657600080fd5b612b7f8661290d565b9450612b8d6020870161290d565b935060408601356001600160401b0380821115612ba957600080fd5b612bb589838a01612a7a565b94506060880135915080821115612bcb57600080fd5b612bd789838a01612a7a565b93506080880135915080821115612bed57600080fd5b50612bfa88828901612aeb565b9150509295509295909350565b60008060408385031215612c1a57600080fd5b82356001600160401b0380821115612c3157600080fd5b818501915085601f830112612c4557600080fd5b81356020612c5282612a57565b604051612c5f8282612a2b565b83815260059390931b8501820192828101915089841115612c7f57600080fd5b948201945b83861015612ca457612c958661290d565b82529482019490820190612c84565b96505086013592505080821115612cba57600080fd5b50612cc785828601612a7a565b9150509250929050565b600081518084526020808501945080840160005b83811015612d0157815187529582019590820190600101612ce5565b509495945050505050565b6020815260006116576020830184612cd1565b60008083601f840112612d3157600080fd5b5081356001600160401b03811115612d4857600080fd5b602083019150836020828501011115612d6057600080fd5b9250929050565b600080600080600080600060a0888a031215612d8257600080fd5b612d8b8861290d565b96506020880135955060408801356001600160401b0380821115612dae57600080fd5b612dba8b838c01612d1f565b9097509550859150612dce60608b0161290d565b945060808a0135915080821115612de457600080fd5b50612df18a828b01612d1f565b989b979a50959850939692959293505050565b60008060008060808587031215612e1a57600080fd5b612e238561290d565b9350602085013592506040850135915060608501356001600160401b03811115612e4c57600080fd5b612e5887828801612aeb565b91505092959194509250565b60008060208385031215612e7757600080fd5b82356001600160401b0380821115612e8e57600080fd5b818501915085601f830112612ea257600080fd5b813581811115612eb157600080fd5b8660208260051b8501011115612ec657600080fd5b60209290920196919550909350505050565b600060208284031215612eea57600080fd5b81356001600160401b03811115612f0057600080fd5b612f0c84828501612aeb565b949350505050565b60008060408385031215612f2757600080fd5b50508035926020909101359150565b80151581146111fa57600080fd5b60008060408385031215612f5757600080fd5b612f608361290d565b91506020830135612f7081612f36565b809150509250929050565b600080600060608486031215612f9057600080fd5b83356001600160401b0380821115612fa757600080fd5b612fb387838801612aeb565b94506020860135915080821115612fc957600080fd5b612fd587838801612aeb565b93506040860135915080821115612feb57600080fd5b50612ff886828701612aeb565b9150509250925092565b600080600080600060a0868803121561301a57600080fd5b505083359560208501359550604085013594606081013594506080013592509050565b6000806000806080858703121561305357600080fd5b61305c8561290d565b935060208501356001600160401b038082111561307857600080fd5b61308488838901612a7a565b9450604087013591508082111561309a57600080fd5b6130a688838901612a7a565b935060608701359150808211156130bc57600080fd5b50612e5887828801612aeb565b600080604083850312156130dc57600080fd5b6130e58361290d565b915060208301356001600160401b0381111561310057600080fd5b612cc785828601612a7a565b60008060006060848603121561312157600080fd5b505081359360208301359350604090920135919050565b6000806040838503121561314b57600080fd5b6131548361290d565b91506131626020840161290d565b90509250929050565b600080600080600060a0868803121561318357600080fd5b61318c8661290d565b945061319a6020870161290d565b9350604086013592506060860135915060808601356001600160401b038111156131c357600080fd5b612bfa88828901612aeb565b600080600080608085870312156131e557600080fd5b6131ee8561290d565b93506131fc6020860161290d565b93969395505050506040820135916060013590565b600181811c9082168061322557607f821691505b6020821081141561324657634e487b7160e01b600052602260045260246000fd5b50919050565b60208082526022908201527f4b59434163636573733a2063616c6c6572206973206e6f74207468652061646d60408201526134b760f11b606082015260800190565b60208082526030908201527f455243313135355472616461626c6523686f6c646572734f6e6c793a204f4e4c60408201526f1657d3d5d3915494d7d0531313d5d15160821b606082015260800190565b6000602082840312156132f057600080fd5b815161165781612f36565b6020808252818101527f524549544e46543a20436f756c64206e6f74207472616e736665722066756e64604082015260600190565b634e487b7160e01b600052603260045260246000fd5b634e487b7160e01b600052601160045260246000fd5b600060001982141561337057613370613346565b5060010190565b6020808252818101527f4f776e61626c653a2063616c6c6572206973206e6f7420746865206f776e6572604082015260600190565b60208152816020820152818360408301376000818301604090810191909152601f909201601f19160101919050565b60208082526031908201527f455243313135355472616461626c652363726561746f724f6e6c793a204f4e4c6040820152701657d0d491505513d497d0531313d5d151607a1b606082015260800190565b60006020828403121561343e57600080fd5b815160ff8116811461165757600080fd5b600181815b8085111561348a57816000190482111561347057613470613346565b8085161561347d57918102915b93841c9390800290613454565b509250929050565b6000826134a1575060016106fe565b816134ae575060006106fe565b81600181146134c457600281146134ce576134ea565b60019150506106fe565b60ff8411156134df576134df613346565b50506001821b6106fe565b5060208310610133831016604e8410600b841016171561350d575081810a6106fe565b613517838361344f565b806000190482111561352b5761352b613346565b029392505050565b600061165760ff841683613492565b60208082526028908201527f455243313135353a2069647320616e6420616d6f756e7473206c656e677468206040820152670dad2e6dac2e8c6d60c31b606082015260800190565b60208082526025908201527f455243313135353a207472616e7366657220746f20746865207a65726f206164604082015264647265737360d81b606082015260800190565b6020808252602a908201527f455243313135353a20696e73756666696369656e742062616c616e636520666f60408201526939103a3930b739b332b960b11b606082015260800190565b6000821982111561362c5761362c613346565b500190565b6040815260006136446040830185612cd1565b82810360208401526136568185612cd1565b95945050505050565b600081600019048311821515161561367957613679613346565b500290565b60008282101561369057613690613346565b500390565b60208082526021908201527f455243313135353a206d696e7420746f20746865207a65726f206164647265736040820152607360f81b606082015260800190565b6020808252602e908201527f496e697469616c697a61626c653a20636f6e747261637420697320616c72656160408201526d191e481a5b9a5d1a585b1a5e995960921b606082015260800190565b6020808252602b908201527f496e697469616c697a61626c653a20636f6e7472616374206973206e6f74206960408201526a6e697469616c697a696e6760a81b606082015260800190565b60008261378c57634e487b7160e01b600052601260045260246000fd5b500490565b6001600160a01b0386811682528516602082015260a0604082018190526000906137bd90830186612cd1565b82810360608401526137cf8186612cd1565b905082810360808401526137e38185612981565b98975050505050505050565b60006020828403121561380157600080fd5b81516116578161294e565b600060033d11156138255760046000803e5060005160e01c5b90565b600060443d10156138365790565b6040516003193d81016004833e81513d6001600160401b03816024840111818411171561386557505050505090565b828501915081518181111561387d5750505050505090565b843d87010160208285010111156138975750505050505090565b6138a660208286010187612a2b565b509095945050505050565b60208082526028908201527f455243313135353a204552433131353552656365697665722072656a656374656040820152676420746f6b656e7360c01b606082015260800190565b6001600160a01b03868116825285166020820152604081018490526060810183905260a06080820181905260009061393390830184612981565b97965050505050505056fea2646970667358221220f448ed674e3ac5bbdebdb7befcdb4067f7f6f7810b8aa7ad80e62a792950dafd64736f6c63430008090033",
  "linkReferences": {},
  "deployedLinkReferences": {}
}