{
  "_format": "hh-sol-artifact-1",
  "contractName": "REITNFT",
  "sourceName": "contracts/REITNFT.sol",
  "abi": [
    {
      "anonymous": false,
      "inputs": [
        {
          "indexed": true,
          "internalType": "address",
          "name": "account",
          "type": "address"
        },
        {
          "indexed": true,
          "internalType": "address",
          "name": "operator",
          "type": "address"
        },
        {
          "indexed": false,
          "internalType": "bool",
          "name": "approved",
          "type": "bool"
        }
      ],
      "name": "ApprovalForAll",
      "type": "event"
    },
    {
      "anonymous": false,
      "inputs": [
        {
          "indexed": false,
          "internalType": "uint256",
          "name": "id",
          "type": "uint256"
        }
      ],
      "name": "Create",
      "type": "event"
    },
    {
      "anonymous": false,
      "inputs": [
        {
          "indexed": true,
          "internalType": "address",
          "name": "previousGovernor",
          "type": "address"
        },
        {
          "indexed": true,
          "internalType": "address",
          "name": "newGovernor",
          "type": "address"
        }
      ],
      "name": "GovernorshipTransferred",
      "type": "event"
    },
    {
      "anonymous": false,
      "inputs": [
        {
          "indexed": false,
          "internalType": "uint8",
          "name": "version",
          "type": "uint8"
        }
      ],
      "name": "Initialized",
      "type": "event"
    },
    {
      "anonymous": false,
      "inputs": [
        {
          "indexed": true,
          "internalType": "address",
          "name": "operator",
          "type": "address"
        },
        {
          "indexed": true,
          "internalType": "address",
          "name": "from",
          "type": "address"
        },
        {
          "indexed": true,
          "internalType": "address",
          "name": "to",
          "type": "address"
        },
        {
          "indexed": false,
          "internalType": "uint256[]",
          "name": "ids",
          "type": "uint256[]"
        },
        {
          "indexed": false,
          "internalType": "uint256[]",
          "name": "values",
          "type": "uint256[]"
        }
      ],
      "name": "TransferBatch",
      "type": "event"
    },
    {
      "anonymous": false,
      "inputs": [
        {
          "indexed": true,
          "internalType": "address",
          "name": "operator",
          "type": "address"
        },
        {
          "indexed": true,
          "internalType": "address",
          "name": "from",
          "type": "address"
        },
        {
          "indexed": true,
          "internalType": "address",
          "name": "to",
          "type": "address"
        },
        {
          "indexed": false,
          "internalType": "uint256",
          "name": "id",
          "type": "uint256"
        },
        {
          "indexed": false,
          "internalType": "uint256",
          "name": "value",
          "type": "uint256"
        }
      ],
      "name": "TransferSingle",
      "type": "event"
    },
    {
      "anonymous": false,
      "inputs": [
        {
          "indexed": false,
          "internalType": "string",
          "name": "value",
          "type": "string"
        },
        {
          "indexed": true,
          "internalType": "uint256",
          "name": "id",
          "type": "uint256"
        }
      ],
      "name": "URI",
      "type": "event"
    },
    {
      "inputs": [
        {
          "internalType": "address[]",
          "name": "accounts",
          "type": "address[]"
        }
      ],
      "name": "addManyToKYC",
      "outputs": [],
      "stateMutability": "nonpayable",
      "type": "function"
    },
    {
      "inputs": [
        {
          "internalType": "address",
          "name": "account",
          "type": "address"
        }
      ],
      "name": "addToKYC",
      "outputs": [],
      "stateMutability": "nonpayable",
      "type": "function"
    },
    {
      "inputs": [
        {
          "internalType": "address",
          "name": "account",
          "type": "address"
        },
        {
          "internalType": "uint256",
          "name": "id",
          "type": "uint256"
        }
      ],
      "name": "balanceOf",
      "outputs": [
        {
          "internalType": "uint256",
          "name": "",
          "type": "uint256"
        }
      ],
      "stateMutability": "view",
      "type": "function"
    },
    {
      "inputs": [
        {
          "internalType": "address[]",
          "name": "accounts",
          "type": "address[]"
        },
        {
          "internalType": "uint256[]",
          "name": "ids",
          "type": "uint256[]"
        }
      ],
      "name": "balanceOfBatch",
      "outputs": [
        {
          "internalType": "uint256[]",
          "name": "",
          "type": "uint256[]"
        }
      ],
      "stateMutability": "view",
      "type": "function"
    },
    {
      "inputs": [
        {
          "internalType": "address",
          "name": "_to",
          "type": "address"
        },
        {
          "internalType": "uint256[]",
          "name": "_ids",
          "type": "uint256[]"
        },
        {
          "internalType": "uint256[]",
          "name": "_quantities",
          "type": "uint256[]"
        },
        {
          "internalType": "bytes",
          "name": "_data",
          "type": "bytes"
        }
      ],
      "name": "batchMint",
      "outputs": [],
      "stateMutability": "nonpayable",
      "type": "function"
    },
    {
      "inputs": [
        {
          "internalType": "uint256",
          "name": "_id",
          "type": "uint256"
        }
      ],
      "name": "claimBenefit",
      "outputs": [],
      "stateMutability": "nonpayable",
      "type": "function"
    },
    {
      "inputs": [],
      "name": "contractURI",
      "outputs": [
        {
          "internalType": "string",
          "name": "",
          "type": "string"
        }
      ],
      "stateMutability": "view",
      "type": "function"
    },
    {
      "inputs": [
        {
          "internalType": "address",
          "name": "_initialOwner",
          "type": "address"
        },
        {
          "internalType": "uint256",
          "name": "_initialSupply",
          "type": "uint256"
        },
        {
          "internalType": "string",
          "name": "_uri",
          "type": "string"
        },
        {
          "internalType": "address",
          "name": "_fundingToken",
          "type": "address"
        },
        {
          "internalType": "bytes",
          "name": "_data",
          "type": "bytes"
        }
      ],
      "name": "createREIT",
      "outputs": [
        {
          "internalType": "uint256",
          "name": "",
          "type": "uint256"
        }
      ],
      "stateMutability": "nonpayable",
      "type": "function"
    },
    {
      "inputs": [
        {
          "internalType": "uint256",
          "name": "",
          "type": "uint256"
        }
      ],
      "name": "creators",
      "outputs": [
        {
          "internalType": "address",
          "name": "",
          "type": "address"
        }
      ],
      "stateMutability": "view",
      "type": "function"
    },
    {
      "inputs": [
        {
          "internalType": "uint256",
          "name": "",
          "type": "uint256"
        }
      ],
      "name": "dividendFunds",
      "outputs": [
        {
          "internalType": "uint256",
          "name": "",
          "type": "uint256"
        }
      ],
      "stateMutability": "view",
      "type": "function"
    },
    {
      "inputs": [
        {
          "internalType": "uint256",
          "name": "_id",
          "type": "uint256"
        }
      ],
      "name": "getIPOContract",
      "outputs": [
        {
          "internalType": "address",
          "name": "",
          "type": "address"
        }
      ],
      "stateMutability": "view",
      "type": "function"
    },
    {
      "inputs": [
        {
          "internalType": "uint256",
          "name": "_id",
          "type": "uint256"
        }
      ],
      "name": "getShareUnitPrice",
      "outputs": [
        {
          "internalType": "uint256",
          "name": "",
          "type": "uint256"
        }
      ],
      "stateMutability": "view",
      "type": "function"
    },
    {
      "inputs": [
        {
          "internalType": "uint256",
          "name": "_id",
          "type": "uint256"
        }
      ],
      "name": "getTotalBenefit",
      "outputs": [
        {
          "internalType": "uint256",
          "name": "",
          "type": "uint256"
        }
      ],
      "stateMutability": "view",
      "type": "function"
    },
    {
      "inputs": [],
      "name": "governor",
      "outputs": [
        {
          "internalType": "address",
          "name": "",
          "type": "address"
        }
      ],
      "stateMutability": "view",
      "type": "function"
    },
    {
      "inputs": [
        {
          "internalType": "string",
          "name": "_name",
          "type": "string"
        },
        {
          "internalType": "string",
          "name": "_symbol",
          "type": "string"
        },
        {
          "internalType": "string",
          "name": "_uri",
          "type": "string"
        }
      ],
      "name": "initialize",
      "outputs": [],
      "stateMutability": "nonpayable",
      "type": "function"
    },
    {
      "inputs": [
        {
          "internalType": "uint256",
          "name": "_id",
          "type": "uint256"
        },
        {
          "internalType": "uint256",
          "name": "ipoTime",
          "type": "uint256"
        },
        {
          "internalType": "uint256",
          "name": "ipoUnitPrice",
          "type": "uint256"
        },
        {
          "internalType": "uint256",
          "name": "liquidationTime",
          "type": "uint256"
        },
        {
          "internalType": "uint256",
          "name": "registerationTaxRate",
          "type": "uint256"
        }
      ],
      "name": "initiate",
      "outputs": [],
      "stateMutability": "nonpayable",
      "type": "function"
    },
    {
      "inputs": [
        {
          "internalType": "address",
          "name": "account",
          "type": "address"
        },
        {
          "internalType": "address",
          "name": "operator",
          "type": "address"
        }
      ],
      "name": "isApprovedForAll",
      "outputs": [
        {
          "internalType": "bool",
          "name": "",
          "type": "bool"
        }
      ],
      "stateMutability": "view",
      "type": "function"
    },
    {
      "inputs": [
        {
          "internalType": "uint256",
          "name": "_id",
          "type": "uint256"
        },
        {
          "internalType": "address",
          "name": "account",
          "type": "address"
        }
      ],
      "name": "isIPOContract",
      "outputs": [
        {
          "internalType": "bool",
          "name": "",
          "type": "bool"
        }
      ],
      "stateMutability": "view",
      "type": "function"
    },
    {
      "inputs": [
        {
          "internalType": "address",
          "name": "account",
          "type": "address"
        }
      ],
      "name": "isKYC",
      "outputs": [
        {
          "internalType": "bool",
          "name": "",
          "type": "bool"
        }
      ],
      "stateMutability": "view",
      "type": "function"
    },
    {
      "inputs": [
        {
          "internalType": "address",
          "name": "_to",
          "type": "address"
        },
        {
          "internalType": "uint256",
          "name": "_id",
          "type": "uint256"
        },
        {
          "internalType": "uint256",
          "name": "_quantity",
          "type": "uint256"
        },
        {
          "internalType": "bytes",
          "name": "_data",
          "type": "bytes"
        }
      ],
      "name": "mint",
      "outputs": [],
      "stateMutability": "nonpayable",
      "type": "function"
    },
    {
      "inputs": [],
      "name": "name",
      "outputs": [
        {
          "internalType": "string",
          "name": "",
          "type": "string"
        }
      ],
      "stateMutability": "view",
      "type": "function"
    },
    {
      "inputs": [
        {
          "internalType": "uint256",
          "name": "_id",
          "type": "uint256"
        },
        {
          "internalType": "uint256",
          "name": "amount",
          "type": "uint256"
        }
      ],
      "name": "payDividends",
      "outputs": [],
      "stateMutability": "nonpayable",
      "type": "function"
    },
    {
      "inputs": [
        {
          "internalType": "address",
          "name": "account",
          "type": "address"
        }
      ],
      "name": "removeKYC",
      "outputs": [],
      "stateMutability": "nonpayable",
      "type": "function"
    },
    {
      "inputs": [
        {
          "internalType": "address[]",
          "name": "accounts",
          "type": "address[]"
        }
      ],
      "name": "removeManyKYC",
      "outputs": [],
      "stateMutability": "nonpayable",
      "type": "function"
    },
    {
      "inputs": [],
      "name": "renounceGovernorship",
      "outputs": [],
      "stateMutability": "nonpayable",
      "type": "function"
    },
    {
      "inputs": [],
      "name": "revokeKYCAdmin",
      "outputs": [],
      "stateMutability": "nonpayable",
      "type": "function"
    },
    {
      "inputs": [
        {
          "internalType": "address",
          "name": "from",
          "type": "address"
        },
        {
          "internalType": "address",
          "name": "to",
          "type": "address"
        },
        {
          "internalType": "uint256[]",
          "name": "ids",
          "type": "uint256[]"
        },
        {
          "internalType": "uint256[]",
          "name": "amounts",
          "type": "uint256[]"
        },
        {
          "internalType": "bytes",
          "name": "data",
          "type": "bytes"
        }
      ],
      "name": "safeBatchTransferFrom",
      "outputs": [],
      "stateMutability": "nonpayable",
      "type": "function"
    },
    {
      "inputs": [
        {
          "internalType": "address",
          "name": "from",
          "type": "address"
        },
        {
          "internalType": "address",
          "name": "to",
          "type": "address"
        },
        {
          "internalType": "uint256",
          "name": "id",
          "type": "uint256"
        },
        {
          "internalType": "uint256",
          "name": "amount",
          "type": "uint256"
        },
        {
          "internalType": "bytes",
          "name": "data",
          "type": "bytes"
        }
      ],
      "name": "safeTransferFrom",
      "outputs": [],
      "stateMutability": "nonpayable",
      "type": "function"
    },
    {
      "inputs": [
        {
          "internalType": "address",
          "name": "operator",
          "type": "address"
        },
        {
          "internalType": "bool",
          "name": "approved",
          "type": "bool"
        }
      ],
      "name": "setApprovalForAll",
      "outputs": [],
      "stateMutability": "nonpayable",
      "type": "function"
    },
    {
      "inputs": [
        {
          "internalType": "string",
          "name": "_newBaseMetadataURI",
          "type": "string"
        }
      ],
      "name": "setBaseMetadataURI",
      "outputs": [],
      "stateMutability": "nonpayable",
      "type": "function"
    },
    {
      "inputs": [
        {
          "internalType": "string",
          "name": "_uri",
          "type": "string"
        }
      ],
      "name": "setContractURI",
      "outputs": [],
      "stateMutability": "nonpayable",
      "type": "function"
    },
    {
      "inputs": [
        {
          "internalType": "address",
          "name": "_to",
          "type": "address"
        },
        {
          "internalType": "uint256[]",
          "name": "_ids",
          "type": "uint256[]"
        }
      ],
      "name": "setCreator",
      "outputs": [],
      "stateMutability": "nonpayable",
      "type": "function"
    },
    {
      "inputs": [
        {
          "internalType": "uint256",
          "name": "_id",
          "type": "uint256"
        },
        {
          "internalType": "address",
          "name": "account",
          "type": "address"
        }
      ],
      "name": "setIPOContract",
      "outputs": [],
      "stateMutability": "nonpayable",
      "type": "function"
    },
    {
      "inputs": [
        {
          "internalType": "address",
          "name": "account",
          "type": "address"
        }
      ],
      "name": "setKYCAdmin",
      "outputs": [],
      "stateMutability": "nonpayable",
      "type": "function"
    },
    {
      "inputs": [
        {
          "internalType": "bytes4",
          "name": "interfaceId",
          "type": "bytes4"
        }
      ],
      "name": "supportsInterface",
      "outputs": [
        {
          "internalType": "bool",
          "name": "",
          "type": "bool"
        }
      ],
      "stateMutability": "view",
      "type": "function"
    },
    {
      "inputs": [],
      "name": "symbol",
      "outputs": [
        {
          "internalType": "string",
          "name": "",
          "type": "string"
        }
      ],
      "stateMutability": "view",
      "type": "function"
    },
    {
      "inputs": [
        {
          "internalType": "uint256",
          "name": "",
          "type": "uint256"
        }
      ],
      "name": "tokenMetadata",
      "outputs": [
        {
          "internalType": "uint256",
          "name": "ipoTime",
          "type": "uint256"
        },
        {
          "internalType": "uint256",
          "name": "ipoUnitPrice",
          "type": "uint256"
        },
        {
          "internalType": "uint256",
          "name": "liquidationTime",
          "type": "uint256"
        },
        {
          "internalType": "uint256",
          "name": "registerationTaxRate",
          "type": "uint256"
        }
      ],
      "stateMutability": "view",
      "type": "function"
    },
    {
      "inputs": [
        {
          "internalType": "uint256",
          "name": "",
          "type": "uint256"
        }
      ],
      "name": "tokenSupply",
      "outputs": [
        {
          "internalType": "uint256",
          "name": "",
          "type": "uint256"
        }
      ],
      "stateMutability": "view",
      "type": "function"
    },
    {
      "inputs": [
        {
          "internalType": "uint256",
          "name": "",
          "type": "uint256"
        }
      ],
      "name": "tokenUri",
      "outputs": [
        {
          "internalType": "string",
          "name": "",
          "type": "string"
        }
      ],
      "stateMutability": "view",
      "type": "function"
    },
    {
      "inputs": [
        {
          "internalType": "uint256",
          "name": "",
          "type": "uint256"
        }
      ],
      "name": "tokenYieldData",
      "outputs": [
        {
          "internalType": "uint256",
          "name": "liquidationExtension",
          "type": "uint256"
        }
      ],
      "stateMutability": "view",
      "type": "function"
    },
    {
      "inputs": [
        {
          "internalType": "uint256",
          "name": "_id",
          "type": "uint256"
        }
      ],
      "name": "totalSupply",
      "outputs": [
        {
          "internalType": "uint256",
          "name": "",
          "type": "uint256"
        }
      ],
      "stateMutability": "view",
      "type": "function"
    },
    {
      "inputs": [
        {
          "internalType": "address",
          "name": "newGovernor",
          "type": "address"
        }
      ],
      "name": "transferGovernorship",
      "outputs": [],
      "stateMutability": "nonpayable",
      "type": "function"
    },
    {
      "inputs": [
        {
          "internalType": "uint256",
          "name": "_id",
          "type": "uint256"
        },
        {
          "internalType": "uint256",
          "name": "dividend",
          "type": "uint256"
        }
      ],
      "name": "unlockDividends",
      "outputs": [],
      "stateMutability": "nonpayable",
      "type": "function"
    },
    {
      "inputs": [
        {
          "internalType": "uint256",
          "name": "_id",
          "type": "uint256"
        }
      ],
      "name": "uri",
      "outputs": [
        {
          "internalType": "string",
          "name": "",
          "type": "string"
        }
      ],
      "stateMutability": "view",
      "type": "function"
    }
  ],
  "bytecode": "0x608060405234801561001057600080fd5b50613f4f806100206000396000f3fe608060405234801561001057600080fd5b50600436106102735760003560e01c80639944f51811610151578063d1c901a4116100c3578063e8e0b2d011610087578063e8e0b2d014610610578063e985e9c514610623578063efe7744f1461065f578063f242432a14610680578063f6ee8fcc14610693578063f720a8c5146106a657600080fd5b8063d1c901a4146105ab578063d2a6b51a146105cf578063d64e83d7146105e2578063d98d9eaf146105f5578063e8a3d4851461060857600080fd5b8063b1fd691011610115578063b1fd691014610505578063b48ab8b614610529578063b6aa515b1461053c578063bb8973031461054f578063bd85b03914610562578063cd53d08e1461058257600080fd5b80639944f5181461048f5780639b166e2f146104a2578063a22cb465146104cc578063a6487c53146104df578063abfebaa4146104f257600080fd5b80634e1273f4116101ea578063731133e9116101ae578063731133e91461043357806378c4acb8146104465780637e518ec81461045957806381c0c2631461046c578063938e3d7b1461047457806395d89b411461048757600080fd5b80634e1273f41461038f57806358cc49a5146103af578063590a5ce0146103c257806359d1a4b1146103d55780636914db60146103dd57600080fd5b80631675f4551161023c5780631675f4551461030e57806322b6ccfe14610321578063243f6b58146103365780632693ebf2146103495780632eb2c2d614610369578063409f8c481461037c57600080fd5b8062fdd58e1461027857806301ffc9a71461029e57806306fdde03146102c15780630c340a24146102d65780630e89341c146102fb575b600080fd5b61028b610286366004613091565b6106b9565b6040519081526020015b60405180910390f35b6102b16102ac3660046130d1565b6106ce565b6040519015158152602001610295565b6102c961071e565b6040516102959190613142565b6097546001600160a01b03165b6040516001600160a01b039091168152602001610295565b6102c9610309366004613155565b6107ad565b6102c961031c366004613155565b61084f565b61033461032f36600461316e565b610868565b005b61033461034436600461316e565b6108c1565b61028b610357366004613155565b60fd6020526000908152604090205481565b6103346103773660046132c7565b61090e565b61033461038a36600461316e565b610b31565b6103a261039d366004613370565b610bbd565b6040516102959190613475565b6103346103bd366004613155565b610ce6565b6103346103d0366004613488565b611106565b61033461122a565b6104136103eb366004613155565b6101356020526000908152604090208054600182015460028301546003909301549192909184565b604080519485526020850193909352918301526060820152608001610295565b6103346104413660046134aa565b611260565b61033461045436600461350a565b6112d6565b61033461046736600461357e565b611379565b6103346113ac565b61033461048236600461357e565b6113e0565b6102c9611421565b6102b161049d36600461316e565b61142f565b6102e36104b0366004613155565b600090815261013a60205260409020546001600160a01b031690565b6103346104da3660046135c0565b611464565b6103346104ed3660046135f7565b61146f565b61033461050036600461367e565b6114f3565b61028b610513366004613155565b6000908152610135602052604090206001015490565b6103346105373660046136b9565b611576565b61033461054a36600461316e565b611705565b61028b61055d36600461378d565b6117a3565b61028b610570366004613155565b600090815260fd602052604090205490565b6102e3610590366004613155565b60fc602052600090815260409020546001600160a01b031681565b61028b6105b9366004613155565b6101366020526000908152604090206001015481565b6103346105dd36600461382a565b611997565b6103346105f036600461350a565b611ad1565b6102b161060336600461386d565b611b6f565b6102c9611b91565b61033461061e366004613488565b611c23565b6102b1610631366004613899565b6001600160a01b03918216600090815260666020908152604080832093909416825291909152205460ff1690565b61028b61066d366004613155565b6101386020526000908152604090205481565b61033461068e3660046138c3565b611c80565b6103346106a136600461386d565b611e37565b61028b6106b4366004613155565b611e9f565b60006106c58383611f3e565b90505b92915050565b60006001600160e01b03198216636cdb3d1360e11b14806106ff57506001600160e01b031982166303a24d0760e21b145b806106c857506301ffc9a760e01b6001600160e01b03198316146106c8565b610100805461072c90613927565b80601f016020809104026020016040519081016040528092919081815260200182805461075890613927565b80156107a55780601f1061077a576101008083540402835291602001916107a5565b820191906000526020600020905b81548152906001019060200180831161078857829003601f168201915b505050505081565b600081815260fe602052604090208054606091906107ca90613927565b80601f01602080910402602001604051908101604052809291908181526020018280546107f690613927565b80156108435780601f1061081857610100808354040283529160200191610843565b820191906000526020600020905b81548152906001019060200180831161082657829003601f168201915b50505050509050919050565b60fe602052600090815260409020805461072c90613927565b610103546001600160a01b0316331461089c5760405162461bcd60e51b81526004016108939061395c565b60405180910390fd5b6001600160a01b0316600090815261010260205260409020805460ff19166001179055565b610103546001600160a01b031633146108ec5760405162461bcd60e51b81526004016108939061395c565b6001600160a01b0316600090815261010260205260409020805460ff19169055565b6001600160a01b03851633148061092a575061092a8533610631565b6109915760405162461bcd60e51b815260206004820152603260248201527f455243313135353a207472616e736665722063616c6c6572206973206e6f74206044820152711bdddb995c881b9bdc88185c1c1c9bdd995960721b6064820152608401610893565b60005b8351811015610b1c5760008482815181106109b1576109b161399e565b6020026020010151905060008483815181106109cf576109cf61399e565b602002602001015190506109e38289611b6f565b1580156109f757506109f58288611b6f565b155b15610aff576000610a088383611fd2565b60008481526101396020526040908190205490516323b872dd60e01b81526001600160a01b038c811660048301523060248301526044820184905292935091169081906323b872dd90606401602060405180830381600087803b158015610a6e57600080fd5b505af1158015610a82573d6000803e3d6000fd5b505050506040513d601f19601f82011682018060405250810190610aa691906139b4565b610af25760405162461bcd60e51b815260206004820152601a60248201527f524549544e46543a20436f756c64206e6f7420706179207461780000000000006044820152606401610893565b610afc8a85612041565b50505b610b098783612041565b505080610b15906139e7565b9050610994565b50610b2a85858585856121a9565b5050505050565b6097546001600160a01b03163314610b5b5760405162461bcd60e51b815260040161089390613a02565b6001600160a01b038116610bb15760405162461bcd60e51b815260206004820181905260248201527f4b59432041646d696e2063616e6e6f74206265207a65726f20616464726573736044820152606401610893565b610bba81612348565b50565b60608151835114610c225760405162461bcd60e51b815260206004820152602960248201527f455243313135353a206163636f756e747320616e6420696473206c656e677468604482015268040dad2e6dac2e8c6d60bb1b6064820152608401610893565b600083516001600160401b03811115610c3d57610c3d613189565b604051908082528060200260200182016040528015610c66578160200160208202803683370190505b50905060005b8451811015610cde57610cb1858281518110610c8a57610c8a61399e565b6020026020010151858381518110610ca457610ca461399e565b60200260200101516106b9565b828281518110610cc357610cc361399e565b6020908102919091010152610cd7816139e7565b9050610c6c565b509392505050565b336000908152610102602052604090205460ff16610d345760405162461bcd60e51b815260206004820152600b60248201526a4e6f7420796574204b594360a81b6044820152606401610893565b806000610d42335b836106b9565b11610d5f5760405162461bcd60e51b815260040161089390613a48565b600260c9541415610db25760405162461bcd60e51b815260206004820152601f60248201527f5265656e7472616e637947756172643a207265656e7472616e742063616c6c006044820152606401610893565b600260c95560008281526101376020908152604080832033845290915290205460ff16610e18576000828152610137602090815260408083203380855292528220805460016101009093026001600160a81b031990911617821781556002810183905501555b600082815261013760209081526040808320338085529083528184208251608081018452815460ff81161515825261010090046001600160a01b03169481019490945260018101549284019290925260029091015460608301819052919291610e8c91610e86905b8761236b565b906124cb565b905060008111610ede5760405162461bcd60e51b815260206004820181905260248201527f524549544e46543a206e6f206d6f726520636c61696d61626c65207969656c646044820152606401610893565b6000848152610138602052604090205481811015610f4e5760405162461bcd60e51b815260206004820152602760248201527f524549544e46543a206e656564206d6f72652066756e64696e67732066726f6d6044820152661034b9b9bab2b960c91b6064820152608401610893565b600085815261013660209081526040808320815181546060948102820185018452928101838152909391928492849190840182828015610fad57602002820191906000526020600020905b815481526020019060010190808311610f99575b50505091835250506001919091015460209182015260008881526101389091526040902054909150610fdf90846124d7565b6000878152610138602090815260408083209390935561013781528282203380845290825283832060028101849055855151600190910155898352610139825283832054845163a9059cbb60e01b815260048101929092526024820188905293516001600160a01b0390941693849363a9059cbb93604480850194919392918390030190829087803b15801561107457600080fd5b505af1158015611088573d6000803e3d6000fd5b505050506040513d601f19601f820116820180604052508101906110ac91906139b4565b6110f85760405162461bcd60e51b815260206004820181905260248201527f524549544e46543a20436f756c64206e6f74207472616e736665722066756e646044820152606401610893565b5050600160c9555050505050565b600082815261013960205260409020546001600160a01b0316806323b872dd336040516001600160e01b031960e084901b1681526001600160a01b03909116600482015230602482015260448101859052606401602060405180830381600087803b15801561117457600080fd5b505af1158015611188573d6000803e3d6000fd5b505050506040513d601f19601f820116820180604052508101906111ac91906139b4565b6111f85760405162461bcd60e51b815260206004820181905260248201527f524549544e46543a20436f756c64206e6f74207472616e736665722066756e646044820152606401610893565b6000838152610138602052604090205461121290836124cb565b60009384526101386020526040909320929092555050565b6097546001600160a01b031633146112545760405162461bcd60e51b815260040161089390613a02565b61125e6000612348565b565b600083815260fc602052604090205483906001600160a01b031633146112985760405162461bcd60e51b815260040161089390613a9d565b6112a4858585856124e3565b600084815260fd60205260409020546112bd90846124cb565b600094855260fd60205260409094209390935550505050565b610103546001600160a01b031633146113015760405162461bcd60e51b81526004016108939061395c565b60005b8181101561137457600161010260008585858181106113255761132561399e565b905060200201602081019061133a919061316e565b6001600160a01b031681526020810191909152604001600020805460ff19169115159190911790558061136c816139e7565b915050611304565b505050565b6097546001600160a01b031633146113a35760405162461bcd60e51b815260040161089390613a02565b610bba816125bf565b6097546001600160a01b031633146113d65760405162461bcd60e51b815260040161089390613a02565b61125e60006125d2565b6097546001600160a01b0316331461140a5760405162461bcd60e51b815260040161089390613a02565b805161141d9060ff906020840190612f33565b5050565b610101805461072c90613927565b60006001600160a01b03821661144457600080fd5b506001600160a01b03166000908152610102602052604090205460ff1690565b61141d338383612624565b600061147b6001612705565b90508015611493576000805461ff0019166101001790555b61149e848484612792565b6114a6612854565b80156114ed576000805461ff0019169055604051600181527f7f26b83ff96e1f2b6a682f133852f6798a09c465da95921460cefb3847402498906020015b60405180910390a15b50505050565b600085815260fc602052604090205485906001600160a01b0316331461152b5760405162461bcd60e51b815260040161089390613a9d565b50604080516080810182529485526020808601948552858201938452606086019283526000968752610135905290942092518355905160018301555160028201559051600390910155565b81518351146115e05760405162461bcd60e51b815260206004820152603060248201527f455243313135354d696e744275726e2362617463684d696e743a20494e56414c60448201526f09288be82a4a482b2a6be988a9c8ea8960831b6064820152608401610893565b60005b83518110156116f85760008482815181106116005761160061399e565b602090810291909101810151600081815260fc9092526040909120549091506001600160a01b0316331461168e5760405162461bcd60e51b815260206004820152602f60248201527f455243313135355472616461626c652362617463684d696e743a204f4e4c595f60448201526e10d491505513d497d0531313d5d151608a1b6064820152608401610893565b60008483815181106116a2576116a261399e565b602002602001015190506116d28160fd6000858152602001908152602001600020546124cb90919063ffffffff16565b600092835260fd60205260409092209190915550806116f0816139e7565b9150506115e3565b506114ed84848484612883565b6097546001600160a01b0316331461172f5760405162461bcd60e51b815260040161089390613a02565b6001600160a01b03811661179a5760405162461bcd60e51b815260206004820152602c60248201527f476f7665726e61626c653a206e657720676f7665726e6f72206973207468652060448201526b7a65726f206164647265737360a01b6064820152608401610893565b610bba816125d2565b6097546000906001600160a01b031633146117d05760405162461bcd60e51b815260040161089390613a02565b60006117da6129cf565b90506117e46129e5565b6117ee89826129fc565b851561184957807f6bb7ff708619ba0610cba295a58592e0451dee2622938c8755667688daf3529b8888604051611826929190613aee565b60405180910390a2600081815260fe60205260409020611847908888612fb7565b505b60008181526101396020908152604080832080546001600160a01b0319166001600160a01b038a16179055805160808101825283815280830184815281830185815260608084018781528888526101358752858820945185559251600185015590516002840155905160039092019190915581518083018581529181018352908152808301849052848452610136835292208251805191926118f09284929091019061302b565b506020820151816001015590505061194089828a87878080601f0160208091040260200160405190810160405280939291908181526020018383808284376000920191909152506124e392505050565b600081815260fd602052604090819020899055517f07eac9a0695a188fe9d6fd680bcbbbe39041fb114d5d7ac11252401391f79307906119839083815260200190565b60405180910390a198975050505050505050565b6001600160a01b038216611a015760405162461bcd60e51b815260206004820152602b60248201527f455243313135355472616461626c652373657443726561746f723a20494e564160448201526a4c49445f4144445245535360a81b6064820152608401610893565b60005b8151811015611374576000828281518110611a2157611a2161399e565b60200260200101519050611a323390565b600082815260fc60205260409020546001600160a01b03908116911614611ab45760405162461bcd60e51b815260206004820152603060248201527f455243313135355472616461626c652373657443726561746f723a204f4e4c5960448201526f17d0d491505513d497d0531313d5d15160821b6064820152608401610893565b611abe84826129fc565b5080611ac9816139e7565b915050611a04565b610103546001600160a01b03163314611afc5760405162461bcd60e51b81526004016108939061395c565b60005b818110156113745760006101026000858585818110611b2057611b2061399e565b9050602002016020810190611b35919061316e565b6001600160a01b031681526020810191909152604001600020805460ff191691151591909117905580611b67816139e7565b915050611aff565b600091825261013a6020526040909120546001600160a01b0391821691161490565b606060ff8054611ba090613927565b80601f0160208091040260200160405190810160405280929190818152602001828054611bcc90613927565b8015611c195780601f10611bee57610100808354040283529160200191611c19565b820191906000526020600020905b815481529060010190602001808311611bfc57829003601f168201915b5050505050905090565b600082815260fc602052604090205482906001600160a01b03163314611c5b5760405162461bcd60e51b815260040161089390613a9d565b5060009182526101366020908152604083208054600181018255908452922090910155565b6001600160a01b038516331480611c9c5750611c9c8533610631565b611cfa5760405162461bcd60e51b815260206004820152602960248201527f455243313135353a2063616c6c6572206973206e6f74206f776e6572206e6f7260448201526808185c1c1c9bdd995960ba1b6064820152608401610893565b611d048386611b6f565b158015611d185750611d168385611b6f565b155b15611e20576000611d298484611fd2565b60008581526101396020526040908190205490516323b872dd60e01b81526001600160a01b0389811660048301523060248301526044820184905292935091169081906323b872dd90606401602060405180830381600087803b158015611d8f57600080fd5b505af1158015611da3573d6000803e3d6000fd5b505050506040513d601f19601f82011682018060405250810190611dc791906139b4565b611e135760405162461bcd60e51b815260206004820152601a60248201527f524549544e46543a20436f756c64206e6f7420706179207461780000000000006044820152606401610893565b611e1d8786612041565b50505b611e2a8484612041565b610b2a8585858585612a2a565b600082815260fc602052604090205482906001600160a01b03163314611e6f5760405162461bcd60e51b815260040161089390613a9d565b50600091825261013a602052604090912080546001600160a01b0319166001600160a01b03909216919091179055565b60008181611eac33610d3c565b11611ec95760405162461bcd60e51b815260040161089390613a48565b60008381526101376020908152604080832033808552908352928190208151608081018352815460ff81161515825261010090046001600160a01b03169381019390935260018101549183019190915260020154606082018190529091611f349190610e8690610e80565b9250505b50919050565b60006001600160a01b038316611faa5760405162461bcd60e51b815260206004820152602b60248201527f455243313135353a2062616c616e636520717565727920666f7220746865207a60448201526a65726f206164647265737360a81b6064820152608401610893565b5060009081526065602090815260408083206001600160a01b03949094168352929052205490565b600082815261013560209081526040808320815160808101835281548152600182015493810184905260028201549281019290925260030154606082018190529091612039916305f5e10091612033919061202d9088612b58565b90612b58565b90612b64565b949350505050565b6000818152610137602090815260408083206001600160a01b038616845290915290205460ff166120b7576000818152610137602090815260408083206001600160a01b03861680855292528220805460016001600160a81b031990911661010090930292909217821781556002810183905501555b60006120c3838361236b565b905080156113745760008281526101366020908152604080832081518154606094810282018501845292810183815290939192849284919084018282801561212a57602002820191906000526020600020905b815481526020019060010190808311612116575b5050509183525050600191909101546020918201526000858152610137825260408082206001600160a01b0389168352909252206002015490915061216f90836124cb565b6000938452610137602090815260408086206001600160a01b03979097168652959052939092206002810193909355505151600190910155565b81518351146121ca5760405162461bcd60e51b815260040161089390613b1d565b6001600160a01b0384166121f05760405162461bcd60e51b815260040161089390613b65565b3360005b84518110156122da5760008582815181106122115761221161399e565b60200260200101519050600085838151811061222f5761222f61399e565b60209081029190910181015160008481526065835260408082206001600160a01b038e1683529093529190912054909150818110156122805760405162461bcd60e51b815260040161089390613baa565b60008381526065602090815260408083206001600160a01b038e8116855292528083208585039055908b168252812080548492906122bf908490613bf4565b92505081905550505050806122d3906139e7565b90506121f4565b50846001600160a01b0316866001600160a01b0316826001600160a01b03167f4a39dc06d4c0dbc64b70af90fd698a233a518aa5d07e595d983b8c0526c8f7fb878760405161232a929190613c0c565b60405180910390a4612340818787878787612b70565b505050505050565b61010380546001600160a01b0319166001600160a01b0392909216919091179055565b6000818152610137602090815260408083206001600160a01b0380871685529083528184208251608081018452815460ff811615158083526101009091049093169481019490945260018101549284019290925260029091015460608301526123d85760009150506106c8565b60008381526101366020908152604080832081518154606094810282018501845292810183815290939192849284919084018282801561243757602002820191906000526020600020905b815481526020019060010190808311612423575b505050505081526020016001820154815250509050600061245886866106b9565b60408401519091506000905b8351518110156124c05760006124a0848660000151848151811061248a5761248a61399e565b6020026020010151612b5890919063ffffffff16565b90506124ac83826124cb565b925050806124b9906139e7565b9050612464565b509695505050505050565b60006106c58284613bf4565b60006106c58284613c3a565b6001600160a01b0384166125095760405162461bcd60e51b815260040161089390613c51565b33600061251585612cdb565b9050600061252285612cdb565b905060008681526065602090815260408083206001600160a01b038b16845290915281208054879290612556908490613bf4565b909155505060408051878152602081018790526001600160a01b03808a1692600092918716917fc3d58168c5ae7397731d063d5bbf3d657854427343f4c083240f7aacaa2d0f62910160405180910390a46125b683600089898989612d26565b50505050505050565b805161141d906067906020840190612f33565b609780546001600160a01b038381166001600160a01b0319831681179093556040519116919082907fc7c0c772add429241571afb3805861fb3cfa2af374534088b76cdb4325a87e9a90600090a35050565b816001600160a01b0316836001600160a01b031614156126985760405162461bcd60e51b815260206004820152602960248201527f455243313135353a2073657474696e6720617070726f76616c20737461747573604482015268103337b91039b2b63360b91b6064820152608401610893565b6001600160a01b03838116600081815260666020908152604080832094871680845294825291829020805460ff191686151590811790915591519182527f17307eab39ab6107e8899845ad3d59bd9653f200f220920489ca2b5937696c31910160405180910390a3505050565b60008054610100900460ff161561274c578160ff1660011480156127285750303b155b6127445760405162461bcd60e51b815260040161089390613c92565b506000919050565b60005460ff8084169116106127735760405162461bcd60e51b815260040161089390613c92565b506000805460ff191660ff92909216919091179055600190565b919050565b600061279e6001612705565b905080156127b6576000805461ff0019166101001790555b6127bf82612df0565b6127c7612e20565b6127cf612e4f565b83516127e390610100906020870190612f33565b5082516127f890610101906020860190612f33565b50600060fb5581516128119060ff906020850190612f33565b5080156114ed576000805461ff0019169055604051600181527f7f26b83ff96e1f2b6a682f133852f6798a09c465da95921460cefb3847402498906020016114e4565b600054610100900460ff1661287b5760405162461bcd60e51b815260040161089390613ce0565b61125e612e7e565b6001600160a01b0384166128a95760405162461bcd60e51b815260040161089390613c51565b81518351146128ca5760405162461bcd60e51b815260040161089390613b1d565b3360005b8451811015612967578381815181106128e9576128e961399e565b6020026020010151606560008784815181106129075761290761399e565b602002602001015181526020019081526020016000206000886001600160a01b03166001600160a01b03168152602001908152602001600020600082825461294f9190613bf4565b9091555081905061295f816139e7565b9150506128ce565b50846001600160a01b031660006001600160a01b0316826001600160a01b03167f4a39dc06d4c0dbc64b70af90fd698a233a518aa5d07e595d983b8c0526c8f7fb87876040516129b8929190613c0c565b60405180910390a4610b2a81600087878787612b70565b60fb546000906129e09060016124cb565b905090565b60fb80549060006129f5836139e7565b9190505550565b600090815260fc6020526040902080546001600160a01b0319166001600160a01b0392909216919091179055565b6001600160a01b038416612a505760405162461bcd60e51b815260040161089390613b65565b336000612a5c85612cdb565b90506000612a6985612cdb565b905060008681526065602090815260408083206001600160a01b038c16845290915290205485811015612aae5760405162461bcd60e51b815260040161089390613baa565b60008781526065602090815260408083206001600160a01b038d8116855292528083208985039055908a16825281208054889290612aed908490613bf4565b909155505060408051888152602081018890526001600160a01b03808b16928c821692918816917fc3d58168c5ae7397731d063d5bbf3d657854427343f4c083240f7aacaa2d0f62910160405180910390a4612b4d848a8a8a8a8a612d26565b505050505050505050565b60006106c58284613d2b565b60006106c58284613d4a565b6001600160a01b0384163b156123405760405163bc197c8160e01b81526001600160a01b0385169063bc197c8190612bb49089908990889088908890600401613d6c565b602060405180830381600087803b158015612bce57600080fd5b505af1925050508015612bfe575060408051601f3d908101601f19168201909252612bfb91810190613dca565b60015b612cab57612c0a613de7565b806308c379a01415612c445750612c1f613e03565b80612c2a5750612c46565b8060405162461bcd60e51b81526004016108939190613142565b505b60405162461bcd60e51b815260206004820152603460248201527f455243313135353a207472616e7366657220746f206e6f6e20455243313135356044820152732932b1b2b4bb32b91034b6b83632b6b2b73a32b960611b6064820152608401610893565b6001600160e01b0319811663bc197c8160e01b146125b65760405162461bcd60e51b815260040161089390613e8c565b60408051600180825281830190925260609160009190602080830190803683370190505090508281600081518110612d1557612d1561399e565b602090810291909101015292915050565b6001600160a01b0384163b156123405760405163f23a6e6160e01b81526001600160a01b0385169063f23a6e6190612d6a9089908990889088908890600401613ed4565b602060405180830381600087803b158015612d8457600080fd5b505af1925050508015612db4575060408051601f3d908101601f19168201909252612db191810190613dca565b60015b612dc057612c0a613de7565b6001600160e01b0319811663f23a6e6160e01b146125b65760405162461bcd60e51b815260040161089390613e8c565b600054610100900460ff16612e175760405162461bcd60e51b815260040161089390613ce0565b610bba81612eae565b600054610100900460ff16612e475760405162461bcd60e51b815260040161089390613ce0565b61125e612ed5565b600054610100900460ff16612e765760405162461bcd60e51b815260040161089390613ce0565b61125e612f05565b600054610100900460ff16612ea55760405162461bcd60e51b815260040161089390613ce0565b61125e33612348565b600054610100900460ff166113a35760405162461bcd60e51b815260040161089390613ce0565b600054610100900460ff16612efc5760405162461bcd60e51b815260040161089390613ce0565b61125e336125d2565b600054610100900460ff16612f2c5760405162461bcd60e51b815260040161089390613ce0565b600160c955565b828054612f3f90613927565b90600052602060002090601f016020900481019282612f615760008555612fa7565b82601f10612f7a57805160ff1916838001178555612fa7565b82800160010185558215612fa7579182015b82811115612fa7578251825591602001919060010190612f8c565b50612fb3929150613065565b5090565b828054612fc390613927565b90600052602060002090601f016020900481019282612fe55760008555612fa7565b82601f10612ffe5782800160ff19823516178555612fa7565b82800160010185558215612fa7579182015b82811115612fa7578235825591602001919060010190613010565b828054828255906000526020600020908101928215612fa75791602002820182811115612fa7578251825591602001919060010190612f8c565b5b80821115612fb35760008155600101613066565b80356001600160a01b038116811461278d57600080fd5b600080604083850312156130a457600080fd5b6130ad8361307a565b946020939093013593505050565b6001600160e01b031981168114610bba57600080fd5b6000602082840312156130e357600080fd5b81356130ee816130bb565b9392505050565b6000815180845260005b8181101561311b576020818501810151868301820152016130ff565b8181111561312d576000602083870101525b50601f01601f19169290920160200192915050565b6020815260006106c560208301846130f5565b60006020828403121561316757600080fd5b5035919050565b60006020828403121561318057600080fd5b6106c58261307a565b634e487b7160e01b600052604160045260246000fd5b601f8201601f191681016001600160401b03811182821017156131c4576131c4613189565b6040525050565b60006001600160401b038211156131e4576131e4613189565b5060051b60200190565b600082601f8301126131ff57600080fd5b8135602061320c826131cb565b604051613219828261319f565b83815260059390931b850182019282810191508684111561323957600080fd5b8286015b848110156124c0578035835291830191830161323d565b600082601f83011261326557600080fd5b81356001600160401b0381111561327e5761327e613189565b604051613295601f8301601f19166020018261319f565b8181528460208386010111156132aa57600080fd5b816020850160208301376000918101602001919091529392505050565b600080600080600060a086880312156132df57600080fd5b6132e88661307a565b94506132f66020870161307a565b935060408601356001600160401b038082111561331257600080fd5b61331e89838a016131ee565b9450606088013591508082111561333457600080fd5b61334089838a016131ee565b9350608088013591508082111561335657600080fd5b5061336388828901613254565b9150509295509295909350565b6000806040838503121561338357600080fd5b82356001600160401b038082111561339a57600080fd5b818501915085601f8301126133ae57600080fd5b813560206133bb826131cb565b6040516133c8828261319f565b83815260059390931b85018201928281019150898411156133e857600080fd5b948201945b8386101561340d576133fe8661307a565b825294820194908201906133ed565b9650508601359250508082111561342357600080fd5b50613430858286016131ee565b9150509250929050565b600081518084526020808501945080840160005b8381101561346a5781518752958201959082019060010161344e565b509495945050505050565b6020815260006106c5602083018461343a565b6000806040838503121561349b57600080fd5b50508035926020909101359150565b600080600080608085870312156134c057600080fd5b6134c98561307a565b9350602085013592506040850135915060608501356001600160401b038111156134f257600080fd5b6134fe87828801613254565b91505092959194509250565b6000806020838503121561351d57600080fd5b82356001600160401b038082111561353457600080fd5b818501915085601f83011261354857600080fd5b81358181111561355757600080fd5b8660208260051b850101111561356c57600080fd5b60209290920196919550909350505050565b60006020828403121561359057600080fd5b81356001600160401b038111156135a657600080fd5b61203984828501613254565b8015158114610bba57600080fd5b600080604083850312156135d357600080fd5b6135dc8361307a565b915060208301356135ec816135b2565b809150509250929050565b60008060006060848603121561360c57600080fd5b83356001600160401b038082111561362357600080fd5b61362f87838801613254565b9450602086013591508082111561364557600080fd5b61365187838801613254565b9350604086013591508082111561366757600080fd5b5061367486828701613254565b9150509250925092565b600080600080600060a0868803121561369657600080fd5b505083359560208501359550604085013594606081013594506080013592509050565b600080600080608085870312156136cf57600080fd5b6136d88561307a565b935060208501356001600160401b03808211156136f457600080fd5b613700888389016131ee565b9450604087013591508082111561371657600080fd5b613722888389016131ee565b9350606087013591508082111561373857600080fd5b506134fe87828801613254565b60008083601f84011261375757600080fd5b5081356001600160401b0381111561376e57600080fd5b60208301915083602082850101111561378657600080fd5b9250929050565b600080600080600080600060a0888a0312156137a857600080fd5b6137b18861307a565b96506020880135955060408801356001600160401b03808211156137d457600080fd5b6137e08b838c01613745565b90975095508591506137f460608b0161307a565b945060808a013591508082111561380a57600080fd5b506138178a828b01613745565b989b979a50959850939692959293505050565b6000806040838503121561383d57600080fd5b6138468361307a565b915060208301356001600160401b0381111561386157600080fd5b613430858286016131ee565b6000806040838503121561388057600080fd5b823591506138906020840161307a565b90509250929050565b600080604083850312156138ac57600080fd5b6138b58361307a565b91506138906020840161307a565b600080600080600060a086880312156138db57600080fd5b6138e48661307a565b94506138f26020870161307a565b9350604086013592506060860135915060808601356001600160401b0381111561391b57600080fd5b61336388828901613254565b600181811c9082168061393b57607f821691505b60208210811415611f3857634e487b7160e01b600052602260045260246000fd5b60208082526022908201527f4b59434163636573733a2063616c6c6572206973206e6f74207468652061646d60408201526134b760f11b606082015260800190565b634e487b7160e01b600052603260045260246000fd5b6000602082840312156139c657600080fd5b81516130ee816135b2565b634e487b7160e01b600052601160045260246000fd5b60006000198214156139fb576139fb6139d1565b5060010190565b60208082526026908201527f476f7665726e61626c653a2063616c6c6572206973206e6f742074686520676f6040820152653b32b93737b960d11b606082015260800190565b60208082526035908201527f455243313135355472616461626c65237368617265486f6c646572734f6e6c796040820152740e8813d3931657d3d5d3915494d7d0531313d5d151605a1b606082015260800190565b60208082526031908201527f455243313135355472616461626c652363726561746f724f6e6c793a204f4e4c6040820152701657d0d491505513d497d0531313d5d151607a1b606082015260800190565b60208152816020820152818360408301376000818301604090810191909152601f909201601f19160101919050565b60208082526028908201527f455243313135353a2069647320616e6420616d6f756e7473206c656e677468206040820152670dad2e6dac2e8c6d60c31b606082015260800190565b60208082526025908201527f455243313135353a207472616e7366657220746f20746865207a65726f206164604082015264647265737360d81b606082015260800190565b6020808252602a908201527f455243313135353a20696e73756666696369656e742062616c616e636520666f60408201526939103a3930b739b332b960b11b606082015260800190565b60008219821115613c0757613c076139d1565b500190565b604081526000613c1f604083018561343a565b8281036020840152613c31818561343a565b95945050505050565b600082821015613c4c57613c4c6139d1565b500390565b60208082526021908201527f455243313135353a206d696e7420746f20746865207a65726f206164647265736040820152607360f81b606082015260800190565b6020808252602e908201527f496e697469616c697a61626c653a20636f6e747261637420697320616c72656160408201526d191e481a5b9a5d1a585b1a5e995960921b606082015260800190565b6020808252602b908201527f496e697469616c697a61626c653a20636f6e7472616374206973206e6f74206960408201526a6e697469616c697a696e6760a81b606082015260800190565b6000816000190483118215151615613d4557613d456139d1565b500290565b600082613d6757634e487b7160e01b600052601260045260246000fd5b500490565b6001600160a01b0386811682528516602082015260a060408201819052600090613d989083018661343a565b8281036060840152613daa818661343a565b90508281036080840152613dbe81856130f5565b98975050505050505050565b600060208284031215613ddc57600080fd5b81516130ee816130bb565b600060033d1115613e005760046000803e5060005160e01c5b90565b600060443d1015613e115790565b6040516003193d81016004833e81513d6001600160401b038160248401118184111715613e4057505050505090565b8285019150815181811115613e585750505050505090565b843d8701016020828501011115613e725750505050505090565b613e816020828601018761319f565b509095945050505050565b60208082526028908201527f455243313135353a204552433131353552656365697665722072656a656374656040820152676420746f6b656e7360c01b606082015260800190565b6001600160a01b03868116825285166020820152604081018490526060810183905260a060808201819052600090613f0e908301846130f5565b97965050505050505056fea264697066735822122036347a1ae3074b2d8f7bbc434906041aa66a5d594e7408c0f64a557f079184d864736f6c63430008090033",
  "linkReferences": {},
  "deployedLinkReferences": {}
}