{
  "_format": "hh-sol-artifact-1",
  "contractName": "REITNFT",
  "sourceName": "contracts/REITNFT.sol",
  "abi": [
    {
      "anonymous": false,
      "inputs": [
        {
          "indexed": true,
          "internalType": "address",
          "name": "account",
          "type": "address"
        },
        {
          "indexed": true,
          "internalType": "address",
          "name": "operator",
          "type": "address"
        },
        {
          "indexed": false,
          "internalType": "bool",
          "name": "approved",
          "type": "bool"
        }
      ],
      "name": "ApprovalForAll",
      "type": "event"
    },
    {
      "anonymous": false,
      "inputs": [
        {
          "indexed": false,
          "internalType": "uint256",
          "name": "id",
          "type": "uint256"
        },
        {
          "indexed": false,
          "internalType": "address",
          "name": "creator",
          "type": "address"
        }
      ],
      "name": "Create",
      "type": "event"
    },
    {
      "anonymous": false,
      "inputs": [
        {
          "indexed": true,
          "internalType": "address",
          "name": "previousGovernor",
          "type": "address"
        },
        {
          "indexed": true,
          "internalType": "address",
          "name": "newGovernor",
          "type": "address"
        }
      ],
      "name": "GovernorshipTransferred",
      "type": "event"
    },
    {
      "anonymous": false,
      "inputs": [
        {
          "indexed": false,
          "internalType": "uint8",
          "name": "version",
          "type": "uint8"
        }
      ],
      "name": "Initialized",
      "type": "event"
    },
    {
      "anonymous": false,
      "inputs": [
        {
          "indexed": true,
          "internalType": "address",
          "name": "operator",
          "type": "address"
        },
        {
          "indexed": true,
          "internalType": "address",
          "name": "from",
          "type": "address"
        },
        {
          "indexed": true,
          "internalType": "address",
          "name": "to",
          "type": "address"
        },
        {
          "indexed": false,
          "internalType": "uint256[]",
          "name": "ids",
          "type": "uint256[]"
        },
        {
          "indexed": false,
          "internalType": "uint256[]",
          "name": "values",
          "type": "uint256[]"
        }
      ],
      "name": "TransferBatch",
      "type": "event"
    },
    {
      "anonymous": false,
      "inputs": [
        {
          "indexed": true,
          "internalType": "address",
          "name": "operator",
          "type": "address"
        },
        {
          "indexed": true,
          "internalType": "address",
          "name": "from",
          "type": "address"
        },
        {
          "indexed": true,
          "internalType": "address",
          "name": "to",
          "type": "address"
        },
        {
          "indexed": false,
          "internalType": "uint256",
          "name": "id",
          "type": "uint256"
        },
        {
          "indexed": false,
          "internalType": "uint256",
          "name": "value",
          "type": "uint256"
        }
      ],
      "name": "TransferSingle",
      "type": "event"
    },
    {
      "anonymous": false,
      "inputs": [
        {
          "indexed": false,
          "internalType": "string",
          "name": "value",
          "type": "string"
        },
        {
          "indexed": true,
          "internalType": "uint256",
          "name": "id",
          "type": "uint256"
        }
      ],
      "name": "URI",
      "type": "event"
    },
    {
      "inputs": [
        {
          "internalType": "address[]",
          "name": "accounts",
          "type": "address[]"
        }
      ],
      "name": "addManyToKYC",
      "outputs": [],
      "stateMutability": "nonpayable",
      "type": "function"
    },
    {
      "inputs": [
        {
          "internalType": "address",
          "name": "account",
          "type": "address"
        }
      ],
      "name": "addToKYC",
      "outputs": [],
      "stateMutability": "nonpayable",
      "type": "function"
    },
    {
      "inputs": [
        {
          "internalType": "uint256",
          "name": "id",
          "type": "uint256"
        },
        {
          "internalType": "address[]",
          "name": "accounts",
          "type": "address[]"
        }
      ],
      "name": "allowLiquidationClaim",
      "outputs": [],
      "stateMutability": "nonpayable",
      "type": "function"
    },
    {
      "inputs": [
        {
          "internalType": "address",
          "name": "account",
          "type": "address"
        },
        {
          "internalType": "uint256",
          "name": "id",
          "type": "uint256"
        }
      ],
      "name": "balanceOf",
      "outputs": [
        {
          "internalType": "uint256",
          "name": "",
          "type": "uint256"
        }
      ],
      "stateMutability": "view",
      "type": "function"
    },
    {
      "inputs": [
        {
          "internalType": "address[]",
          "name": "accounts",
          "type": "address[]"
        },
        {
          "internalType": "uint256[]",
          "name": "ids",
          "type": "uint256[]"
        }
      ],
      "name": "balanceOfBatch",
      "outputs": [
        {
          "internalType": "uint256[]",
          "name": "",
          "type": "uint256[]"
        }
      ],
      "stateMutability": "view",
      "type": "function"
    },
    {
      "inputs": [
        {
          "internalType": "address",
          "name": "_to",
          "type": "address"
        },
        {
          "internalType": "uint256[]",
          "name": "_ids",
          "type": "uint256[]"
        },
        {
          "internalType": "uint256[]",
          "name": "_quantities",
          "type": "uint256[]"
        },
        {
          "internalType": "bytes",
          "name": "_data",
          "type": "bytes"
        }
      ],
      "name": "batchMint",
      "outputs": [],
      "stateMutability": "nonpayable",
      "type": "function"
    },
    {
      "inputs": [
        {
          "internalType": "uint256",
          "name": "_id",
          "type": "uint256"
        }
      ],
      "name": "claimDividends",
      "outputs": [],
      "stateMutability": "nonpayable",
      "type": "function"
    },
    {
      "inputs": [
        {
          "internalType": "uint256",
          "name": "id",
          "type": "uint256"
        }
      ],
      "name": "claimLiquidations",
      "outputs": [],
      "stateMutability": "nonpayable",
      "type": "function"
    },
    {
      "inputs": [],
      "name": "contractURI",
      "outputs": [
        {
          "internalType": "string",
          "name": "",
          "type": "string"
        }
      ],
      "stateMutability": "view",
      "type": "function"
    },
    {
      "inputs": [
        {
          "internalType": "address",
          "name": "_initialOwner",
          "type": "address"
        },
        {
          "internalType": "uint256",
          "name": "_initialSupply",
          "type": "uint256"
        },
        {
          "internalType": "string",
          "name": "_uri",
          "type": "string"
        },
        {
          "internalType": "address",
          "name": "_fundingToken",
          "type": "address"
        },
        {
          "internalType": "bytes",
          "name": "_data",
          "type": "bytes"
        }
      ],
      "name": "createREIT",
      "outputs": [
        {
          "internalType": "uint256",
          "name": "",
          "type": "uint256"
        }
      ],
      "stateMutability": "nonpayable",
      "type": "function"
    },
    {
      "inputs": [
        {
          "internalType": "uint256",
          "name": "",
          "type": "uint256"
        }
      ],
      "name": "creators",
      "outputs": [
        {
          "internalType": "address",
          "name": "",
          "type": "address"
        }
      ],
      "stateMutability": "view",
      "type": "function"
    },
    {
      "inputs": [
        {
          "internalType": "uint256",
          "name": "_id",
          "type": "uint256"
        },
        {
          "internalType": "uint256",
          "name": "amount",
          "type": "uint256"
        }
      ],
      "name": "fundDividendVault",
      "outputs": [],
      "stateMutability": "nonpayable",
      "type": "function"
    },
    {
      "inputs": [
        {
          "internalType": "uint256",
          "name": "_id",
          "type": "uint256"
        },
        {
          "internalType": "uint256",
          "name": "amount",
          "type": "uint256"
        }
      ],
      "name": "fundLiquidationVault",
      "outputs": [],
      "stateMutability": "nonpayable",
      "type": "function"
    },
    {
      "inputs": [
        {
          "internalType": "uint256",
          "name": "_id",
          "type": "uint256"
        }
      ],
      "name": "getClaimedDividends",
      "outputs": [
        {
          "internalType": "uint256",
          "name": "",
          "type": "uint256"
        }
      ],
      "stateMutability": "view",
      "type": "function"
    },
    {
      "inputs": [
        {
          "internalType": "uint256",
          "name": "id",
          "type": "uint256"
        }
      ],
      "name": "getClaimedLiquidations",
      "outputs": [
        {
          "internalType": "uint256",
          "name": "",
          "type": "uint256"
        }
      ],
      "stateMutability": "view",
      "type": "function"
    },
    {
      "inputs": [
        {
          "internalType": "uint256",
          "name": "_id",
          "type": "uint256"
        }
      ],
      "name": "getIPOContract",
      "outputs": [
        {
          "internalType": "address",
          "name": "",
          "type": "address"
        }
      ],
      "stateMutability": "view",
      "type": "function"
    },
    {
      "inputs": [
        {
          "internalType": "uint256",
          "name": "id",
          "type": "uint256"
        }
      ],
      "name": "getIPOUnitPrice",
      "outputs": [
        {
          "internalType": "uint256",
          "name": "",
          "type": "uint256"
        }
      ],
      "stateMutability": "view",
      "type": "function"
    },
    {
      "inputs": [
        {
          "internalType": "uint256",
          "name": "_id",
          "type": "uint256"
        }
      ],
      "name": "getLockedYieldDividends",
      "outputs": [
        {
          "internalType": "uint256",
          "name": "",
          "type": "uint256"
        }
      ],
      "stateMutability": "view",
      "type": "function"
    },
    {
      "inputs": [
        {
          "internalType": "uint256",
          "name": "_id",
          "type": "uint256"
        }
      ],
      "name": "getTotalClaimableDividends",
      "outputs": [
        {
          "internalType": "uint256",
          "name": "",
          "type": "uint256"
        }
      ],
      "stateMutability": "view",
      "type": "function"
    },
    {
      "inputs": [
        {
          "internalType": "uint256",
          "name": "_id",
          "type": "uint256"
        }
      ],
      "name": "getTotalYieldDividendPerShare",
      "outputs": [
        {
          "internalType": "uint256",
          "name": "",
          "type": "uint256"
        }
      ],
      "stateMutability": "view",
      "type": "function"
    },
    {
      "inputs": [
        {
          "internalType": "uint256",
          "name": "_id",
          "type": "uint256"
        },
        {
          "internalType": "uint256",
          "name": "index",
          "type": "uint256"
        }
      ],
      "name": "getYieldDividendPerShareAt",
      "outputs": [
        {
          "internalType": "uint256",
          "name": "",
          "type": "uint256"
        }
      ],
      "stateMutability": "view",
      "type": "function"
    },
    {
      "inputs": [],
      "name": "governor",
      "outputs": [
        {
          "internalType": "address",
          "name": "",
          "type": "address"
        }
      ],
      "stateMutability": "view",
      "type": "function"
    },
    {
      "inputs": [
        {
          "internalType": "uint256",
          "name": "id",
          "type": "uint256"
        },
        {
          "internalType": "address[]",
          "name": "accounts",
          "type": "address[]"
        }
      ],
      "name": "holdLiquidationClaim",
      "outputs": [],
      "stateMutability": "nonpayable",
      "type": "function"
    },
    {
      "inputs": [
        {
          "internalType": "string",
          "name": "_name",
          "type": "string"
        },
        {
          "internalType": "string",
          "name": "_symbol",
          "type": "string"
        },
        {
          "internalType": "string",
          "name": "_uri",
          "type": "string"
        }
      ],
      "name": "initialize",
      "outputs": [],
      "stateMutability": "nonpayable",
      "type": "function"
    },
    {
      "inputs": [
        {
          "internalType": "uint256",
          "name": "_id",
          "type": "uint256"
        },
        {
          "internalType": "uint64",
          "name": "initiateTime",
          "type": "uint64"
        },
        {
          "internalType": "uint256",
          "name": "unitValue",
          "type": "uint256"
        },
        {
          "internalType": "uint64",
          "name": "liquidationTime",
          "type": "uint64"
        },
        {
          "internalType": "uint64",
          "name": "transferTax",
          "type": "uint64"
        }
      ],
      "name": "initiateREIT",
      "outputs": [],
      "stateMutability": "nonpayable",
      "type": "function"
    },
    {
      "inputs": [
        {
          "internalType": "address",
          "name": "account",
          "type": "address"
        },
        {
          "internalType": "address",
          "name": "operator",
          "type": "address"
        }
      ],
      "name": "isApprovedForAll",
      "outputs": [
        {
          "internalType": "bool",
          "name": "",
          "type": "bool"
        }
      ],
      "stateMutability": "view",
      "type": "function"
    },
    {
      "inputs": [
        {
          "internalType": "uint256",
          "name": "_id",
          "type": "uint256"
        },
        {
          "internalType": "address",
          "name": "account",
          "type": "address"
        }
      ],
      "name": "isIPOContract",
      "outputs": [
        {
          "internalType": "bool",
          "name": "",
          "type": "bool"
        }
      ],
      "stateMutability": "view",
      "type": "function"
    },
    {
      "inputs": [
        {
          "internalType": "address",
          "name": "account",
          "type": "address"
        }
      ],
      "name": "isKYC",
      "outputs": [
        {
          "internalType": "bool",
          "name": "",
          "type": "bool"
        }
      ],
      "stateMutability": "view",
      "type": "function"
    },
    {
      "inputs": [
        {
          "internalType": "uint256",
          "name": "id",
          "type": "uint256"
        }
      ],
      "name": "lockLiquidationPerShare",
      "outputs": [],
      "stateMutability": "nonpayable",
      "type": "function"
    },
    {
      "inputs": [
        {
          "internalType": "address",
          "name": "account",
          "type": "address"
        },
        {
          "internalType": "uint256",
          "name": "id",
          "type": "uint256"
        }
      ],
      "name": "lockedBalanceOf",
      "outputs": [
        {
          "internalType": "uint256",
          "name": "",
          "type": "uint256"
        }
      ],
      "stateMutability": "view",
      "type": "function"
    },
    {
      "inputs": [
        {
          "internalType": "address",
          "name": "_to",
          "type": "address"
        },
        {
          "internalType": "uint256",
          "name": "_id",
          "type": "uint256"
        },
        {
          "internalType": "uint256",
          "name": "_quantity",
          "type": "uint256"
        },
        {
          "internalType": "bytes",
          "name": "_data",
          "type": "bytes"
        }
      ],
      "name": "mint",
      "outputs": [],
      "stateMutability": "nonpayable",
      "type": "function"
    },
    {
      "inputs": [],
      "name": "name",
      "outputs": [
        {
          "internalType": "string",
          "name": "",
          "type": "string"
        }
      ],
      "stateMutability": "view",
      "type": "function"
    },
    {
      "inputs": [
        {
          "internalType": "uint256",
          "name": "id",
          "type": "uint256"
        }
      ],
      "name": "redeemLockedBalances",
      "outputs": [],
      "stateMutability": "nonpayable",
      "type": "function"
    },
    {
      "inputs": [
        {
          "internalType": "address",
          "name": "account",
          "type": "address"
        }
      ],
      "name": "removeKYC",
      "outputs": [],
      "stateMutability": "nonpayable",
      "type": "function"
    },
    {
      "inputs": [
        {
          "internalType": "address[]",
          "name": "accounts",
          "type": "address[]"
        }
      ],
      "name": "removeManyKYC",
      "outputs": [],
      "stateMutability": "nonpayable",
      "type": "function"
    },
    {
      "inputs": [],
      "name": "renounceGovernorship",
      "outputs": [],
      "stateMutability": "nonpayable",
      "type": "function"
    },
    {
      "inputs": [],
      "name": "revokeKYCAdmin",
      "outputs": [],
      "stateMutability": "nonpayable",
      "type": "function"
    },
    {
      "inputs": [
        {
          "internalType": "address",
          "name": "from",
          "type": "address"
        },
        {
          "internalType": "address",
          "name": "to",
          "type": "address"
        },
        {
          "internalType": "uint256[]",
          "name": "ids",
          "type": "uint256[]"
        },
        {
          "internalType": "uint256[]",
          "name": "amounts",
          "type": "uint256[]"
        },
        {
          "internalType": "bytes",
          "name": "data",
          "type": "bytes"
        }
      ],
      "name": "safeBatchTransferFrom",
      "outputs": [],
      "stateMutability": "nonpayable",
      "type": "function"
    },
    {
      "inputs": [
        {
          "internalType": "address",
          "name": "from",
          "type": "address"
        },
        {
          "internalType": "address",
          "name": "to",
          "type": "address"
        },
        {
          "internalType": "uint256",
          "name": "id",
          "type": "uint256"
        },
        {
          "internalType": "uint256",
          "name": "amount",
          "type": "uint256"
        },
        {
          "internalType": "bytes",
          "name": "data",
          "type": "bytes"
        }
      ],
      "name": "safeTransferFrom",
      "outputs": [],
      "stateMutability": "nonpayable",
      "type": "function"
    },
    {
      "inputs": [
        {
          "internalType": "address",
          "name": "operator",
          "type": "address"
        },
        {
          "internalType": "bool",
          "name": "approved",
          "type": "bool"
        }
      ],
      "name": "setApprovalForAll",
      "outputs": [],
      "stateMutability": "nonpayable",
      "type": "function"
    },
    {
      "inputs": [
        {
          "internalType": "string",
          "name": "_newBaseMetadataURI",
          "type": "string"
        }
      ],
      "name": "setBaseMetadataURI",
      "outputs": [],
      "stateMutability": "nonpayable",
      "type": "function"
    },
    {
      "inputs": [
        {
          "internalType": "string",
          "name": "_uri",
          "type": "string"
        }
      ],
      "name": "setContractURI",
      "outputs": [],
      "stateMutability": "nonpayable",
      "type": "function"
    },
    {
      "inputs": [
        {
          "internalType": "address",
          "name": "_to",
          "type": "address"
        },
        {
          "internalType": "uint256[]",
          "name": "_ids",
          "type": "uint256[]"
        }
      ],
      "name": "setCreator",
      "outputs": [],
      "stateMutability": "nonpayable",
      "type": "function"
    },
    {
      "inputs": [
        {
          "internalType": "uint256",
          "name": "_id",
          "type": "uint256"
        },
        {
          "internalType": "address",
          "name": "account",
          "type": "address"
        }
      ],
      "name": "setIPOContract",
      "outputs": [],
      "stateMutability": "nonpayable",
      "type": "function"
    },
    {
      "inputs": [
        {
          "internalType": "address",
          "name": "account",
          "type": "address"
        }
      ],
      "name": "setKYCAdmin",
      "outputs": [],
      "stateMutability": "nonpayable",
      "type": "function"
    },
    {
      "inputs": [
        {
          "internalType": "uint256",
          "name": "_id",
          "type": "uint256"
        },
        {
          "internalType": "uint256",
          "name": "value",
          "type": "uint256"
        }
      ],
      "name": "setUnitMarketValue",
      "outputs": [],
      "stateMutability": "nonpayable",
      "type": "function"
    },
    {
      "inputs": [
        {
          "internalType": "bytes4",
          "name": "interfaceId",
          "type": "bytes4"
        }
      ],
      "name": "supportsInterface",
      "outputs": [
        {
          "internalType": "bool",
          "name": "",
          "type": "bool"
        }
      ],
      "stateMutability": "view",
      "type": "function"
    },
    {
      "inputs": [],
      "name": "symbol",
      "outputs": [
        {
          "internalType": "string",
          "name": "",
          "type": "string"
        }
      ],
      "stateMutability": "view",
      "type": "function"
    },
    {
      "inputs": [
        {
          "internalType": "uint256",
          "name": "",
          "type": "uint256"
        }
      ],
      "name": "tokenSupply",
      "outputs": [
        {
          "internalType": "uint256",
          "name": "",
          "type": "uint256"
        }
      ],
      "stateMutability": "view",
      "type": "function"
    },
    {
      "inputs": [
        {
          "internalType": "uint256",
          "name": "",
          "type": "uint256"
        }
      ],
      "name": "tokenUri",
      "outputs": [
        {
          "internalType": "string",
          "name": "",
          "type": "string"
        }
      ],
      "stateMutability": "view",
      "type": "function"
    },
    {
      "inputs": [
        {
          "internalType": "uint256",
          "name": "_id",
          "type": "uint256"
        }
      ],
      "name": "totalSupply",
      "outputs": [
        {
          "internalType": "uint256",
          "name": "",
          "type": "uint256"
        }
      ],
      "stateMutability": "view",
      "type": "function"
    },
    {
      "inputs": [
        {
          "internalType": "address",
          "name": "newGovernor",
          "type": "address"
        }
      ],
      "name": "transferGovernorship",
      "outputs": [],
      "stateMutability": "nonpayable",
      "type": "function"
    },
    {
      "inputs": [
        {
          "internalType": "uint256",
          "name": "id",
          "type": "uint256"
        },
        {
          "internalType": "uint256",
          "name": "value",
          "type": "uint256"
        },
        {
          "internalType": "uint32",
          "name": "time",
          "type": "uint32"
        }
      ],
      "name": "unlockDividendPerShare",
      "outputs": [],
      "stateMutability": "nonpayable",
      "type": "function"
    },
    {
      "inputs": [
        {
          "internalType": "uint256",
          "name": "id",
          "type": "uint256"
        },
        {
          "internalType": "uint256",
          "name": "value",
          "type": "uint256"
        }
      ],
      "name": "unlockLiquidationPerShare",
      "outputs": [],
      "stateMutability": "nonpayable",
      "type": "function"
    },
    {
      "inputs": [
        {
          "internalType": "uint256",
          "name": "_id",
          "type": "uint256"
        }
      ],
      "name": "uri",
      "outputs": [
        {
          "internalType": "string",
          "name": "",
          "type": "string"
        }
      ],
      "stateMutability": "view",
      "type": "function"
    }
  ],
  "bytecode": "0x608060405234801561001057600080fd5b50614ec9806100206000396000f3fe608060405234801561001057600080fd5b506004361061035b5760003560e01c80639944f518116101d3578063d0044d6211610104578063e43ca761116100a2578063f242432a1161007c578063f242432a146107e4578063f6ee8fcc146107f7578063fc62ad0a1461080a578063ffd916121461081d57600080fd5b8063e43ca7611461078d578063e8a3d485146107a0578063e985e9c5146107a857600080fd5b8063d9033c44116100de578063d9033c4414610741578063d98d9eaf14610754578063dac3e33414610767578063e086bab81461077a57600080fd5b8063d0044d6214610708578063d2a6b51a1461071b578063d64e83d71461072e57600080fd5b8063b48ab8b611610171578063bd7047c41161014b578063bd7047c414610699578063bd85b039146106ac578063bff804ca146106cc578063cd53d08e146106df57600080fd5b8063b48ab8b614610660578063b6aa515b14610673578063bb8973031461068657600080fd5b8063a22cb465116101ad578063a22cb46514610614578063a2e42dde14610627578063a6487c531461063a578063aa4d92cb1461064d57600080fd5b80639944f518146105c45780639a429294146105d75780639b166e2f146105ea57600080fd5b8063409f8c48116102ad578063780f30e51161024b57806381c0c2631161022557806381c0c2631461056b5780638ef4c80714610573578063938e3d7b146105a957806395d89b41146105bc57600080fd5b8063780f30e51461053257806378c4acb8146105455780637e518ec81461055857600080fd5b806359d1a4b11161028757806359d1a4b1146104e357806365121795146104eb57806368a14077146104fe578063731133e91461051f57600080fd5b8063409f8c481461049d5780634e1273f4146104b057806351053648146104d057600080fd5b8063148dc4591161031a578063243f6b58116102f4578063243f6b58146104445780632693ebf2146104575780632eb2c2d6146104775780633a69c8d81461048a57600080fd5b8063148dc4591461040b5780631675f4551461041e57806322b6ccfe1461043157600080fd5b806256d08d14610360578062fdd58e1461037557806301ffc9a71461039b57806306fdde03146103be5780630c340a24146103d35780630e89341c146103f8575b600080fd5b61037361036e366004613e16565b610830565b005b610388610383366004613e6f565b610974565b6040519081526020015b60405180910390f35b6103ae6103a9366004613eaf565b610987565b6040519015158152602001610392565b6103c66109d9565b6040516103929190613f19565b6097546001600160a01b03165b6040516001600160a01b039091168152602001610392565b6103c6610406366004613f2c565b610a68565b610373610419366004613f2c565b610b0a565b6103c661042c366004613f2c565b610dcf565b61037361043f366004613f45565b610de8565b610373610452366004613f45565b610e38565b610388610465366004613f2c565b60fd6020526000908152604090205481565b6103736104853660046140a9565b610e85565b610388610498366004613f2c565b6111d4565b6103736104ab366004613f45565b611255565b6104c36104be366004614152565b6112e1565b6040516103929190614257565b6103886104de366004613f2c565b61140a565b610373611487565b6103886104f936600461426a565b6114bd565b61038861050c366004613f2c565b6000908152610135602052604090205490565b61037361052d36600461428c565b6114f4565b61037361054036600461426a565b61156a565b610373610553366004614337565b61165e565b610373610566366004614378565b611701565b610373611734565b610388610581366004613e6f565b600090815261013c602090815260408083206001600160a01b03949094168352929052205490565b6103736105b7366004614378565b611768565b6103c66117a9565b6103ae6105d2366004613f45565b6117b7565b6103886105e5366004613f2c565b6117ec565b6103e06105f8366004613f2c565b600090815261013b60205260409020546001600160a01b031690565b6103736106223660046143c2565b6118fc565b61037361063536600461426a565b611907565b6103736106483660046143f9565b6119fb565b61037361065b366004614497565b611a7e565b61037361066e3660046144ee565b611b50565b610373610681366004613f45565b611cdf565b6103886106943660046145bb565b611d7d565b6103736106a7366004613f2c565b61203a565b6103886106ba366004613f2c565b600090815260fd602052604090205490565b6103736106da366004613f2c565b612242565b6103e06106ed366004613f2c565b60fc602052600090815260409020546001600160a01b031681565b610373610716366004613f2c565b6124b1565b610373610729366004614658565b6124ff565b61037361073c366004614337565b612639565b61037361074f36600461469b565b6126d7565b6103ae6107623660046146e6565b612795565b610388610775366004613f2c565b6127b7565b610388610788366004613f2c565b612956565b61037361079b36600461426a565b612aea565b6103c6612b36565b6103ae6107b6366004614712565b6001600160a01b03918216600090815260666020908152604080832093909416825291909152205460ff1690565b6103736107f236600461473c565b612bc8565b6103736108053660046146e6565b612e9a565b61037361081836600461469b565b612f52565b61037361082b36600461426a565b613007565b600083815260fc602052604090205483906001600160a01b031633146108715760405162461bcd60e51b8152600401610868906147a0565b60405180910390fd5b60008481526101366020526040902060010154156108d15760405162461bcd60e51b815260206004820152601760248201527f4d757374206e6f7420796574206c6971756964617465640000000000000000006044820152606401610868565b600084815261013660205260409020600201805484919063ffffffff85169081106108fe576108fe6147f1565b60009182526020909120015561091582600161481d565b6000858152610136602052604090206003015463ffffffff9182169116101561096e5761094382600161481d565b600085815261013660205260409020600301805463ffffffff191663ffffffff929092169190911790555b50505050565b60006109808383613056565b9392505050565b60006001600160e01b03198216636cdb3d1360e11b14806109b857506001600160e01b031982166303a24d0760e21b145b806109d357506301ffc9a760e01b6001600160e01b03198316145b92915050565b61010080546109e790614845565b80601f0160208091040260200160405190810160405280929190818152602001828054610a1390614845565b8015610a605780601f10610a3557610100808354040283529160200191610a60565b820191906000526020600020905b815481529060010190602001808311610a4357829003601f168201915b505050505081565b600081815260fe60205260409020805460609190610a8590614845565b80601f0160208091040260200160405190810160405280929190818152602001828054610ab190614845565b8015610afe5780601f10610ad357610100808354040283529160200191610afe565b820191906000526020600020905b815481529060010190602001808311610ae157829003601f168201915b50505050509050919050565b336000908152610102602052604090205460ff16610b3a5760405162461bcd60e51b81526004016108689061487a565b600260c9541415610b5d5760405162461bcd60e51b81526004016108689061489f565b600260c9556000818152610137602090815260408083203380855292529091206005015460ff16610bdb5760405162461bcd60e51b815260206004820152602260248201527f524549544e46543a206c69717569646174696f6e207374696c6c206f6e20686f6044820152611b1960f21b6064820152608401610868565b610be581836130ea565b60008281526065602090815260408083206001600160a01b0385168452825280832054858452610136909252822060010154909190610c2490836148d6565b905060008111610c765760405162461bcd60e51b815260206004820181905260248201527f524549544e46543a206e6f206c69717569646174696f6e20746f20636c61696d6044820152606401610868565b60008481526101396020526040902054811115610ca55760405162461bcd60e51b8152600401610868906148f5565b600084815261013a60205260409081902054905163a9059cbb60e01b81526001600160a01b0385811660048301526024820184905290911690819063a9059cbb90604401602060405180830381600087803b158015610d0357600080fd5b505af1158015610d17573d6000803e3d6000fd5b505050506040513d601f19601f82011682018060405250810190610d3b919061493c565b610d575760405162461bcd60e51b815260040161086890614959565b506000848152610137602090815260408083206001600160a01b0390961680845295825280832060040180548501905586835261013d8252808320868452825280832094909455858252606581528382209482529384528281208190559384526101399092529091208054919091039055600160c955565b60fe60205260009081526040902080546109e790614845565b610103546001600160a01b03163314610e135760405162461bcd60e51b81526004016108689061498e565b6001600160a01b0316600090815261010260205260409020805460ff19166001179055565b610103546001600160a01b03163314610e635760405162461bcd60e51b81526004016108689061498e565b6001600160a01b0316600090815261010260205260409020805460ff19169055565b8151835114610ea65760405162461bcd60e51b8152600401610868906149d0565b6001600160a01b038416610ecc5760405162461bcd60e51b815260040161086890614a18565b6001600160a01b038516331480610ee85750610ee885336107b6565b610f4f5760405162461bcd60e51b815260206004820152603260248201527f455243313135353a207472616e736665722063616c6c6572206973206e6f74206044820152711bdddb995c881b9bdc88185c1c1c9bdd995960721b6064820152608401610868565b3360005b8451811015610ff3576000858281518110610f7057610f706147f1565b602002602001015190506000858381518110610f8e57610f8e6147f1565b60209081029190910181015160008481526065835260408082206001600160a01b038e168352909352919091205490915081811015610fdf5760405162461bcd60e51b815260040161086890614a5d565b50505080610fec90614aa7565b9050610f53565b5060005b8451811015611043576000858281518110611014576110146147f1565b6020026020010151905061102888826130ea565b61103287826130ea565b5061103c81614aa7565b9050610ff7565b5060005b8451811015611166576000858281518110611064576110646147f1565b602002602001015190506000858381518110611082576110826147f1565b60209081029190910181015160008481526065835260408082206001600160a01b038e1683529093529182208054828103909155909250906110c4848c612795565b806110d457506110d4848b612795565b90508061111957600084815261013c602090815260408083206001600160a01b038e1684529091528120805485929061110e908490614ac2565b909155506111519050565b60008481526065602090815260408083206001600160a01b038e1684529091528120805485929061114b908490614ac2565b90915550505b505050508061115f90614aa7565b9050611047565b50846001600160a01b0316866001600160a01b0316826001600160a01b03167f4a39dc06d4c0dbc64b70af90fd698a233a518aa5d07e595d983b8c0526c8f7fb87876040516111b6929190614ada565b60405180910390a46111cc818787878787613396565b505050505050565b600081815261013c602090815260408083203380855290835281842054858552606584528285209185529252822054839183916112119190614ac2565b1161122e5760405162461bcd60e51b815260040161086890614b08565b60008381526101376020908152604080832033845290915290206003015491505b50919050565b6097546001600160a01b0316331461127f5760405162461bcd60e51b815260040161086890614b5d565b6001600160a01b0381166112d55760405162461bcd60e51b815260206004820181905260248201527f4b59432041646d696e2063616e6e6f74206265207a65726f20616464726573736044820152606401610868565b6112de8161350a565b50565b606081518351146113465760405162461bcd60e51b815260206004820152602960248201527f455243313135353a206163636f756e747320616e6420696473206c656e677468604482015268040dad2e6dac2e8c6d60bb1b6064820152608401610868565b600083516001600160401b0381111561136157611361613f60565b60405190808252806020026020018201604052801561138a578160200160208202803683370190505b50905060005b8451811015611402576113d58582815181106113ae576113ae6147f1565b60200260200101518583815181106113c8576113c86147f1565b6020026020010151610974565b8282815181106113e7576113e76147f1565b60209081029190910101526113fb81614aa7565b9050611390565b509392505050565b600081815261013c602090815260408083203380855290835281842054858552606584528285209185529252822054839183916114479190614ac2565b116114645760405162461bcd60e51b815260040161086890614b08565b505060009081526101376020908152604080832033845290915290206004015490565b6097546001600160a01b031633146114b15760405162461bcd60e51b815260040161086890614b5d565b6114bb600061350a565b565b6000828152610136602052604081206002018054839081106114e1576114e16147f1565b9060005260206000200154905092915050565b600083815260fc602052604090205483906001600160a01b0316331461152c5760405162461bcd60e51b8152600401610868906147a0565b6115388585858561352d565b600084815260fd60205260409020546115519084613600565b600094855260fd60205260409094209390935550505050565b600082815261013a60205260409020546001600160a01b0316806323b872dd336040516001600160e01b031960e084901b1681526001600160a01b03909116600482015230602482015260448101859052606401602060405180830381600087803b1580156115d857600080fd5b505af11580156115ec573d6000803e3d6000fd5b505050506040513d601f19601f82011682018060405250810190611610919061493c565b61162c5760405162461bcd60e51b815260040161086890614959565b600083815261013960205260409020546116469083613600565b60009384526101396020526040909320929092555050565b610103546001600160a01b031633146116895760405162461bcd60e51b81526004016108689061498e565b60005b818110156116fc57600161010260008585858181106116ad576116ad6147f1565b90506020020160208101906116c29190613f45565b6001600160a01b031681526020810191909152604001600020805460ff1916911515919091179055806116f481614aa7565b91505061168c565b505050565b6097546001600160a01b0316331461172b5760405162461bcd60e51b815260040161086890614b5d565b6112de8161360c565b6097546001600160a01b0316331461175e5760405162461bcd60e51b815260040161086890614b5d565b6114bb600061361f565b6097546001600160a01b031633146117925760405162461bcd60e51b815260040161086890614b5d565b80516117a59060ff906020840190613ccf565b5050565b61010180546109e790614845565b60006001600160a01b0382166117cc57600080fd5b506001600160a01b03166000908152610102602052604090205460ff1690565b600081815261013660209081526040808320815160a0810183528154815260018201548185015260028201805484518187028101870186528181528796879694959486019391929083018282801561186357602002820191906000526020600020905b81548152602001906001019080831161184f575b50505091835250506003919091015463ffffffff8116602083015264010000000090046001600160401b0316604090910152905060005b816060015163ffffffff168163ffffffff1610156118f35781604001518163ffffffff16815181106118ce576118ce6147f1565b6020026020010151836118e19190614ac2565b92506118ec81614ba3565b905061189a565b50909392505050565b6117a5338383613671565b600082815261013a60205260409020546001600160a01b0316806323b872dd336040516001600160e01b031960e084901b1681526001600160a01b03909116600482015230602482015260448101859052606401602060405180830381600087803b15801561197557600080fd5b505af1158015611989573d6000803e3d6000fd5b505050506040513d601f19601f820116820180604052508101906119ad919061493c565b6119c95760405162461bcd60e51b815260040161086890614959565b600083815261013860205260409020546119e39083613600565b60009384526101386020526040909320929092555050565b6000611a076001613752565b90508015611a1f576000805461ff0019166101001790555b611a2a8484846137df565b611a326138a1565b801561096e576000805461ff0019169055604051600181527f7f26b83ff96e1f2b6a682f133852f6798a09c465da95921460cefb3847402498906020015b60405180910390a150505050565b600085815260fc602052604090205485906001600160a01b03163314611ab65760405162461bcd60e51b8152600401610868906147a0565b50604080516080810182528481526001600160401b039586166020808301918252948716828401908152938716606083019081526000988952610135865283892092518355905160019092018054945191519288166001600160801b031990951694909417600160401b918816919091021767ffffffffffffffff60801b1916600160801b91909616029490941790556101369052912055565b8151835114611bba5760405162461bcd60e51b815260206004820152603060248201527f455243313135354d696e744275726e2362617463684d696e743a20494e56414c60448201526f09288be82a4a482b2a6be988a9c8ea8960831b6064820152608401610868565b60005b8351811015611cd2576000848281518110611bda57611bda6147f1565b602090810291909101810151600081815260fc9092526040909120549091506001600160a01b03163314611c685760405162461bcd60e51b815260206004820152602f60248201527f455243313135355472616461626c652362617463684d696e743a204f4e4c595f60448201526e10d491505513d497d0531313d5d151608a1b6064820152608401610868565b6000848381518110611c7c57611c7c6147f1565b60200260200101519050611cac8160fd60008581526020019081526020016000205461360090919063ffffffff16565b600092835260fd6020526040909220919091555080611cca81614aa7565b915050611bbd565b5061096e848484846138d0565b6097546001600160a01b03163314611d095760405162461bcd60e51b815260040161086890614b5d565b6001600160a01b038116611d745760405162461bcd60e51b815260206004820152602c60248201527f476f7665726e61626c653a206e657720676f7665726e6f72206973207468652060448201526b7a65726f206164647265737360a01b6064820152608401610868565b6112de8161361f565b6097546000906001600160a01b03163314611daa5760405162461bcd60e51b815260040161086890614b5d565b6000611db4613a1c565b9050611dbe613a32565b611dc88982613a49565b8515611e2357807f6bb7ff708619ba0610cba295a58592e0451dee2622938c8755667688daf3529b8888604051611e00929190614bc7565b60405180910390a2600081815260fe60205260409020611e21908888613d53565b505b600081815261013a6020908152604080832080546001600160a01b038a166001600160a01b031990911617905580516080810182528381528083018481528183018581526060830186815287875261013586528487209351845591516001939093018054915192516001600160401b03908116600160801b0267ffffffffffffffff60801b19948216600160401b026001600160801b031990941691909516179190911791909116919091179055805160a0810182528381528083019390935280516064808252610ca082018352918401929091908201610c8080368337505050815260006020808301829052604092830182905284825261013681529082902083518155838201516001820155918301518051611f479260028501920190613dc7565b506060820151600390910180546080909301516001600160401b0316640100000000026bffffffffffffffffffffffff1990931663ffffffff90921691909117919091179055604080516020601f8601819004810282018101909252848152611fd1918b9184918c9190899089908190840183828082843760009201919091525061352d92505050565b600081815260fd602052604090819020899055517f748fd6a01f0f0df2e8354235caf8fdf83654b5a47b2358be7e7bffb16b726ceb906120269083908c909182526001600160a01b0316602082015260400190565b60405180910390a198975050505050505050565b336000908152610102602052604090205460ff1661206a5760405162461bcd60e51b81526004016108689061487a565b600260c954141561208d5760405162461bcd60e51b81526004016108689061489f565b600260c9553361209d81836130ea565b6000828152610137602090815260408083206001600160a01b0385168452909152902060020154806121115760405162461bcd60e51b815260206004820181905260248201527f524549544e46543a206e6f206d6f726520636c61696d61626c65207969656c646044820152606401610868565b600083815261013860205260409020548111156121405760405162461bcd60e51b8152600401610868906148f5565b600083815261013a60205260409081902054905163a9059cbb60e01b81526001600160a01b0384811660048301526024820184905290911690819063a9059cbb90604401602060405180830381600087803b15801561219e57600080fd5b505af11580156121b2573d6000803e3d6000fd5b505050506040513d601f19601f820116820180604052508101906121d6919061493c565b6121f25760405162461bcd60e51b815260040161086890614959565b506000838152610137602090815260408083206001600160a01b0390951683529381528382206002810183905560030180548401905593815261013890935291208054919091039055600160c955565b336000908152610102602052604090205460ff166122725760405162461bcd60e51b81526004016108689061487a565b600260c95414156122955760405162461bcd60e51b81526004016108689061489f565b600260c955600081815261013c6020908152604080832033808552925290912054806122fa5760405162461bcd60e51b8152602060048201526014602482015273105b1c9958591e481d5b9b1bd8dad95908185b1b60621b6044820152606401610868565b600083815261013560209081526040808320600101546101369092528220546305f5e10091600160801b90046001600160401b03169061233b9085906148d6565b61234591906148d6565b61234f9190614bf6565b600085815261013a6020526040908190205490516323b872dd60e01b81526001600160a01b0386811660048301523060248301526044820184905292935091169081906323b872dd90606401602060405180830381600087803b1580156123b557600080fd5b505af11580156123c9573d6000803e3d6000fd5b505050506040513d601f19601f820116820180604052508101906123ed919061493c565b6124395760405162461bcd60e51b815260206004820152601a60248201527f524549544e46543a20436f756c64206e6f7420706179207461780000000000006044820152606401610868565b5050600083815261013c602090815260408083206001600160a01b0395909516808452948252808320839055858352606582528083208584528252808320805494909401909355938152610137845281812092815291909252908120600181810180546002909301805490930190925591905560c955565b600081815260fc602052604090205481906001600160a01b031633146124e95760405162461bcd60e51b8152600401610868906147a0565b5060009081526101366020526040812060010155565b6001600160a01b0382166125695760405162461bcd60e51b815260206004820152602b60248201527f455243313135355472616461626c652373657443726561746f723a20494e564160448201526a4c49445f4144445245535360a81b6064820152608401610868565b60005b81518110156116fc576000828281518110612589576125896147f1565b6020026020010151905061259a3390565b600082815260fc60205260409020546001600160a01b0390811691161461261c5760405162461bcd60e51b815260206004820152603060248201527f455243313135355472616461626c652373657443726561746f723a204f4e4c5960448201526f17d0d491505513d497d0531313d5d15160821b6064820152608401610868565b6126268482613a49565b508061263181614aa7565b91505061256c565b610103546001600160a01b031633146126645760405162461bcd60e51b81526004016108689061498e565b60005b818110156116fc5760006101026000858585818110612688576126886147f1565b905060200201602081019061269d9190613f45565b6001600160a01b031681526020810191909152604001600020805460ff1916911515919091179055806126cf81614aa7565b915050612667565b600083815260fc602052604090205483906001600160a01b0316331461270f5760405162461bcd60e51b8152600401610868906147a0565b60005b8281101561278e5760008581526101376020526040812060019186868581811061273e5761273e6147f1565b90506020020160208101906127539190613f45565b6001600160a01b031681526020810191909152604001600020600501805460ff191691151591909117905561278781614aa7565b9050612712565b5050505050565b600091825261013b6020526040909120546001600160a01b0391821691161490565b600081815261013c602090815260408083203380855290835281842054858552606584528285209185529252822054839183916127f49190614ac2565b116128115760405162461bcd60e51b815260040161086890614b08565b60008381526101376020908152604080832033808552925290912060050154610100900460ff1661284657600092505061124f565b60008481526065602090815260408083206001600160a01b038516808552908352818420548885526101368452828520600301546101378552838620928652919093529083206005015491929163ffffffff918216916201000090910416805b8263ffffffff168163ffffffff16101561291857600089815261013660205260409020600201805486919063ffffffff84169081106128e7576128e76147f1565b90600052602060002001546128fc91906148d6565b6129069085614ac2565b935061291181614ba3565b90506128a6565b506000888152610137602090815260408083206001600160a01b038916845290915290206002015461294a9084614ac2565b98975050505050505050565b600081815261013c602090815260408083203380855290835281842054858552606584528285209185529252822054839183916129939190614ac2565b116129b05760405162461bcd60e51b815260040161086890614b08565b60008381526101376020908152604080832033808552925290912060050154610100900460ff166129e557600092505061124f565b600084815261013c602090815260408083206001600160a01b038516808552908352818420548885526101368452828520600301546101378552838620928652919093529083206005015491929163ffffffff918216916201000090910416805b8263ffffffff168163ffffffff161015612ab857600089815261013660205260409020600201805486919063ffffffff8416908110612a8757612a876147f1565b9060005260206000200154612a9c91906148d6565b612aa69085614ac2565b9350612ab181614ba3565b9050612a46565b506000888152610137602090815260408083206001600160a01b038916845290915290206001015461294a9084614ac2565b600082815260fc602052604090205482906001600160a01b03163314612b225760405162461bcd60e51b8152600401610868906147a0565b506000918252610136602052604090912055565b606060ff8054612b4590614845565b80601f0160208091040260200160405190810160405280929190818152602001828054612b7190614845565b8015612bbe5780601f10612b9357610100808354040283529160200191612bbe565b820191906000526020600020905b815481529060010190602001808311612ba157829003601f168201915b5050505050905090565b6001600160a01b038416612bee5760405162461bcd60e51b815260040161086890614a18565b6001600160a01b038516331480612c0a5750612c0a85336107b6565b612c685760405162461bcd60e51b815260206004820152602960248201527f455243313135353a2063616c6c6572206973206e6f74206f776e6572206e6f7260448201526808185c1c1c9bdd995960ba1b6064820152608401610868565b836001600160a01b0316856001600160a01b03161415612cf05760405162461bcd60e51b815260206004820152603760248201527f455243313135353a2046726f6d5f41646472657373206d75737420626520646960448201527f66666572656e742066726f6d20546f5f416464726573730000000000000000006064820152608401610868565b336000612cfc85613a77565b90506000612d0985613a77565b905060008681526065602090815260408083206001600160a01b038c16845290915290205485811015612d4e5760405162461bcd60e51b815260040161086890614a5d565b612d5889886130ea565b612d6288886130ea565b60008781526065602090815260408083206001600160a01b038d16845290915281208783039055612d93888b612795565b80612da35750612da3888a612795565b905080612de857600088815261013c602090815260408083206001600160a01b038d16845290915281208054899290612ddd908490614ac2565b90915550612e209050565b60008881526065602090815260408083206001600160a01b038d16845290915281208054899290612e1a908490614ac2565b90915550505b886001600160a01b03168a6001600160a01b0316866001600160a01b03167fc3d58168c5ae7397731d063d5bbf3d657854427343f4c083240f7aacaa2d0f628b8b604051612e78929190918252602082015260400190565b60405180910390a4612e8e858b8b8b8b8b613ac2565b50505050505050505050565b600082815260fc602052604090205482906001600160a01b03163314612ed25760405162461bcd60e51b8152600401610868906147a0565b6001600160a01b0382163b612f225760405162461bcd60e51b8152602060048201526016602482015275125413c81b5d5cdd08189948184818dbdb9d1c9858dd60521b6044820152606401610868565b50600091825261013b602052604090912080546001600160a01b0319166001600160a01b03909216919091179055565b600083815260fc602052604090205483906001600160a01b03163314612f8a5760405162461bcd60e51b8152600401610868906147a0565b60005b8281101561278e5760008581526101376020526040812081868685818110612fb757612fb76147f1565b9050602002016020810190612fcc9190613f45565b6001600160a01b031681526020810191909152604001600020600501805460ff191691151591909117905561300081614aa7565b9050612f8d565b600082815260fc602052604090205482906001600160a01b0316331461303f5760405162461bcd60e51b8152600401610868906147a0565b506000918252610136602052604090912060010155565b60006001600160a01b0383166130c25760405162461bcd60e51b815260206004820152602b60248201527f455243313135353a2062616c616e636520717565727920666f7220746865207a60448201526a65726f206164647265737360a81b6064820152608401610868565b5060009081526065602090815260408083206001600160a01b03949094168352929052205490565b6130f48183612795565b156130fd575050565b6000818152610137602090815260408083206001600160a01b0386168452909152902060050154610100900460ff16613210576040805161010080820183526001600160a01b0385811680845260006020808601828152868801838152606088018481526080890185815260a08a01868152600160c08c0181815260e08d018981528f8a5261013789528e8a209a8a52999097529b90962099518a546001600160a01b03191698169790971789559151988801989098559651600287015595516003860155915160048501559051600590930180549451915161ffff1990951693151561ff001916939093179015159091021765ffffffff000019166201000063ffffffff909316929092029190911790555b600081815261013c602090815260408083206001600160a01b03861680855290835281842054858552606584528285208286528452828520548686526101368552838620600301546101378652848720938752929094529184206005015484939163ffffffff9081169162010000900416805b8263ffffffff168163ffffffff1610156132e557600088815261013660205260408120600201805463ffffffff84169081106132c1576132c16147f1565b60009182526020909120015485810298909801978602969096019550600101613283565b506000878152610137602090815260408083206001600160a01b038c1684529091529020600501805465ffffffff000019166201000063ffffffff8516021790558515613359576000878152610137602090815260408083206001600160a01b038c16845290915290206002018054870190555b841561338c576000878152610137602090815260408083206001600160a01b038c16845290915290206001018054860190555b5050505050505050565b6001600160a01b0384163b156111cc5760405163bc197c8160e01b81526001600160a01b0385169063bc197c81906133da9089908990889088908890600401614c18565b602060405180830381600087803b1580156133f457600080fd5b505af1925050508015613424575060408051601f3d908101601f1916820190925261342191810190614c6a565b60015b6134d157613430614c87565b806308c379a0141561346a5750613445614ca3565b80613450575061346c565b8060405162461bcd60e51b81526004016108689190613f19565b505b60405162461bcd60e51b815260206004820152603460248201527f455243313135353a207472616e7366657220746f206e6f6e20455243313135356044820152732932b1b2b4bb32b91034b6b83632b6b2b73a32b960611b6064820152608401610868565b6001600160e01b0319811663bc197c8160e01b146135015760405162461bcd60e51b815260040161086890614d2c565b50505050505050565b61010380546001600160a01b0319166001600160a01b0392909216919091179055565b6001600160a01b0384166135535760405162461bcd60e51b815260040161086890614d74565b33600061355f85613a77565b9050600061356c85613a77565b905060008681526065602090815260408083206001600160a01b038b168452909152812080548792906135a0908490614ac2565b909155505060408051878152602081018790526001600160a01b03808a1692600092918716917fc3d58168c5ae7397731d063d5bbf3d657854427343f4c083240f7aacaa2d0f62910160405180910390a461350183600089898989613ac2565b60006109808284614ac2565b80516117a5906067906020840190613ccf565b609780546001600160a01b038381166001600160a01b0319831681179093556040519116919082907fc7c0c772add429241571afb3805861fb3cfa2af374534088b76cdb4325a87e9a90600090a35050565b816001600160a01b0316836001600160a01b031614156136e55760405162461bcd60e51b815260206004820152602960248201527f455243313135353a2073657474696e6720617070726f76616c20737461747573604482015268103337b91039b2b63360b91b6064820152608401610868565b6001600160a01b03838116600081815260666020908152604080832094871680845294825291829020805460ff191686151590811790915591519182527f17307eab39ab6107e8899845ad3d59bd9653f200f220920489ca2b5937696c31910160405180910390a3505050565b60008054610100900460ff1615613799578160ff1660011480156137755750303b155b6137915760405162461bcd60e51b815260040161086890614db5565b506000919050565b60005460ff8084169116106137c05760405162461bcd60e51b815260040161086890614db5565b506000805460ff191660ff92909216919091179055600190565b919050565b60006137eb6001613752565b90508015613803576000805461ff0019166101001790555b61380c82613b8c565b613814613bbc565b61381c613beb565b835161383090610100906020870190613ccf565b50825161384590610101906020860190613ccf565b50600060fb55815161385e9060ff906020850190613ccf565b50801561096e576000805461ff0019169055604051600181527f7f26b83ff96e1f2b6a682f133852f6798a09c465da95921460cefb384740249890602001611a70565b600054610100900460ff166138c85760405162461bcd60e51b815260040161086890614e03565b6114bb613c1a565b6001600160a01b0384166138f65760405162461bcd60e51b815260040161086890614d74565b81518351146139175760405162461bcd60e51b8152600401610868906149d0565b3360005b84518110156139b457838181518110613936576139366147f1565b602002602001015160656000878481518110613954576139546147f1565b602002602001015181526020019081526020016000206000886001600160a01b03166001600160a01b03168152602001908152602001600020600082825461399c9190614ac2565b909155508190506139ac81614aa7565b91505061391b565b50846001600160a01b031660006001600160a01b0316826001600160a01b03167f4a39dc06d4c0dbc64b70af90fd698a233a518aa5d07e595d983b8c0526c8f7fb8787604051613a05929190614ada565b60405180910390a461278e81600087878787613396565b60fb54600090613a2d906001613600565b905090565b60fb8054906000613a4283614aa7565b9190505550565b600090815260fc6020526040902080546001600160a01b0319166001600160a01b0392909216919091179055565b60408051600180825281830190925260609160009190602080830190803683370190505090508281600081518110613ab157613ab16147f1565b602090810291909101015292915050565b6001600160a01b0384163b156111cc5760405163f23a6e6160e01b81526001600160a01b0385169063f23a6e6190613b069089908990889088908890600401614e4e565b602060405180830381600087803b158015613b2057600080fd5b505af1925050508015613b50575060408051601f3d908101601f19168201909252613b4d91810190614c6a565b60015b613b5c57613430614c87565b6001600160e01b0319811663f23a6e6160e01b146135015760405162461bcd60e51b815260040161086890614d2c565b600054610100900460ff16613bb35760405162461bcd60e51b815260040161086890614e03565b6112de81613c4a565b600054610100900460ff16613be35760405162461bcd60e51b815260040161086890614e03565b6114bb613c71565b600054610100900460ff16613c125760405162461bcd60e51b815260040161086890614e03565b6114bb613ca1565b600054610100900460ff16613c415760405162461bcd60e51b815260040161086890614e03565b6114bb3361350a565b600054610100900460ff1661172b5760405162461bcd60e51b815260040161086890614e03565b600054610100900460ff16613c985760405162461bcd60e51b815260040161086890614e03565b6114bb3361361f565b600054610100900460ff16613cc85760405162461bcd60e51b815260040161086890614e03565b600160c955565b828054613cdb90614845565b90600052602060002090601f016020900481019282613cfd5760008555613d43565b82601f10613d1657805160ff1916838001178555613d43565b82800160010185558215613d43579182015b82811115613d43578251825591602001919060010190613d28565b50613d4f929150613e01565b5090565b828054613d5f90614845565b90600052602060002090601f016020900481019282613d815760008555613d43565b82601f10613d9a5782800160ff19823516178555613d43565b82800160010185558215613d43579182015b82811115613d43578235825591602001919060010190613dac565b828054828255906000526020600020908101928215613d435791602002820182811115613d43578251825591602001919060010190613d28565b5b80821115613d4f5760008155600101613e02565b600080600060608486031215613e2b57600080fd5b8335925060208401359150604084013563ffffffff81168114613e4d57600080fd5b809150509250925092565b80356001600160a01b03811681146137da57600080fd5b60008060408385031215613e8257600080fd5b613e8b83613e58565b946020939093013593505050565b6001600160e01b0319811681146112de57600080fd5b600060208284031215613ec157600080fd5b813561098081613e99565b6000815180845260005b81811015613ef257602081850181015186830182015201613ed6565b81811115613f04576000602083870101525b50601f01601f19169290920160200192915050565b6020815260006109806020830184613ecc565b600060208284031215613f3e57600080fd5b5035919050565b600060208284031215613f5757600080fd5b61098082613e58565b634e487b7160e01b600052604160045260246000fd5b601f8201601f191681016001600160401b0381118282101715613f9b57613f9b613f60565b6040525050565b60006001600160401b03821115613fbb57613fbb613f60565b5060051b60200190565b600082601f830112613fd657600080fd5b81356020613fe382613fa2565b604051613ff08282613f76565b83815260059390931b850182019282810191508684111561401057600080fd5b8286015b8481101561402b5780358352918301918301614014565b509695505050505050565b600082601f83011261404757600080fd5b81356001600160401b0381111561406057614060613f60565b604051614077601f8301601f191660200182613f76565b81815284602083860101111561408c57600080fd5b816020850160208301376000918101602001919091529392505050565b600080600080600060a086880312156140c157600080fd5b6140ca86613e58565b94506140d860208701613e58565b935060408601356001600160401b03808211156140f457600080fd5b61410089838a01613fc5565b9450606088013591508082111561411657600080fd5b61412289838a01613fc5565b9350608088013591508082111561413857600080fd5b5061414588828901614036565b9150509295509295909350565b6000806040838503121561416557600080fd5b82356001600160401b038082111561417c57600080fd5b818501915085601f83011261419057600080fd5b8135602061419d82613fa2565b6040516141aa8282613f76565b83815260059390931b85018201928281019150898411156141ca57600080fd5b948201945b838610156141ef576141e086613e58565b825294820194908201906141cf565b9650508601359250508082111561420557600080fd5b5061421285828601613fc5565b9150509250929050565b600081518084526020808501945080840160005b8381101561424c57815187529582019590820190600101614230565b509495945050505050565b602081526000610980602083018461421c565b6000806040838503121561427d57600080fd5b50508035926020909101359150565b600080600080608085870312156142a257600080fd5b6142ab85613e58565b9350602085013592506040850135915060608501356001600160401b038111156142d457600080fd5b6142e087828801614036565b91505092959194509250565b60008083601f8401126142fe57600080fd5b5081356001600160401b0381111561431557600080fd5b6020830191508360208260051b850101111561433057600080fd5b9250929050565b6000806020838503121561434a57600080fd5b82356001600160401b0381111561436057600080fd5b61436c858286016142ec565b90969095509350505050565b60006020828403121561438a57600080fd5b81356001600160401b038111156143a057600080fd5b6143ac84828501614036565b949350505050565b80151581146112de57600080fd5b600080604083850312156143d557600080fd5b6143de83613e58565b915060208301356143ee816143b4565b809150509250929050565b60008060006060848603121561440e57600080fd5b83356001600160401b038082111561442557600080fd5b61443187838801614036565b9450602086013591508082111561444757600080fd5b61445387838801614036565b9350604086013591508082111561446957600080fd5b5061447686828701614036565b9150509250925092565b80356001600160401b03811681146137da57600080fd5b600080600080600060a086880312156144af57600080fd5b853594506144bf60208701614480565b9350604086013592506144d460608701614480565b91506144e260808701614480565b90509295509295909350565b6000806000806080858703121561450457600080fd5b61450d85613e58565b935060208501356001600160401b038082111561452957600080fd5b61453588838901613fc5565b9450604087013591508082111561454b57600080fd5b61455788838901613fc5565b9350606087013591508082111561456d57600080fd5b506142e087828801614036565b60008083601f84011261458c57600080fd5b5081356001600160401b038111156145a357600080fd5b60208301915083602082850101111561433057600080fd5b600080600080600080600060a0888a0312156145d657600080fd5b6145df88613e58565b96506020880135955060408801356001600160401b038082111561460257600080fd5b61460e8b838c0161457a565b909750955085915061462260608b01613e58565b945060808a013591508082111561463857600080fd5b506146458a828b0161457a565b989b979a50959850939692959293505050565b6000806040838503121561466b57600080fd5b61467483613e58565b915060208301356001600160401b0381111561468f57600080fd5b61421285828601613fc5565b6000806000604084860312156146b057600080fd5b8335925060208401356001600160401b038111156146cd57600080fd5b6146d9868287016142ec565b9497909650939450505050565b600080604083850312156146f957600080fd5b8235915061470960208401613e58565b90509250929050565b6000806040838503121561472557600080fd5b61472e83613e58565b915061470960208401613e58565b600080600080600060a0868803121561475457600080fd5b61475d86613e58565b945061476b60208701613e58565b9350604086013592506060860135915060808601356001600160401b0381111561479457600080fd5b61414588828901614036565b60208082526031908201527f455243313135355472616461626c652363726561746f724f6e6c793a204f4e4c6040820152701657d0d491505513d497d0531313d5d151607a1b606082015260800190565b634e487b7160e01b600052603260045260246000fd5b634e487b7160e01b600052601160045260246000fd5b600063ffffffff80831681851680830382111561483c5761483c614807565b01949350505050565b600181811c9082168061485957607f821691505b6020821081141561124f57634e487b7160e01b600052602260045260246000fd5b6020808252600b908201526a4e6f7420796574204b594360a81b604082015260600190565b6020808252601f908201527f5265656e7472616e637947756172643a207265656e7472616e742063616c6c00604082015260600190565b60008160001904831182151516156148f0576148f0614807565b500290565b60208082526027908201527f524549544e46543a206e656564206d6f72652066756e64696e67732066726f6d6040820152661034b9b9bab2b960c91b606082015260800190565b60006020828403121561494e57600080fd5b8151610980816143b4565b6020808252818101527f524549544e46543a20436f756c64206e6f74207472616e736665722066756e64604082015260600190565b60208082526022908201527f4b59434163636573733a2063616c6c6572206973206e6f74207468652061646d60408201526134b760f11b606082015260800190565b60208082526028908201527f455243313135353a2069647320616e6420616d6f756e7473206c656e677468206040820152670dad2e6dac2e8c6d60c31b606082015260800190565b60208082526025908201527f455243313135353a207472616e7366657220746f20746865207a65726f206164604082015264647265737360d81b606082015260800190565b6020808252602a908201527f455243313135353a20696e73756666696369656e742062616c616e636520666f60408201526939103a3930b739b332b960b11b606082015260800190565b6000600019821415614abb57614abb614807565b5060010190565b60008219821115614ad557614ad5614807565b500190565b604081526000614aed604083018561421c565b8281036020840152614aff818561421c565b95945050505050565b60208082526035908201527f455243313135355472616461626c65237368617265486f6c646572734f6e6c796040820152740e8813d3931657d3d5d3915494d7d0531313d5d151605a1b606082015260800190565b60208082526026908201527f476f7665726e61626c653a2063616c6c6572206973206e6f742074686520676f6040820152653b32b93737b960d11b606082015260800190565b600063ffffffff80831681811415614bbd57614bbd614807565b6001019392505050565b60208152816020820152818360408301376000818301604090810191909152601f909201601f19160101919050565b600082614c1357634e487b7160e01b600052601260045260246000fd5b500490565b6001600160a01b0386811682528516602082015260a060408201819052600090614c449083018661421c565b8281036060840152614c56818661421c565b9050828103608084015261294a8185613ecc565b600060208284031215614c7c57600080fd5b815161098081613e99565b600060033d1115614ca05760046000803e5060005160e01c5b90565b600060443d1015614cb15790565b6040516003193d81016004833e81513d6001600160401b038160248401118184111715614ce057505050505090565b8285019150815181811115614cf85750505050505090565b843d8701016020828501011115614d125750505050505090565b614d2160208286010187613f76565b509095945050505050565b60208082526028908201527f455243313135353a204552433131353552656365697665722072656a656374656040820152676420746f6b656e7360c01b606082015260800190565b60208082526021908201527f455243313135353a206d696e7420746f20746865207a65726f206164647265736040820152607360f81b606082015260800190565b6020808252602e908201527f496e697469616c697a61626c653a20636f6e747261637420697320616c72656160408201526d191e481a5b9a5d1a585b1a5e995960921b606082015260800190565b6020808252602b908201527f496e697469616c697a61626c653a20636f6e7472616374206973206e6f74206960408201526a6e697469616c697a696e6760a81b606082015260800190565b6001600160a01b03868116825285166020820152604081018490526060810183905260a060808201819052600090614e8890830184613ecc565b97965050505050505056fea2646970667358221220434923713f53ff0c460486e37e44d3a0a4ba62feb82c521551623c198de6e61864736f6c63430008090033",
  "linkReferences": {},
  "deployedLinkReferences": {}
}