{
  "_format": "hh-sol-artifact-1",
  "contractName": "REITNFT",
  "sourceName": "contracts/REITNFT.sol",
  "abi": [
    {
      "anonymous": false,
      "inputs": [
        {
          "indexed": true,
          "internalType": "address",
          "name": "account",
          "type": "address"
        },
        {
          "indexed": true,
          "internalType": "address",
          "name": "operator",
          "type": "address"
        },
        {
          "indexed": false,
          "internalType": "bool",
          "name": "approved",
          "type": "bool"
        }
      ],
      "name": "ApprovalForAll",
      "type": "event"
    },
    {
      "anonymous": false,
      "inputs": [
        {
          "indexed": false,
          "internalType": "uint256",
          "name": "id",
          "type": "uint256"
        },
        {
          "indexed": false,
          "internalType": "address",
          "name": "creator",
          "type": "address"
        }
      ],
      "name": "Create",
      "type": "event"
    },
    {
      "anonymous": false,
      "inputs": [
        {
          "indexed": true,
          "internalType": "address",
          "name": "previousGovernor",
          "type": "address"
        },
        {
          "indexed": true,
          "internalType": "address",
          "name": "newGovernor",
          "type": "address"
        }
      ],
      "name": "GovernorshipTransferred",
      "type": "event"
    },
    {
      "anonymous": false,
      "inputs": [
        {
          "indexed": false,
          "internalType": "uint8",
          "name": "version",
          "type": "uint8"
        }
      ],
      "name": "Initialized",
      "type": "event"
    },
    {
      "anonymous": false,
      "inputs": [
        {
          "indexed": true,
          "internalType": "address",
          "name": "operator",
          "type": "address"
        },
        {
          "indexed": true,
          "internalType": "address",
          "name": "from",
          "type": "address"
        },
        {
          "indexed": true,
          "internalType": "address",
          "name": "to",
          "type": "address"
        },
        {
          "indexed": false,
          "internalType": "uint256[]",
          "name": "ids",
          "type": "uint256[]"
        },
        {
          "indexed": false,
          "internalType": "uint256[]",
          "name": "values",
          "type": "uint256[]"
        }
      ],
      "name": "TransferBatch",
      "type": "event"
    },
    {
      "anonymous": false,
      "inputs": [
        {
          "indexed": true,
          "internalType": "address",
          "name": "operator",
          "type": "address"
        },
        {
          "indexed": true,
          "internalType": "address",
          "name": "from",
          "type": "address"
        },
        {
          "indexed": true,
          "internalType": "address",
          "name": "to",
          "type": "address"
        },
        {
          "indexed": false,
          "internalType": "uint256",
          "name": "id",
          "type": "uint256"
        },
        {
          "indexed": false,
          "internalType": "uint256",
          "name": "value",
          "type": "uint256"
        }
      ],
      "name": "TransferSingle",
      "type": "event"
    },
    {
      "anonymous": false,
      "inputs": [
        {
          "indexed": false,
          "internalType": "string",
          "name": "value",
          "type": "string"
        },
        {
          "indexed": true,
          "internalType": "uint256",
          "name": "id",
          "type": "uint256"
        }
      ],
      "name": "URI",
      "type": "event"
    },
    {
      "inputs": [
        {
          "internalType": "address[]",
          "name": "accounts",
          "type": "address[]"
        }
      ],
      "name": "addManyToKYC",
      "outputs": [],
      "stateMutability": "nonpayable",
      "type": "function"
    },
    {
      "inputs": [
        {
          "internalType": "address",
          "name": "account",
          "type": "address"
        }
      ],
      "name": "addToKYC",
      "outputs": [],
      "stateMutability": "nonpayable",
      "type": "function"
    },
    {
      "inputs": [
        {
          "internalType": "address",
          "name": "account",
          "type": "address"
        },
        {
          "internalType": "uint256",
          "name": "id",
          "type": "uint256"
        }
      ],
      "name": "balanceOf",
      "outputs": [
        {
          "internalType": "uint256",
          "name": "",
          "type": "uint256"
        }
      ],
      "stateMutability": "view",
      "type": "function"
    },
    {
      "inputs": [
        {
          "internalType": "address[]",
          "name": "accounts",
          "type": "address[]"
        },
        {
          "internalType": "uint256[]",
          "name": "ids",
          "type": "uint256[]"
        }
      ],
      "name": "balanceOfBatch",
      "outputs": [
        {
          "internalType": "uint256[]",
          "name": "",
          "type": "uint256[]"
        }
      ],
      "stateMutability": "view",
      "type": "function"
    },
    {
      "inputs": [
        {
          "internalType": "address",
          "name": "_to",
          "type": "address"
        },
        {
          "internalType": "uint256[]",
          "name": "_ids",
          "type": "uint256[]"
        },
        {
          "internalType": "uint256[]",
          "name": "_quantities",
          "type": "uint256[]"
        },
        {
          "internalType": "bytes",
          "name": "_data",
          "type": "bytes"
        }
      ],
      "name": "batchMint",
      "outputs": [],
      "stateMutability": "nonpayable",
      "type": "function"
    },
    {
      "inputs": [
        {
          "internalType": "uint256",
          "name": "_id",
          "type": "uint256"
        }
      ],
      "name": "claimDividends",
      "outputs": [],
      "stateMutability": "nonpayable",
      "type": "function"
    },
    {
      "inputs": [],
      "name": "contractURI",
      "outputs": [
        {
          "internalType": "string",
          "name": "",
          "type": "string"
        }
      ],
      "stateMutability": "view",
      "type": "function"
    },
    {
      "inputs": [
        {
          "internalType": "address",
          "name": "_initialOwner",
          "type": "address"
        },
        {
          "internalType": "uint256",
          "name": "_initialSupply",
          "type": "uint256"
        },
        {
          "internalType": "string",
          "name": "_uri",
          "type": "string"
        },
        {
          "internalType": "address",
          "name": "_fundingToken",
          "type": "address"
        },
        {
          "internalType": "bytes",
          "name": "_data",
          "type": "bytes"
        }
      ],
      "name": "createREIT",
      "outputs": [
        {
          "internalType": "uint256",
          "name": "",
          "type": "uint256"
        }
      ],
      "stateMutability": "nonpayable",
      "type": "function"
    },
    {
      "inputs": [
        {
          "internalType": "uint256",
          "name": "",
          "type": "uint256"
        }
      ],
      "name": "creators",
      "outputs": [
        {
          "internalType": "address",
          "name": "",
          "type": "address"
        }
      ],
      "stateMutability": "view",
      "type": "function"
    },
    {
      "inputs": [
        {
          "internalType": "uint256",
          "name": "_id",
          "type": "uint256"
        },
        {
          "internalType": "uint256",
          "name": "amount",
          "type": "uint256"
        }
      ],
      "name": "fundREITVault",
      "outputs": [],
      "stateMutability": "nonpayable",
      "type": "function"
    },
    {
      "inputs": [
        {
          "internalType": "uint256",
          "name": "_id",
          "type": "uint256"
        }
      ],
      "name": "getClaimedDividends",
      "outputs": [
        {
          "internalType": "uint256",
          "name": "",
          "type": "uint256"
        }
      ],
      "stateMutability": "view",
      "type": "function"
    },
    {
      "inputs": [
        {
          "internalType": "uint256",
          "name": "_id",
          "type": "uint256"
        }
      ],
      "name": "getIPOContract",
      "outputs": [
        {
          "internalType": "address",
          "name": "",
          "type": "address"
        }
      ],
      "stateMutability": "view",
      "type": "function"
    },
    {
      "inputs": [
        {
          "internalType": "uint256",
          "name": "_id",
          "type": "uint256"
        }
      ],
      "name": "getLockedYieldDividends",
      "outputs": [
        {
          "internalType": "uint256",
          "name": "",
          "type": "uint256"
        }
      ],
      "stateMutability": "view",
      "type": "function"
    },
    {
      "inputs": [
        {
          "internalType": "uint256",
          "name": "_id",
          "type": "uint256"
        }
      ],
      "name": "getShareUnitPrice",
      "outputs": [
        {
          "internalType": "uint256",
          "name": "",
          "type": "uint256"
        }
      ],
      "stateMutability": "view",
      "type": "function"
    },
    {
      "inputs": [
        {
          "internalType": "uint256",
          "name": "_id",
          "type": "uint256"
        }
      ],
      "name": "getTotalClaimableDividends",
      "outputs": [
        {
          "internalType": "uint256",
          "name": "",
          "type": "uint256"
        }
      ],
      "stateMutability": "view",
      "type": "function"
    },
    {
      "inputs": [
        {
          "internalType": "uint256",
          "name": "_id",
          "type": "uint256"
        }
      ],
      "name": "getTotalYieldDividendPerShare",
      "outputs": [
        {
          "internalType": "uint256",
          "name": "",
          "type": "uint256"
        }
      ],
      "stateMutability": "view",
      "type": "function"
    },
    {
      "inputs": [
        {
          "internalType": "uint256",
          "name": "_id",
          "type": "uint256"
        },
        {
          "internalType": "uint256",
          "name": "index",
          "type": "uint256"
        }
      ],
      "name": "getYieldDividendPerShareAt",
      "outputs": [
        {
          "internalType": "uint256",
          "name": "",
          "type": "uint256"
        }
      ],
      "stateMutability": "view",
      "type": "function"
    },
    {
      "inputs": [],
      "name": "governor",
      "outputs": [
        {
          "internalType": "address",
          "name": "",
          "type": "address"
        }
      ],
      "stateMutability": "view",
      "type": "function"
    },
    {
      "inputs": [
        {
          "internalType": "string",
          "name": "_name",
          "type": "string"
        },
        {
          "internalType": "string",
          "name": "_symbol",
          "type": "string"
        },
        {
          "internalType": "string",
          "name": "_uri",
          "type": "string"
        }
      ],
      "name": "initialize",
      "outputs": [],
      "stateMutability": "nonpayable",
      "type": "function"
    },
    {
      "inputs": [
        {
          "internalType": "uint256",
          "name": "_id",
          "type": "uint256"
        },
        {
          "internalType": "uint64",
          "name": "initiateTime",
          "type": "uint64"
        },
        {
          "internalType": "uint256",
          "name": "unitValue",
          "type": "uint256"
        },
        {
          "internalType": "uint64",
          "name": "liquidationTime",
          "type": "uint64"
        },
        {
          "internalType": "uint64",
          "name": "transferTax",
          "type": "uint64"
        }
      ],
      "name": "initiateREIT",
      "outputs": [],
      "stateMutability": "nonpayable",
      "type": "function"
    },
    {
      "inputs": [
        {
          "internalType": "address",
          "name": "account",
          "type": "address"
        },
        {
          "internalType": "address",
          "name": "operator",
          "type": "address"
        }
      ],
      "name": "isApprovedForAll",
      "outputs": [
        {
          "internalType": "bool",
          "name": "",
          "type": "bool"
        }
      ],
      "stateMutability": "view",
      "type": "function"
    },
    {
      "inputs": [
        {
          "internalType": "uint256",
          "name": "_id",
          "type": "uint256"
        },
        {
          "internalType": "address",
          "name": "account",
          "type": "address"
        }
      ],
      "name": "isIPOContract",
      "outputs": [
        {
          "internalType": "bool",
          "name": "",
          "type": "bool"
        }
      ],
      "stateMutability": "view",
      "type": "function"
    },
    {
      "inputs": [
        {
          "internalType": "address",
          "name": "account",
          "type": "address"
        }
      ],
      "name": "isKYC",
      "outputs": [
        {
          "internalType": "bool",
          "name": "",
          "type": "bool"
        }
      ],
      "stateMutability": "view",
      "type": "function"
    },
    {
      "inputs": [
        {
          "internalType": "address",
          "name": "account",
          "type": "address"
        },
        {
          "internalType": "uint256",
          "name": "id",
          "type": "uint256"
        }
      ],
      "name": "lockingBalanceOf",
      "outputs": [
        {
          "internalType": "uint256",
          "name": "",
          "type": "uint256"
        }
      ],
      "stateMutability": "view",
      "type": "function"
    },
    {
      "inputs": [
        {
          "internalType": "address",
          "name": "_to",
          "type": "address"
        },
        {
          "internalType": "uint256",
          "name": "_id",
          "type": "uint256"
        },
        {
          "internalType": "uint256",
          "name": "_quantity",
          "type": "uint256"
        },
        {
          "internalType": "bytes",
          "name": "_data",
          "type": "bytes"
        }
      ],
      "name": "mint",
      "outputs": [],
      "stateMutability": "nonpayable",
      "type": "function"
    },
    {
      "inputs": [],
      "name": "name",
      "outputs": [
        {
          "internalType": "string",
          "name": "",
          "type": "string"
        }
      ],
      "stateMutability": "view",
      "type": "function"
    },
    {
      "inputs": [
        {
          "internalType": "uint256",
          "name": "_id",
          "type": "uint256"
        }
      ],
      "name": "redeemLockedBalances",
      "outputs": [],
      "stateMutability": "nonpayable",
      "type": "function"
    },
    {
      "inputs": [
        {
          "internalType": "address",
          "name": "account",
          "type": "address"
        }
      ],
      "name": "removeKYC",
      "outputs": [],
      "stateMutability": "nonpayable",
      "type": "function"
    },
    {
      "inputs": [
        {
          "internalType": "address[]",
          "name": "accounts",
          "type": "address[]"
        }
      ],
      "name": "removeManyKYC",
      "outputs": [],
      "stateMutability": "nonpayable",
      "type": "function"
    },
    {
      "inputs": [],
      "name": "renounceGovernorship",
      "outputs": [],
      "stateMutability": "nonpayable",
      "type": "function"
    },
    {
      "inputs": [],
      "name": "revokeKYCAdmin",
      "outputs": [],
      "stateMutability": "nonpayable",
      "type": "function"
    },
    {
      "inputs": [
        {
          "internalType": "address",
          "name": "from",
          "type": "address"
        },
        {
          "internalType": "address",
          "name": "to",
          "type": "address"
        },
        {
          "internalType": "uint256[]",
          "name": "ids",
          "type": "uint256[]"
        },
        {
          "internalType": "uint256[]",
          "name": "amounts",
          "type": "uint256[]"
        },
        {
          "internalType": "bytes",
          "name": "data",
          "type": "bytes"
        }
      ],
      "name": "safeBatchTransferFrom",
      "outputs": [],
      "stateMutability": "nonpayable",
      "type": "function"
    },
    {
      "inputs": [
        {
          "internalType": "address",
          "name": "from",
          "type": "address"
        },
        {
          "internalType": "address",
          "name": "to",
          "type": "address"
        },
        {
          "internalType": "uint256",
          "name": "id",
          "type": "uint256"
        },
        {
          "internalType": "uint256",
          "name": "amount",
          "type": "uint256"
        },
        {
          "internalType": "bytes",
          "name": "data",
          "type": "bytes"
        }
      ],
      "name": "safeTransferFrom",
      "outputs": [],
      "stateMutability": "nonpayable",
      "type": "function"
    },
    {
      "inputs": [
        {
          "internalType": "address",
          "name": "operator",
          "type": "address"
        },
        {
          "internalType": "bool",
          "name": "approved",
          "type": "bool"
        }
      ],
      "name": "setApprovalForAll",
      "outputs": [],
      "stateMutability": "nonpayable",
      "type": "function"
    },
    {
      "inputs": [
        {
          "internalType": "string",
          "name": "_newBaseMetadataURI",
          "type": "string"
        }
      ],
      "name": "setBaseMetadataURI",
      "outputs": [],
      "stateMutability": "nonpayable",
      "type": "function"
    },
    {
      "inputs": [
        {
          "internalType": "string",
          "name": "_uri",
          "type": "string"
        }
      ],
      "name": "setContractURI",
      "outputs": [],
      "stateMutability": "nonpayable",
      "type": "function"
    },
    {
      "inputs": [
        {
          "internalType": "address",
          "name": "_to",
          "type": "address"
        },
        {
          "internalType": "uint256[]",
          "name": "_ids",
          "type": "uint256[]"
        }
      ],
      "name": "setCreator",
      "outputs": [],
      "stateMutability": "nonpayable",
      "type": "function"
    },
    {
      "inputs": [
        {
          "internalType": "uint256",
          "name": "_id",
          "type": "uint256"
        },
        {
          "internalType": "address",
          "name": "account",
          "type": "address"
        }
      ],
      "name": "setIPOContract",
      "outputs": [],
      "stateMutability": "nonpayable",
      "type": "function"
    },
    {
      "inputs": [
        {
          "internalType": "address",
          "name": "account",
          "type": "address"
        }
      ],
      "name": "setKYCAdmin",
      "outputs": [],
      "stateMutability": "nonpayable",
      "type": "function"
    },
    {
      "inputs": [
        {
          "internalType": "uint256",
          "name": "_id",
          "type": "uint256"
        },
        {
          "internalType": "uint256",
          "name": "value",
          "type": "uint256"
        }
      ],
      "name": "setUnitMarketValue",
      "outputs": [],
      "stateMutability": "nonpayable",
      "type": "function"
    },
    {
      "inputs": [
        {
          "internalType": "bytes4",
          "name": "interfaceId",
          "type": "bytes4"
        }
      ],
      "name": "supportsInterface",
      "outputs": [
        {
          "internalType": "bool",
          "name": "",
          "type": "bool"
        }
      ],
      "stateMutability": "view",
      "type": "function"
    },
    {
      "inputs": [],
      "name": "symbol",
      "outputs": [
        {
          "internalType": "string",
          "name": "",
          "type": "string"
        }
      ],
      "stateMutability": "view",
      "type": "function"
    },
    {
      "inputs": [
        {
          "internalType": "uint256",
          "name": "",
          "type": "uint256"
        }
      ],
      "name": "tokenSupply",
      "outputs": [
        {
          "internalType": "uint256",
          "name": "",
          "type": "uint256"
        }
      ],
      "stateMutability": "view",
      "type": "function"
    },
    {
      "inputs": [
        {
          "internalType": "uint256",
          "name": "",
          "type": "uint256"
        }
      ],
      "name": "tokenUri",
      "outputs": [
        {
          "internalType": "string",
          "name": "",
          "type": "string"
        }
      ],
      "stateMutability": "view",
      "type": "function"
    },
    {
      "inputs": [
        {
          "internalType": "uint256",
          "name": "_id",
          "type": "uint256"
        }
      ],
      "name": "totalSupply",
      "outputs": [
        {
          "internalType": "uint256",
          "name": "",
          "type": "uint256"
        }
      ],
      "stateMutability": "view",
      "type": "function"
    },
    {
      "inputs": [
        {
          "internalType": "address",
          "name": "newGovernor",
          "type": "address"
        }
      ],
      "name": "transferGovernorship",
      "outputs": [],
      "stateMutability": "nonpayable",
      "type": "function"
    },
    {
      "inputs": [
        {
          "internalType": "uint256",
          "name": "_id",
          "type": "uint256"
        },
        {
          "internalType": "uint256",
          "name": "dividendPerShare",
          "type": "uint256"
        },
        {
          "internalType": "uint32",
          "name": "index",
          "type": "uint32"
        }
      ],
      "name": "unlockDividendPerShare",
      "outputs": [],
      "stateMutability": "nonpayable",
      "type": "function"
    },
    {
      "inputs": [
        {
          "internalType": "uint256",
          "name": "_id",
          "type": "uint256"
        }
      ],
      "name": "uri",
      "outputs": [
        {
          "internalType": "string",
          "name": "",
          "type": "string"
        }
      ],
      "stateMutability": "view",
      "type": "function"
    }
  ],
  "bytecode": "0x608060405234801561001057600080fd5b5061469c806100206000396000f3fe608060405234801561001057600080fd5b506004361061029e5760003560e01c80639944f51811610167578063bff804ca116100ce578063e086bab811610087578063e086bab81461065e578063e43ca76114610671578063e8a3d48514610684578063e985e9c51461068c578063f242432a146106c8578063f6ee8fcc146106db57600080fd5b8063bff804ca146105d6578063cd53d08e146105e9578063d2a6b51a14610612578063d64e83d714610625578063d98d9eaf14610638578063dac3e3341461064b57600080fd5b8063b1fd691011610120578063b1fd691014610549578063b48ab8b61461056a578063b6aa515b1461057d578063bb89730314610590578063bd7047c4146105a3578063bd85b039146105b657600080fd5b80639944f518146104c05780639a429294146104d35780639b166e2f146104e6578063a22cb46514610510578063a6487c5314610523578063aa4d92cb1461053657600080fd5b80633a69c8d81161020b57806378c4acb8116101c457806378c4acb8146104645780637e518ec81461047757806381c0c2631461048a578063938e3d7b1461049257806395b3763b146104a557806395d89b41146104b857600080fd5b80633a69c8d8146103f0578063409f8c48146104035780634e1273f41461041657806359d1a4b114610436578063651217951461043e578063731133e91461045157600080fd5b80630e89341c1161025d5780630e89341c146103715780631675f4551461038457806322b6ccfe14610397578063243f6b58146103aa5780632693ebf2146103bd5780632eb2c2d6146103dd57600080fd5b806256d08d146102a3578062fdd58e146102b857806301ffc9a7146102de57806306fdde03146103015780630c340a24146103165780630dc28ff71461033b575b600080fd5b6102b66102b136600461371d565b6106ee565b005b6102cb6102c6366004613776565b6107d2565b6040519081526020015b60405180910390f35b6102f16102ec3660046137b6565b6107e5565b60405190151581526020016102d5565b610309610837565b6040516102d59190613820565b6097546001600160a01b03165b6040516001600160a01b0390911681526020016102d5565b6102cb610349366004613776565b600090815261013b602090815260408083206001600160a01b03949094168352929052205490565b61030961037f366004613833565b6108c6565b610309610392366004613833565b610968565b6102b66103a536600461384c565b610981565b6102b66103b836600461384c565b6109d1565b6102cb6103cb366004613833565b60fd6020526000908152604090205481565b6102b66103eb3660046139b0565b610a1e565b6102cb6103fe366004613833565b610d6d565b6102b661041136600461384c565b610dee565b610429610424366004613a59565b610e7a565b6040516102d59190613b5e565b6102b6610fa3565b6102cb61044c366004613b71565b610fd9565b6102b661045f366004613b93565b611010565b6102b6610472366004613bf3565b611086565b6102b6610485366004613c67565b611129565b6102b661115c565b6102b66104a0366004613c67565b611190565b6102b66104b3366004613b71565b6111d1565b6103096112f5565b6102f16104ce36600461384c565b611303565b6102cb6104e1366004613833565b611338565b6103236104f4366004613833565b600090815261013a60205260409020546001600160a01b031690565b6102b661051e366004613cb1565b611442565b6102b6610531366004613ce8565b61144d565b6102b6610544366004613d86565b6114d0565b6102cb610557366004613833565b6000908152610135602052604090205490565b6102b6610578366004613ddd565b6115a2565b6102b661058b36600461384c565b611731565b6102cb61059e366004613eb1565b6117cf565b6102b66105b1366004613833565b611a80565b6102cb6105c4366004613833565b600090815260fd602052604090205490565b6102b66105e4366004613833565b611d40565b6103236105f7366004613833565b60fc602052600090815260409020546001600160a01b031681565b6102b6610620366004613f4e565b611ffd565b6102b6610633366004613bf3565b612137565b6102f1610646366004613f91565b6121d5565b6102cb610659366004613833565b6121f7565b6102cb61066c366004613833565b612390565b6102b661067f366004613b71565b61251e565b61030961256a565b6102f161069a366004613fbd565b6001600160a01b03918216600090815260666020908152604080832093909416825291909152205460ff1690565b6102b66106d6366004613fe7565b6125fc565b6102b66106e9366004613f91565b6128ce565b600083815260fc602052604090205483906001600160a01b0316331461072f5760405162461bcd60e51b81526004016107269061404b565b60405180910390fd5b600084815261013660205260409020600101805484919063ffffffff851690811061075c5761075c61409c565b6000918252602090912001556107738260016140c8565b6000858152610136602052604090206002015463ffffffff918216911610156107cc576107a18260016140c8565b600085815261013660205260409020600201805463ffffffff191663ffffffff929092169190911790555b50505050565b60006107de8383612986565b9392505050565b60006001600160e01b03198216636cdb3d1360e11b148061081657506001600160e01b031982166303a24d0760e21b145b8061083157506301ffc9a760e01b6001600160e01b03198316145b92915050565b6101008054610845906140f0565b80601f0160208091040260200160405190810160405280929190818152602001828054610871906140f0565b80156108be5780601f10610893576101008083540402835291602001916108be565b820191906000526020600020905b8154815290600101906020018083116108a157829003601f168201915b505050505081565b600081815260fe602052604090208054606091906108e3906140f0565b80601f016020809104026020016040519081016040528092919081815260200182805461090f906140f0565b801561095c5780601f106109315761010080835404028352916020019161095c565b820191906000526020600020905b81548152906001019060200180831161093f57829003601f168201915b50505050509050919050565b60fe6020526000908152604090208054610845906140f0565b610103546001600160a01b031633146109ac5760405162461bcd60e51b815260040161072690614125565b6001600160a01b0316600090815261010260205260409020805460ff19166001179055565b610103546001600160a01b031633146109fc5760405162461bcd60e51b815260040161072690614125565b6001600160a01b0316600090815261010260205260409020805460ff19169055565b8151835114610a3f5760405162461bcd60e51b815260040161072690614167565b6001600160a01b038416610a655760405162461bcd60e51b8152600401610726906141af565b6001600160a01b038516331480610a815750610a81853361069a565b610ae85760405162461bcd60e51b815260206004820152603260248201527f455243313135353a207472616e736665722063616c6c6572206973206e6f74206044820152711bdddb995c881b9bdc88185c1c1c9bdd995960721b6064820152608401610726565b3360005b8451811015610b8c576000858281518110610b0957610b0961409c565b602002602001015190506000858381518110610b2757610b2761409c565b60209081029190910181015160008481526065835260408082206001600160a01b038e168352909352919091205490915081811015610b785760405162461bcd60e51b8152600401610726906141f4565b50505080610b859061423e565b9050610aec565b5060005b8451811015610bdc576000858281518110610bad57610bad61409c565b60200260200101519050610bc18882612a1a565b610bcb8782612a1a565b50610bd58161423e565b9050610b90565b5060005b8451811015610cff576000858281518110610bfd57610bfd61409c565b602002602001015190506000858381518110610c1b57610c1b61409c565b60209081029190910181015160008481526065835260408082206001600160a01b038e168352909352918220805482810390915590925090610c5d848c6121d5565b80610c6d5750610c6d848b6121d5565b905080610cb257600084815261013b602090815260408083206001600160a01b038e16845290915281208054859290610ca7908490614259565b90915550610cea9050565b60008481526065602090815260408083206001600160a01b038e16845290915281208054859290610ce4908490614259565b90915550505b5050505080610cf89061423e565b9050610be0565b50846001600160a01b0316866001600160a01b0316826001600160a01b03167f4a39dc06d4c0dbc64b70af90fd698a233a518aa5d07e595d983b8c0526c8f7fb8787604051610d4f929190614271565b60405180910390a4610d65818787878787612c96565b505050505050565b600081815261013b60209081526040808320338085529083528184205485855260658452828520918552925282205483918391610daa9190614259565b11610dc75760405162461bcd60e51b81526004016107269061429f565b60008381526101376020908152604080832033845290915290206003015491505b50919050565b6097546001600160a01b03163314610e185760405162461bcd60e51b8152600401610726906142f4565b6001600160a01b038116610e6e5760405162461bcd60e51b815260206004820181905260248201527f4b59432041646d696e2063616e6e6f74206265207a65726f20616464726573736044820152606401610726565b610e7781612e0a565b50565b60608151835114610edf5760405162461bcd60e51b815260206004820152602960248201527f455243313135353a206163636f756e747320616e6420696473206c656e677468604482015268040dad2e6dac2e8c6d60bb1b6064820152608401610726565b600083516001600160401b03811115610efa57610efa613867565b604051908082528060200260200182016040528015610f23578160200160208202803683370190505b50905060005b8451811015610f9b57610f6e858281518110610f4757610f4761409c565b6020026020010151858381518110610f6157610f6161409c565b60200260200101516107d2565b828281518110610f8057610f8061409c565b6020908102919091010152610f948161423e565b9050610f29565b509392505050565b6097546001600160a01b03163314610fcd5760405162461bcd60e51b8152600401610726906142f4565b610fd76000612e0a565b565b600082815261013660205260408120600101805483908110610ffd57610ffd61409c565b9060005260206000200154905092915050565b600083815260fc602052604090205483906001600160a01b031633146110485760405162461bcd60e51b81526004016107269061404b565b61105485858585612e2d565b600084815260fd602052604090205461106d9084612f00565b600094855260fd60205260409094209390935550505050565b610103546001600160a01b031633146110b15760405162461bcd60e51b815260040161072690614125565b60005b8181101561112457600161010260008585858181106110d5576110d561409c565b90506020020160208101906110ea919061384c565b6001600160a01b031681526020810191909152604001600020805460ff19169115159190911790558061111c8161423e565b9150506110b4565b505050565b6097546001600160a01b031633146111535760405162461bcd60e51b8152600401610726906142f4565b610e7781612f0c565b6097546001600160a01b031633146111865760405162461bcd60e51b8152600401610726906142f4565b610fd76000612f1f565b6097546001600160a01b031633146111ba5760405162461bcd60e51b8152600401610726906142f4565b80516111cd9060ff9060208401906135d6565b5050565b600082815261013960205260409020546001600160a01b0316806323b872dd336040516001600160e01b031960e084901b1681526001600160a01b03909116600482015230602482015260448101859052606401602060405180830381600087803b15801561123f57600080fd5b505af1158015611253573d6000803e3d6000fd5b505050506040513d601f19601f82011682018060405250810190611277919061433a565b6112c35760405162461bcd60e51b815260206004820181905260248201527f524549544e46543a20436f756c64206e6f74207472616e736665722066756e646044820152606401610726565b600083815261013860205260409020546112dd9083612f00565b60009384526101386020526040909320929092555050565b6101018054610845906140f0565b60006001600160a01b03821661131857600080fd5b506001600160a01b03166000908152610102602052604090205460ff1690565b6000818152610136602090815260408083208151608081018352815481526001820180548451818702810187019095528085528695869593949385820193909290918301828280156113a957602002820191906000526020600020905b815481526020019060010190808311611395575b50505091835250506002919091015463ffffffff8116602083015264010000000090046001600160401b0316604090910152905060005b816040015163ffffffff168163ffffffff1610156114395781602001518163ffffffff16815181106114145761141461409c565b6020026020010151836114279190614259565b925061143281614357565b90506113e0565b50909392505050565b6111cd338383612f71565b60006114596001613052565b90508015611471576000805461ff0019166101001790555b61147c8484846130df565b6114846131a1565b80156107cc576000805461ff0019169055604051600181527f7f26b83ff96e1f2b6a682f133852f6798a09c465da95921460cefb3847402498906020015b60405180910390a150505050565b600085815260fc602052604090205485906001600160a01b031633146115085760405162461bcd60e51b81526004016107269061404b565b50604080516080810182528481526001600160401b039586166020808301918252948716828401908152938716606083019081526000988952610135865283892092518355905160019092018054945191519288166001600160801b031990951694909417600160401b918816919091021767ffffffffffffffff60801b1916600160801b91909616029490941790556101369052912055565b815183511461160c5760405162461bcd60e51b815260206004820152603060248201527f455243313135354d696e744275726e2362617463684d696e743a20494e56414c60448201526f09288be82a4a482b2a6be988a9c8ea8960831b6064820152608401610726565b60005b835181101561172457600084828151811061162c5761162c61409c565b602090810291909101810151600081815260fc9092526040909120549091506001600160a01b031633146116ba5760405162461bcd60e51b815260206004820152602f60248201527f455243313135355472616461626c652362617463684d696e743a204f4e4c595f60448201526e10d491505513d497d0531313d5d151608a1b6064820152608401610726565b60008483815181106116ce576116ce61409c565b602002602001015190506116fe8160fd600085815260200190815260200160002054612f0090919063ffffffff16565b600092835260fd602052604090922091909155508061171c8161423e565b91505061160f565b506107cc848484846131d0565b6097546001600160a01b0316331461175b5760405162461bcd60e51b8152600401610726906142f4565b6001600160a01b0381166117c65760405162461bcd60e51b815260206004820152602c60248201527f476f7665726e61626c653a206e657720676f7665726e6f72206973207468652060448201526b7a65726f206164647265737360a01b6064820152608401610726565b610e7781612f1f565b6097546000906001600160a01b031633146117fc5760405162461bcd60e51b8152600401610726906142f4565b6000611806613323565b9050611810613339565b61181a8982613350565b851561187557807f6bb7ff708619ba0610cba295a58592e0451dee2622938c8755667688daf3529b888860405161185292919061437b565b60405180910390a2600081815260fe6020526040902061187390888861365a565b505b60008181526101396020908152604080832080546001600160a01b038a166001600160a01b03199091161790558051608080820183528482528184018581528284018681526060840187815288885261013587528588209451855591516001949094018054915192516001600160401b03908116600160801b0267ffffffffffffffff60801b19948216600160401b026001600160801b031990941691909616179190911791909116929092179091558151908101825292835280516064808252610ca08201909252838301929091908201610c80803683375050508152600060208083018290526040928301829052848252610136815291902082518155828201518051919261198e926001850192909101906136ce565b50604082810151600290920180546060909401516001600160401b0316640100000000026bffffffffffffffffffffffff1990941663ffffffff9093169290921792909217905580516020601f8601819004810282018101909252848152611a17918b9184918c91908990899081908401838280828437600092019190915250612e2d92505050565b600081815260fd602052604090819020899055517f748fd6a01f0f0df2e8354235caf8fdf83654b5a47b2358be7e7bffb16b726ceb90611a6c9083908c909182526001600160a01b0316602082015260400190565b60405180910390a198975050505050505050565b336000908152610102602052604090205460ff16611ace5760405162461bcd60e51b815260206004820152600b60248201526a4e6f7420796574204b594360a81b6044820152606401610726565b600260c9541415611b215760405162461bcd60e51b815260206004820152601f60248201527f5265656e7472616e637947756172643a207265656e7472616e742063616c6c006044820152606401610726565b600260c95533611b318183612a1a565b6000828152610137602090815260408083206001600160a01b038516845290915290206002015480611ba55760405162461bcd60e51b815260206004820181905260248201527f524549544e46543a206e6f206d6f726520636c61696d61626c65207969656c646044820152606401610726565b60008381526101386020526040902054811115611c145760405162461bcd60e51b815260206004820152602760248201527f524549544e46543a206e656564206d6f72652066756e64696e67732066726f6d6044820152661034b9b9bab2b960c91b6064820152608401610726565b6000838152610137602090815260408083206001600160a01b03868116808652918452828520600281018690556003018054870190558785526101399093529281902054905163a9059cbb60e01b81526004810193909352602483018490521690819063a9059cbb90604401602060405180830381600087803b158015611c9a57600080fd5b505af1158015611cae573d6000803e3d6000fd5b505050506040513d601f19601f82011682018060405250810190611cd2919061433a565b611d1e5760405162461bcd60e51b815260206004820181905260248201527f524549544e46543a20436f756c64206e6f74207472616e736665722066756e646044820152606401610726565b506000928352610138602052604090922080549290920390915550600160c955565b336000908152610102602052604090205460ff16611d8e5760405162461bcd60e51b815260206004820152600b60248201526a4e6f7420796574204b594360a81b6044820152606401610726565b600260c9541415611de15760405162461bcd60e51b815260206004820152601f60248201527f5265656e7472616e637947756172643a207265656e7472616e742063616c6c006044820152606401610726565b600260c955600081815261013b602090815260408083203380855292529091205480611e465760405162461bcd60e51b8152602060048201526014602482015273105b1c9958591e481d5b9b1bd8dad95908185b1b60621b6044820152606401610726565b600083815261013560209081526040808320600101546101369092528220546305f5e10091600160801b90046001600160401b031690611e879085906143aa565b611e9191906143aa565b611e9b91906143c9565b60008581526101396020526040908190205490516323b872dd60e01b81526001600160a01b0386811660048301523060248301526044820184905292935091169081906323b872dd90606401602060405180830381600087803b158015611f0157600080fd5b505af1158015611f15573d6000803e3d6000fd5b505050506040513d601f19601f82011682018060405250810190611f39919061433a565b611f855760405162461bcd60e51b815260206004820152601a60248201527f524549544e46543a20436f756c64206e6f7420706179207461780000000000006044820152606401610726565b5050600083815261013b602090815260408083206001600160a01b0395909516808452948252808320839055858352606582528083208584528252808320805494909401909355938152610137845281812092815291909252908120600181810180546002909301805490930190925591905560c955565b6001600160a01b0382166120675760405162461bcd60e51b815260206004820152602b60248201527f455243313135355472616461626c652373657443726561746f723a20494e564160448201526a4c49445f4144445245535360a81b6064820152608401610726565b60005b81518110156111245760008282815181106120875761208761409c565b602002602001015190506120983390565b600082815260fc60205260409020546001600160a01b0390811691161461211a5760405162461bcd60e51b815260206004820152603060248201527f455243313135355472616461626c652373657443726561746f723a204f4e4c5960448201526f17d0d491505513d497d0531313d5d15160821b6064820152608401610726565b6121248482613350565b508061212f8161423e565b91505061206a565b610103546001600160a01b031633146121625760405162461bcd60e51b815260040161072690614125565b60005b8181101561112457600061010260008585858181106121865761218661409c565b905060200201602081019061219b919061384c565b6001600160a01b031681526020810191909152604001600020805460ff1916911515919091179055806121cd8161423e565b915050612165565b600091825261013a6020526040909120546001600160a01b0391821691161490565b600081815261013b602090815260408083203380855290835281842054858552606584528285209185529252822054839183916122349190614259565b116122515760405162461bcd60e51b81526004016107269061429f565b6000838152610137602090815260408083203380855292529091206004015460ff16612281576000925050610de8565b60008481526065602090815260408083206001600160a01b038516808552908352818420548885526101368452828520600201546101378552838620928652919093529083206004015491929163ffffffff9182169161010090910416805b8263ffffffff168163ffffffff16101561235257600089815261013660205260409020600101805486919063ffffffff84169081106123215761232161409c565b906000526020600020015461233691906143aa565b6123409085614259565b935061234b81614357565b90506122e0565b506000888152610137602090815260408083206001600160a01b03891684529091529020600201546123849084614259565b98975050505050505050565b600081815261013b602090815260408083203380855290835281842054858552606584528285209185529252822054839183916123cd9190614259565b116123ea5760405162461bcd60e51b81526004016107269061429f565b6000838152610137602090815260408083203380855292529091206004015460ff1661241a576000925050610de8565b600084815261013b602090815260408083206001600160a01b038516808552908352818420548885526101368452828520600201546101378552838620928652919093529083206004015491929163ffffffff9182169161010090910416805b8263ffffffff168163ffffffff1610156124ec57600089815261013660205260409020600101805486919063ffffffff84169081106124bb576124bb61409c565b90600052602060002001546124d091906143aa565b6124da9085614259565b93506124e581614357565b905061247a565b506000888152610137602090815260408083206001600160a01b03891684529091529020600101546123849084614259565b600082815260fc602052604090205482906001600160a01b031633146125565760405162461bcd60e51b81526004016107269061404b565b506000918252610136602052604090912055565b606060ff8054612579906140f0565b80601f01602080910402602001604051908101604052809291908181526020018280546125a5906140f0565b80156125f25780601f106125c7576101008083540402835291602001916125f2565b820191906000526020600020905b8154815290600101906020018083116125d557829003601f168201915b5050505050905090565b6001600160a01b0384166126225760405162461bcd60e51b8152600401610726906141af565b6001600160a01b03851633148061263e575061263e853361069a565b61269c5760405162461bcd60e51b815260206004820152602960248201527f455243313135353a2063616c6c6572206973206e6f74206f776e6572206e6f7260448201526808185c1c1c9bdd995960ba1b6064820152608401610726565b836001600160a01b0316856001600160a01b031614156127245760405162461bcd60e51b815260206004820152603760248201527f455243313135353a2046726f6d5f41646472657373206d75737420626520646960448201527f66666572656e742066726f6d20546f5f416464726573730000000000000000006064820152608401610726565b3360006127308561337e565b9050600061273d8561337e565b905060008681526065602090815260408083206001600160a01b038c168452909152902054858110156127825760405162461bcd60e51b8152600401610726906141f4565b61278c8988612a1a565b6127968888612a1a565b60008781526065602090815260408083206001600160a01b038d168452909152812087830390556127c7888b6121d5565b806127d757506127d7888a6121d5565b90508061281c57600088815261013b602090815260408083206001600160a01b038d16845290915281208054899290612811908490614259565b909155506128549050565b60008881526065602090815260408083206001600160a01b038d1684529091528120805489929061284e908490614259565b90915550505b886001600160a01b03168a6001600160a01b0316866001600160a01b03167fc3d58168c5ae7397731d063d5bbf3d657854427343f4c083240f7aacaa2d0f628b8b6040516128ac929190918252602082015260400190565b60405180910390a46128c2858b8b8b8b8b6133c9565b50505050505050505050565b600082815260fc602052604090205482906001600160a01b031633146129065760405162461bcd60e51b81526004016107269061404b565b6001600160a01b0382163b6129565760405162461bcd60e51b8152602060048201526016602482015275125413c81b5d5cdd08189948184818dbdb9d1c9858dd60521b6044820152606401610726565b50600091825261013a602052604090912080546001600160a01b0319166001600160a01b03909216919091179055565b60006001600160a01b0383166129f25760405162461bcd60e51b815260206004820152602b60248201527f455243313135353a2062616c616e636520717565727920666f7220746865207a60448201526a65726f206164647265737360a81b6064820152608401610726565b5060009081526065602090815260408083206001600160a01b03949094168352929052205490565b612a2481836121d5565b15612a2d575050565b6000818152610137602090815260408083206001600160a01b038616845290915290206004015460ff16612b13576040805160c0810182526001600160a01b03808516808352600060208085018281528587018381526060870184815260016080890181815260a08a018781528c885261013787528b882098885297909552989094209651875496166001600160a01b031990961695909517865551958501959095559151600284015590516003830155915160049091018054925163ffffffff166101000264ffffffff00199215159290921664ffffffffff19909316929092171790555b600081815261013b602090815260408083206001600160a01b03861680855290835281842054858552606584528285208286528452828520548686526101368552838620600201546101378652848720938752929094529184206004015484939163ffffffff90811691610100900416805b8263ffffffff168163ffffffff161015612be757600088815261013660205260408120600101805463ffffffff8416908110612bc357612bc361409c565b60009182526020909120015485810298909801978602969096019550600101612b85565b506000878152610137602090815260408083206001600160a01b038c1684529091529020600401805464ffffffff00191661010063ffffffff8516021790558515612c59576000878152610137602090815260408083206001600160a01b038c16845290915290206002018054870190555b8415612c8c576000878152610137602090815260408083206001600160a01b038c16845290915290206001018054860190555b5050505050505050565b6001600160a01b0384163b15610d655760405163bc197c8160e01b81526001600160a01b0385169063bc197c8190612cda90899089908890889088906004016143eb565b602060405180830381600087803b158015612cf457600080fd5b505af1925050508015612d24575060408051601f3d908101601f19168201909252612d219181019061443d565b60015b612dd157612d3061445a565b806308c379a01415612d6a5750612d45614476565b80612d505750612d6c565b8060405162461bcd60e51b81526004016107269190613820565b505b60405162461bcd60e51b815260206004820152603460248201527f455243313135353a207472616e7366657220746f206e6f6e20455243313135356044820152732932b1b2b4bb32b91034b6b83632b6b2b73a32b960611b6064820152608401610726565b6001600160e01b0319811663bc197c8160e01b14612e015760405162461bcd60e51b8152600401610726906144ff565b50505050505050565b61010380546001600160a01b0319166001600160a01b0392909216919091179055565b6001600160a01b038416612e535760405162461bcd60e51b815260040161072690614547565b336000612e5f8561337e565b90506000612e6c8561337e565b905060008681526065602090815260408083206001600160a01b038b16845290915281208054879290612ea0908490614259565b909155505060408051878152602081018790526001600160a01b03808a1692600092918716917fc3d58168c5ae7397731d063d5bbf3d657854427343f4c083240f7aacaa2d0f62910160405180910390a4612e01836000898989896133c9565b60006107de8284614259565b80516111cd9060679060208401906135d6565b609780546001600160a01b038381166001600160a01b0319831681179093556040519116919082907fc7c0c772add429241571afb3805861fb3cfa2af374534088b76cdb4325a87e9a90600090a35050565b816001600160a01b0316836001600160a01b03161415612fe55760405162461bcd60e51b815260206004820152602960248201527f455243313135353a2073657474696e6720617070726f76616c20737461747573604482015268103337b91039b2b63360b91b6064820152608401610726565b6001600160a01b03838116600081815260666020908152604080832094871680845294825291829020805460ff191686151590811790915591519182527f17307eab39ab6107e8899845ad3d59bd9653f200f220920489ca2b5937696c31910160405180910390a3505050565b60008054610100900460ff1615613099578160ff1660011480156130755750303b155b6130915760405162461bcd60e51b815260040161072690614588565b506000919050565b60005460ff8084169116106130c05760405162461bcd60e51b815260040161072690614588565b506000805460ff191660ff92909216919091179055600190565b919050565b60006130eb6001613052565b90508015613103576000805461ff0019166101001790555b61310c82613493565b6131146134c3565b61311c6134f2565b8351613130906101009060208701906135d6565b508251613145906101019060208601906135d6565b50600060fb55815161315e9060ff9060208501906135d6565b5080156107cc576000805461ff0019169055604051600181527f7f26b83ff96e1f2b6a682f133852f6798a09c465da95921460cefb3847402498906020016114c2565b600054610100900460ff166131c85760405162461bcd60e51b8152600401610726906145d6565b610fd7613521565b6001600160a01b0384166131f65760405162461bcd60e51b815260040161072690614547565b81518351146132175760405162461bcd60e51b815260040161072690614167565b3360005b84518110156132b4578381815181106132365761323661409c565b6020026020010151606560008784815181106132545761325461409c565b602002602001015181526020019081526020016000206000886001600160a01b03166001600160a01b03168152602001908152602001600020600082825461329c9190614259565b909155508190506132ac8161423e565b91505061321b565b50846001600160a01b031660006001600160a01b0316826001600160a01b03167f4a39dc06d4c0dbc64b70af90fd698a233a518aa5d07e595d983b8c0526c8f7fb8787604051613305929190614271565b60405180910390a461331c81600087878787612c96565b5050505050565b60fb54600090613334906001612f00565b905090565b60fb80549060006133498361423e565b9190505550565b600090815260fc6020526040902080546001600160a01b0319166001600160a01b0392909216919091179055565b604080516001808252818301909252606091600091906020808301908036833701905050905082816000815181106133b8576133b861409c565b602090810291909101015292915050565b6001600160a01b0384163b15610d655760405163f23a6e6160e01b81526001600160a01b0385169063f23a6e619061340d9089908990889088908890600401614621565b602060405180830381600087803b15801561342757600080fd5b505af1925050508015613457575060408051601f3d908101601f191682019092526134549181019061443d565b60015b61346357612d3061445a565b6001600160e01b0319811663f23a6e6160e01b14612e015760405162461bcd60e51b8152600401610726906144ff565b600054610100900460ff166134ba5760405162461bcd60e51b8152600401610726906145d6565b610e7781613551565b600054610100900460ff166134ea5760405162461bcd60e51b8152600401610726906145d6565b610fd7613578565b600054610100900460ff166135195760405162461bcd60e51b8152600401610726906145d6565b610fd76135a8565b600054610100900460ff166135485760405162461bcd60e51b8152600401610726906145d6565b610fd733612e0a565b600054610100900460ff166111535760405162461bcd60e51b8152600401610726906145d6565b600054610100900460ff1661359f5760405162461bcd60e51b8152600401610726906145d6565b610fd733612f1f565b600054610100900460ff166135cf5760405162461bcd60e51b8152600401610726906145d6565b600160c955565b8280546135e2906140f0565b90600052602060002090601f016020900481019282613604576000855561364a565b82601f1061361d57805160ff191683800117855561364a565b8280016001018555821561364a579182015b8281111561364a57825182559160200191906001019061362f565b50613656929150613708565b5090565b828054613666906140f0565b90600052602060002090601f016020900481019282613688576000855561364a565b82601f106136a15782800160ff1982351617855561364a565b8280016001018555821561364a579182015b8281111561364a5782358255916020019190600101906136b3565b82805482825590600052602060002090810192821561364a579160200282018281111561364a57825182559160200191906001019061362f565b5b808211156136565760008155600101613709565b60008060006060848603121561373257600080fd5b8335925060208401359150604084013563ffffffff8116811461375457600080fd5b809150509250925092565b80356001600160a01b03811681146130da57600080fd5b6000806040838503121561378957600080fd5b6137928361375f565b946020939093013593505050565b6001600160e01b031981168114610e7757600080fd5b6000602082840312156137c857600080fd5b81356107de816137a0565b6000815180845260005b818110156137f9576020818501810151868301820152016137dd565b8181111561380b576000602083870101525b50601f01601f19169290920160200192915050565b6020815260006107de60208301846137d3565b60006020828403121561384557600080fd5b5035919050565b60006020828403121561385e57600080fd5b6107de8261375f565b634e487b7160e01b600052604160045260246000fd5b601f8201601f191681016001600160401b03811182821017156138a2576138a2613867565b6040525050565b60006001600160401b038211156138c2576138c2613867565b5060051b60200190565b600082601f8301126138dd57600080fd5b813560206138ea826138a9565b6040516138f7828261387d565b83815260059390931b850182019282810191508684111561391757600080fd5b8286015b84811015613932578035835291830191830161391b565b509695505050505050565b600082601f83011261394e57600080fd5b81356001600160401b0381111561396757613967613867565b60405161397e601f8301601f19166020018261387d565b81815284602083860101111561399357600080fd5b816020850160208301376000918101602001919091529392505050565b600080600080600060a086880312156139c857600080fd5b6139d18661375f565b94506139df6020870161375f565b935060408601356001600160401b03808211156139fb57600080fd5b613a0789838a016138cc565b94506060880135915080821115613a1d57600080fd5b613a2989838a016138cc565b93506080880135915080821115613a3f57600080fd5b50613a4c8882890161393d565b9150509295509295909350565b60008060408385031215613a6c57600080fd5b82356001600160401b0380821115613a8357600080fd5b818501915085601f830112613a9757600080fd5b81356020613aa4826138a9565b604051613ab1828261387d565b83815260059390931b8501820192828101915089841115613ad157600080fd5b948201945b83861015613af657613ae78661375f565b82529482019490820190613ad6565b96505086013592505080821115613b0c57600080fd5b50613b19858286016138cc565b9150509250929050565b600081518084526020808501945080840160005b83811015613b5357815187529582019590820190600101613b37565b509495945050505050565b6020815260006107de6020830184613b23565b60008060408385031215613b8457600080fd5b50508035926020909101359150565b60008060008060808587031215613ba957600080fd5b613bb28561375f565b9350602085013592506040850135915060608501356001600160401b03811115613bdb57600080fd5b613be78782880161393d565b91505092959194509250565b60008060208385031215613c0657600080fd5b82356001600160401b0380821115613c1d57600080fd5b818501915085601f830112613c3157600080fd5b813581811115613c4057600080fd5b8660208260051b8501011115613c5557600080fd5b60209290920196919550909350505050565b600060208284031215613c7957600080fd5b81356001600160401b03811115613c8f57600080fd5b613c9b8482850161393d565b949350505050565b8015158114610e7757600080fd5b60008060408385031215613cc457600080fd5b613ccd8361375f565b91506020830135613cdd81613ca3565b809150509250929050565b600080600060608486031215613cfd57600080fd5b83356001600160401b0380821115613d1457600080fd5b613d208783880161393d565b94506020860135915080821115613d3657600080fd5b613d428783880161393d565b93506040860135915080821115613d5857600080fd5b50613d658682870161393d565b9150509250925092565b80356001600160401b03811681146130da57600080fd5b600080600080600060a08688031215613d9e57600080fd5b85359450613dae60208701613d6f565b935060408601359250613dc360608701613d6f565b9150613dd160808701613d6f565b90509295509295909350565b60008060008060808587031215613df357600080fd5b613dfc8561375f565b935060208501356001600160401b0380821115613e1857600080fd5b613e24888389016138cc565b94506040870135915080821115613e3a57600080fd5b613e46888389016138cc565b93506060870135915080821115613e5c57600080fd5b50613be78782880161393d565b60008083601f840112613e7b57600080fd5b5081356001600160401b03811115613e9257600080fd5b602083019150836020828501011115613eaa57600080fd5b9250929050565b600080600080600080600060a0888a031215613ecc57600080fd5b613ed58861375f565b96506020880135955060408801356001600160401b0380821115613ef857600080fd5b613f048b838c01613e69565b9097509550859150613f1860608b0161375f565b945060808a0135915080821115613f2e57600080fd5b50613f3b8a828b01613e69565b989b979a50959850939692959293505050565b60008060408385031215613f6157600080fd5b613f6a8361375f565b915060208301356001600160401b03811115613f8557600080fd5b613b19858286016138cc565b60008060408385031215613fa457600080fd5b82359150613fb46020840161375f565b90509250929050565b60008060408385031215613fd057600080fd5b613fd98361375f565b9150613fb46020840161375f565b600080600080600060a08688031215613fff57600080fd5b6140088661375f565b94506140166020870161375f565b9350604086013592506060860135915060808601356001600160401b0381111561403f57600080fd5b613a4c8882890161393d565b60208082526031908201527f455243313135355472616461626c652363726561746f724f6e6c793a204f4e4c6040820152701657d0d491505513d497d0531313d5d151607a1b606082015260800190565b634e487b7160e01b600052603260045260246000fd5b634e487b7160e01b600052601160045260246000fd5b600063ffffffff8083168185168083038211156140e7576140e76140b2565b01949350505050565b600181811c9082168061410457607f821691505b60208210811415610de857634e487b7160e01b600052602260045260246000fd5b60208082526022908201527f4b59434163636573733a2063616c6c6572206973206e6f74207468652061646d60408201526134b760f11b606082015260800190565b60208082526028908201527f455243313135353a2069647320616e6420616d6f756e7473206c656e677468206040820152670dad2e6dac2e8c6d60c31b606082015260800190565b60208082526025908201527f455243313135353a207472616e7366657220746f20746865207a65726f206164604082015264647265737360d81b606082015260800190565b6020808252602a908201527f455243313135353a20696e73756666696369656e742062616c616e636520666f60408201526939103a3930b739b332b960b11b606082015260800190565b6000600019821415614252576142526140b2565b5060010190565b6000821982111561426c5761426c6140b2565b500190565b6040815260006142846040830185613b23565b82810360208401526142968185613b23565b95945050505050565b60208082526035908201527f455243313135355472616461626c65237368617265486f6c646572734f6e6c796040820152740e8813d3931657d3d5d3915494d7d0531313d5d151605a1b606082015260800190565b60208082526026908201527f476f7665726e61626c653a2063616c6c6572206973206e6f742074686520676f6040820152653b32b93737b960d11b606082015260800190565b60006020828403121561434c57600080fd5b81516107de81613ca3565b600063ffffffff80831681811415614371576143716140b2565b6001019392505050565b60208152816020820152818360408301376000818301604090810191909152601f909201601f19160101919050565b60008160001904831182151516156143c4576143c46140b2565b500290565b6000826143e657634e487b7160e01b600052601260045260246000fd5b500490565b6001600160a01b0386811682528516602082015260a06040820181905260009061441790830186613b23565b82810360608401526144298186613b23565b9050828103608084015261238481856137d3565b60006020828403121561444f57600080fd5b81516107de816137a0565b600060033d11156144735760046000803e5060005160e01c5b90565b600060443d10156144845790565b6040516003193d81016004833e81513d6001600160401b0381602484011181841117156144b357505050505090565b82850191508151818111156144cb5750505050505090565b843d87010160208285010111156144e55750505050505090565b6144f46020828601018761387d565b509095945050505050565b60208082526028908201527f455243313135353a204552433131353552656365697665722072656a656374656040820152676420746f6b656e7360c01b606082015260800190565b60208082526021908201527f455243313135353a206d696e7420746f20746865207a65726f206164647265736040820152607360f81b606082015260800190565b6020808252602e908201527f496e697469616c697a61626c653a20636f6e747261637420697320616c72656160408201526d191e481a5b9a5d1a585b1a5e995960921b606082015260800190565b6020808252602b908201527f496e697469616c697a61626c653a20636f6e7472616374206973206e6f74206960408201526a6e697469616c697a696e6760a81b606082015260800190565b6001600160a01b03868116825285166020820152604081018490526060810183905260a06080820181905260009061465b908301846137d3565b97965050505050505056fea2646970667358221220f123f03fdc92a26f022e45b1fd4ea8044a085864f813990235991b43c20edf7e64736f6c63430008090033",
  "linkReferences": {},
  "deployedLinkReferences": {}
}