{
  "_format": "hh-sol-artifact-1",
  "contractName": "REITNFT",
  "sourceName": "contracts/REITNFT.sol",
  "abi": [
    {
      "anonymous": false,
      "inputs": [
        {
          "indexed": true,
          "internalType": "address",
          "name": "account",
          "type": "address"
        },
        {
          "indexed": true,
          "internalType": "address",
          "name": "operator",
          "type": "address"
        },
        {
          "indexed": false,
          "internalType": "bool",
          "name": "approved",
          "type": "bool"
        }
      ],
      "name": "ApprovalForAll",
      "type": "event"
    },
    {
      "anonymous": false,
      "inputs": [
        {
          "indexed": false,
          "internalType": "uint256",
          "name": "id",
          "type": "uint256"
        }
      ],
      "name": "Create",
      "type": "event"
    },
    {
      "anonymous": false,
      "inputs": [
        {
          "indexed": true,
          "internalType": "address",
          "name": "previousGovernor",
          "type": "address"
        },
        {
          "indexed": true,
          "internalType": "address",
          "name": "newGovernor",
          "type": "address"
        }
      ],
      "name": "GovernorshipTransferred",
      "type": "event"
    },
    {
      "anonymous": false,
      "inputs": [
        {
          "indexed": false,
          "internalType": "uint8",
          "name": "version",
          "type": "uint8"
        }
      ],
      "name": "Initialized",
      "type": "event"
    },
    {
      "anonymous": false,
      "inputs": [
        {
          "indexed": true,
          "internalType": "address",
          "name": "operator",
          "type": "address"
        },
        {
          "indexed": true,
          "internalType": "address",
          "name": "from",
          "type": "address"
        },
        {
          "indexed": true,
          "internalType": "address",
          "name": "to",
          "type": "address"
        },
        {
          "indexed": false,
          "internalType": "uint256[]",
          "name": "ids",
          "type": "uint256[]"
        },
        {
          "indexed": false,
          "internalType": "uint256[]",
          "name": "values",
          "type": "uint256[]"
        }
      ],
      "name": "TransferBatch",
      "type": "event"
    },
    {
      "anonymous": false,
      "inputs": [
        {
          "indexed": true,
          "internalType": "address",
          "name": "operator",
          "type": "address"
        },
        {
          "indexed": true,
          "internalType": "address",
          "name": "from",
          "type": "address"
        },
        {
          "indexed": true,
          "internalType": "address",
          "name": "to",
          "type": "address"
        },
        {
          "indexed": false,
          "internalType": "uint256",
          "name": "id",
          "type": "uint256"
        },
        {
          "indexed": false,
          "internalType": "uint256",
          "name": "value",
          "type": "uint256"
        }
      ],
      "name": "TransferSingle",
      "type": "event"
    },
    {
      "anonymous": false,
      "inputs": [
        {
          "indexed": false,
          "internalType": "string",
          "name": "value",
          "type": "string"
        },
        {
          "indexed": true,
          "internalType": "uint256",
          "name": "id",
          "type": "uint256"
        }
      ],
      "name": "URI",
      "type": "event"
    },
    {
      "inputs": [],
      "name": "PERCENT_DECIMALS_MULTIPLY",
      "outputs": [
        {
          "internalType": "uint256",
          "name": "",
          "type": "uint256"
        }
      ],
      "stateMutability": "view",
      "type": "function"
    },
    {
      "inputs": [
        {
          "internalType": "address[]",
          "name": "accounts",
          "type": "address[]"
        }
      ],
      "name": "addManyToKYC",
      "outputs": [],
      "stateMutability": "nonpayable",
      "type": "function"
    },
    {
      "inputs": [
        {
          "internalType": "address",
          "name": "account",
          "type": "address"
        }
      ],
      "name": "addToKYC",
      "outputs": [],
      "stateMutability": "nonpayable",
      "type": "function"
    },
    {
      "inputs": [
        {
          "internalType": "address",
          "name": "account",
          "type": "address"
        },
        {
          "internalType": "uint256",
          "name": "id",
          "type": "uint256"
        }
      ],
      "name": "balanceOf",
      "outputs": [
        {
          "internalType": "uint256",
          "name": "",
          "type": "uint256"
        }
      ],
      "stateMutability": "view",
      "type": "function"
    },
    {
      "inputs": [
        {
          "internalType": "address[]",
          "name": "accounts",
          "type": "address[]"
        },
        {
          "internalType": "uint256[]",
          "name": "ids",
          "type": "uint256[]"
        }
      ],
      "name": "balanceOfBatch",
      "outputs": [
        {
          "internalType": "uint256[]",
          "name": "",
          "type": "uint256[]"
        }
      ],
      "stateMutability": "view",
      "type": "function"
    },
    {
      "inputs": [
        {
          "internalType": "address",
          "name": "_to",
          "type": "address"
        },
        {
          "internalType": "uint256[]",
          "name": "_ids",
          "type": "uint256[]"
        },
        {
          "internalType": "uint256[]",
          "name": "_quantities",
          "type": "uint256[]"
        },
        {
          "internalType": "bytes",
          "name": "_data",
          "type": "bytes"
        }
      ],
      "name": "batchMint",
      "outputs": [],
      "stateMutability": "nonpayable",
      "type": "function"
    },
    {
      "inputs": [
        {
          "internalType": "uint256",
          "name": "_id",
          "type": "uint256"
        }
      ],
      "name": "claimBenefit",
      "outputs": [],
      "stateMutability": "nonpayable",
      "type": "function"
    },
    {
      "inputs": [],
      "name": "contractURI",
      "outputs": [
        {
          "internalType": "string",
          "name": "",
          "type": "string"
        }
      ],
      "stateMutability": "view",
      "type": "function"
    },
    {
      "inputs": [
        {
          "internalType": "address",
          "name": "_initialOwner",
          "type": "address"
        },
        {
          "internalType": "uint256",
          "name": "_initialSupply",
          "type": "uint256"
        },
        {
          "internalType": "string",
          "name": "_uri",
          "type": "string"
        },
        {
          "internalType": "address",
          "name": "_fundingToken",
          "type": "address"
        },
        {
          "internalType": "bytes",
          "name": "_data",
          "type": "bytes"
        }
      ],
      "name": "createREIT",
      "outputs": [
        {
          "internalType": "uint256",
          "name": "",
          "type": "uint256"
        }
      ],
      "stateMutability": "nonpayable",
      "type": "function"
    },
    {
      "inputs": [
        {
          "internalType": "uint256",
          "name": "",
          "type": "uint256"
        }
      ],
      "name": "creators",
      "outputs": [
        {
          "internalType": "address",
          "name": "",
          "type": "address"
        }
      ],
      "stateMutability": "view",
      "type": "function"
    },
    {
      "inputs": [
        {
          "internalType": "uint256",
          "name": "",
          "type": "uint256"
        }
      ],
      "name": "fundingVault",
      "outputs": [
        {
          "internalType": "uint256",
          "name": "",
          "type": "uint256"
        }
      ],
      "stateMutability": "view",
      "type": "function"
    },
    {
      "inputs": [
        {
          "internalType": "uint256",
          "name": "_id",
          "type": "uint256"
        }
      ],
      "name": "getClaimedYield",
      "outputs": [
        {
          "internalType": "uint256",
          "name": "",
          "type": "uint256"
        }
      ],
      "stateMutability": "view",
      "type": "function"
    },
    {
      "inputs": [
        {
          "internalType": "uint256",
          "name": "_id",
          "type": "uint256"
        }
      ],
      "name": "getIPOContract",
      "outputs": [
        {
          "internalType": "address",
          "name": "",
          "type": "address"
        }
      ],
      "stateMutability": "view",
      "type": "function"
    },
    {
      "inputs": [
        {
          "internalType": "uint256",
          "name": "_id",
          "type": "uint256"
        }
      ],
      "name": "getLockedYieldDividends",
      "outputs": [
        {
          "internalType": "uint256",
          "name": "",
          "type": "uint256"
        }
      ],
      "stateMutability": "view",
      "type": "function"
    },
    {
      "inputs": [
        {
          "internalType": "uint256",
          "name": "_id",
          "type": "uint256"
        }
      ],
      "name": "getShareUnitPrice",
      "outputs": [
        {
          "internalType": "uint256",
          "name": "",
          "type": "uint256"
        }
      ],
      "stateMutability": "view",
      "type": "function"
    },
    {
      "inputs": [
        {
          "internalType": "uint256",
          "name": "_id",
          "type": "uint256"
        }
      ],
      "name": "getTotalClaimableBenefit",
      "outputs": [
        {
          "internalType": "uint256",
          "name": "",
          "type": "uint256"
        }
      ],
      "stateMutability": "view",
      "type": "function"
    },
    {
      "inputs": [
        {
          "internalType": "uint256",
          "name": "_id",
          "type": "uint256"
        }
      ],
      "name": "getTotalYieldDividendPerShare",
      "outputs": [
        {
          "internalType": "uint256",
          "name": "",
          "type": "uint256"
        }
      ],
      "stateMutability": "view",
      "type": "function"
    },
    {
      "inputs": [
        {
          "internalType": "uint256",
          "name": "_id",
          "type": "uint256"
        },
        {
          "internalType": "uint256",
          "name": "index",
          "type": "uint256"
        }
      ],
      "name": "getYieldDividendPerShareAt",
      "outputs": [
        {
          "internalType": "uint256",
          "name": "",
          "type": "uint256"
        }
      ],
      "stateMutability": "view",
      "type": "function"
    },
    {
      "inputs": [],
      "name": "governor",
      "outputs": [
        {
          "internalType": "address",
          "name": "",
          "type": "address"
        }
      ],
      "stateMutability": "view",
      "type": "function"
    },
    {
      "inputs": [
        {
          "internalType": "string",
          "name": "_name",
          "type": "string"
        },
        {
          "internalType": "string",
          "name": "_symbol",
          "type": "string"
        },
        {
          "internalType": "string",
          "name": "_uri",
          "type": "string"
        }
      ],
      "name": "initialize",
      "outputs": [],
      "stateMutability": "nonpayable",
      "type": "function"
    },
    {
      "inputs": [
        {
          "internalType": "uint256",
          "name": "_id",
          "type": "uint256"
        },
        {
          "internalType": "uint64",
          "name": "initiateTime",
          "type": "uint64"
        },
        {
          "internalType": "uint256",
          "name": "unitValue",
          "type": "uint256"
        },
        {
          "internalType": "uint64",
          "name": "liquidationTime",
          "type": "uint64"
        },
        {
          "internalType": "uint64",
          "name": "taxRate",
          "type": "uint64"
        }
      ],
      "name": "initiate",
      "outputs": [],
      "stateMutability": "nonpayable",
      "type": "function"
    },
    {
      "inputs": [
        {
          "internalType": "address",
          "name": "account",
          "type": "address"
        },
        {
          "internalType": "address",
          "name": "operator",
          "type": "address"
        }
      ],
      "name": "isApprovedForAll",
      "outputs": [
        {
          "internalType": "bool",
          "name": "",
          "type": "bool"
        }
      ],
      "stateMutability": "view",
      "type": "function"
    },
    {
      "inputs": [
        {
          "internalType": "uint256",
          "name": "_id",
          "type": "uint256"
        },
        {
          "internalType": "address",
          "name": "account",
          "type": "address"
        }
      ],
      "name": "isIPOContract",
      "outputs": [
        {
          "internalType": "bool",
          "name": "",
          "type": "bool"
        }
      ],
      "stateMutability": "view",
      "type": "function"
    },
    {
      "inputs": [
        {
          "internalType": "address",
          "name": "account",
          "type": "address"
        }
      ],
      "name": "isKYC",
      "outputs": [
        {
          "internalType": "bool",
          "name": "",
          "type": "bool"
        }
      ],
      "stateMutability": "view",
      "type": "function"
    },
    {
      "inputs": [
        {
          "internalType": "address",
          "name": "_to",
          "type": "address"
        },
        {
          "internalType": "uint256",
          "name": "_id",
          "type": "uint256"
        },
        {
          "internalType": "uint256",
          "name": "_quantity",
          "type": "uint256"
        },
        {
          "internalType": "bytes",
          "name": "_data",
          "type": "bytes"
        }
      ],
      "name": "mint",
      "outputs": [],
      "stateMutability": "nonpayable",
      "type": "function"
    },
    {
      "inputs": [],
      "name": "name",
      "outputs": [
        {
          "internalType": "string",
          "name": "",
          "type": "string"
        }
      ],
      "stateMutability": "view",
      "type": "function"
    },
    {
      "inputs": [
        {
          "internalType": "uint256",
          "name": "_id",
          "type": "uint256"
        },
        {
          "internalType": "uint256",
          "name": "amount",
          "type": "uint256"
        }
      ],
      "name": "payDividends",
      "outputs": [],
      "stateMutability": "nonpayable",
      "type": "function"
    },
    {
      "inputs": [
        {
          "internalType": "uint256",
          "name": "_id",
          "type": "uint256"
        }
      ],
      "name": "registerBalances",
      "outputs": [],
      "stateMutability": "nonpayable",
      "type": "function"
    },
    {
      "inputs": [
        {
          "internalType": "address",
          "name": "account",
          "type": "address"
        }
      ],
      "name": "removeKYC",
      "outputs": [],
      "stateMutability": "nonpayable",
      "type": "function"
    },
    {
      "inputs": [
        {
          "internalType": "address[]",
          "name": "accounts",
          "type": "address[]"
        }
      ],
      "name": "removeManyKYC",
      "outputs": [],
      "stateMutability": "nonpayable",
      "type": "function"
    },
    {
      "inputs": [],
      "name": "renounceGovernorship",
      "outputs": [],
      "stateMutability": "nonpayable",
      "type": "function"
    },
    {
      "inputs": [],
      "name": "revokeKYCAdmin",
      "outputs": [],
      "stateMutability": "nonpayable",
      "type": "function"
    },
    {
      "inputs": [
        {
          "internalType": "address",
          "name": "from",
          "type": "address"
        },
        {
          "internalType": "address",
          "name": "to",
          "type": "address"
        },
        {
          "internalType": "uint256[]",
          "name": "ids",
          "type": "uint256[]"
        },
        {
          "internalType": "uint256[]",
          "name": "amounts",
          "type": "uint256[]"
        },
        {
          "internalType": "bytes",
          "name": "data",
          "type": "bytes"
        }
      ],
      "name": "safeBatchTransferFrom",
      "outputs": [],
      "stateMutability": "nonpayable",
      "type": "function"
    },
    {
      "inputs": [
        {
          "internalType": "address",
          "name": "from",
          "type": "address"
        },
        {
          "internalType": "address",
          "name": "to",
          "type": "address"
        },
        {
          "internalType": "uint256",
          "name": "id",
          "type": "uint256"
        },
        {
          "internalType": "uint256",
          "name": "amount",
          "type": "uint256"
        },
        {
          "internalType": "bytes",
          "name": "data",
          "type": "bytes"
        }
      ],
      "name": "safeTransferFrom",
      "outputs": [],
      "stateMutability": "nonpayable",
      "type": "function"
    },
    {
      "inputs": [
        {
          "internalType": "address",
          "name": "operator",
          "type": "address"
        },
        {
          "internalType": "bool",
          "name": "approved",
          "type": "bool"
        }
      ],
      "name": "setApprovalForAll",
      "outputs": [],
      "stateMutability": "nonpayable",
      "type": "function"
    },
    {
      "inputs": [
        {
          "internalType": "string",
          "name": "_newBaseMetadataURI",
          "type": "string"
        }
      ],
      "name": "setBaseMetadataURI",
      "outputs": [],
      "stateMutability": "nonpayable",
      "type": "function"
    },
    {
      "inputs": [
        {
          "internalType": "string",
          "name": "_uri",
          "type": "string"
        }
      ],
      "name": "setContractURI",
      "outputs": [],
      "stateMutability": "nonpayable",
      "type": "function"
    },
    {
      "inputs": [
        {
          "internalType": "address",
          "name": "_to",
          "type": "address"
        },
        {
          "internalType": "uint256[]",
          "name": "_ids",
          "type": "uint256[]"
        }
      ],
      "name": "setCreator",
      "outputs": [],
      "stateMutability": "nonpayable",
      "type": "function"
    },
    {
      "inputs": [
        {
          "internalType": "uint256",
          "name": "_id",
          "type": "uint256"
        },
        {
          "internalType": "address",
          "name": "account",
          "type": "address"
        }
      ],
      "name": "setIPOContract",
      "outputs": [],
      "stateMutability": "nonpayable",
      "type": "function"
    },
    {
      "inputs": [
        {
          "internalType": "address",
          "name": "account",
          "type": "address"
        }
      ],
      "name": "setKYCAdmin",
      "outputs": [],
      "stateMutability": "nonpayable",
      "type": "function"
    },
    {
      "inputs": [
        {
          "internalType": "bytes4",
          "name": "interfaceId",
          "type": "bytes4"
        }
      ],
      "name": "supportsInterface",
      "outputs": [
        {
          "internalType": "bool",
          "name": "",
          "type": "bool"
        }
      ],
      "stateMutability": "view",
      "type": "function"
    },
    {
      "inputs": [],
      "name": "symbol",
      "outputs": [
        {
          "internalType": "string",
          "name": "",
          "type": "string"
        }
      ],
      "stateMutability": "view",
      "type": "function"
    },
    {
      "inputs": [
        {
          "internalType": "uint256",
          "name": "",
          "type": "uint256"
        }
      ],
      "name": "tokenMetadata",
      "outputs": [
        {
          "internalType": "uint256",
          "name": "unitValue",
          "type": "uint256"
        },
        {
          "internalType": "uint64",
          "name": "initiateTime",
          "type": "uint64"
        },
        {
          "internalType": "uint64",
          "name": "liquidationTime",
          "type": "uint64"
        },
        {
          "internalType": "uint64",
          "name": "taxRate",
          "type": "uint64"
        }
      ],
      "stateMutability": "view",
      "type": "function"
    },
    {
      "inputs": [
        {
          "internalType": "uint256",
          "name": "",
          "type": "uint256"
        }
      ],
      "name": "tokenSupply",
      "outputs": [
        {
          "internalType": "uint256",
          "name": "",
          "type": "uint256"
        }
      ],
      "stateMutability": "view",
      "type": "function"
    },
    {
      "inputs": [
        {
          "internalType": "uint256",
          "name": "",
          "type": "uint256"
        }
      ],
      "name": "tokenUri",
      "outputs": [
        {
          "internalType": "string",
          "name": "",
          "type": "string"
        }
      ],
      "stateMutability": "view",
      "type": "function"
    },
    {
      "inputs": [
        {
          "internalType": "uint256",
          "name": "",
          "type": "uint256"
        }
      ],
      "name": "tokenYieldData",
      "outputs": [
        {
          "internalType": "uint32",
          "name": "dividendsLength",
          "type": "uint32"
        },
        {
          "internalType": "uint64",
          "name": "liquidationTimeExtension",
          "type": "uint64"
        }
      ],
      "stateMutability": "view",
      "type": "function"
    },
    {
      "inputs": [
        {
          "internalType": "uint256",
          "name": "_id",
          "type": "uint256"
        }
      ],
      "name": "totalSupply",
      "outputs": [
        {
          "internalType": "uint256",
          "name": "",
          "type": "uint256"
        }
      ],
      "stateMutability": "view",
      "type": "function"
    },
    {
      "inputs": [
        {
          "internalType": "address",
          "name": "newGovernor",
          "type": "address"
        }
      ],
      "name": "transferGovernorship",
      "outputs": [],
      "stateMutability": "nonpayable",
      "type": "function"
    },
    {
      "inputs": [
        {
          "internalType": "uint256",
          "name": "_id",
          "type": "uint256"
        },
        {
          "internalType": "uint256",
          "name": "dividendPerShare",
          "type": "uint256"
        },
        {
          "internalType": "uint32",
          "name": "index",
          "type": "uint32"
        }
      ],
      "name": "unlockDividendPerShare",
      "outputs": [],
      "stateMutability": "nonpayable",
      "type": "function"
    },
    {
      "inputs": [
        {
          "internalType": "uint256",
          "name": "_id",
          "type": "uint256"
        }
      ],
      "name": "uri",
      "outputs": [
        {
          "internalType": "string",
          "name": "",
          "type": "string"
        }
      ],
      "stateMutability": "view",
      "type": "function"
    }
  ],
  "bytecode": "0x608060405234801561001057600080fd5b506145ef806100206000396000f3fe608060405234801561001057600080fd5b50600436106102d45760003560e01c8063938e3d7b11610182578063beb60ec4116100e9578063d98d9eaf116100a2578063e8a3d4851161007c578063e8a3d48514610774578063e985e9c51461077c578063f242432a146107b8578063f6ee8fcc146107cb57600080fd5b8063d98d9eaf1461073b578063df4773901461074e578063e086bab81461076157600080fd5b8063beb60ec414610665578063c884127214610678578063cd53d08e1461068b578063d1c901a4146106b4578063d2a6b51a14610715578063d64e83d71461072857600080fd5b8063a6487c531161013b578063a6487c53146105d8578063b1fd6910146105eb578063b48ab8b61461060c578063b6aa515b1461061f578063bb89730314610632578063bd85b0391461064557600080fd5b8063938e3d7b1461055a57806395d89b411461056d5780639944f518146105755780639a429294146105885780639b166e2f1461059b578063a22cb465146105c557600080fd5b80632eb2c2d61161024157806365121795116101fa578063731133e9116101d4578063731133e91461051957806378c4acb81461052c5780637e518ec81461053f57806381c0c2631461055257600080fd5b806365121795146104855780636914db60146104985780636f98e1291461050e57600080fd5b80632eb2c2d614610411578063409f8c48146104245780634e1273f41461043757806358cc49a514610457578063590a5ce01461046a57806359d1a4b11461047d57600080fd5b80630e89341c116102935780630e89341c1461039257806312849fee146103a55780631675f455146103b857806322b6ccfe146103cb578063243f6b58146103de5780632693ebf2146103f157600080fd5b806256d08d146102d9578062fdd58e146102ee57806301ffc9a71461031457806303c89ec21461033757806306fdde03146103585780630c340a241461036d575b600080fd5b6102ec6102e7366004613664565b6107de565b005b6103016102fc3660046136bd565b6108bf565b6040519081526020015b60405180910390f35b6103276103223660046136fd565b6108d2565b604051901515815260200161030b565b61030161034536600461371a565b6101396020526000908152604090205481565b610360610924565b60405161030b9190613780565b6097546001600160a01b03165b6040516001600160a01b03909116815260200161030b565b6103606103a036600461371a565b6109b3565b6102ec6103b33660046137aa565b610a55565b6103606103c636600461371a565b610b1c565b6102ec6103d9366004613801565b610b35565b6102ec6103ec366004613801565b610b85565b6103016103ff36600461371a565b60fd6020526000908152604090205481565b6102ec61041f366004613965565b610bd2565b6102ec610432366004613801565b610f21565b61044a610445366004613a0e565b610fad565b60405161030b9190613b13565b6102ec61046536600461371a565b6110d6565b6102ec610478366004613b26565b611396565b6102ec6114ba565b610301610493366004613b26565b6114f0565b6104df6104a636600461371a565b61013560205260009081526040902080546001909101546001600160401b0380821691600160401b8104821691600160801b9091041684565b604080519485526001600160401b0393841660208601529183169184019190915216606082015260800161030b565b6103016305f5e10081565b6102ec610527366004613b48565b611524565b6102ec61053a366004613ba8565b61159a565b6102ec61054d366004613c1c565b61163d565b6102ec611670565b6102ec610568366004613c1c565b6116a4565b6103606116e5565b610327610583366004613801565b6116f3565b61030161059636600461371a565b611728565b61037a6105a936600461371a565b600090815261013a60205260409020546001600160a01b031690565b6102ec6105d3366004613c66565b611824565b6102ec6105e6366004613c9d565b61182f565b6103016105f936600461371a565b6000908152610135602052604090205490565b6102ec61061a366004613d24565b6118b2565b6102ec61062d366004613801565b611a41565b610301610640366004613df8565b611adf565b61030161065336600461371a565b600090815260fd602052604090205490565b6102ec61067336600461371a565b611d6b565b61030161068636600461371a565b612021565b61037a61069936600461371a565b60fc602052600090815260409020546001600160a01b031681565b6106f16106c236600461371a565b6101366020526000908152604090206001015463ffffffff81169064010000000090046001600160401b031682565b6040805163ffffffff90931683526001600160401b0390911660208301520161030b565b6102ec610723366004613e95565b61218b565b6102ec610736366004613ba8565b6122c5565b610327610749366004613ed8565b612363565b61030161075c36600461371a565b612385565b61030161076f36600461371a565b6123d2565b61036061252d565b61032761078a366004613f04565b6001600160a01b03918216600090815260666020908152604080832093909416825291909152205460ff1690565b6102ec6107c6366004613f2e565b6125bf565b6102ec6107d9366004613ed8565b612809565b600083815260fc602052604090205483906001600160a01b0316331461081f5760405162461bcd60e51b815260040161081690613f92565b60405180910390fd5b600084815261013660205260409020805484919063ffffffff851690811061084957610849613fe3565b60009182526020909120015561086082600161400f565b6000858152610136602052604090206001015463ffffffff918216911610156108b95761088e82600161400f565b600085815261013660205260409020600101805463ffffffff191663ffffffff929092169190911790555b50505050565b60006108cb8383612871565b9392505050565b60006001600160e01b03198216636cdb3d1360e11b148061090357506001600160e01b031982166303a24d0760e21b145b8061091e57506301ffc9a760e01b6001600160e01b03198316145b92915050565b610100805461093290614037565b80601f016020809104026020016040519081016040528092919081815260200182805461095e90614037565b80156109ab5780601f10610980576101008083540402835291602001916109ab565b820191906000526020600020905b81548152906001019060200180831161098e57829003601f168201915b505050505081565b600081815260fe602052604090208054606091906109d090614037565b80601f01602080910402602001604051908101604052809291908181526020018280546109fc90614037565b8015610a495780601f10610a1e57610100808354040283529160200191610a49565b820191906000526020600020905b815481529060010190602001808311610a2c57829003601f168201915b50505050509050919050565b600085815260fc602052604090205485906001600160a01b03163314610a8d5760405162461bcd60e51b815260040161081690613f92565b50604080516080810182529384526001600160401b039485166020808601918252938616858301908152928616606086019081526000978852610135909452952092518355935160019092018054945191519284166001600160801b031990951694909417600160401b918416919091021767ffffffffffffffff60801b1916600160801b9190921602179055565b60fe602052600090815260409020805461093290614037565b610103546001600160a01b03163314610b605760405162461bcd60e51b81526004016108169061406c565b6001600160a01b0316600090815261010260205260409020805460ff19166001179055565b610103546001600160a01b03163314610bb05760405162461bcd60e51b81526004016108169061406c565b6001600160a01b0316600090815261010260205260409020805460ff19169055565b8151835114610bf35760405162461bcd60e51b8152600401610816906140ae565b6001600160a01b038416610c195760405162461bcd60e51b8152600401610816906140f6565b6001600160a01b038516331480610c355750610c35853361078a565b610c9c5760405162461bcd60e51b815260206004820152603260248201527f455243313135353a207472616e736665722063616c6c6572206973206e6f74206044820152711bdddb995c881b9bdc88185c1c1c9bdd995960721b6064820152608401610816565b3360005b8451811015610d40576000858281518110610cbd57610cbd613fe3565b602002602001015190506000858381518110610cdb57610cdb613fe3565b60209081029190910181015160008481526065835260408082206001600160a01b038e168352909352919091205490915081811015610d2c5760405162461bcd60e51b81526004016108169061413b565b50505080610d3990614185565b9050610ca0565b5060005b8451811015610d90576000858281518110610d6157610d61613fe3565b60200260200101519050610d758882612905565b610d7f8782612905565b50610d8981614185565b9050610d44565b5060005b8451811015610eb3576000858281518110610db157610db1613fe3565b602002602001015190506000858381518110610dcf57610dcf613fe3565b60209081029190910181015160008481526065835260408082206001600160a01b038e168352909352918220805482810390915590925090610e11848c612363565b80610e215750610e21848b612363565b905080610e6657600084815261013b602090815260408083206001600160a01b038e16845290915281208054859290610e5b9084906141a0565b90915550610e9e9050565b60008481526065602090815260408083206001600160a01b038e16845290915281208054859290610e989084906141a0565b90915550505b5050505080610eac90614185565b9050610d94565b50846001600160a01b0316866001600160a01b0316826001600160a01b03167f4a39dc06d4c0dbc64b70af90fd698a233a518aa5d07e595d983b8c0526c8f7fb8787604051610f039291906141b8565b60405180910390a4610f19818787878787612bdd565b505050505050565b6097546001600160a01b03163314610f4b5760405162461bcd60e51b8152600401610816906141e6565b6001600160a01b038116610fa15760405162461bcd60e51b815260206004820181905260248201527f4b59432041646d696e2063616e6e6f74206265207a65726f20616464726573736044820152606401610816565b610faa81612d51565b50565b606081518351146110125760405162461bcd60e51b815260206004820152602960248201527f455243313135353a206163636f756e747320616e6420696473206c656e677468604482015268040dad2e6dac2e8c6d60bb1b6064820152608401610816565b600083516001600160401b0381111561102d5761102d61381c565b604051908082528060200260200182016040528015611056578160200160208202803683370190505b50905060005b84518110156110ce576110a185828151811061107a5761107a613fe3565b602002602001015185838151811061109457611094613fe3565b60200260200101516108bf565b8282815181106110b3576110b3613fe3565b60209081029190910101526110c781614185565b905061105c565b509392505050565b336000908152610102602052604090205460ff166111245760405162461bcd60e51b815260206004820152600b60248201526a4e6f7420796574204b594360a81b6044820152606401610816565b600260c95414156111775760405162461bcd60e51b815260206004820152601f60248201527f5265656e7472616e637947756172643a207265656e7472616e742063616c6c006044820152606401610816565b600260c955336111878183612905565b6000828152610137602090815260408083206001600160a01b0385168452909152902060020154806111fb5760405162461bcd60e51b815260206004820181905260248201527f524549544e46543a206e6f206d6f726520636c61696d61626c65207969656c646044820152606401610816565b6000838152610139602052604090205481111561126a5760405162461bcd60e51b815260206004820152602760248201527f524549544e46543a206e656564206d6f72652066756e64696e67732066726f6d6044820152661034b9b9bab2b960c91b6064820152608401610816565b6000838152610137602090815260408083206001600160a01b03868116808652918452828520600281018690556003018054870190558785526101389093529281902054905163a9059cbb60e01b81526004810193909352602483018490521690819063a9059cbb90604401602060405180830381600087803b1580156112f057600080fd5b505af1158015611304573d6000803e3d6000fd5b505050506040513d601f19601f82011682018060405250810190611328919061422c565b6113745760405162461bcd60e51b815260206004820181905260248201527f524549544e46543a20436f756c64206e6f74207472616e736665722066756e646044820152606401610816565b506000928352610139602052604090922080549290920390915550600160c955565b600082815261013860205260409020546001600160a01b0316806323b872dd336040516001600160e01b031960e084901b1681526001600160a01b03909116600482015230602482015260448101859052606401602060405180830381600087803b15801561140457600080fd5b505af1158015611418573d6000803e3d6000fd5b505050506040513d601f19601f8201168201806040525081019061143c919061422c565b6114885760405162461bcd60e51b815260206004820181905260248201527f524549544e46543a20436f756c64206e6f74207472616e736665722066756e646044820152606401610816565b600083815261013960205260409020546114a29083612d74565b60009384526101396020526040909320929092555050565b6097546001600160a01b031633146114e45760405162461bcd60e51b8152600401610816906141e6565b6114ee6000612d51565b565b60008281526101366020526040812080548390811061151157611511613fe3565b9060005260206000200154905092915050565b600083815260fc602052604090205483906001600160a01b0316331461155c5760405162461bcd60e51b815260040161081690613f92565b61156885858585612d80565b600084815260fd60205260409020546115819084612d74565b600094855260fd60205260409094209390935550505050565b610103546001600160a01b031633146115c55760405162461bcd60e51b81526004016108169061406c565b60005b8181101561163857600161010260008585858181106115e9576115e9613fe3565b90506020020160208101906115fe9190613801565b6001600160a01b031681526020810191909152604001600020805460ff19169115159190911790558061163081614185565b9150506115c8565b505050565b6097546001600160a01b031633146116675760405162461bcd60e51b8152600401610816906141e6565b610faa81612e53565b6097546001600160a01b0316331461169a5760405162461bcd60e51b8152600401610816906141e6565b6114ee6000612e66565b6097546001600160a01b031633146116ce5760405162461bcd60e51b8152600401610816906141e6565b80516116e19060ff90602084019061351d565b5050565b610101805461093290614037565b60006001600160a01b03821661170857600080fd5b506001600160a01b03166000908152610102602052604090205460ff1690565b60008181526101366020908152604080832081518154608094810282018501909352606081018381528594859492939284929184919084018282801561178d57602002820191906000526020600020905b815481526020019060010190808311611779575b50505091835250506001919091015463ffffffff8116602083015264010000000090046001600160401b0316604090910152905060005b816020015163ffffffff168163ffffffff16101561181b578151805163ffffffff83169081106117f6576117f6613fe3565b60200260200101518361180991906141a0565b925061181481614249565b90506117c4565b50909392505050565b6116e1338383612eb8565b600061183b6001612f99565b90508015611853576000805461ff0019166101001790555b61185e848484613026565b6118666130e8565b80156108b9576000805461ff0019169055604051600181527f7f26b83ff96e1f2b6a682f133852f6798a09c465da95921460cefb3847402498906020015b60405180910390a150505050565b815183511461191c5760405162461bcd60e51b815260206004820152603060248201527f455243313135354d696e744275726e2362617463684d696e743a20494e56414c60448201526f09288be82a4a482b2a6be988a9c8ea8960831b6064820152608401610816565b60005b8351811015611a3457600084828151811061193c5761193c613fe3565b602090810291909101810151600081815260fc9092526040909120549091506001600160a01b031633146119ca5760405162461bcd60e51b815260206004820152602f60248201527f455243313135355472616461626c652362617463684d696e743a204f4e4c595f60448201526e10d491505513d497d0531313d5d151608a1b6064820152608401610816565b60008483815181106119de576119de613fe3565b60200260200101519050611a0e8160fd600085815260200190815260200160002054612d7490919063ffffffff16565b600092835260fd6020526040909220919091555080611a2c81614185565b91505061191f565b506108b984848484613117565b6097546001600160a01b03163314611a6b5760405162461bcd60e51b8152600401610816906141e6565b6001600160a01b038116611ad65760405162461bcd60e51b815260206004820152602c60248201527f476f7665726e61626c653a206e657720676f7665726e6f72206973207468652060448201526b7a65726f206164647265737360a01b6064820152608401610816565b610faa81612e66565b6097546000906001600160a01b03163314611b0c5760405162461bcd60e51b8152600401610816906141e6565b6000611b1661326a565b9050611b20613280565b611b2a8982613297565b8515611b8557807f6bb7ff708619ba0610cba295a58592e0451dee2622938c8755667688daf3529b8888604051611b6292919061426d565b60405180910390a2600081815260fe60205260409020611b839088886135a1565b505b60008181526101386020908152604080832080546001600160a01b038a166001600160a01b03199091161790558051608080820183528482528184018581528284018681526060808501888152898952610135909752968590209351845590516001939093018054915195516001600160401b03908116600160801b0267ffffffffffffffff60801b19978216600160401b026001600160801b0319909416919095161791909117949094169190911790925580516078938101848152610f8082019092529283928301610f008036833750505081526000602080830182905260409283018290528482526101368152919020825180519192611c8d92849290910190613615565b50602082810151600190920180546040948501516001600160401b0316640100000000026bffffffffffffffffffffffff1990911663ffffffff90941693909317929092179091558151601f8601829004820281018201909252848252611d14918b9184918c918990899081908401838280828437600092019190915250612d8092505050565b600081815260fd602052604090819020899055517f07eac9a0695a188fe9d6fd680bcbbbe39041fb114d5d7ac11252401391f7930790611d579083815260200190565b60405180910390a198975050505050505050565b336000908152610102602052604090205460ff16611db95760405162461bcd60e51b815260206004820152600b60248201526a4e6f7420796574204b594360a81b6044820152606401610816565b600260c9541415611e0c5760405162461bcd60e51b815260206004820152601f60248201527f5265656e7472616e637947756172643a207265656e7472616e742063616c6c006044820152606401610816565b600260c955600081815261013b602090815260408083203380855292529091205480611e735760405162461bcd60e51b8152602060048201526016602482015275105b1c9958591e481c9959da5cdd195c995908185b1b60521b6044820152606401610816565b600083815261013560205260408120600181015490546305f5e10091600160801b90046001600160401b031690611eab90859061429c565b611eb5919061429c565b611ebf91906142bb565b60008581526101386020526040908190205490516323b872dd60e01b81526001600160a01b0386811660048301523060248301526044820184905292935091169081906323b872dd90606401602060405180830381600087803b158015611f2557600080fd5b505af1158015611f39573d6000803e3d6000fd5b505050506040513d601f19601f82011682018060405250810190611f5d919061422c565b611fa95760405162461bcd60e51b815260206004820152601a60248201527f524549544e46543a20436f756c64206e6f7420706179207461780000000000006044820152606401610816565b5050600083815261013b602090815260408083206001600160a01b0395909516808452948252808320839055858352606582528083208584528252808320805494909401909355938152610137845281812092815291909252908120600181810180546002909301805490930190925591905560c955565b60008181612030335b836108bf565b1161204d5760405162461bcd60e51b8152600401610816906142dd565b6000838152610137602090815260408083203380855292529091206004015460ff1661207d576000925050612185565b60008481526065602090815260408083206001600160a01b038516808552908352818420548885526101368452828520600101546101378552838620928652919093529083206004015491929163ffffffff9182169161010090910416805b8263ffffffff168163ffffffff16101561214b57600089815261013660205260409020805486919063ffffffff841690811061211a5761211a613fe3565b906000526020600020015461212f919061429c565b61213990856141a0565b935061214481614249565b90506120dc565b506000888152610137602090815260408083206001600160a01b038916845290915290206002015461217d90846141a0565b965050505050505b50919050565b6001600160a01b0382166121f55760405162461bcd60e51b815260206004820152602b60248201527f455243313135355472616461626c652373657443726561746f723a20494e564160448201526a4c49445f4144445245535360a81b6064820152608401610816565b60005b815181101561163857600082828151811061221557612215613fe3565b602002602001015190506122263390565b600082815260fc60205260409020546001600160a01b039081169116146122a85760405162461bcd60e51b815260206004820152603060248201527f455243313135355472616461626c652373657443726561746f723a204f4e4c5960448201526f17d0d491505513d497d0531313d5d15160821b6064820152608401610816565b6122b28482613297565b50806122bd81614185565b9150506121f8565b610103546001600160a01b031633146122f05760405162461bcd60e51b81526004016108169061406c565b60005b81811015611638576000610102600085858581811061231457612314613fe3565b90506020020160208101906123299190613801565b6001600160a01b031681526020810191909152604001600020805460ff19169115159190911790558061235b81614185565b9150506122f3565b600091825261013a6020526040909120546001600160a01b0391821691161490565b600081816123923361202a565b116123af5760405162461bcd60e51b8152600401610816906142dd565b505060009081526101376020908152604080832033845290915290206003015490565b600081816123df3361202a565b116123fc5760405162461bcd60e51b8152600401610816906142dd565b6000838152610137602090815260408083203380855292529091206004015460ff1661242c576000925050612185565b600084815261013b602090815260408083206001600160a01b038516808552908352818420548885526101368452828520600101546101378552838620928652919093529083206004015491929163ffffffff9182169161010090910416805b8263ffffffff168163ffffffff1610156124fb57600089815261013660205260409020805486919063ffffffff84169081106124ca576124ca613fe3565b90600052602060002001546124df919061429c565b6124e990856141a0565b93506124f481614249565b905061248c565b506000888152610137602090815260408083206001600160a01b038916845290915290206001015461217d90846141a0565b606060ff805461253c90614037565b80601f016020809104026020016040519081016040528092919081815260200182805461256890614037565b80156125b55780601f1061258a576101008083540402835291602001916125b5565b820191906000526020600020905b81548152906001019060200180831161259857829003601f168201915b5050505050905090565b6001600160a01b0384166125e55760405162461bcd60e51b8152600401610816906140f6565b6001600160a01b0385163314806126015750612601853361078a565b61265f5760405162461bcd60e51b815260206004820152602960248201527f455243313135353a2063616c6c6572206973206e6f74206f776e6572206e6f7260448201526808185c1c1c9bdd995960ba1b6064820152608401610816565b33600061266b856132c5565b90506000612678856132c5565b905060008681526065602090815260408083206001600160a01b038c168452909152902054858110156126bd5760405162461bcd60e51b81526004016108169061413b565b6126c78988612905565b6126d18888612905565b60008781526065602090815260408083206001600160a01b038d16845290915281208783039055612702888b612363565b806127125750612712888a612363565b90508061275757600088815261013b602090815260408083206001600160a01b038d1684529091528120805489929061274c9084906141a0565b9091555061278f9050565b60008881526065602090815260408083206001600160a01b038d168452909152812080548992906127899084906141a0565b90915550505b886001600160a01b03168a6001600160a01b0316866001600160a01b03167fc3d58168c5ae7397731d063d5bbf3d657854427343f4c083240f7aacaa2d0f628b8b6040516127e7929190918252602082015260400190565b60405180910390a46127fd858b8b8b8b8b613310565b50505050505050505050565b600082815260fc602052604090205482906001600160a01b031633146128415760405162461bcd60e51b815260040161081690613f92565b50600091825261013a602052604090912080546001600160a01b0319166001600160a01b03909216919091179055565b60006001600160a01b0383166128dd5760405162461bcd60e51b815260206004820152602b60248201527f455243313135353a2062616c616e636520717565727920666f7220746865207a60448201526a65726f206164647265737360a81b6064820152608401610816565b5060009081526065602090815260408083206001600160a01b03949094168352929052205490565b61290f8183612363565b15612918575050565b6000818152610137602090815260408083206001600160a01b038616845290915290206004015460ff166129fe576040805160c0810182526001600160a01b03808516808352600060208085018281528587018381526060870184815260016080890181815260a08a018781528c885261013787528b882098885297909552989094209651875496166001600160a01b031990961695909517865551958501959095559151600284015590516003830155915160049091018054925163ffffffff166101000264ffffffff00199215159290921664ffffffffff19909316929092171790555b6000818152610137602090815260408083206001600160a01b0386168452909152812060040154819060ff1615612b7257600083815261013b602090815260408083206001600160a01b03881680855290835281842054878552606584528285208286528452828520548886526101368552838620600101546101378652848720938752929094529190932060040154909263ffffffff90811691610100900416805b8263ffffffff168163ffffffff161015612b2957600088815261013660205260408120805463ffffffff8416908110612adc57612adc613fe3565b906000526020600020015490508481612af5919061429c565b612aff90896141a0565b9750612b0b868261429c565b612b1590886141a0565b96505080612b2290614249565b9050612aa1565b50506000868152610137602090815260408083206001600160a01b038b1684529091529020600401805463ffffffff9092166101000264ffffffff001990921691909117905550505b8115612ba5576000838152610137602090815260408083206001600160a01b038816845290915290206002018054830190555b80156108b9576000838152610137602090815260408083206001600160a01b0388168452909152902060010180548201905550505050565b6001600160a01b0384163b15610f195760405163bc197c8160e01b81526001600160a01b0385169063bc197c8190612c219089908990889088908890600401614332565b602060405180830381600087803b158015612c3b57600080fd5b505af1925050508015612c6b575060408051601f3d908101601f19168201909252612c6891810190614390565b60015b612d1857612c776143ad565b806308c379a01415612cb15750612c8c6143c9565b80612c975750612cb3565b8060405162461bcd60e51b81526004016108169190613780565b505b60405162461bcd60e51b815260206004820152603460248201527f455243313135353a207472616e7366657220746f206e6f6e20455243313135356044820152732932b1b2b4bb32b91034b6b83632b6b2b73a32b960611b6064820152608401610816565b6001600160e01b0319811663bc197c8160e01b14612d485760405162461bcd60e51b815260040161081690614452565b50505050505050565b61010380546001600160a01b0319166001600160a01b0392909216919091179055565b60006108cb82846141a0565b6001600160a01b038416612da65760405162461bcd60e51b81526004016108169061449a565b336000612db2856132c5565b90506000612dbf856132c5565b905060008681526065602090815260408083206001600160a01b038b16845290915281208054879290612df39084906141a0565b909155505060408051878152602081018790526001600160a01b03808a1692600092918716917fc3d58168c5ae7397731d063d5bbf3d657854427343f4c083240f7aacaa2d0f62910160405180910390a4612d4883600089898989613310565b80516116e190606790602084019061351d565b609780546001600160a01b038381166001600160a01b0319831681179093556040519116919082907fc7c0c772add429241571afb3805861fb3cfa2af374534088b76cdb4325a87e9a90600090a35050565b816001600160a01b0316836001600160a01b03161415612f2c5760405162461bcd60e51b815260206004820152602960248201527f455243313135353a2073657474696e6720617070726f76616c20737461747573604482015268103337b91039b2b63360b91b6064820152608401610816565b6001600160a01b03838116600081815260666020908152604080832094871680845294825291829020805460ff191686151590811790915591519182527f17307eab39ab6107e8899845ad3d59bd9653f200f220920489ca2b5937696c31910160405180910390a3505050565b60008054610100900460ff1615612fe0578160ff166001148015612fbc5750303b155b612fd85760405162461bcd60e51b8152600401610816906144db565b506000919050565b60005460ff8084169116106130075760405162461bcd60e51b8152600401610816906144db565b506000805460ff191660ff92909216919091179055600190565b919050565b60006130326001612f99565b9050801561304a576000805461ff0019166101001790555b613053826133da565b61305b61340a565b613063613439565b83516130779061010090602087019061351d565b50825161308c9061010190602086019061351d565b50600060fb5581516130a59060ff90602085019061351d565b5080156108b9576000805461ff0019169055604051600181527f7f26b83ff96e1f2b6a682f133852f6798a09c465da95921460cefb3847402498906020016118a4565b600054610100900460ff1661310f5760405162461bcd60e51b815260040161081690614529565b6114ee613468565b6001600160a01b03841661313d5760405162461bcd60e51b81526004016108169061449a565b815183511461315e5760405162461bcd60e51b8152600401610816906140ae565b3360005b84518110156131fb5783818151811061317d5761317d613fe3565b60200260200101516065600087848151811061319b5761319b613fe3565b602002602001015181526020019081526020016000206000886001600160a01b03166001600160a01b0316815260200190815260200160002060008282546131e391906141a0565b909155508190506131f381614185565b915050613162565b50846001600160a01b031660006001600160a01b0316826001600160a01b03167f4a39dc06d4c0dbc64b70af90fd698a233a518aa5d07e595d983b8c0526c8f7fb878760405161324c9291906141b8565b60405180910390a461326381600087878787612bdd565b5050505050565b60fb5460009061327b906001612d74565b905090565b60fb805490600061329083614185565b9190505550565b600090815260fc6020526040902080546001600160a01b0319166001600160a01b0392909216919091179055565b604080516001808252818301909252606091600091906020808301908036833701905050905082816000815181106132ff576132ff613fe3565b602090810291909101015292915050565b6001600160a01b0384163b15610f195760405163f23a6e6160e01b81526001600160a01b0385169063f23a6e61906133549089908990889088908890600401614574565b602060405180830381600087803b15801561336e57600080fd5b505af192505050801561339e575060408051601f3d908101601f1916820190925261339b91810190614390565b60015b6133aa57612c776143ad565b6001600160e01b0319811663f23a6e6160e01b14612d485760405162461bcd60e51b815260040161081690614452565b600054610100900460ff166134015760405162461bcd60e51b815260040161081690614529565b610faa81613498565b600054610100900460ff166134315760405162461bcd60e51b815260040161081690614529565b6114ee6134bf565b600054610100900460ff166134605760405162461bcd60e51b815260040161081690614529565b6114ee6134ef565b600054610100900460ff1661348f5760405162461bcd60e51b815260040161081690614529565b6114ee33612d51565b600054610100900460ff166116675760405162461bcd60e51b815260040161081690614529565b600054610100900460ff166134e65760405162461bcd60e51b815260040161081690614529565b6114ee33612e66565b600054610100900460ff166135165760405162461bcd60e51b815260040161081690614529565b600160c955565b82805461352990614037565b90600052602060002090601f01602090048101928261354b5760008555613591565b82601f1061356457805160ff1916838001178555613591565b82800160010185558215613591579182015b82811115613591578251825591602001919060010190613576565b5061359d92915061364f565b5090565b8280546135ad90614037565b90600052602060002090601f0160209004810192826135cf5760008555613591565b82601f106135e85782800160ff19823516178555613591565b82800160010185558215613591579182015b828111156135915782358255916020019190600101906135fa565b8280548282559060005260206000209081019282156135915791602002820182811115613591578251825591602001919060010190613576565b5b8082111561359d5760008155600101613650565b60008060006060848603121561367957600080fd5b8335925060208401359150604084013563ffffffff8116811461369b57600080fd5b809150509250925092565b80356001600160a01b038116811461302157600080fd5b600080604083850312156136d057600080fd5b6136d9836136a6565b946020939093013593505050565b6001600160e01b031981168114610faa57600080fd5b60006020828403121561370f57600080fd5b81356108cb816136e7565b60006020828403121561372c57600080fd5b5035919050565b6000815180845260005b818110156137595760208185018101518683018201520161373d565b8181111561376b576000602083870101525b50601f01601f19169290920160200192915050565b6020815260006108cb6020830184613733565b80356001600160401b038116811461302157600080fd5b600080600080600060a086880312156137c257600080fd5b853594506137d260208701613793565b9350604086013592506137e760608701613793565b91506137f560808701613793565b90509295509295909350565b60006020828403121561381357600080fd5b6108cb826136a6565b634e487b7160e01b600052604160045260246000fd5b601f8201601f191681016001600160401b03811182821017156138575761385761381c565b6040525050565b60006001600160401b038211156138775761387761381c565b5060051b60200190565b600082601f83011261389257600080fd5b8135602061389f8261385e565b6040516138ac8282613832565b83815260059390931b85018201928281019150868411156138cc57600080fd5b8286015b848110156138e757803583529183019183016138d0565b509695505050505050565b600082601f83011261390357600080fd5b81356001600160401b0381111561391c5761391c61381c565b604051613933601f8301601f191660200182613832565b81815284602083860101111561394857600080fd5b816020850160208301376000918101602001919091529392505050565b600080600080600060a0868803121561397d57600080fd5b613986866136a6565b9450613994602087016136a6565b935060408601356001600160401b03808211156139b057600080fd5b6139bc89838a01613881565b945060608801359150808211156139d257600080fd5b6139de89838a01613881565b935060808801359150808211156139f457600080fd5b50613a01888289016138f2565b9150509295509295909350565b60008060408385031215613a2157600080fd5b82356001600160401b0380821115613a3857600080fd5b818501915085601f830112613a4c57600080fd5b81356020613a598261385e565b604051613a668282613832565b83815260059390931b8501820192828101915089841115613a8657600080fd5b948201945b83861015613aab57613a9c866136a6565b82529482019490820190613a8b565b96505086013592505080821115613ac157600080fd5b50613ace85828601613881565b9150509250929050565b600081518084526020808501945080840160005b83811015613b0857815187529582019590820190600101613aec565b509495945050505050565b6020815260006108cb6020830184613ad8565b60008060408385031215613b3957600080fd5b50508035926020909101359150565b60008060008060808587031215613b5e57600080fd5b613b67856136a6565b9350602085013592506040850135915060608501356001600160401b03811115613b9057600080fd5b613b9c878288016138f2565b91505092959194509250565b60008060208385031215613bbb57600080fd5b82356001600160401b0380821115613bd257600080fd5b818501915085601f830112613be657600080fd5b813581811115613bf557600080fd5b8660208260051b8501011115613c0a57600080fd5b60209290920196919550909350505050565b600060208284031215613c2e57600080fd5b81356001600160401b03811115613c4457600080fd5b613c50848285016138f2565b949350505050565b8015158114610faa57600080fd5b60008060408385031215613c7957600080fd5b613c82836136a6565b91506020830135613c9281613c58565b809150509250929050565b600080600060608486031215613cb257600080fd5b83356001600160401b0380821115613cc957600080fd5b613cd5878388016138f2565b94506020860135915080821115613ceb57600080fd5b613cf7878388016138f2565b93506040860135915080821115613d0d57600080fd5b50613d1a868287016138f2565b9150509250925092565b60008060008060808587031215613d3a57600080fd5b613d43856136a6565b935060208501356001600160401b0380821115613d5f57600080fd5b613d6b88838901613881565b94506040870135915080821115613d8157600080fd5b613d8d88838901613881565b93506060870135915080821115613da357600080fd5b50613b9c878288016138f2565b60008083601f840112613dc257600080fd5b5081356001600160401b03811115613dd957600080fd5b602083019150836020828501011115613df157600080fd5b9250929050565b600080600080600080600060a0888a031215613e1357600080fd5b613e1c886136a6565b96506020880135955060408801356001600160401b0380821115613e3f57600080fd5b613e4b8b838c01613db0565b9097509550859150613e5f60608b016136a6565b945060808a0135915080821115613e7557600080fd5b50613e828a828b01613db0565b989b979a50959850939692959293505050565b60008060408385031215613ea857600080fd5b613eb1836136a6565b915060208301356001600160401b03811115613ecc57600080fd5b613ace85828601613881565b60008060408385031215613eeb57600080fd5b82359150613efb602084016136a6565b90509250929050565b60008060408385031215613f1757600080fd5b613f20836136a6565b9150613efb602084016136a6565b600080600080600060a08688031215613f4657600080fd5b613f4f866136a6565b9450613f5d602087016136a6565b9350604086013592506060860135915060808601356001600160401b03811115613f8657600080fd5b613a01888289016138f2565b60208082526031908201527f455243313135355472616461626c652363726561746f724f6e6c793a204f4e4c6040820152701657d0d491505513d497d0531313d5d151607a1b606082015260800190565b634e487b7160e01b600052603260045260246000fd5b634e487b7160e01b600052601160045260246000fd5b600063ffffffff80831681851680830382111561402e5761402e613ff9565b01949350505050565b600181811c9082168061404b57607f821691505b6020821081141561218557634e487b7160e01b600052602260045260246000fd5b60208082526022908201527f4b59434163636573733a2063616c6c6572206973206e6f74207468652061646d60408201526134b760f11b606082015260800190565b60208082526028908201527f455243313135353a2069647320616e6420616d6f756e7473206c656e677468206040820152670dad2e6dac2e8c6d60c31b606082015260800190565b60208082526025908201527f455243313135353a207472616e7366657220746f20746865207a65726f206164604082015264647265737360d81b606082015260800190565b6020808252602a908201527f455243313135353a20696e73756666696369656e742062616c616e636520666f60408201526939103a3930b739b332b960b11b606082015260800190565b600060001982141561419957614199613ff9565b5060010190565b600082198211156141b3576141b3613ff9565b500190565b6040815260006141cb6040830185613ad8565b82810360208401526141dd8185613ad8565b95945050505050565b60208082526026908201527f476f7665726e61626c653a2063616c6c6572206973206e6f742074686520676f6040820152653b32b93737b960d11b606082015260800190565b60006020828403121561423e57600080fd5b81516108cb81613c58565b600063ffffffff8083168181141561426357614263613ff9565b6001019392505050565b60208152816020820152818360408301376000818301604090810191909152601f909201601f19160101919050565b60008160001904831182151516156142b6576142b6613ff9565b500290565b6000826142d857634e487b7160e01b600052601260045260246000fd5b500490565b60208082526035908201527f455243313135355472616461626c65237368617265486f6c646572734f6e6c796040820152740e8813d3931657d3d5d3915494d7d0531313d5d151605a1b606082015260800190565b6001600160a01b0386811682528516602082015260a06040820181905260009061435e90830186613ad8565b82810360608401526143708186613ad8565b905082810360808401526143848185613733565b98975050505050505050565b6000602082840312156143a257600080fd5b81516108cb816136e7565b600060033d11156143c65760046000803e5060005160e01c5b90565b600060443d10156143d75790565b6040516003193d81016004833e81513d6001600160401b03816024840111818411171561440657505050505090565b828501915081518181111561441e5750505050505090565b843d87010160208285010111156144385750505050505090565b61444760208286010187613832565b509095945050505050565b60208082526028908201527f455243313135353a204552433131353552656365697665722072656a656374656040820152676420746f6b656e7360c01b606082015260800190565b60208082526021908201527f455243313135353a206d696e7420746f20746865207a65726f206164647265736040820152607360f81b606082015260800190565b6020808252602e908201527f496e697469616c697a61626c653a20636f6e747261637420697320616c72656160408201526d191e481a5b9a5d1a585b1a5e995960921b606082015260800190565b6020808252602b908201527f496e697469616c697a61626c653a20636f6e7472616374206973206e6f74206960408201526a6e697469616c697a696e6760a81b606082015260800190565b6001600160a01b03868116825285166020820152604081018490526060810183905260a0608082018190526000906145ae90830184613733565b97965050505050505056fea2646970667358221220a6f1d8a97e8c8e1865024b95048113b75c112336ae84b128419228b8f9eda42c64736f6c63430008090033",
  "linkReferences": {},
  "deployedLinkReferences": {}
}