{
  "_format": "hh-sol-artifact-1",
  "contractName": "REITNFT",
  "sourceName": "contracts/REITNFT.sol",
  "abi": [
    {
      "anonymous": false,
      "inputs": [
        {
          "indexed": true,
          "internalType": "address",
          "name": "account",
          "type": "address"
        },
        {
          "indexed": true,
          "internalType": "address",
          "name": "operator",
          "type": "address"
        },
        {
          "indexed": false,
          "internalType": "bool",
          "name": "approved",
          "type": "bool"
        }
      ],
      "name": "ApprovalForAll",
      "type": "event"
    },
    {
      "anonymous": false,
      "inputs": [
        {
          "indexed": false,
          "internalType": "uint256",
          "name": "id",
          "type": "uint256"
        }
      ],
      "name": "Create",
      "type": "event"
    },
    {
      "anonymous": false,
      "inputs": [
        {
          "indexed": true,
          "internalType": "address",
          "name": "previousGovernor",
          "type": "address"
        },
        {
          "indexed": true,
          "internalType": "address",
          "name": "newGovernor",
          "type": "address"
        }
      ],
      "name": "GovernorshipTransferred",
      "type": "event"
    },
    {
      "anonymous": false,
      "inputs": [
        {
          "indexed": false,
          "internalType": "uint8",
          "name": "version",
          "type": "uint8"
        }
      ],
      "name": "Initialized",
      "type": "event"
    },
    {
      "anonymous": false,
      "inputs": [
        {
          "indexed": true,
          "internalType": "address",
          "name": "operator",
          "type": "address"
        },
        {
          "indexed": true,
          "internalType": "address",
          "name": "from",
          "type": "address"
        },
        {
          "indexed": true,
          "internalType": "address",
          "name": "to",
          "type": "address"
        },
        {
          "indexed": false,
          "internalType": "uint256[]",
          "name": "ids",
          "type": "uint256[]"
        },
        {
          "indexed": false,
          "internalType": "uint256[]",
          "name": "values",
          "type": "uint256[]"
        }
      ],
      "name": "TransferBatch",
      "type": "event"
    },
    {
      "anonymous": false,
      "inputs": [
        {
          "indexed": true,
          "internalType": "address",
          "name": "operator",
          "type": "address"
        },
        {
          "indexed": true,
          "internalType": "address",
          "name": "from",
          "type": "address"
        },
        {
          "indexed": true,
          "internalType": "address",
          "name": "to",
          "type": "address"
        },
        {
          "indexed": false,
          "internalType": "uint256",
          "name": "id",
          "type": "uint256"
        },
        {
          "indexed": false,
          "internalType": "uint256",
          "name": "value",
          "type": "uint256"
        }
      ],
      "name": "TransferSingle",
      "type": "event"
    },
    {
      "anonymous": false,
      "inputs": [
        {
          "indexed": false,
          "internalType": "string",
          "name": "value",
          "type": "string"
        },
        {
          "indexed": true,
          "internalType": "uint256",
          "name": "id",
          "type": "uint256"
        }
      ],
      "name": "URI",
      "type": "event"
    },
    {
      "inputs": [],
      "name": "PERCENT_DECIMALS_MULTIPLY",
      "outputs": [
        {
          "internalType": "uint64",
          "name": "",
          "type": "uint64"
        }
      ],
      "stateMutability": "view",
      "type": "function"
    },
    {
      "inputs": [
        {
          "internalType": "address[]",
          "name": "accounts",
          "type": "address[]"
        }
      ],
      "name": "addManyToKYC",
      "outputs": [],
      "stateMutability": "nonpayable",
      "type": "function"
    },
    {
      "inputs": [
        {
          "internalType": "address",
          "name": "account",
          "type": "address"
        }
      ],
      "name": "addToKYC",
      "outputs": [],
      "stateMutability": "nonpayable",
      "type": "function"
    },
    {
      "inputs": [
        {
          "internalType": "address",
          "name": "account",
          "type": "address"
        },
        {
          "internalType": "uint256",
          "name": "id",
          "type": "uint256"
        }
      ],
      "name": "balanceOf",
      "outputs": [
        {
          "internalType": "uint256",
          "name": "",
          "type": "uint256"
        }
      ],
      "stateMutability": "view",
      "type": "function"
    },
    {
      "inputs": [
        {
          "internalType": "address[]",
          "name": "accounts",
          "type": "address[]"
        },
        {
          "internalType": "uint256[]",
          "name": "ids",
          "type": "uint256[]"
        }
      ],
      "name": "balanceOfBatch",
      "outputs": [
        {
          "internalType": "uint256[]",
          "name": "",
          "type": "uint256[]"
        }
      ],
      "stateMutability": "view",
      "type": "function"
    },
    {
      "inputs": [
        {
          "internalType": "address",
          "name": "_to",
          "type": "address"
        },
        {
          "internalType": "uint256[]",
          "name": "_ids",
          "type": "uint256[]"
        },
        {
          "internalType": "uint256[]",
          "name": "_quantities",
          "type": "uint256[]"
        },
        {
          "internalType": "bytes",
          "name": "_data",
          "type": "bytes"
        }
      ],
      "name": "batchMint",
      "outputs": [],
      "stateMutability": "nonpayable",
      "type": "function"
    },
    {
      "inputs": [
        {
          "internalType": "uint256",
          "name": "_id",
          "type": "uint256"
        }
      ],
      "name": "claimBenefit",
      "outputs": [],
      "stateMutability": "nonpayable",
      "type": "function"
    },
    {
      "inputs": [],
      "name": "contractURI",
      "outputs": [
        {
          "internalType": "string",
          "name": "",
          "type": "string"
        }
      ],
      "stateMutability": "view",
      "type": "function"
    },
    {
      "inputs": [
        {
          "internalType": "address",
          "name": "_initialOwner",
          "type": "address"
        },
        {
          "internalType": "uint256",
          "name": "_initialSupply",
          "type": "uint256"
        },
        {
          "internalType": "string",
          "name": "_uri",
          "type": "string"
        },
        {
          "internalType": "address",
          "name": "_fundingToken",
          "type": "address"
        },
        {
          "internalType": "bytes",
          "name": "_data",
          "type": "bytes"
        }
      ],
      "name": "createREIT",
      "outputs": [
        {
          "internalType": "uint256",
          "name": "",
          "type": "uint256"
        }
      ],
      "stateMutability": "nonpayable",
      "type": "function"
    },
    {
      "inputs": [
        {
          "internalType": "uint256",
          "name": "",
          "type": "uint256"
        }
      ],
      "name": "creators",
      "outputs": [
        {
          "internalType": "address",
          "name": "",
          "type": "address"
        }
      ],
      "stateMutability": "view",
      "type": "function"
    },
    {
      "inputs": [
        {
          "internalType": "uint256",
          "name": "",
          "type": "uint256"
        }
      ],
      "name": "fundingVault",
      "outputs": [
        {
          "internalType": "uint256",
          "name": "",
          "type": "uint256"
        }
      ],
      "stateMutability": "view",
      "type": "function"
    },
    {
      "inputs": [
        {
          "internalType": "uint256",
          "name": "_id",
          "type": "uint256"
        }
      ],
      "name": "getClaimedYield",
      "outputs": [
        {
          "internalType": "uint256",
          "name": "",
          "type": "uint256"
        }
      ],
      "stateMutability": "view",
      "type": "function"
    },
    {
      "inputs": [
        {
          "internalType": "uint256",
          "name": "_id",
          "type": "uint256"
        }
      ],
      "name": "getIPOContract",
      "outputs": [
        {
          "internalType": "address",
          "name": "",
          "type": "address"
        }
      ],
      "stateMutability": "view",
      "type": "function"
    },
    {
      "inputs": [
        {
          "internalType": "uint256",
          "name": "_id",
          "type": "uint256"
        }
      ],
      "name": "getLockedYieldDividends",
      "outputs": [
        {
          "internalType": "uint256",
          "name": "",
          "type": "uint256"
        }
      ],
      "stateMutability": "view",
      "type": "function"
    },
    {
      "inputs": [
        {
          "internalType": "uint256",
          "name": "_id",
          "type": "uint256"
        }
      ],
      "name": "getShareUnitPrice",
      "outputs": [
        {
          "internalType": "uint256",
          "name": "",
          "type": "uint256"
        }
      ],
      "stateMutability": "view",
      "type": "function"
    },
    {
      "inputs": [
        {
          "internalType": "uint256",
          "name": "_id",
          "type": "uint256"
        }
      ],
      "name": "getTotalClaimableBenefit",
      "outputs": [
        {
          "internalType": "uint256",
          "name": "",
          "type": "uint256"
        }
      ],
      "stateMutability": "view",
      "type": "function"
    },
    {
      "inputs": [
        {
          "internalType": "uint256",
          "name": "_id",
          "type": "uint256"
        }
      ],
      "name": "getTotalYieldDividendPerShare",
      "outputs": [
        {
          "internalType": "uint256",
          "name": "",
          "type": "uint256"
        }
      ],
      "stateMutability": "view",
      "type": "function"
    },
    {
      "inputs": [
        {
          "internalType": "uint256",
          "name": "_id",
          "type": "uint256"
        },
        {
          "internalType": "uint256",
          "name": "index",
          "type": "uint256"
        }
      ],
      "name": "getYieldDividendPerShareAt",
      "outputs": [
        {
          "internalType": "uint256",
          "name": "",
          "type": "uint256"
        }
      ],
      "stateMutability": "view",
      "type": "function"
    },
    {
      "inputs": [],
      "name": "governor",
      "outputs": [
        {
          "internalType": "address",
          "name": "",
          "type": "address"
        }
      ],
      "stateMutability": "view",
      "type": "function"
    },
    {
      "inputs": [
        {
          "internalType": "string",
          "name": "_name",
          "type": "string"
        },
        {
          "internalType": "string",
          "name": "_symbol",
          "type": "string"
        },
        {
          "internalType": "string",
          "name": "_uri",
          "type": "string"
        }
      ],
      "name": "initialize",
      "outputs": [],
      "stateMutability": "nonpayable",
      "type": "function"
    },
    {
      "inputs": [
        {
          "internalType": "uint256",
          "name": "_id",
          "type": "uint256"
        },
        {
          "internalType": "uint64",
          "name": "initiateTime",
          "type": "uint64"
        },
        {
          "internalType": "uint256",
          "name": "unitValue",
          "type": "uint256"
        },
        {
          "internalType": "uint64",
          "name": "liquidationTime",
          "type": "uint64"
        },
        {
          "internalType": "uint64",
          "name": "taxRate",
          "type": "uint64"
        }
      ],
      "name": "initiate",
      "outputs": [],
      "stateMutability": "nonpayable",
      "type": "function"
    },
    {
      "inputs": [
        {
          "internalType": "address",
          "name": "account",
          "type": "address"
        },
        {
          "internalType": "address",
          "name": "operator",
          "type": "address"
        }
      ],
      "name": "isApprovedForAll",
      "outputs": [
        {
          "internalType": "bool",
          "name": "",
          "type": "bool"
        }
      ],
      "stateMutability": "view",
      "type": "function"
    },
    {
      "inputs": [
        {
          "internalType": "uint256",
          "name": "_id",
          "type": "uint256"
        },
        {
          "internalType": "address",
          "name": "account",
          "type": "address"
        }
      ],
      "name": "isIPOContract",
      "outputs": [
        {
          "internalType": "bool",
          "name": "",
          "type": "bool"
        }
      ],
      "stateMutability": "view",
      "type": "function"
    },
    {
      "inputs": [
        {
          "internalType": "address",
          "name": "account",
          "type": "address"
        }
      ],
      "name": "isKYC",
      "outputs": [
        {
          "internalType": "bool",
          "name": "",
          "type": "bool"
        }
      ],
      "stateMutability": "view",
      "type": "function"
    },
    {
      "inputs": [
        {
          "internalType": "address",
          "name": "_to",
          "type": "address"
        },
        {
          "internalType": "uint256",
          "name": "_id",
          "type": "uint256"
        },
        {
          "internalType": "uint256",
          "name": "_quantity",
          "type": "uint256"
        },
        {
          "internalType": "bytes",
          "name": "_data",
          "type": "bytes"
        }
      ],
      "name": "mint",
      "outputs": [],
      "stateMutability": "nonpayable",
      "type": "function"
    },
    {
      "inputs": [],
      "name": "name",
      "outputs": [
        {
          "internalType": "string",
          "name": "",
          "type": "string"
        }
      ],
      "stateMutability": "view",
      "type": "function"
    },
    {
      "inputs": [
        {
          "internalType": "uint256",
          "name": "_id",
          "type": "uint256"
        },
        {
          "internalType": "uint256",
          "name": "amount",
          "type": "uint256"
        }
      ],
      "name": "payDividends",
      "outputs": [],
      "stateMutability": "nonpayable",
      "type": "function"
    },
    {
      "inputs": [
        {
          "internalType": "uint256",
          "name": "_id",
          "type": "uint256"
        }
      ],
      "name": "registerBalances",
      "outputs": [],
      "stateMutability": "nonpayable",
      "type": "function"
    },
    {
      "inputs": [
        {
          "internalType": "address",
          "name": "account",
          "type": "address"
        }
      ],
      "name": "removeKYC",
      "outputs": [],
      "stateMutability": "nonpayable",
      "type": "function"
    },
    {
      "inputs": [
        {
          "internalType": "address[]",
          "name": "accounts",
          "type": "address[]"
        }
      ],
      "name": "removeManyKYC",
      "outputs": [],
      "stateMutability": "nonpayable",
      "type": "function"
    },
    {
      "inputs": [],
      "name": "renounceGovernorship",
      "outputs": [],
      "stateMutability": "nonpayable",
      "type": "function"
    },
    {
      "inputs": [],
      "name": "revokeKYCAdmin",
      "outputs": [],
      "stateMutability": "nonpayable",
      "type": "function"
    },
    {
      "inputs": [
        {
          "internalType": "address",
          "name": "from",
          "type": "address"
        },
        {
          "internalType": "address",
          "name": "to",
          "type": "address"
        },
        {
          "internalType": "uint256[]",
          "name": "ids",
          "type": "uint256[]"
        },
        {
          "internalType": "uint256[]",
          "name": "amounts",
          "type": "uint256[]"
        },
        {
          "internalType": "bytes",
          "name": "data",
          "type": "bytes"
        }
      ],
      "name": "safeBatchTransferFrom",
      "outputs": [],
      "stateMutability": "nonpayable",
      "type": "function"
    },
    {
      "inputs": [
        {
          "internalType": "address",
          "name": "from",
          "type": "address"
        },
        {
          "internalType": "address",
          "name": "to",
          "type": "address"
        },
        {
          "internalType": "uint256",
          "name": "id",
          "type": "uint256"
        },
        {
          "internalType": "uint256",
          "name": "amount",
          "type": "uint256"
        },
        {
          "internalType": "bytes",
          "name": "data",
          "type": "bytes"
        }
      ],
      "name": "safeTransferFrom",
      "outputs": [],
      "stateMutability": "nonpayable",
      "type": "function"
    },
    {
      "inputs": [
        {
          "internalType": "address",
          "name": "operator",
          "type": "address"
        },
        {
          "internalType": "bool",
          "name": "approved",
          "type": "bool"
        }
      ],
      "name": "setApprovalForAll",
      "outputs": [],
      "stateMutability": "nonpayable",
      "type": "function"
    },
    {
      "inputs": [
        {
          "internalType": "string",
          "name": "_newBaseMetadataURI",
          "type": "string"
        }
      ],
      "name": "setBaseMetadataURI",
      "outputs": [],
      "stateMutability": "nonpayable",
      "type": "function"
    },
    {
      "inputs": [
        {
          "internalType": "string",
          "name": "_uri",
          "type": "string"
        }
      ],
      "name": "setContractURI",
      "outputs": [],
      "stateMutability": "nonpayable",
      "type": "function"
    },
    {
      "inputs": [
        {
          "internalType": "address",
          "name": "_to",
          "type": "address"
        },
        {
          "internalType": "uint256[]",
          "name": "_ids",
          "type": "uint256[]"
        }
      ],
      "name": "setCreator",
      "outputs": [],
      "stateMutability": "nonpayable",
      "type": "function"
    },
    {
      "inputs": [
        {
          "internalType": "uint256",
          "name": "_id",
          "type": "uint256"
        },
        {
          "internalType": "address",
          "name": "account",
          "type": "address"
        }
      ],
      "name": "setIPOContract",
      "outputs": [],
      "stateMutability": "nonpayable",
      "type": "function"
    },
    {
      "inputs": [
        {
          "internalType": "address",
          "name": "account",
          "type": "address"
        }
      ],
      "name": "setKYCAdmin",
      "outputs": [],
      "stateMutability": "nonpayable",
      "type": "function"
    },
    {
      "inputs": [
        {
          "internalType": "bytes4",
          "name": "interfaceId",
          "type": "bytes4"
        }
      ],
      "name": "supportsInterface",
      "outputs": [
        {
          "internalType": "bool",
          "name": "",
          "type": "bool"
        }
      ],
      "stateMutability": "view",
      "type": "function"
    },
    {
      "inputs": [],
      "name": "symbol",
      "outputs": [
        {
          "internalType": "string",
          "name": "",
          "type": "string"
        }
      ],
      "stateMutability": "view",
      "type": "function"
    },
    {
      "inputs": [
        {
          "internalType": "uint256",
          "name": "",
          "type": "uint256"
        }
      ],
      "name": "tokenMetadata",
      "outputs": [
        {
          "internalType": "uint256",
          "name": "unitValue",
          "type": "uint256"
        },
        {
          "internalType": "uint64",
          "name": "initiateTime",
          "type": "uint64"
        },
        {
          "internalType": "uint64",
          "name": "liquidationTime",
          "type": "uint64"
        },
        {
          "internalType": "uint64",
          "name": "taxRate",
          "type": "uint64"
        }
      ],
      "stateMutability": "view",
      "type": "function"
    },
    {
      "inputs": [
        {
          "internalType": "uint256",
          "name": "",
          "type": "uint256"
        }
      ],
      "name": "tokenSupply",
      "outputs": [
        {
          "internalType": "uint256",
          "name": "",
          "type": "uint256"
        }
      ],
      "stateMutability": "view",
      "type": "function"
    },
    {
      "inputs": [
        {
          "internalType": "uint256",
          "name": "",
          "type": "uint256"
        }
      ],
      "name": "tokenUri",
      "outputs": [
        {
          "internalType": "string",
          "name": "",
          "type": "string"
        }
      ],
      "stateMutability": "view",
      "type": "function"
    },
    {
      "inputs": [
        {
          "internalType": "uint256",
          "name": "",
          "type": "uint256"
        }
      ],
      "name": "tokenYieldData",
      "outputs": [
        {
          "internalType": "uint256",
          "name": "dividendsLength",
          "type": "uint256"
        },
        {
          "internalType": "uint64",
          "name": "liquidationTimeExtension",
          "type": "uint64"
        }
      ],
      "stateMutability": "view",
      "type": "function"
    },
    {
      "inputs": [
        {
          "internalType": "uint256",
          "name": "_id",
          "type": "uint256"
        }
      ],
      "name": "totalSupply",
      "outputs": [
        {
          "internalType": "uint256",
          "name": "",
          "type": "uint256"
        }
      ],
      "stateMutability": "view",
      "type": "function"
    },
    {
      "inputs": [
        {
          "internalType": "address",
          "name": "newGovernor",
          "type": "address"
        }
      ],
      "name": "transferGovernorship",
      "outputs": [],
      "stateMutability": "nonpayable",
      "type": "function"
    },
    {
      "inputs": [
        {
          "internalType": "uint256",
          "name": "_id",
          "type": "uint256"
        },
        {
          "internalType": "uint256",
          "name": "dividendPerShare",
          "type": "uint256"
        },
        {
          "internalType": "uint256",
          "name": "index",
          "type": "uint256"
        }
      ],
      "name": "unlockDividendPerShare",
      "outputs": [],
      "stateMutability": "nonpayable",
      "type": "function"
    },
    {
      "inputs": [
        {
          "internalType": "uint256",
          "name": "_id",
          "type": "uint256"
        }
      ],
      "name": "uri",
      "outputs": [
        {
          "internalType": "string",
          "name": "",
          "type": "string"
        }
      ],
      "stateMutability": "view",
      "type": "function"
    }
  ],
  "bytecode": "0x608060405234801561001057600080fd5b506144ad806100206000396000f3fe608060405234801561001057600080fd5b50600436106102d55760003560e01c8063938e3d7b11610182578063beb60ec4116100e9578063d98d9eaf116100a2578063e8a3d4851161007c578063e8a3d4851461077a578063e985e9c514610782578063f242432a146107be578063f6ee8fcc146107d157600080fd5b8063d98d9eaf14610741578063df47739014610754578063e086bab81461076757600080fd5b8063beb60ec41461067e578063c884127214610691578063cd53d08e146106a4578063d1c901a4146106cd578063d2a6b51a1461071b578063d64e83d71461072e57600080fd5b8063a6487c531161013b578063a6487c53146105f1578063b1fd691014610604578063b48ab8b614610625578063b6aa515b14610638578063bb8973031461064b578063bd85b0391461065e57600080fd5b8063938e3d7b1461057357806395d89b41146105865780639944f5181461058e5780639a429294146105a15780639b166e2f146105b4578063a22cb465146105de57600080fd5b806330237a721161024157806365121795116101fa578063731133e9116101d4578063731133e91461053257806378c4acb8146105455780637e518ec81461055857806381c0c2631461056b57600080fd5b806365121795146104865780636914db60146104995780636f98e1291461050f57600080fd5b806330237a7214610412578063409f8c48146104255780634e1273f41461043857806358cc49a514610458578063590a5ce01461046b57806359d1a4b11461047e57600080fd5b806312849fee1161029357806312849fee146103915780631675f455146103a657806322b6ccfe146103b9578063243f6b58146103cc5780632693ebf2146103df5780632eb2c2d6146103ff57600080fd5b8062fdd58e146102da57806301ffc9a71461030057806303c89ec21461032357806306fdde03146103445780630c340a24146103595780630e89341c1461037e575b600080fd5b6102ed6102e836600461359b565b6107e4565b6040519081526020015b60405180910390f35b61031361030e3660046135db565b6107f7565b60405190151581526020016102f7565b6102ed6103313660046135f8565b6101396020526000908152604090205481565b61034c610849565b6040516102f7919061365e565b6097546001600160a01b03165b6040516001600160a01b0390911681526020016102f7565b61034c61038c3660046135f8565b6108d8565b6103a461039f366004613688565b61097a565b005b61034c6103b43660046135f8565b610a4a565b6103a46103c73660046136df565b610a63565b6103a46103da3660046136df565b610ab3565b6102ed6103ed3660046135f8565b60fd6020526000908152604090205481565b6103a461040d366004613843565b610b00565b6103a46104203660046138ec565b610e4f565b6103a46104333660046136df565b610efd565b61044b610446366004613918565b610f89565b6040516102f79190613a1d565b6103a46104663660046135f8565b6110b2565b6103a4610479366004613a30565b611372565b6103a4611496565b6102ed610494366004613a30565b6114cc565b6104e06104a73660046135f8565b61013560205260009081526040902080546001909101546001600160401b0380821691600160401b8104821691600160801b9091041684565b604080519485526001600160401b039384166020860152918316918401919091521660608201526080016102f7565b61051a6305f5e10081565b6040516001600160401b0390911681526020016102f7565b6103a4610540366004613a52565b611503565b6103a4610553366004613ab2565b611579565b6103a4610566366004613b26565b61161c565b6103a461164f565b6103a4610581366004613b26565b611683565b61034c6116c4565b61031361059c3660046136df565b6116d2565b6102ed6105af3660046135f8565b611707565b6103666105c23660046135f8565b600090815261013a60205260409020546001600160a01b031690565b6103a46105ec366004613b70565b6117e8565b6103a46105ff366004613ba7565b6117f3565b6102ed6106123660046135f8565b6000908152610135602052604090205490565b6103a4610633366004613c2e565b611876565b6103a46106463660046136df565b611a05565b6102ed610659366004613d02565b611aa3565b6102ed61066c3660046135f8565b600090815260fd602052604090205490565b6103a461068c3660046135f8565b611d25565b6102ed61069f3660046135f8565b611fdb565b6103666106b23660046135f8565b60fc602052600090815260409020546001600160a01b031681565b6106fe6106db3660046135f8565b61013660205260009081526040902080546002909101546001600160401b031682565b604080519283526001600160401b039091166020830152016102f7565b6103a4610729366004613d9f565b612123565b6103a461073c366004613ab2565b61225d565b61031361074f366004613de2565b6122fb565b6102ed6107623660046135f8565b61231d565b6102ed6107753660046135f8565b61236a565b61034c6124a3565b610313610790366004613e0e565b6001600160a01b03918216600090815260666020908152604080832093909416825291909152205460ff1690565b6103a46107cc366004613e38565b612535565b6103a46107df366004613de2565b61277f565b60006107f083836127e7565b9392505050565b60006001600160e01b03198216636cdb3d1360e11b148061082857506001600160e01b031982166303a24d0760e21b145b8061084357506301ffc9a760e01b6001600160e01b03198316145b92915050565b610100805461085790613e9c565b80601f016020809104026020016040519081016040528092919081815260200182805461088390613e9c565b80156108d05780601f106108a5576101008083540402835291602001916108d0565b820191906000526020600020905b8154815290600101906020018083116108b357829003601f168201915b505050505081565b600081815260fe602052604090208054606091906108f590613e9c565b80601f016020809104026020016040519081016040528092919081815260200182805461092190613e9c565b801561096e5780601f106109435761010080835404028352916020019161096e565b820191906000526020600020905b81548152906001019060200180831161095157829003601f168201915b50505050509050919050565b600085815260fc602052604090205485906001600160a01b031633146109bb5760405162461bcd60e51b81526004016109b290613ed1565b60405180910390fd5b50604080516080810182529384526001600160401b039485166020808601918252938616858301908152928616606086019081526000978852610135909452952092518355935160019092018054945191519284166001600160801b031990951694909417600160401b918416919091021767ffffffffffffffff60801b1916600160801b9190921602179055565b60fe602052600090815260409020805461085790613e9c565b610103546001600160a01b03163314610a8e5760405162461bcd60e51b81526004016109b290613f22565b6001600160a01b0316600090815261010260205260409020805460ff19166001179055565b610103546001600160a01b03163314610ade5760405162461bcd60e51b81526004016109b290613f22565b6001600160a01b0316600090815261010260205260409020805460ff19169055565b8151835114610b215760405162461bcd60e51b81526004016109b290613f64565b6001600160a01b038416610b475760405162461bcd60e51b81526004016109b290613fac565b6001600160a01b038516331480610b635750610b638533610790565b610bca5760405162461bcd60e51b815260206004820152603260248201527f455243313135353a207472616e736665722063616c6c6572206973206e6f74206044820152711bdddb995c881b9bdc88185c1c1c9bdd995960721b60648201526084016109b2565b3360005b8451811015610c6e576000858281518110610beb57610beb613ff1565b602002602001015190506000858381518110610c0957610c09613ff1565b60209081029190910181015160008481526065835260408082206001600160a01b038e168352909352919091205490915081811015610c5a5760405162461bcd60e51b81526004016109b290614007565b50505080610c6790614067565b9050610bce565b5060005b8451811015610cbe576000858281518110610c8f57610c8f613ff1565b60200260200101519050610ca3888261287b565b610cad878261287b565b50610cb781614067565b9050610c72565b5060005b8451811015610de1576000858281518110610cdf57610cdf613ff1565b602002602001015190506000858381518110610cfd57610cfd613ff1565b60209081029190910181015160008481526065835260408082206001600160a01b038e168352909352918220805482810390915590925090610d3f848c6122fb565b80610d4f5750610d4f848b6122fb565b905080610d9457600084815261013b602090815260408083206001600160a01b038e16845290915281208054859290610d89908490614082565b90915550610dcc9050565b60008481526065602090815260408083206001600160a01b038e16845290915281208054859290610dc6908490614082565b90915550505b5050505080610dda90614067565b9050610cc2565b50846001600160a01b0316866001600160a01b0316826001600160a01b03167f4a39dc06d4c0dbc64b70af90fd698a233a518aa5d07e595d983b8c0526c8f7fb8787604051610e3192919061409a565b60405180910390a4610e47818787878787612afd565b505050505050565b600083815260fc602052604090205483906001600160a01b03163314610e875760405162461bcd60e51b81526004016109b290613ed1565b600084815261013660205260409020600101805484919084908110610eae57610eae613ff1565b600091825260209091200155610ec5826001614082565b600085815261013660205260409020541015610ef757610ee6826001614082565b600085815261013660205260409020555b50505050565b6097546001600160a01b03163314610f275760405162461bcd60e51b81526004016109b2906140c8565b6001600160a01b038116610f7d5760405162461bcd60e51b815260206004820181905260248201527f4b59432041646d696e2063616e6e6f74206265207a65726f206164647265737360448201526064016109b2565b610f8681612c71565b50565b60608151835114610fee5760405162461bcd60e51b815260206004820152602960248201527f455243313135353a206163636f756e747320616e6420696473206c656e677468604482015268040dad2e6dac2e8c6d60bb1b60648201526084016109b2565b600083516001600160401b03811115611009576110096136fa565b604051908082528060200260200182016040528015611032578160200160208202803683370190505b50905060005b84518110156110aa5761107d85828151811061105657611056613ff1565b602002602001015185838151811061107057611070613ff1565b60200260200101516107e4565b82828151811061108f5761108f613ff1565b60209081029190910101526110a381614067565b9050611038565b509392505050565b336000908152610102602052604090205460ff166111005760405162461bcd60e51b815260206004820152600b60248201526a4e6f7420796574204b594360a81b60448201526064016109b2565b600260c95414156111535760405162461bcd60e51b815260206004820152601f60248201527f5265656e7472616e637947756172643a207265656e7472616e742063616c6c0060448201526064016109b2565b600260c95533611163818361287b565b6000828152610137602090815260408083206001600160a01b0385168452909152902060020154806111d75760405162461bcd60e51b815260206004820181905260248201527f524549544e46543a206e6f206d6f726520636c61696d61626c65207969656c6460448201526064016109b2565b600083815261013960205260409020548111156112465760405162461bcd60e51b815260206004820152602760248201527f524549544e46543a206e656564206d6f72652066756e64696e67732066726f6d6044820152661034b9b9bab2b960c91b60648201526084016109b2565b6000838152610137602090815260408083206001600160a01b03868116808652918452828520600281018690556003018054870190558785526101389093529281902054905163a9059cbb60e01b81526004810193909352602483018490521690819063a9059cbb90604401602060405180830381600087803b1580156112cc57600080fd5b505af11580156112e0573d6000803e3d6000fd5b505050506040513d601f19601f82011682018060405250810190611304919061410e565b6113505760405162461bcd60e51b815260206004820181905260248201527f524549544e46543a20436f756c64206e6f74207472616e736665722066756e6460448201526064016109b2565b506000928352610139602052604090922080549290920390915550600160c955565b600082815261013860205260409020546001600160a01b0316806323b872dd336040516001600160e01b031960e084901b1681526001600160a01b03909116600482015230602482015260448101859052606401602060405180830381600087803b1580156113e057600080fd5b505af11580156113f4573d6000803e3d6000fd5b505050506040513d601f19601f82011682018060405250810190611418919061410e565b6114645760405162461bcd60e51b815260206004820181905260248201527f524549544e46543a20436f756c64206e6f74207472616e736665722066756e6460448201526064016109b2565b6000838152610139602052604090205461147e9083612c94565b60009384526101396020526040909320929092555050565b6097546001600160a01b031633146114c05760405162461bcd60e51b81526004016109b2906140c8565b6114ca6000612c71565b565b6000828152610136602052604081206001018054839081106114f0576114f0613ff1565b9060005260206000200154905092915050565b600083815260fc602052604090205483906001600160a01b0316331461153b5760405162461bcd60e51b81526004016109b290613ed1565b61154785858585612ca0565b600084815260fd60205260409020546115609084612c94565b600094855260fd60205260409094209390935550505050565b610103546001600160a01b031633146115a45760405162461bcd60e51b81526004016109b290613f22565b60005b8181101561161757600161010260008585858181106115c8576115c8613ff1565b90506020020160208101906115dd91906136df565b6001600160a01b031681526020810191909152604001600020805460ff19169115159190911790558061160f81614067565b9150506115a7565b505050565b6097546001600160a01b031633146116465760405162461bcd60e51b81526004016109b2906140c8565b610f8681612d73565b6097546001600160a01b031633146116795760405162461bcd60e51b81526004016109b2906140c8565b6114ca6000612d86565b6097546001600160a01b031633146116ad5760405162461bcd60e51b81526004016109b2906140c8565b80516116c09060ff90602084019061343d565b5050565b610101805461085790613e9c565b60006001600160a01b0382166116e757600080fd5b506001600160a01b03166000908152610102602052604090205460ff1690565b60008181526101366020908152604080832081516060810183528154815260018201805484518187028101870190955280855286958695939493858201939092909183018282801561177857602002820191906000526020600020905b815481526020019060010190808311611764575b5050509183525050600291909101546001600160401b0316602090910152905060005b81518110156117df57816020015181815181106117ba576117ba613ff1565b6020026020010151836117cd9190614082565b92506117d881614067565b905061179b565b50909392505050565b6116c0338383612dd8565b60006117ff6001612eb9565b90508015611817576000805461ff0019166101001790555b611822848484612f46565b61182a613008565b8015610ef7576000805461ff0019169055604051600181527f7f26b83ff96e1f2b6a682f133852f6798a09c465da95921460cefb3847402498906020015b60405180910390a150505050565b81518351146118e05760405162461bcd60e51b815260206004820152603060248201527f455243313135354d696e744275726e2362617463684d696e743a20494e56414c60448201526f09288be82a4a482b2a6be988a9c8ea8960831b60648201526084016109b2565b60005b83518110156119f857600084828151811061190057611900613ff1565b602090810291909101810151600081815260fc9092526040909120549091506001600160a01b0316331461198e5760405162461bcd60e51b815260206004820152602f60248201527f455243313135355472616461626c652362617463684d696e743a204f4e4c595f60448201526e10d491505513d497d0531313d5d151608a1b60648201526084016109b2565b60008483815181106119a2576119a2613ff1565b602002602001015190506119d28160fd600085815260200190815260200160002054612c9490919063ffffffff16565b600092835260fd60205260409092209190915550806119f081614067565b9150506118e3565b50610ef784848484613037565b6097546001600160a01b03163314611a2f5760405162461bcd60e51b81526004016109b2906140c8565b6001600160a01b038116611a9a5760405162461bcd60e51b815260206004820152602c60248201527f476f7665726e61626c653a206e657720676f7665726e6f72206973207468652060448201526b7a65726f206164647265737360a01b60648201526084016109b2565b610f8681612d86565b6097546000906001600160a01b03163314611ad05760405162461bcd60e51b81526004016109b2906140c8565b6000611ada61318a565b9050611ae46131a0565b611aee89826131b7565b8515611b4957807f6bb7ff708619ba0610cba295a58592e0451dee2622938c8755667688daf3529b8888604051611b2692919061412b565b60405180910390a2600081815260fe60205260409020611b479088886134c1565b505b60008181526101386020908152604080832080546001600160a01b0319166001600160a01b038a161790558051608081018252838152808301848152818301858152606080840187815288885261013587528588209451855592516001949094018054925193516001600160401b039586166001600160801b031990941693909317600160401b948616949094029390931767ffffffffffffffff60801b1916600160801b94909216939093021790558151908101825292835280516078808252610f208201909252838301929091908201610f0080368337505050815260006020918201819052838152610136825260409020825181558282015180519192611c5b92600185019290910190613535565b5060408201518160020160006101000a8154816001600160401b0302191690836001600160401b03160217905550905050611cce89828a87878080601f016020809104026020016040519081016040528093929190818152602001838380828437600092019190915250612ca092505050565b600081815260fd602052604090819020899055517f07eac9a0695a188fe9d6fd680bcbbbe39041fb114d5d7ac11252401391f7930790611d119083815260200190565b60405180910390a198975050505050505050565b336000908152610102602052604090205460ff16611d735760405162461bcd60e51b815260206004820152600b60248201526a4e6f7420796574204b594360a81b60448201526064016109b2565b600260c9541415611dc65760405162461bcd60e51b815260206004820152601f60248201527f5265656e7472616e637947756172643a207265656e7472616e742063616c6c0060448201526064016109b2565b600260c955600081815261013b602090815260408083203380855292529091205480611e2d5760405162461bcd60e51b8152602060048201526016602482015275105b1c9958591e481c9959da5cdd195c995908185b1b60521b60448201526064016109b2565b600083815261013560205260408120600181015490546305f5e10091600160801b90046001600160401b031690611e6590859061415a565b611e6f919061415a565b611e799190614179565b60008581526101386020526040908190205490516323b872dd60e01b81526001600160a01b0386811660048301523060248301526044820184905292935091169081906323b872dd90606401602060405180830381600087803b158015611edf57600080fd5b505af1158015611ef3573d6000803e3d6000fd5b505050506040513d601f19601f82011682018060405250810190611f17919061410e565b611f635760405162461bcd60e51b815260206004820152601a60248201527f524549544e46543a20436f756c64206e6f74207061792074617800000000000060448201526064016109b2565b5050600083815261013b602090815260408083206001600160a01b0395909516808452948252808320839055858352606582528083208584528252808320805494909401909355938152610137845281812092815291909252908120600181810180546002909301805490930190925591905560c955565b60008181611fea335b836107e4565b116120075760405162461bcd60e51b81526004016109b29061419b565b6000838152610137602090815260408083203380855292529091206004015460ff1661203757600092505061211d565b60008481526065602090815260408083206001600160a01b0385168085529083528184205488855261013684528285205461013785528386209286529190935290832060050154919291805b828110156120e3576000898152610136602052604090206001018054869190839081106120b2576120b2613ff1565b90600052602060002001546120c7919061415a565b6120d19085614082565b93506120dc81614067565b9050612083565b506000888152610137602090815260408083206001600160a01b03891684529091529020600201546121159084614082565b965050505050505b50919050565b6001600160a01b03821661218d5760405162461bcd60e51b815260206004820152602b60248201527f455243313135355472616461626c652373657443726561746f723a20494e564160448201526a4c49445f4144445245535360a81b60648201526084016109b2565b60005b81518110156116175760008282815181106121ad576121ad613ff1565b602002602001015190506121be3390565b600082815260fc60205260409020546001600160a01b039081169116146122405760405162461bcd60e51b815260206004820152603060248201527f455243313135355472616461626c652373657443726561746f723a204f4e4c5960448201526f17d0d491505513d497d0531313d5d15160821b60648201526084016109b2565b61224a84826131b7565b508061225581614067565b915050612190565b610103546001600160a01b031633146122885760405162461bcd60e51b81526004016109b290613f22565b60005b8181101561161757600061010260008585858181106122ac576122ac613ff1565b90506020020160208101906122c191906136df565b6001600160a01b031681526020810191909152604001600020805460ff1916911515919091179055806122f381614067565b91505061228b565b600091825261013a6020526040909120546001600160a01b0391821691161490565b6000818161232a33611fe4565b116123475760405162461bcd60e51b81526004016109b29061419b565b505060009081526101376020908152604080832033845290915290206003015490565b6000818161237733611fe4565b116123945760405162461bcd60e51b81526004016109b29061419b565b6000838152610137602090815260408083203380855292529091206004015460ff166123c457600092505061211d565b600084815261013b602090815260408083206001600160a01b0385168085529083528184205488855261013684528285205461013785528386209286529190935290832060050154919291805b828110156124715760008981526101366020526040902060010180548691908390811061244057612440613ff1565b9060005260206000200154612455919061415a565b61245f9085614082565b935061246a81614067565b9050612411565b506000888152610137602090815260408083206001600160a01b03891684529091529020600101546121159084614082565b606060ff80546124b290613e9c565b80601f01602080910402602001604051908101604052809291908181526020018280546124de90613e9c565b801561252b5780601f106125005761010080835404028352916020019161252b565b820191906000526020600020905b81548152906001019060200180831161250e57829003601f168201915b5050505050905090565b6001600160a01b03841661255b5760405162461bcd60e51b81526004016109b290613fac565b6001600160a01b03851633148061257757506125778533610790565b6125d55760405162461bcd60e51b815260206004820152602960248201527f455243313135353a2063616c6c6572206973206e6f74206f776e6572206e6f7260448201526808185c1c1c9bdd995960ba1b60648201526084016109b2565b3360006125e1856131e5565b905060006125ee856131e5565b905060008681526065602090815260408083206001600160a01b038c168452909152902054858110156126335760405162461bcd60e51b81526004016109b290614007565b61263d898861287b565b612647888861287b565b60008781526065602090815260408083206001600160a01b038d16845290915281208783039055612678888b6122fb565b806126885750612688888a6122fb565b9050806126cd57600088815261013b602090815260408083206001600160a01b038d168452909152812080548992906126c2908490614082565b909155506127059050565b60008881526065602090815260408083206001600160a01b038d168452909152812080548992906126ff908490614082565b90915550505b886001600160a01b03168a6001600160a01b0316866001600160a01b03167fc3d58168c5ae7397731d063d5bbf3d657854427343f4c083240f7aacaa2d0f628b8b60405161275d929190918252602082015260400190565b60405180910390a4612773858b8b8b8b8b613230565b50505050505050505050565b600082815260fc602052604090205482906001600160a01b031633146127b75760405162461bcd60e51b81526004016109b290613ed1565b50600091825261013a602052604090912080546001600160a01b0319166001600160a01b03909216919091179055565b60006001600160a01b0383166128535760405162461bcd60e51b815260206004820152602b60248201527f455243313135353a2062616c616e636520717565727920666f7220746865207a60448201526a65726f206164647265737360a81b60648201526084016109b2565b5060009081526065602090815260408083206001600160a01b03949094168352929052205490565b61288581836122fb565b1561288e575050565b6000818152610137602090815260408083206001600160a01b038616845290915290206004015460ff1661295b576040805160c0810182526001600160a01b03848116808352600060208085018281528587018381526060870184815260016080890181815260a08a018781528c885261013787528b88209888529790955298909420965187546001600160a01b031916961695909517865551958501959095559151600284015590516003830155915160048201805460ff191691151591909117905590516005909101555b6000818152610137602090815260408083206001600160a01b0386168452909152812060040154819060ff1615612a9257600083815261013b602090815260408083206001600160a01b03881680855290835281842054878552606584528285208286528452828520548886526101368552838620546101378652848720938752929094529190932060050154909290805b82811015612a6657600088815261013660205260408120600101805483908110612a1957612a19613ff1565b906000526020600020015490508481612a32919061415a565b612a3c9089614082565b9750612a48868261415a565b612a529088614082565b96505080612a5f90614067565b90506129ed565b50506000868152610137602090815260408083206001600160a01b038b16845290915290206005015550505b8115612ac5576000838152610137602090815260408083206001600160a01b038816845290915290206002018054830190555b8015610ef7576000838152610137602090815260408083206001600160a01b0388168452909152902060010180548201905550505050565b6001600160a01b0384163b15610e475760405163bc197c8160e01b81526001600160a01b0385169063bc197c8190612b4190899089908890889088906004016141f0565b602060405180830381600087803b158015612b5b57600080fd5b505af1925050508015612b8b575060408051601f3d908101601f19168201909252612b889181019061424e565b60015b612c3857612b9761426b565b806308c379a01415612bd15750612bac614287565b80612bb75750612bd3565b8060405162461bcd60e51b81526004016109b2919061365e565b505b60405162461bcd60e51b815260206004820152603460248201527f455243313135353a207472616e7366657220746f206e6f6e20455243313135356044820152732932b1b2b4bb32b91034b6b83632b6b2b73a32b960611b60648201526084016109b2565b6001600160e01b0319811663bc197c8160e01b14612c685760405162461bcd60e51b81526004016109b290614310565b50505050505050565b61010380546001600160a01b0319166001600160a01b0392909216919091179055565b60006107f08284614082565b6001600160a01b038416612cc65760405162461bcd60e51b81526004016109b290614358565b336000612cd2856131e5565b90506000612cdf856131e5565b905060008681526065602090815260408083206001600160a01b038b16845290915281208054879290612d13908490614082565b909155505060408051878152602081018790526001600160a01b03808a1692600092918716917fc3d58168c5ae7397731d063d5bbf3d657854427343f4c083240f7aacaa2d0f62910160405180910390a4612c6883600089898989613230565b80516116c090606790602084019061343d565b609780546001600160a01b038381166001600160a01b0319831681179093556040519116919082907fc7c0c772add429241571afb3805861fb3cfa2af374534088b76cdb4325a87e9a90600090a35050565b816001600160a01b0316836001600160a01b03161415612e4c5760405162461bcd60e51b815260206004820152602960248201527f455243313135353a2073657474696e6720617070726f76616c20737461747573604482015268103337b91039b2b63360b91b60648201526084016109b2565b6001600160a01b03838116600081815260666020908152604080832094871680845294825291829020805460ff191686151590811790915591519182527f17307eab39ab6107e8899845ad3d59bd9653f200f220920489ca2b5937696c31910160405180910390a3505050565b60008054610100900460ff1615612f00578160ff166001148015612edc5750303b155b612ef85760405162461bcd60e51b81526004016109b290614399565b506000919050565b60005460ff808416911610612f275760405162461bcd60e51b81526004016109b290614399565b506000805460ff191660ff92909216919091179055600190565b919050565b6000612f526001612eb9565b90508015612f6a576000805461ff0019166101001790555b612f73826132fa565b612f7b61332a565b612f83613359565b8351612f979061010090602087019061343d565b508251612fac9061010190602086019061343d565b50600060fb558151612fc59060ff90602085019061343d565b508015610ef7576000805461ff0019169055604051600181527f7f26b83ff96e1f2b6a682f133852f6798a09c465da95921460cefb384740249890602001611868565b600054610100900460ff1661302f5760405162461bcd60e51b81526004016109b2906143e7565b6114ca613388565b6001600160a01b03841661305d5760405162461bcd60e51b81526004016109b290614358565b815183511461307e5760405162461bcd60e51b81526004016109b290613f64565b3360005b845181101561311b5783818151811061309d5761309d613ff1565b6020026020010151606560008784815181106130bb576130bb613ff1565b602002602001015181526020019081526020016000206000886001600160a01b03166001600160a01b0316815260200190815260200160002060008282546131039190614082565b9091555081905061311381614067565b915050613082565b50846001600160a01b031660006001600160a01b0316826001600160a01b03167f4a39dc06d4c0dbc64b70af90fd698a233a518aa5d07e595d983b8c0526c8f7fb878760405161316c92919061409a565b60405180910390a461318381600087878787612afd565b5050505050565b60fb5460009061319b906001612c94565b905090565b60fb80549060006131b083614067565b9190505550565b600090815260fc6020526040902080546001600160a01b0319166001600160a01b0392909216919091179055565b6040805160018082528183019092526060916000919060208083019080368337019050509050828160008151811061321f5761321f613ff1565b602090810291909101015292915050565b6001600160a01b0384163b15610e475760405163f23a6e6160e01b81526001600160a01b0385169063f23a6e61906132749089908990889088908890600401614432565b602060405180830381600087803b15801561328e57600080fd5b505af19250505080156132be575060408051601f3d908101601f191682019092526132bb9181019061424e565b60015b6132ca57612b9761426b565b6001600160e01b0319811663f23a6e6160e01b14612c685760405162461bcd60e51b81526004016109b290614310565b600054610100900460ff166133215760405162461bcd60e51b81526004016109b2906143e7565b610f86816133b8565b600054610100900460ff166133515760405162461bcd60e51b81526004016109b2906143e7565b6114ca6133df565b600054610100900460ff166133805760405162461bcd60e51b81526004016109b2906143e7565b6114ca61340f565b600054610100900460ff166133af5760405162461bcd60e51b81526004016109b2906143e7565b6114ca33612c71565b600054610100900460ff166116465760405162461bcd60e51b81526004016109b2906143e7565b600054610100900460ff166134065760405162461bcd60e51b81526004016109b2906143e7565b6114ca33612d86565b600054610100900460ff166134365760405162461bcd60e51b81526004016109b2906143e7565b600160c955565b82805461344990613e9c565b90600052602060002090601f01602090048101928261346b57600085556134b1565b82601f1061348457805160ff19168380011785556134b1565b828001600101855582156134b1579182015b828111156134b1578251825591602001919060010190613496565b506134bd92915061356f565b5090565b8280546134cd90613e9c565b90600052602060002090601f0160209004810192826134ef57600085556134b1565b82601f106135085782800160ff198235161785556134b1565b828001600101855582156134b1579182015b828111156134b157823582559160200191906001019061351a565b8280548282559060005260206000209081019282156134b157916020028201828111156134b1578251825591602001919060010190613496565b5b808211156134bd5760008155600101613570565b80356001600160a01b0381168114612f4157600080fd5b600080604083850312156135ae57600080fd5b6135b783613584565b946020939093013593505050565b6001600160e01b031981168114610f8657600080fd5b6000602082840312156135ed57600080fd5b81356107f0816135c5565b60006020828403121561360a57600080fd5b5035919050565b6000815180845260005b818110156136375760208185018101518683018201520161361b565b81811115613649576000602083870101525b50601f01601f19169290920160200192915050565b6020815260006107f06020830184613611565b80356001600160401b0381168114612f4157600080fd5b600080600080600060a086880312156136a057600080fd5b853594506136b060208701613671565b9350604086013592506136c560608701613671565b91506136d360808701613671565b90509295509295909350565b6000602082840312156136f157600080fd5b6107f082613584565b634e487b7160e01b600052604160045260246000fd5b601f8201601f191681016001600160401b0381118282101715613735576137356136fa565b6040525050565b60006001600160401b03821115613755576137556136fa565b5060051b60200190565b600082601f83011261377057600080fd5b8135602061377d8261373c565b60405161378a8282613710565b83815260059390931b85018201928281019150868411156137aa57600080fd5b8286015b848110156137c557803583529183019183016137ae565b509695505050505050565b600082601f8301126137e157600080fd5b81356001600160401b038111156137fa576137fa6136fa565b604051613811601f8301601f191660200182613710565b81815284602083860101111561382657600080fd5b816020850160208301376000918101602001919091529392505050565b600080600080600060a0868803121561385b57600080fd5b61386486613584565b945061387260208701613584565b935060408601356001600160401b038082111561388e57600080fd5b61389a89838a0161375f565b945060608801359150808211156138b057600080fd5b6138bc89838a0161375f565b935060808801359150808211156138d257600080fd5b506138df888289016137d0565b9150509295509295909350565b60008060006060848603121561390157600080fd5b505081359360208301359350604090920135919050565b6000806040838503121561392b57600080fd5b82356001600160401b038082111561394257600080fd5b818501915085601f83011261395657600080fd5b813560206139638261373c565b6040516139708282613710565b83815260059390931b850182019282810191508984111561399057600080fd5b948201945b838610156139b5576139a686613584565b82529482019490820190613995565b965050860135925050808211156139cb57600080fd5b506139d88582860161375f565b9150509250929050565b600081518084526020808501945080840160005b83811015613a12578151875295820195908201906001016139f6565b509495945050505050565b6020815260006107f060208301846139e2565b60008060408385031215613a4357600080fd5b50508035926020909101359150565b60008060008060808587031215613a6857600080fd5b613a7185613584565b9350602085013592506040850135915060608501356001600160401b03811115613a9a57600080fd5b613aa6878288016137d0565b91505092959194509250565b60008060208385031215613ac557600080fd5b82356001600160401b0380821115613adc57600080fd5b818501915085601f830112613af057600080fd5b813581811115613aff57600080fd5b8660208260051b8501011115613b1457600080fd5b60209290920196919550909350505050565b600060208284031215613b3857600080fd5b81356001600160401b03811115613b4e57600080fd5b613b5a848285016137d0565b949350505050565b8015158114610f8657600080fd5b60008060408385031215613b8357600080fd5b613b8c83613584565b91506020830135613b9c81613b62565b809150509250929050565b600080600060608486031215613bbc57600080fd5b83356001600160401b0380821115613bd357600080fd5b613bdf878388016137d0565b94506020860135915080821115613bf557600080fd5b613c01878388016137d0565b93506040860135915080821115613c1757600080fd5b50613c24868287016137d0565b9150509250925092565b60008060008060808587031215613c4457600080fd5b613c4d85613584565b935060208501356001600160401b0380821115613c6957600080fd5b613c758883890161375f565b94506040870135915080821115613c8b57600080fd5b613c978883890161375f565b93506060870135915080821115613cad57600080fd5b50613aa6878288016137d0565b60008083601f840112613ccc57600080fd5b5081356001600160401b03811115613ce357600080fd5b602083019150836020828501011115613cfb57600080fd5b9250929050565b600080600080600080600060a0888a031215613d1d57600080fd5b613d2688613584565b96506020880135955060408801356001600160401b0380821115613d4957600080fd5b613d558b838c01613cba565b9097509550859150613d6960608b01613584565b945060808a0135915080821115613d7f57600080fd5b50613d8c8a828b01613cba565b989b979a50959850939692959293505050565b60008060408385031215613db257600080fd5b613dbb83613584565b915060208301356001600160401b03811115613dd657600080fd5b6139d88582860161375f565b60008060408385031215613df557600080fd5b82359150613e0560208401613584565b90509250929050565b60008060408385031215613e2157600080fd5b613e2a83613584565b9150613e0560208401613584565b600080600080600060a08688031215613e5057600080fd5b613e5986613584565b9450613e6760208701613584565b9350604086013592506060860135915060808601356001600160401b03811115613e9057600080fd5b6138df888289016137d0565b600181811c90821680613eb057607f821691505b6020821081141561211d57634e487b7160e01b600052602260045260246000fd5b60208082526031908201527f455243313135355472616461626c652363726561746f724f6e6c793a204f4e4c6040820152701657d0d491505513d497d0531313d5d151607a1b606082015260800190565b60208082526022908201527f4b59434163636573733a2063616c6c6572206973206e6f74207468652061646d60408201526134b760f11b606082015260800190565b60208082526028908201527f455243313135353a2069647320616e6420616d6f756e7473206c656e677468206040820152670dad2e6dac2e8c6d60c31b606082015260800190565b60208082526025908201527f455243313135353a207472616e7366657220746f20746865207a65726f206164604082015264647265737360d81b606082015260800190565b634e487b7160e01b600052603260045260246000fd5b6020808252602a908201527f455243313135353a20696e73756666696369656e742062616c616e636520666f60408201526939103a3930b739b332b960b11b606082015260800190565b634e487b7160e01b600052601160045260246000fd5b600060001982141561407b5761407b614051565b5060010190565b6000821982111561409557614095614051565b500190565b6040815260006140ad60408301856139e2565b82810360208401526140bf81856139e2565b95945050505050565b60208082526026908201527f476f7665726e61626c653a2063616c6c6572206973206e6f742074686520676f6040820152653b32b93737b960d11b606082015260800190565b60006020828403121561412057600080fd5b81516107f081613b62565b60208152816020820152818360408301376000818301604090810191909152601f909201601f19160101919050565b600081600019048311821515161561417457614174614051565b500290565b60008261419657634e487b7160e01b600052601260045260246000fd5b500490565b60208082526035908201527f455243313135355472616461626c65237368617265486f6c646572734f6e6c796040820152740e8813d3931657d3d5d3915494d7d0531313d5d151605a1b606082015260800190565b6001600160a01b0386811682528516602082015260a06040820181905260009061421c908301866139e2565b828103606084015261422e81866139e2565b905082810360808401526142428185613611565b98975050505050505050565b60006020828403121561426057600080fd5b81516107f0816135c5565b600060033d11156142845760046000803e5060005160e01c5b90565b600060443d10156142955790565b6040516003193d81016004833e81513d6001600160401b0381602484011181841117156142c457505050505090565b82850191508151818111156142dc5750505050505090565b843d87010160208285010111156142f65750505050505090565b61430560208286010187613710565b509095945050505050565b60208082526028908201527f455243313135353a204552433131353552656365697665722072656a656374656040820152676420746f6b656e7360c01b606082015260800190565b60208082526021908201527f455243313135353a206d696e7420746f20746865207a65726f206164647265736040820152607360f81b606082015260800190565b6020808252602e908201527f496e697469616c697a61626c653a20636f6e747261637420697320616c72656160408201526d191e481a5b9a5d1a585b1a5e995960921b606082015260800190565b6020808252602b908201527f496e697469616c697a61626c653a20636f6e7472616374206973206e6f74206960408201526a6e697469616c697a696e6760a81b606082015260800190565b6001600160a01b03868116825285166020820152604081018490526060810183905260a06080820181905260009061446c90830184613611565b97965050505050505056fea2646970667358221220c4c40526c2de6d556ced8641b0fae1c7f078785f90c60acfdb16f922257ab4ff64736f6c63430008090033",
  "linkReferences": {},
  "deployedLinkReferences": {}
}