{
  "_format": "hh-sol-artifact-1",
  "contractName": "PrivateSaleContract",
  "sourceName": "contracts/PrivateSaleContract.sol",
  "abi": [
    {
      "inputs": [
        {
          "internalType": "address",
          "name": "token_",
          "type": "address"
        },
        {
          "internalType": "uint256",
          "name": "_openingTime",
          "type": "uint256"
        },
        {
          "internalType": "uint256",
          "name": "_closingTime",
          "type": "uint256"
        }
      ],
      "stateMutability": "nonpayable",
      "type": "constructor"
    },
    {
      "anonymous": false,
      "inputs": [
        {
          "indexed": true,
          "internalType": "address",
          "name": "previousOwner",
          "type": "address"
        },
        {
          "indexed": true,
          "internalType": "address",
          "name": "newOwner",
          "type": "address"
        }
      ],
      "name": "OwnershipTransferred",
      "type": "event"
    },
    {
      "anonymous": false,
      "inputs": [
        {
          "indexed": false,
          "internalType": "address",
          "name": "beneficiary",
          "type": "address"
        },
        {
          "indexed": false,
          "internalType": "uint256",
          "name": "amount",
          "type": "uint256"
        },
        {
          "indexed": false,
          "internalType": "uint256",
          "name": "purchasedAmount",
          "type": "uint256"
        }
      ],
      "name": "PurchasedWithStable",
      "type": "event"
    },
    {
      "anonymous": false,
      "inputs": [
        {
          "indexed": false,
          "internalType": "address",
          "name": "beneficiary",
          "type": "address"
        },
        {
          "indexed": false,
          "internalType": "uint256",
          "name": "amount",
          "type": "uint256"
        }
      ],
      "name": "Released",
      "type": "event"
    },
    {
      "anonymous": false,
      "inputs": [
        {
          "indexed": false,
          "internalType": "address",
          "name": "beneficiary",
          "type": "address"
        },
        {
          "indexed": false,
          "internalType": "address",
          "name": "newBeneficiary",
          "type": "address"
        }
      ],
      "name": "VestingTransferred",
      "type": "event"
    },
    {
      "stateMutability": "payable",
      "type": "fallback"
    },
    {
      "inputs": [],
      "name": "DECIMALS",
      "outputs": [
        {
          "internalType": "uint256",
          "name": "",
          "type": "uint256"
        }
      ],
      "stateMutability": "view",
      "type": "function"
    },
    {
      "inputs": [],
      "name": "VESTING_CLIFF",
      "outputs": [
        {
          "internalType": "uint256",
          "name": "",
          "type": "uint256"
        }
      ],
      "stateMutability": "view",
      "type": "function"
    },
    {
      "inputs": [],
      "name": "VESTING_DURATION",
      "outputs": [
        {
          "internalType": "uint256",
          "name": "",
          "type": "uint256"
        }
      ],
      "stateMutability": "view",
      "type": "function"
    },
    {
      "inputs": [],
      "name": "VESTING_SLICES_TOTAL",
      "outputs": [
        {
          "internalType": "uint256",
          "name": "",
          "type": "uint256"
        }
      ],
      "stateMutability": "view",
      "type": "function"
    },
    {
      "inputs": [],
      "name": "VESTING_SLICE_PERIOD",
      "outputs": [
        {
          "internalType": "uint256",
          "name": "",
          "type": "uint256"
        }
      ],
      "stateMutability": "view",
      "type": "function"
    },
    {
      "inputs": [],
      "name": "VESTING_TOTAL_DURATION",
      "outputs": [
        {
          "internalType": "uint256",
          "name": "",
          "type": "uint256"
        }
      ],
      "stateMutability": "view",
      "type": "function"
    },
    {
      "inputs": [
        {
          "internalType": "address[]",
          "name": "accounts",
          "type": "address[]"
        }
      ],
      "name": "addToWhitelisted",
      "outputs": [],
      "stateMutability": "nonpayable",
      "type": "function"
    },
    {
      "inputs": [
        {
          "internalType": "uint256",
          "name": "_openingTime",
          "type": "uint256"
        },
        {
          "internalType": "uint256",
          "name": "_closingTime",
          "type": "uint256"
        }
      ],
      "name": "adjustSaleTime",
      "outputs": [],
      "stateMutability": "nonpayable",
      "type": "function"
    },
    {
      "inputs": [
        {
          "internalType": "string",
          "name": "name",
          "type": "string"
        },
        {
          "internalType": "address",
          "name": "token",
          "type": "address"
        }
      ],
      "name": "allowStableCoin",
      "outputs": [],
      "stateMutability": "nonpayable",
      "type": "function"
    },
    {
      "inputs": [
        {
          "internalType": "string",
          "name": "name",
          "type": "string"
        },
        {
          "internalType": "uint256",
          "name": "package",
          "type": "uint256"
        }
      ],
      "name": "buyPackageWithStable",
      "outputs": [],
      "stateMutability": "nonpayable",
      "type": "function"
    },
    {
      "inputs": [],
      "name": "closingTime",
      "outputs": [
        {
          "internalType": "uint256",
          "name": "",
          "type": "uint256"
        }
      ],
      "stateMutability": "view",
      "type": "function"
    },
    {
      "inputs": [],
      "name": "computeReleasableAmount",
      "outputs": [
        {
          "internalType": "uint256",
          "name": "",
          "type": "uint256"
        }
      ],
      "stateMutability": "view",
      "type": "function"
    },
    {
      "inputs": [
        {
          "internalType": "address",
          "name": "beneficiary",
          "type": "address"
        },
        {
          "internalType": "uint256",
          "name": "currentTime",
          "type": "uint256"
        }
      ],
      "name": "computeReleasableAmountAt",
      "outputs": [
        {
          "internalType": "uint256",
          "name": "",
          "type": "uint256"
        }
      ],
      "stateMutability": "view",
      "type": "function"
    },
    {
      "inputs": [
        {
          "internalType": "address",
          "name": "_beneficiary",
          "type": "address"
        },
        {
          "internalType": "uint256",
          "name": "_amount",
          "type": "uint256"
        }
      ],
      "name": "createVestingSchedule",
      "outputs": [],
      "stateMutability": "nonpayable",
      "type": "function"
    },
    {
      "inputs": [],
      "name": "getToken",
      "outputs": [
        {
          "internalType": "address",
          "name": "",
          "type": "address"
        }
      ],
      "stateMutability": "view",
      "type": "function"
    },
    {
      "inputs": [],
      "name": "getVestingSchedule",
      "outputs": [
        {
          "components": [
            {
              "internalType": "bool",
              "name": "initialized",
              "type": "bool"
            },
            {
              "internalType": "address",
              "name": "beneficiary",
              "type": "address"
            },
            {
              "internalType": "uint256",
              "name": "amountTotal",
              "type": "uint256"
            },
            {
              "internalType": "uint256",
              "name": "released",
              "type": "uint256"
            }
          ],
          "internalType": "struct PrivateSaleContract.VestingSchedule",
          "name": "",
          "type": "tuple"
        }
      ],
      "stateMutability": "view",
      "type": "function"
    },
    {
      "inputs": [],
      "name": "getVestingSchedulesTotalAmount",
      "outputs": [
        {
          "internalType": "uint256",
          "name": "",
          "type": "uint256"
        }
      ],
      "stateMutability": "view",
      "type": "function"
    },
    {
      "inputs": [],
      "name": "getWithdrawableAmount",
      "outputs": [
        {
          "internalType": "uint256",
          "name": "",
          "type": "uint256"
        }
      ],
      "stateMutability": "view",
      "type": "function"
    },
    {
      "inputs": [],
      "name": "hasClosed",
      "outputs": [
        {
          "internalType": "bool",
          "name": "",
          "type": "bool"
        }
      ],
      "stateMutability": "view",
      "type": "function"
    },
    {
      "inputs": [
        {
          "internalType": "address",
          "name": "account",
          "type": "address"
        }
      ],
      "name": "isWhitelisted",
      "outputs": [
        {
          "internalType": "bool",
          "name": "",
          "type": "bool"
        }
      ],
      "stateMutability": "view",
      "type": "function"
    },
    {
      "inputs": [],
      "name": "openingTime",
      "outputs": [
        {
          "internalType": "uint256",
          "name": "",
          "type": "uint256"
        }
      ],
      "stateMutability": "view",
      "type": "function"
    },
    {
      "inputs": [],
      "name": "owner",
      "outputs": [
        {
          "internalType": "address",
          "name": "",
          "type": "address"
        }
      ],
      "stateMutability": "view",
      "type": "function"
    },
    {
      "inputs": [
        {
          "internalType": "address",
          "name": "beneficiary",
          "type": "address"
        }
      ],
      "name": "release",
      "outputs": [],
      "stateMutability": "nonpayable",
      "type": "function"
    },
    {
      "inputs": [
        {
          "internalType": "address[]",
          "name": "accounts",
          "type": "address[]"
        }
      ],
      "name": "removeWhitelisted",
      "outputs": [],
      "stateMutability": "nonpayable",
      "type": "function"
    },
    {
      "inputs": [],
      "name": "renounceOwnership",
      "outputs": [],
      "stateMutability": "nonpayable",
      "type": "function"
    },
    {
      "inputs": [
        {
          "internalType": "uint256",
          "name": "rate_",
          "type": "uint256"
        }
      ],
      "name": "setTokenUsdRate",
      "outputs": [],
      "stateMutability": "nonpayable",
      "type": "function"
    },
    {
      "inputs": [],
      "name": "tokenUsdRate",
      "outputs": [
        {
          "internalType": "uint256",
          "name": "",
          "type": "uint256"
        }
      ],
      "stateMutability": "view",
      "type": "function"
    },
    {
      "inputs": [],
      "name": "totalTokenPurchased",
      "outputs": [
        {
          "internalType": "uint256",
          "name": "",
          "type": "uint256"
        }
      ],
      "stateMutability": "view",
      "type": "function"
    },
    {
      "inputs": [],
      "name": "totalTokenReleased",
      "outputs": [
        {
          "internalType": "uint256",
          "name": "",
          "type": "uint256"
        }
      ],
      "stateMutability": "view",
      "type": "function"
    },
    {
      "inputs": [
        {
          "internalType": "address",
          "name": "newOwner",
          "type": "address"
        }
      ],
      "name": "transferOwnership",
      "outputs": [],
      "stateMutability": "nonpayable",
      "type": "function"
    },
    {
      "inputs": [
        {
          "internalType": "address",
          "name": "beneficiary",
          "type": "address"
        },
        {
          "internalType": "address",
          "name": "newBeneficiary",
          "type": "address"
        }
      ],
      "name": "transferVestingBeneficiary",
      "outputs": [],
      "stateMutability": "nonpayable",
      "type": "function"
    },
    {
      "inputs": [
        {
          "internalType": "uint256",
          "name": "amount",
          "type": "uint256"
        }
      ],
      "name": "withdraw",
      "outputs": [],
      "stateMutability": "nonpayable",
      "type": "function"
    },
    {
      "inputs": [],
      "name": "withdrawRemainedToken",
      "outputs": [],
      "stateMutability": "nonpayable",
      "type": "function"
    },
    {
      "inputs": [],
      "name": "withdrawSaleFunds",
      "outputs": [],
      "stateMutability": "nonpayable",
      "type": "function"
    },
    {
      "inputs": [
        {
          "internalType": "string",
          "name": "name",
          "type": "string"
        }
      ],
      "name": "withdrawStableToken",
      "outputs": [],
      "stateMutability": "nonpayable",
      "type": "function"
    },
    {
      "stateMutability": "payable",
      "type": "receive"
    }
  ],
  "bytecode": "0x61016060405269010f0cf064dd5920000060e090815269021e19e0c9bab24000006101005269043c33c19375648000006101205269065a4da25d3016c00000610140526200005290600790600462000269565b503480156200006057600080fd5b50604051620029eb380380620029eb8339810160408190526200008391620002db565b8181620000903362000204565b6001805581620000e75760405162461bcd60e51b815260206004820152601a60248201527f4f70656e696e672074696d65206d7573742062652076616c696400000000000060448201526064015b60405180910390fd5b60008111620001395760405162461bcd60e51b815260206004820152601a60248201527f436c6f73696e672074696d65206d7573742062652076616c69640000000000006044820152606401620000de565b6002919091556003556001600160a01b0383166200015657600080fd5b60646200016d670de0b6b3a764000060056200035a565b62000179919062000339565b600655606083901b6001600160601b031916608052620001aa816301b9a68062000254602090811b62001d0017901c565b60a052620001f7620001c56301b9a68063039442806200037c565b620001e36301b9a680846200025460201b62001d001790919060201c565b6200025460201b62001d001790919060201c565b60c05250620003ac915050565b600080546001600160a01b038381166001600160a01b0319831681178455604051919092169283917f8be0079c531659141344cd1fd0a4f28419497f9722a3daafe3b4186f6b6457e09190a35050565b60006200026282846200031e565b9392505050565b828054828255906000526020600020908101928215620002b2579160200282015b82811115620002b257825182906001600160501b03169055916020019190600101906200028a565b50620002c0929150620002c4565b5090565b5b80821115620002c05760008155600101620002c5565b600080600060608486031215620002f0578283fd5b83516001600160a01b038116811462000307578384fd5b602085015160409095015190969495509392505050565b6000821982111562000334576200033462000396565b500190565b6000826200035557634e487b7160e01b81526012600452602481fd5b500490565b600081600019048311821515161562000377576200037762000396565b500290565b60008282101562000391576200039162000396565b500390565b634e487b7160e01b600052601160045260246000fd5b60805160601c60a05160c0516125cd6200041e6000396000818161194d0152611d490152600081816110aa015281816119190152818161199e01528181611d180152611d90015260008181610290015281816108e1015281816109d001528181610fb90152611ada01526125cd6000f3fe6080604052600436106101f05760003560e01c806363f3dbe51161010c5780639c845b9b1161009a578063b9a6ef401161006c578063b9a6ef40146105fc578063bbd50dab14610611578063d4f8b27b14610626578063f2fde38b1461063b578063fd1518811461065b57005b80639c845b9b1461058f578063a3194f73146105af578063a889011f146105cf578063b7a8807c146105e657005b80638da5cb5b116100de5780638da5cb5b1461050657806390be10cc1461052457806396866c13146105395780639b080dd7146105595780639c71a33a1461056f57005b806363f3dbe5146104a4578063715018a6146104bc57806387322816146104d157806389a7d3fb146104f157005b806331a6cc8d11610189578063419544a01161015b578063419544a01461042457806346f3e08e1461044457806348deb471146104645780634b6753bc146104795780634cfc4d301461048f57005b806331a6cc8d146103285780633a05f0d8146103485780633af32abf146103ec5780633b8d3fc51461040c57005b806321df0da7116101c257806321df0da71461028157806324b558f2146102c85780632e0f2625146102ec5780632e1a7d4d1461030857005b80630486a328146101f95780631515bc2b1461021957806316e1cc7a14610241578063191655871461026157005b366101f757005b005b34801561020557600080fd5b506101f7610214366004612360565b610671565b34801561022557600080fd5b5060035442115b60405190151581526020015b60405180910390f35b34801561024d57600080fd5b506101f761025c366004612390565b6106a9565b34801561026d57600080fd5b506101f761027c36600461217f565b6106c8565b34801561028d57600080fd5b507f00000000000000000000000000000000000000000000000000000000000000005b6040516001600160a01b039091168152602001610238565b3480156102d457600080fd5b506102de60065481565b604051908152602001610238565b3480156102f857600080fd5b506102de670de0b6b3a764000081565b34801561031457600080fd5b506101f7610323366004612360565b61095f565b34801561033457600080fd5b506101f76103433660046122c4565b6109fe565b34801561035457600080fd5b506040805160808082018352600080835260208084018290528385018290526060938401829052338252600a81529084902084518084018652815460ff811615158083526101009091046001600160a01b039081168386019081526001850154848a01908152600290950154938801938452885192835251169381019390935290519482019490945292519183019190915201610238565b3480156103f857600080fd5b5061022c61040736600461217f565b610a6f565b34801561041857600080fd5b506102de630394428081565b34801561043057600080fd5b506101f761043f3660046121cb565b610aa3565b34801561045057600080fd5b506101f761045f366004612284565b610d83565b34801561047057600080fd5b50600b546102de565b34801561048557600080fd5b506102de60035481565b34801561049b57600080fd5b506102de610e78565b3480156104b057600080fd5b506102de6301b9a68081565b3480156104c857600080fd5b506101f7610e8d565b3480156104dd57600080fd5b506101f76104ec3660046121f4565b610ec3565b3480156104fd57600080fd5b506102de610f72565b34801561051257600080fd5b506000546001600160a01b03166102b0565b34801561053057600080fd5b506102de610f92565b34801561054557600080fd5b506101f7610554366004612199565b61103e565b34801561056557600080fd5b506102de60055481565b34801561057b57600080fd5b506101f761058a3660046121f4565b611399565b34801561059b57600080fd5b506101f76105aa366004612316565b611443565b3480156105bb57600080fd5b506102de6105ca3660046121cb565b6117fb565b3480156105db57600080fd5b506102de62278d0081565b3480156105f257600080fd5b506102de60025481565b34801561060857600080fd5b506101f7611a20565b34801561061d57600080fd5b506101f7611b01565b34801561063257600080fd5b506102de611bd1565b34801561064757600080fd5b506101f761065636600461217f565b611c68565b34801561066757600080fd5b506102de60045481565b6000546001600160a01b031633146106a45760405162461bcd60e51b815260040161069b90612460565b60405180910390fd5b600655565b428110156106b657600080fd5b81156106c25760028290555b60035550565b600260015414156106eb5760405162461bcd60e51b815260040161069b90612495565b600260019081556001600160a01b0382166000908152600a6020526040902054829160ff9091161515146107315760405162461bcd60e51b815260040161069b90612410565b6001600160a01b0382166000818152600a602052604081209133149061075f6000546001600160a01b031690565b6001600160a01b0316336001600160a01b0316149050818061077e5750805b6108025760405162461bcd60e51b815260206004820152604960248201527f5072697661746553616c65436f6e74726163743a206f6e6c792062656e65666960448201527f636961727920616e64206f776e65722063616e2072656c656173652076657374606482015268656420746f6b656e7360b81b608482015260a40161069b565b60408051608081018252845460ff81161515825261010090046001600160a01b031660208201526001850154918101919091526002840154606082015260009061084b90611d13565b9050600081116108af5760405162461bcd60e51b815260206004820152602960248201527f5072697661746553616c65436f6e74726163743a206e6f20746f6b656e732076604482015268195cdd1959081e595d60ba1b606482015260840161069b565b60028401546108be9082611d00565b6002850155600b546108d09082611e0c565b600b55856109086001600160a01b037f0000000000000000000000000000000000000000000000000000000000000000168284611e18565b6005546109159083611d00565b60055560408051338152602081018490527fb21fb52d5749b80f3182f8c6992236b5e5576681880914484d7f4c9b062e619e91015b60405180910390a15050600180555050505050565b600260015414156109825760405162461bcd60e51b815260040161069b90612495565b60026001556000546001600160a01b031633146109b15760405162461bcd60e51b815260040161069b90612460565b6109f76109c66000546001600160a01b031690565b6001600160a01b037f0000000000000000000000000000000000000000000000000000000000000000169083611e18565b5060018055565b6000546001600160a01b03163314610a285760405162461bcd60e51b815260040161069b90612460565b8060088484604051610a3b9291906123cd565b90815260405190819003602001902080546001600160a01b03929092166001600160a01b0319909216919091179055505050565b60006001600160a01b038216610a8457600080fd5b506001600160a01b031660009081526009602052604090205460ff1690565b6000546001600160a01b03163314610acd5760405162461bcd60e51b815260040161069b90612460565b80306001600160a01b03166390be10cc6040518163ffffffff1660e01b815260040160206040518083038186803b158015610b0757600080fd5b505afa158015610b1b573d6000803e3d6000fd5b505050506040513d601f19601f82011682018060405250810190610b3f9190612378565b1015610bcd5760405162461bcd60e51b815260206004820152605160248201527f5072697661746553616c65436f6e74726163743a2063616e6e6f74206372656160448201527f74652076657374696e67207363686564756c652062656361757365206e6f742060648201527073756666696369656e7420746f6b656e7360781b608482015260a40161069b565b60008111610c2d5760405162461bcd60e51b815260206004820152602760248201527f5072697661746553616c65436f6e74726163743a20616d6f756e74206d7573746044820152660206265203e20360cc1b606482015260840161069b565b6001600160a01b0382166000908152600a602052604090205460ff16151560011415610c9a576001600160a01b0382166000908152600a6020526040902060010154610c799082611d00565b6001600160a01b0383166000908152600a6020526040902060010155610d15565b6040805160808101825260018082526001600160a01b038581166020808501828152858701888152600060608801818152948152600a909352969091209451855491516001600160a81b0319909216901515610100600160a81b03191617610100919093160291909117835592519082015590516002909101555b600b54610d229082611d00565b600b55600454610d329082611d00565b600455604080516001600160a01b0384168152600060208201529081018290527f06d7c513d5f4ab303351ed7f68da41871b2d39c7093bb2a94f5d5a3ba63a69289060600160405180910390a15050565b6000546001600160a01b03163314610dad5760405162461bcd60e51b815260040161069b90612460565b600060088383604051610dc19291906123cd565b908152604051908190036020018120546370a0823160e01b82523060048301526001600160a01b0316915060009082906370a082319060240160206040518083038186803b158015610e1257600080fd5b505afa158015610e26573d6000803e3d6000fd5b505050506040513d601f19601f82011682018060405250810190610e4a9190612378565b9050610e72610e616000546001600160a01b031690565b6001600160a01b0384169083611e18565b50505050565b610e8a6301b9a6806303944280612523565b81565b6000546001600160a01b03163314610eb75760405162461bcd60e51b815260040161069b90612460565b610ec16000611e6a565b565b6000546001600160a01b03163314610eed5760405162461bcd60e51b815260040161069b90612460565b60005b81811015610f6d57600060096000858585818110610f1e57634e487b7160e01b600052603260045260246000fd5b9050602002016020810190610f33919061217f565b6001600160a01b031681526020810191909152604001600020805460ff191691151591909117905580610f6581612566565b915050610ef0565b505050565b62278d00610f886301b9a6806303944280612523565b610e8a91906124e4565b600b546040516370a0823160e01b8152306004820152600091611039916001600160a01b037f000000000000000000000000000000000000000000000000000000000000000016906370a082319060240160206040518083038186803b158015610ffb57600080fd5b505afa15801561100f573d6000803e3d6000fd5b505050506040513d601f19601f820116820180604052508101906110339190612378565b90611e0c565b905090565b600260015414156110615760405162461bcd60e51b815260040161069b90612495565b600260019081556001600160a01b0383166000908152600a6020526040902054839160ff9091161515146110a75760405162461bcd60e51b815260040161069b90612410565b427f000000000000000000000000000000000000000000000000000000000000000081106111535760405162461bcd60e51b815260206004820152604d60248201527f5072697661746553616c65436f6e74726163743a2043616e6e6f74207472616e60448201527f736665722062656e6566696369617279207768656e2076657374696e6720616c60648201526c1c9958591e481cdd185c9d1959609a1b608482015260a40161069b565b6000546001600160a01b03163314806111c35760405162461bcd60e51b815260206004820152602c60248201527f5072697661746553616c65436f6e74726163743a206f6e6c79206f776e65722060448201526b31b0b7103a3930b739b332b960a11b606482015260840161069b565b6001600160a01b0385166000908152600a60205260408120600281015460018201549192916111f191611e0c565b90506000811161125b5760405162461bcd60e51b815260206004820152602f60248201527f5072697661746553616c65436f6e74726163743a206e6f206d6f726520746f6b60448201526e32b739903a37903a3930b739b332b960891b606482015260840161069b565b600182015461126a9082611e0c565b6001808401919091556001600160a01b0387166000908152600a602052604090205460ff16151514156112de576001600160a01b0386166000908152600a60205260409020600101546112bd9082611d00565b6001600160a01b0387166000908152600a6020526040902060010155611359565b6040805160808101825260018082526001600160a01b038981166020808501828152858701888152600060608801818152948152600a909352969091209451855491516001600160a81b0319909216901515610100600160a81b03191617610100919093160291909117835592519082015590516002909101555b604080516001600160a01b03808a168252881660208201527ffbe993c87b521dceb251de21f65269f508a499c8545576cc8c1265d423da2b1c910161094a565b6000546001600160a01b031633146113c35760405162461bcd60e51b815260040161069b90612460565b60005b81811015610f6d576001600960008585858181106113f457634e487b7160e01b600052603260045260246000fd5b9050602002016020810190611409919061217f565b6001600160a01b031681526020810191909152604001600020805460ff19169115159190911790558061143b81612566565b9150506113c6565b60006007828154811061146657634e487b7160e01b600052603260045260246000fd5b90600052602060002001549050600081116114d35760405162461bcd60e51b815260206004820152602760248201527f5072697661746553616c65436f6e74726163743a20696e76616c6964207061636044820152661ad859d9481a5960ca1b606482015260840161069b565b6000600885856040516114e79291906123cd565b908152604051908190036020019020546006546001600160a01b0390911691506000906115269061152085670de0b6b3a7640000611eba565b90611ec6565b905080306001600160a01b03166390be10cc6040518163ffffffff1660e01b815260040160206040518083038186803b15801561156257600080fd5b505afa158015611576573d6000803e3d6000fd5b505050506040513d601f19601f8201168201806040525081019061159a9190612378565b10156115fd5760405162461bcd60e51b815260206004820152602c60248201527f5072697661746553616c65436f6e74726163743a206e6f7420656e6f7567682060448201526b66756e647320746f2062757960a01b606482015260840161069b565b6040516323b872dd60e01b8152336004820152306024820152604481018490526001600160a01b038316906323b872dd90606401602060405180830381600087803b15801561164b57600080fd5b505af115801561165f573d6000803e3d6000fd5b505050506040513d601f19601f820116820180604052508101906116839190612264565b6116c85760405162461bcd60e51b815260206004820152601660248201527510dbdd5b19081b9bdd081d1c985b9cd9995c881554d160521b604482015260640161069b565b336000908152600a602052604090205460ff1615156001141561171a57336000908152600a60205260409020600101546117029082611d00565b336000908152600a6020526040902060010155611792565b604080516080810182526001808252336020808401828152848601878152600060608701818152948152600a909352959091209351845491516001600160a81b0319909216901515610100600160a81b031916176101006001600160a01b039092169190910217835592519082015590516002909101555b600b5461179f9082611d00565b600b556004546117af9082611d00565b60045560408051338152602081018590529081018290527f06d7c513d5f4ab303351ed7f68da41871b2d39c7093bb2a94f5d5a3ba63a69289060600160405180910390a1505050505050565b6001600160a01b0382166000908152600a6020526040812054839060ff16151560011461183a5760405162461bcd60e51b815260040161069b90612410565b336001600160a01b03851614600061185a6000546001600160a01b031690565b6001600160a01b0316336001600160a01b031614905081806118795750805b6118ff5760405162461bcd60e51b815260206004820152604b60248201527f5072697661746553616c65436f6e74726163743a206f6e6c792062656e65666960448201527f636961727920616e64206f776e65722063616e2071756572792072656c65617360648201526a18589b1948185b5bdd5b9d60aa1b608482015260a40161069b565b6001600160a01b0386166000908152600a602052604090207f000000000000000000000000000000000000000000000000000000000000000086101561194b5760009450505050611a19565b7f0000000000000000000000000000000000000000000000000000000000000000861061198f576002810154600182015461198591611e0c565b9450505050611a19565b60006119c262278d00611520897f0000000000000000000000000000000000000000000000000000000000000000611e0c565b905060006119f862278d006119df6301b9a6806303944280612523565b6119e991906124e4565b60018501546115209085611eba565b9050611a11836002015482611e0c90919063ffffffff16565b965050505050505b5092915050565b6000546001600160a01b03163314611a4a5760405162461bcd60e51b815260040161069b90612460565b610ec1611a5f6000546001600160a01b031690565b306001600160a01b03166390be10cc6040518163ffffffff1660e01b815260040160206040518083038186803b158015611a9857600080fd5b505afa158015611aac573d6000803e3d6000fd5b505050506040513d601f19601f82011682018060405250810190611ad09190612378565b6001600160a01b037f0000000000000000000000000000000000000000000000000000000000000000169190611e18565b6000546001600160a01b03163314611b2b5760405162461bcd60e51b815260040161069b90612460565b60004711611b945760405162461bcd60e51b815260206004820152603060248201527f5072697661746553616c65436f6e74726163743a20436f6e747261637427732060448201526f62616c616e636520697320656d70747960801b606482015260840161069b565b600080546040516001600160a01b03909116914780156108fc02929091818181858888f19350505050158015611bce573d6000803e3d6000fd5b50565b336000818152600a602052604081205490919060ff161515600114611c085760405162461bcd60e51b815260040161069b90612410565b336000908152600a60209081526040918290208251608081018452815460ff81161515825261010090046001600160a01b03169281019290925260018101549282019290925260028201546060820152611c6190611d13565b9250505090565b6000546001600160a01b03163314611c925760405162461bcd60e51b815260040161069b90612460565b6001600160a01b038116611cf75760405162461bcd60e51b815260206004820152602660248201527f4f776e61626c653a206e6577206f776e657220697320746865207a65726f206160448201526564647265737360d01b606482015260840161069b565b611bce81611e6a565b6000611d0c82846124cc565b9392505050565b6000427f0000000000000000000000000000000000000000000000000000000000000000811015611d475750600092915050565b7f00000000000000000000000000000000000000000000000000000000000000008110611d815760608301516040840151611d0c91611e0c565b6000611db462278d00611520847f0000000000000000000000000000000000000000000000000000000000000000611e0c565b90506000611dea62278d00611dd16301b9a6806303944280612523565b611ddb91906124e4565b60408701516115209085611eba565b9050611e03856060015182611e0c90919063ffffffff16565b95945050505050565b6000611d0c8284612523565b604080516001600160a01b038416602482015260448082018490528251808303909101815260649091019091526020810180516001600160e01b031663a9059cbb60e01b179052610f6d908490611ed2565b600080546001600160a01b038381166001600160a01b0319831681178455604051919092169283917f8be0079c531659141344cd1fd0a4f28419497f9722a3daafe3b4186f6b6457e09190a35050565b6000611d0c8284612504565b6000611d0c82846124e4565b6000611f27826040518060400160405280602081526020017f5361666545524332303a206c6f772d6c6576656c2063616c6c206661696c6564815250856001600160a01b0316611fa49092919063ffffffff16565b805190915015610f6d5780806020019051810190611f459190612264565b610f6d5760405162461bcd60e51b815260206004820152602a60248201527f5361666545524332303a204552433230206f7065726174696f6e20646964206e6044820152691bdd081cdd58d8d9595960b21b606482015260840161069b565b6060611fb38484600085611fbb565b949350505050565b60608247101561201c5760405162461bcd60e51b815260206004820152602660248201527f416464726573733a20696e73756666696369656e742062616c616e636520666f6044820152651c8818d85b1b60d21b606482015260840161069b565b843b61206a5760405162461bcd60e51b815260206004820152601d60248201527f416464726573733a2063616c6c20746f206e6f6e2d636f6e7472616374000000604482015260640161069b565b600080866001600160a01b0316858760405161208691906123b1565b60006040518083038185875af1925050503d80600081146120c3576040519150601f19603f3d011682016040523d82523d6000602084013e6120c8565b606091505b50915091506120d88282866120e3565b979650505050505050565b606083156120f2575081611d0c565b8251156121025782518084602001fd5b8160405162461bcd60e51b815260040161069b91906123dd565b80356001600160a01b038116811461213357600080fd5b919050565b60008083601f840112612149578182fd5b50813567ffffffffffffffff811115612160578182fd5b60208301915083602082850101111561217857600080fd5b9250929050565b600060208284031215612190578081fd5b611d0c8261211c565b600080604083850312156121ab578081fd5b6121b48361211c565b91506121c26020840161211c565b90509250929050565b600080604083850312156121dd578182fd5b6121e68361211c565b946020939093013593505050565b60008060208385031215612206578182fd5b823567ffffffffffffffff8082111561221d578384fd5b818501915085601f830112612230578384fd5b81358181111561223e578485fd5b8660208260051b8501011115612252578485fd5b60209290920196919550909350505050565b600060208284031215612275578081fd5b81518015158114611d0c578182fd5b60008060208385031215612296578182fd5b823567ffffffffffffffff8111156122ac578283fd5b6122b885828601612138565b90969095509350505050565b6000806000604084860312156122d8578081fd5b833567ffffffffffffffff8111156122ee578182fd5b6122fa86828701612138565b909450925061230d90506020850161211c565b90509250925092565b60008060006040848603121561232a578283fd5b833567ffffffffffffffff811115612340578384fd5b61234c86828701612138565b909790965060209590950135949350505050565b600060208284031215612371578081fd5b5035919050565b600060208284031215612389578081fd5b5051919050565b600080604083850312156123a2578182fd5b50508035926020909101359150565b600082516123c381846020870161253a565b9190910192915050565b8183823760009101908152919050565b60208152600082518060208401526123fc81604085016020870161253a565b601f01601f19169190910160400192915050565b60208082526030908201527f5072697661746553616c65436f6e74726163743a2056657374696e672073636860408201526f19591d5b19481b5d5cdd08195e1a5cdd60821b606082015260800190565b6020808252818101527f4f776e61626c653a2063616c6c6572206973206e6f7420746865206f776e6572604082015260600190565b6020808252601f908201527f5265656e7472616e637947756172643a207265656e7472616e742063616c6c00604082015260600190565b600082198211156124df576124df612581565b500190565b6000826124ff57634e487b7160e01b81526012600452602481fd5b500490565b600081600019048311821515161561251e5761251e612581565b500290565b60008282101561253557612535612581565b500390565b60005b8381101561255557818101518382015260200161253d565b83811115610e725750506000910152565b600060001982141561257a5761257a612581565b5060010190565b634e487b7160e01b600052601160045260246000fdfea26469706673582212207132dcb7a202e1140c717df34410a4e4a4e8a15722afac853935e0d6138708b764736f6c63430008040033",
  "linkReferences": {},
  "deployedLinkReferences": {}
}