{
  "_format": "hh-sol-artifact-1",
  "contractName": "REITIPO",
  "sourceName": "contracts/REITIPO.sol",
  "abi": [
    {
      "anonymous": false,
      "inputs": [
        {
          "indexed": true,
          "internalType": "address",
          "name": "previousGovernor",
          "type": "address"
        },
        {
          "indexed": true,
          "internalType": "address",
          "name": "newGovernor",
          "type": "address"
        }
      ],
      "name": "GovernorshipTransferred",
      "type": "event"
    },
    {
      "anonymous": false,
      "inputs": [
        {
          "indexed": false,
          "internalType": "uint8",
          "name": "version",
          "type": "uint8"
        }
      ],
      "name": "Initialized",
      "type": "event"
    },
    {
      "stateMutability": "payable",
      "type": "fallback"
    },
    {
      "inputs": [
        {
          "internalType": "address[]",
          "name": "accounts",
          "type": "address[]"
        }
      ],
      "name": "addManyToWhitelisted",
      "outputs": [],
      "stateMutability": "nonpayable",
      "type": "function"
    },
    {
      "inputs": [
        {
          "internalType": "address",
          "name": "account",
          "type": "address"
        }
      ],
      "name": "addToWhitelisted",
      "outputs": [],
      "stateMutability": "nonpayable",
      "type": "function"
    },
    {
      "inputs": [
        {
          "internalType": "string",
          "name": "name",
          "type": "string"
        },
        {
          "internalType": "address",
          "name": "token",
          "type": "address"
        }
      ],
      "name": "allowPayableToken",
      "outputs": [],
      "stateMutability": "nonpayable",
      "type": "function"
    },
    {
      "inputs": [
        {
          "internalType": "uint256",
          "name": "id",
          "type": "uint256"
        }
      ],
      "name": "claimPendingBalances",
      "outputs": [],
      "stateMutability": "nonpayable",
      "type": "function"
    },
    {
      "inputs": [],
      "name": "freeWhiteList",
      "outputs": [],
      "stateMutability": "nonpayable",
      "type": "function"
    },
    {
      "inputs": [],
      "name": "getNFTContract",
      "outputs": [
        {
          "internalType": "address",
          "name": "",
          "type": "address"
        }
      ],
      "stateMutability": "view",
      "type": "function"
    },
    {
      "inputs": [
        {
          "internalType": "uint256",
          "name": "id",
          "type": "uint256"
        },
        {
          "internalType": "address",
          "name": "account",
          "type": "address"
        }
      ],
      "name": "getPendingBalances",
      "outputs": [
        {
          "internalType": "uint256",
          "name": "",
          "type": "uint256"
        }
      ],
      "stateMutability": "view",
      "type": "function"
    },
    {
      "inputs": [],
      "name": "governor",
      "outputs": [
        {
          "internalType": "address",
          "name": "",
          "type": "address"
        }
      ],
      "stateMutability": "view",
      "type": "function"
    },
    {
      "inputs": [
        {
          "internalType": "address",
          "name": "_nftAddress",
          "type": "address"
        }
      ],
      "name": "initialize",
      "outputs": [],
      "stateMutability": "nonpayable",
      "type": "function"
    },
    {
      "inputs": [
        {
          "internalType": "address",
          "name": "account",
          "type": "address"
        }
      ],
      "name": "isWhitelisted",
      "outputs": [
        {
          "internalType": "bool",
          "name": "",
          "type": "bool"
        }
      ],
      "stateMutability": "view",
      "type": "function"
    },
    {
      "inputs": [
        {
          "internalType": "address",
          "name": "",
          "type": "address"
        },
        {
          "internalType": "address",
          "name": "",
          "type": "address"
        },
        {
          "internalType": "uint256[]",
          "name": "",
          "type": "uint256[]"
        },
        {
          "internalType": "uint256[]",
          "name": "",
          "type": "uint256[]"
        },
        {
          "internalType": "bytes",
          "name": "",
          "type": "bytes"
        }
      ],
      "name": "onERC1155BatchReceived",
      "outputs": [
        {
          "internalType": "bytes4",
          "name": "",
          "type": "bytes4"
        }
      ],
      "stateMutability": "nonpayable",
      "type": "function"
    },
    {
      "inputs": [
        {
          "internalType": "address",
          "name": "",
          "type": "address"
        },
        {
          "internalType": "address",
          "name": "",
          "type": "address"
        },
        {
          "internalType": "uint256",
          "name": "",
          "type": "uint256"
        },
        {
          "internalType": "uint256",
          "name": "",
          "type": "uint256"
        },
        {
          "internalType": "bytes",
          "name": "",
          "type": "bytes"
        }
      ],
      "name": "onERC1155Received",
      "outputs": [
        {
          "internalType": "bytes4",
          "name": "",
          "type": "bytes4"
        }
      ],
      "stateMutability": "nonpayable",
      "type": "function"
    },
    {
      "inputs": [
        {
          "internalType": "address",
          "name": "",
          "type": "address"
        },
        {
          "internalType": "address",
          "name": "",
          "type": "address"
        },
        {
          "internalType": "uint256",
          "name": "",
          "type": "uint256"
        },
        {
          "internalType": "bytes",
          "name": "",
          "type": "bytes"
        }
      ],
      "name": "onERC721Received",
      "outputs": [
        {
          "internalType": "bytes4",
          "name": "",
          "type": "bytes4"
        }
      ],
      "stateMutability": "nonpayable",
      "type": "function"
    },
    {
      "inputs": [
        {
          "internalType": "string",
          "name": "token",
          "type": "string"
        },
        {
          "internalType": "uint256",
          "name": "id",
          "type": "uint256"
        },
        {
          "internalType": "uint256",
          "name": "quantity",
          "type": "uint256"
        }
      ],
      "name": "purchaseWithToken",
      "outputs": [],
      "stateMutability": "nonpayable",
      "type": "function"
    },
    {
      "inputs": [
        {
          "internalType": "address[]",
          "name": "accounts",
          "type": "address[]"
        }
      ],
      "name": "removeManyWhitelisted",
      "outputs": [],
      "stateMutability": "nonpayable",
      "type": "function"
    },
    {
      "inputs": [
        {
          "internalType": "address",
          "name": "account",
          "type": "address"
        }
      ],
      "name": "removeWhitelisted",
      "outputs": [],
      "stateMutability": "nonpayable",
      "type": "function"
    },
    {
      "inputs": [],
      "name": "renounceGovernorship",
      "outputs": [],
      "stateMutability": "nonpayable",
      "type": "function"
    },
    {
      "inputs": [],
      "name": "resumeWhiteList",
      "outputs": [],
      "stateMutability": "nonpayable",
      "type": "function"
    },
    {
      "inputs": [
        {
          "internalType": "bytes4",
          "name": "interfaceId",
          "type": "bytes4"
        }
      ],
      "name": "supportsInterface",
      "outputs": [
        {
          "internalType": "bool",
          "name": "",
          "type": "bool"
        }
      ],
      "stateMutability": "pure",
      "type": "function"
    },
    {
      "inputs": [
        {
          "internalType": "address",
          "name": "newGovernor",
          "type": "address"
        }
      ],
      "name": "transferGovernorship",
      "outputs": [],
      "stateMutability": "nonpayable",
      "type": "function"
    },
    {
      "inputs": [],
      "name": "withdrawFunds",
      "outputs": [],
      "stateMutability": "nonpayable",
      "type": "function"
    },
    {
      "inputs": [
        {
          "internalType": "uint256",
          "name": "id",
          "type": "uint256"
        }
      ],
      "name": "withdrawNFT",
      "outputs": [],
      "stateMutability": "nonpayable",
      "type": "function"
    },
    {
      "inputs": [
        {
          "internalType": "string",
          "name": "name",
          "type": "string"
        }
      ],
      "name": "withdrawPayableToken",
      "outputs": [],
      "stateMutability": "nonpayable",
      "type": "function"
    },
    {
      "stateMutability": "payable",
      "type": "receive"
    }
  ],
  "bytecode": "0x608060405234801561001057600080fd5b50611ffc806100206000396000f3fe6080604052600436106101385760003560e01c80634536cab6116100b0578063bc197c811161006c578063bc197c811461038f578063c4d66de8146103bb578063e46c1507146103db578063ead6ca0a146103fb578063f23a6e611461044c578063f96726671461047857005b80634536cab6146102e5578063671ad411146103055780636c6426ad14610325578063764d80291461033a57806381c0c2631461035a578063b6aa515b1461036f57005b806324600fc3116100ff57806324600fc314610232578063291d9549146102475780632b1f4ad6146102675780633239423914610285578063367c4437146102a55780633af32abf146102c557005b806301ffc9a714610141578063023245d71461018757806308c92f50146101a75780630c340a24146101bc578063150b7a02146101ee57005b3661013f57005b005b34801561014d57600080fd5b5061017261015c36600461182f565b6001600160e01b031916630271189760e51b1490565b60405190151581526020015b60405180910390f35b34801561019357600080fd5b5061013f6101a2366004611859565b610498565b3480156101b357600080fd5b5061013f6105fd565b3480156101c857600080fd5b506066546001600160a01b03165b6040516001600160a01b03909116815260200161017e565b3480156101fa57600080fd5b50610219610209366004611940565b630a85bd0160e11b949350505050565b6040516001600160e01b0319909116815260200161017e565b34801561023e57600080fd5b5061013f610696565b34801561025357600080fd5b5061013f6102623660046119a8565b610787565b34801561027357600080fd5b5060ca546001600160a01b03166101d6565b34801561029157600080fd5b5061013f6102a0366004611a0c565b6107d2565b3480156102b157600080fd5b5061013f6102c0366004611a60565b610843565b3480156102d157600080fd5b506101726102e03660046119a8565b610d8f565b3480156102f157600080fd5b5061013f610300366004611ab1565b610dc3565b34801561031157600080fd5b5061013f610320366004611b26565b610e64565b34801561033157600080fd5b5061013f611002565b34801561034657600080fd5b5061013f610355366004611ab1565b611094565b34801561036657600080fd5b5061013f611130565b34801561037b57600080fd5b5061013f61038a3660046119a8565b611166565b34801561039b57600080fd5b506102196103aa366004611be8565b63bc197c8160e01b95945050505050565b3480156103c757600080fd5b5061013f6103d63660046119a8565b611207565b3480156103e757600080fd5b5061013f6103f63660046119a8565b61130f565b34801561040757600080fd5b5061043e610416366004611c92565b600091825260cb602090815260408084206001600160a01b0393909316845291905290205490565b60405190815260200161017e565b34801561045857600080fd5b50610219610467366004611cbe565b63f23a6e6160e01b95945050505050565b34801561048457600080fd5b5061013f610493366004611859565b61135d565b600260985414156104c45760405162461bcd60e51b81526004016104bb90611d23565b60405180910390fd5b60026098556066546001600160a01b031633146104f35760405162461bcd60e51b81526004016104bb90611d5a565b60ca54604051627eeac760e11b8152306004820152602481018390526000916001600160a01b03169062fdd58e9060440160206040518083038186803b15801561053c57600080fd5b505afa158015610550573d6000803e3d6000fd5b505050506040513d601f19601f820116820180604052508101906105749190611da0565b60ca549091506060906001600160a01b031663f242432a3061059e6066546001600160a01b031690565b8686866040518663ffffffff1660e01b81526004016105c1959493929190611db9565b600060405180830381600087803b1580156105db57600080fd5b505af11580156105ef573d6000803e3d6000fd5b505060016098555050505050565b6034546001600160a01b031633146106275760405162461bcd60e51b81526004016104bb90611e38565b603454600160a01b900460ff16156106815760405162461bcd60e51b815260206004820152601c60248201527f57686974656c697374696e6720616c726561647920726573756d65640000000060448201526064016104bb565b6034805460ff60a01b1916600160a01b179055565b600260985414156106b95760405162461bcd60e51b81526004016104bb90611d23565b60026098556066546001600160a01b031633146106e85760405162461bcd60e51b81526004016104bb90611d5a565b600047116107465760405162461bcd60e51b815260206004820152602560248201527f524549542049504f3a20436f6e747261637427732062616c616e636520697320604482015264656d70747960d81b60648201526084016104bb565b6066546040516001600160a01b03909116904780156108fc02916000818181858888f1935050505015801561077f573d6000803e3d6000fd5b506001609855565b6034546001600160a01b031633146107b15760405162461bcd60e51b81526004016104bb90611e38565b6001600160a01b03166000908152603360205260409020805460ff19169055565b6066546001600160a01b031633146107fc5760405162461bcd60e51b81526004016104bb90611d5a565b8060cc848460405161080f929190611e7d565b90815260405190819003602001902080546001600160a01b03929092166001600160a01b0319909216919091179055505050565b3360009081526033602052604090205460ff168061086a5750603454600160a01b900460ff165b6108a85760405162461bcd60e51b815260206004820152600f60248201526e139bdd081dda1a5d195b1a5cdd1959608a1b60448201526064016104bb565b60ca5460405163d98d9eaf60e01b8152600481018490523060248201526001600160a01b039091169063d98d9eaf9060440160206040518083038186803b1580156108f257600080fd5b505afa158015610906573d6000803e3d6000fd5b505050506040513d601f19601f8201168201806040525081019061092a9190611e8d565b61098a5760405162461bcd60e51b815260206004820152602b60248201527f5245495449504f3a204d7573742073657420746869732061732052454954204960448201526a1413c818dbdb9d1c9858dd60aa1b60648201526084016104bb565b60ca54604051630b12308560e11b8152306004820152602481018490526000916001600160a01b031690631624610a9060440160206040518083038186803b1580156109d557600080fd5b505afa1580156109e9573d6000803e3d6000fd5b505050506040513d601f19601f82011682018060405250810190610a0d9190611da0565b905081811015610a695760405162461bcd60e51b815260206004820152602160248201527f5245495449504f3a206e6f7420656e6f75676820756e69747320746f2073656c6044820152601b60fa1b60648201526084016104bb565b60ca54604051630b1fd69160e41b8152600481018590526000916001600160a01b03169063b1fd69109060240160206040518083038186803b158015610aae57600080fd5b505afa158015610ac2573d6000803e3d6000fd5b505050506040513d601f19601f82011682018060405250810190610ae69190611da0565b905060008111610b315760405162461bcd60e51b815260206004820152601660248201527514915255125413ce881c1c9a58d9481b9bdd081cd95d60521b60448201526064016104bb565b6000610b3d8483611ec5565b905060cc8787604051610b51929190611e7d565b908152604051908190036020019020546001600160a01b03166323b872dd610b763390565b6040516001600160e01b031960e084901b1681526001600160a01b03909116600482015230602482015260448101849052606401602060405180830381600087803b158015610bc457600080fd5b505af1158015610bd8573d6000803e3d6000fd5b505050506040513d601f19601f82011682018060405250810190610bfc9190611e8d565b610c485760405162461bcd60e51b815260206004820181905260248201527f5245495449504f3a206e6f7420656e6f7567682066756e647320746f2062757960448201526064016104bb565b60ca546001600160a01b0316639944f518336040516001600160e01b031960e084901b1681526001600160a01b03909116600482015260240160206040518083038186803b158015610c9957600080fd5b505afa158015610cad573d6000803e3d6000fd5b505050506040513d601f19601f82011682018060405250810190610cd19190611e8d565b15610d475760ca54604051637921219560e11b81526060916001600160a01b03169063f242432a90610d0f90309033908b908b908890600401611db9565b600060405180830381600087803b158015610d2957600080fd5b505af1158015610d3d573d6000803e3d6000fd5b5050505050610d86565b600085815260cb60209081526040808320338452909152902054610d6b9085611674565b600086815260cb602090815260408083203384529091529020555b50505050505050565b60006001600160a01b038216610da457600080fd5b506001600160a01b031660009081526033602052604090205460ff1690565b6034546001600160a01b03163314610ded5760405162461bcd60e51b81526004016104bb90611e38565b60005b81811015610e5f57600160336000858585818110610e1057610e10611ee4565b9050602002016020810190610e2591906119a8565b6001600160a01b031681526020810191909152604001600020805460ff191691151591909117905580610e5781611efa565b915050610df0565b505050565b60026098541415610e875760405162461bcd60e51b81526004016104bb90611d23565b60026098556066546001600160a01b03163314610eb65760405162461bcd60e51b81526004016104bb90611d5a565b600060cc8383604051610eca929190611e7d565b908152604051908190036020018120546370a0823160e01b82523060048301526001600160a01b0316915060009082906370a082319060240160206040518083038186803b158015610f1b57600080fd5b505afa158015610f2f573d6000803e3d6000fd5b505050506040513d601f19601f82011682018060405250810190610f539190611da0565b9050816001600160a01b031663a9059cbb610f766066546001600160a01b031690565b6040516001600160e01b031960e084901b1681526001600160a01b03909116600482015260248101849052604401602060405180830381600087803b158015610fbe57600080fd5b505af1158015610fd2573d6000803e3d6000fd5b505050506040513d601f19601f82011682018060405250810190610ff69190611e8d565b50506001609855505050565b6034546001600160a01b0316331461102c5760405162461bcd60e51b81526004016104bb90611e38565b603454600160a01b900460ff166110855760405162461bcd60e51b815260206004820152601b60248201527f57686974656c697374696e6720616c726561647920706175736564000000000060448201526064016104bb565b6034805460ff60a01b19169055565b6034546001600160a01b031633146110be5760405162461bcd60e51b81526004016104bb90611e38565b60005b81811015610e5f576000603360008585858181106110e1576110e1611ee4565b90506020020160208101906110f691906119a8565b6001600160a01b031681526020810191909152604001600020805460ff19169115159190911790558061112881611efa565b9150506110c1565b6066546001600160a01b0316331461115a5760405162461bcd60e51b81526004016104bb90611d5a565b6111646000611687565b565b6066546001600160a01b031633146111905760405162461bcd60e51b81526004016104bb90611d5a565b6001600160a01b0381166111fb5760405162461bcd60e51b815260206004820152602c60248201527f476f7665726e61626c653a206e657720676f7665726e6f72206973207468652060448201526b7a65726f206164647265737360a01b60648201526084016104bb565b61120481611687565b50565b600061121360016116d9565b9050801561122b576000805461ff0019166101001790555b6001600160a01b03821661128d5760405162461bcd60e51b815260206004820152602360248201527f4e465420636f6e74726163742063616e6e6f74206265207a65726f206164647260448201526265737360e81b60648201526084016104bb565b611295611766565b61129d611795565b60ca80546001600160a01b0319166001600160a01b0384161790556034805460ff60a01b19169055801561130b576000805461ff0019169055604051600181527f7f26b83ff96e1f2b6a682f133852f6798a09c465da95921460cefb38474024989060200160405180910390a15b5050565b6034546001600160a01b031633146113395760405162461bcd60e51b81526004016104bb90611e38565b6001600160a01b03166000908152603360205260409020805460ff19166001179055565b3360009081526033602052604090205460ff16806113845750603454600160a01b900460ff165b6113c25760405162461bcd60e51b815260206004820152600f60248201526e139bdd081dda1a5d195b1a5cdd1959608a1b60448201526064016104bb565b60ca546001600160a01b0316639944f518336040516001600160e01b031960e084901b1681526001600160a01b03909116600482015260240160206040518083038186803b15801561141357600080fd5b505afa158015611427573d6000803e3d6000fd5b505050506040513d601f19601f8201168201806040525081019061144b9190611e8d565b6114865760405162461bcd60e51b815260206004820152600c60248201526b12d650c81c995c5d5a5c995960a21b60448201526064016104bb565b600081815260cb602090815260408083203384529091529020546114ec5760405162461bcd60e51b815260206004820152601860248201527f4e6f206d6f72652070656e64696e672062616c616e636573000000000000000060448201526064016104bb565b600081815260cb6020908152604080832033845282528083205460ca548251627eeac760e11b81523060048201526024810187905292519194936001600160a01b039091169262fdd58e9260448083019392829003018186803b15801561155257600080fd5b505afa158015611566573d6000803e3d6000fd5b505050506040513d601f19601f8201168201806040525081019061158a9190611da0565b9050818110156115e75760405162461bcd60e51b815260206004820152602260248201527f5245495449504f3a206e6f7420656e6f75676820756e69747320746f20636c61604482015261696d60f01b60648201526084016104bb565b60ca54604051637921219560e11b81526060916001600160a01b03169063f242432a906116209030903390899089908890600401611db9565b600060405180830381600087803b15801561163a57600080fd5b505af115801561164e573d6000803e3d6000fd5b5050506000948552505060cb602090815260408085203386529091528320929092555050565b60006116808284611f15565b9392505050565b606680546001600160a01b038381166001600160a01b0319831681179093556040519116919082907fc7c0c772add429241571afb3805861fb3cfa2af374534088b76cdb4325a87e9a90600090a35050565b60008054610100900460ff1615611720578160ff1660011480156116fc5750303b155b6117185760405162461bcd60e51b81526004016104bb90611f2d565b506000919050565b60005460ff8084169116106117475760405162461bcd60e51b81526004016104bb90611f2d565b506000805460ff191660ff92909216919091179055600190565b919050565b600054610100900460ff1661178d5760405162461bcd60e51b81526004016104bb90611f7b565b6111646117c4565b600054610100900460ff166117bc5760405162461bcd60e51b81526004016104bb90611f7b565b6111646117f4565b600054610100900460ff166117eb5760405162461bcd60e51b81526004016104bb90611f7b565b61116433611687565b600054610100900460ff1661181b5760405162461bcd60e51b81526004016104bb90611f7b565b603480546001600160a01b03191633179055565b60006020828403121561184157600080fd5b81356001600160e01b03198116811461168057600080fd5b60006020828403121561186b57600080fd5b5035919050565b80356001600160a01b038116811461176157600080fd5b634e487b7160e01b600052604160045260246000fd5b604051601f8201601f1916810167ffffffffffffffff811182821017156118c8576118c8611889565b604052919050565b600082601f8301126118e157600080fd5b813567ffffffffffffffff8111156118fb576118fb611889565b61190e601f8201601f191660200161189f565b81815284602083860101111561192357600080fd5b816020850160208301376000918101602001919091529392505050565b6000806000806080858703121561195657600080fd5b61195f85611872565b935061196d60208601611872565b925060408501359150606085013567ffffffffffffffff81111561199057600080fd5b61199c878288016118d0565b91505092959194509250565b6000602082840312156119ba57600080fd5b61168082611872565b60008083601f8401126119d557600080fd5b50813567ffffffffffffffff8111156119ed57600080fd5b602083019150836020828501011115611a0557600080fd5b9250929050565b600080600060408486031215611a2157600080fd5b833567ffffffffffffffff811115611a3857600080fd5b611a44868287016119c3565b9094509250611a57905060208501611872565b90509250925092565b60008060008060608587031215611a7657600080fd5b843567ffffffffffffffff811115611a8d57600080fd5b611a99878288016119c3565b90989097506020870135966040013595509350505050565b60008060208385031215611ac457600080fd5b823567ffffffffffffffff80821115611adc57600080fd5b818501915085601f830112611af057600080fd5b813581811115611aff57600080fd5b8660208260051b8501011115611b1457600080fd5b60209290920196919550909350505050565b60008060208385031215611b3957600080fd5b823567ffffffffffffffff811115611b5057600080fd5b611b5c858286016119c3565b90969095509350505050565b600082601f830112611b7957600080fd5b8135602067ffffffffffffffff821115611b9557611b95611889565b8160051b611ba482820161189f565b9283528481018201928281019087851115611bbe57600080fd5b83870192505b84831015611bdd57823582529183019190830190611bc4565b979650505050505050565b600080600080600060a08688031215611c0057600080fd5b611c0986611872565b9450611c1760208701611872565b9350604086013567ffffffffffffffff80821115611c3457600080fd5b611c4089838a01611b68565b94506060880135915080821115611c5657600080fd5b611c6289838a01611b68565b93506080880135915080821115611c7857600080fd5b50611c85888289016118d0565b9150509295509295909350565b60008060408385031215611ca557600080fd5b82359150611cb560208401611872565b90509250929050565b600080600080600060a08688031215611cd657600080fd5b611cdf86611872565b9450611ced60208701611872565b93506040860135925060608601359150608086013567ffffffffffffffff811115611d1757600080fd5b611c85888289016118d0565b6020808252601f908201527f5265656e7472616e637947756172643a207265656e7472616e742063616c6c00604082015260600190565b60208082526026908201527f476f7665726e61626c653a2063616c6c6572206973206e6f742074686520676f6040820152653b32b93737b960d11b606082015260800190565b600060208284031215611db257600080fd5b5051919050565b600060018060a01b03808816835260208188168185015286604085015285606085015260a06080850152845191508160a085015260005b82811015611e0c5785810182015185820160c001528101611df0565b82811115611e1e57600060c084870101525b5050601f01601f19169190910160c0019695505050505050565b60208082526025908201527f57686974656c697374696e673a2063616c6c6572206973206e6f74207468652060408201526430b236b4b760d91b606082015260800190565b8183823760009101908152919050565b600060208284031215611e9f57600080fd5b8151801515811461168057600080fd5b634e487b7160e01b600052601160045260246000fd5b6000816000190483118215151615611edf57611edf611eaf565b500290565b634e487b7160e01b600052603260045260246000fd5b6000600019821415611f0e57611f0e611eaf565b5060010190565b60008219821115611f2857611f28611eaf565b500190565b6020808252602e908201527f496e697469616c697a61626c653a20636f6e747261637420697320616c72656160408201526d191e481a5b9a5d1a585b1a5e995960921b606082015260800190565b6020808252602b908201527f496e697469616c697a61626c653a20636f6e7472616374206973206e6f74206960408201526a6e697469616c697a696e6760a81b60608201526080019056fea264697066735822122062d0c3f156994598d38969595700e53a799a6f6a56dccb86acf72743a0a3b5c164736f6c63430008090033",
  "linkReferences": {},
  "deployedLinkReferences": {}
}