{
  "_format": "hh-sol-artifact-1",
  "contractName": "REITIPO",
  "sourceName": "contracts/REITIPO.sol",
  "abi": [
    {
      "anonymous": false,
      "inputs": [
        {
          "indexed": true,
          "internalType": "address",
          "name": "previousGovernor",
          "type": "address"
        },
        {
          "indexed": true,
          "internalType": "address",
          "name": "newGovernor",
          "type": "address"
        }
      ],
      "name": "GovernorshipTransferred",
      "type": "event"
    },
    {
      "anonymous": false,
      "inputs": [
        {
          "indexed": false,
          "internalType": "uint8",
          "name": "version",
          "type": "uint8"
        }
      ],
      "name": "Initialized",
      "type": "event"
    },
    {
      "stateMutability": "payable",
      "type": "fallback"
    },
    {
      "inputs": [
        {
          "internalType": "string",
          "name": "name",
          "type": "string"
        },
        {
          "internalType": "address",
          "name": "token",
          "type": "address"
        }
      ],
      "name": "allowPayableToken",
      "outputs": [],
      "stateMutability": "nonpayable",
      "type": "function"
    },
    {
      "inputs": [
        {
          "internalType": "uint256",
          "name": "id",
          "type": "uint256"
        }
      ],
      "name": "claimPendingBalances",
      "outputs": [],
      "stateMutability": "nonpayable",
      "type": "function"
    },
    {
      "inputs": [],
      "name": "getNFTContract",
      "outputs": [
        {
          "internalType": "address",
          "name": "",
          "type": "address"
        }
      ],
      "stateMutability": "view",
      "type": "function"
    },
    {
      "inputs": [
        {
          "internalType": "address",
          "name": "account",
          "type": "address"
        },
        {
          "internalType": "uint256",
          "name": "id",
          "type": "uint256"
        }
      ],
      "name": "getPendingBalances",
      "outputs": [
        {
          "internalType": "uint256",
          "name": "",
          "type": "uint256"
        }
      ],
      "stateMutability": "view",
      "type": "function"
    },
    {
      "inputs": [],
      "name": "governor",
      "outputs": [
        {
          "internalType": "address",
          "name": "",
          "type": "address"
        }
      ],
      "stateMutability": "view",
      "type": "function"
    },
    {
      "inputs": [
        {
          "internalType": "address",
          "name": "_nftAddress",
          "type": "address"
        }
      ],
      "name": "initialize",
      "outputs": [],
      "stateMutability": "nonpayable",
      "type": "function"
    },
    {
      "inputs": [
        {
          "internalType": "address",
          "name": "",
          "type": "address"
        },
        {
          "internalType": "address",
          "name": "",
          "type": "address"
        },
        {
          "internalType": "uint256[]",
          "name": "",
          "type": "uint256[]"
        },
        {
          "internalType": "uint256[]",
          "name": "",
          "type": "uint256[]"
        },
        {
          "internalType": "bytes",
          "name": "",
          "type": "bytes"
        }
      ],
      "name": "onERC1155BatchReceived",
      "outputs": [
        {
          "internalType": "bytes4",
          "name": "",
          "type": "bytes4"
        }
      ],
      "stateMutability": "nonpayable",
      "type": "function"
    },
    {
      "inputs": [
        {
          "internalType": "address",
          "name": "",
          "type": "address"
        },
        {
          "internalType": "address",
          "name": "",
          "type": "address"
        },
        {
          "internalType": "uint256",
          "name": "",
          "type": "uint256"
        },
        {
          "internalType": "uint256",
          "name": "",
          "type": "uint256"
        },
        {
          "internalType": "bytes",
          "name": "",
          "type": "bytes"
        }
      ],
      "name": "onERC1155Received",
      "outputs": [
        {
          "internalType": "bytes4",
          "name": "",
          "type": "bytes4"
        }
      ],
      "stateMutability": "nonpayable",
      "type": "function"
    },
    {
      "inputs": [
        {
          "internalType": "address",
          "name": "",
          "type": "address"
        },
        {
          "internalType": "address",
          "name": "",
          "type": "address"
        },
        {
          "internalType": "uint256",
          "name": "",
          "type": "uint256"
        },
        {
          "internalType": "bytes",
          "name": "",
          "type": "bytes"
        }
      ],
      "name": "onERC721Received",
      "outputs": [
        {
          "internalType": "bytes4",
          "name": "",
          "type": "bytes4"
        }
      ],
      "stateMutability": "nonpayable",
      "type": "function"
    },
    {
      "inputs": [
        {
          "internalType": "string",
          "name": "token",
          "type": "string"
        },
        {
          "internalType": "uint256",
          "name": "id",
          "type": "uint256"
        },
        {
          "internalType": "uint256",
          "name": "quantity",
          "type": "uint256"
        }
      ],
      "name": "purchaseWithToken",
      "outputs": [],
      "stateMutability": "nonpayable",
      "type": "function"
    },
    {
      "inputs": [],
      "name": "renounceGovernorship",
      "outputs": [],
      "stateMutability": "nonpayable",
      "type": "function"
    },
    {
      "inputs": [
        {
          "internalType": "bytes4",
          "name": "interfaceId",
          "type": "bytes4"
        }
      ],
      "name": "supportsInterface",
      "outputs": [
        {
          "internalType": "bool",
          "name": "",
          "type": "bool"
        }
      ],
      "stateMutability": "pure",
      "type": "function"
    },
    {
      "inputs": [
        {
          "internalType": "address",
          "name": "newGovernor",
          "type": "address"
        }
      ],
      "name": "transferGovernorship",
      "outputs": [],
      "stateMutability": "nonpayable",
      "type": "function"
    },
    {
      "inputs": [],
      "name": "withdrawFunds",
      "outputs": [],
      "stateMutability": "nonpayable",
      "type": "function"
    },
    {
      "inputs": [
        {
          "internalType": "uint256",
          "name": "id",
          "type": "uint256"
        }
      ],
      "name": "withdrawNFT",
      "outputs": [],
      "stateMutability": "nonpayable",
      "type": "function"
    },
    {
      "inputs": [
        {
          "internalType": "string",
          "name": "name",
          "type": "string"
        }
      ],
      "name": "withdrawPayableToken",
      "outputs": [],
      "stateMutability": "nonpayable",
      "type": "function"
    },
    {
      "stateMutability": "payable",
      "type": "receive"
    }
  ],
  "bytecode": "0x608060405234801561001057600080fd5b50611972806100206000396000f3fe6080604052600436106100eb5760003560e01c8063671ad41111610084578063c4d66de811610056578063c4d66de8146102c4578063d3e91916146102e4578063f23a6e6114610334578063f96726671461036057005b8063671ad4111461024357806381c0c26314610263578063b6aa515b14610278578063bc197c811461029857005b806324600fc3116100bd57806324600fc3146101d05780632b1f4ad6146101e55780633239423914610203578063367c44371461022357005b806301ffc9a7146100f4578063023245d71461013a5780630c340a241461015a578063150b7a021461018c57005b366100f257005b005b34801561010057600080fd5b5061012561010f366004611292565b6001600160e01b031916630271189760e51b1490565b60405190151581526020015b60405180910390f35b34801561014657600080fd5b506100f26101553660046112bc565b610380565b34801561016657600080fd5b506033546001600160a01b03165b6040516001600160a01b039091168152602001610131565b34801561019857600080fd5b506101b76101a73660046113a3565b630a85bd0160e11b949350505050565b6040516001600160e01b03199091168152602001610131565b3480156101dc57600080fd5b506100f26104e5565b3480156101f157600080fd5b506097546001600160a01b0316610174565b34801561020f57600080fd5b506100f261021e366004611454565b6105d6565b34801561022f57600080fd5b506100f261023e3660046114a8565b610647565b34801561024f57600080fd5b506100f261025e3660046114f9565b610b2c565b34801561026f57600080fd5b506100f2610cca565b34801561028457600080fd5b506100f261029336600461153b565b610d00565b3480156102a457600080fd5b506101b76102b33660046115d6565b63bc197c8160e01b95945050505050565b3480156102d057600080fd5b506100f26102df36600461153b565b610da1565b3480156102f057600080fd5b506103266102ff366004611680565b60009081526098602090815260408083206001600160a01b03949094168352929052205490565b604051908152602001610131565b34801561034057600080fd5b506101b761034f3660046116aa565b63f23a6e6160e01b95945050505050565b34801561036c57600080fd5b506100f261037b3660046112bc565b610e94565b600260655414156103ac5760405162461bcd60e51b81526004016103a39061170f565b60405180910390fd5b60026065556033546001600160a01b031633146103db5760405162461bcd60e51b81526004016103a390611746565b609754604051627eeac760e11b8152306004820152602481018390526000916001600160a01b03169062fdd58e9060440160206040518083038186803b15801561042457600080fd5b505afa158015610438573d6000803e3d6000fd5b505050506040513d601f19601f8201168201806040525081019061045c919061178c565b6097549091506060906001600160a01b031663f242432a306104866033546001600160a01b031690565b8686866040518663ffffffff1660e01b81526004016104a99594939291906117a5565b600060405180830381600087803b1580156104c357600080fd5b505af11580156104d7573d6000803e3d6000fd5b505060016065555050505050565b600260655414156105085760405162461bcd60e51b81526004016103a39061170f565b60026065556033546001600160a01b031633146105375760405162461bcd60e51b81526004016103a390611746565b600047116105955760405162461bcd60e51b815260206004820152602560248201527f524549542049504f3a20436f6e747261637427732062616c616e636520697320604482015264656d70747960d81b60648201526084016103a3565b6033546040516001600160a01b03909116904780156108fc02916000818181858888f193505050501580156105ce573d6000803e3d6000fd5b506001606555565b6033546001600160a01b031633146106005760405162461bcd60e51b81526004016103a390611746565b8060998484604051610613929190611824565b90815260405190819003602001902080546001600160a01b03929092166001600160a01b0319909216919091179055505050565b60975460405163d98d9eaf60e01b8152600481018490523060248201526001600160a01b039091169063d98d9eaf9060440160206040518083038186803b15801561069157600080fd5b505afa1580156106a5573d6000803e3d6000fd5b505050506040513d601f19601f820116820180604052508101906106c99190611834565b6107295760405162461bcd60e51b815260206004820152602b60248201527f5245495449504f3a204d7573742073657420746869732061732052454954204960448201526a1413c818dbdb9d1c9858dd60aa1b60648201526084016103a3565b609754604051627eeac760e11b8152306004820152602481018490526000916001600160a01b03169062fdd58e9060440160206040518083038186803b15801561077257600080fd5b505afa158015610786573d6000803e3d6000fd5b505050506040513d601f19601f820116820180604052508101906107aa919061178c565b9050818110156108065760405162461bcd60e51b815260206004820152602160248201527f5245495449504f3a206e6f7420656e6f75676820756e69747320746f2073656c6044820152601b60fa1b60648201526084016103a3565b6097546040516368a1407760e01b8152600481018590526000916001600160a01b0316906368a140779060240160206040518083038186803b15801561084b57600080fd5b505afa15801561085f573d6000803e3d6000fd5b505050506040513d601f19601f82011682018060405250810190610883919061178c565b9050600081116108ce5760405162461bcd60e51b815260206004820152601660248201527514915255125413ce881c1c9a58d9481b9bdd081cd95d60521b60448201526064016103a3565b60006108da848361186c565b9050609987876040516108ee929190611824565b908152604051908190036020019020546001600160a01b03166323b872dd6109133390565b6040516001600160e01b031960e084901b1681526001600160a01b03909116600482015230602482015260448101849052606401602060405180830381600087803b15801561096157600080fd5b505af1158015610975573d6000803e3d6000fd5b505050506040513d601f19601f820116820180604052508101906109999190611834565b6109e55760405162461bcd60e51b815260206004820181905260248201527f5245495449504f3a206e6f7420656e6f7567682066756e647320746f2062757960448201526064016103a3565b6097546001600160a01b0316639944f518336040516001600160e01b031960e084901b1681526001600160a01b03909116600482015260240160206040518083038186803b158015610a3657600080fd5b505afa158015610a4a573d6000803e3d6000fd5b505050506040513d601f19601f82011682018060405250810190610a6e9190611834565b15610ae457609754604051637921219560e11b81526060916001600160a01b03169063f242432a90610aac90309033908b908b9088906004016117a5565b600060405180830381600087803b158015610ac657600080fd5b505af1158015610ada573d6000803e3d6000fd5b5050505050610b23565b6000858152609860209081526040808320338452909152902054610b089085611146565b60008681526098602090815260408083203384529091529020555b50505050505050565b60026065541415610b4f5760405162461bcd60e51b81526004016103a39061170f565b60026065556033546001600160a01b03163314610b7e5760405162461bcd60e51b81526004016103a390611746565b600060998383604051610b92929190611824565b908152604051908190036020018120546370a0823160e01b82523060048301526001600160a01b0316915060009082906370a082319060240160206040518083038186803b158015610be357600080fd5b505afa158015610bf7573d6000803e3d6000fd5b505050506040513d601f19601f82011682018060405250810190610c1b919061178c565b9050816001600160a01b031663a9059cbb610c3e6033546001600160a01b031690565b6040516001600160e01b031960e084901b1681526001600160a01b03909116600482015260248101849052604401602060405180830381600087803b158015610c8657600080fd5b505af1158015610c9a573d6000803e3d6000fd5b505050506040513d601f19601f82011682018060405250810190610cbe9190611834565b50506001606555505050565b6033546001600160a01b03163314610cf45760405162461bcd60e51b81526004016103a390611746565b610cfe6000611159565b565b6033546001600160a01b03163314610d2a5760405162461bcd60e51b81526004016103a390611746565b6001600160a01b038116610d955760405162461bcd60e51b815260206004820152602c60248201527f476f7665726e61626c653a206e657720676f7665726e6f72206973207468652060448201526b7a65726f206164647265737360a01b60648201526084016103a3565b610d9e81611159565b50565b6000610dad60016111ab565b90508015610dc5576000805461ff0019166101001790555b6001600160a01b038216610e275760405162461bcd60e51b815260206004820152602360248201527f4e465420636f6e74726163742063616e6e6f74206265207a65726f206164647260448201526265737360e81b60648201526084016103a3565b610e2f611238565b609780546001600160a01b0319166001600160a01b0384161790558015610e90576000805461ff0019169055604051600181527f7f26b83ff96e1f2b6a682f133852f6798a09c465da95921460cefb38474024989060200160405180910390a15b5050565b6097546001600160a01b0316639944f518336040516001600160e01b031960e084901b1681526001600160a01b03909116600482015260240160206040518083038186803b158015610ee557600080fd5b505afa158015610ef9573d6000803e3d6000fd5b505050506040513d601f19601f82011682018060405250810190610f1d9190611834565b610f585760405162461bcd60e51b815260206004820152600c60248201526b12d650c81c995c5d5a5c995960a21b60448201526064016103a3565b6000818152609860209081526040808320338452909152902054610fbe5760405162461bcd60e51b815260206004820152601860248201527f4e6f206d6f72652070656e64696e672062616c616e636573000000000000000060448201526064016103a3565b60008181526098602090815260408083203384528252808320546097548251627eeac760e11b81523060048201526024810187905292519194936001600160a01b039091169262fdd58e9260448083019392829003018186803b15801561102457600080fd5b505afa158015611038573d6000803e3d6000fd5b505050506040513d601f19601f8201168201806040525081019061105c919061178c565b9050818110156110b95760405162461bcd60e51b815260206004820152602260248201527f5245495449504f3a206e6f7420656e6f75676820756e69747320746f20636c61604482015261696d60f01b60648201526084016103a3565b609754604051637921219560e11b81526060916001600160a01b03169063f242432a906110f290309033908990899088906004016117a5565b600060405180830381600087803b15801561110c57600080fd5b505af1158015611120573d6000803e3d6000fd5b505050600094855250506098602090815260408085203386529091528320929092555050565b6000611152828461188b565b9392505050565b603380546001600160a01b038381166001600160a01b0319831681179093556040519116919082907fc7c0c772add429241571afb3805861fb3cfa2af374534088b76cdb4325a87e9a90600090a35050565b60008054610100900460ff16156111f2578160ff1660011480156111ce5750303b155b6111ea5760405162461bcd60e51b81526004016103a3906118a3565b506000919050565b60005460ff8084169116106112195760405162461bcd60e51b81526004016103a3906118a3565b506000805460ff191660ff92909216919091179055600190565b919050565b600054610100900460ff1661125f5760405162461bcd60e51b81526004016103a3906118f1565b610cfe600054610100900460ff166112895760405162461bcd60e51b81526004016103a3906118f1565b610cfe33611159565b6000602082840312156112a457600080fd5b81356001600160e01b03198116811461115257600080fd5b6000602082840312156112ce57600080fd5b5035919050565b80356001600160a01b038116811461123357600080fd5b634e487b7160e01b600052604160045260246000fd5b604051601f8201601f1916810167ffffffffffffffff8111828210171561132b5761132b6112ec565b604052919050565b600082601f83011261134457600080fd5b813567ffffffffffffffff81111561135e5761135e6112ec565b611371601f8201601f1916602001611302565b81815284602083860101111561138657600080fd5b816020850160208301376000918101602001919091529392505050565b600080600080608085870312156113b957600080fd5b6113c2856112d5565b93506113d0602086016112d5565b925060408501359150606085013567ffffffffffffffff8111156113f357600080fd5b6113ff87828801611333565b91505092959194509250565b60008083601f84011261141d57600080fd5b50813567ffffffffffffffff81111561143557600080fd5b60208301915083602082850101111561144d57600080fd5b9250929050565b60008060006040848603121561146957600080fd5b833567ffffffffffffffff81111561148057600080fd5b61148c8682870161140b565b909450925061149f9050602085016112d5565b90509250925092565b600080600080606085870312156114be57600080fd5b843567ffffffffffffffff8111156114d557600080fd5b6114e18782880161140b565b90989097506020870135966040013595509350505050565b6000806020838503121561150c57600080fd5b823567ffffffffffffffff81111561152357600080fd5b61152f8582860161140b565b90969095509350505050565b60006020828403121561154d57600080fd5b611152826112d5565b600082601f83011261156757600080fd5b8135602067ffffffffffffffff821115611583576115836112ec565b8160051b611592828201611302565b92835284810182019282810190878511156115ac57600080fd5b83870192505b848310156115cb578235825291830191908301906115b2565b979650505050505050565b600080600080600060a086880312156115ee57600080fd5b6115f7866112d5565b9450611605602087016112d5565b9350604086013567ffffffffffffffff8082111561162257600080fd5b61162e89838a01611556565b9450606088013591508082111561164457600080fd5b61165089838a01611556565b9350608088013591508082111561166657600080fd5b5061167388828901611333565b9150509295509295909350565b6000806040838503121561169357600080fd5b61169c836112d5565b946020939093013593505050565b600080600080600060a086880312156116c257600080fd5b6116cb866112d5565b94506116d9602087016112d5565b93506040860135925060608601359150608086013567ffffffffffffffff81111561170357600080fd5b61167388828901611333565b6020808252601f908201527f5265656e7472616e637947756172643a207265656e7472616e742063616c6c00604082015260600190565b60208082526026908201527f476f7665726e61626c653a2063616c6c6572206973206e6f742074686520676f6040820152653b32b93737b960d11b606082015260800190565b60006020828403121561179e57600080fd5b5051919050565b600060018060a01b03808816835260208188168185015286604085015285606085015260a06080850152845191508160a085015260005b828110156117f85785810182015185820160c0015281016117dc565b8281111561180a57600060c084870101525b5050601f01601f19169190910160c0019695505050505050565b8183823760009101908152919050565b60006020828403121561184657600080fd5b8151801515811461115257600080fd5b634e487b7160e01b600052601160045260246000fd5b600081600019048311821515161561188657611886611856565b500290565b6000821982111561189e5761189e611856565b500190565b6020808252602e908201527f496e697469616c697a61626c653a20636f6e747261637420697320616c72656160408201526d191e481a5b9a5d1a585b1a5e995960921b606082015260800190565b6020808252602b908201527f496e697469616c697a61626c653a20636f6e7472616374206973206e6f74206960408201526a6e697469616c697a696e6760a81b60608201526080019056fea2646970667358221220cebe9600fdd14b4a8c6fa52f1e22d0cbb86b71cdfce849d906e80682b23502da64736f6c63430008090033",
  "linkReferences": {},
  "deployedLinkReferences": {}
}