{
  "_format": "hh-sol-artifact-1",
  "contractName": "REITIPO",
  "sourceName": "contracts/REITIPO.sol",
  "abi": [
    {
      "anonymous": false,
      "inputs": [
        {
          "indexed": false,
          "internalType": "uint8",
          "name": "version",
          "type": "uint8"
        }
      ],
      "name": "Initialized",
      "type": "event"
    },
    {
      "anonymous": false,
      "inputs": [
        {
          "indexed": true,
          "internalType": "address",
          "name": "previousOwner",
          "type": "address"
        },
        {
          "indexed": true,
          "internalType": "address",
          "name": "newOwner",
          "type": "address"
        }
      ],
      "name": "OwnershipTransferred",
      "type": "event"
    },
    {
      "stateMutability": "payable",
      "type": "fallback"
    },
    {
      "inputs": [
        {
          "internalType": "address[]",
          "name": "accounts",
          "type": "address[]"
        }
      ],
      "name": "addManyToWhitelisted",
      "outputs": [],
      "stateMutability": "nonpayable",
      "type": "function"
    },
    {
      "inputs": [
        {
          "internalType": "address",
          "name": "account",
          "type": "address"
        }
      ],
      "name": "addToWhitelisted",
      "outputs": [],
      "stateMutability": "nonpayable",
      "type": "function"
    },
    {
      "inputs": [
        {
          "internalType": "string",
          "name": "name",
          "type": "string"
        },
        {
          "internalType": "address",
          "name": "token",
          "type": "address"
        }
      ],
      "name": "allowPayableToken",
      "outputs": [],
      "stateMutability": "nonpayable",
      "type": "function"
    },
    {
      "inputs": [],
      "name": "getNFT",
      "outputs": [
        {
          "internalType": "address",
          "name": "",
          "type": "address"
        }
      ],
      "stateMutability": "view",
      "type": "function"
    },
    {
      "inputs": [
        {
          "internalType": "address",
          "name": "_nftAddress",
          "type": "address"
        },
        {
          "internalType": "uint256",
          "name": "id",
          "type": "uint256"
        }
      ],
      "name": "initialize",
      "outputs": [],
      "stateMutability": "nonpayable",
      "type": "function"
    },
    {
      "inputs": [
        {
          "internalType": "address",
          "name": "account",
          "type": "address"
        }
      ],
      "name": "isWhitelisted",
      "outputs": [
        {
          "internalType": "bool",
          "name": "",
          "type": "bool"
        }
      ],
      "stateMutability": "view",
      "type": "function"
    },
    {
      "inputs": [
        {
          "internalType": "address",
          "name": "",
          "type": "address"
        },
        {
          "internalType": "address",
          "name": "",
          "type": "address"
        },
        {
          "internalType": "uint256[]",
          "name": "",
          "type": "uint256[]"
        },
        {
          "internalType": "uint256[]",
          "name": "",
          "type": "uint256[]"
        },
        {
          "internalType": "bytes",
          "name": "",
          "type": "bytes"
        }
      ],
      "name": "onERC1155BatchReceived",
      "outputs": [
        {
          "internalType": "bytes4",
          "name": "",
          "type": "bytes4"
        }
      ],
      "stateMutability": "nonpayable",
      "type": "function"
    },
    {
      "inputs": [
        {
          "internalType": "address",
          "name": "",
          "type": "address"
        },
        {
          "internalType": "address",
          "name": "",
          "type": "address"
        },
        {
          "internalType": "uint256",
          "name": "",
          "type": "uint256"
        },
        {
          "internalType": "uint256",
          "name": "",
          "type": "uint256"
        },
        {
          "internalType": "bytes",
          "name": "",
          "type": "bytes"
        }
      ],
      "name": "onERC1155Received",
      "outputs": [
        {
          "internalType": "bytes4",
          "name": "",
          "type": "bytes4"
        }
      ],
      "stateMutability": "nonpayable",
      "type": "function"
    },
    {
      "inputs": [
        {
          "internalType": "address",
          "name": "",
          "type": "address"
        },
        {
          "internalType": "address",
          "name": "",
          "type": "address"
        },
        {
          "internalType": "uint256",
          "name": "",
          "type": "uint256"
        },
        {
          "internalType": "bytes",
          "name": "",
          "type": "bytes"
        }
      ],
      "name": "onERC721Received",
      "outputs": [
        {
          "internalType": "bytes4",
          "name": "",
          "type": "bytes4"
        }
      ],
      "stateMutability": "nonpayable",
      "type": "function"
    },
    {
      "inputs": [],
      "name": "owner",
      "outputs": [
        {
          "internalType": "address",
          "name": "",
          "type": "address"
        }
      ],
      "stateMutability": "view",
      "type": "function"
    },
    {
      "inputs": [
        {
          "internalType": "string",
          "name": "token",
          "type": "string"
        },
        {
          "internalType": "uint256",
          "name": "quantity",
          "type": "uint256"
        }
      ],
      "name": "purchaseWithToken",
      "outputs": [],
      "stateMutability": "nonpayable",
      "type": "function"
    },
    {
      "inputs": [
        {
          "internalType": "address[]",
          "name": "accounts",
          "type": "address[]"
        }
      ],
      "name": "removeManyWhitelisted",
      "outputs": [],
      "stateMutability": "nonpayable",
      "type": "function"
    },
    {
      "inputs": [
        {
          "internalType": "address",
          "name": "account",
          "type": "address"
        }
      ],
      "name": "removeWhitelisted",
      "outputs": [],
      "stateMutability": "nonpayable",
      "type": "function"
    },
    {
      "inputs": [],
      "name": "renounceOwnership",
      "outputs": [],
      "stateMutability": "nonpayable",
      "type": "function"
    },
    {
      "inputs": [
        {
          "internalType": "bytes4",
          "name": "interfaceId",
          "type": "bytes4"
        }
      ],
      "name": "supportsInterface",
      "outputs": [
        {
          "internalType": "bool",
          "name": "",
          "type": "bool"
        }
      ],
      "stateMutability": "pure",
      "type": "function"
    },
    {
      "inputs": [
        {
          "internalType": "address",
          "name": "newOwner",
          "type": "address"
        }
      ],
      "name": "transferOwnership",
      "outputs": [],
      "stateMutability": "nonpayable",
      "type": "function"
    },
    {
      "inputs": [],
      "name": "withdrawFunds",
      "outputs": [],
      "stateMutability": "nonpayable",
      "type": "function"
    },
    {
      "inputs": [],
      "name": "withdrawNFT",
      "outputs": [],
      "stateMutability": "nonpayable",
      "type": "function"
    },
    {
      "inputs": [
        {
          "internalType": "string",
          "name": "name",
          "type": "string"
        }
      ],
      "name": "withdrawPayableToken",
      "outputs": [],
      "stateMutability": "nonpayable",
      "type": "function"
    },
    {
      "stateMutability": "payable",
      "type": "receive"
    }
  ],
  "bytecode": "0x608060405234801561001057600080fd5b5061173b806100206000396000f3fe60806040526004361061010c5760003560e01c8063671ad4111161009a578063bc197c8111610061578063bc197c811461030e578063cd6dc6871461033a578063e46c15071461035a578063f23a6e611461037a578063f2fde38b146103a657005b8063671ad41114610269578063715018a614610289578063764d80291461029e57806388a6360e146102be5780638da5cb5b146102f057005b806332394239116100de57806332394239146101d45780633af32abf146101f45780634536cab614610214578063509661fc146102345780635e38c9541461025457005b806301ffc9a714610115578063150b7a021461015b57806324600fc31461019f578063291d9549146101b457005b3661011357005b005b34801561012157600080fd5b50610146610130366004611074565b6001600160e01b031916630271189760e51b1490565b60405190151581526020015b60405180910390f35b34801561016757600080fd5b50610186610176366004611173565b630a85bd0160e11b949350505050565b6040516001600160e01b03199091168152602001610152565b3480156101ab57600080fd5b506101136103c6565b3480156101c057600080fd5b506101136101cf3660046111db565b6104c0565b3480156101e057600080fd5b506101136101ef36600461123f565b61050b565b34801561020057600080fd5b5061014661020f3660046111db565b61057c565b34801561022057600080fd5b5061011361022f366004611293565b6105b0565b34801561024057600080fd5b5061011361024f366004611308565b610651565b34801561026057600080fd5b506101136109cc565b34801561027557600080fd5b50610113610284366004611354565b610b45565b34801561029557600080fd5b50610113610cd7565b3480156102aa57600080fd5b506101136102b9366004611293565b610d0d565b3480156102ca57600080fd5b506098546001600160a01b03165b6040516001600160a01b039091168152602001610152565b3480156102fc57600080fd5b506033546001600160a01b03166102d8565b34801561031a57600080fd5b50610186610329366004611416565b63bc197c8160e01b95945050505050565b34801561034657600080fd5b506101136103553660046114c0565b610da9565b34801561036657600080fd5b506101136103753660046111db565b610e52565b34801561038657600080fd5b506101866103953660046114ea565b63f23a6e6160e01b95945050505050565b3480156103b257600080fd5b506101136103c13660046111db565b610ea0565b600260665414156103f25760405162461bcd60e51b81526004016103e99061154f565b60405180910390fd5b60026066556033546001600160a01b031633146104215760405162461bcd60e51b81526004016103e990611586565b6000471161047f5760405162461bcd60e51b815260206004820152602560248201527f524549542049504f3a20436f6e747261637427732062616c616e636520697320604482015264656d70747960d81b60648201526084016103e9565b6033546040516001600160a01b03909116904780156108fc02916000818181858888f193505050501580156104b8573d6000803e3d6000fd5b506001606655565b6033546001600160a01b031633146104ea5760405162461bcd60e51b81526004016103e990611586565b6001600160a01b03166000908152606560205260409020805460ff19169055565b6033546001600160a01b031633146105355760405162461bcd60e51b81526004016103e990611586565b80609a84846040516105489291906115bb565b90815260405190819003602001902080546001600160a01b03929092166001600160a01b0319909216919091179055505050565b60006001600160a01b03821661059157600080fd5b506001600160a01b031660009081526065602052604090205460ff1690565b6033546001600160a01b031633146105da5760405162461bcd60e51b81526004016103e990611586565b60005b8181101561064c576001606560008585858181106105fd576105fd6115cb565b905060200201602081019061061291906111db565b6001600160a01b031681526020810191909152604001600020805460ff191691151591909117905580610644816115f7565b9150506105dd565b505050565b3360009081526065602052604090205460ff166106a25760405162461bcd60e51b815260206004820152600f60248201526e139bdd081dda1a5d195b1a5cdd1959608a1b60448201526064016103e9565b6098546099546040516360b3708760e11b815230600482015260248101919091526000916001600160a01b03169063c166e10e9060440160206040518083038186803b1580156106f157600080fd5b505afa158015610705573d6000803e3d6000fd5b505050506040513d601f19601f820116820180604052508101906107299190611612565b9050818110156107855760405162461bcd60e51b815260206004820152602160248201527f5245495449504f3a206e6f7420656e6f75676820756e69747320746f2073656c6044820152601b60fa1b60648201526084016103e9565b6098546099546040516368a1407760e01b815260048101919091526000916001600160a01b0316906368a140779060240160206040518083038186803b1580156107ce57600080fd5b505afa1580156107e2573d6000803e3d6000fd5b505050506040513d601f19601f820116820180604052508101906108069190611612565b9050600081116108515760405162461bcd60e51b815260206004820152601660248201527514915255125413ce881c1c9a58d9481b9bdd081cd95d60521b60448201526064016103e9565b600061085d848361162b565b9050609a86866040516108719291906115bb565b908152604051908190036020018120546323b872dd60e01b8252336004830152306024830152604482018390526001600160a01b0316906323b872dd90606401602060405180830381600087803b1580156108cb57600080fd5b505af11580156108df573d6000803e3d6000fd5b505050506040513d601f19601f82011682018060405250810190610903919061164a565b61094f5760405162461bcd60e51b815260206004820181905260248201527f5245495449504f3a206e6f7420656e6f7567682066756e647320746f2062757960448201526064016103e9565b609854609954604051637be6202960e11b81523060048201523360248201526044810191909152606481018690526001600160a01b039091169063f7cc405290608401600060405180830381600087803b1580156109ac57600080fd5b505af11580156109c0573d6000803e3d6000fd5b50505050505050505050565b600260665414156109ef5760405162461bcd60e51b81526004016103e99061154f565b60026066556033546001600160a01b03163314610a1e5760405162461bcd60e51b81526004016103e990611586565b6098546099546040516360b3708760e11b815230600482015260248101919091526000916001600160a01b03169063c166e10e9060440160206040518083038186803b158015610a6d57600080fd5b505afa158015610a81573d6000803e3d6000fd5b505050506040513d601f19601f82011682018060405250810190610aa59190611612565b6098549091506001600160a01b031663f7cc405230610acc6033546001600160a01b031690565b6099546040516001600160e01b031960e086901b1681526001600160a01b039384166004820152929091166024830152604482015260648101849052608401600060405180830381600087803b158015610b2557600080fd5b505af1158015610b39573d6000803e3d6000fd5b50506001606655505050565b60026066541415610b685760405162461bcd60e51b81526004016103e99061154f565b60026066556033546001600160a01b03163314610b975760405162461bcd60e51b81526004016103e990611586565b6000609a8383604051610bab9291906115bb565b908152604051908190036020018120546370a0823160e01b82523060048301526001600160a01b0316915060009082906370a082319060240160206040518083038186803b158015610bfc57600080fd5b505afa158015610c10573d6000803e3d6000fd5b505050506040513d601f19601f82011682018060405250810190610c349190611612565b9050816001600160a01b031663a9059cbb610c576033546001600160a01b031690565b6040516001600160e01b031960e084901b1681526001600160a01b03909116600482015260248101849052604401602060405180830381600087803b158015610c9f57600080fd5b505af1158015610cb3573d6000803e3d6000fd5b505050506040513d601f19601f82011682018060405250810190610b39919061164a565b6033546001600160a01b03163314610d015760405162461bcd60e51b81526004016103e990611586565b610d0b6000610f3b565b565b6033546001600160a01b03163314610d375760405162461bcd60e51b81526004016103e990611586565b60005b8181101561064c57600060656000858585818110610d5a57610d5a6115cb565b9050602002016020810190610d6f91906111db565b6001600160a01b031681526020810191909152604001600020805460ff191691151591909117905580610da1816115f7565b915050610d3a565b6000610db56001610f8d565b90508015610dcd576000805461ff0019166101001790555b6001600160a01b038316610de057600080fd5b610de861101a565b609880546001600160a01b0319166001600160a01b0385161790556099829055801561064c576000805461ff0019169055604051600181527f7f26b83ff96e1f2b6a682f133852f6798a09c465da95921460cefb38474024989060200160405180910390a1505050565b6033546001600160a01b03163314610e7c5760405162461bcd60e51b81526004016103e990611586565b6001600160a01b03166000908152606560205260409020805460ff19166001179055565b6033546001600160a01b03163314610eca5760405162461bcd60e51b81526004016103e990611586565b6001600160a01b038116610f2f5760405162461bcd60e51b815260206004820152602660248201527f4f776e61626c653a206e6577206f776e657220697320746865207a65726f206160448201526564647265737360d01b60648201526084016103e9565b610f3881610f3b565b50565b603380546001600160a01b038381166001600160a01b0319831681179093556040519116919082907f8be0079c531659141344cd1fd0a4f28419497f9722a3daafe3b4186f6b6457e090600090a35050565b60008054610100900460ff1615610fd4578160ff166001148015610fb05750303b155b610fcc5760405162461bcd60e51b81526004016103e99061166c565b506000919050565b60005460ff808416911610610ffb5760405162461bcd60e51b81526004016103e99061166c565b506000805460ff191660ff92909216919091179055600190565b919050565b600054610100900460ff166110415760405162461bcd60e51b81526004016103e9906116ba565b610d0b600054610100900460ff1661106b5760405162461bcd60e51b81526004016103e9906116ba565b610d0b33610f3b565b60006020828403121561108657600080fd5b81356001600160e01b03198116811461109e57600080fd5b9392505050565b80356001600160a01b038116811461101557600080fd5b634e487b7160e01b600052604160045260246000fd5b604051601f8201601f1916810167ffffffffffffffff811182821017156110fb576110fb6110bc565b604052919050565b600082601f83011261111457600080fd5b813567ffffffffffffffff81111561112e5761112e6110bc565b611141601f8201601f19166020016110d2565b81815284602083860101111561115657600080fd5b816020850160208301376000918101602001919091529392505050565b6000806000806080858703121561118957600080fd5b611192856110a5565b93506111a0602086016110a5565b925060408501359150606085013567ffffffffffffffff8111156111c357600080fd5b6111cf87828801611103565b91505092959194509250565b6000602082840312156111ed57600080fd5b61109e826110a5565b60008083601f84011261120857600080fd5b50813567ffffffffffffffff81111561122057600080fd5b60208301915083602082850101111561123857600080fd5b9250929050565b60008060006040848603121561125457600080fd5b833567ffffffffffffffff81111561126b57600080fd5b611277868287016111f6565b909450925061128a9050602085016110a5565b90509250925092565b600080602083850312156112a657600080fd5b823567ffffffffffffffff808211156112be57600080fd5b818501915085601f8301126112d257600080fd5b8135818111156112e157600080fd5b8660208260051b85010111156112f657600080fd5b60209290920196919550909350505050565b60008060006040848603121561131d57600080fd5b833567ffffffffffffffff81111561133457600080fd5b611340868287016111f6565b909790965060209590950135949350505050565b6000806020838503121561136757600080fd5b823567ffffffffffffffff81111561137e57600080fd5b61138a858286016111f6565b90969095509350505050565b600082601f8301126113a757600080fd5b8135602067ffffffffffffffff8211156113c3576113c36110bc565b8160051b6113d28282016110d2565b92835284810182019282810190878511156113ec57600080fd5b83870192505b8483101561140b578235825291830191908301906113f2565b979650505050505050565b600080600080600060a0868803121561142e57600080fd5b611437866110a5565b9450611445602087016110a5565b9350604086013567ffffffffffffffff8082111561146257600080fd5b61146e89838a01611396565b9450606088013591508082111561148457600080fd5b61149089838a01611396565b935060808801359150808211156114a657600080fd5b506114b388828901611103565b9150509295509295909350565b600080604083850312156114d357600080fd5b6114dc836110a5565b946020939093013593505050565b600080600080600060a0868803121561150257600080fd5b61150b866110a5565b9450611519602087016110a5565b93506040860135925060608601359150608086013567ffffffffffffffff81111561154357600080fd5b6114b388828901611103565b6020808252601f908201527f5265656e7472616e637947756172643a207265656e7472616e742063616c6c00604082015260600190565b6020808252818101527f4f776e61626c653a2063616c6c6572206973206e6f7420746865206f776e6572604082015260600190565b8183823760009101908152919050565b634e487b7160e01b600052603260045260246000fd5b634e487b7160e01b600052601160045260246000fd5b600060001982141561160b5761160b6115e1565b5060010190565b60006020828403121561162457600080fd5b5051919050565b6000816000190483118215151615611645576116456115e1565b500290565b60006020828403121561165c57600080fd5b8151801515811461109e57600080fd5b6020808252602e908201527f496e697469616c697a61626c653a20636f6e747261637420697320616c72656160408201526d191e481a5b9a5d1a585b1a5e995960921b606082015260800190565b6020808252602b908201527f496e697469616c697a61626c653a20636f6e7472616374206973206e6f74206960408201526a6e697469616c697a696e6760a81b60608201526080019056fea2646970667358221220c1d986553f2c073d6f753c64c92bdc3224117622defc54f3d1720cbb0774228f64736f6c63430008090033",
  "linkReferences": {},
  "deployedLinkReferences": {}
}