{
  "_format": "hh-sol-artifact-1",
  "contractName": "REITIPO",
  "sourceName": "contracts/REITIPO.sol",
  "abi": [
    {
      "anonymous": false,
      "inputs": [
        {
          "indexed": false,
          "internalType": "uint8",
          "name": "version",
          "type": "uint8"
        }
      ],
      "name": "Initialized",
      "type": "event"
    },
    {
      "anonymous": false,
      "inputs": [
        {
          "indexed": true,
          "internalType": "address",
          "name": "previousOwner",
          "type": "address"
        },
        {
          "indexed": true,
          "internalType": "address",
          "name": "newOwner",
          "type": "address"
        }
      ],
      "name": "OwnershipTransferred",
      "type": "event"
    },
    {
      "stateMutability": "payable",
      "type": "fallback"
    },
    {
      "inputs": [
        {
          "internalType": "address[]",
          "name": "accounts",
          "type": "address[]"
        }
      ],
      "name": "addManyToWhitelisted",
      "outputs": [],
      "stateMutability": "nonpayable",
      "type": "function"
    },
    {
      "inputs": [
        {
          "internalType": "address",
          "name": "account",
          "type": "address"
        }
      ],
      "name": "addToWhitelisted",
      "outputs": [],
      "stateMutability": "nonpayable",
      "type": "function"
    },
    {
      "inputs": [
        {
          "internalType": "string",
          "name": "name",
          "type": "string"
        },
        {
          "internalType": "address",
          "name": "token",
          "type": "address"
        }
      ],
      "name": "allowPayableToken",
      "outputs": [],
      "stateMutability": "nonpayable",
      "type": "function"
    },
    {
      "inputs": [],
      "name": "freeWhiteList",
      "outputs": [],
      "stateMutability": "nonpayable",
      "type": "function"
    },
    {
      "inputs": [],
      "name": "getNFT",
      "outputs": [
        {
          "internalType": "address",
          "name": "",
          "type": "address"
        }
      ],
      "stateMutability": "view",
      "type": "function"
    },
    {
      "inputs": [
        {
          "internalType": "address",
          "name": "_nftAddress",
          "type": "address"
        },
        {
          "internalType": "uint256",
          "name": "id",
          "type": "uint256"
        }
      ],
      "name": "initialize",
      "outputs": [],
      "stateMutability": "nonpayable",
      "type": "function"
    },
    {
      "inputs": [
        {
          "internalType": "address",
          "name": "account",
          "type": "address"
        }
      ],
      "name": "isWhitelisted",
      "outputs": [
        {
          "internalType": "bool",
          "name": "",
          "type": "bool"
        }
      ],
      "stateMutability": "view",
      "type": "function"
    },
    {
      "inputs": [
        {
          "internalType": "address",
          "name": "",
          "type": "address"
        },
        {
          "internalType": "address",
          "name": "",
          "type": "address"
        },
        {
          "internalType": "uint256[]",
          "name": "",
          "type": "uint256[]"
        },
        {
          "internalType": "uint256[]",
          "name": "",
          "type": "uint256[]"
        },
        {
          "internalType": "bytes",
          "name": "",
          "type": "bytes"
        }
      ],
      "name": "onERC1155BatchReceived",
      "outputs": [
        {
          "internalType": "bytes4",
          "name": "",
          "type": "bytes4"
        }
      ],
      "stateMutability": "nonpayable",
      "type": "function"
    },
    {
      "inputs": [
        {
          "internalType": "address",
          "name": "",
          "type": "address"
        },
        {
          "internalType": "address",
          "name": "",
          "type": "address"
        },
        {
          "internalType": "uint256",
          "name": "",
          "type": "uint256"
        },
        {
          "internalType": "uint256",
          "name": "",
          "type": "uint256"
        },
        {
          "internalType": "bytes",
          "name": "",
          "type": "bytes"
        }
      ],
      "name": "onERC1155Received",
      "outputs": [
        {
          "internalType": "bytes4",
          "name": "",
          "type": "bytes4"
        }
      ],
      "stateMutability": "nonpayable",
      "type": "function"
    },
    {
      "inputs": [
        {
          "internalType": "address",
          "name": "",
          "type": "address"
        },
        {
          "internalType": "address",
          "name": "",
          "type": "address"
        },
        {
          "internalType": "uint256",
          "name": "",
          "type": "uint256"
        },
        {
          "internalType": "bytes",
          "name": "",
          "type": "bytes"
        }
      ],
      "name": "onERC721Received",
      "outputs": [
        {
          "internalType": "bytes4",
          "name": "",
          "type": "bytes4"
        }
      ],
      "stateMutability": "nonpayable",
      "type": "function"
    },
    {
      "inputs": [],
      "name": "owner",
      "outputs": [
        {
          "internalType": "address",
          "name": "",
          "type": "address"
        }
      ],
      "stateMutability": "view",
      "type": "function"
    },
    {
      "inputs": [
        {
          "internalType": "string",
          "name": "token",
          "type": "string"
        },
        {
          "internalType": "uint256",
          "name": "quantity",
          "type": "uint256"
        }
      ],
      "name": "purchaseWithToken",
      "outputs": [],
      "stateMutability": "nonpayable",
      "type": "function"
    },
    {
      "inputs": [
        {
          "internalType": "address[]",
          "name": "accounts",
          "type": "address[]"
        }
      ],
      "name": "removeManyWhitelisted",
      "outputs": [],
      "stateMutability": "nonpayable",
      "type": "function"
    },
    {
      "inputs": [
        {
          "internalType": "address",
          "name": "account",
          "type": "address"
        }
      ],
      "name": "removeWhitelisted",
      "outputs": [],
      "stateMutability": "nonpayable",
      "type": "function"
    },
    {
      "inputs": [],
      "name": "renounceOwnership",
      "outputs": [],
      "stateMutability": "nonpayable",
      "type": "function"
    },
    {
      "inputs": [],
      "name": "resumeWhiteList",
      "outputs": [],
      "stateMutability": "nonpayable",
      "type": "function"
    },
    {
      "inputs": [
        {
          "internalType": "bytes4",
          "name": "interfaceId",
          "type": "bytes4"
        }
      ],
      "name": "supportsInterface",
      "outputs": [
        {
          "internalType": "bool",
          "name": "",
          "type": "bool"
        }
      ],
      "stateMutability": "pure",
      "type": "function"
    },
    {
      "inputs": [
        {
          "internalType": "address",
          "name": "newOwner",
          "type": "address"
        }
      ],
      "name": "transferOwnership",
      "outputs": [],
      "stateMutability": "nonpayable",
      "type": "function"
    },
    {
      "inputs": [],
      "name": "withdrawFunds",
      "outputs": [],
      "stateMutability": "nonpayable",
      "type": "function"
    },
    {
      "inputs": [],
      "name": "withdrawNFT",
      "outputs": [],
      "stateMutability": "nonpayable",
      "type": "function"
    },
    {
      "inputs": [
        {
          "internalType": "string",
          "name": "name",
          "type": "string"
        }
      ],
      "name": "withdrawPayableToken",
      "outputs": [],
      "stateMutability": "nonpayable",
      "type": "function"
    },
    {
      "stateMutability": "payable",
      "type": "receive"
    }
  ],
  "bytecode": "0x608060405234801561001057600080fd5b50611a6e806100206000396000f3fe6080604052600436106101225760003560e01c8063671ad411116100a55780638da5cb5b1161006c5780638da5cb5b14610330578063bc197c811461034e578063cd6dc6871461037a578063e46c15071461039a578063f23a6e61146103ba578063f2fde38b146103e657005b8063671ad411146102945780636c6426ad146102b4578063715018a6146102c9578063764d8029146102de57806388a6360e146102fe57005b806332394239116100e957806332394239146101ff5780633af32abf1461021f5780634536cab61461023f578063509661fc1461025f5780635e38c9541461027f57005b806301ffc9a71461012b57806308c92f5014610171578063150b7a021461018657806324600fc3146101ca578063291d9549146101df57005b3661012957005b005b34801561013757600080fd5b5061015c6101463660046112e3565b6001600160e01b031916630271189760e51b1490565b60405190151581526020015b60405180910390f35b34801561017d57600080fd5b50610129610406565b34801561019257600080fd5b506101b16101a13660046113e2565b630a85bd0160e11b949350505050565b6040516001600160e01b03199091168152602001610168565b3480156101d657600080fd5b506101296104a8565b3480156101eb57600080fd5b506101296101fa36600461144a565b610599565b34801561020b57600080fd5b5061012961021a3660046114ae565b6105e4565b34801561022b57600080fd5b5061015c61023a36600461144a565b610655565b34801561024b57600080fd5b5061012961025a366004611502565b610689565b34801561026b57600080fd5b5061012961027a366004611577565b61072a565b34801561028b57600080fd5b50610129610b31565b3480156102a057600080fd5b506101296102af3660046115c3565b610c92565b3480156102c057600080fd5b50610129610e30565b3480156102d557600080fd5b50610129610ec2565b3480156102ea57600080fd5b506101296102f9366004611502565b610ef8565b34801561030a57600080fd5b506099546001600160a01b03165b6040516001600160a01b039091168152602001610168565b34801561033c57600080fd5b506035546001600160a01b0316610318565b34801561035a57600080fd5b506101b1610369366004611685565b63bc197c8160e01b95945050505050565b34801561038657600080fd5b5061012961039536600461172f565b610f94565b3480156103a657600080fd5b506101296103b536600461144a565b611052565b3480156103c657600080fd5b506101b16103d5366004611759565b63f23a6e6160e01b95945050505050565b3480156103f257600080fd5b5061012961040136600461144a565b6110a0565b6034546001600160a01b031633146104395760405162461bcd60e51b8152600401610430906117be565b60405180910390fd5b603454600160a01b900460ff16156104935760405162461bcd60e51b815260206004820152601c60248201527f57686974656c697374696e6720616c726561647920726573756d6564000000006044820152606401610430565b6034805460ff60a01b1916600160a01b179055565b600260675414156104cb5760405162461bcd60e51b815260040161043090611803565b60026067556035546001600160a01b031633146104fa5760405162461bcd60e51b81526004016104309061183a565b600047116105585760405162461bcd60e51b815260206004820152602560248201527f524549542049504f3a20436f6e747261637427732062616c616e636520697320604482015264656d70747960d81b6064820152608401610430565b6035546040516001600160a01b03909116904780156108fc02916000818181858888f19350505050158015610591573d6000803e3d6000fd5b506001606755565b6034546001600160a01b031633146105c35760405162461bcd60e51b8152600401610430906117be565b6001600160a01b03166000908152603360205260409020805460ff19169055565b6035546001600160a01b0316331461060e5760405162461bcd60e51b81526004016104309061183a565b80609b848460405161062192919061186f565b90815260405190819003602001902080546001600160a01b03929092166001600160a01b0319909216919091179055505050565b60006001600160a01b03821661066a57600080fd5b506001600160a01b031660009081526033602052604090205460ff1690565b6034546001600160a01b031633146106b35760405162461bcd60e51b8152600401610430906117be565b60005b81811015610725576001603360008585858181106106d6576106d661187f565b90506020020160208101906106eb919061144a565b6001600160a01b031681526020810191909152604001600020805460ff19169115159190911790558061071d816118ab565b9150506106b6565b505050565b3360009081526033602052604090205460ff16806107515750603454600160a01b900460ff165b61078f5760405162461bcd60e51b815260206004820152600f60248201526e139bdd081dda1a5d195b1a5cdd1959608a1b6044820152606401610430565b609954609a54604051627eeac760e11b815230600482015260248101919091526000916001600160a01b03169062fdd58e9060440160206040518083038186803b1580156107dc57600080fd5b505afa1580156107f0573d6000803e3d6000fd5b505050506040513d601f19601f8201168201806040525081019061081491906118c6565b9050818110156108705760405162461bcd60e51b815260206004820152602160248201527f5245495449504f3a206e6f7420656e6f75676820756e69747320746f2073656c6044820152601b60fa1b6064820152608401610430565b609954609a546040516368a1407760e01b815260048101919091526000916001600160a01b0316906368a140779060240160206040518083038186803b1580156108b957600080fd5b505afa1580156108cd573d6000803e3d6000fd5b505050506040513d601f19601f820116820180604052508101906108f191906118c6565b90506000811161093c5760405162461bcd60e51b815260206004820152601660248201527514915255125413ce881c1c9a58d9481b9bdd081cd95d60521b6044820152606401610430565b600061094884836118df565b9050609b868660405161095c92919061186f565b908152604051908190036020018120546323b872dd60e01b8252336004830152306024830152604482018390526001600160a01b0316906323b872dd90606401602060405180830381600087803b1580156109b657600080fd5b505af11580156109ca573d6000803e3d6000fd5b505050506040513d601f19601f820116820180604052508101906109ee91906118fe565b610a3a5760405162461bcd60e51b815260206004820181905260248201527f5245495449504f3a206e6f7420656e6f7567682066756e647320746f206275796044820152606401610430565b6099546040516313289ea360e31b81523360048201526001600160a01b0390911690639944f5189060240160206040518083038186803b158015610a7d57600080fd5b505afa158015610a91573d6000803e3d6000fd5b505050506040513d601f19601f82011682018060405250810190610ab591906118fe565b15610b2957609954609a54604051637921219560e11b81526060926001600160a01b03169163f242432a91610af59130913391908b908890600401611920565b600060405180830381600087803b158015610b0f57600080fd5b505af1158015610b23573d6000803e3d6000fd5b50505050505b505050505050565b60026067541415610b545760405162461bcd60e51b815260040161043090611803565b60026067556035546001600160a01b03163314610b835760405162461bcd60e51b81526004016104309061183a565b609954609a54604051627eeac760e11b815230600482015260248101919091526000916001600160a01b03169062fdd58e9060440160206040518083038186803b158015610bd057600080fd5b505afa158015610be4573d6000803e3d6000fd5b505050506040513d601f19601f82011682018060405250810190610c0891906118c6565b6099549091506060906001600160a01b031663f242432a30610c326035546001600160a01b031690565b609a5486866040518663ffffffff1660e01b8152600401610c57959493929190611920565b600060405180830381600087803b158015610c7157600080fd5b505af1158015610c85573d6000803e3d6000fd5b5050600160675550505050565b60026067541415610cb55760405162461bcd60e51b815260040161043090611803565b60026067556035546001600160a01b03163314610ce45760405162461bcd60e51b81526004016104309061183a565b6000609b8383604051610cf892919061186f565b908152604051908190036020018120546370a0823160e01b82523060048301526001600160a01b0316915060009082906370a082319060240160206040518083038186803b158015610d4957600080fd5b505afa158015610d5d573d6000803e3d6000fd5b505050506040513d601f19601f82011682018060405250810190610d8191906118c6565b9050816001600160a01b031663a9059cbb610da46035546001600160a01b031690565b6040516001600160e01b031960e084901b1681526001600160a01b03909116600482015260248101849052604401602060405180830381600087803b158015610dec57600080fd5b505af1158015610e00573d6000803e3d6000fd5b505050506040513d601f19601f82011682018060405250810190610e2491906118fe565b50506001606755505050565b6034546001600160a01b03163314610e5a5760405162461bcd60e51b8152600401610430906117be565b603454600160a01b900460ff16610eb35760405162461bcd60e51b815260206004820152601b60248201527f57686974656c697374696e6720616c72656164792070617573656400000000006044820152606401610430565b6034805460ff60a01b19169055565b6035546001600160a01b03163314610eec5760405162461bcd60e51b81526004016104309061183a565b610ef6600061113b565b565b6034546001600160a01b03163314610f225760405162461bcd60e51b8152600401610430906117be565b60005b8181101561072557600060336000858585818110610f4557610f4561187f565b9050602002016020810190610f5a919061144a565b6001600160a01b031681526020810191909152604001600020805460ff191691151591909117905580610f8c816118ab565b915050610f25565b6000610fa0600161118d565b90508015610fb8576000805461ff0019166101001790555b6001600160a01b038316610fcb57600080fd5b610fd361121a565b610fdb611249565b609980546001600160a01b0319166001600160a01b038516179055609a8290556034805460ff60a01b191690558015610725576000805461ff0019169055604051600181527f7f26b83ff96e1f2b6a682f133852f6798a09c465da95921460cefb38474024989060200160405180910390a1505050565b6034546001600160a01b0316331461107c5760405162461bcd60e51b8152600401610430906117be565b6001600160a01b03166000908152603360205260409020805460ff19166001179055565b6035546001600160a01b031633146110ca5760405162461bcd60e51b81526004016104309061183a565b6001600160a01b03811661112f5760405162461bcd60e51b815260206004820152602660248201527f4f776e61626c653a206e6577206f776e657220697320746865207a65726f206160448201526564647265737360d01b6064820152608401610430565b6111388161113b565b50565b603580546001600160a01b038381166001600160a01b0319831681179093556040519116919082907f8be0079c531659141344cd1fd0a4f28419497f9722a3daafe3b4186f6b6457e090600090a35050565b60008054610100900460ff16156111d4578160ff1660011480156111b05750303b155b6111cc5760405162461bcd60e51b81526004016104309061199f565b506000919050565b60005460ff8084169116106111fb5760405162461bcd60e51b81526004016104309061199f565b506000805460ff191660ff92909216919091179055600190565b919050565b600054610100900460ff166112415760405162461bcd60e51b8152600401610430906119ed565b610ef6611278565b600054610100900460ff166112705760405162461bcd60e51b8152600401610430906119ed565b610ef66112a8565b600054610100900460ff1661129f5760405162461bcd60e51b8152600401610430906119ed565b610ef63361113b565b600054610100900460ff166112cf5760405162461bcd60e51b8152600401610430906119ed565b603480546001600160a01b03191633179055565b6000602082840312156112f557600080fd5b81356001600160e01b03198116811461130d57600080fd5b9392505050565b80356001600160a01b038116811461121557600080fd5b634e487b7160e01b600052604160045260246000fd5b604051601f8201601f1916810167ffffffffffffffff8111828210171561136a5761136a61132b565b604052919050565b600082601f83011261138357600080fd5b813567ffffffffffffffff81111561139d5761139d61132b565b6113b0601f8201601f1916602001611341565b8181528460208386010111156113c557600080fd5b816020850160208301376000918101602001919091529392505050565b600080600080608085870312156113f857600080fd5b61140185611314565b935061140f60208601611314565b925060408501359150606085013567ffffffffffffffff81111561143257600080fd5b61143e87828801611372565b91505092959194509250565b60006020828403121561145c57600080fd5b61130d82611314565b60008083601f84011261147757600080fd5b50813567ffffffffffffffff81111561148f57600080fd5b6020830191508360208285010111156114a757600080fd5b9250929050565b6000806000604084860312156114c357600080fd5b833567ffffffffffffffff8111156114da57600080fd5b6114e686828701611465565b90945092506114f9905060208501611314565b90509250925092565b6000806020838503121561151557600080fd5b823567ffffffffffffffff8082111561152d57600080fd5b818501915085601f83011261154157600080fd5b81358181111561155057600080fd5b8660208260051b850101111561156557600080fd5b60209290920196919550909350505050565b60008060006040848603121561158c57600080fd5b833567ffffffffffffffff8111156115a357600080fd5b6115af86828701611465565b909790965060209590950135949350505050565b600080602083850312156115d657600080fd5b823567ffffffffffffffff8111156115ed57600080fd5b6115f985828601611465565b90969095509350505050565b600082601f83011261161657600080fd5b8135602067ffffffffffffffff8211156116325761163261132b565b8160051b611641828201611341565b928352848101820192828101908785111561165b57600080fd5b83870192505b8483101561167a57823582529183019190830190611661565b979650505050505050565b600080600080600060a0868803121561169d57600080fd5b6116a686611314565b94506116b460208701611314565b9350604086013567ffffffffffffffff808211156116d157600080fd5b6116dd89838a01611605565b945060608801359150808211156116f357600080fd5b6116ff89838a01611605565b9350608088013591508082111561171557600080fd5b5061172288828901611372565b9150509295509295909350565b6000806040838503121561174257600080fd5b61174b83611314565b946020939093013593505050565b600080600080600060a0868803121561177157600080fd5b61177a86611314565b945061178860208701611314565b93506040860135925060608601359150608086013567ffffffffffffffff8111156117b257600080fd5b61172288828901611372565b60208082526025908201527f57686974656c697374696e673a2063616c6c6572206973206e6f74207468652060408201526430b236b4b760d91b606082015260800190565b6020808252601f908201527f5265656e7472616e637947756172643a207265656e7472616e742063616c6c00604082015260600190565b6020808252818101527f4f776e61626c653a2063616c6c6572206973206e6f7420746865206f776e6572604082015260600190565b8183823760009101908152919050565b634e487b7160e01b600052603260045260246000fd5b634e487b7160e01b600052601160045260246000fd5b60006000198214156118bf576118bf611895565b5060010190565b6000602082840312156118d857600080fd5b5051919050565b60008160001904831182151516156118f9576118f9611895565b500290565b60006020828403121561191057600080fd5b8151801515811461130d57600080fd5b600060018060a01b03808816835260208188168185015286604085015285606085015260a06080850152845191508160a085015260005b828110156119735785810182015185820160c001528101611957565b8281111561198557600060c084870101525b5050601f01601f19169190910160c0019695505050505050565b6020808252602e908201527f496e697469616c697a61626c653a20636f6e747261637420697320616c72656160408201526d191e481a5b9a5d1a585b1a5e995960921b606082015260800190565b6020808252602b908201527f496e697469616c697a61626c653a20636f6e7472616374206973206e6f74206960408201526a6e697469616c697a696e6760a81b60608201526080019056fea26469706673582212202560ef86a91054b0400a97c8b05d2907e73ae9b61d1c88dcf0051bb66e2d47e764736f6c63430008090033",
  "linkReferences": {},
  "deployedLinkReferences": {}
}