{
  "_format": "hh-sol-artifact-1",
  "contractName": "REITIPO",
  "sourceName": "contracts/REITIPO.sol",
  "abi": [
    {
      "anonymous": false,
      "inputs": [
        {
          "indexed": false,
          "internalType": "uint8",
          "name": "version",
          "type": "uint8"
        }
      ],
      "name": "Initialized",
      "type": "event"
    },
    {
      "anonymous": false,
      "inputs": [
        {
          "indexed": true,
          "internalType": "address",
          "name": "previousOwner",
          "type": "address"
        },
        {
          "indexed": true,
          "internalType": "address",
          "name": "newOwner",
          "type": "address"
        }
      ],
      "name": "OwnershipTransferred",
      "type": "event"
    },
    {
      "stateMutability": "payable",
      "type": "fallback"
    },
    {
      "inputs": [
        {
          "internalType": "address[]",
          "name": "accounts",
          "type": "address[]"
        }
      ],
      "name": "addManyToWhitelisted",
      "outputs": [],
      "stateMutability": "nonpayable",
      "type": "function"
    },
    {
      "inputs": [
        {
          "internalType": "address",
          "name": "account",
          "type": "address"
        }
      ],
      "name": "addToWhitelisted",
      "outputs": [],
      "stateMutability": "nonpayable",
      "type": "function"
    },
    {
      "inputs": [
        {
          "internalType": "string",
          "name": "name",
          "type": "string"
        },
        {
          "internalType": "address",
          "name": "token",
          "type": "address"
        }
      ],
      "name": "allowPayableToken",
      "outputs": [],
      "stateMutability": "nonpayable",
      "type": "function"
    },
    {
      "inputs": [],
      "name": "freeWhiteList",
      "outputs": [],
      "stateMutability": "nonpayable",
      "type": "function"
    },
    {
      "inputs": [],
      "name": "getNFT",
      "outputs": [
        {
          "internalType": "address",
          "name": "",
          "type": "address"
        }
      ],
      "stateMutability": "view",
      "type": "function"
    },
    {
      "inputs": [
        {
          "internalType": "address",
          "name": "_nftAddress",
          "type": "address"
        },
        {
          "internalType": "uint256",
          "name": "id",
          "type": "uint256"
        }
      ],
      "name": "initialize",
      "outputs": [],
      "stateMutability": "nonpayable",
      "type": "function"
    },
    {
      "inputs": [
        {
          "internalType": "address",
          "name": "account",
          "type": "address"
        }
      ],
      "name": "isWhitelisted",
      "outputs": [
        {
          "internalType": "bool",
          "name": "",
          "type": "bool"
        }
      ],
      "stateMutability": "view",
      "type": "function"
    },
    {
      "inputs": [
        {
          "internalType": "address",
          "name": "",
          "type": "address"
        },
        {
          "internalType": "address",
          "name": "",
          "type": "address"
        },
        {
          "internalType": "uint256[]",
          "name": "",
          "type": "uint256[]"
        },
        {
          "internalType": "uint256[]",
          "name": "",
          "type": "uint256[]"
        },
        {
          "internalType": "bytes",
          "name": "",
          "type": "bytes"
        }
      ],
      "name": "onERC1155BatchReceived",
      "outputs": [
        {
          "internalType": "bytes4",
          "name": "",
          "type": "bytes4"
        }
      ],
      "stateMutability": "nonpayable",
      "type": "function"
    },
    {
      "inputs": [
        {
          "internalType": "address",
          "name": "",
          "type": "address"
        },
        {
          "internalType": "address",
          "name": "",
          "type": "address"
        },
        {
          "internalType": "uint256",
          "name": "",
          "type": "uint256"
        },
        {
          "internalType": "uint256",
          "name": "",
          "type": "uint256"
        },
        {
          "internalType": "bytes",
          "name": "",
          "type": "bytes"
        }
      ],
      "name": "onERC1155Received",
      "outputs": [
        {
          "internalType": "bytes4",
          "name": "",
          "type": "bytes4"
        }
      ],
      "stateMutability": "nonpayable",
      "type": "function"
    },
    {
      "inputs": [
        {
          "internalType": "address",
          "name": "",
          "type": "address"
        },
        {
          "internalType": "address",
          "name": "",
          "type": "address"
        },
        {
          "internalType": "uint256",
          "name": "",
          "type": "uint256"
        },
        {
          "internalType": "bytes",
          "name": "",
          "type": "bytes"
        }
      ],
      "name": "onERC721Received",
      "outputs": [
        {
          "internalType": "bytes4",
          "name": "",
          "type": "bytes4"
        }
      ],
      "stateMutability": "nonpayable",
      "type": "function"
    },
    {
      "inputs": [],
      "name": "owner",
      "outputs": [
        {
          "internalType": "address",
          "name": "",
          "type": "address"
        }
      ],
      "stateMutability": "view",
      "type": "function"
    },
    {
      "inputs": [
        {
          "internalType": "string",
          "name": "token",
          "type": "string"
        },
        {
          "internalType": "uint256",
          "name": "quantity",
          "type": "uint256"
        }
      ],
      "name": "purchaseWithToken",
      "outputs": [],
      "stateMutability": "nonpayable",
      "type": "function"
    },
    {
      "inputs": [
        {
          "internalType": "address[]",
          "name": "accounts",
          "type": "address[]"
        }
      ],
      "name": "removeManyWhitelisted",
      "outputs": [],
      "stateMutability": "nonpayable",
      "type": "function"
    },
    {
      "inputs": [
        {
          "internalType": "address",
          "name": "account",
          "type": "address"
        }
      ],
      "name": "removeWhitelisted",
      "outputs": [],
      "stateMutability": "nonpayable",
      "type": "function"
    },
    {
      "inputs": [],
      "name": "renounceOwnership",
      "outputs": [],
      "stateMutability": "nonpayable",
      "type": "function"
    },
    {
      "inputs": [],
      "name": "resumeWhiteList",
      "outputs": [],
      "stateMutability": "nonpayable",
      "type": "function"
    },
    {
      "inputs": [
        {
          "internalType": "bytes4",
          "name": "interfaceId",
          "type": "bytes4"
        }
      ],
      "name": "supportsInterface",
      "outputs": [
        {
          "internalType": "bool",
          "name": "",
          "type": "bool"
        }
      ],
      "stateMutability": "pure",
      "type": "function"
    },
    {
      "inputs": [
        {
          "internalType": "address",
          "name": "newOwner",
          "type": "address"
        }
      ],
      "name": "transferOwnership",
      "outputs": [],
      "stateMutability": "nonpayable",
      "type": "function"
    },
    {
      "inputs": [],
      "name": "withdrawFunds",
      "outputs": [],
      "stateMutability": "nonpayable",
      "type": "function"
    },
    {
      "inputs": [],
      "name": "withdrawNFT",
      "outputs": [],
      "stateMutability": "nonpayable",
      "type": "function"
    },
    {
      "inputs": [
        {
          "internalType": "string",
          "name": "name",
          "type": "string"
        }
      ],
      "name": "withdrawPayableToken",
      "outputs": [],
      "stateMutability": "nonpayable",
      "type": "function"
    },
    {
      "stateMutability": "payable",
      "type": "receive"
    }
  ],
  "bytecode": "0x608060405234801561001057600080fd5b50611983806100206000396000f3fe6080604052600436106101225760003560e01c8063671ad411116100a55780638da5cb5b1161006c5780638da5cb5b14610330578063bc197c811461034e578063cd6dc6871461037a578063e46c15071461039a578063f23a6e61146103ba578063f2fde38b146103e657005b8063671ad411146102945780636c6426ad146102b4578063715018a6146102c9578063764d8029146102de57806388a6360e146102fe57005b806332394239116100e957806332394239146101ff5780633af32abf1461021f5780634536cab61461023f578063509661fc1461025f5780635e38c9541461027f57005b806301ffc9a71461012b57806308c92f5014610171578063150b7a021461018657806324600fc3146101ca578063291d9549146101df57005b3661012957005b005b34801561013757600080fd5b5061015c610146366004611277565b6001600160e01b031916630271189760e51b1490565b60405190151581526020015b60405180910390f35b34801561017d57600080fd5b50610129610406565b34801561019257600080fd5b506101b16101a1366004611376565b630a85bd0160e11b949350505050565b6040516001600160e01b03199091168152602001610168565b3480156101d657600080fd5b506101296104a8565b3480156101eb57600080fd5b506101296101fa3660046113de565b610599565b34801561020b57600080fd5b5061012961021a366004611442565b6105e4565b34801561022b57600080fd5b5061015c61023a3660046113de565b610655565b34801561024b57600080fd5b5061012961025a366004611496565b610689565b34801561026b57600080fd5b5061012961027a36600461150b565b61072a565b34801561028b57600080fd5b50610129610ab9565b3480156102a057600080fd5b506101296102af366004611557565b610c32565b3480156102c057600080fd5b50610129610dc4565b3480156102d557600080fd5b50610129610e56565b3480156102ea57600080fd5b506101296102f9366004611496565b610e8c565b34801561030a57600080fd5b506099546001600160a01b03165b6040516001600160a01b039091168152602001610168565b34801561033c57600080fd5b506035546001600160a01b0316610318565b34801561035a57600080fd5b506101b1610369366004611619565b63bc197c8160e01b95945050505050565b34801561038657600080fd5b506101296103953660046116c3565b610f28565b3480156103a657600080fd5b506101296103b53660046113de565b610fe6565b3480156103c657600080fd5b506101b16103d53660046116ed565b63f23a6e6160e01b95945050505050565b3480156103f257600080fd5b506101296104013660046113de565b611034565b6034546001600160a01b031633146104395760405162461bcd60e51b815260040161043090611752565b60405180910390fd5b603454600160a01b900460ff16156104935760405162461bcd60e51b815260206004820152601c60248201527f57686974656c697374696e6720616c726561647920726573756d6564000000006044820152606401610430565b6034805460ff60a01b1916600160a01b179055565b600260675414156104cb5760405162461bcd60e51b815260040161043090611797565b60026067556035546001600160a01b031633146104fa5760405162461bcd60e51b8152600401610430906117ce565b600047116105585760405162461bcd60e51b815260206004820152602560248201527f524549542049504f3a20436f6e747261637427732062616c616e636520697320604482015264656d70747960d81b6064820152608401610430565b6035546040516001600160a01b03909116904780156108fc02916000818181858888f19350505050158015610591573d6000803e3d6000fd5b506001606755565b6034546001600160a01b031633146105c35760405162461bcd60e51b815260040161043090611752565b6001600160a01b03166000908152603360205260409020805460ff19169055565b6035546001600160a01b0316331461060e5760405162461bcd60e51b8152600401610430906117ce565b80609b8484604051610621929190611803565b90815260405190819003602001902080546001600160a01b03929092166001600160a01b0319909216919091179055505050565b60006001600160a01b03821661066a57600080fd5b506001600160a01b031660009081526033602052604090205460ff1690565b6034546001600160a01b031633146106b35760405162461bcd60e51b815260040161043090611752565b60005b81811015610725576001603360008585858181106106d6576106d6611813565b90506020020160208101906106eb91906113de565b6001600160a01b031681526020810191909152604001600020805460ff19169115159190911790558061071d8161183f565b9150506106b6565b505050565b3360009081526033602052604090205460ff16806107515750603454600160a01b900460ff165b61078f5760405162461bcd60e51b815260206004820152600f60248201526e139bdd081dda1a5d195b1a5cdd1959608a1b6044820152606401610430565b609954609a546040516360b3708760e11b815230600482015260248101919091526000916001600160a01b03169063c166e10e9060440160206040518083038186803b1580156107de57600080fd5b505afa1580156107f2573d6000803e3d6000fd5b505050506040513d601f19601f82011682018060405250810190610816919061185a565b9050818110156108725760405162461bcd60e51b815260206004820152602160248201527f5245495449504f3a206e6f7420656e6f75676820756e69747320746f2073656c6044820152601b60fa1b6064820152608401610430565b609954609a546040516368a1407760e01b815260048101919091526000916001600160a01b0316906368a140779060240160206040518083038186803b1580156108bb57600080fd5b505afa1580156108cf573d6000803e3d6000fd5b505050506040513d601f19601f820116820180604052508101906108f3919061185a565b90506000811161093e5760405162461bcd60e51b815260206004820152601660248201527514915255125413ce881c1c9a58d9481b9bdd081cd95d60521b6044820152606401610430565b600061094a8483611873565b9050609b868660405161095e929190611803565b908152604051908190036020018120546323b872dd60e01b8252336004830152306024830152604482018390526001600160a01b0316906323b872dd90606401602060405180830381600087803b1580156109b857600080fd5b505af11580156109cc573d6000803e3d6000fd5b505050506040513d601f19601f820116820180604052508101906109f09190611892565b610a3c5760405162461bcd60e51b815260206004820181905260248201527f5245495449504f3a206e6f7420656e6f7567682066756e647320746f206275796044820152606401610430565b609954609a54604051637be6202960e11b81523060048201523360248201526044810191909152606481018690526001600160a01b039091169063f7cc405290608401600060405180830381600087803b158015610a9957600080fd5b505af1158015610aad573d6000803e3d6000fd5b50505050505050505050565b60026067541415610adc5760405162461bcd60e51b815260040161043090611797565b60026067556035546001600160a01b03163314610b0b5760405162461bcd60e51b8152600401610430906117ce565b609954609a546040516360b3708760e11b815230600482015260248101919091526000916001600160a01b03169063c166e10e9060440160206040518083038186803b158015610b5a57600080fd5b505afa158015610b6e573d6000803e3d6000fd5b505050506040513d601f19601f82011682018060405250810190610b92919061185a565b6099549091506001600160a01b031663f7cc405230610bb96035546001600160a01b031690565b609a546040516001600160e01b031960e086901b1681526001600160a01b039384166004820152929091166024830152604482015260648101849052608401600060405180830381600087803b158015610c1257600080fd5b505af1158015610c26573d6000803e3d6000fd5b50506001606755505050565b60026067541415610c555760405162461bcd60e51b815260040161043090611797565b60026067556035546001600160a01b03163314610c845760405162461bcd60e51b8152600401610430906117ce565b6000609b8383604051610c98929190611803565b908152604051908190036020018120546370a0823160e01b82523060048301526001600160a01b0316915060009082906370a082319060240160206040518083038186803b158015610ce957600080fd5b505afa158015610cfd573d6000803e3d6000fd5b505050506040513d601f19601f82011682018060405250810190610d21919061185a565b9050816001600160a01b031663a9059cbb610d446035546001600160a01b031690565b6040516001600160e01b031960e084901b1681526001600160a01b03909116600482015260248101849052604401602060405180830381600087803b158015610d8c57600080fd5b505af1158015610da0573d6000803e3d6000fd5b505050506040513d601f19601f82011682018060405250810190610c269190611892565b6034546001600160a01b03163314610dee5760405162461bcd60e51b815260040161043090611752565b603454600160a01b900460ff16610e475760405162461bcd60e51b815260206004820152601b60248201527f57686974656c697374696e6720616c72656164792070617573656400000000006044820152606401610430565b6034805460ff60a01b19169055565b6035546001600160a01b03163314610e805760405162461bcd60e51b8152600401610430906117ce565b610e8a60006110cf565b565b6034546001600160a01b03163314610eb65760405162461bcd60e51b815260040161043090611752565b60005b8181101561072557600060336000858585818110610ed957610ed9611813565b9050602002016020810190610eee91906113de565b6001600160a01b031681526020810191909152604001600020805460ff191691151591909117905580610f208161183f565b915050610eb9565b6000610f346001611121565b90508015610f4c576000805461ff0019166101001790555b6001600160a01b038316610f5f57600080fd5b610f676111ae565b610f6f6111dd565b609980546001600160a01b0319166001600160a01b038516179055609a8290556034805460ff60a01b191690558015610725576000805461ff0019169055604051600181527f7f26b83ff96e1f2b6a682f133852f6798a09c465da95921460cefb38474024989060200160405180910390a1505050565b6034546001600160a01b031633146110105760405162461bcd60e51b815260040161043090611752565b6001600160a01b03166000908152603360205260409020805460ff19166001179055565b6035546001600160a01b0316331461105e5760405162461bcd60e51b8152600401610430906117ce565b6001600160a01b0381166110c35760405162461bcd60e51b815260206004820152602660248201527f4f776e61626c653a206e6577206f776e657220697320746865207a65726f206160448201526564647265737360d01b6064820152608401610430565b6110cc816110cf565b50565b603580546001600160a01b038381166001600160a01b0319831681179093556040519116919082907f8be0079c531659141344cd1fd0a4f28419497f9722a3daafe3b4186f6b6457e090600090a35050565b60008054610100900460ff1615611168578160ff1660011480156111445750303b155b6111605760405162461bcd60e51b8152600401610430906118b4565b506000919050565b60005460ff80841691161061118f5760405162461bcd60e51b8152600401610430906118b4565b506000805460ff191660ff92909216919091179055600190565b919050565b600054610100900460ff166111d55760405162461bcd60e51b815260040161043090611902565b610e8a61120c565b600054610100900460ff166112045760405162461bcd60e51b815260040161043090611902565b610e8a61123c565b600054610100900460ff166112335760405162461bcd60e51b815260040161043090611902565b610e8a336110cf565b600054610100900460ff166112635760405162461bcd60e51b815260040161043090611902565b603480546001600160a01b03191633179055565b60006020828403121561128957600080fd5b81356001600160e01b0319811681146112a157600080fd5b9392505050565b80356001600160a01b03811681146111a957600080fd5b634e487b7160e01b600052604160045260246000fd5b604051601f8201601f1916810167ffffffffffffffff811182821017156112fe576112fe6112bf565b604052919050565b600082601f83011261131757600080fd5b813567ffffffffffffffff811115611331576113316112bf565b611344601f8201601f19166020016112d5565b81815284602083860101111561135957600080fd5b816020850160208301376000918101602001919091529392505050565b6000806000806080858703121561138c57600080fd5b611395856112a8565b93506113a3602086016112a8565b925060408501359150606085013567ffffffffffffffff8111156113c657600080fd5b6113d287828801611306565b91505092959194509250565b6000602082840312156113f057600080fd5b6112a1826112a8565b60008083601f84011261140b57600080fd5b50813567ffffffffffffffff81111561142357600080fd5b60208301915083602082850101111561143b57600080fd5b9250929050565b60008060006040848603121561145757600080fd5b833567ffffffffffffffff81111561146e57600080fd5b61147a868287016113f9565b909450925061148d9050602085016112a8565b90509250925092565b600080602083850312156114a957600080fd5b823567ffffffffffffffff808211156114c157600080fd5b818501915085601f8301126114d557600080fd5b8135818111156114e457600080fd5b8660208260051b85010111156114f957600080fd5b60209290920196919550909350505050565b60008060006040848603121561152057600080fd5b833567ffffffffffffffff81111561153757600080fd5b611543868287016113f9565b909790965060209590950135949350505050565b6000806020838503121561156a57600080fd5b823567ffffffffffffffff81111561158157600080fd5b61158d858286016113f9565b90969095509350505050565b600082601f8301126115aa57600080fd5b8135602067ffffffffffffffff8211156115c6576115c66112bf565b8160051b6115d58282016112d5565b92835284810182019282810190878511156115ef57600080fd5b83870192505b8483101561160e578235825291830191908301906115f5565b979650505050505050565b600080600080600060a0868803121561163157600080fd5b61163a866112a8565b9450611648602087016112a8565b9350604086013567ffffffffffffffff8082111561166557600080fd5b61167189838a01611599565b9450606088013591508082111561168757600080fd5b61169389838a01611599565b935060808801359150808211156116a957600080fd5b506116b688828901611306565b9150509295509295909350565b600080604083850312156116d657600080fd5b6116df836112a8565b946020939093013593505050565b600080600080600060a0868803121561170557600080fd5b61170e866112a8565b945061171c602087016112a8565b93506040860135925060608601359150608086013567ffffffffffffffff81111561174657600080fd5b6116b688828901611306565b60208082526025908201527f57686974656c697374696e673a2063616c6c6572206973206e6f74207468652060408201526430b236b4b760d91b606082015260800190565b6020808252601f908201527f5265656e7472616e637947756172643a207265656e7472616e742063616c6c00604082015260600190565b6020808252818101527f4f776e61626c653a2063616c6c6572206973206e6f7420746865206f776e6572604082015260600190565b8183823760009101908152919050565b634e487b7160e01b600052603260045260246000fd5b634e487b7160e01b600052601160045260246000fd5b600060001982141561185357611853611829565b5060010190565b60006020828403121561186c57600080fd5b5051919050565b600081600019048311821515161561188d5761188d611829565b500290565b6000602082840312156118a457600080fd5b815180151581146112a157600080fd5b6020808252602e908201527f496e697469616c697a61626c653a20636f6e747261637420697320616c72656160408201526d191e481a5b9a5d1a585b1a5e995960921b606082015260800190565b6020808252602b908201527f496e697469616c697a61626c653a20636f6e7472616374206973206e6f74206960408201526a6e697469616c697a696e6760a81b60608201526080019056fea26469706673582212201fb86bef59a821fbd9c0dfb024cc7b814b73793914c37e378a3c482932f0787964736f6c63430008090033",
  "linkReferences": {},
  "deployedLinkReferences": {}
}