{
  "_format": "hh-sol-artifact-1",
  "contractName": "REITIPO",
  "sourceName": "contracts/REITIPO.sol",
  "abi": [
    {
      "anonymous": false,
      "inputs": [
        {
          "indexed": true,
          "internalType": "address",
          "name": "previousGovernor",
          "type": "address"
        },
        {
          "indexed": true,
          "internalType": "address",
          "name": "newGovernor",
          "type": "address"
        }
      ],
      "name": "GovernorshipTransferred",
      "type": "event"
    },
    {
      "anonymous": false,
      "inputs": [
        {
          "indexed": false,
          "internalType": "uint8",
          "name": "version",
          "type": "uint8"
        }
      ],
      "name": "Initialized",
      "type": "event"
    },
    {
      "stateMutability": "payable",
      "type": "fallback"
    },
    {
      "inputs": [
        {
          "internalType": "string",
          "name": "name",
          "type": "string"
        },
        {
          "internalType": "address",
          "name": "token",
          "type": "address"
        }
      ],
      "name": "allowPayableToken",
      "outputs": [],
      "stateMutability": "nonpayable",
      "type": "function"
    },
    {
      "inputs": [
        {
          "internalType": "uint256",
          "name": "id",
          "type": "uint256"
        }
      ],
      "name": "claimPendingBalances",
      "outputs": [],
      "stateMutability": "nonpayable",
      "type": "function"
    },
    {
      "inputs": [],
      "name": "getNFTContract",
      "outputs": [
        {
          "internalType": "address",
          "name": "",
          "type": "address"
        }
      ],
      "stateMutability": "view",
      "type": "function"
    },
    {
      "inputs": [
        {
          "internalType": "address",
          "name": "account",
          "type": "address"
        },
        {
          "internalType": "uint256",
          "name": "id",
          "type": "uint256"
        }
      ],
      "name": "getPendingBalances",
      "outputs": [
        {
          "internalType": "uint256",
          "name": "",
          "type": "uint256"
        }
      ],
      "stateMutability": "view",
      "type": "function"
    },
    {
      "inputs": [
        {
          "internalType": "uint256",
          "name": "id",
          "type": "uint256"
        },
        {
          "internalType": "uint256",
          "name": "loyalty",
          "type": "uint256"
        }
      ],
      "name": "getPurchasableLimit",
      "outputs": [
        {
          "internalType": "uint256",
          "name": "",
          "type": "uint256"
        }
      ],
      "stateMutability": "view",
      "type": "function"
    },
    {
      "inputs": [
        {
          "internalType": "uint256",
          "name": "id",
          "type": "uint256"
        }
      ],
      "name": "getTotalPendingAmount",
      "outputs": [
        {
          "internalType": "uint256",
          "name": "",
          "type": "uint256"
        }
      ],
      "stateMutability": "view",
      "type": "function"
    },
    {
      "inputs": [],
      "name": "governor",
      "outputs": [
        {
          "internalType": "address",
          "name": "",
          "type": "address"
        }
      ],
      "stateMutability": "view",
      "type": "function"
    },
    {
      "inputs": [
        {
          "internalType": "address",
          "name": "_nftAddress",
          "type": "address"
        }
      ],
      "name": "initialize",
      "outputs": [],
      "stateMutability": "nonpayable",
      "type": "function"
    },
    {
      "inputs": [
        {
          "internalType": "address",
          "name": "",
          "type": "address"
        },
        {
          "internalType": "address",
          "name": "",
          "type": "address"
        },
        {
          "internalType": "uint256[]",
          "name": "",
          "type": "uint256[]"
        },
        {
          "internalType": "uint256[]",
          "name": "",
          "type": "uint256[]"
        },
        {
          "internalType": "bytes",
          "name": "",
          "type": "bytes"
        }
      ],
      "name": "onERC1155BatchReceived",
      "outputs": [
        {
          "internalType": "bytes4",
          "name": "",
          "type": "bytes4"
        }
      ],
      "stateMutability": "nonpayable",
      "type": "function"
    },
    {
      "inputs": [
        {
          "internalType": "address",
          "name": "",
          "type": "address"
        },
        {
          "internalType": "address",
          "name": "",
          "type": "address"
        },
        {
          "internalType": "uint256",
          "name": "",
          "type": "uint256"
        },
        {
          "internalType": "uint256",
          "name": "",
          "type": "uint256"
        },
        {
          "internalType": "bytes",
          "name": "",
          "type": "bytes"
        }
      ],
      "name": "onERC1155Received",
      "outputs": [
        {
          "internalType": "bytes4",
          "name": "",
          "type": "bytes4"
        }
      ],
      "stateMutability": "nonpayable",
      "type": "function"
    },
    {
      "inputs": [
        {
          "internalType": "address",
          "name": "",
          "type": "address"
        },
        {
          "internalType": "address",
          "name": "",
          "type": "address"
        },
        {
          "internalType": "uint256",
          "name": "",
          "type": "uint256"
        },
        {
          "internalType": "bytes",
          "name": "",
          "type": "bytes"
        }
      ],
      "name": "onERC721Received",
      "outputs": [
        {
          "internalType": "bytes4",
          "name": "",
          "type": "bytes4"
        }
      ],
      "stateMutability": "nonpayable",
      "type": "function"
    },
    {
      "inputs": [
        {
          "internalType": "string",
          "name": "token",
          "type": "string"
        },
        {
          "internalType": "uint256",
          "name": "id",
          "type": "uint256"
        },
        {
          "internalType": "uint256",
          "name": "quantity",
          "type": "uint256"
        }
      ],
      "name": "purchaseWithToken",
      "outputs": [],
      "stateMutability": "nonpayable",
      "type": "function"
    },
    {
      "inputs": [],
      "name": "renounceGovernorship",
      "outputs": [],
      "stateMutability": "nonpayable",
      "type": "function"
    },
    {
      "inputs": [
        {
          "internalType": "uint256",
          "name": "id",
          "type": "uint256"
        },
        {
          "internalType": "uint256[]",
          "name": "limits",
          "type": "uint256[]"
        }
      ],
      "name": "setPurchaseLimits",
      "outputs": [],
      "stateMutability": "nonpayable",
      "type": "function"
    },
    {
      "inputs": [
        {
          "internalType": "bytes4",
          "name": "interfaceId",
          "type": "bytes4"
        }
      ],
      "name": "supportsInterface",
      "outputs": [
        {
          "internalType": "bool",
          "name": "",
          "type": "bool"
        }
      ],
      "stateMutability": "pure",
      "type": "function"
    },
    {
      "inputs": [
        {
          "internalType": "address",
          "name": "newGovernor",
          "type": "address"
        }
      ],
      "name": "transferGovernorship",
      "outputs": [],
      "stateMutability": "nonpayable",
      "type": "function"
    },
    {
      "inputs": [],
      "name": "withdrawFunds",
      "outputs": [],
      "stateMutability": "nonpayable",
      "type": "function"
    },
    {
      "inputs": [
        {
          "internalType": "uint256",
          "name": "id",
          "type": "uint256"
        }
      ],
      "name": "withdrawNFT",
      "outputs": [],
      "stateMutability": "nonpayable",
      "type": "function"
    },
    {
      "inputs": [
        {
          "internalType": "string",
          "name": "name",
          "type": "string"
        }
      ],
      "name": "withdrawPayableToken",
      "outputs": [],
      "stateMutability": "nonpayable",
      "type": "function"
    },
    {
      "stateMutability": "payable",
      "type": "receive"
    }
  ],
  "bytecode": "0x608060405234801561001057600080fd5b50611d53806100206000396000f3fe60806040526004361061010c5760003560e01c8063671ad4111161009a578063c4d66de811610061578063c4d66de814610340578063d3e9191614610360578063ec33502d146103a2578063f23a6e61146103c2578063f9672667146103ee57005b8063671ad4111461029257806381c0c263146102b2578063b3bfd426146102c7578063b6aa515b146102f4578063bc197c811461031457005b806324600fc3116100de57806324600fc3146101f15780632b1f4ad6146102065780633239423914610224578063367c44371461024457806338a03e191461026457005b806301ffc9a714610115578063023245d71461015b5780630c340a241461017b578063150b7a02146101ad57005b3661011357005b005b34801561012157600080fd5b506101466101303660046115bc565b6001600160e01b031916630271189760e51b1490565b60405190151581526020015b60405180910390f35b34801561016757600080fd5b506101136101763660046115e6565b61040e565b34801561018757600080fd5b506033546001600160a01b03165b6040516001600160a01b039091168152602001610152565b3480156101b957600080fd5b506101d86101c83660046116cd565b630a85bd0160e11b949350505050565b6040516001600160e01b03199091168152602001610152565b3480156101fd57600080fd5b50610113610573565b34801561021257600080fd5b506097546001600160a01b0316610195565b34801561023057600080fd5b5061011361023f36600461177e565b610664565b34801561025057600080fd5b5061011361025f3660046117d2565b6106d5565b34801561027057600080fd5b5061028461027f366004611823565b610cd7565b604051908152602001610152565b34801561029e57600080fd5b506101136102ad366004611845565b610d44565b3480156102be57600080fd5b50610113610ee2565b3480156102d357600080fd5b506102846102e23660046115e6565b6000908152609a602052604090205490565b34801561030057600080fd5b5061011361030f366004611887565b610f18565b34801561032057600080fd5b506101d861032f366004611922565b63bc197c8160e01b95945050505050565b34801561034c57600080fd5b5061011361035b366004611887565b610fb9565b34801561036c57600080fd5b5061028461037b3660046119cc565b60009081526098602090815260408083206001600160a01b03949094168352929052205490565b3480156103ae57600080fd5b506101136103bd3660046119f6565b6110b4565b3480156103ce57600080fd5b506101d86103dd366004611a75565b63f23a6e6160e01b95945050505050565b3480156103fa57600080fd5b506101136104093660046115e6565b6110fd565b6002606554141561043a5760405162461bcd60e51b815260040161043190611ada565b60405180910390fd5b60026065556033546001600160a01b031633146104695760405162461bcd60e51b815260040161043190611b11565b609754604051627eeac760e11b8152306004820152602481018390526000916001600160a01b03169062fdd58e9060440160206040518083038186803b1580156104b257600080fd5b505afa1580156104c6573d6000803e3d6000fd5b505050506040513d601f19601f820116820180604052508101906104ea9190611b57565b6097549091506060906001600160a01b031663f242432a306105146033546001600160a01b031690565b8686866040518663ffffffff1660e01b8152600401610537959493929190611b70565b600060405180830381600087803b15801561055157600080fd5b505af1158015610565573d6000803e3d6000fd5b505060016065555050505050565b600260655414156105965760405162461bcd60e51b815260040161043190611ada565b60026065556033546001600160a01b031633146105c55760405162461bcd60e51b815260040161043190611b11565b600047116106235760405162461bcd60e51b815260206004820152602560248201527f524549542049504f3a20436f6e747261637427732062616c616e636520697320604482015264656d70747960d81b6064820152608401610431565b6033546040516001600160a01b03909116904780156108fc02916000818181858888f1935050505015801561065c573d6000803e3d6000fd5b506001606555565b6033546001600160a01b0316331461068e5760405162461bcd60e51b815260040161043190611b11565b80609c84846040516106a1929190611bef565b90815260405190819003602001902080546001600160a01b03929092166001600160a01b0319909216919091179055505050565b60975460405163d98d9eaf60e01b8152600481018490523060248201526001600160a01b039091169063d98d9eaf9060440160206040518083038186803b15801561071f57600080fd5b505afa158015610733573d6000803e3d6000fd5b505050506040513d601f19601f820116820180604052508101906107579190611bff565b6107b75760405162461bcd60e51b815260206004820152602b60248201527f5245495449504f3a204d7573742073657420746869732061732052454954204960448201526a1413c818dbdb9d1c9858dd60aa1b6064820152608401610431565b609754604051627eeac760e11b8152306004820152602481018490526000916001600160a01b03169062fdd58e9060440160206040518083038186803b15801561080057600080fd5b505afa158015610814573d6000803e3d6000fd5b505050506040513d601f19601f820116820180604052508101906108389190611b57565b9050818110156108945760405162461bcd60e51b815260206004820152602160248201527f5245495449504f3a206e6f7420656e6f75676820756e69747320746f2073656c6044820152601b60fa1b6064820152608401610431565b6097546040516368a1407760e01b8152600481018590526000916001600160a01b0316906368a140779060240160206040518083038186803b1580156108d957600080fd5b505afa1580156108ed573d6000803e3d6000fd5b505050506040513d601f19601f820116820180604052508101906109119190611b57565b90506000811161095c5760405162461bcd60e51b815260206004820152601660248201527514915255125413ce881c1c9a58d9481b9bdd081cd95d60521b6044820152606401610431565b6000336097546040516340c8df1560e11b81526001600160a01b03808416600483015292935060009290911690638191be2a9060240160206040518083038186803b1580156109aa57600080fd5b505afa1580156109be573d6000803e3d6000fd5b505050506040513d601f19601f820116820180604052508101906109e29190611b57565b905060006109f08783610cd7565b60008881526099602090815260408083206001600160a01b03881684529091529020549091508190610a23908890611c37565b1115610a685760405162461bcd60e51b815260206004820152601460248201527313505617d4155490d21054d157d4915050d2115160621b6044820152606401610431565b6000610a748786611c4f565b9050609c8a8a604051610a88929190611bef565b908152604051908190036020018120546323b872dd60e01b82526001600160a01b0386811660048401523060248401526044830184905216906323b872dd90606401602060405180830381600087803b158015610ae457600080fd5b505af1158015610af8573d6000803e3d6000fd5b505050506040513d601f19601f82011682018060405250810190610b1c9190611bff565b610b685760405162461bcd60e51b815260206004820181905260248201527f5245495449504f3a206e6f7420656e6f7567682066756e647320746f206275796044820152606401610431565b6097546040516313289ea360e31b81526001600160a01b03868116600483015290911690639944f5189060240160206040518083038186803b158015610bad57600080fd5b505afa158015610bc1573d6000803e3d6000fd5b505050506040513d601f19601f82011682018060405250810190610be59190611bff565b15610c5b57609754604051637921219560e11b81526060916001600160a01b03169063f242432a90610c2390309089908e908e908890600401611b70565b600060405180830381600087803b158015610c3d57600080fd5b505af1158015610c51573d6000803e3d6000fd5b5050505050610c94565b60008881526098602090815260408083206001600160a01b0388168452825280832080548b0190558a8352609a90915290208054880190555b60008881526099602090815260408083206001600160a01b038816845290915281208054899290610cc6908490611c37565b909155505050505050505050505050565b6000828152609b60205260408120805482919084908110610cfa57610cfa611c6e565b906000526020600020015490508060001415610d3d576000848152609b602052604081208054909190610d2f57610d2f611c6e565b906000526020600020015490505b9392505050565b60026065541415610d675760405162461bcd60e51b815260040161043190611ada565b60026065556033546001600160a01b03163314610d965760405162461bcd60e51b815260040161043190611b11565b6000609c8383604051610daa929190611bef565b908152604051908190036020018120546370a0823160e01b82523060048301526001600160a01b0316915060009082906370a082319060240160206040518083038186803b158015610dfb57600080fd5b505afa158015610e0f573d6000803e3d6000fd5b505050506040513d601f19601f82011682018060405250810190610e339190611b57565b9050816001600160a01b031663a9059cbb610e566033546001600160a01b031690565b6040516001600160e01b031960e084901b1681526001600160a01b03909116600482015260248101849052604401602060405180830381600087803b158015610e9e57600080fd5b505af1158015610eb2573d6000803e3d6000fd5b505050506040513d601f19601f82011682018060405250810190610ed69190611bff565b50506001606555505050565b6033546001600160a01b03163314610f0c5760405162461bcd60e51b815260040161043190611b11565b610f1660006113c1565b565b6033546001600160a01b03163314610f425760405162461bcd60e51b815260040161043190611b11565b6001600160a01b038116610fad5760405162461bcd60e51b815260206004820152602c60248201527f476f7665726e61626c653a206e657720676f7665726e6f72206973207468652060448201526b7a65726f206164647265737360a01b6064820152608401610431565b610fb6816113c1565b50565b6000610fc56001611413565b90508015610fdd576000805461ff0019166101001790555b6001600160a01b03821661103f5760405162461bcd60e51b815260206004820152602360248201527f4e465420636f6e74726163742063616e6e6f74206265207a65726f206164647260448201526265737360e81b6064820152608401610431565b6110476114a0565b61104f6114cf565b609780546001600160a01b0319166001600160a01b03841617905580156110b0576000805461ff0019169055604051600181527f7f26b83ff96e1f2b6a682f133852f6798a09c465da95921460cefb38474024989060200160405180910390a15b5050565b6033546001600160a01b031633146110de5760405162461bcd60e51b815260040161043190611b11565b6000838152609b602052604090206110f790838361155c565b50505050565b6097546001600160a01b0316639944f518336040516001600160e01b031960e084901b1681526001600160a01b03909116600482015260240160206040518083038186803b15801561114e57600080fd5b505afa158015611162573d6000803e3d6000fd5b505050506040513d601f19601f820116820180604052508101906111869190611bff565b6111c15760405162461bcd60e51b815260206004820152600c60248201526b12d650c81c995c5d5a5c995960a21b6044820152606401610431565b60008181526098602090815260408083203384529091529020546112275760405162461bcd60e51b815260206004820152601860248201527f4e6f206d6f72652070656e64696e672062616c616e63657300000000000000006044820152606401610431565b60008181526098602090815260408083203384528252808320546097548251627eeac760e11b81523060048201526024810187905292519194936001600160a01b039091169262fdd58e9260448083019392829003018186803b15801561128d57600080fd5b505afa1580156112a1573d6000803e3d6000fd5b505050506040513d601f19601f820116820180604052508101906112c59190611b57565b9050818110156113225760405162461bcd60e51b815260206004820152602260248201527f5245495449504f3a206e6f7420656e6f75676820756e69747320746f20636c61604482015261696d60f01b6064820152608401610431565b609754604051637921219560e11b81526060916001600160a01b03169063f242432a9061135b9030903390899089908890600401611b70565b600060405180830381600087803b15801561137557600080fd5b505af1158015611389573d6000803e3d6000fd5b50505060008581526098602090815260408083203384528252808320839055968252609a905294909420805493909303909255505050565b603380546001600160a01b038381166001600160a01b0319831681179093556040519116919082907fc7c0c772add429241571afb3805861fb3cfa2af374534088b76cdb4325a87e9a90600090a35050565b60008054610100900460ff161561145a578160ff1660011480156114365750303b155b6114525760405162461bcd60e51b815260040161043190611c84565b506000919050565b60005460ff8084169116106114815760405162461bcd60e51b815260040161043190611c84565b506000805460ff191660ff92909216919091179055600190565b919050565b600054610100900460ff166114c75760405162461bcd60e51b815260040161043190611cd2565b610f166114fe565b600054610100900460ff166114f65760405162461bcd60e51b815260040161043190611cd2565b610f1661152e565b600054610100900460ff166115255760405162461bcd60e51b815260040161043190611cd2565b610f16336113c1565b600054610100900460ff166115555760405162461bcd60e51b815260040161043190611cd2565b6001606555565b828054828255906000526020600020908101928215611597579160200282015b8281111561159757823582559160200191906001019061157c565b506115a39291506115a7565b5090565b5b808211156115a357600081556001016115a8565b6000602082840312156115ce57600080fd5b81356001600160e01b031981168114610d3d57600080fd5b6000602082840312156115f857600080fd5b5035919050565b80356001600160a01b038116811461149b57600080fd5b634e487b7160e01b600052604160045260246000fd5b604051601f8201601f1916810167ffffffffffffffff8111828210171561165557611655611616565b604052919050565b600082601f83011261166e57600080fd5b813567ffffffffffffffff81111561168857611688611616565b61169b601f8201601f191660200161162c565b8181528460208386010111156116b057600080fd5b816020850160208301376000918101602001919091529392505050565b600080600080608085870312156116e357600080fd5b6116ec856115ff565b93506116fa602086016115ff565b925060408501359150606085013567ffffffffffffffff81111561171d57600080fd5b6117298782880161165d565b91505092959194509250565b60008083601f84011261174757600080fd5b50813567ffffffffffffffff81111561175f57600080fd5b60208301915083602082850101111561177757600080fd5b9250929050565b60008060006040848603121561179357600080fd5b833567ffffffffffffffff8111156117aa57600080fd5b6117b686828701611735565b90945092506117c99050602085016115ff565b90509250925092565b600080600080606085870312156117e857600080fd5b843567ffffffffffffffff8111156117ff57600080fd5b61180b87828801611735565b90989097506020870135966040013595509350505050565b6000806040838503121561183657600080fd5b50508035926020909101359150565b6000806020838503121561185857600080fd5b823567ffffffffffffffff81111561186f57600080fd5b61187b85828601611735565b90969095509350505050565b60006020828403121561189957600080fd5b610d3d826115ff565b600082601f8301126118b357600080fd5b8135602067ffffffffffffffff8211156118cf576118cf611616565b8160051b6118de82820161162c565b92835284810182019282810190878511156118f857600080fd5b83870192505b84831015611917578235825291830191908301906118fe565b979650505050505050565b600080600080600060a0868803121561193a57600080fd5b611943866115ff565b9450611951602087016115ff565b9350604086013567ffffffffffffffff8082111561196e57600080fd5b61197a89838a016118a2565b9450606088013591508082111561199057600080fd5b61199c89838a016118a2565b935060808801359150808211156119b257600080fd5b506119bf8882890161165d565b9150509295509295909350565b600080604083850312156119df57600080fd5b6119e8836115ff565b946020939093013593505050565b600080600060408486031215611a0b57600080fd5b83359250602084013567ffffffffffffffff80821115611a2a57600080fd5b818601915086601f830112611a3e57600080fd5b813581811115611a4d57600080fd5b8760208260051b8501011115611a6257600080fd5b6020830194508093505050509250925092565b600080600080600060a08688031215611a8d57600080fd5b611a96866115ff565b9450611aa4602087016115ff565b93506040860135925060608601359150608086013567ffffffffffffffff811115611ace57600080fd5b6119bf8882890161165d565b6020808252601f908201527f5265656e7472616e637947756172643a207265656e7472616e742063616c6c00604082015260600190565b60208082526026908201527f476f7665726e61626c653a2063616c6c6572206973206e6f742074686520676f6040820152653b32b93737b960d11b606082015260800190565b600060208284031215611b6957600080fd5b5051919050565b600060018060a01b03808816835260208188168185015286604085015285606085015260a06080850152845191508160a085015260005b82811015611bc35785810182015185820160c001528101611ba7565b82811115611bd557600060c084870101525b5050601f01601f19169190910160c0019695505050505050565b8183823760009101908152919050565b600060208284031215611c1157600080fd5b81518015158114610d3d57600080fd5b634e487b7160e01b600052601160045260246000fd5b60008219821115611c4a57611c4a611c21565b500190565b6000816000190483118215151615611c6957611c69611c21565b500290565b634e487b7160e01b600052603260045260246000fd5b6020808252602e908201527f496e697469616c697a61626c653a20636f6e747261637420697320616c72656160408201526d191e481a5b9a5d1a585b1a5e995960921b606082015260800190565b6020808252602b908201527f496e697469616c697a61626c653a20636f6e7472616374206973206e6f74206960408201526a6e697469616c697a696e6760a81b60608201526080019056fea2646970667358221220b4f80b645f9ada1e4176cb0c7a387848f90ba4229b14cbdcf9e804a193f9ed9064736f6c63430008090033",
  "linkReferences": {},
  "deployedLinkReferences": {}
}