{
  "_format": "hh-sol-artifact-1",
  "contractName": "REITIPO",
  "sourceName": "contracts/REITIPO.sol",
  "abi": [
    {
      "anonymous": false,
      "inputs": [
        {
          "indexed": true,
          "internalType": "address",
          "name": "previousGovernor",
          "type": "address"
        },
        {
          "indexed": true,
          "internalType": "address",
          "name": "newGovernor",
          "type": "address"
        }
      ],
      "name": "GovernorshipTransferred",
      "type": "event"
    },
    {
      "anonymous": false,
      "inputs": [
        {
          "indexed": false,
          "internalType": "uint8",
          "name": "version",
          "type": "uint8"
        }
      ],
      "name": "Initialized",
      "type": "event"
    },
    {
      "stateMutability": "payable",
      "type": "fallback"
    },
    {
      "inputs": [
        {
          "internalType": "address[]",
          "name": "accounts",
          "type": "address[]"
        }
      ],
      "name": "addManyToWhitelisted",
      "outputs": [],
      "stateMutability": "nonpayable",
      "type": "function"
    },
    {
      "inputs": [
        {
          "internalType": "address",
          "name": "account",
          "type": "address"
        }
      ],
      "name": "addToWhitelisted",
      "outputs": [],
      "stateMutability": "nonpayable",
      "type": "function"
    },
    {
      "inputs": [
        {
          "internalType": "string",
          "name": "name",
          "type": "string"
        },
        {
          "internalType": "address",
          "name": "token",
          "type": "address"
        }
      ],
      "name": "allowPayableToken",
      "outputs": [],
      "stateMutability": "nonpayable",
      "type": "function"
    },
    {
      "inputs": [
        {
          "internalType": "uint256",
          "name": "id",
          "type": "uint256"
        }
      ],
      "name": "claimPendingBalances",
      "outputs": [],
      "stateMutability": "nonpayable",
      "type": "function"
    },
    {
      "inputs": [],
      "name": "freeWhiteList",
      "outputs": [],
      "stateMutability": "nonpayable",
      "type": "function"
    },
    {
      "inputs": [],
      "name": "getNFTContract",
      "outputs": [
        {
          "internalType": "address",
          "name": "",
          "type": "address"
        }
      ],
      "stateMutability": "view",
      "type": "function"
    },
    {
      "inputs": [
        {
          "internalType": "address",
          "name": "account",
          "type": "address"
        },
        {
          "internalType": "uint256",
          "name": "id",
          "type": "uint256"
        }
      ],
      "name": "getPendingBalances",
      "outputs": [
        {
          "internalType": "uint256",
          "name": "",
          "type": "uint256"
        }
      ],
      "stateMutability": "view",
      "type": "function"
    },
    {
      "inputs": [],
      "name": "governor",
      "outputs": [
        {
          "internalType": "address",
          "name": "",
          "type": "address"
        }
      ],
      "stateMutability": "view",
      "type": "function"
    },
    {
      "inputs": [
        {
          "internalType": "address",
          "name": "_nftAddress",
          "type": "address"
        }
      ],
      "name": "initialize",
      "outputs": [],
      "stateMutability": "nonpayable",
      "type": "function"
    },
    {
      "inputs": [
        {
          "internalType": "address",
          "name": "account",
          "type": "address"
        }
      ],
      "name": "isWhitelisted",
      "outputs": [
        {
          "internalType": "bool",
          "name": "",
          "type": "bool"
        }
      ],
      "stateMutability": "view",
      "type": "function"
    },
    {
      "inputs": [
        {
          "internalType": "address",
          "name": "",
          "type": "address"
        },
        {
          "internalType": "address",
          "name": "",
          "type": "address"
        },
        {
          "internalType": "uint256[]",
          "name": "",
          "type": "uint256[]"
        },
        {
          "internalType": "uint256[]",
          "name": "",
          "type": "uint256[]"
        },
        {
          "internalType": "bytes",
          "name": "",
          "type": "bytes"
        }
      ],
      "name": "onERC1155BatchReceived",
      "outputs": [
        {
          "internalType": "bytes4",
          "name": "",
          "type": "bytes4"
        }
      ],
      "stateMutability": "nonpayable",
      "type": "function"
    },
    {
      "inputs": [
        {
          "internalType": "address",
          "name": "",
          "type": "address"
        },
        {
          "internalType": "address",
          "name": "",
          "type": "address"
        },
        {
          "internalType": "uint256",
          "name": "",
          "type": "uint256"
        },
        {
          "internalType": "uint256",
          "name": "",
          "type": "uint256"
        },
        {
          "internalType": "bytes",
          "name": "",
          "type": "bytes"
        }
      ],
      "name": "onERC1155Received",
      "outputs": [
        {
          "internalType": "bytes4",
          "name": "",
          "type": "bytes4"
        }
      ],
      "stateMutability": "nonpayable",
      "type": "function"
    },
    {
      "inputs": [
        {
          "internalType": "address",
          "name": "",
          "type": "address"
        },
        {
          "internalType": "address",
          "name": "",
          "type": "address"
        },
        {
          "internalType": "uint256",
          "name": "",
          "type": "uint256"
        },
        {
          "internalType": "bytes",
          "name": "",
          "type": "bytes"
        }
      ],
      "name": "onERC721Received",
      "outputs": [
        {
          "internalType": "bytes4",
          "name": "",
          "type": "bytes4"
        }
      ],
      "stateMutability": "nonpayable",
      "type": "function"
    },
    {
      "inputs": [
        {
          "internalType": "string",
          "name": "token",
          "type": "string"
        },
        {
          "internalType": "uint256",
          "name": "id",
          "type": "uint256"
        },
        {
          "internalType": "uint256",
          "name": "quantity",
          "type": "uint256"
        }
      ],
      "name": "purchaseWithToken",
      "outputs": [],
      "stateMutability": "nonpayable",
      "type": "function"
    },
    {
      "inputs": [
        {
          "internalType": "address[]",
          "name": "accounts",
          "type": "address[]"
        }
      ],
      "name": "removeManyWhitelisted",
      "outputs": [],
      "stateMutability": "nonpayable",
      "type": "function"
    },
    {
      "inputs": [
        {
          "internalType": "address",
          "name": "account",
          "type": "address"
        }
      ],
      "name": "removeWhitelisted",
      "outputs": [],
      "stateMutability": "nonpayable",
      "type": "function"
    },
    {
      "inputs": [],
      "name": "renounceGovernorship",
      "outputs": [],
      "stateMutability": "nonpayable",
      "type": "function"
    },
    {
      "inputs": [],
      "name": "resumeWhiteList",
      "outputs": [],
      "stateMutability": "nonpayable",
      "type": "function"
    },
    {
      "inputs": [
        {
          "internalType": "address",
          "name": "account",
          "type": "address"
        }
      ],
      "name": "setWhitelistAdmin",
      "outputs": [],
      "stateMutability": "nonpayable",
      "type": "function"
    },
    {
      "inputs": [
        {
          "internalType": "bytes4",
          "name": "interfaceId",
          "type": "bytes4"
        }
      ],
      "name": "supportsInterface",
      "outputs": [
        {
          "internalType": "bool",
          "name": "",
          "type": "bool"
        }
      ],
      "stateMutability": "pure",
      "type": "function"
    },
    {
      "inputs": [
        {
          "internalType": "address",
          "name": "newGovernor",
          "type": "address"
        }
      ],
      "name": "transferGovernorship",
      "outputs": [],
      "stateMutability": "nonpayable",
      "type": "function"
    },
    {
      "inputs": [],
      "name": "withdrawFunds",
      "outputs": [],
      "stateMutability": "nonpayable",
      "type": "function"
    },
    {
      "inputs": [
        {
          "internalType": "uint256",
          "name": "id",
          "type": "uint256"
        }
      ],
      "name": "withdrawNFT",
      "outputs": [],
      "stateMutability": "nonpayable",
      "type": "function"
    },
    {
      "inputs": [
        {
          "internalType": "string",
          "name": "name",
          "type": "string"
        }
      ],
      "name": "withdrawPayableToken",
      "outputs": [],
      "stateMutability": "nonpayable",
      "type": "function"
    },
    {
      "stateMutability": "payable",
      "type": "receive"
    }
  ],
  "bytecode": "0x608060405234801561001057600080fd5b506120d3806100206000396000f3fe6080604052600436106101435760003560e01c8063671ad411116100b0578063bc197c811161006c578063bc197c81146103ba578063c4d66de8146103e6578063d3e9191614610406578063e46c150714610456578063f23a6e6114610476578063f9672667146104a257005b8063671ad411146103105780636c6426ad14610330578063764d80291461034557806381c0c26314610365578063a8d49e641461037a578063b6aa515b1461039a57005b8063291d9549116100ff578063291d9549146102525780632b1f4ad6146102725780633239423914610290578063367c4437146102b05780633af32abf146102d05780634536cab6146102f057005b806301ffc9a71461014c578063023245d71461019257806308c92f50146101b25780630c340a24146101c7578063150b7a02146101f957806324600fc31461023d57005b3661014a57005b005b34801561015857600080fd5b5061017d610167366004611908565b6001600160e01b031916630271189760e51b1490565b60405190151581526020015b60405180910390f35b34801561019e57600080fd5b5061014a6101ad366004611932565b6104c2565b3480156101be57600080fd5b5061014a610627565b3480156101d357600080fd5b506066546001600160a01b03165b6040516001600160a01b039091168152602001610189565b34801561020557600080fd5b50610224610214366004611a19565b630a85bd0160e11b949350505050565b6040516001600160e01b03199091168152602001610189565b34801561024957600080fd5b5061014a6106c0565b34801561025e57600080fd5b5061014a61026d366004611a81565b6107b1565b34801561027e57600080fd5b5060ca546001600160a01b03166101e1565b34801561029c57600080fd5b5061014a6102ab366004611ae5565b6107fc565b3480156102bc57600080fd5b5061014a6102cb366004611b39565b61086d565b3480156102dc57600080fd5b5061017d6102eb366004611a81565b610db9565b3480156102fc57600080fd5b5061014a61030b366004611b8a565b610ded565b34801561031c57600080fd5b5061014a61032b366004611bff565b610e8e565b34801561033c57600080fd5b5061014a61102c565b34801561035157600080fd5b5061014a610360366004611b8a565b6110be565b34801561037157600080fd5b5061014a61115a565b34801561038657600080fd5b5061014a610395366004611a81565b611190565b3480156103a657600080fd5b5061014a6103b5366004611a81565b61122b565b3480156103c657600080fd5b506102246103d5366004611cc1565b63bc197c8160e01b95945050505050565b3480156103f257600080fd5b5061014a610401366004611a81565b6112c9565b34801561041257600080fd5b50610448610421366004611d6b565b600090815260cb602090815260408083206001600160a01b03949094168352929052205490565b604051908152602001610189565b34801561046257600080fd5b5061014a610471366004611a81565b6113d1565b34801561048257600080fd5b50610224610491366004611d95565b63f23a6e6160e01b95945050505050565b3480156104ae57600080fd5b5061014a6104bd366004611932565b61141f565b600260985414156104ee5760405162461bcd60e51b81526004016104e590611dfa565b60405180910390fd5b60026098556066546001600160a01b0316331461051d5760405162461bcd60e51b81526004016104e590611e31565b60ca54604051627eeac760e11b8152306004820152602481018390526000916001600160a01b03169062fdd58e9060440160206040518083038186803b15801561056657600080fd5b505afa15801561057a573d6000803e3d6000fd5b505050506040513d601f19601f8201168201806040525081019061059e9190611e77565b60ca549091506060906001600160a01b031663f242432a306105c86066546001600160a01b031690565b8686866040518663ffffffff1660e01b81526004016105eb959493929190611e90565b600060405180830381600087803b15801561060557600080fd5b505af1158015610619573d6000803e3d6000fd5b505060016098555050505050565b6034546001600160a01b031633146106515760405162461bcd60e51b81526004016104e590611f0f565b603454600160a01b900460ff16156106ab5760405162461bcd60e51b815260206004820152601c60248201527f57686974656c697374696e6720616c726561647920726573756d65640000000060448201526064016104e5565b6034805460ff60a01b1916600160a01b179055565b600260985414156106e35760405162461bcd60e51b81526004016104e590611dfa565b60026098556066546001600160a01b031633146107125760405162461bcd60e51b81526004016104e590611e31565b600047116107705760405162461bcd60e51b815260206004820152602560248201527f524549542049504f3a20436f6e747261637427732062616c616e636520697320604482015264656d70747960d81b60648201526084016104e5565b6066546040516001600160a01b03909116904780156108fc02916000818181858888f193505050501580156107a9573d6000803e3d6000fd5b506001609855565b6034546001600160a01b031633146107db5760405162461bcd60e51b81526004016104e590611f0f565b6001600160a01b03166000908152603360205260409020805460ff19169055565b6066546001600160a01b031633146108265760405162461bcd60e51b81526004016104e590611e31565b8060cc8484604051610839929190611f54565b90815260405190819003602001902080546001600160a01b03929092166001600160a01b0319909216919091179055505050565b3360009081526033602052604090205460ff16806108945750603454600160a01b900460ff165b6108d25760405162461bcd60e51b815260206004820152600f60248201526e139bdd081dda1a5d195b1a5cdd1959608a1b60448201526064016104e5565b60ca5460405163d98d9eaf60e01b8152600481018490523060248201526001600160a01b039091169063d98d9eaf9060440160206040518083038186803b15801561091c57600080fd5b505afa158015610930573d6000803e3d6000fd5b505050506040513d601f19601f820116820180604052508101906109549190611f64565b6109b45760405162461bcd60e51b815260206004820152602b60248201527f5245495449504f3a204d7573742073657420746869732061732052454954204960448201526a1413c818dbdb9d1c9858dd60aa1b60648201526084016104e5565b60ca54604051630b12308560e11b8152306004820152602481018490526000916001600160a01b031690631624610a9060440160206040518083038186803b1580156109ff57600080fd5b505afa158015610a13573d6000803e3d6000fd5b505050506040513d601f19601f82011682018060405250810190610a379190611e77565b905081811015610a935760405162461bcd60e51b815260206004820152602160248201527f5245495449504f3a206e6f7420656e6f75676820756e69747320746f2073656c6044820152601b60fa1b60648201526084016104e5565b60ca54604051630b1fd69160e41b8152600481018590526000916001600160a01b03169063b1fd69109060240160206040518083038186803b158015610ad857600080fd5b505afa158015610aec573d6000803e3d6000fd5b505050506040513d601f19601f82011682018060405250810190610b109190611e77565b905060008111610b5b5760405162461bcd60e51b815260206004820152601660248201527514915255125413ce881c1c9a58d9481b9bdd081cd95d60521b60448201526064016104e5565b6000610b678483611f9c565b905060cc8787604051610b7b929190611f54565b908152604051908190036020019020546001600160a01b03166323b872dd610ba03390565b6040516001600160e01b031960e084901b1681526001600160a01b03909116600482015230602482015260448101849052606401602060405180830381600087803b158015610bee57600080fd5b505af1158015610c02573d6000803e3d6000fd5b505050506040513d601f19601f82011682018060405250810190610c269190611f64565b610c725760405162461bcd60e51b815260206004820181905260248201527f5245495449504f3a206e6f7420656e6f7567682066756e647320746f2062757960448201526064016104e5565b60ca546001600160a01b0316639944f518336040516001600160e01b031960e084901b1681526001600160a01b03909116600482015260240160206040518083038186803b158015610cc357600080fd5b505afa158015610cd7573d6000803e3d6000fd5b505050506040513d601f19601f82011682018060405250810190610cfb9190611f64565b15610d715760ca54604051637921219560e11b81526060916001600160a01b03169063f242432a90610d3990309033908b908b908890600401611e90565b600060405180830381600087803b158015610d5357600080fd5b505af1158015610d67573d6000803e3d6000fd5b5050505050610db0565b600085815260cb60209081526040808320338452909152902054610d959085611736565b600086815260cb602090815260408083203384529091529020555b50505050505050565b60006001600160a01b038216610dce57600080fd5b506001600160a01b031660009081526033602052604090205460ff1690565b6034546001600160a01b03163314610e175760405162461bcd60e51b81526004016104e590611f0f565b60005b81811015610e8957600160336000858585818110610e3a57610e3a611fbb565b9050602002016020810190610e4f9190611a81565b6001600160a01b031681526020810191909152604001600020805460ff191691151591909117905580610e8181611fd1565b915050610e1a565b505050565b60026098541415610eb15760405162461bcd60e51b81526004016104e590611dfa565b60026098556066546001600160a01b03163314610ee05760405162461bcd60e51b81526004016104e590611e31565b600060cc8383604051610ef4929190611f54565b908152604051908190036020018120546370a0823160e01b82523060048301526001600160a01b0316915060009082906370a082319060240160206040518083038186803b158015610f4557600080fd5b505afa158015610f59573d6000803e3d6000fd5b505050506040513d601f19601f82011682018060405250810190610f7d9190611e77565b9050816001600160a01b031663a9059cbb610fa06066546001600160a01b031690565b6040516001600160e01b031960e084901b1681526001600160a01b03909116600482015260248101849052604401602060405180830381600087803b158015610fe857600080fd5b505af1158015610ffc573d6000803e3d6000fd5b505050506040513d601f19601f820116820180604052508101906110209190611f64565b50506001609855505050565b6034546001600160a01b031633146110565760405162461bcd60e51b81526004016104e590611f0f565b603454600160a01b900460ff166110af5760405162461bcd60e51b815260206004820152601b60248201527f57686974656c697374696e6720616c726561647920706175736564000000000060448201526064016104e5565b6034805460ff60a01b19169055565b6034546001600160a01b031633146110e85760405162461bcd60e51b81526004016104e590611f0f565b60005b81811015610e895760006033600085858581811061110b5761110b611fbb565b90506020020160208101906111209190611a81565b6001600160a01b031681526020810191909152604001600020805460ff19169115159190911790558061115281611fd1565b9150506110eb565b6066546001600160a01b031633146111845760405162461bcd60e51b81526004016104e590611e31565b61118e6000611749565b565b6066546001600160a01b031633146111ba5760405162461bcd60e51b81526004016104e590611e31565b6001600160a01b03811661121f5760405162461bcd60e51b815260206004820152602660248201527f57686974656c6973742041646d696e2063616e6e6f74206265207a65726f206160448201526564647265737360d01b60648201526084016104e5565b6112288161179b565b50565b6066546001600160a01b031633146112555760405162461bcd60e51b81526004016104e590611e31565b6001600160a01b0381166112c05760405162461bcd60e51b815260206004820152602c60248201527f476f7665726e61626c653a206e657720676f7665726e6f72206973207468652060448201526b7a65726f206164647265737360a01b60648201526084016104e5565b61122881611749565b60006112d560016117bd565b905080156112ed576000805461ff0019166101001790555b6001600160a01b03821661134f5760405162461bcd60e51b815260206004820152602360248201527f4e465420636f6e74726163742063616e6e6f74206265207a65726f206164647260448201526265737360e81b60648201526084016104e5565b61135761184a565b61135f611879565b60ca80546001600160a01b0319166001600160a01b0384161790556034805460ff60a01b1916905580156113cd576000805461ff0019169055604051600181527f7f26b83ff96e1f2b6a682f133852f6798a09c465da95921460cefb38474024989060200160405180910390a15b5050565b6034546001600160a01b031633146113fb5760405162461bcd60e51b81526004016104e590611f0f565b6001600160a01b03166000908152603360205260409020805460ff19166001179055565b3360009081526033602052604090205460ff16806114465750603454600160a01b900460ff165b6114845760405162461bcd60e51b815260206004820152600f60248201526e139bdd081dda1a5d195b1a5cdd1959608a1b60448201526064016104e5565b60ca546001600160a01b0316639944f518336040516001600160e01b031960e084901b1681526001600160a01b03909116600482015260240160206040518083038186803b1580156114d557600080fd5b505afa1580156114e9573d6000803e3d6000fd5b505050506040513d601f19601f8201168201806040525081019061150d9190611f64565b6115485760405162461bcd60e51b815260206004820152600c60248201526b12d650c81c995c5d5a5c995960a21b60448201526064016104e5565b600081815260cb602090815260408083203384529091529020546115ae5760405162461bcd60e51b815260206004820152601860248201527f4e6f206d6f72652070656e64696e672062616c616e636573000000000000000060448201526064016104e5565b600081815260cb6020908152604080832033845282528083205460ca548251627eeac760e11b81523060048201526024810187905292519194936001600160a01b039091169262fdd58e9260448083019392829003018186803b15801561161457600080fd5b505afa158015611628573d6000803e3d6000fd5b505050506040513d601f19601f8201168201806040525081019061164c9190611e77565b9050818110156116a95760405162461bcd60e51b815260206004820152602260248201527f5245495449504f3a206e6f7420656e6f75676820756e69747320746f20636c61604482015261696d60f01b60648201526084016104e5565b60ca54604051637921219560e11b81526060916001600160a01b03169063f242432a906116e29030903390899089908890600401611e90565b600060405180830381600087803b1580156116fc57600080fd5b505af1158015611710573d6000803e3d6000fd5b5050506000948552505060cb602090815260408085203386529091528320929092555050565b60006117428284611fec565b9392505050565b606680546001600160a01b038381166001600160a01b0319831681179093556040519116919082907fc7c0c772add429241571afb3805861fb3cfa2af374534088b76cdb4325a87e9a90600090a35050565b603480546001600160a01b0319166001600160a01b0392909216919091179055565b60008054610100900460ff1615611804578160ff1660011480156117e05750303b155b6117fc5760405162461bcd60e51b81526004016104e590612004565b506000919050565b60005460ff80841691161061182b5760405162461bcd60e51b81526004016104e590612004565b506000805460ff191660ff92909216919091179055600190565b919050565b600054610100900460ff166118715760405162461bcd60e51b81526004016104e590612052565b61118e6118a8565b600054610100900460ff166118a05760405162461bcd60e51b81526004016104e590612052565b61118e6118d8565b600054610100900460ff166118cf5760405162461bcd60e51b81526004016104e590612052565b61118e33611749565b600054610100900460ff166118ff5760405162461bcd60e51b81526004016104e590612052565b61118e3361179b565b60006020828403121561191a57600080fd5b81356001600160e01b03198116811461174257600080fd5b60006020828403121561194457600080fd5b5035919050565b80356001600160a01b038116811461184557600080fd5b634e487b7160e01b600052604160045260246000fd5b604051601f8201601f1916810167ffffffffffffffff811182821017156119a1576119a1611962565b604052919050565b600082601f8301126119ba57600080fd5b813567ffffffffffffffff8111156119d4576119d4611962565b6119e7601f8201601f1916602001611978565b8181528460208386010111156119fc57600080fd5b816020850160208301376000918101602001919091529392505050565b60008060008060808587031215611a2f57600080fd5b611a388561194b565b9350611a466020860161194b565b925060408501359150606085013567ffffffffffffffff811115611a6957600080fd5b611a75878288016119a9565b91505092959194509250565b600060208284031215611a9357600080fd5b6117428261194b565b60008083601f840112611aae57600080fd5b50813567ffffffffffffffff811115611ac657600080fd5b602083019150836020828501011115611ade57600080fd5b9250929050565b600080600060408486031215611afa57600080fd5b833567ffffffffffffffff811115611b1157600080fd5b611b1d86828701611a9c565b9094509250611b3090506020850161194b565b90509250925092565b60008060008060608587031215611b4f57600080fd5b843567ffffffffffffffff811115611b6657600080fd5b611b7287828801611a9c565b90989097506020870135966040013595509350505050565b60008060208385031215611b9d57600080fd5b823567ffffffffffffffff80821115611bb557600080fd5b818501915085601f830112611bc957600080fd5b813581811115611bd857600080fd5b8660208260051b8501011115611bed57600080fd5b60209290920196919550909350505050565b60008060208385031215611c1257600080fd5b823567ffffffffffffffff811115611c2957600080fd5b611c3585828601611a9c565b90969095509350505050565b600082601f830112611c5257600080fd5b8135602067ffffffffffffffff821115611c6e57611c6e611962565b8160051b611c7d828201611978565b9283528481018201928281019087851115611c9757600080fd5b83870192505b84831015611cb657823582529183019190830190611c9d565b979650505050505050565b600080600080600060a08688031215611cd957600080fd5b611ce28661194b565b9450611cf06020870161194b565b9350604086013567ffffffffffffffff80821115611d0d57600080fd5b611d1989838a01611c41565b94506060880135915080821115611d2f57600080fd5b611d3b89838a01611c41565b93506080880135915080821115611d5157600080fd5b50611d5e888289016119a9565b9150509295509295909350565b60008060408385031215611d7e57600080fd5b611d878361194b565b946020939093013593505050565b600080600080600060a08688031215611dad57600080fd5b611db68661194b565b9450611dc46020870161194b565b93506040860135925060608601359150608086013567ffffffffffffffff811115611dee57600080fd5b611d5e888289016119a9565b6020808252601f908201527f5265656e7472616e637947756172643a207265656e7472616e742063616c6c00604082015260600190565b60208082526026908201527f476f7665726e61626c653a2063616c6c6572206973206e6f742074686520676f6040820152653b32b93737b960d11b606082015260800190565b600060208284031215611e8957600080fd5b5051919050565b600060018060a01b03808816835260208188168185015286604085015285606085015260a06080850152845191508160a085015260005b82811015611ee35785810182015185820160c001528101611ec7565b82811115611ef557600060c084870101525b5050601f01601f19169190910160c0019695505050505050565b60208082526025908201527f57686974656c697374696e673a2063616c6c6572206973206e6f74207468652060408201526430b236b4b760d91b606082015260800190565b8183823760009101908152919050565b600060208284031215611f7657600080fd5b8151801515811461174257600080fd5b634e487b7160e01b600052601160045260246000fd5b6000816000190483118215151615611fb657611fb6611f86565b500290565b634e487b7160e01b600052603260045260246000fd5b6000600019821415611fe557611fe5611f86565b5060010190565b60008219821115611fff57611fff611f86565b500190565b6020808252602e908201527f496e697469616c697a61626c653a20636f6e747261637420697320616c72656160408201526d191e481a5b9a5d1a585b1a5e995960921b606082015260800190565b6020808252602b908201527f496e697469616c697a61626c653a20636f6e7472616374206973206e6f74206960408201526a6e697469616c697a696e6760a81b60608201526080019056fea26469706673582212201f4c4bf9d03471e33652a1b986f1452fc060880afde4892da60bb2b561feca9464736f6c63430008090033",
  "linkReferences": {},
  "deployedLinkReferences": {}
}