{
  "_format": "hh-sol-artifact-1",
  "contractName": "WhitelistingUpgradeable",
  "sourceName": "contracts/REITIPO.sol",
  "abi": [
    {
      "anonymous": false,
      "inputs": [
        {
          "indexed": false,
          "internalType": "uint8",
          "name": "version",
          "type": "uint8"
        }
      ],
      "name": "Initialized",
      "type": "event"
    },
    {
      "inputs": [
        {
          "internalType": "address[]",
          "name": "accounts",
          "type": "address[]"
        }
      ],
      "name": "addManyToWhitelisted",
      "outputs": [],
      "stateMutability": "nonpayable",
      "type": "function"
    },
    {
      "inputs": [
        {
          "internalType": "address",
          "name": "account",
          "type": "address"
        }
      ],
      "name": "addToWhitelisted",
      "outputs": [],
      "stateMutability": "nonpayable",
      "type": "function"
    },
    {
      "inputs": [],
      "name": "freeWhiteList",
      "outputs": [],
      "stateMutability": "nonpayable",
      "type": "function"
    },
    {
      "inputs": [
        {
          "internalType": "address",
          "name": "account",
          "type": "address"
        }
      ],
      "name": "isWhitelisted",
      "outputs": [
        {
          "internalType": "bool",
          "name": "",
          "type": "bool"
        }
      ],
      "stateMutability": "view",
      "type": "function"
    },
    {
      "inputs": [
        {
          "internalType": "address[]",
          "name": "accounts",
          "type": "address[]"
        }
      ],
      "name": "removeManyWhitelisted",
      "outputs": [],
      "stateMutability": "nonpayable",
      "type": "function"
    },
    {
      "inputs": [
        {
          "internalType": "address",
          "name": "account",
          "type": "address"
        }
      ],
      "name": "removeWhitelisted",
      "outputs": [],
      "stateMutability": "nonpayable",
      "type": "function"
    },
    {
      "inputs": [],
      "name": "resumeWhiteList",
      "outputs": [],
      "stateMutability": "nonpayable",
      "type": "function"
    }
  ],
  "bytecode": "0x608060405234801561001057600080fd5b506105a4806100206000396000f3fe608060405234801561001057600080fd5b506004361061007d5760003560e01c80634536cab61161005b5780634536cab6146100c65780636c6426ad146100d9578063764d8029146100e1578063e46c1507146100f457600080fd5b806308c92f5014610082578063291d95491461008c5780633af32abf1461009f575b600080fd5b61008a610107565b005b61008a61009a366004610445565b6101a9565b6100b26100ad366004610445565b6101f4565b604051901515815260200160405180910390f35b61008a6100d4366004610475565b610228565b61008a6102c9565b61008a6100ef366004610475565b61035b565b61008a610102366004610445565b6103f7565b6034546001600160a01b0316331461013a5760405162461bcd60e51b8152600401610131906104ea565b60405180910390fd5b603454600160a01b900460ff16156101945760405162461bcd60e51b815260206004820152601c60248201527f57686974656c697374696e6720616c726561647920726573756d6564000000006044820152606401610131565b6034805460ff60a01b1916600160a01b179055565b6034546001600160a01b031633146101d35760405162461bcd60e51b8152600401610131906104ea565b6001600160a01b03166000908152603360205260409020805460ff19169055565b60006001600160a01b03821661020957600080fd5b506001600160a01b031660009081526033602052604090205460ff1690565b6034546001600160a01b031633146102525760405162461bcd60e51b8152600401610131906104ea565b60005b818110156102c4576001603360008585858181106102755761027561052f565b905060200201602081019061028a9190610445565b6001600160a01b031681526020810191909152604001600020805460ff1916911515919091179055806102bc81610545565b915050610255565b505050565b6034546001600160a01b031633146102f35760405162461bcd60e51b8152600401610131906104ea565b603454600160a01b900460ff1661034c5760405162461bcd60e51b815260206004820152601b60248201527f57686974656c697374696e6720616c72656164792070617573656400000000006044820152606401610131565b6034805460ff60a01b19169055565b6034546001600160a01b031633146103855760405162461bcd60e51b8152600401610131906104ea565b60005b818110156102c4576000603360008585858181106103a8576103a861052f565b90506020020160208101906103bd9190610445565b6001600160a01b031681526020810191909152604001600020805460ff1916911515919091179055806103ef81610545565b915050610388565b6034546001600160a01b031633146104215760405162461bcd60e51b8152600401610131906104ea565b6001600160a01b03166000908152603360205260409020805460ff19166001179055565b60006020828403121561045757600080fd5b81356001600160a01b038116811461046e57600080fd5b9392505050565b6000806020838503121561048857600080fd5b823567ffffffffffffffff808211156104a057600080fd5b818501915085601f8301126104b457600080fd5b8135818111156104c357600080fd5b8660208260051b85010111156104d857600080fd5b60209290920196919550909350505050565b60208082526025908201527f57686974656c697374696e673a2063616c6c6572206973206e6f74207468652060408201526430b236b4b760d91b606082015260800190565b634e487b7160e01b600052603260045260246000fd5b600060001982141561056757634e487b7160e01b600052601160045260246000fd5b506001019056fea2646970667358221220ec4a9ea3093682981b19a1053670939388c10ce36de72f465130824a94ea637b64736f6c63430008090033",
  "linkReferences": {},
  "deployedLinkReferences": {}
}