{
  "_format": "hh-sol-artifact-1",
  "contractName": "Whitelisting",
  "sourceName": "contracts/REITIPO.sol",
  "abi": [
    {
      "anonymous": false,
      "inputs": [
        {
          "indexed": false,
          "internalType": "uint8",
          "name": "version",
          "type": "uint8"
        }
      ],
      "name": "Initialized",
      "type": "event"
    },
    {
      "anonymous": false,
      "inputs": [
        {
          "indexed": true,
          "internalType": "address",
          "name": "previousOwner",
          "type": "address"
        },
        {
          "indexed": true,
          "internalType": "address",
          "name": "newOwner",
          "type": "address"
        }
      ],
      "name": "OwnershipTransferred",
      "type": "event"
    },
    {
      "inputs": [
        {
          "internalType": "address[]",
          "name": "accounts",
          "type": "address[]"
        }
      ],
      "name": "addManyToWhitelisted",
      "outputs": [],
      "stateMutability": "nonpayable",
      "type": "function"
    },
    {
      "inputs": [
        {
          "internalType": "address",
          "name": "account",
          "type": "address"
        }
      ],
      "name": "addToWhitelisted",
      "outputs": [],
      "stateMutability": "nonpayable",
      "type": "function"
    },
    {
      "inputs": [
        {
          "internalType": "address",
          "name": "account",
          "type": "address"
        }
      ],
      "name": "isWhitelisted",
      "outputs": [
        {
          "internalType": "bool",
          "name": "",
          "type": "bool"
        }
      ],
      "stateMutability": "view",
      "type": "function"
    },
    {
      "inputs": [],
      "name": "owner",
      "outputs": [
        {
          "internalType": "address",
          "name": "",
          "type": "address"
        }
      ],
      "stateMutability": "view",
      "type": "function"
    },
    {
      "inputs": [
        {
          "internalType": "address[]",
          "name": "accounts",
          "type": "address[]"
        }
      ],
      "name": "removeManyWhitelisted",
      "outputs": [],
      "stateMutability": "nonpayable",
      "type": "function"
    },
    {
      "inputs": [
        {
          "internalType": "address",
          "name": "account",
          "type": "address"
        }
      ],
      "name": "removeWhitelisted",
      "outputs": [],
      "stateMutability": "nonpayable",
      "type": "function"
    },
    {
      "inputs": [],
      "name": "renounceOwnership",
      "outputs": [],
      "stateMutability": "nonpayable",
      "type": "function"
    },
    {
      "inputs": [
        {
          "internalType": "address",
          "name": "newOwner",
          "type": "address"
        }
      ],
      "name": "transferOwnership",
      "outputs": [],
      "stateMutability": "nonpayable",
      "type": "function"
    }
  ],
  "bytecode": "0x608060405234801561001057600080fd5b506105be806100206000396000f3fe608060405234801561001057600080fd5b50600436106100885760003560e01c8063764d80291161005b578063764d8029146100e55780638da5cb5b146100f8578063e46c150714610113578063f2fde38b1461012657600080fd5b8063291d95491461008d5780633af32abf146100a25780634536cab6146100ca578063715018a6146100dd575b600080fd5b6100a061009b36600461046f565b610139565b005b6100b56100b036600461046f565b61018d565b60405190151581526020015b60405180910390f35b6100a06100d836600461049f565b6101c1565b6100a0610262565b6100a06100f336600461049f565b610298565b6033546040516001600160a01b0390911681526020016100c1565b6100a061012136600461046f565b610334565b6100a061013436600461046f565b610382565b6033546001600160a01b0316331461016c5760405162461bcd60e51b815260040161016390610514565b60405180910390fd5b6001600160a01b03166000908152606560205260409020805460ff19169055565b60006001600160a01b0382166101a257600080fd5b506001600160a01b031660009081526065602052604090205460ff1690565b6033546001600160a01b031633146101eb5760405162461bcd60e51b815260040161016390610514565b60005b8181101561025d5760016065600085858581811061020e5761020e610549565b9050602002016020810190610223919061046f565b6001600160a01b031681526020810191909152604001600020805460ff1916911515919091179055806102558161055f565b9150506101ee565b505050565b6033546001600160a01b0316331461028c5760405162461bcd60e51b815260040161016390610514565b610296600061041d565b565b6033546001600160a01b031633146102c25760405162461bcd60e51b815260040161016390610514565b60005b8181101561025d576000606560008585858181106102e5576102e5610549565b90506020020160208101906102fa919061046f565b6001600160a01b031681526020810191909152604001600020805460ff19169115159190911790558061032c8161055f565b9150506102c5565b6033546001600160a01b0316331461035e5760405162461bcd60e51b815260040161016390610514565b6001600160a01b03166000908152606560205260409020805460ff19166001179055565b6033546001600160a01b031633146103ac5760405162461bcd60e51b815260040161016390610514565b6001600160a01b0381166104115760405162461bcd60e51b815260206004820152602660248201527f4f776e61626c653a206e6577206f776e657220697320746865207a65726f206160448201526564647265737360d01b6064820152608401610163565b61041a8161041d565b50565b603380546001600160a01b038381166001600160a01b0319831681179093556040519116919082907f8be0079c531659141344cd1fd0a4f28419497f9722a3daafe3b4186f6b6457e090600090a35050565b60006020828403121561048157600080fd5b81356001600160a01b038116811461049857600080fd5b9392505050565b600080602083850312156104b257600080fd5b823567ffffffffffffffff808211156104ca57600080fd5b818501915085601f8301126104de57600080fd5b8135818111156104ed57600080fd5b8660208260051b850101111561050257600080fd5b60209290920196919550909350505050565b6020808252818101527f4f776e61626c653a2063616c6c6572206973206e6f7420746865206f776e6572604082015260600190565b634e487b7160e01b600052603260045260246000fd5b600060001982141561058157634e487b7160e01b600052601160045260246000fd5b506001019056fea2646970667358221220b8571a04d36c1ff0efd48292f0319b277de1b14e42015d33565bc05f4fea997964736f6c63430008090033",
  "linkReferences": {},
  "deployedLinkReferences": {}
}